{
  "address": "0xAa8D3e247869Aa99c4b449E744A2fdDa21221942",
  "abi": [
    {
      "anonymous": false,
      "inputs": [
        {
          "indexed": true,
          "internalType": "address",
          "name": "previousOwner",
          "type": "address"
        },
        {
          "indexed": true,
          "internalType": "address",
          "name": "newOwner",
          "type": "address"
        }
      ],
      "name": "OwnershipTransferred",
      "type": "event"
    },
    {
      "anonymous": false,
      "inputs": [
        {
          "indexed": false,
          "internalType": "address",
          "name": "caller",
          "type": "address"
        },
        {
          "indexed": false,
          "internalType": "address",
          "name": "to",
          "type": "address"
        },
        {
          "indexed": false,
          "internalType": "contract IERC20",
          "name": "token",
          "type": "address"
        },
        {
          "indexed": false,
          "internalType": "uint256",
          "name": "amount",
          "type": "uint256"
        }
      ],
      "name": "TransferFee",
      "type": "event"
    },
    {
      "inputs": [
        {
          "internalType": "address",
          "name": "",
          "type": "address"
        }
      ],
      "name": "getSwapConfig",
      "outputs": [
        {
          "internalType": "enum FeeDistributor.SwapPoolType",
          "name": "poolType",
          "type": "uint8"
        },
        {
          "internalType": "address",
          "name": "pool",
          "type": "address"
        },
        {
          "internalType": "address",
          "name": "basePool",
          "type": "address"
        }
      ],
      "stateMutability": "view",
      "type": "function"
    },
    {
      "inputs": [
        {
          "internalType": "address",
          "name": "_target",
          "type": "address"
        },
        {
          "internalType": "address",
          "name": "_swapRouter",
          "type": "address"
        }
      ],
      "name": "initialize",
      "outputs": [],
      "stateMutability": "nonpayable",
      "type": "function"
    },
    {
      "inputs": [
        {
          "internalType": "address",
          "name": "",
          "type": "address"
        }
      ],
      "name": "operators",
      "outputs": [
        {
          "internalType": "bool",
          "name": "",
          "type": "bool"
        }
      ],
      "stateMutability": "view",
      "type": "function"
    },
    {
      "inputs": [],
      "name": "owner",
      "outputs": [
        {
          "internalType": "address",
          "name": "",
          "type": "address"
        }
      ],
      "stateMutability": "view",
      "type": "function"
    },
    {
      "inputs": [],
      "name": "renounceOwnership",
      "outputs": [],
      "stateMutability": "nonpayable",
      "type": "function"
    },
    {
      "inputs": [
        {
          "internalType": "address",
          "name": "_fromToken",
          "type": "address"
        },
        {
          "internalType": "enum FeeDistributor.SwapPoolType",
          "name": "poolType",
          "type": "uint8"
        },
        {
          "internalType": "address",
          "name": "pool",
          "type": "address"
        },
        {
          "internalType": "address",
          "name": "basePool",
          "type": "address"
        }
      ],
      "name": "setSwapConfig",
      "outputs": [],
      "stateMutability": "nonpayable",
      "type": "function"
    },
    {
      "inputs": [],
      "name": "swap",
      "outputs": [],
      "stateMutability": "nonpayable",
      "type": "function"
    },
    {
      "inputs": [],
      "name": "swapRouter",
      "outputs": [
        {
          "internalType": "contract RequiemStableSwapRouter",
          "name": "",
          "type": "address"
        }
      ],
      "stateMutability": "view",
      "type": "function"
    },
    {
      "inputs": [],
      "name": "target",
      "outputs": [
        {
          "internalType": "address",
          "name": "",
          "type": "address"
        }
      ],
      "stateMutability": "view",
      "type": "function"
    },
    {
      "inputs": [
        {
          "internalType": "address",
          "name": "_operator",
          "type": "address"
        }
      ],
      "name": "toggleOperator",
      "outputs": [],
      "stateMutability": "nonpayable",
      "type": "function"
    },
    {
      "inputs": [
        {
          "internalType": "contract IERC20",
          "name": "token",
          "type": "address"
        },
        {
          "internalType": "address",
          "name": "to",
          "type": "address"
        },
        {
          "internalType": "uint256",
          "name": "amount",
          "type": "uint256"
        }
      ],
      "name": "transfer",
      "outputs": [],
      "stateMutability": "nonpayable",
      "type": "function"
    },
    {
      "inputs": [
        {
          "internalType": "address",
          "name": "newOwner",
          "type": "address"
        }
      ],
      "name": "transferOwnership",
      "outputs": [],
      "stateMutability": "nonpayable",
      "type": "function"
    },
    {
      "inputs": [
        {
          "internalType": "uint256",
          "name": "",
          "type": "uint256"
        }
      ],
      "name": "whiteListedTokens",
      "outputs": [
        {
          "internalType": "address",
          "name": "",
          "type": "address"
        }
      ],
      "stateMutability": "view",
      "type": "function"
    }
  ],
  "transactionHash": "0xc0deb4180e50e53a7ef8644e6462f4c90b087af074cd2d098470cb2971204ae6",
  "args": [],
  "solcInputHash": "d3cd0b2d51786d70fd8bcac41d47fee6",
  "bytecode": "0x608060405234801561001057600080fd5b5061001a3361001f565b61007a565b600080546001600160a01b038381166201000081810262010000600160b01b0319851617855560405193049190911692909183917f8be0079c531659141344cd1fd0a4f28419497f9722a3daafe3b4186f6b6457e091a35050565b6115a8806100896000396000f3fe608060405234801561001057600080fd5b50600436106100cf5760003560e01c80638119c0651161008c578063beabacc811610066578063beabacc8146101e6578063c31c9c07146101f9578063d4b839921461020c578063f2fde38b1461021f57600080fd5b80638119c065146101b45780638da5cb5b146101bc578063a166a94d146101d357600080fd5b806313e7c9d8146100d45780633fe529f01461010c57806342b054f014610121578063485cc9551461016e5780636aee0e6314610181578063715018a6146101ac575b600080fd5b6100f76100e23660046112aa565b60036020526000908152604090205460ff1681565b60405190151581526020015b60405180910390f35b61011f61011a3660046112aa565b610232565b005b61015f61012f3660046112aa565b6002602052600090815260409020805460019091015460ff8216916001600160a01b036101009091048116911683565b60405161010393929190611429565b61011f61017c3660046112c6565b610295565b61019461018f3660046113bc565b6103ab565b6040516001600160a01b039091168152602001610103565b61011f6103d5565b61011f610412565b6000546201000090046001600160a01b0316610194565b61011f6101e13660046112fe565b61050d565b61011f6101f436600461137c565b610787565b600454610194906001600160a01b031681565b600154610194906001600160a01b031681565b61011f61022d3660046112aa565b610957565b6000546001600160a01b036201000090910416331461026c5760405162461bcd60e51b81526004016102639061149c565b60405180910390fd5b6001600160a01b03166000908152600360205260409020805460ff19811660ff90911615179055565b6000546001600160a01b03620100009091041633146102c65760405162461bcd60e51b81526004016102639061149c565b600054610100900460ff16806102df575060005460ff16155b6103425760405162461bcd60e51b815260206004820152602e60248201527f496e697469616c697a61626c653a20636f6e747261637420697320616c72656160448201526d191e481a5b9a5d1a585b1a5e995960921b6064820152608401610263565b600054610100900460ff16158015610364576000805461ffff19166101011790555b600180546001600160a01b038086166001600160a01b031992831617909255600480549285169290911691909117905580156103a6576000805461ff00191690555b505050565b600581815481106103bb57600080fd5b6000918252602090912001546001600160a01b0316905081565b6000546001600160a01b03620100009091041633146104065760405162461bcd60e51b81526004016102639061149c565b61041060006109f2565b565b3360009081526003602052604090205460ff161515600114156104105760005b60055481101561050a5760006005828154811061045f57634e487b7160e01b600052603260045260246000fd5b60009182526020808320909101546001600160a01b031680835260029091526040822090925090815460ff1660018111156104aa57634e487b7160e01b600052602160045260246000fd5b14156104bf576104ba8183610a4d565b6104f5565b6001815460ff1660018111156104e557634e487b7160e01b600052602160045260246000fd5b14156104f5576104f58183610cb4565b505080806105029061152c565b915050610432565b50565b6000546001600160a01b036201000090910416331461053e5760405162461bcd60e51b81526004016102639061149c565b6001600160a01b03841661058b5760405162461bcd60e51b81526020600482015260146024820152737a65726f46726f6d546f6b656e4164647265737360601b6044820152606401610263565b6001600160a01b0382166105d35760405162461bcd60e51b815260206004820152600f60248201526e7a65726f506f6f6c4164647265737360881b6044820152606401610263565b60018360018111156105f557634e487b7160e01b600052602160045260246000fd5b1415610647576001600160a01b0381166106475760405162461bcd60e51b81526020600482015260136024820152727a65726f42617365506f6f6c4164647265737360681b6044820152606401610263565b6001600160a01b038481166000908152600260205260409020546101009004166106b757600580546001810182556000919091527f036b6384b5eca791c62761152d0c79bb0604c104a5fb6f4eb0703f3154bb3db00180546001600160a01b0319166001600160a01b0386161790555b60405180606001604052808460018111156106e257634e487b7160e01b600052602160045260246000fd5b81526001600160a01b03808516602080840191909152848216604093840152908716600090815260029091522081518154829060ff19166001838181111561073a57634e487b7160e01b600052602160045260246000fd5b021790555060208201518154610100600160a81b0319166101006001600160a01b0392831602178255604090920151600190910180546001600160a01b0319169190921617905550505050565b3360009081526003602052604090205460ff161515600114156103a6576040516370a0823160e01b81523060048201526000906001600160a01b038516906370a082319060240160206040518083038186803b1580156107e657600080fd5b505afa1580156107fa573d6000803e3d6000fd5b505050506040513d601f19601f8201168201806040525081019061081e91906113d4565b90508181106109515761083b6001600160a01b0385168484610f3a565b6040516370a0823160e01b81523060048201526000906001600160a01b038616906370a082319060240160206040518083038186803b15801561087d57600080fd5b505afa158015610891573d6000803e3d6000fd5b505050506040513d601f19601f820116820180604052508101906108b591906113d4565b9050826108c282846114e9565b146108ff5760405162461bcd60e51b815260206004820152600d60248201526c1d1c985b9cd9995c8b59985a5b609a1b6044820152606401610263565b604080513381526001600160a01b0386811660208301528716818301526060810185905290517f399b8b2d1a2cd048deba86f2732270178911b7def887b957d4e4530a5955e1249181900360800190a1505b50505050565b6000546001600160a01b03620100009091041633146109885760405162461bcd60e51b81526004016102639061149c565b6001600160a01b0381166109ed5760405162461bcd60e51b815260206004820152602660248201527f4f776e61626c653a206e6577206f776e657220697320746865207a65726f206160448201526564647265737360d01b6064820152608401610263565b61050a815b600080546001600160a01b038381166201000081810262010000600160b01b0319851617855560405193049190911692909183917f8be0079c531659141344cd1fd0a4f28419497f9722a3daafe3b4186f6b6457e091a35050565b6040516370a0823160e01b815230600482015281906000906001600160a01b038316906370a082319060240160206040518083038186803b158015610a9157600080fd5b505afa158015610aa5573d6000803e3d6000fd5b505050506040513d601f19601f82011682018060405250810190610ac991906113d4565b905080156109515783546040516319b02f4960e21b81526001600160a01b0385811660048301526101009092049091169060009082906366c0bd249060240160206040518083038186803b158015610b2057600080fd5b505afa158015610b34573d6000803e3d6000fd5b505050506040513d601f19601f82011682018060405250810190610b5891906113ec565b6001546040516319b02f4960e21b81526001600160a01b039182166004820152919250600091908416906366c0bd249060240160206040518083038186803b158015610ba357600080fd5b505afa158015610bb7573d6000803e3d6000fd5b505050506040513d601f19601f82011682018060405250810190610bdb91906113ec565b8754909150610bfc906001600160a01b038781169161010090041686610f9d565b6001600160a01b03831663916955868383876000610c1c610e10426114d1565b6040516001600160e01b031960e088901b16815260ff958616600482015294909316602485015260448401919091526064830152608482015260a401602060405180830381600087803b158015610c7257600080fd5b505af1158015610c86573d6000803e3d6000fd5b505050506040513d601f19601f82011682018060405250810190610caa91906113d4565b5050505050505050565b6040516370a0823160e01b815230600482015281906000906001600160a01b038316906370a082319060240160206040518083038186803b158015610cf857600080fd5b505afa158015610d0c573d6000803e3d6000fd5b505050506040513d601f19601f82011682018060405250810190610d3091906113d4565b9050801561095157835460018501546040516319b02f4960e21b81526001600160a01b0386811660048301526101009093048316929091169060009083906366c0bd249060240160206040518083038186803b158015610d8f57600080fd5b505afa158015610da3573d6000803e3d6000fd5b505050506040513d601f19601f82011682018060405250810190610dc791906113ec565b6001546040516319b02f4960e21b81526001600160a01b039182166004820152919250600091908416906366c0bd249060240160206040518083038186803b158015610e1257600080fd5b505afa158015610e26573d6000803e3d6000fd5b505050506040513d601f19601f82011682018060405250810190610e4a91906113ec565b600454909150610e67906001600160a01b03888116911687610f9d565b6004546001600160a01b031663ff969322858585858a6000610e8b610e10426114d1565b6040516001600160e01b031960e08a901b1681526001600160a01b03978816600482015296909516602487015260ff9384166044870152929091166064850152608484015260a483015260c482015260e401602060405180830381600087803b158015610ef757600080fd5b505af1158015610f0b573d6000803e3d6000fd5b505050506040513d601f19601f82011682018060405250810190610f2f91906113d4565b505050505050505050565b6040516001600160a01b0383166024820152604481018290526103a690849063a9059cbb60e01b906064015b60408051601f198184030181529190526020810180516001600160e01b03166001600160e01b03199093169290921790915261105e565b604051636eb1769f60e11b81523060048201526001600160a01b038381166024830152600091839186169063dd62ed3e9060440160206040518083038186803b158015610fe957600080fd5b505afa158015610ffd573d6000803e3d6000fd5b505050506040513d601f19601f8201168201806040525081019061102191906113d4565b61102b91906114d1565b6040516001600160a01b03851660248201526044810182905290915061095190859063095ea7b360e01b90606401610f66565b60006110b3826040518060400160405280602081526020017f5361666545524332303a206c6f772d6c6576656c2063616c6c206661696c6564815250856001600160a01b03166111309092919063ffffffff16565b8051909150156103a657808060200190518101906110d1919061135c565b6103a65760405162461bcd60e51b815260206004820152602a60248201527f5361666545524332303a204552433230206f7065726174696f6e20646964206e6044820152691bdd081cdd58d8d9595960b21b6064820152608401610263565b606061113f8484600085611149565b90505b9392505050565b6060824710156111aa5760405162461bcd60e51b815260206004820152602660248201527f416464726573733a20696e73756666696369656e742062616c616e636520666f6044820152651c8818d85b1b60d21b6064820152608401610263565b843b6111f85760405162461bcd60e51b815260206004820152601d60248201527f416464726573733a2063616c6c20746f206e6f6e2d636f6e74726163740000006044820152606401610263565b600080866001600160a01b03168587604051611214919061140d565b60006040518083038185875af1925050503d8060008114611251576040519150601f19603f3d011682016040523d82523d6000602084013e611256565b606091505b5091509150611266828286611271565b979650505050505050565b60608315611280575081611142565b8251156112905782518084602001fd5b8160405162461bcd60e51b81526004016102639190611469565b6000602082840312156112bb578081fd5b81356111428161155d565b600080604083850312156112d8578081fd5b82356112e38161155d565b915060208301356112f38161155d565b809150509250929050565b60008060008060808587031215611313578182fd5b843561131e8161155d565b9350602085013560028110611331578283fd5b925060408501356113418161155d565b915060608501356113518161155d565b939692955090935050565b60006020828403121561136d578081fd5b81518015158114611142578182fd5b600080600060608486031215611390578283fd5b833561139b8161155d565b925060208401356113ab8161155d565b929592945050506040919091013590565b6000602082840312156113cd578081fd5b5035919050565b6000602082840312156113e5578081fd5b5051919050565b6000602082840312156113fd578081fd5b815160ff81168114611142578182fd5b6000825161141f818460208701611500565b9190910192915050565b606081016002851061144b57634e487b7160e01b600052602160045260246000fd5b9381526001600160a01b039283166020820152911660409091015290565b6020815260008251806020840152611488816040850160208701611500565b601f01601f19169190910160400192915050565b6020808252818101527f4f776e61626c653a2063616c6c6572206973206e6f7420746865206f776e6572604082015260600190565b600082198211156114e4576114e4611547565b500190565b6000828210156114fb576114fb611547565b500390565b60005b8381101561151b578181015183820152602001611503565b838111156109515750506000910152565b600060001982141561154057611540611547565b5060010190565b634e487b7160e01b600052601160045260246000fd5b6001600160a01b038116811461050a57600080fdfea264697066735822122021179a2163e505f1520b7bc7a882f6acbbd45a2a0e0011ae37735b442783c7ba64736f6c63430008040033",
  "devdoc": {
    "kind": "dev",
    "methods": {
      "owner()": {
        "details": "Returns the address of the current owner."
      },
      "renounceOwnership()": {
        "details": "Leaves the contract without owner. It will not be possible to call `onlyOwner` functions anymore. Can only be called by the current owner. NOTE: Renouncing ownership will leave the contract without an owner, thereby removing any functionality that is only available to the owner."
      },
      "transferOwnership(address)": {
        "details": "Transfers ownership of the contract to a new account (`newOwner`). Can only be called by the current owner."
      }
    },
    "stateVariables": {
      "getSwapConfig": {
        "details": "fromToken => routerAddress"
      },
      "target": {
        "details": "convert all fee to this token"
      }
    },
    "version": 1
  },
  "userdoc": {
    "kind": "user",
    "methods": {},
    "version": 1
  },
  "storageLayout": {
    "storage": [
      {
        "astId": 7072,
        "contract": "contracts/FeeDistributor.sol:FeeDistributor",
        "label": "_initialized",
        "offset": 0,
        "slot": "0",
        "type": "t_bool"
      },
      {
        "astId": 7075,
        "contract": "contracts/FeeDistributor.sol:FeeDistributor",
        "label": "_initializing",
        "offset": 1,
        "slot": "0",
        "type": "t_bool"
      },
      {
        "astId": 7120,
        "contract": "contracts/FeeDistributor.sol:FeeDistributor",
        "label": "_owner",
        "offset": 2,
        "slot": "0",
        "type": "t_address"
      },
      {
        "astId": 29,
        "contract": "contracts/FeeDistributor.sol:FeeDistributor",
        "label": "target",
        "offset": 0,
        "slot": "1",
        "type": "t_address"
      },
      {
        "astId": 35,
        "contract": "contracts/FeeDistributor.sol:FeeDistributor",
        "label": "getSwapConfig",
        "offset": 0,
        "slot": "2",
        "type": "t_mapping(t_address,t_struct(SwapConfig)26_storage)"
      },
      {
        "astId": 39,
        "contract": "contracts/FeeDistributor.sol:FeeDistributor",
        "label": "operators",
        "offset": 0,
        "slot": "3",
        "type": "t_mapping(t_address,t_bool)"
      },
      {
        "astId": 42,
        "contract": "contracts/FeeDistributor.sol:FeeDistributor",
        "label": "swapRouter",
        "offset": 0,
        "slot": "4",
        "type": "t_contract(RequiemStableSwapRouter)5651"
      },
      {
        "astId": 45,
        "contract": "contracts/FeeDistributor.sol:FeeDistributor",
        "label": "whiteListedTokens",
        "offset": 0,
        "slot": "5",
        "type": "t_array(t_address)dyn_storage"
      }
    ],
    "types": {
      "t_address": {
        "encoding": "inplace",
        "label": "address",
        "numberOfBytes": "20"
      },
      "t_array(t_address)dyn_storage": {
        "base": "t_address",
        "encoding": "dynamic_array",
        "label": "address[]",
        "numberOfBytes": "32"
      },
      "t_bool": {
        "encoding": "inplace",
        "label": "bool",
        "numberOfBytes": "1"
      },
      "t_contract(RequiemStableSwapRouter)5651": {
        "encoding": "inplace",
        "label": "contract RequiemStableSwapRouter",
        "numberOfBytes": "20"
      },
      "t_enum(SwapPoolType)18": {
        "encoding": "inplace",
        "label": "enum FeeDistributor.SwapPoolType",
        "numberOfBytes": "1"
      },
      "t_mapping(t_address,t_bool)": {
        "encoding": "mapping",
        "key": "t_address",
        "label": "mapping(address => bool)",
        "numberOfBytes": "32",
        "value": "t_bool"
      },
      "t_mapping(t_address,t_struct(SwapConfig)26_storage)": {
        "encoding": "mapping",
        "key": "t_address",
        "label": "mapping(address => struct FeeDistributor.SwapConfig)",
        "numberOfBytes": "32",
        "value": "t_struct(SwapConfig)26_storage"
      },
      "t_struct(SwapConfig)26_storage": {
        "encoding": "inplace",
        "label": "struct FeeDistributor.SwapConfig",
        "members": [
          {
            "astId": 21,
            "contract": "contracts/FeeDistributor.sol:FeeDistributor",
            "label": "poolType",
            "offset": 0,
            "slot": "0",
            "type": "t_enum(SwapPoolType)18"
          },
          {
            "astId": 23,
            "contract": "contracts/FeeDistributor.sol:FeeDistributor",
            "label": "pool",
            "offset": 1,
            "slot": "0",
            "type": "t_address"
          },
          {
            "astId": 25,
            "contract": "contracts/FeeDistributor.sol:FeeDistributor",
            "label": "basePool",
            "offset": 0,
            "slot": "1",
            "type": "t_address"
          }
        ],
        "numberOfBytes": "64"
      }
    }
  }
}