{
	"data": {
		"bytecode": {
			"linkReferences": {
				"RequiemStableSwapLib.sol": {
					"RequiemStableSwapLib": [
						{
							"length": 20,
							"start": 2864
						},
						{
							"length": 20,
							"start": 3193
						},
						{
							"length": 20,
							"start": 3590
						},
						{
							"length": 20,
							"start": 3998
						},
						{
							"length": 20,
							"start": 4942
						},
						{
							"length": 20,
							"start": 5502
						},
						{
							"length": 20,
							"start": 7009
						},
						{
							"length": 20,
							"start": 7706
						},
						{
							"length": 20,
							"start": 7873
						},
						{
							"length": 20,
							"start": 8298
						},
						{
							"length": 20,
							"start": 8555
						},
						{
							"length": 20,
							"start": 8808
						},
						{
							"length": 20,
							"start": 9277
						},
						{
							"length": 20,
							"start": 9602
						},
						{
							"length": 20,
							"start": 10316
						},
						{
							"length": 20,
							"start": 12887
						},
						{
							"length": 20,
							"start": 13038
						}
					]
				}
			},
			"object": "60806040523480156200001157600080fd5b5062000032620000266200005960201b60201c565b6200006160201b60201c565b60008060146101000a81548160ff0219169083151502179055506001808190555062000125565b600033905090565b60008060009054906101000a900473ffffffffffffffffffffffffffffffffffffffff169050816000806101000a81548173ffffffffffffffffffffffffffffffffffffffff021916908373ffffffffffffffffffffffffffffffffffffffff1602179055508173ffffffffffffffffffffffffffffffffffffffff168173ffffffffffffffffffffffffffffffffffffffff167f8be0079c531659141344cd1fd0a4f28419497f9722a3daafe3b4186f6b6457e060405160405180910390a35050565b6189c280620001356000396000f3fe60806040523480156200001157600080fd5b5060043610620002d45760003560e01c806384cdd9bc1162000189578063c4db7fa011620000e1578063e25aa5fa1162000093578063e25aa5fa1462000906578063e6ab28061462000928578063efeecb51146200095e578063f2fde38b1462000980578063f3de036214620009a0578063fe49abe314620009c257620002d4565b8063c4db7fa01462000854578063ccfc2e8d1462000860578063d41f65681462000880578063d46300fd14620008a2578063d4b0de2f14620008c4578063df3ed68d14620008e657620002d4565b8063a1dc9031116200013b578063a1dc90311462000776578063a95b089f1462000798578063aa6ca80814620007ce578063ab3d854414620007f0578063ab5ac0611462000812578063c00c125c146200083457620002d4565b806384cdd9bc14620006465780638554a7d4146200067c5780638da5cb5b14620006b25780639169558614620006d457806391ceb3eb146200070a57806398899f40146200074057620002d4565b80634d49e87d116200023d5780636999b37711620001ef5780636999b377146200057e578063715018a614620005a05780637c61e56114620005ac5780638214f5a414620005e257806382b8660014620006045780638456cb59146200063a57620002d4565b80634d49e87d1462000487578063593d132c14620004bd5780635b65b9ab14620004dd5780635c975abb14620004fd5780635fd65f0f146200051f57806366c0bd24146200054857620002d4565b806331cd52b0116200029757806331cd52b014620003975780633969841514620003cd5780633e3a156014620003ef5780633ed4c67814620004255780633f4ba83a14620004455780634a1b0d57146200045157620002d4565b806304bc3b1c14620002d957806306e9481c146200030f5780630ba8195914620003315780630d43e8ad146200035357806318f52ce21462000375575b600080fd5b620002f76004803603810190620002f191906200417a565b620009ce565b604051620003069190620057be565b60405180910390f35b62000319620009ee565b604051620003289190620056ea565b60405180910390f35b6200033b620009f5565b6040516200034a9190620056ea565b60405180910390f35b6200035d62000a8c565b6040516200036c919062004ed5565b60405180910390f35b6200037f62000ab2565b6040516200038e919062004f43565b60405180910390f35b620003b56004803603810190620003af9190620044e4565b62000c33565b604051620003c4919062004f43565b60405180910390f35b620003d762000d77565b604051620003e69190620056ea565b60405180910390f35b6200040d6004803603810190620004079190620045ea565b62000d7e565b6040516200041c9190620056ea565b60405180910390f35b6200044360048036038101906200043d91906200417a565b62000f0d565b005b6200044f62001080565b005b6200046f60048036038101906200046991906200417a565b6200110f565b6040516200047e9190620056ea565b60405180910390f35b620004a560048036038101906200049f91906200441d565b6200112e565b604051620004b49190620056ea565b60405180910390f35b620004db6004803603810190620004d5919062004553565b620012ba565b005b620004fb6004803603810190620004f5919062004594565b6200160f565b005b62000507620017d1565b60405162000516919062004f67565b60405180910390f35b62000529620017e7565b6040516200053f98979695949392919062004fa1565b60405180910390f35b6200056660048036038101906200056091906200417a565b6200183d565b604051620005759190620057be565b60405180910390f35b620005886200196f565b60405162000597919062004ed5565b60405180910390f35b620005aa62001995565b005b620005ca6004803603810190620005c49190620041a6565b62001a26565b604051620005d9919062004f43565b60405180910390f35b620005ec62001ac9565b604051620005fb919062004f84565b60405180910390f35b6200062260048036038101906200061c919062004656565b62001af6565b60405162000631919062004f84565b60405180910390f35b6200064462001b6b565b005b6200066460048036038101906200065e91906200441d565b62001bfa565b604051620006739190620056ea565b60405180910390f35b6200069a600480360381019062000694919062004656565b62001d86565b604051620006a99190620056ea565b60405180910390f35b620006bc62001e21565b604051620006cb919062004ed5565b60405180910390f35b620006f26004803603810190620006ec9190620046d8565b62001e4a565b604051620007019190620056ea565b60405180910390f35b62000728600480360381019062000722919062004656565b62001fdc565b604051620007379190620056ea565b60405180910390f35b6200075e6004803603810190620007589190620041e7565b62002030565b6040516200076d9190620056ea565b60405180910390f35b62000780620020d1565b6040516200078f919062004f43565b60405180910390f35b620007b66004803603810190620007b0919062004682565b6200212d565b604051620007c59190620056ea565b60405180910390f35b620007d8620021ce565b604051620007e7919062004f1f565b60405180910390f35b620007fa62002261565b604051620008099190620056ea565b60405180910390f35b6200081c62002269565b6040516200082b9190620056ea565b60405180910390f35b6200085260048036038101906200084c9190620041a6565b6200226e565b005b6200085e6200237a565b005b6200087e60048036038101906200087891906200417a565b62002541565b005b6200088a620026b4565b60405162000899919062004f43565b60405180910390f35b620008ac62002711565b604051620008bb9190620056ea565b60405180910390f35b620008ce620027a8565b604051620008dd9190620056ea565b60405180910390f35b620009046004803603810190620008fe91906200423d565b620027b0565b005b620009106200311c565b6040516200091f9190620056ea565b60405180910390f35b6200094660048036038101906200094091906200437a565b620031b3565b604051620009559190620056ea565b60405180910390f35b6200096862003254565b604051620009779190620056ea565b60405180910390f35b6200099e60048036038101906200099891906200417a565b62003264565b005b620009aa62003368565b604051620009b99190620056ea565b60405180910390f35b620009cc62003371565b005b60126020528060005260406000206000915054906101000a900460ff1681565b6201518081565b6000600373__$db83cf4abd20f2a9f6df32c02e7c4d4a1e$__63a303558590916040518263ffffffff1660e01b815260040162000a33919062005424565b60206040518083038186803b15801562000a4c57600080fd5b505af415801562000a61573d6000803e3d6000fd5b505050506040513d601f19601f8201168201806040525081019062000a879190620044b8565b905090565b601060009054906101000a900473ffffffffffffffffffffffffffffffffffffffff1681565b6060600060036000018054905090508067ffffffffffffffff81111562000b02577f4e487b7100000000000000000000000000000000000000000000000000000000600052604160045260246000fd5b60405190808252806020026020018201604052801562000b315781602001602082028036833780820191505090505b50915060005b8181101562000c2e57600373__$db83cf4abd20f2a9f6df32c02e7c4d4a1e$__63e2eba89b9091836040518363ffffffff1660e01b815260040162000b7e92919062005555565b60206040518083038186803b15801562000b9757600080fd5b505af415801562000bac573d6000803e3d6000fd5b505050506040513d601f19601f8201168201806040525081019062000bd29190620044b8565b83828151811062000c0c577f4e487b7100000000000000000000000000000000000000000000000000000000600052603260045260246000fd5b602002602001018181525050808062000c259062005d7b565b91505062000b37565b505090565b60606002600154141562000c7e576040517f08c379a000000000000000000000000000000000000000000000000000000000815260040162000c7590620053e0565b60405180910390fd5b6002600181905550818042111562000ccd576040517f08c379a000000000000000000000000000000000000000000000000000000000815260040162000cc4906200539c565b60405180910390fd5b600373__$db83cf4abd20f2a9f6df32c02e7c4d4a1e$__63c685696c909187876040518463ffffffff1660e01b815260040162000d0d9392919062005582565b60006040518083038186803b15801562000d2657600080fd5b505af415801562000d3b573d6000803e3d6000fd5b505050506040513d6000823e3d601f19601f8201168201806040525081019062000d669190620043d8565b915050600180819055509392505050565b620f424081565b60006002600154141562000dc9576040517f08c379a000000000000000000000000000000000000000000000000000000000815260040162000dc090620053e0565b60405180910390fd5b600260018190555062000ddb620017d1565b1562000e1e576040517f08c379a000000000000000000000000000000000000000000000000000000000815260040162000e15906200517c565b60405180910390fd5b818042111562000e65576040517f08c379a000000000000000000000000000000000000000000000000000000000815260040162000e5c906200539c565b60405180910390fd5b600373__$db83cf4abd20f2a9f6df32c02e7c4d4a1e$__632bfe30d090918888886040518563ffffffff1660e01b815260040162000ea79493929190620055c6565b60206040518083038186803b15801562000ec057600080fd5b505af415801562000ed5573d6000803e3d6000fd5b505050506040513d601f19601f8201168201806040525081019062000efb9190620044b8565b91505060018081905550949350505050565b62000f176200365b565b73ffffffffffffffffffffffffffffffffffffffff1662000f3762001e21565b73ffffffffffffffffffffffffffffffffffffffff161462000f90576040517f08c379a000000000000000000000000000000000000000000000000000000000815260040162000f879062005226565b60405180910390fd5b600073ffffffffffffffffffffffffffffffffffffffff168173ffffffffffffffffffffffffffffffffffffffff16141562001003576040517f08c379a000000000000000000000000000000000000000000000000000000000815260040162000ffa9062005204565b60405180910390fd5b80601160006101000a81548173ffffffffffffffffffffffffffffffffffffffff021916908373ffffffffffffffffffffffffffffffffffffffff1602179055507f4c3f3b9852ccceadd50f16518f348e2624c8f0240acdd5bc81911c0fba83ec678160405162001075919062004ed5565b60405180910390a150565b6200108a6200365b565b73ffffffffffffffffffffffffffffffffffffffff16620010aa62001e21565b73ffffffffffffffffffffffffffffffffffffffff161462001103576040517f08c379a0000000000000000000000000000000000000000000000000000000008152600401620010fa9062005226565b60405180910390fd5b6200110d62003663565b565b6000620011278260036200370d90919063ffffffff16565b9050919050565b60006200113a620017d1565b156200117d576040517f08c379a000000000000000000000000000000000000000000000000000000000815260040162001174906200517c565b60405180910390fd5b60026001541415620011c6576040517f08c379a0000000000000000000000000000000000000000000000000000000008152600401620011bd90620053e0565b60405180910390fd5b6002600181905550818042111562001215576040517f08c379a00000000000000000000000000000000000000000000000000000000081526004016200120c906200539c565b60405180910390fd5b600373__$db83cf4abd20f2a9f6df32c02e7c4d4a1e$__637a6cba3c909187876040518463ffffffff1660e01b8152600401620012559392919062005511565b60206040518083038186803b1580156200126e57600080fd5b505af415801562001283573d6000803e3d6000fd5b505050506040513d601f19601f82011682018060405250810190620012a99190620044b8565b915050600180819055509392505050565b620012c46200365b565b73ffffffffffffffffffffffffffffffffffffffff16620012e462001e21565b73ffffffffffffffffffffffffffffffffffffffff16146200133d576040517f08c379a0000000000000000000000000000000000000000000000000000000008152600401620013349062005226565b60405180910390fd5b620151806003600801546200135391906200597c565b42101562001398576040517f08c379a00000000000000000000000000000000000000000000000000000000081526004016200138f90620052d0565b60405180910390fd5b6201518042620013a991906200597c565b811015620013ee576040517f08c379a0000000000000000000000000000000000000000000000000000000008152600401620013e59062005248565b60405180910390fd5b816000108015620014015750620f424082105b62001443576040517f08c379a00000000000000000000000000000000000000000000000000000000081526004016200143a90620053be565b60405180910390fd5b6000600373__$db83cf4abd20f2a9f6df32c02e7c4d4a1e$__63a303558590916040518263ffffffff1660e01b815260040162001481919062005424565b60206040518083038186803b1580156200149a57600080fd5b505af4158015620014af573d6000803e3d6000fd5b505050506040513d601f19601f82011682018060405250810190620014d59190620044b8565b90506000606484620014e8919062005ba9565b9050818110156200154d5781600a8262001503919062005ba9565b101562001547576040517f08c379a00000000000000000000000000000000000000000000000000000000081526004016200153e906200537a565b60405180910390fd5b620015a2565b600a826200155c919062005ba9565b811115620015a1576040517f08c379a000000000000000000000000000000000000000000000000000000000815260040162001598906200537a565b60405180910390fd5b5b816003600601819055508060036007018190555042600360080181905550826003600901819055507fa2b71ec6df949300b59aab36b55e189697b750119dd349fcfa8c0f779e83c2548282428660405162001601949392919062005771565b60405180910390a150505050565b620016196200365b565b73ffffffffffffffffffffffffffffffffffffffff166200163962001e21565b73ffffffffffffffffffffffffffffffffffffffff161462001692576040517f08c379a0000000000000000000000000000000000000000000000000000000008152600401620016899062005226565b60405180910390fd5b6305f5e100831115620016dc576040517f08c379a0000000000000000000000000000000000000000000000000000000008152600401620016d39062005116565b60405180910390fd5b6402540be40082111562001727576040517f08c379a00000000000000000000000000000000000000000000000000000000081526004016200171e906200519e565b60405180910390fd5b6305f5e10081111562001771576040517f08c379a000000000000000000000000000000000000000000000000000000000815260040162001768906200526a565b60405180910390fd5b8160036005018190555082600360040181905550806003600a01819055507fcfca96e0fef3432146913b2a5a2268a55d3f475fe057e7ffde1082b77693f4f3838383604051620017c49392919062005734565b60405180910390a1505050565b60008060149054906101000a900460ff16905090565b60038060010160009054906101000a900473ffffffffffffffffffffffffffffffffffffffff169080600401549080600501549080600601549080600701549080600801549080600901549080600a0154905088565b6000601260008373ffffffffffffffffffffffffffffffffffffffff1673ffffffffffffffffffffffffffffffffffffffff16815260200190815260200160002060009054906101000a900460ff1690508173ffffffffffffffffffffffffffffffffffffffff1660036000018260ff1681548110620018e6577f4e487b7100000000000000000000000000000000000000000000000000000000600052603260045260246000fd5b9060005260206000200160009054906101000a900473ffffffffffffffffffffffffffffffffffffffff1673ffffffffffffffffffffffffffffffffffffffff16146200196a576040517f08c379a000000000000000000000000000000000000000000000000000000000815260040162001961906200528c565b60405180910390fd5b919050565b601160009054906101000a900473ffffffffffffffffffffffffffffffffffffffff1681565b6200199f6200365b565b73ffffffffffffffffffffffffffffffffffffffff16620019bf62001e21565b73ffffffffffffffffffffffffffffffffffffffff161462001a18576040517f08c379a000000000000000000000000000000000000000000000000000000000815260040162001a0f9062005226565b60405180910390fd5b62001a24600062003817565b565b6060600373__$db83cf4abd20f2a9f6df32c02e7c4d4a1e$__63fa563597909185856040518463ffffffff1660e01b815260040162001a689392919062005441565b60006040518083038186803b15801562001a8157600080fd5b505af415801562001a96573d6000803e3d6000fd5b505050506040513d6000823e3d601f19601f8201168201806040525081019062001ac19190620043d8565b905092915050565b6000600360010160009054906101000a900473ffffffffffffffffffffffffffffffffffffffff16905090565b600060036000018260ff168154811062001b39577f4e487b7100000000000000000000000000000000000000000000000000000000600052603260045260246000fd5b9060005260206000200160009054906101000a900473ffffffffffffffffffffffffffffffffffffffff169050919050565b62001b756200365b565b73ffffffffffffffffffffffffffffffffffffffff1662001b9562001e21565b73ffffffffffffffffffffffffffffffffffffffff161462001bee576040517f08c379a000000000000000000000000000000000000000000000000000000000815260040162001be59062005226565b60405180910390fd5b62001bf8620038db565b565b60006002600154141562001c45576040517f08c379a000000000000000000000000000000000000000000000000000000000815260040162001c3c90620053e0565b60405180910390fd5b600260018190555062001c57620017d1565b1562001c9a576040517f08c379a000000000000000000000000000000000000000000000000000000000815260040162001c91906200517c565b60405180910390fd5b818042111562001ce1576040517f08c379a000000000000000000000000000000000000000000000000000000000815260040162001cd8906200539c565b60405180910390fd5b600373__$db83cf4abd20f2a9f6df32c02e7c4d4a1e$__63c8344c06909187876040518463ffffffff1660e01b815260040162001d219392919062005511565b60206040518083038186803b15801562001d3a57600080fd5b505af415801562001d4f573d6000803e3d6000fd5b505050506040513d601f19601f8201168201806040525081019062001d759190620044b8565b915050600180819055509392505050565b6000600373__$db83cf4abd20f2a9f6df32c02e7c4d4a1e$__63e2eba89b9091846040518363ffffffff1660e01b815260040162001dc692919062005613565b60206040518083038186803b15801562001ddf57600080fd5b505af415801562001df4573d6000803e3d6000fd5b505050506040513d601f19601f8201168201806040525081019062001e1a9190620044b8565b9050919050565b60008060009054906101000a900473ffffffffffffffffffffffffffffffffffffffff16905090565b600062001e56620017d1565b1562001e99576040517f08c379a000000000000000000000000000000000000000000000000000000000815260040162001e90906200517c565b60405180910390fd5b6002600154141562001ee2576040517f08c379a000000000000000000000000000000000000000000000000000000000815260040162001ed990620053e0565b60405180910390fd5b6002600181905550818042111562001f31576040517f08c379a000000000000000000000000000000000000000000000000000000000815260040162001f28906200539c565b60405180910390fd5b600373__$db83cf4abd20f2a9f6df32c02e7c4d4a1e$__636e9b505d9091898989896040518663ffffffff1660e01b815260040162001f759594939291906200568d565b60206040518083038186803b15801562001f8e57600080fd5b505af415801562001fa3573d6000803e3d6000fd5b505050506040513d601f19601f8201168201806040525081019062001fc99190620044b8565b9150506001808190555095945050505050565b6000600380018260ff16815481106200201e577f4e487b7100000000000000000000000000000000000000000000000000000000600052603260045260246000fd5b90600052602060002001549050919050565b6000600373__$db83cf4abd20f2a9f6df32c02e7c4d4a1e$__63159763bb90918686866040518563ffffffff1660e01b81526004016200207494939291906200547e565b60206040518083038186803b1580156200208d57600080fd5b505af4158015620020a2573d6000803e3d6000fd5b505050506040513d601f19601f82011682018060405250810190620020c89190620044b8565b90509392505050565b6060600380018054806020026020016040519081016040528092919081815260200182805480156200212357602002820191906000526020600020905b8154815260200190600101908083116200210e575b5050505050905090565b6000600373__$db83cf4abd20f2a9f6df32c02e7c4d4a1e$__63ba2998d990918686866040518563ffffffff1660e01b815260040162002171949392919062005640565b60206040518083038186803b1580156200218a57600080fd5b505af41580156200219f573d6000803e3d6000fd5b505050506040513d601f19601f82011682018060405250810190620021c59190620044b8565b90509392505050565b606060036000018054806020026020016040519081016040528092919081815260200182805480156200225757602002820191906000526020600020905b8160009054906101000a900473ffffffffffffffffffffffffffffffffffffffff1673ffffffffffffffffffffffffffffffffffffffff16815260200190600101908083116200220c575b5050505050905090565b6305f5e10081565b600a81565b600360010160009054906101000a900473ffffffffffffffffffffffffffffffffffffffff1673ffffffffffffffffffffffffffffffffffffffff163373ffffffffffffffffffffffffffffffffffffffff161462002304576040517f08c379a0000000000000000000000000000000000000000000000000000000008152600401620022fb906200515a565b60405180910390fd5b600373__$db83cf4abd20f2a9f6df32c02e7c4d4a1e$__63c188e4be909184846040518463ffffffff1660e01b8152600401620023449392919062005441565b60006040518083038186803b1580156200235d57600080fd5b505af415801562002372573d6000803e3d6000fd5b505050505050565b620023846200365b565b73ffffffffffffffffffffffffffffffffffffffff16620023a462001e21565b73ffffffffffffffffffffffffffffffffffffffff1614620023fd576040517f08c379a0000000000000000000000000000000000000000000000000000000008152600401620023f49062005226565b60405180910390fd5b426003600901541162002447576040517f08c379a00000000000000000000000000000000000000000000000000000000081526004016200243e9062005402565b60405180910390fd5b6000600373__$db83cf4abd20f2a9f6df32c02e7c4d4a1e$__63a303558590916040518263ffffffff1660e01b815260040162002485919062005424565b60206040518083038186803b1580156200249e57600080fd5b505af4158015620024b3573d6000803e3d6000fd5b505050506040513d601f19601f82011682018060405250810190620024d99190620044b8565b9050806003600601819055508060036007018190555042600360080181905550426003600901819055507f46e22fb3709ad289f62ce63d469248536dbc78d82b84a3d7e74ad606dc20193881426040516200253692919062005707565b60405180910390a150565b6200254b6200365b565b73ffffffffffffffffffffffffffffffffffffffff166200256b62001e21565b73ffffffffffffffffffffffffffffffffffffffff1614620025c4576040517f08c379a0000000000000000000000000000000000000000000000000000000008152600401620025bb9062005226565b60405180910390fd5b600073ffffffffffffffffffffffffffffffffffffffff168173ffffffffffffffffffffffffffffffffffffffff16141562002637576040517f08c379a00000000000000000000000000000000000000000000000000000000081526004016200262e9062005204565b60405180910390fd5b80601060006101000a81548173ffffffffffffffffffffffffffffffffffffffff021916908373ffffffffffffffffffffffffffffffffffffffff1602179055507fae5a12c29e496b092467a620746b9eaf4e0e231a631a4370c233b1fac38e8e2681604051620026a9919062004ed5565b60405180910390a150565b606060036002018054806020026020016040519081016040528092919081815260200182805480156200270757602002820191906000526020600020905b815481526020019060010190808311620026f2575b5050505050905090565b6000600373__$db83cf4abd20f2a9f6df32c02e7c4d4a1e$__63b52e146f90916040518263ffffffff1660e01b81526004016200274f919062005424565b60206040518083038186803b1580156200276857600080fd5b505af41580156200277d573d6000803e3d6000fd5b505050506040513d601f19601f82011682018060405250810190620027a39190620044b8565b905090565b6305f5e10081565b620027ba6200365b565b73ffffffffffffffffffffffffffffffffffffffff16620027da62001e21565b73ffffffffffffffffffffffffffffffffffffffff161462002833576040517f08c379a00000000000000000000000000000000000000000000000000000000081526004016200282a9062005226565b60405180910390fd5b600260019054906101000a900460ff16806200285c5750600260009054906101000a900460ff16155b6200289e576040517f08c379a00000000000000000000000000000000000000000000000000000000081526004016200289590620051c0565b60405180910390fd5b6000600260019054906101000a900460ff161590508015620028f1576001600260016101000a81548160ff0219169083151502179055506001600260006101000a81548160ff0219169083151502179055505b88518a511462002938576040517f08c379a00000000000000000000000000000000000000000000000000000000081526004016200292f90620052f2565b60405180910390fd5b600073ffffffffffffffffffffffffffffffffffffffff168273ffffffffffffffffffffffffffffffffffffffff161415620029ab576040517f08c379a0000000000000000000000000000000000000000000000000000000008152600401620029a290620052ae565b60405180910390fd5b60008a51905060008167ffffffffffffffff811115620029f4577f4e487b7100000000000000000000000000000000000000000000000000000000600052604160045260246000fd5b60405190808252806020026020018201604052801562002a235781602001602082028036833780820191505090505b50905060008267ffffffffffffffff81111562002a69577f4e487b7100000000000000000000000000000000000000000000000000000000600052604160045260246000fd5b60405190808252806020026020018201604052801562002a985781602001602082028036833780820191505090505b50905060005b8381101562002df257600073ffffffffffffffffffffffffffffffffffffffff168e828151811062002af9577f4e487b7100000000000000000000000000000000000000000000000000000000600052603260045260246000fd5b602002602001015173ffffffffffffffffffffffffffffffffffffffff16141562002b5b576040517f08c379a000000000000000000000000000000000000000000000000000000000815260040162002b5290620051e2565b60405180910390fd5b60128d828151811062002b97577f4e487b7100000000000000000000000000000000000000000000000000000000600052603260045260246000fd5b602002602001015160ff16111562002be6576040517f08c379a000000000000000000000000000000000000000000000000000000000815260040162002bdd90620050f4565b60405180910390fd5b8c818151811062002c20577f4e487b7100000000000000000000000000000000000000000000000000000000600052603260045260246000fd5b602002602001015160ff16601262002c39919062005c0a565b600a62002c47919062005a6c565b83828151811062002c81577f4e487b7100000000000000000000000000000000000000000000000000000000600052603260045260246000fd5b6020026020010181815250508d818151811062002cc7577f4e487b7100000000000000000000000000000000000000000000000000000000600052603260045260246000fd5b602002602001015182828151811062002d09577f4e487b7100000000000000000000000000000000000000000000000000000000600052603260045260246000fd5b602002602001019073ffffffffffffffffffffffffffffffffffffffff16908173ffffffffffffffffffffffffffffffffffffffff1681525050806012600084848151811062002d82577f4e487b7100000000000000000000000000000000000000000000000000000000600052603260045260246000fd5b602002602001015173ffffffffffffffffffffffffffffffffffffffff1673ffffffffffffffffffffffffffffffffffffffff16815260200190815260200160002060006101000a81548160ff021916908360ff160217905550808062002de99062005d7b565b91505062002a9e565b50620f4240891062002e3b576040517f08c379a000000000000000000000000000000000000000000000000000000000815260040162002e3290620050b0565b60405180910390fd5b6305f5e10088111562002e85576040517f08c379a000000000000000000000000000000000000000000000000000000000815260040162002e7c9062005116565b60405180910390fd5b6402540be40087111562002ed0576040517f08c379a000000000000000000000000000000000000000000000000000000000815260040162002ec7906200519e565b60405180910390fd5b6305f5e10086111562002f1a576040517f08c379a000000000000000000000000000000000000000000000000000000000815260040162002f11906200526a565b60405180910390fd5b8a8a60405162002f2a9062003c9b565b62002f3792919062005053565b604051809103906000f08015801562002f54573d6000803e3d6000fd5b50600360010160006101000a81548173ffffffffffffffffffffffffffffffffffffffff021916908373ffffffffffffffffffffffffffffffffffffffff1602179055508267ffffffffffffffff81111562002fd9577f4e487b7100000000000000000000000000000000000000000000000000000000600052604160045260246000fd5b604051908082528060200260200182016040528015620030085781602001602082028036833780820191505090505b506003800190805190602001906200302292919062003ca9565b5081600360020190805190602001906200303e92919062003ca9565b5080600360000190805190602001906200305a92919062003cfb565b506064896200306a919062005ba9565b60036006018190555060648962003082919062005ba9565b6003600701819055508760036004018190555086600360050181905550856003600a018190555084601060006101000a81548173ffffffffffffffffffffffffffffffffffffffff021916908373ffffffffffffffffffffffffffffffffffffffff160217905550505050801562003110576000600260016101000a81548160ff0219169083151502179055505b50505050505050505050565b6000600373__$db83cf4abd20f2a9f6df32c02e7c4d4a1e$__63d36604ac90916040518263ffffffff1660e01b81526004016200315a919062005424565b60206040518083038186803b1580156200317357600080fd5b505af415801562003188573d6000803e3d6000fd5b505050506040513d601f19601f82011682018060405250810190620031ae9190620044b8565b905090565b6000600373__$db83cf4abd20f2a9f6df32c02e7c4d4a1e$__631e7e95d390918686866040518563ffffffff1660e01b8152600401620031f79493929190620054cb565b60206040518083038186803b1580156200321057600080fd5b505af415801562003225573d6000803e3d6000fd5b505050506040513d601f19601f820116820180604052508101906200324b9190620044b8565b90509392505050565b6000600360000180549050905090565b6200326e6200365b565b73ffffffffffffffffffffffffffffffffffffffff166200328e62001e21565b73ffffffffffffffffffffffffffffffffffffffff1614620032e7576040517f08c379a0000000000000000000000000000000000000000000000000000000008152600401620032de9062005226565b60405180910390fd5b600073ffffffffffffffffffffffffffffffffffffffff168173ffffffffffffffffffffffffffffffffffffffff1614156200335a576040517f08c379a00000000000000000000000000000000000000000000000000000000081526004016200335190620050d2565b60405180910390fd5b620033658162003817565b50565b6402540be40081565b601160009054906101000a900473ffffffffffffffffffffffffffffffffffffffff1673ffffffffffffffffffffffffffffffffffffffff163373ffffffffffffffffffffffffffffffffffffffff161480620034025750620033d362001e21565b73ffffffffffffffffffffffffffffffffffffffff163373ffffffffffffffffffffffffffffffffffffffff16145b62003444576040517f08c379a00000000000000000000000000000000000000000000000000000000081526004016200343b9062005336565b60405180910390fd5b60005b600360000180549050811015620036585760006003600001828154811062003498577f4e487b7100000000000000000000000000000000000000000000000000000000600052603260045260246000fd5b9060005260206000200160009054906101000a900473ffffffffffffffffffffffffffffffffffffffff169050600060038001838154811062003504577f4e487b7100000000000000000000000000000000000000000000000000000000600052603260045260246000fd5b90600052602060002001548273ffffffffffffffffffffffffffffffffffffffff166370a08231306040518263ffffffff1660e01b81526004016200354a919062004ed5565b60206040518083038186803b1580156200356357600080fd5b505afa15801562003578573d6000803e3d6000fd5b505050506040513d601f19601f820116820180604052508101906200359e9190620044b8565b620035aa919062005c0a565b905060008114620036405762003604601060009054906101000a900473ffffffffffffffffffffffffffffffffffffffff16828473ffffffffffffffffffffffffffffffffffffffff16620039879092919063ffffffff16565b7fee3859efa95e525bc2bcb149b51b60a8bb4e89c647392d9d4112e03c3e73bdd682826040516200363792919062004ef2565b60405180910390a15b505080806200364f9062005d7b565b91505062003447565b50565b600033905090565b6200366d620017d1565b620036af576040517f08c379a0000000000000000000000000000000000000000000000000000000008152600401620036a6906200508e565b60405180910390fd5b60008060146101000a81548160ff0219169083151502179055507f5db9ee0a495bf2e6ff9c91a7834c1ba4fdd244a5e8aa4e537bd38aeae4b073aa620036f46200365b565b60405162003703919062004ed5565b60405180910390a1565b6000806224ea0084600b0160008573ffffffffffffffffffffffffffffffffffffffff1673ffffffffffffffffffffffffffffffffffffffff168152602001908152602001600020546200376291906200597c565b9050428111156200380b57600042826200377d919062005c0a565b90506402540be4006224ea008287600c0160008873ffffffffffffffffffffffffffffffffffffffff1673ffffffffffffffffffffffffffffffffffffffff1681526020019081526020016000205488600a0154620037dd919062005ba9565b620037e9919062005ba9565b620037f59190620059d9565b620038019190620059d9565b9250505062003811565b60009150505b92915050565b60008060009054906101000a900473ffffffffffffffffffffffffffffffffffffffff169050816000806101000a81548173ffffffffffffffffffffffffffffffffffffffff021916908373ffffffffffffffffffffffffffffffffffffffff1602179055508173ffffffffffffffffffffffffffffffffffffffff168173ffffffffffffffffffffffffffffffffffffffff167f8be0079c531659141344cd1fd0a4f28419497f9722a3daafe3b4186f6b6457e060405160405180910390a35050565b620038e5620017d1565b1562003928576040517f08c379a00000000000000000000000000000000000000000000000000000000081526004016200391f906200517c565b60405180910390fd5b6001600060146101000a81548160ff0219169083151502179055507f62e78cea01bee320cd4e420270b5ea74000d11b0c9f74754ebdbfc544b05a2586200396e6200365b565b6040516200397d919062004ed5565b60405180910390a1565b62003a0c8363a9059cbb60e01b8484604051602401620039a992919062004ef2565b604051602081830303815290604052907bffffffffffffffffffffffffffffffffffffffffffffffffffffffff19166020820180517bffffffffffffffffffffffffffffffffffffffffffffffffffffffff838183161783525050505062003a11565b505050565b600062003a75826040518060400160405280602081526020017f5361666545524332303a206c6f772d6c6576656c2063616c6c206661696c65648152508573ffffffffffffffffffffffffffffffffffffffff1662003ae09092919063ffffffff16565b905060008151111562003adb578080602001905181019062003a9891906200448c565b62003ada576040517f08c379a000000000000000000000000000000000000000000000000000000000815260040162003ad19062005358565b60405180910390fd5b5b505050565b606062003af1848460008562003afa565b90509392505050565b60608247101562003b42576040517f08c379a000000000000000000000000000000000000000000000000000000000815260040162003b399062005138565b60405180910390fd5b62003b4d8562003c1c565b62003b8f576040517f08c379a000000000000000000000000000000000000000000000000000000000815260040162003b869062005314565b60405180910390fd5b6000808673ffffffffffffffffffffffffffffffffffffffff16858760405162003bba919062004ebc565b60006040518083038185875af1925050503d806000811462003bf9576040519150601f19603f3d011682016040523d82523d6000602084013e62003bfe565b606091505b509150915062003c1082828662003c2f565b92505050949350505050565b600080823b905060008111915050919050565b6060831562003c415782905062003c94565b60008351111562003c555782518084602001fd5b816040517f08c379a000000000000000000000000000000000000000000000000000000000815260040162003c8b91906200502f565b60405180910390fd5b9392505050565b6125c580620063c883390190565b82805482825590600052602060002090810192821562003ce8579160200282015b8281111562003ce757825182559160200191906001019062003cca565b5b50905062003cf7919062003d8a565b5090565b82805482825590600052602060002090810192821562003d77579160200282015b8281111562003d765782518260006101000a81548173ffffffffffffffffffffffffffffffffffffffff021916908373ffffffffffffffffffffffffffffffffffffffff1602179055509160200191906001019062003d1c565b5b50905062003d86919062003d8a565b5090565b5b8082111562003da557600081600090555060010162003d8b565b5090565b600062003dc062003dba8462005804565b620057db565b9050808382526020820190508285602086028201111562003de057600080fd5b60005b8581101562003e14578162003df9888262003fc2565b84526020840193506020830192505060018101905062003de3565b5050509392505050565b600062003e3562003e2f8462005833565b620057db565b9050808382526020820190508285602086028201111562003e5557600080fd5b60005b8581101562003e89578162003e6e888262004135565b84526020840193506020830192505060018101905062003e58565b5050509392505050565b600062003eaa62003ea48462005833565b620057db565b9050808382526020820190508285602086028201111562003eca57600080fd5b60005b8581101562003efe578162003ee388826200414c565b84526020840193506020830192505060018101905062003ecd565b5050509392505050565b600062003f1f62003f198462005862565b620057db565b9050808382526020820190508285602086028201111562003f3f57600080fd5b60005b8581101562003f73578162003f58888262004163565b84526020840193506020830192505060018101905062003f42565b5050509392505050565b600062003f9462003f8e8462005891565b620057db565b90508281526020810184848401111562003fad57600080fd5b62003fba84828562005d00565b509392505050565b60008135905062003fd3816200635f565b92915050565b600082601f83011262003feb57600080fd5b813562003ffd84826020860162003da9565b91505092915050565b60008083601f8401126200401957600080fd5b8235905067ffffffffffffffff8111156200403357600080fd5b6020830191508360208202830111156200404c57600080fd5b9250929050565b600082601f8301126200406557600080fd5b81356200407784826020860162003e1e565b91505092915050565b600082601f8301126200409257600080fd5b8151620040a484826020860162003e93565b91505092915050565b600082601f830112620040bf57600080fd5b8135620040d184826020860162003f08565b91505092915050565b600081359050620040eb8162006379565b92915050565b600081519050620041028162006379565b92915050565b600082601f8301126200411a57600080fd5b81356200412c84826020860162003f7d565b91505092915050565b600081359050620041468162006393565b92915050565b6000815190506200415d8162006393565b92915050565b6000813590506200417481620063ad565b92915050565b6000602082840312156200418d57600080fd5b60006200419d8482850162003fc2565b91505092915050565b60008060408385031215620041ba57600080fd5b6000620041ca8582860162003fc2565b9250506020620041dd8582860162004135565b9150509250929050565b600080600060608486031215620041fd57600080fd5b60006200420d8682870162003fc2565b9350506020620042208682870162004135565b9250506040620042338682870162004163565b9150509250925092565b60008060008060008060008060006101208a8c0312156200425d57600080fd5b60008a013567ffffffffffffffff8111156200427857600080fd5b620042868c828d0162003fd9565b99505060208a013567ffffffffffffffff811115620042a457600080fd5b620042b28c828d01620040ad565b98505060408a013567ffffffffffffffff811115620042d057600080fd5b620042de8c828d0162004108565b97505060608a013567ffffffffffffffff811115620042fc57600080fd5b6200430a8c828d0162004108565b96505060806200431d8c828d0162004135565b95505060a0620043308c828d0162004135565b94505060c0620043438c828d0162004135565b93505060e0620043568c828d0162004135565b9250506101006200436a8c828d0162003fc2565b9150509295985092959850929598565b6000806000604084860312156200439057600080fd5b600084013567ffffffffffffffff811115620043ab57600080fd5b620043b98682870162004006565b93509350506020620043ce86828701620040da565b9150509250925092565b600060208284031215620043eb57600080fd5b600082015167ffffffffffffffff8111156200440657600080fd5b620044148482850162004080565b91505092915050565b6000806000606084860312156200443357600080fd5b600084013567ffffffffffffffff8111156200444e57600080fd5b6200445c8682870162004053565b93505060206200446f8682870162004135565b9250506040620044828682870162004135565b9150509250925092565b6000602082840312156200449f57600080fd5b6000620044af84828501620040f1565b91505092915050565b600060208284031215620044cb57600080fd5b6000620044db848285016200414c565b91505092915050565b600080600060608486031215620044fa57600080fd5b60006200450a8682870162004135565b935050602084013567ffffffffffffffff8111156200452857600080fd5b620045368682870162004053565b9250506040620045498682870162004135565b9150509250925092565b600080604083850312156200456757600080fd5b6000620045778582860162004135565b92505060206200458a8582860162004135565b9150509250929050565b600080600060608486031215620045aa57600080fd5b6000620045ba8682870162004135565b9350506020620045cd8682870162004135565b9250506040620045e08682870162004135565b9150509250925092565b600080600080608085870312156200460157600080fd5b6000620046118782880162004135565b9450506020620046248782880162004163565b9350506040620046378782880162004135565b92505060606200464a8782880162004135565b91505092959194509250565b6000602082840312156200466957600080fd5b6000620046798482850162004163565b91505092915050565b6000806000606084860312156200469857600080fd5b6000620046a88682870162004163565b9350506020620046bb8682870162004163565b9250506040620046ce8682870162004135565b9150509250925092565b600080600080600060a08688031215620046f157600080fd5b6000620047018882890162004163565b9550506020620047148882890162004163565b9450506040620047278882890162004135565b93505060606200473a8882890162004135565b92505060806200474d8882890162004135565b9150509295509295909350565b6000620047688383620049be565b60208301905092915050565b600062004782838362004e56565b60208301905092915050565b60006200479c838362004e89565b60208301905092915050565b620047b38162005c45565b82525050565b620047c48162005c45565b82525050565b6000620047d782620058e7565b620047e381856200592d565b9350620047f083620058c7565b8060005b83811015620048275781516200480b88826200475a565b9750620048188362005913565b925050600181019050620047f4565b5085935050505092915050565b60006200484283856200594f565b93507f07ffffffffffffffffffffffffffffffffffffffffffffffffffffffffffffff8311156200487257600080fd5b6020830292506200488583858462005d00565b82840190509392505050565b60006200489e82620058f2565b620048aa81856200593e565b9350620048b783620058d7565b8060005b83811015620048ee578151620048d2888262004774565b9750620048df8362005920565b925050600181019050620048bb565b5085935050505092915050565b60006200490882620058f2565b6200491481856200594f565b93506200492183620058d7565b8060005b83811015620049585781516200493c88826200478e565b9750620049498362005920565b92505060018101905062004925565b5085935050505092915050565b620049708162005c59565b82525050565b620049818162005c59565b82525050565b60006200499482620058fd565b620049a0818562005960565b9350620049b281856020860162005d0f565b80840191505092915050565b620049c98162005c9c565b82525050565b620049da8162005c9c565b82525050565b620049eb8162005cc4565b82525050565b6000620049fe8262005908565b62004a0a81856200596b565b935062004a1c81856020860162005d0f565b62004a278162005e56565b840191505092915050565b600062004a416014836200596b565b915062004a4e8262005e74565b602082019050919050565b600062004a686006836200596b565b915062004a758262005e9d565b602082019050919050565b600062004a8f6026836200596b565b915062004a9c8262005ec6565b604082019050919050565b600062004ab6600f836200596b565b915062004ac38262005f15565b602082019050919050565b600062004add600c836200596b565b915062004aea8262005f3e565b602082019050919050565b600062004b046026836200596b565b915062004b118262005f67565b604082019050919050565b600062004b2b6008836200596b565b915062004b388262005fb6565b602082019050919050565b600062004b526010836200596b565b915062004b5f8262005fdf565b602082019050919050565b600062004b79600d836200596b565b915062004b868262006008565b602082019050919050565b600062004ba0602e836200596b565b915062004bad8262006031565b604082019050919050565b600062004bc76013836200596b565b915062004bd48262006080565b602082019050919050565b600062004bee600b836200596b565b915062004bfb82620060a9565b602082019050919050565b600062004c156020836200596b565b915062004c2282620060d2565b602082019050919050565b600062004c3c600d836200596b565b915062004c4982620060fb565b602082019050919050565b600062004c636010836200596b565b915062004c708262006124565b602082019050919050565b600062004c8a600d836200596b565b915062004c97826200614d565b602082019050919050565b600062004cb16016836200596b565b915062004cbe8262006176565b602082019050919050565b600062004cd8600b836200596b565b915062004ce5826200619f565b602082019050919050565b600062004cff601d836200596b565b915062004d0c82620061c8565b602082019050919050565b600062004d26601d836200596b565b915062004d3382620061f1565b602082019050919050565b600062004d4d6015836200596b565b915062004d5a826200621a565b602082019050919050565b600062004d74602a836200596b565b915062004d818262006243565b604082019050919050565b600062004d9b600b836200596b565b915062004da88262006292565b602082019050919050565b600062004dc26007836200596b565b915062004dcf82620062bb565b602082019050919050565b600062004de9600a836200596b565b915062004df682620062e4565b602082019050919050565b600062004e10601f836200596b565b915062004e1d826200630d565b602082019050919050565b600062004e37600e836200596b565b915062004e448262006336565b602082019050919050565b8082525050565b62004e618162005c85565b82525050565b62004e728162005c85565b82525050565b62004e838162005c85565b82525050565b62004e948162005c85565b82525050565b62004ea58162005cec565b82525050565b62004eb68162005c8f565b82525050565b600062004eca828462004987565b915081905092915050565b600060208201905062004eec6000830184620047a8565b92915050565b600060408201905062004f096000830185620047a8565b62004f18602083018462004e67565b9392505050565b6000602082019050818103600083015262004f3b8184620047ca565b905092915050565b6000602082019050818103600083015262004f5f818462004891565b905092915050565b600060208201905062004f7e600083018462004965565b92915050565b600060208201905062004f9b6000830184620049cf565b92915050565b60006101008201905062004fb9600083018b620049e0565b62004fc8602083018a62004e67565b62004fd7604083018962004e67565b62004fe6606083018862004e67565b62004ff5608083018762004e67565b6200500460a083018662004e67565b6200501360c083018562004e67565b6200502260e083018462004e67565b9998505050505050505050565b600060208201905081810360008301526200504b8184620049f1565b905092915050565b600060408201905081810360008301526200506f8185620049f1565b90508181036020830152620050858184620049f1565b90509392505050565b60006020820190508181036000830152620050a98162004a32565b9050919050565b60006020820190508181036000830152620050cb8162004a59565b9050919050565b60006020820190508181036000830152620050ed8162004a80565b9050919050565b600060208201905081810360008301526200510f8162004aa7565b9050919050565b60006020820190508181036000830152620051318162004ace565b9050919050565b60006020820190508181036000830152620051538162004af5565b9050919050565b60006020820190508181036000830152620051758162004b1c565b9050919050565b60006020820190508181036000830152620051978162004b43565b9050919050565b60006020820190508181036000830152620051b98162004b6a565b9050919050565b60006020820190508181036000830152620051db8162004b91565b9050919050565b60006020820190508181036000830152620051fd8162004bb8565b9050919050565b600060208201905081810360008301526200521f8162004bdf565b9050919050565b60006020820190508181036000830152620052418162004c06565b9050919050565b60006020820190508181036000830152620052638162004c2d565b9050919050565b60006020820190508181036000830152620052858162004c54565b9050919050565b60006020820190508181036000830152620052a78162004c7b565b9050919050565b60006020820190508181036000830152620052c98162004ca2565b9050919050565b60006020820190508181036000830152620052eb8162004cc9565b9050919050565b600060208201905081810360008301526200530d8162004cf0565b9050919050565b600060208201905081810360008301526200532f8162004d17565b9050919050565b60006020820190508181036000830152620053518162004d3e565b9050919050565b60006020820190508181036000830152620053738162004d65565b9050919050565b60006020820190508181036000830152620053958162004d8c565b9050919050565b60006020820190508181036000830152620053b78162004db3565b9050919050565b60006020820190508181036000830152620053d98162004dda565b9050919050565b60006020820190508181036000830152620053fb8162004e01565b9050919050565b600060208201905081810360008301526200541d8162004e28565b9050919050565b60006020820190506200543b600083018462004e4f565b92915050565b600060608201905062005458600083018662004e4f565b620054676020830185620047b9565b62005476604083018462004e78565b949350505050565b600060808201905062005495600083018762004e4f565b620054a46020830186620047b9565b620054b3604083018562004e78565b620054c2606083018462004e9a565b95945050505050565b6000606082019050620054e2600083018762004e4f565b8181036020830152620054f781858762004834565b905062005508604083018462004976565b95945050505050565b600060608201905062005528600083018662004e4f565b81810360208301526200553c8185620048fb565b90506200554d604083018462004e78565b949350505050565b60006040820190506200556c600083018562004e4f565b6200557b602083018462004e78565b9392505050565b600060608201905062005599600083018662004e4f565b620055a8602083018562004e78565b8181036040830152620055bc8184620048fb565b9050949350505050565b6000608082019050620055dd600083018762004e4f565b620055ec602083018662004e78565b620055fb604083018562004e9a565b6200560a606083018462004e78565b95945050505050565b60006040820190506200562a600083018562004e4f565b62005639602083018462004e9a565b9392505050565b600060808201905062005657600083018762004e4f565b62005666602083018662004e9a565b62005675604083018562004e9a565b62005684606083018462004e78565b95945050505050565b600060a082019050620056a4600083018862004e4f565b620056b3602083018762004e9a565b620056c2604083018662004e9a565b620056d1606083018562004e78565b620056e0608083018462004e78565b9695505050505050565b600060208201905062005701600083018462004e67565b92915050565b60006040820190506200571e600083018562004e67565b6200572d602083018462004e67565b9392505050565b60006060820190506200574b600083018662004e67565b6200575a602083018562004e67565b62005769604083018462004e67565b949350505050565b600060808201905062005788600083018762004e67565b62005797602083018662004e67565b620057a6604083018562004e67565b620057b5606083018462004e67565b95945050505050565b6000602082019050620057d5600083018462004eab565b92915050565b6000620057e7620057fa565b9050620057f5828262005d45565b919050565b6000604051905090565b600067ffffffffffffffff82111562005822576200582162005e27565b5b602082029050602081019050919050565b600067ffffffffffffffff82111562005851576200585062005e27565b5b602082029050602081019050919050565b600067ffffffffffffffff82111562005880576200587f62005e27565b5b602082029050602081019050919050565b600067ffffffffffffffff821115620058af57620058ae62005e27565b5b620058ba8262005e56565b9050602081019050919050565b6000819050602082019050919050565b6000819050602082019050919050565b600081519050919050565b600081519050919050565b600081519050919050565b600081519050919050565b6000602082019050919050565b6000602082019050919050565b600082825260208201905092915050565b600082825260208201905092915050565b600082825260208201905092915050565b600081905092915050565b600082825260208201905092915050565b6000620059898262005c85565b9150620059968362005c85565b9250827fffffffffffffffffffffffffffffffffffffffffffffffffffffffffffffffff03821115620059ce57620059cd62005dc9565b5b828201905092915050565b6000620059e68262005c85565b9150620059f38362005c85565b92508262005a065762005a0562005df8565b5b828204905092915050565b6000808291508390505b600185111562005a635780860481111562005a3b5762005a3a62005dc9565b5b600185161562005a4b5780820291505b808102905062005a5b8562005e67565b945062005a1b565b94509492505050565b600062005a798262005c85565b915062005a868362005c85565b925062005ab57fffffffffffffffffffffffffffffffffffffffffffffffffffffffffffffffff848462005abd565b905092915050565b60008262005acf576001905062005ba2565b8162005adf576000905062005ba2565b816001811462005af8576002811462005b035762005b39565b600191505062005ba2565b60ff84111562005b185762005b1762005dc9565b5b8360020a91508482111562005b325762005b3162005dc9565b5b5062005ba2565b5060208310610133831016604e8410600b841016171562005b735782820a90508381111562005b6d5762005b6c62005dc9565b5b62005ba2565b62005b82848484600162005a11565b9250905081840481111562005b9c5762005b9b62005dc9565b5b81810290505b9392505050565b600062005bb68262005c85565b915062005bc38362005c85565b9250817fffffffffffffffffffffffffffffffffffffffffffffffffffffffffffffffff048311821515161562005bff5762005bfe62005dc9565b5b828202905092915050565b600062005c178262005c85565b915062005c248362005c85565b92508282101562005c3a5762005c3962005dc9565b5b828203905092915050565b600062005c528262005c65565b9050919050565b60008115159050919050565b600073ffffffffffffffffffffffffffffffffffffffff82169050919050565b6000819050919050565b600060ff82169050919050565b600062005ca98262005cb0565b9050919050565b600062005cbd8262005c65565b9050919050565b600062005cd18262005cd8565b9050919050565b600062005ce58262005c65565b9050919050565b600062005cf98262005c8f565b9050919050565b82818337600083830152505050565b60005b8381101562005d2f57808201518184015260208101905062005d12565b8381111562005d3f576000848401525b50505050565b62005d508262005e56565b810181811067ffffffffffffffff8211171562005d725762005d7162005e27565b5b80604052505050565b600062005d888262005c85565b91507fffffffffffffffffffffffffffffffffffffffffffffffffffffffffffffffff82141562005dbe5762005dbd62005dc9565b5b600182019050919050565b7f4e487b7100000000000000000000000000000000000000000000000000000000600052601160045260246000fd5b7f4e487b7100000000000000000000000000000000000000000000000000000000600052601260045260246000fd5b7f4e487b7100000000000000000000000000000000000000000000000000000000600052604160045260246000fd5b6000601f19601f8301169050919050565b60008160011c9050919050565b7f5061757361626c653a206e6f7420706175736564000000000000000000000000600082015250565b7f3e206d6178410000000000000000000000000000000000000000000000000000600082015250565b7f4f776e61626c653a206e6577206f776e657220697320746865207a65726f206160008201527f6464726573730000000000000000000000000000000000000000000000000000602082015250565b7f696e76616c6964446563696d616c730000000000000000000000000000000000600082015250565b7f3e206d6178537761704665650000000000000000000000000000000000000000600082015250565b7f416464726573733a20696e73756666696369656e742062616c616e636520666f60008201527f722063616c6c0000000000000000000000000000000000000000000000000000602082015250565b7f216c70546f6b656e000000000000000000000000000000000000000000000000600082015250565b7f5061757361626c653a2070617573656400000000000000000000000000000000600082015250565b7f3e206d617841646d696e46656500000000000000000000000000000000000000600082015250565b7f496e697469616c697a61626c653a20636f6e747261637420697320616c72656160008201527f647920696e697469616c697a6564000000000000000000000000000000000000602082015250565b7f696e76616c6964546f6b656e4164647265737300000000000000000000000000600082015250565b7f7a65726f41646472657373000000000000000000000000000000000000000000600082015250565b7f4f776e61626c653a2063616c6c6572206973206e6f7420746865206f776e6572600082015250565b7f3c206d696e52616d7054696d6500000000000000000000000000000000000000600082015250565b7f3e206d6178576974686472617746656500000000000000000000000000000000600082015250565b7f746f6b656e4e6f74466f756e6400000000000000000000000000000000000000600082015250565b7f6665654469737472696275746f72203d20656d70747900000000000000000000600082015250565b7f3c2072616d7044656c6179000000000000000000000000000000000000000000600082015250565b7f636f696e734c656e67746820213d20646563696d616c734c656e677468000000600082015250565b7f416464726573733a2063616c6c20746f206e6f6e2d636f6e7472616374000000600082015250565b7f21666565436f6e74726f6c6c65724f724f776e65720000000000000000000000600082015250565b7f5361666545524332303a204552433230206f7065726174696f6e20646964206e60008201527f6f74207375636365656400000000000000000000000000000000000000000000602082015250565b7f3e206d61784368616e6765000000000000000000000000000000000000000000600082015250565b7f74696d656f757400000000000000000000000000000000000000000000000000600082015250565b7f6f75744f6652616e676500000000000000000000000000000000000000000000600082015250565b7f5265656e7472616e637947756172643a207265656e7472616e742063616c6c00600082015250565b7f616c726561647953746f70706564000000000000000000000000000000000000600082015250565b6200636a8162005c45565b81146200637657600080fd5b50565b620063848162005c59565b81146200639057600080fd5b50565b6200639e8162005c85565b8114620063aa57600080fd5b50565b620063b88162005c8f565b8114620063c457600080fd5b5056fe60806040523480156200001157600080fd5b50604051620025c5380380620025c58339818101604052810190620000379190620002c4565b8181620000596200004d620000d660201b60201c565b620000de60201b60201c565b816004908051906020019062000071929190620001a2565b5080600590805190602001906200008a929190620001a2565b50505033600660006101000a81548173ffffffffffffffffffffffffffffffffffffffff021916908373ffffffffffffffffffffffffffffffffffffffff1602179055505050620004a7565b600033905090565b60008060009054906101000a900473ffffffffffffffffffffffffffffffffffffffff169050816000806101000a81548173ffffffffffffffffffffffffffffffffffffffff021916908373ffffffffffffffffffffffffffffffffffffffff1602179055508173ffffffffffffffffffffffffffffffffffffffff168173ffffffffffffffffffffffffffffffffffffffff167f8be0079c531659141344cd1fd0a4f28419497f9722a3daafe3b4186f6b6457e060405160405180910390a35050565b828054620001b090620003cc565b90600052602060002090601f016020900481019282620001d4576000855562000220565b82601f10620001ef57805160ff191683800117855562000220565b8280016001018555821562000220579182015b828111156200021f57825182559160200191906001019062000202565b5b5090506200022f919062000233565b5090565b5b808211156200024e57600081600090555060010162000234565b5090565b600062000269620002638462000360565b62000337565b9050828152602081018484840111156200028257600080fd5b6200028f84828562000396565b509392505050565b600082601f830112620002a957600080fd5b8151620002bb84826020860162000252565b91505092915050565b60008060408385031215620002d857600080fd5b600083015167ffffffffffffffff811115620002f357600080fd5b620003018582860162000297565b925050602083015167ffffffffffffffff8111156200031f57600080fd5b6200032d8582860162000297565b9150509250929050565b60006200034362000356565b905062000351828262000402565b919050565b6000604051905090565b600067ffffffffffffffff8211156200037e576200037d62000467565b5b620003898262000496565b9050602081019050919050565b60005b83811015620003b657808201518184015260208101905062000399565b83811115620003c6576000848401525b50505050565b60006002820490506001821680620003e557607f821691505b60208210811415620003fc57620003fb62000438565b5b50919050565b6200040d8262000496565b810181811067ffffffffffffffff821117156200042f576200042e62000467565b5b80604052505050565b7f4e487b7100000000000000000000000000000000000000000000000000000000600052602260045260246000fd5b7f4e487b7100000000000000000000000000000000000000000000000000000000600052604160045260246000fd5b6000601f19601f8301169050919050565b61210e80620004b76000396000f3fe608060405234801561001057600080fd5b50600436106101165760003560e01c8063715018a6116100a257806395d89b411161007157806395d89b41146102cf578063a457c2d7146102ed578063a9059cbb1461031d578063dd62ed3e1461034d578063f2fde38b1461037d57610116565b8063715018a61461026d57806379cc6790146102775780638119c065146102935780638da5cb5b146102b157610116565b8063313ce567116100e9578063313ce567146101b757806339509351146101d557806340c10f191461020557806342966c681461022157806370a082311461023d57610116565b806306fdde031461011b578063095ea7b31461013957806318160ddd1461016957806323b872dd14610187575b600080fd5b610123610399565b60405161013091906118bf565b60405180910390f35b610153600480360381019061014e9190611572565b61042b565b6040516101609190611889565b60405180910390f35b610171610449565b60405161017e9190611aa1565b60405180910390f35b6101a1600480360381019061019c9190611523565b610453565b6040516101ae9190611889565b60405180910390f35b6101bf61054b565b6040516101cc9190611abc565b60405180910390f35b6101ef60048036038101906101ea9190611572565b610554565b6040516101fc9190611889565b60405180910390f35b61021f600480360381019061021a9190611572565b610600565b005b61023b600480360381019061023691906115ae565b6106cd565b005b610257600480360381019061025291906114be565b6106e1565b6040516102649190611aa1565b60405180910390f35b61027561072a565b005b610291600480360381019061028c9190611572565b6107b2565b005b61029b61082d565b6040516102a891906118a4565b60405180910390f35b6102b9610853565b6040516102c69190611845565b60405180910390f35b6102d761087c565b6040516102e491906118bf565b60405180910390f35b61030760048036038101906103029190611572565b61090e565b6040516103149190611889565b60405180910390f35b61033760048036038101906103329190611572565b6109f9565b6040516103449190611889565b60405180910390f35b610367600480360381019061036291906114e7565b610a17565b6040516103749190611aa1565b60405180910390f35b610397600480360381019061039291906114be565b610a9e565b005b6060600480546103a890611c29565b80601f01602080910402602001604051908101604052809291908181526020018280546103d490611c29565b80156104215780601f106103f657610100808354040283529160200191610421565b820191906000526020600020905b81548152906001019060200180831161040457829003601f168201915b5050505050905090565b600061043f610438610b96565b8484610b9e565b6001905092915050565b6000600354905090565b6000610460848484610d69565b6000600260008673ffffffffffffffffffffffffffffffffffffffff1673ffffffffffffffffffffffffffffffffffffffff16815260200190815260200160002060006104ab610b96565b73ffffffffffffffffffffffffffffffffffffffff1673ffffffffffffffffffffffffffffffffffffffff1681526020019081526020016000205490508281101561052b576040517f08c379a0000000000000000000000000000000000000000000000000000000008152600401610522906119a1565b60405180910390fd5b61053f85610537610b96565b858403610b9e565b60019150509392505050565b60006012905090565b60006105f6610561610b96565b84846002600061056f610b96565b73ffffffffffffffffffffffffffffffffffffffff1673ffffffffffffffffffffffffffffffffffffffff16815260200190815260200160002060008873ffffffffffffffffffffffffffffffffffffffff1673ffffffffffffffffffffffffffffffffffffffff168152602001908152602001600020546105f19190611af3565b610b9e565b6001905092915050565b610608610b96565b73ffffffffffffffffffffffffffffffffffffffff16610626610853565b73ffffffffffffffffffffffffffffffffffffffff161461067c576040517f08c379a0000000000000000000000000000000000000000000000000000000008152600401610673906119c1565b60405180910390fd5b600081116106bf576040517f08c379a00000000000000000000000000000000000000000000000000000000081526004016106b690611981565b60405180910390fd5b6106c98282610fed565b5050565b6106de6106d8610b96565b8261114e565b50565b6000600160008373ffffffffffffffffffffffffffffffffffffffff1673ffffffffffffffffffffffffffffffffffffffff168152602001908152602001600020549050919050565b610732610b96565b73ffffffffffffffffffffffffffffffffffffffff16610750610853565b73ffffffffffffffffffffffffffffffffffffffff16146107a6576040517f08c379a000000000000000000000000000000000000000000000000000000000815260040161079d906119c1565b60405180910390fd5b6107b06000611327565b565b60006107c5836107c0610b96565b610a17565b90508181101561080a576040517f08c379a0000000000000000000000000000000000000000000000000000000008152600401610801906119e1565b60405180910390fd5b61081e83610816610b96565b848403610b9e565b610828838361114e565b505050565b600660009054906101000a900473ffffffffffffffffffffffffffffffffffffffff1681565b60008060009054906101000a900473ffffffffffffffffffffffffffffffffffffffff16905090565b60606005805461088b90611c29565b80601f01602080910402602001604051908101604052809291908181526020018280546108b790611c29565b80156109045780601f106108d957610100808354040283529160200191610904565b820191906000526020600020905b8154815290600101906020018083116108e757829003601f168201915b5050505050905090565b6000806002600061091d610b96565b73ffffffffffffffffffffffffffffffffffffffff1673ffffffffffffffffffffffffffffffffffffffff16815260200190815260200160002060008573ffffffffffffffffffffffffffffffffffffffff1673ffffffffffffffffffffffffffffffffffffffff168152602001908152602001600020549050828110156109da576040517f08c379a00000000000000000000000000000000000000000000000000000000081526004016109d190611a61565b60405180910390fd5b6109ee6109e5610b96565b85858403610b9e565b600191505092915050565b6000610a0d610a06610b96565b8484610d69565b6001905092915050565b6000600260008473ffffffffffffffffffffffffffffffffffffffff1673ffffffffffffffffffffffffffffffffffffffff16815260200190815260200160002060008373ffffffffffffffffffffffffffffffffffffffff1673ffffffffffffffffffffffffffffffffffffffff16815260200190815260200160002054905092915050565b610aa6610b96565b73ffffffffffffffffffffffffffffffffffffffff16610ac4610853565b73ffffffffffffffffffffffffffffffffffffffff1614610b1a576040517f08c379a0000000000000000000000000000000000000000000000000000000008152600401610b11906119c1565b60405180910390fd5b600073ffffffffffffffffffffffffffffffffffffffff168173ffffffffffffffffffffffffffffffffffffffff161415610b8a576040517f08c379a0000000000000000000000000000000000000000000000000000000008152600401610b8190611921565b60405180910390fd5b610b9381611327565b50565b600033905090565b600073ffffffffffffffffffffffffffffffffffffffff168373ffffffffffffffffffffffffffffffffffffffff161415610c0e576040517f08c379a0000000000000000000000000000000000000000000000000000000008152600401610c0590611a41565b60405180910390fd5b600073ffffffffffffffffffffffffffffffffffffffff168273ffffffffffffffffffffffffffffffffffffffff161415610c7e576040517f08c379a0000000000000000000000000000000000000000000000000000000008152600401610c7590611941565b60405180910390fd5b80600260008573ffffffffffffffffffffffffffffffffffffffff1673ffffffffffffffffffffffffffffffffffffffff16815260200190815260200160002060008473ffffffffffffffffffffffffffffffffffffffff1673ffffffffffffffffffffffffffffffffffffffff168152602001908152602001600020819055508173ffffffffffffffffffffffffffffffffffffffff168373ffffffffffffffffffffffffffffffffffffffff167f8c5be1e5ebec7d5bd14f71427d1e84f3dd0314c0f7b2291e5b200ac8c7c3b92583604051610d5c9190611aa1565b60405180910390a3505050565b600073ffffffffffffffffffffffffffffffffffffffff168373ffffffffffffffffffffffffffffffffffffffff161415610dd9576040517f08c379a0000000000000000000000000000000000000000000000000000000008152600401610dd090611a21565b60405180910390fd5b600073ffffffffffffffffffffffffffffffffffffffff168273ffffffffffffffffffffffffffffffffffffffff161415610e49576040517f08c379a0000000000000000000000000000000000000000000000000000000008152600401610e40906118e1565b60405180910390fd5b610e548383836113eb565b6000600160008573ffffffffffffffffffffffffffffffffffffffff1673ffffffffffffffffffffffffffffffffffffffff16815260200190815260200160002054905081811015610edb576040517f08c379a0000000000000000000000000000000000000000000000000000000008152600401610ed290611961565b60405180910390fd5b818103600160008673ffffffffffffffffffffffffffffffffffffffff1673ffffffffffffffffffffffffffffffffffffffff1681526020019081526020016000208190555081600160008573ffffffffffffffffffffffffffffffffffffffff1673ffffffffffffffffffffffffffffffffffffffff1681526020019081526020016000206000828254610f709190611af3565b925050819055508273ffffffffffffffffffffffffffffffffffffffff168473ffffffffffffffffffffffffffffffffffffffff167fddf252ad1be2c89b69c2b068fc378daa952ba7f163c4a11628f55a4df523b3ef84604051610fd49190611aa1565b60405180910390a3610fe784848461148a565b50505050565b600073ffffffffffffffffffffffffffffffffffffffff168273ffffffffffffffffffffffffffffffffffffffff16141561105d576040517f08c379a000000000000000000000000000000000000000000000000000000000815260040161105490611a81565b60405180910390fd5b611069600083836113eb565b806003600082825461107b9190611af3565b9250508190555080600160008473ffffffffffffffffffffffffffffffffffffffff1673ffffffffffffffffffffffffffffffffffffffff16815260200190815260200160002060008282546110d19190611af3565b925050819055508173ffffffffffffffffffffffffffffffffffffffff16600073ffffffffffffffffffffffffffffffffffffffff167fddf252ad1be2c89b69c2b068fc378daa952ba7f163c4a11628f55a4df523b3ef836040516111369190611aa1565b60405180910390a361114a6000838361148a565b5050565b600073ffffffffffffffffffffffffffffffffffffffff168273ffffffffffffffffffffffffffffffffffffffff1614156111be576040517f08c379a00000000000000000000000000000000000000000000000000000000081526004016111b590611a01565b60405180910390fd5b6111ca826000836113eb565b6000600160008473ffffffffffffffffffffffffffffffffffffffff1673ffffffffffffffffffffffffffffffffffffffff16815260200190815260200160002054905081811015611251576040517f08c379a000000000000000000000000000000000000000000000000000000000815260040161124890611901565b60405180910390fd5b818103600160008573ffffffffffffffffffffffffffffffffffffffff1673ffffffffffffffffffffffffffffffffffffffff1681526020019081526020016000208190555081600360008282546112a99190611b49565b92505081905550600073ffffffffffffffffffffffffffffffffffffffff168373ffffffffffffffffffffffffffffffffffffffff167fddf252ad1be2c89b69c2b068fc378daa952ba7f163c4a11628f55a4df523b3ef8460405161130e9190611aa1565b60405180910390a36113228360008461148a565b505050565b60008060009054906101000a900473ffffffffffffffffffffffffffffffffffffffff169050816000806101000a81548173ffffffffffffffffffffffffffffffffffffffff021916908373ffffffffffffffffffffffffffffffffffffffff1602179055508173ffffffffffffffffffffffffffffffffffffffff168173ffffffffffffffffffffffffffffffffffffffff167f8be0079c531659141344cd1fd0a4f28419497f9722a3daafe3b4186f6b6457e060405160405180910390a35050565b6113f683838361148f565b600660009054906101000a900473ffffffffffffffffffffffffffffffffffffffff1673ffffffffffffffffffffffffffffffffffffffff1663c00c125c83836040518363ffffffff1660e01b8152600401611453929190611860565b600060405180830381600087803b15801561146d57600080fd5b505af1158015611481573d6000803e3d6000fd5b50505050505050565b505050565b505050565b6000813590506114a3816120aa565b92915050565b6000813590506114b8816120c1565b92915050565b6000602082840312156114d057600080fd5b60006114de84828501611494565b91505092915050565b600080604083850312156114fa57600080fd5b600061150885828601611494565b925050602061151985828601611494565b9150509250929050565b60008060006060848603121561153857600080fd5b600061154686828701611494565b935050602061155786828701611494565b9250506040611568868287016114a9565b9150509250925092565b6000806040838503121561158557600080fd5b600061159385828601611494565b92505060206115a4858286016114a9565b9150509250929050565b6000602082840312156115c057600080fd5b60006115ce848285016114a9565b91505092915050565b6115e081611b7d565b82525050565b6115ef81611b8f565b82525050565b6115fe81611bd2565b82525050565b600061160f82611ad7565b6116198185611ae2565b9350611629818560208601611bf6565b61163281611cb9565b840191505092915050565b600061164a602383611ae2565b915061165582611cca565b604082019050919050565b600061166d602283611ae2565b915061167882611d19565b604082019050919050565b6000611690602683611ae2565b915061169b82611d68565b604082019050919050565b60006116b3602283611ae2565b91506116be82611db7565b604082019050919050565b60006116d6602683611ae2565b91506116e182611e06565b604082019050919050565b60006116f9600e83611ae2565b915061170482611e55565b602082019050919050565b600061171c602883611ae2565b915061172782611e7e565b604082019050919050565b600061173f602083611ae2565b915061174a82611ecd565b602082019050919050565b6000611762602483611ae2565b915061176d82611ef6565b604082019050919050565b6000611785602183611ae2565b915061179082611f45565b604082019050919050565b60006117a8602583611ae2565b91506117b382611f94565b604082019050919050565b60006117cb602483611ae2565b91506117d682611fe3565b604082019050919050565b60006117ee602583611ae2565b91506117f982612032565b604082019050919050565b6000611811601f83611ae2565b915061181c82612081565b602082019050919050565b61183081611bbb565b82525050565b61183f81611bc5565b82525050565b600060208201905061185a60008301846115d7565b92915050565b600060408201905061187560008301856115d7565b6118826020830184611827565b9392505050565b600060208201905061189e60008301846115e6565b92915050565b60006020820190506118b960008301846115f5565b92915050565b600060208201905081810360008301526118d98184611604565b905092915050565b600060208201905081810360008301526118fa8161163d565b9050919050565b6000602082019050818103600083015261191a81611660565b9050919050565b6000602082019050818103600083015261193a81611683565b9050919050565b6000602082019050818103600083015261195a816116a6565b9050919050565b6000602082019050818103600083015261197a816116c9565b9050919050565b6000602082019050818103600083015261199a816116ec565b9050919050565b600060208201905081810360008301526119ba8161170f565b9050919050565b600060208201905081810360008301526119da81611732565b9050919050565b600060208201905081810360008301526119fa81611755565b9050919050565b60006020820190508181036000830152611a1a81611778565b9050919050565b60006020820190508181036000830152611a3a8161179b565b9050919050565b60006020820190508181036000830152611a5a816117be565b9050919050565b60006020820190508181036000830152611a7a816117e1565b9050919050565b60006020820190508181036000830152611a9a81611804565b9050919050565b6000602082019050611ab66000830184611827565b92915050565b6000602082019050611ad16000830184611836565b92915050565b600081519050919050565b600082825260208201905092915050565b6000611afe82611bbb565b9150611b0983611bbb565b9250827fffffffffffffffffffffffffffffffffffffffffffffffffffffffffffffffff03821115611b3e57611b3d611c5b565b5b828201905092915050565b6000611b5482611bbb565b9150611b5f83611bbb565b925082821015611b7257611b71611c5b565b5b828203905092915050565b6000611b8882611b9b565b9050919050565b60008115159050919050565b600073ffffffffffffffffffffffffffffffffffffffff82169050919050565b6000819050919050565b600060ff82169050919050565b6000611bdd82611be4565b9050919050565b6000611bef82611b9b565b9050919050565b60005b83811015611c14578082015181840152602081019050611bf9565b83811115611c23576000848401525b50505050565b60006002820490506001821680611c4157607f821691505b60208210811415611c5557611c54611c8a565b5b50919050565b7f4e487b7100000000000000000000000000000000000000000000000000000000600052601160045260246000fd5b7f4e487b7100000000000000000000000000000000000000000000000000000000600052602260045260246000fd5b6000601f19601f8301169050919050565b7f45524332303a207472616e7366657220746f20746865207a65726f206164647260008201527f6573730000000000000000000000000000000000000000000000000000000000602082015250565b7f45524332303a206275726e20616d6f756e7420657863656564732062616c616e60008201527f6365000000000000000000000000000000000000000000000000000000000000602082015250565b7f4f776e61626c653a206e6577206f776e657220697320746865207a65726f206160008201527f6464726573730000000000000000000000000000000000000000000000000000602082015250565b7f45524332303a20617070726f766520746f20746865207a65726f20616464726560008201527f7373000000000000000000000000000000000000000000000000000000000000602082015250565b7f45524332303a207472616e7366657220616d6f756e742065786365656473206260008201527f616c616e63650000000000000000000000000000000000000000000000000000602082015250565b7f7a65726f4d696e74416d6f756e74000000000000000000000000000000000000600082015250565b7f45524332303a207472616e7366657220616d6f756e742065786365656473206160008201527f6c6c6f77616e6365000000000000000000000000000000000000000000000000602082015250565b7f4f776e61626c653a2063616c6c6572206973206e6f7420746865206f776e6572600082015250565b7f45524332303a206275726e20616d6f756e74206578636565647320616c6c6f7760008201527f616e636500000000000000000000000000000000000000000000000000000000602082015250565b7f45524332303a206275726e2066726f6d20746865207a65726f2061646472657360008201527f7300000000000000000000000000000000000000000000000000000000000000602082015250565b7f45524332303a207472616e736665722066726f6d20746865207a65726f20616460008201527f6472657373000000000000000000000000000000000000000000000000000000602082015250565b7f45524332303a20617070726f76652066726f6d20746865207a65726f2061646460008201527f7265737300000000000000000000000000000000000000000000000000000000602082015250565b7f45524332303a2064656372656173656420616c6c6f77616e63652062656c6f7760008201527f207a65726f000000000000000000000000000000000000000000000000000000602082015250565b7f45524332303a206d696e7420746f20746865207a65726f206164647265737300600082015250565b6120b381611b7d565b81146120be57600080fd5b50565b6120ca81611bbb565b81146120d557600080fd5b5056fea26469706673582212208f52bb15095675b17733765a209d6b2ac33b12b4644a28f2e3405818ea038e9164736f6c63430008040033a26469706673582212203e63b14bb9fb284970d53434a412d6d8b0e1d0becbc483e26e237acd240fdf6b64736f6c63430008040033",
			"opcodes": "PUSH1 0x80 PUSH1 0x40 MSTORE CALLVALUE DUP1 ISZERO PUSH3 0x11 JUMPI PUSH1 0x0 DUP1 REVERT JUMPDEST POP PUSH3 0x32 PUSH3 0x26 PUSH3 0x59 PUSH1 0x20 SHL PUSH1 0x20 SHR JUMP JUMPDEST PUSH3 0x61 PUSH1 0x20 SHL PUSH1 0x20 SHR JUMP JUMPDEST PUSH1 0x0 DUP1 PUSH1 0x14 PUSH2 0x100 EXP DUP2 SLOAD DUP2 PUSH1 0xFF MUL NOT AND SWAP1 DUP4 ISZERO ISZERO MUL OR SWAP1 SSTORE POP PUSH1 0x1 DUP1 DUP2 SWAP1 SSTORE POP PUSH3 0x125 JUMP JUMPDEST PUSH1 0x0 CALLER SWAP1 POP SWAP1 JUMP JUMPDEST PUSH1 0x0 DUP1 PUSH1 0x0 SWAP1 SLOAD SWAP1 PUSH2 0x100 EXP SWAP1 DIV PUSH20 0xFFFFFFFFFFFFFFFFFFFFFFFFFFFFFFFFFFFFFFFF AND SWAP1 POP DUP2 PUSH1 0x0 DUP1 PUSH2 0x100 EXP DUP2 SLOAD DUP2 PUSH20 0xFFFFFFFFFFFFFFFFFFFFFFFFFFFFFFFFFFFFFFFF MUL NOT AND SWAP1 DUP4 PUSH20 0xFFFFFFFFFFFFFFFFFFFFFFFFFFFFFFFFFFFFFFFF AND MUL OR SWAP1 SSTORE POP DUP2 PUSH20 0xFFFFFFFFFFFFFFFFFFFFFFFFFFFFFFFFFFFFFFFF AND DUP2 PUSH20 0xFFFFFFFFFFFFFFFFFFFFFFFFFFFFFFFFFFFFFFFF AND PUSH32 0x8BE0079C531659141344CD1FD0A4F28419497F9722A3DAAFE3B4186F6B6457E0 PUSH1 0x40 MLOAD PUSH1 0x40 MLOAD DUP1 SWAP2 SUB SWAP1 LOG3 POP POP JUMP JUMPDEST PUSH2 0x89C2 DUP1 PUSH3 0x135 PUSH1 0x0 CODECOPY PUSH1 0x0 RETURN INVALID PUSH1 0x80 PUSH1 0x40 MSTORE CALLVALUE DUP1 ISZERO PUSH3 0x11 JUMPI PUSH1 0x0 DUP1 REVERT JUMPDEST POP PUSH1 0x4 CALLDATASIZE LT PUSH3 0x2D4 JUMPI PUSH1 0x0 CALLDATALOAD PUSH1 0xE0 SHR DUP1 PUSH4 0x84CDD9BC GT PUSH3 0x189 JUMPI DUP1 PUSH4 0xC4DB7FA0 GT PUSH3 0xE1 JUMPI DUP1 PUSH4 0xE25AA5FA GT PUSH3 0x93 JUMPI DUP1 PUSH4 0xE25AA5FA EQ PUSH3 0x906 JUMPI DUP1 PUSH4 0xE6AB2806 EQ PUSH3 0x928 JUMPI DUP1 PUSH4 0xEFEECB51 EQ PUSH3 0x95E JUMPI DUP1 PUSH4 0xF2FDE38B EQ PUSH3 0x980 JUMPI DUP1 PUSH4 0xF3DE0362 EQ PUSH3 0x9A0 JUMPI DUP1 PUSH4 0xFE49ABE3 EQ PUSH3 0x9C2 JUMPI PUSH3 0x2D4 JUMP JUMPDEST DUP1 PUSH4 0xC4DB7FA0 EQ PUSH3 0x854 JUMPI DUP1 PUSH4 0xCCFC2E8D EQ PUSH3 0x860 JUMPI DUP1 PUSH4 0xD41F6568 EQ PUSH3 0x880 JUMPI DUP1 PUSH4 0xD46300FD EQ PUSH3 0x8A2 JUMPI DUP1 PUSH4 0xD4B0DE2F EQ PUSH3 0x8C4 JUMPI DUP1 PUSH4 0xDF3ED68D EQ PUSH3 0x8E6 JUMPI PUSH3 0x2D4 JUMP JUMPDEST DUP1 PUSH4 0xA1DC9031 GT PUSH3 0x13B JUMPI DUP1 PUSH4 0xA1DC9031 EQ PUSH3 0x776 JUMPI DUP1 PUSH4 0xA95B089F EQ PUSH3 0x798 JUMPI DUP1 PUSH4 0xAA6CA808 EQ PUSH3 0x7CE JUMPI DUP1 PUSH4 0xAB3D8544 EQ PUSH3 0x7F0 JUMPI DUP1 PUSH4 0xAB5AC061 EQ PUSH3 0x812 JUMPI DUP1 PUSH4 0xC00C125C EQ PUSH3 0x834 JUMPI PUSH3 0x2D4 JUMP JUMPDEST DUP1 PUSH4 0x84CDD9BC EQ PUSH3 0x646 JUMPI DUP1 PUSH4 0x8554A7D4 EQ PUSH3 0x67C JUMPI DUP1 PUSH4 0x8DA5CB5B EQ PUSH3 0x6B2 JUMPI DUP1 PUSH4 0x91695586 EQ PUSH3 0x6D4 JUMPI DUP1 PUSH4 0x91CEB3EB EQ PUSH3 0x70A JUMPI DUP1 PUSH4 0x98899F40 EQ PUSH3 0x740 JUMPI PUSH3 0x2D4 JUMP JUMPDEST DUP1 PUSH4 0x4D49E87D GT PUSH3 0x23D JUMPI DUP1 PUSH4 0x6999B377 GT PUSH3 0x1EF JUMPI DUP1 PUSH4 0x6999B377 EQ PUSH3 0x57E JUMPI DUP1 PUSH4 0x715018A6 EQ PUSH3 0x5A0 JUMPI DUP1 PUSH4 0x7C61E561 EQ PUSH3 0x5AC JUMPI DUP1 PUSH4 0x8214F5A4 EQ PUSH3 0x5E2 JUMPI DUP1 PUSH4 0x82B86600 EQ PUSH3 0x604 JUMPI DUP1 PUSH4 0x8456CB59 EQ PUSH3 0x63A JUMPI PUSH3 0x2D4 JUMP JUMPDEST DUP1 PUSH4 0x4D49E87D EQ PUSH3 0x487 JUMPI DUP1 PUSH4 0x593D132C EQ PUSH3 0x4BD JUMPI DUP1 PUSH4 0x5B65B9AB EQ PUSH3 0x4DD JUMPI DUP1 PUSH4 0x5C975ABB EQ PUSH3 0x4FD JUMPI DUP1 PUSH4 0x5FD65F0F EQ PUSH3 0x51F JUMPI DUP1 PUSH4 0x66C0BD24 EQ PUSH3 0x548 JUMPI PUSH3 0x2D4 JUMP JUMPDEST DUP1 PUSH4 0x31CD52B0 GT PUSH3 0x297 JUMPI DUP1 PUSH4 0x31CD52B0 EQ PUSH3 0x397 JUMPI DUP1 PUSH4 0x39698415 EQ PUSH3 0x3CD JUMPI DUP1 PUSH4 0x3E3A1560 EQ PUSH3 0x3EF JUMPI DUP1 PUSH4 0x3ED4C678 EQ PUSH3 0x425 JUMPI DUP1 PUSH4 0x3F4BA83A EQ PUSH3 0x445 JUMPI DUP1 PUSH4 0x4A1B0D57 EQ PUSH3 0x451 JUMPI PUSH3 0x2D4 JUMP JUMPDEST DUP1 PUSH4 0x4BC3B1C EQ PUSH3 0x2D9 JUMPI DUP1 PUSH4 0x6E9481C EQ PUSH3 0x30F JUMPI DUP1 PUSH4 0xBA81959 EQ PUSH3 0x331 JUMPI DUP1 PUSH4 0xD43E8AD EQ PUSH3 0x353 JUMPI DUP1 PUSH4 0x18F52CE2 EQ PUSH3 0x375 JUMPI JUMPDEST PUSH1 0x0 DUP1 REVERT JUMPDEST PUSH3 0x2F7 PUSH1 0x4 DUP1 CALLDATASIZE SUB DUP2 ADD SWAP1 PUSH3 0x2F1 SWAP2 SWAP1 PUSH3 0x417A JUMP JUMPDEST PUSH3 0x9CE JUMP JUMPDEST PUSH1 0x40 MLOAD PUSH3 0x306 SWAP2 SWAP1 PUSH3 0x57BE JUMP JUMPDEST PUSH1 0x40 MLOAD DUP1 SWAP2 SUB SWAP1 RETURN JUMPDEST PUSH3 0x319 PUSH3 0x9EE JUMP JUMPDEST PUSH1 0x40 MLOAD PUSH3 0x328 SWAP2 SWAP1 PUSH3 0x56EA JUMP JUMPDEST PUSH1 0x40 MLOAD DUP1 SWAP2 SUB SWAP1 RETURN JUMPDEST PUSH3 0x33B PUSH3 0x9F5 JUMP JUMPDEST PUSH1 0x40 MLOAD PUSH3 0x34A SWAP2 SWAP1 PUSH3 0x56EA JUMP JUMPDEST PUSH1 0x40 MLOAD DUP1 SWAP2 SUB SWAP1 RETURN JUMPDEST PUSH3 0x35D PUSH3 0xA8C JUMP JUMPDEST PUSH1 0x40 MLOAD PUSH3 0x36C SWAP2 SWAP1 PUSH3 0x4ED5 JUMP JUMPDEST PUSH1 0x40 MLOAD DUP1 SWAP2 SUB SWAP1 RETURN JUMPDEST PUSH3 0x37F PUSH3 0xAB2 JUMP JUMPDEST PUSH1 0x40 MLOAD PUSH3 0x38E SWAP2 SWAP1 PUSH3 0x4F43 JUMP JUMPDEST PUSH1 0x40 MLOAD DUP1 SWAP2 SUB SWAP1 RETURN JUMPDEST PUSH3 0x3B5 PUSH1 0x4 DUP1 CALLDATASIZE SUB DUP2 ADD SWAP1 PUSH3 0x3AF SWAP2 SWAP1 PUSH3 0x44E4 JUMP JUMPDEST PUSH3 0xC33 JUMP JUMPDEST PUSH1 0x40 MLOAD PUSH3 0x3C4 SWAP2 SWAP1 PUSH3 0x4F43 JUMP JUMPDEST PUSH1 0x40 MLOAD DUP1 SWAP2 SUB SWAP1 RETURN JUMPDEST PUSH3 0x3D7 PUSH3 0xD77 JUMP JUMPDEST PUSH1 0x40 MLOAD PUSH3 0x3E6 SWAP2 SWAP1 PUSH3 0x56EA JUMP JUMPDEST PUSH1 0x40 MLOAD DUP1 SWAP2 SUB SWAP1 RETURN JUMPDEST PUSH3 0x40D PUSH1 0x4 DUP1 CALLDATASIZE SUB DUP2 ADD SWAP1 PUSH3 0x407 SWAP2 SWAP1 PUSH3 0x45EA JUMP JUMPDEST PUSH3 0xD7E JUMP JUMPDEST PUSH1 0x40 MLOAD PUSH3 0x41C SWAP2 SWAP1 PUSH3 0x56EA JUMP JUMPDEST PUSH1 0x40 MLOAD DUP1 SWAP2 SUB SWAP1 RETURN JUMPDEST PUSH3 0x443 PUSH1 0x4 DUP1 CALLDATASIZE SUB DUP2 ADD SWAP1 PUSH3 0x43D SWAP2 SWAP1 PUSH3 0x417A JUMP JUMPDEST PUSH3 0xF0D JUMP JUMPDEST STOP JUMPDEST PUSH3 0x44F PUSH3 0x1080 JUMP JUMPDEST STOP JUMPDEST PUSH3 0x46F PUSH1 0x4 DUP1 CALLDATASIZE SUB DUP2 ADD SWAP1 PUSH3 0x469 SWAP2 SWAP1 PUSH3 0x417A JUMP JUMPDEST PUSH3 0x110F JUMP JUMPDEST PUSH1 0x40 MLOAD PUSH3 0x47E SWAP2 SWAP1 PUSH3 0x56EA JUMP JUMPDEST PUSH1 0x40 MLOAD DUP1 SWAP2 SUB SWAP1 RETURN JUMPDEST PUSH3 0x4A5 PUSH1 0x4 DUP1 CALLDATASIZE SUB DUP2 ADD SWAP1 PUSH3 0x49F SWAP2 SWAP1 PUSH3 0x441D JUMP JUMPDEST PUSH3 0x112E JUMP JUMPDEST PUSH1 0x40 MLOAD PUSH3 0x4B4 SWAP2 SWAP1 PUSH3 0x56EA JUMP JUMPDEST PUSH1 0x40 MLOAD DUP1 SWAP2 SUB SWAP1 RETURN JUMPDEST PUSH3 0x4DB PUSH1 0x4 DUP1 CALLDATASIZE SUB DUP2 ADD SWAP1 PUSH3 0x4D5 SWAP2 SWAP1 PUSH3 0x4553 JUMP JUMPDEST PUSH3 0x12BA JUMP JUMPDEST STOP JUMPDEST PUSH3 0x4FB PUSH1 0x4 DUP1 CALLDATASIZE SUB DUP2 ADD SWAP1 PUSH3 0x4F5 SWAP2 SWAP1 PUSH3 0x4594 JUMP JUMPDEST PUSH3 0x160F JUMP JUMPDEST STOP JUMPDEST PUSH3 0x507 PUSH3 0x17D1 JUMP JUMPDEST PUSH1 0x40 MLOAD PUSH3 0x516 SWAP2 SWAP1 PUSH3 0x4F67 JUMP JUMPDEST PUSH1 0x40 MLOAD DUP1 SWAP2 SUB SWAP1 RETURN JUMPDEST PUSH3 0x529 PUSH3 0x17E7 JUMP JUMPDEST PUSH1 0x40 MLOAD PUSH3 0x53F SWAP9 SWAP8 SWAP7 SWAP6 SWAP5 SWAP4 SWAP3 SWAP2 SWAP1 PUSH3 0x4FA1 JUMP JUMPDEST PUSH1 0x40 MLOAD DUP1 SWAP2 SUB SWAP1 RETURN JUMPDEST PUSH3 0x566 PUSH1 0x4 DUP1 CALLDATASIZE SUB DUP2 ADD SWAP1 PUSH3 0x560 SWAP2 SWAP1 PUSH3 0x417A JUMP JUMPDEST PUSH3 0x183D JUMP JUMPDEST PUSH1 0x40 MLOAD PUSH3 0x575 SWAP2 SWAP1 PUSH3 0x57BE JUMP JUMPDEST PUSH1 0x40 MLOAD DUP1 SWAP2 SUB SWAP1 RETURN JUMPDEST PUSH3 0x588 PUSH3 0x196F JUMP JUMPDEST PUSH1 0x40 MLOAD PUSH3 0x597 SWAP2 SWAP1 PUSH3 0x4ED5 JUMP JUMPDEST PUSH1 0x40 MLOAD DUP1 SWAP2 SUB SWAP1 RETURN JUMPDEST PUSH3 0x5AA PUSH3 0x1995 JUMP JUMPDEST STOP JUMPDEST PUSH3 0x5CA PUSH1 0x4 DUP1 CALLDATASIZE SUB DUP2 ADD SWAP1 PUSH3 0x5C4 SWAP2 SWAP1 PUSH3 0x41A6 JUMP JUMPDEST PUSH3 0x1A26 JUMP JUMPDEST PUSH1 0x40 MLOAD PUSH3 0x5D9 SWAP2 SWAP1 PUSH3 0x4F43 JUMP JUMPDEST PUSH1 0x40 MLOAD DUP1 SWAP2 SUB SWAP1 RETURN JUMPDEST PUSH3 0x5EC PUSH3 0x1AC9 JUMP JUMPDEST PUSH1 0x40 MLOAD PUSH3 0x5FB SWAP2 SWAP1 PUSH3 0x4F84 JUMP JUMPDEST PUSH1 0x40 MLOAD DUP1 SWAP2 SUB SWAP1 RETURN JUMPDEST PUSH3 0x622 PUSH1 0x4 DUP1 CALLDATASIZE SUB DUP2 ADD SWAP1 PUSH3 0x61C SWAP2 SWAP1 PUSH3 0x4656 JUMP JUMPDEST PUSH3 0x1AF6 JUMP JUMPDEST PUSH1 0x40 MLOAD PUSH3 0x631 SWAP2 SWAP1 PUSH3 0x4F84 JUMP JUMPDEST PUSH1 0x40 MLOAD DUP1 SWAP2 SUB SWAP1 RETURN JUMPDEST PUSH3 0x644 PUSH3 0x1B6B JUMP JUMPDEST STOP JUMPDEST PUSH3 0x664 PUSH1 0x4 DUP1 CALLDATASIZE SUB DUP2 ADD SWAP1 PUSH3 0x65E SWAP2 SWAP1 PUSH3 0x441D JUMP JUMPDEST PUSH3 0x1BFA JUMP JUMPDEST PUSH1 0x40 MLOAD PUSH3 0x673 SWAP2 SWAP1 PUSH3 0x56EA JUMP JUMPDEST PUSH1 0x40 MLOAD DUP1 SWAP2 SUB SWAP1 RETURN JUMPDEST PUSH3 0x69A PUSH1 0x4 DUP1 CALLDATASIZE SUB DUP2 ADD SWAP1 PUSH3 0x694 SWAP2 SWAP1 PUSH3 0x4656 JUMP JUMPDEST PUSH3 0x1D86 JUMP JUMPDEST PUSH1 0x40 MLOAD PUSH3 0x6A9 SWAP2 SWAP1 PUSH3 0x56EA JUMP JUMPDEST PUSH1 0x40 MLOAD DUP1 SWAP2 SUB SWAP1 RETURN JUMPDEST PUSH3 0x6BC PUSH3 0x1E21 JUMP JUMPDEST PUSH1 0x40 MLOAD PUSH3 0x6CB SWAP2 SWAP1 PUSH3 0x4ED5 JUMP JUMPDEST PUSH1 0x40 MLOAD DUP1 SWAP2 SUB SWAP1 RETURN JUMPDEST PUSH3 0x6F2 PUSH1 0x4 DUP1 CALLDATASIZE SUB DUP2 ADD SWAP1 PUSH3 0x6EC SWAP2 SWAP1 PUSH3 0x46D8 JUMP JUMPDEST PUSH3 0x1E4A JUMP JUMPDEST PUSH1 0x40 MLOAD PUSH3 0x701 SWAP2 SWAP1 PUSH3 0x56EA JUMP JUMPDEST PUSH1 0x40 MLOAD DUP1 SWAP2 SUB SWAP1 RETURN JUMPDEST PUSH3 0x728 PUSH1 0x4 DUP1 CALLDATASIZE SUB DUP2 ADD SWAP1 PUSH3 0x722 SWAP2 SWAP1 PUSH3 0x4656 JUMP JUMPDEST PUSH3 0x1FDC JUMP JUMPDEST PUSH1 0x40 MLOAD PUSH3 0x737 SWAP2 SWAP1 PUSH3 0x56EA JUMP JUMPDEST PUSH1 0x40 MLOAD DUP1 SWAP2 SUB SWAP1 RETURN JUMPDEST PUSH3 0x75E PUSH1 0x4 DUP1 CALLDATASIZE SUB DUP2 ADD SWAP1 PUSH3 0x758 SWAP2 SWAP1 PUSH3 0x41E7 JUMP JUMPDEST PUSH3 0x2030 JUMP JUMPDEST PUSH1 0x40 MLOAD PUSH3 0x76D SWAP2 SWAP1 PUSH3 0x56EA JUMP JUMPDEST PUSH1 0x40 MLOAD DUP1 SWAP2 SUB SWAP1 RETURN JUMPDEST PUSH3 0x780 PUSH3 0x20D1 JUMP JUMPDEST PUSH1 0x40 MLOAD PUSH3 0x78F SWAP2 SWAP1 PUSH3 0x4F43 JUMP JUMPDEST PUSH1 0x40 MLOAD DUP1 SWAP2 SUB SWAP1 RETURN JUMPDEST PUSH3 0x7B6 PUSH1 0x4 DUP1 CALLDATASIZE SUB DUP2 ADD SWAP1 PUSH3 0x7B0 SWAP2 SWAP1 PUSH3 0x4682 JUMP JUMPDEST PUSH3 0x212D JUMP JUMPDEST PUSH1 0x40 MLOAD PUSH3 0x7C5 SWAP2 SWAP1 PUSH3 0x56EA JUMP JUMPDEST PUSH1 0x40 MLOAD DUP1 SWAP2 SUB SWAP1 RETURN JUMPDEST PUSH3 0x7D8 PUSH3 0x21CE JUMP JUMPDEST PUSH1 0x40 MLOAD PUSH3 0x7E7 SWAP2 SWAP1 PUSH3 0x4F1F JUMP JUMPDEST PUSH1 0x40 MLOAD DUP1 SWAP2 SUB SWAP1 RETURN JUMPDEST PUSH3 0x7FA PUSH3 0x2261 JUMP JUMPDEST PUSH1 0x40 MLOAD PUSH3 0x809 SWAP2 SWAP1 PUSH3 0x56EA JUMP JUMPDEST PUSH1 0x40 MLOAD DUP1 SWAP2 SUB SWAP1 RETURN JUMPDEST PUSH3 0x81C PUSH3 0x2269 JUMP JUMPDEST PUSH1 0x40 MLOAD PUSH3 0x82B SWAP2 SWAP1 PUSH3 0x56EA JUMP JUMPDEST PUSH1 0x40 MLOAD DUP1 SWAP2 SUB SWAP1 RETURN JUMPDEST PUSH3 0x852 PUSH1 0x4 DUP1 CALLDATASIZE SUB DUP2 ADD SWAP1 PUSH3 0x84C SWAP2 SWAP1 PUSH3 0x41A6 JUMP JUMPDEST PUSH3 0x226E JUMP JUMPDEST STOP JUMPDEST PUSH3 0x85E PUSH3 0x237A JUMP JUMPDEST STOP JUMPDEST PUSH3 0x87E PUSH1 0x4 DUP1 CALLDATASIZE SUB DUP2 ADD SWAP1 PUSH3 0x878 SWAP2 SWAP1 PUSH3 0x417A JUMP JUMPDEST PUSH3 0x2541 JUMP JUMPDEST STOP JUMPDEST PUSH3 0x88A PUSH3 0x26B4 JUMP JUMPDEST PUSH1 0x40 MLOAD PUSH3 0x899 SWAP2 SWAP1 PUSH3 0x4F43 JUMP JUMPDEST PUSH1 0x40 MLOAD DUP1 SWAP2 SUB SWAP1 RETURN JUMPDEST PUSH3 0x8AC PUSH3 0x2711 JUMP JUMPDEST PUSH1 0x40 MLOAD PUSH3 0x8BB SWAP2 SWAP1 PUSH3 0x56EA JUMP JUMPDEST PUSH1 0x40 MLOAD DUP1 SWAP2 SUB SWAP1 RETURN JUMPDEST PUSH3 0x8CE PUSH3 0x27A8 JUMP JUMPDEST PUSH1 0x40 MLOAD PUSH3 0x8DD SWAP2 SWAP1 PUSH3 0x56EA JUMP JUMPDEST PUSH1 0x40 MLOAD DUP1 SWAP2 SUB SWAP1 RETURN JUMPDEST PUSH3 0x904 PUSH1 0x4 DUP1 CALLDATASIZE SUB DUP2 ADD SWAP1 PUSH3 0x8FE SWAP2 SWAP1 PUSH3 0x423D JUMP JUMPDEST PUSH3 0x27B0 JUMP JUMPDEST STOP JUMPDEST PUSH3 0x910 PUSH3 0x311C JUMP JUMPDEST PUSH1 0x40 MLOAD PUSH3 0x91F SWAP2 SWAP1 PUSH3 0x56EA JUMP JUMPDEST PUSH1 0x40 MLOAD DUP1 SWAP2 SUB SWAP1 RETURN JUMPDEST PUSH3 0x946 PUSH1 0x4 DUP1 CALLDATASIZE SUB DUP2 ADD SWAP1 PUSH3 0x940 SWAP2 SWAP1 PUSH3 0x437A JUMP JUMPDEST PUSH3 0x31B3 JUMP JUMPDEST PUSH1 0x40 MLOAD PUSH3 0x955 SWAP2 SWAP1 PUSH3 0x56EA JUMP JUMPDEST PUSH1 0x40 MLOAD DUP1 SWAP2 SUB SWAP1 RETURN JUMPDEST PUSH3 0x968 PUSH3 0x3254 JUMP JUMPDEST PUSH1 0x40 MLOAD PUSH3 0x977 SWAP2 SWAP1 PUSH3 0x56EA JUMP JUMPDEST PUSH1 0x40 MLOAD DUP1 SWAP2 SUB SWAP1 RETURN JUMPDEST PUSH3 0x99E PUSH1 0x4 DUP1 CALLDATASIZE SUB DUP2 ADD SWAP1 PUSH3 0x998 SWAP2 SWAP1 PUSH3 0x417A JUMP JUMPDEST PUSH3 0x3264 JUMP JUMPDEST STOP JUMPDEST PUSH3 0x9AA PUSH3 0x3368 JUMP JUMPDEST PUSH1 0x40 MLOAD PUSH3 0x9B9 SWAP2 SWAP1 PUSH3 0x56EA JUMP JUMPDEST PUSH1 0x40 MLOAD DUP1 SWAP2 SUB SWAP1 RETURN JUMPDEST PUSH3 0x9CC PUSH3 0x3371 JUMP JUMPDEST STOP JUMPDEST PUSH1 0x12 PUSH1 0x20 MSTORE DUP1 PUSH1 0x0 MSTORE PUSH1 0x40 PUSH1 0x0 KECCAK256 PUSH1 0x0 SWAP2 POP SLOAD SWAP1 PUSH2 0x100 EXP SWAP1 DIV PUSH1 0xFF AND DUP2 JUMP JUMPDEST PUSH3 0x15180 DUP2 JUMP JUMPDEST PUSH1 0x0 PUSH1 0x3 PUSH20 0x0 PUSH4 0xA3035585 SWAP1 SWAP2 PUSH1 0x40 MLOAD DUP3 PUSH4 0xFFFFFFFF AND PUSH1 0xE0 SHL DUP2 MSTORE PUSH1 0x4 ADD PUSH3 0xA33 SWAP2 SWAP1 PUSH3 0x5424 JUMP JUMPDEST PUSH1 0x20 PUSH1 0x40 MLOAD DUP1 DUP4 SUB DUP2 DUP7 DUP1 EXTCODESIZE ISZERO DUP1 ISZERO PUSH3 0xA4C JUMPI PUSH1 0x0 DUP1 REVERT JUMPDEST POP GAS DELEGATECALL ISZERO DUP1 ISZERO PUSH3 0xA61 JUMPI RETURNDATASIZE PUSH1 0x0 DUP1 RETURNDATACOPY RETURNDATASIZE PUSH1 0x0 REVERT JUMPDEST POP POP POP POP PUSH1 0x40 MLOAD RETURNDATASIZE PUSH1 0x1F NOT PUSH1 0x1F DUP3 ADD AND DUP3 ADD DUP1 PUSH1 0x40 MSTORE POP DUP2 ADD SWAP1 PUSH3 0xA87 SWAP2 SWAP1 PUSH3 0x44B8 JUMP JUMPDEST SWAP1 POP SWAP1 JUMP JUMPDEST PUSH1 0x10 PUSH1 0x0 SWAP1 SLOAD SWAP1 PUSH2 0x100 EXP SWAP1 DIV PUSH20 0xFFFFFFFFFFFFFFFFFFFFFFFFFFFFFFFFFFFFFFFF AND DUP2 JUMP JUMPDEST PUSH1 0x60 PUSH1 0x0 PUSH1 0x3 PUSH1 0x0 ADD DUP1 SLOAD SWAP1 POP SWAP1 POP DUP1 PUSH8 0xFFFFFFFFFFFFFFFF DUP2 GT ISZERO PUSH3 0xB02 JUMPI PUSH32 0x4E487B7100000000000000000000000000000000000000000000000000000000 PUSH1 0x0 MSTORE PUSH1 0x41 PUSH1 0x4 MSTORE PUSH1 0x24 PUSH1 0x0 REVERT JUMPDEST PUSH1 0x40 MLOAD SWAP1 DUP1 DUP3 MSTORE DUP1 PUSH1 0x20 MUL PUSH1 0x20 ADD DUP3 ADD PUSH1 0x40 MSTORE DUP1 ISZERO PUSH3 0xB31 JUMPI DUP2 PUSH1 0x20 ADD PUSH1 0x20 DUP3 MUL DUP1 CALLDATASIZE DUP4 CALLDATACOPY DUP1 DUP3 ADD SWAP2 POP POP SWAP1 POP JUMPDEST POP SWAP2 POP PUSH1 0x0 JUMPDEST DUP2 DUP2 LT ISZERO PUSH3 0xC2E JUMPI PUSH1 0x3 PUSH20 0x0 PUSH4 0xE2EBA89B SWAP1 SWAP2 DUP4 PUSH1 0x40 MLOAD DUP4 PUSH4 0xFFFFFFFF AND PUSH1 0xE0 SHL DUP2 MSTORE PUSH1 0x4 ADD PUSH3 0xB7E SWAP3 SWAP2 SWAP1 PUSH3 0x5555 JUMP JUMPDEST PUSH1 0x20 PUSH1 0x40 MLOAD DUP1 DUP4 SUB DUP2 DUP7 DUP1 EXTCODESIZE ISZERO DUP1 ISZERO PUSH3 0xB97 JUMPI PUSH1 0x0 DUP1 REVERT JUMPDEST POP GAS DELEGATECALL ISZERO DUP1 ISZERO PUSH3 0xBAC JUMPI RETURNDATASIZE PUSH1 0x0 DUP1 RETURNDATACOPY RETURNDATASIZE PUSH1 0x0 REVERT JUMPDEST POP POP POP POP PUSH1 0x40 MLOAD RETURNDATASIZE PUSH1 0x1F NOT PUSH1 0x1F DUP3 ADD AND DUP3 ADD DUP1 PUSH1 0x40 MSTORE POP DUP2 ADD SWAP1 PUSH3 0xBD2 SWAP2 SWAP1 PUSH3 0x44B8 JUMP JUMPDEST DUP4 DUP3 DUP2 MLOAD DUP2 LT PUSH3 0xC0C JUMPI PUSH32 0x4E487B7100000000000000000000000000000000000000000000000000000000 PUSH1 0x0 MSTORE PUSH1 0x32 PUSH1 0x4 MSTORE PUSH1 0x24 PUSH1 0x0 REVERT JUMPDEST PUSH1 0x20 MUL PUSH1 0x20 ADD ADD DUP2 DUP2 MSTORE POP POP DUP1 DUP1 PUSH3 0xC25 SWAP1 PUSH3 0x5D7B JUMP JUMPDEST SWAP2 POP POP PUSH3 0xB37 JUMP JUMPDEST POP POP SWAP1 JUMP JUMPDEST PUSH1 0x60 PUSH1 0x2 PUSH1 0x1 SLOAD EQ ISZERO PUSH3 0xC7E JUMPI PUSH1 0x40 MLOAD PUSH32 0x8C379A000000000000000000000000000000000000000000000000000000000 DUP2 MSTORE PUSH1 0x4 ADD PUSH3 0xC75 SWAP1 PUSH3 0x53E0 JUMP JUMPDEST PUSH1 0x40 MLOAD DUP1 SWAP2 SUB SWAP1 REVERT JUMPDEST PUSH1 0x2 PUSH1 0x1 DUP2 SWAP1 SSTORE POP DUP2 DUP1 TIMESTAMP GT ISZERO PUSH3 0xCCD JUMPI PUSH1 0x40 MLOAD PUSH32 0x8C379A000000000000000000000000000000000000000000000000000000000 DUP2 MSTORE PUSH1 0x4 ADD PUSH3 0xCC4 SWAP1 PUSH3 0x539C JUMP JUMPDEST PUSH1 0x40 MLOAD DUP1 SWAP2 SUB SWAP1 REVERT JUMPDEST PUSH1 0x3 PUSH20 0x0 PUSH4 0xC685696C SWAP1 SWAP2 DUP8 DUP8 PUSH1 0x40 MLOAD DUP5 PUSH4 0xFFFFFFFF AND PUSH1 0xE0 SHL DUP2 MSTORE PUSH1 0x4 ADD PUSH3 0xD0D SWAP4 SWAP3 SWAP2 SWAP1 PUSH3 0x5582 JUMP JUMPDEST PUSH1 0x0 PUSH1 0x40 MLOAD DUP1 DUP4 SUB DUP2 DUP7 DUP1 EXTCODESIZE ISZERO DUP1 ISZERO PUSH3 0xD26 JUMPI PUSH1 0x0 DUP1 REVERT JUMPDEST POP GAS DELEGATECALL ISZERO DUP1 ISZERO PUSH3 0xD3B JUMPI RETURNDATASIZE PUSH1 0x0 DUP1 RETURNDATACOPY RETURNDATASIZE PUSH1 0x0 REVERT JUMPDEST POP POP POP POP PUSH1 0x40 MLOAD RETURNDATASIZE PUSH1 0x0 DUP3 RETURNDATACOPY RETURNDATASIZE PUSH1 0x1F NOT PUSH1 0x1F DUP3 ADD AND DUP3 ADD DUP1 PUSH1 0x40 MSTORE POP DUP2 ADD SWAP1 PUSH3 0xD66 SWAP2 SWAP1 PUSH3 0x43D8 JUMP JUMPDEST SWAP2 POP POP PUSH1 0x1 DUP1 DUP2 SWAP1 SSTORE POP SWAP4 SWAP3 POP POP POP JUMP JUMPDEST PUSH3 0xF4240 DUP2 JUMP JUMPDEST PUSH1 0x0 PUSH1 0x2 PUSH1 0x1 SLOAD EQ ISZERO PUSH3 0xDC9 JUMPI PUSH1 0x40 MLOAD PUSH32 0x8C379A000000000000000000000000000000000000000000000000000000000 DUP2 MSTORE PUSH1 0x4 ADD PUSH3 0xDC0 SWAP1 PUSH3 0x53E0 JUMP JUMPDEST PUSH1 0x40 MLOAD DUP1 SWAP2 SUB SWAP1 REVERT JUMPDEST PUSH1 0x2 PUSH1 0x1 DUP2 SWAP1 SSTORE POP PUSH3 0xDDB PUSH3 0x17D1 JUMP JUMPDEST ISZERO PUSH3 0xE1E JUMPI PUSH1 0x40 MLOAD PUSH32 0x8C379A000000000000000000000000000000000000000000000000000000000 DUP2 MSTORE PUSH1 0x4 ADD PUSH3 0xE15 SWAP1 PUSH3 0x517C JUMP JUMPDEST PUSH1 0x40 MLOAD DUP1 SWAP2 SUB SWAP1 REVERT JUMPDEST DUP2 DUP1 TIMESTAMP GT ISZERO PUSH3 0xE65 JUMPI PUSH1 0x40 MLOAD PUSH32 0x8C379A000000000000000000000000000000000000000000000000000000000 DUP2 MSTORE PUSH1 0x4 ADD PUSH3 0xE5C SWAP1 PUSH3 0x539C JUMP JUMPDEST PUSH1 0x40 MLOAD DUP1 SWAP2 SUB SWAP1 REVERT JUMPDEST PUSH1 0x3 PUSH20 0x0 PUSH4 0x2BFE30D0 SWAP1 SWAP2 DUP9 DUP9 DUP9 PUSH1 0x40 MLOAD DUP6 PUSH4 0xFFFFFFFF AND PUSH1 0xE0 SHL DUP2 MSTORE PUSH1 0x4 ADD PUSH3 0xEA7 SWAP5 SWAP4 SWAP3 SWAP2 SWAP1 PUSH3 0x55C6 JUMP JUMPDEST PUSH1 0x20 PUSH1 0x40 MLOAD DUP1 DUP4 SUB DUP2 DUP7 DUP1 EXTCODESIZE ISZERO DUP1 ISZERO PUSH3 0xEC0 JUMPI PUSH1 0x0 DUP1 REVERT JUMPDEST POP GAS DELEGATECALL ISZERO DUP1 ISZERO PUSH3 0xED5 JUMPI RETURNDATASIZE PUSH1 0x0 DUP1 RETURNDATACOPY RETURNDATASIZE PUSH1 0x0 REVERT JUMPDEST POP POP POP POP PUSH1 0x40 MLOAD RETURNDATASIZE PUSH1 0x1F NOT PUSH1 0x1F DUP3 ADD AND DUP3 ADD DUP1 PUSH1 0x40 MSTORE POP DUP2 ADD SWAP1 PUSH3 0xEFB SWAP2 SWAP1 PUSH3 0x44B8 JUMP JUMPDEST SWAP2 POP POP PUSH1 0x1 DUP1 DUP2 SWAP1 SSTORE POP SWAP5 SWAP4 POP POP POP POP JUMP JUMPDEST PUSH3 0xF17 PUSH3 0x365B JUMP JUMPDEST PUSH20 0xFFFFFFFFFFFFFFFFFFFFFFFFFFFFFFFFFFFFFFFF AND PUSH3 0xF37 PUSH3 0x1E21 JUMP JUMPDEST PUSH20 0xFFFFFFFFFFFFFFFFFFFFFFFFFFFFFFFFFFFFFFFF AND EQ PUSH3 0xF90 JUMPI PUSH1 0x40 MLOAD PUSH32 0x8C379A000000000000000000000000000000000000000000000000000000000 DUP2 MSTORE PUSH1 0x4 ADD PUSH3 0xF87 SWAP1 PUSH3 0x5226 JUMP JUMPDEST PUSH1 0x40 MLOAD DUP1 SWAP2 SUB SWAP1 REVERT JUMPDEST PUSH1 0x0 PUSH20 0xFFFFFFFFFFFFFFFFFFFFFFFFFFFFFFFFFFFFFFFF AND DUP2 PUSH20 0xFFFFFFFFFFFFFFFFFFFFFFFFFFFFFFFFFFFFFFFF AND EQ ISZERO PUSH3 0x1003 JUMPI PUSH1 0x40 MLOAD PUSH32 0x8C379A000000000000000000000000000000000000000000000000000000000 DUP2 MSTORE PUSH1 0x4 ADD PUSH3 0xFFA SWAP1 PUSH3 0x5204 JUMP JUMPDEST PUSH1 0x40 MLOAD DUP1 SWAP2 SUB SWAP1 REVERT JUMPDEST DUP1 PUSH1 0x11 PUSH1 0x0 PUSH2 0x100 EXP DUP2 SLOAD DUP2 PUSH20 0xFFFFFFFFFFFFFFFFFFFFFFFFFFFFFFFFFFFFFFFF MUL NOT AND SWAP1 DUP4 PUSH20 0xFFFFFFFFFFFFFFFFFFFFFFFFFFFFFFFFFFFFFFFF AND MUL OR SWAP1 SSTORE POP PUSH32 0x4C3F3B9852CCCEADD50F16518F348E2624C8F0240ACDD5BC81911C0FBA83EC67 DUP2 PUSH1 0x40 MLOAD PUSH3 0x1075 SWAP2 SWAP1 PUSH3 0x4ED5 JUMP JUMPDEST PUSH1 0x40 MLOAD DUP1 SWAP2 SUB SWAP1 LOG1 POP JUMP JUMPDEST PUSH3 0x108A PUSH3 0x365B JUMP JUMPDEST PUSH20 0xFFFFFFFFFFFFFFFFFFFFFFFFFFFFFFFFFFFFFFFF AND PUSH3 0x10AA PUSH3 0x1E21 JUMP JUMPDEST PUSH20 0xFFFFFFFFFFFFFFFFFFFFFFFFFFFFFFFFFFFFFFFF AND EQ PUSH3 0x1103 JUMPI PUSH1 0x40 MLOAD PUSH32 0x8C379A000000000000000000000000000000000000000000000000000000000 DUP2 MSTORE PUSH1 0x4 ADD PUSH3 0x10FA SWAP1 PUSH3 0x5226 JUMP JUMPDEST PUSH1 0x40 MLOAD DUP1 SWAP2 SUB SWAP1 REVERT JUMPDEST PUSH3 0x110D PUSH3 0x3663 JUMP JUMPDEST JUMP JUMPDEST PUSH1 0x0 PUSH3 0x1127 DUP3 PUSH1 0x3 PUSH3 0x370D SWAP1 SWAP2 SWAP1 PUSH4 0xFFFFFFFF AND JUMP JUMPDEST SWAP1 POP SWAP2 SWAP1 POP JUMP JUMPDEST PUSH1 0x0 PUSH3 0x113A PUSH3 0x17D1 JUMP JUMPDEST ISZERO PUSH3 0x117D JUMPI PUSH1 0x40 MLOAD PUSH32 0x8C379A000000000000000000000000000000000000000000000000000000000 DUP2 MSTORE PUSH1 0x4 ADD PUSH3 0x1174 SWAP1 PUSH3 0x517C JUMP JUMPDEST PUSH1 0x40 MLOAD DUP1 SWAP2 SUB SWAP1 REVERT JUMPDEST PUSH1 0x2 PUSH1 0x1 SLOAD EQ ISZERO PUSH3 0x11C6 JUMPI PUSH1 0x40 MLOAD PUSH32 0x8C379A000000000000000000000000000000000000000000000000000000000 DUP2 MSTORE PUSH1 0x4 ADD PUSH3 0x11BD SWAP1 PUSH3 0x53E0 JUMP JUMPDEST PUSH1 0x40 MLOAD DUP1 SWAP2 SUB SWAP1 REVERT JUMPDEST PUSH1 0x2 PUSH1 0x1 DUP2 SWAP1 SSTORE POP DUP2 DUP1 TIMESTAMP GT ISZERO PUSH3 0x1215 JUMPI PUSH1 0x40 MLOAD PUSH32 0x8C379A000000000000000000000000000000000000000000000000000000000 DUP2 MSTORE PUSH1 0x4 ADD PUSH3 0x120C SWAP1 PUSH3 0x539C JUMP JUMPDEST PUSH1 0x40 MLOAD DUP1 SWAP2 SUB SWAP1 REVERT JUMPDEST PUSH1 0x3 PUSH20 0x0 PUSH4 0x7A6CBA3C SWAP1 SWAP2 DUP8 DUP8 PUSH1 0x40 MLOAD DUP5 PUSH4 0xFFFFFFFF AND PUSH1 0xE0 SHL DUP2 MSTORE PUSH1 0x4 ADD PUSH3 0x1255 SWAP4 SWAP3 SWAP2 SWAP1 PUSH3 0x5511 JUMP JUMPDEST PUSH1 0x20 PUSH1 0x40 MLOAD DUP1 DUP4 SUB DUP2 DUP7 DUP1 EXTCODESIZE ISZERO DUP1 ISZERO PUSH3 0x126E JUMPI PUSH1 0x0 DUP1 REVERT JUMPDEST POP GAS DELEGATECALL ISZERO DUP1 ISZERO PUSH3 0x1283 JUMPI RETURNDATASIZE PUSH1 0x0 DUP1 RETURNDATACOPY RETURNDATASIZE PUSH1 0x0 REVERT JUMPDEST POP POP POP POP PUSH1 0x40 MLOAD RETURNDATASIZE PUSH1 0x1F NOT PUSH1 0x1F DUP3 ADD AND DUP3 ADD DUP1 PUSH1 0x40 MSTORE POP DUP2 ADD SWAP1 PUSH3 0x12A9 SWAP2 SWAP1 PUSH3 0x44B8 JUMP JUMPDEST SWAP2 POP POP PUSH1 0x1 DUP1 DUP2 SWAP1 SSTORE POP SWAP4 SWAP3 POP POP POP JUMP JUMPDEST PUSH3 0x12C4 PUSH3 0x365B JUMP JUMPDEST PUSH20 0xFFFFFFFFFFFFFFFFFFFFFFFFFFFFFFFFFFFFFFFF AND PUSH3 0x12E4 PUSH3 0x1E21 JUMP JUMPDEST PUSH20 0xFFFFFFFFFFFFFFFFFFFFFFFFFFFFFFFFFFFFFFFF AND EQ PUSH3 0x133D JUMPI PUSH1 0x40 MLOAD PUSH32 0x8C379A000000000000000000000000000000000000000000000000000000000 DUP2 MSTORE PUSH1 0x4 ADD PUSH3 0x1334 SWAP1 PUSH3 0x5226 JUMP JUMPDEST PUSH1 0x40 MLOAD DUP1 SWAP2 SUB SWAP1 REVERT JUMPDEST PUSH3 0x15180 PUSH1 0x3 PUSH1 0x8 ADD SLOAD PUSH3 0x1353 SWAP2 SWAP1 PUSH3 0x597C JUMP JUMPDEST TIMESTAMP LT ISZERO PUSH3 0x1398 JUMPI PUSH1 0x40 MLOAD PUSH32 0x8C379A000000000000000000000000000000000000000000000000000000000 DUP2 MSTORE PUSH1 0x4 ADD PUSH3 0x138F SWAP1 PUSH3 0x52D0 JUMP JUMPDEST PUSH1 0x40 MLOAD DUP1 SWAP2 SUB SWAP1 REVERT JUMPDEST PUSH3 0x15180 TIMESTAMP PUSH3 0x13A9 SWAP2 SWAP1 PUSH3 0x597C JUMP JUMPDEST DUP2 LT ISZERO PUSH3 0x13EE JUMPI PUSH1 0x40 MLOAD PUSH32 0x8C379A000000000000000000000000000000000000000000000000000000000 DUP2 MSTORE PUSH1 0x4 ADD PUSH3 0x13E5 SWAP1 PUSH3 0x5248 JUMP JUMPDEST PUSH1 0x40 MLOAD DUP1 SWAP2 SUB SWAP1 REVERT JUMPDEST DUP2 PUSH1 0x0 LT DUP1 ISZERO PUSH3 0x1401 JUMPI POP PUSH3 0xF4240 DUP3 LT JUMPDEST PUSH3 0x1443 JUMPI PUSH1 0x40 MLOAD PUSH32 0x8C379A000000000000000000000000000000000000000000000000000000000 DUP2 MSTORE PUSH1 0x4 ADD PUSH3 0x143A SWAP1 PUSH3 0x53BE JUMP JUMPDEST PUSH1 0x40 MLOAD DUP1 SWAP2 SUB SWAP1 REVERT JUMPDEST PUSH1 0x0 PUSH1 0x3 PUSH20 0x0 PUSH4 0xA3035585 SWAP1 SWAP2 PUSH1 0x40 MLOAD DUP3 PUSH4 0xFFFFFFFF AND PUSH1 0xE0 SHL DUP2 MSTORE PUSH1 0x4 ADD PUSH3 0x1481 SWAP2 SWAP1 PUSH3 0x5424 JUMP JUMPDEST PUSH1 0x20 PUSH1 0x40 MLOAD DUP1 DUP4 SUB DUP2 DUP7 DUP1 EXTCODESIZE ISZERO DUP1 ISZERO PUSH3 0x149A JUMPI PUSH1 0x0 DUP1 REVERT JUMPDEST POP GAS DELEGATECALL ISZERO DUP1 ISZERO PUSH3 0x14AF JUMPI RETURNDATASIZE PUSH1 0x0 DUP1 RETURNDATACOPY RETURNDATASIZE PUSH1 0x0 REVERT JUMPDEST POP POP POP POP PUSH1 0x40 MLOAD RETURNDATASIZE PUSH1 0x1F NOT PUSH1 0x1F DUP3 ADD AND DUP3 ADD DUP1 PUSH1 0x40 MSTORE POP DUP2 ADD SWAP1 PUSH3 0x14D5 SWAP2 SWAP1 PUSH3 0x44B8 JUMP JUMPDEST SWAP1 POP PUSH1 0x0 PUSH1 0x64 DUP5 PUSH3 0x14E8 SWAP2 SWAP1 PUSH3 0x5BA9 JUMP JUMPDEST SWAP1 POP DUP2 DUP2 LT ISZERO PUSH3 0x154D JUMPI DUP2 PUSH1 0xA DUP3 PUSH3 0x1503 SWAP2 SWAP1 PUSH3 0x5BA9 JUMP JUMPDEST LT ISZERO PUSH3 0x1547 JUMPI PUSH1 0x40 MLOAD PUSH32 0x8C379A000000000000000000000000000000000000000000000000000000000 DUP2 MSTORE PUSH1 0x4 ADD PUSH3 0x153E SWAP1 PUSH3 0x537A JUMP JUMPDEST PUSH1 0x40 MLOAD DUP1 SWAP2 SUB SWAP1 REVERT JUMPDEST PUSH3 0x15A2 JUMP JUMPDEST PUSH1 0xA DUP3 PUSH3 0x155C SWAP2 SWAP1 PUSH3 0x5BA9 JUMP JUMPDEST DUP2 GT ISZERO PUSH3 0x15A1 JUMPI PUSH1 0x40 MLOAD PUSH32 0x8C379A000000000000000000000000000000000000000000000000000000000 DUP2 MSTORE PUSH1 0x4 ADD PUSH3 0x1598 SWAP1 PUSH3 0x537A JUMP JUMPDEST PUSH1 0x40 MLOAD DUP1 SWAP2 SUB SWAP1 REVERT JUMPDEST JUMPDEST DUP2 PUSH1 0x3 PUSH1 0x6 ADD DUP2 SWAP1 SSTORE POP DUP1 PUSH1 0x3 PUSH1 0x7 ADD DUP2 SWAP1 SSTORE POP TIMESTAMP PUSH1 0x3 PUSH1 0x8 ADD DUP2 SWAP1 SSTORE POP DUP3 PUSH1 0x3 PUSH1 0x9 ADD DUP2 SWAP1 SSTORE POP PUSH32 0xA2B71EC6DF949300B59AAB36B55E189697B750119DD349FCFA8C0F779E83C254 DUP3 DUP3 TIMESTAMP DUP7 PUSH1 0x40 MLOAD PUSH3 0x1601 SWAP5 SWAP4 SWAP3 SWAP2 SWAP1 PUSH3 0x5771 JUMP JUMPDEST PUSH1 0x40 MLOAD DUP1 SWAP2 SUB SWAP1 LOG1 POP POP POP POP JUMP JUMPDEST PUSH3 0x1619 PUSH3 0x365B JUMP JUMPDEST PUSH20 0xFFFFFFFFFFFFFFFFFFFFFFFFFFFFFFFFFFFFFFFF AND PUSH3 0x1639 PUSH3 0x1E21 JUMP JUMPDEST PUSH20 0xFFFFFFFFFFFFFFFFFFFFFFFFFFFFFFFFFFFFFFFF AND EQ PUSH3 0x1692 JUMPI PUSH1 0x40 MLOAD PUSH32 0x8C379A000000000000000000000000000000000000000000000000000000000 DUP2 MSTORE PUSH1 0x4 ADD PUSH3 0x1689 SWAP1 PUSH3 0x5226 JUMP JUMPDEST PUSH1 0x40 MLOAD DUP1 SWAP2 SUB SWAP1 REVERT JUMPDEST PUSH4 0x5F5E100 DUP4 GT ISZERO PUSH3 0x16DC JUMPI PUSH1 0x40 MLOAD PUSH32 0x8C379A000000000000000000000000000000000000000000000000000000000 DUP2 MSTORE PUSH1 0x4 ADD PUSH3 0x16D3 SWAP1 PUSH3 0x5116 JUMP JUMPDEST PUSH1 0x40 MLOAD DUP1 SWAP2 SUB SWAP1 REVERT JUMPDEST PUSH5 0x2540BE400 DUP3 GT ISZERO PUSH3 0x1727 JUMPI PUSH1 0x40 MLOAD PUSH32 0x8C379A000000000000000000000000000000000000000000000000000000000 DUP2 MSTORE PUSH1 0x4 ADD PUSH3 0x171E SWAP1 PUSH3 0x519E JUMP JUMPDEST PUSH1 0x40 MLOAD DUP1 SWAP2 SUB SWAP1 REVERT JUMPDEST PUSH4 0x5F5E100 DUP2 GT ISZERO PUSH3 0x1771 JUMPI PUSH1 0x40 MLOAD PUSH32 0x8C379A000000000000000000000000000000000000000000000000000000000 DUP2 MSTORE PUSH1 0x4 ADD PUSH3 0x1768 SWAP1 PUSH3 0x526A JUMP JUMPDEST PUSH1 0x40 MLOAD DUP1 SWAP2 SUB SWAP1 REVERT JUMPDEST DUP2 PUSH1 0x3 PUSH1 0x5 ADD DUP2 SWAP1 SSTORE POP DUP3 PUSH1 0x3 PUSH1 0x4 ADD DUP2 SWAP1 SSTORE POP DUP1 PUSH1 0x3 PUSH1 0xA ADD DUP2 SWAP1 SSTORE POP PUSH32 0xCFCA96E0FEF3432146913B2A5A2268A55D3F475FE057E7FFDE1082B77693F4F3 DUP4 DUP4 DUP4 PUSH1 0x40 MLOAD PUSH3 0x17C4 SWAP4 SWAP3 SWAP2 SWAP1 PUSH3 0x5734 JUMP JUMPDEST PUSH1 0x40 MLOAD DUP1 SWAP2 SUB SWAP1 LOG1 POP POP POP JUMP JUMPDEST PUSH1 0x0 DUP1 PUSH1 0x14 SWAP1 SLOAD SWAP1 PUSH2 0x100 EXP SWAP1 DIV PUSH1 0xFF AND SWAP1 POP SWAP1 JUMP JUMPDEST PUSH1 0x3 DUP1 PUSH1 0x1 ADD PUSH1 0x0 SWAP1 SLOAD SWAP1 PUSH2 0x100 EXP SWAP1 DIV PUSH20 0xFFFFFFFFFFFFFFFFFFFFFFFFFFFFFFFFFFFFFFFF AND SWAP1 DUP1 PUSH1 0x4 ADD SLOAD SWAP1 DUP1 PUSH1 0x5 ADD SLOAD SWAP1 DUP1 PUSH1 0x6 ADD SLOAD SWAP1 DUP1 PUSH1 0x7 ADD SLOAD SWAP1 DUP1 PUSH1 0x8 ADD SLOAD SWAP1 DUP1 PUSH1 0x9 ADD SLOAD SWAP1 DUP1 PUSH1 0xA ADD SLOAD SWAP1 POP DUP9 JUMP JUMPDEST PUSH1 0x0 PUSH1 0x12 PUSH1 0x0 DUP4 PUSH20 0xFFFFFFFFFFFFFFFFFFFFFFFFFFFFFFFFFFFFFFFF AND PUSH20 0xFFFFFFFFFFFFFFFFFFFFFFFFFFFFFFFFFFFFFFFF AND DUP2 MSTORE PUSH1 0x20 ADD SWAP1 DUP2 MSTORE PUSH1 0x20 ADD PUSH1 0x0 KECCAK256 PUSH1 0x0 SWAP1 SLOAD SWAP1 PUSH2 0x100 EXP SWAP1 DIV PUSH1 0xFF AND SWAP1 POP DUP2 PUSH20 0xFFFFFFFFFFFFFFFFFFFFFFFFFFFFFFFFFFFFFFFF AND PUSH1 0x3 PUSH1 0x0 ADD DUP3 PUSH1 0xFF AND DUP2 SLOAD DUP2 LT PUSH3 0x18E6 JUMPI PUSH32 0x4E487B7100000000000000000000000000000000000000000000000000000000 PUSH1 0x0 MSTORE PUSH1 0x32 PUSH1 0x4 MSTORE PUSH1 0x24 PUSH1 0x0 REVERT JUMPDEST SWAP1 PUSH1 0x0 MSTORE PUSH1 0x20 PUSH1 0x0 KECCAK256 ADD PUSH1 0x0 SWAP1 SLOAD SWAP1 PUSH2 0x100 EXP SWAP1 DIV PUSH20 0xFFFFFFFFFFFFFFFFFFFFFFFFFFFFFFFFFFFFFFFF AND PUSH20 0xFFFFFFFFFFFFFFFFFFFFFFFFFFFFFFFFFFFFFFFF AND EQ PUSH3 0x196A JUMPI PUSH1 0x40 MLOAD PUSH32 0x8C379A000000000000000000000000000000000000000000000000000000000 DUP2 MSTORE PUSH1 0x4 ADD PUSH3 0x1961 SWAP1 PUSH3 0x528C JUMP JUMPDEST PUSH1 0x40 MLOAD DUP1 SWAP2 SUB SWAP1 REVERT JUMPDEST SWAP2 SWAP1 POP JUMP JUMPDEST PUSH1 0x11 PUSH1 0x0 SWAP1 SLOAD SWAP1 PUSH2 0x100 EXP SWAP1 DIV PUSH20 0xFFFFFFFFFFFFFFFFFFFFFFFFFFFFFFFFFFFFFFFF AND DUP2 JUMP JUMPDEST PUSH3 0x199F PUSH3 0x365B JUMP JUMPDEST PUSH20 0xFFFFFFFFFFFFFFFFFFFFFFFFFFFFFFFFFFFFFFFF AND PUSH3 0x19BF PUSH3 0x1E21 JUMP JUMPDEST PUSH20 0xFFFFFFFFFFFFFFFFFFFFFFFFFFFFFFFFFFFFFFFF AND EQ PUSH3 0x1A18 JUMPI PUSH1 0x40 MLOAD PUSH32 0x8C379A000000000000000000000000000000000000000000000000000000000 DUP2 MSTORE PUSH1 0x4 ADD PUSH3 0x1A0F SWAP1 PUSH3 0x5226 JUMP JUMPDEST PUSH1 0x40 MLOAD DUP1 SWAP2 SUB SWAP1 REVERT JUMPDEST PUSH3 0x1A24 PUSH1 0x0 PUSH3 0x3817 JUMP JUMPDEST JUMP JUMPDEST PUSH1 0x60 PUSH1 0x3 PUSH20 0x0 PUSH4 0xFA563597 SWAP1 SWAP2 DUP6 DUP6 PUSH1 0x40 MLOAD DUP5 PUSH4 0xFFFFFFFF AND PUSH1 0xE0 SHL DUP2 MSTORE PUSH1 0x4 ADD PUSH3 0x1A68 SWAP4 SWAP3 SWAP2 SWAP1 PUSH3 0x5441 JUMP JUMPDEST PUSH1 0x0 PUSH1 0x40 MLOAD DUP1 DUP4 SUB DUP2 DUP7 DUP1 EXTCODESIZE ISZERO DUP1 ISZERO PUSH3 0x1A81 JUMPI PUSH1 0x0 DUP1 REVERT JUMPDEST POP GAS DELEGATECALL ISZERO DUP1 ISZERO PUSH3 0x1A96 JUMPI RETURNDATASIZE PUSH1 0x0 DUP1 RETURNDATACOPY RETURNDATASIZE PUSH1 0x0 REVERT JUMPDEST POP POP POP POP PUSH1 0x40 MLOAD RETURNDATASIZE PUSH1 0x0 DUP3 RETURNDATACOPY RETURNDATASIZE PUSH1 0x1F NOT PUSH1 0x1F DUP3 ADD AND DUP3 ADD DUP1 PUSH1 0x40 MSTORE POP DUP2 ADD SWAP1 PUSH3 0x1AC1 SWAP2 SWAP1 PUSH3 0x43D8 JUMP JUMPDEST SWAP1 POP SWAP3 SWAP2 POP POP JUMP JUMPDEST PUSH1 0x0 PUSH1 0x3 PUSH1 0x1 ADD PUSH1 0x0 SWAP1 SLOAD SWAP1 PUSH2 0x100 EXP SWAP1 DIV PUSH20 0xFFFFFFFFFFFFFFFFFFFFFFFFFFFFFFFFFFFFFFFF AND SWAP1 POP SWAP1 JUMP JUMPDEST PUSH1 0x0 PUSH1 0x3 PUSH1 0x0 ADD DUP3 PUSH1 0xFF AND DUP2 SLOAD DUP2 LT PUSH3 0x1B39 JUMPI PUSH32 0x4E487B7100000000000000000000000000000000000000000000000000000000 PUSH1 0x0 MSTORE PUSH1 0x32 PUSH1 0x4 MSTORE PUSH1 0x24 PUSH1 0x0 REVERT JUMPDEST SWAP1 PUSH1 0x0 MSTORE PUSH1 0x20 PUSH1 0x0 KECCAK256 ADD PUSH1 0x0 SWAP1 SLOAD SWAP1 PUSH2 0x100 EXP SWAP1 DIV PUSH20 0xFFFFFFFFFFFFFFFFFFFFFFFFFFFFFFFFFFFFFFFF AND SWAP1 POP SWAP2 SWAP1 POP JUMP JUMPDEST PUSH3 0x1B75 PUSH3 0x365B JUMP JUMPDEST PUSH20 0xFFFFFFFFFFFFFFFFFFFFFFFFFFFFFFFFFFFFFFFF AND PUSH3 0x1B95 PUSH3 0x1E21 JUMP JUMPDEST PUSH20 0xFFFFFFFFFFFFFFFFFFFFFFFFFFFFFFFFFFFFFFFF AND EQ PUSH3 0x1BEE JUMPI PUSH1 0x40 MLOAD PUSH32 0x8C379A000000000000000000000000000000000000000000000000000000000 DUP2 MSTORE PUSH1 0x4 ADD PUSH3 0x1BE5 SWAP1 PUSH3 0x5226 JUMP JUMPDEST PUSH1 0x40 MLOAD DUP1 SWAP2 SUB SWAP1 REVERT JUMPDEST PUSH3 0x1BF8 PUSH3 0x38DB JUMP JUMPDEST JUMP JUMPDEST PUSH1 0x0 PUSH1 0x2 PUSH1 0x1 SLOAD EQ ISZERO PUSH3 0x1C45 JUMPI PUSH1 0x40 MLOAD PUSH32 0x8C379A000000000000000000000000000000000000000000000000000000000 DUP2 MSTORE PUSH1 0x4 ADD PUSH3 0x1C3C SWAP1 PUSH3 0x53E0 JUMP JUMPDEST PUSH1 0x40 MLOAD DUP1 SWAP2 SUB SWAP1 REVERT JUMPDEST PUSH1 0x2 PUSH1 0x1 DUP2 SWAP1 SSTORE POP PUSH3 0x1C57 PUSH3 0x17D1 JUMP JUMPDEST ISZERO PUSH3 0x1C9A JUMPI PUSH1 0x40 MLOAD PUSH32 0x8C379A000000000000000000000000000000000000000000000000000000000 DUP2 MSTORE PUSH1 0x4 ADD PUSH3 0x1C91 SWAP1 PUSH3 0x517C JUMP JUMPDEST PUSH1 0x40 MLOAD DUP1 SWAP2 SUB SWAP1 REVERT JUMPDEST DUP2 DUP1 TIMESTAMP GT ISZERO PUSH3 0x1CE1 JUMPI PUSH1 0x40 MLOAD PUSH32 0x8C379A000000000000000000000000000000000000000000000000000000000 DUP2 MSTORE PUSH1 0x4 ADD PUSH3 0x1CD8 SWAP1 PUSH3 0x539C JUMP JUMPDEST PUSH1 0x40 MLOAD DUP1 SWAP2 SUB SWAP1 REVERT JUMPDEST PUSH1 0x3 PUSH20 0x0 PUSH4 0xC8344C06 SWAP1 SWAP2 DUP8 DUP8 PUSH1 0x40 MLOAD DUP5 PUSH4 0xFFFFFFFF AND PUSH1 0xE0 SHL DUP2 MSTORE PUSH1 0x4 ADD PUSH3 0x1D21 SWAP4 SWAP3 SWAP2 SWAP1 PUSH3 0x5511 JUMP JUMPDEST PUSH1 0x20 PUSH1 0x40 MLOAD DUP1 DUP4 SUB DUP2 DUP7 DUP1 EXTCODESIZE ISZERO DUP1 ISZERO PUSH3 0x1D3A JUMPI PUSH1 0x0 DUP1 REVERT JUMPDEST POP GAS DELEGATECALL ISZERO DUP1 ISZERO PUSH3 0x1D4F JUMPI RETURNDATASIZE PUSH1 0x0 DUP1 RETURNDATACOPY RETURNDATASIZE PUSH1 0x0 REVERT JUMPDEST POP POP POP POP PUSH1 0x40 MLOAD RETURNDATASIZE PUSH1 0x1F NOT PUSH1 0x1F DUP3 ADD AND DUP3 ADD DUP1 PUSH1 0x40 MSTORE POP DUP2 ADD SWAP1 PUSH3 0x1D75 SWAP2 SWAP1 PUSH3 0x44B8 JUMP JUMPDEST SWAP2 POP POP PUSH1 0x1 DUP1 DUP2 SWAP1 SSTORE POP SWAP4 SWAP3 POP POP POP JUMP JUMPDEST PUSH1 0x0 PUSH1 0x3 PUSH20 0x0 PUSH4 0xE2EBA89B SWAP1 SWAP2 DUP5 PUSH1 0x40 MLOAD DUP4 PUSH4 0xFFFFFFFF AND PUSH1 0xE0 SHL DUP2 MSTORE PUSH1 0x4 ADD PUSH3 0x1DC6 SWAP3 SWAP2 SWAP1 PUSH3 0x5613 JUMP JUMPDEST PUSH1 0x20 PUSH1 0x40 MLOAD DUP1 DUP4 SUB DUP2 DUP7 DUP1 EXTCODESIZE ISZERO DUP1 ISZERO PUSH3 0x1DDF JUMPI PUSH1 0x0 DUP1 REVERT JUMPDEST POP GAS DELEGATECALL ISZERO DUP1 ISZERO PUSH3 0x1DF4 JUMPI RETURNDATASIZE PUSH1 0x0 DUP1 RETURNDATACOPY RETURNDATASIZE PUSH1 0x0 REVERT JUMPDEST POP POP POP POP PUSH1 0x40 MLOAD RETURNDATASIZE PUSH1 0x1F NOT PUSH1 0x1F DUP3 ADD AND DUP3 ADD DUP1 PUSH1 0x40 MSTORE POP DUP2 ADD SWAP1 PUSH3 0x1E1A SWAP2 SWAP1 PUSH3 0x44B8 JUMP JUMPDEST SWAP1 POP SWAP2 SWAP1 POP JUMP JUMPDEST PUSH1 0x0 DUP1 PUSH1 0x0 SWAP1 SLOAD SWAP1 PUSH2 0x100 EXP SWAP1 DIV PUSH20 0xFFFFFFFFFFFFFFFFFFFFFFFFFFFFFFFFFFFFFFFF AND SWAP1 POP SWAP1 JUMP JUMPDEST PUSH1 0x0 PUSH3 0x1E56 PUSH3 0x17D1 JUMP JUMPDEST ISZERO PUSH3 0x1E99 JUMPI PUSH1 0x40 MLOAD PUSH32 0x8C379A000000000000000000000000000000000000000000000000000000000 DUP2 MSTORE PUSH1 0x4 ADD PUSH3 0x1E90 SWAP1 PUSH3 0x517C JUMP JUMPDEST PUSH1 0x40 MLOAD DUP1 SWAP2 SUB SWAP1 REVERT JUMPDEST PUSH1 0x2 PUSH1 0x1 SLOAD EQ ISZERO PUSH3 0x1EE2 JUMPI PUSH1 0x40 MLOAD PUSH32 0x8C379A000000000000000000000000000000000000000000000000000000000 DUP2 MSTORE PUSH1 0x4 ADD PUSH3 0x1ED9 SWAP1 PUSH3 0x53E0 JUMP JUMPDEST PUSH1 0x40 MLOAD DUP1 SWAP2 SUB SWAP1 REVERT JUMPDEST PUSH1 0x2 PUSH1 0x1 DUP2 SWAP1 SSTORE POP DUP2 DUP1 TIMESTAMP GT ISZERO PUSH3 0x1F31 JUMPI PUSH1 0x40 MLOAD PUSH32 0x8C379A000000000000000000000000000000000000000000000000000000000 DUP2 MSTORE PUSH1 0x4 ADD PUSH3 0x1F28 SWAP1 PUSH3 0x539C JUMP JUMPDEST PUSH1 0x40 MLOAD DUP1 SWAP2 SUB SWAP1 REVERT JUMPDEST PUSH1 0x3 PUSH20 0x0 PUSH4 0x6E9B505D SWAP1 SWAP2 DUP10 DUP10 DUP10 DUP10 PUSH1 0x40 MLOAD DUP7 PUSH4 0xFFFFFFFF AND PUSH1 0xE0 SHL DUP2 MSTORE PUSH1 0x4 ADD PUSH3 0x1F75 SWAP6 SWAP5 SWAP4 SWAP3 SWAP2 SWAP1 PUSH3 0x568D JUMP JUMPDEST PUSH1 0x20 PUSH1 0x40 MLOAD DUP1 DUP4 SUB DUP2 DUP7 DUP1 EXTCODESIZE ISZERO DUP1 ISZERO PUSH3 0x1F8E JUMPI PUSH1 0x0 DUP1 REVERT JUMPDEST POP GAS DELEGATECALL ISZERO DUP1 ISZERO PUSH3 0x1FA3 JUMPI RETURNDATASIZE PUSH1 0x0 DUP1 RETURNDATACOPY RETURNDATASIZE PUSH1 0x0 REVERT JUMPDEST POP POP POP POP PUSH1 0x40 MLOAD RETURNDATASIZE PUSH1 0x1F NOT PUSH1 0x1F DUP3 ADD AND DUP3 ADD DUP1 PUSH1 0x40 MSTORE POP DUP2 ADD SWAP1 PUSH3 0x1FC9 SWAP2 SWAP1 PUSH3 0x44B8 JUMP JUMPDEST SWAP2 POP POP PUSH1 0x1 DUP1 DUP2 SWAP1 SSTORE POP SWAP6 SWAP5 POP POP POP POP POP JUMP JUMPDEST PUSH1 0x0 PUSH1 0x3 DUP1 ADD DUP3 PUSH1 0xFF AND DUP2 SLOAD DUP2 LT PUSH3 0x201E JUMPI PUSH32 0x4E487B7100000000000000000000000000000000000000000000000000000000 PUSH1 0x0 MSTORE PUSH1 0x32 PUSH1 0x4 MSTORE PUSH1 0x24 PUSH1 0x0 REVERT JUMPDEST SWAP1 PUSH1 0x0 MSTORE PUSH1 0x20 PUSH1 0x0 KECCAK256 ADD SLOAD SWAP1 POP SWAP2 SWAP1 POP JUMP JUMPDEST PUSH1 0x0 PUSH1 0x3 PUSH20 0x0 PUSH4 0x159763BB SWAP1 SWAP2 DUP7 DUP7 DUP7 PUSH1 0x40 MLOAD DUP6 PUSH4 0xFFFFFFFF AND PUSH1 0xE0 SHL DUP2 MSTORE PUSH1 0x4 ADD PUSH3 0x2074 SWAP5 SWAP4 SWAP3 SWAP2 SWAP1 PUSH3 0x547E JUMP JUMPDEST PUSH1 0x20 PUSH1 0x40 MLOAD DUP1 DUP4 SUB DUP2 DUP7 DUP1 EXTCODESIZE ISZERO DUP1 ISZERO PUSH3 0x208D JUMPI PUSH1 0x0 DUP1 REVERT JUMPDEST POP GAS DELEGATECALL ISZERO DUP1 ISZERO PUSH3 0x20A2 JUMPI RETURNDATASIZE PUSH1 0x0 DUP1 RETURNDATACOPY RETURNDATASIZE PUSH1 0x0 REVERT JUMPDEST POP POP POP POP PUSH1 0x40 MLOAD RETURNDATASIZE PUSH1 0x1F NOT PUSH1 0x1F DUP3 ADD AND DUP3 ADD DUP1 PUSH1 0x40 MSTORE POP DUP2 ADD SWAP1 PUSH3 0x20C8 SWAP2 SWAP1 PUSH3 0x44B8 JUMP JUMPDEST SWAP1 POP SWAP4 SWAP3 POP POP POP JUMP JUMPDEST PUSH1 0x60 PUSH1 0x3 DUP1 ADD DUP1 SLOAD DUP1 PUSH1 0x20 MUL PUSH1 0x20 ADD PUSH1 0x40 MLOAD SWAP1 DUP2 ADD PUSH1 0x40 MSTORE DUP1 SWAP3 SWAP2 SWAP1 DUP2 DUP2 MSTORE PUSH1 0x20 ADD DUP3 DUP1 SLOAD DUP1 ISZERO PUSH3 0x2123 JUMPI PUSH1 0x20 MUL DUP3 ADD SWAP2 SWAP1 PUSH1 0x0 MSTORE PUSH1 0x20 PUSH1 0x0 KECCAK256 SWAP1 JUMPDEST DUP2 SLOAD DUP2 MSTORE PUSH1 0x20 ADD SWAP1 PUSH1 0x1 ADD SWAP1 DUP1 DUP4 GT PUSH3 0x210E JUMPI JUMPDEST POP POP POP POP POP SWAP1 POP SWAP1 JUMP JUMPDEST PUSH1 0x0 PUSH1 0x3 PUSH20 0x0 PUSH4 0xBA2998D9 SWAP1 SWAP2 DUP7 DUP7 DUP7 PUSH1 0x40 MLOAD DUP6 PUSH4 0xFFFFFFFF AND PUSH1 0xE0 SHL DUP2 MSTORE PUSH1 0x4 ADD PUSH3 0x2171 SWAP5 SWAP4 SWAP3 SWAP2 SWAP1 PUSH3 0x5640 JUMP JUMPDEST PUSH1 0x20 PUSH1 0x40 MLOAD DUP1 DUP4 SUB DUP2 DUP7 DUP1 EXTCODESIZE ISZERO DUP1 ISZERO PUSH3 0x218A JUMPI PUSH1 0x0 DUP1 REVERT JUMPDEST POP GAS DELEGATECALL ISZERO DUP1 ISZERO PUSH3 0x219F JUMPI RETURNDATASIZE PUSH1 0x0 DUP1 RETURNDATACOPY RETURNDATASIZE PUSH1 0x0 REVERT JUMPDEST POP POP POP POP PUSH1 0x40 MLOAD RETURNDATASIZE PUSH1 0x1F NOT PUSH1 0x1F DUP3 ADD AND DUP3 ADD DUP1 PUSH1 0x40 MSTORE POP DUP2 ADD SWAP1 PUSH3 0x21C5 SWAP2 SWAP1 PUSH3 0x44B8 JUMP JUMPDEST SWAP1 POP SWAP4 SWAP3 POP POP POP JUMP JUMPDEST PUSH1 0x60 PUSH1 0x3 PUSH1 0x0 ADD DUP1 SLOAD DUP1 PUSH1 0x20 MUL PUSH1 0x20 ADD PUSH1 0x40 MLOAD SWAP1 DUP2 ADD PUSH1 0x40 MSTORE DUP1 SWAP3 SWAP2 SWAP1 DUP2 DUP2 MSTORE PUSH1 0x20 ADD DUP3 DUP1 SLOAD DUP1 ISZERO PUSH3 0x2257 JUMPI PUSH1 0x20 MUL DUP3 ADD SWAP2 SWAP1 PUSH1 0x0 MSTORE PUSH1 0x20 PUSH1 0x0 KECCAK256 SWAP1 JUMPDEST DUP2 PUSH1 0x0 SWAP1 SLOAD SWAP1 PUSH2 0x100 EXP SWAP1 DIV PUSH20 0xFFFFFFFFFFFFFFFFFFFFFFFFFFFFFFFFFFFFFFFF AND PUSH20 0xFFFFFFFFFFFFFFFFFFFFFFFFFFFFFFFFFFFFFFFF AND DUP2 MSTORE PUSH1 0x20 ADD SWAP1 PUSH1 0x1 ADD SWAP1 DUP1 DUP4 GT PUSH3 0x220C JUMPI JUMPDEST POP POP POP POP POP SWAP1 POP SWAP1 JUMP JUMPDEST PUSH4 0x5F5E100 DUP2 JUMP JUMPDEST PUSH1 0xA DUP2 JUMP JUMPDEST PUSH1 0x3 PUSH1 0x1 ADD PUSH1 0x0 SWAP1 SLOAD SWAP1 PUSH2 0x100 EXP SWAP1 DIV PUSH20 0xFFFFFFFFFFFFFFFFFFFFFFFFFFFFFFFFFFFFFFFF AND PUSH20 0xFFFFFFFFFFFFFFFFFFFFFFFFFFFFFFFFFFFFFFFF AND CALLER PUSH20 0xFFFFFFFFFFFFFFFFFFFFFFFFFFFFFFFFFFFFFFFF AND EQ PUSH3 0x2304 JUMPI PUSH1 0x40 MLOAD PUSH32 0x8C379A000000000000000000000000000000000000000000000000000000000 DUP2 MSTORE PUSH1 0x4 ADD PUSH3 0x22FB SWAP1 PUSH3 0x515A JUMP JUMPDEST PUSH1 0x40 MLOAD DUP1 SWAP2 SUB SWAP1 REVERT JUMPDEST PUSH1 0x3 PUSH20 0x0 PUSH4 0xC188E4BE SWAP1 SWAP2 DUP5 DUP5 PUSH1 0x40 MLOAD DUP5 PUSH4 0xFFFFFFFF AND PUSH1 0xE0 SHL DUP2 MSTORE PUSH1 0x4 ADD PUSH3 0x2344 SWAP4 SWAP3 SWAP2 SWAP1 PUSH3 0x5441 JUMP JUMPDEST PUSH1 0x0 PUSH1 0x40 MLOAD DUP1 DUP4 SUB DUP2 DUP7 DUP1 EXTCODESIZE ISZERO DUP1 ISZERO PUSH3 0x235D JUMPI PUSH1 0x0 DUP1 REVERT JUMPDEST POP GAS DELEGATECALL ISZERO DUP1 ISZERO PUSH3 0x2372 JUMPI RETURNDATASIZE PUSH1 0x0 DUP1 RETURNDATACOPY RETURNDATASIZE PUSH1 0x0 REVERT JUMPDEST POP POP POP POP POP POP JUMP JUMPDEST PUSH3 0x2384 PUSH3 0x365B JUMP JUMPDEST PUSH20 0xFFFFFFFFFFFFFFFFFFFFFFFFFFFFFFFFFFFFFFFF AND PUSH3 0x23A4 PUSH3 0x1E21 JUMP JUMPDEST PUSH20 0xFFFFFFFFFFFFFFFFFFFFFFFFFFFFFFFFFFFFFFFF AND EQ PUSH3 0x23FD JUMPI PUSH1 0x40 MLOAD PUSH32 0x8C379A000000000000000000000000000000000000000000000000000000000 DUP2 MSTORE PUSH1 0x4 ADD PUSH3 0x23F4 SWAP1 PUSH3 0x5226 JUMP JUMPDEST PUSH1 0x40 MLOAD DUP1 SWAP2 SUB SWAP1 REVERT JUMPDEST TIMESTAMP PUSH1 0x3 PUSH1 0x9 ADD SLOAD GT PUSH3 0x2447 JUMPI PUSH1 0x40 MLOAD PUSH32 0x8C379A000000000000000000000000000000000000000000000000000000000 DUP2 MSTORE PUSH1 0x4 ADD PUSH3 0x243E SWAP1 PUSH3 0x5402 JUMP JUMPDEST PUSH1 0x40 MLOAD DUP1 SWAP2 SUB SWAP1 REVERT JUMPDEST PUSH1 0x0 PUSH1 0x3 PUSH20 0x0 PUSH4 0xA3035585 SWAP1 SWAP2 PUSH1 0x40 MLOAD DUP3 PUSH4 0xFFFFFFFF AND PUSH1 0xE0 SHL DUP2 MSTORE PUSH1 0x4 ADD PUSH3 0x2485 SWAP2 SWAP1 PUSH3 0x5424 JUMP JUMPDEST PUSH1 0x20 PUSH1 0x40 MLOAD DUP1 DUP4 SUB DUP2 DUP7 DUP1 EXTCODESIZE ISZERO DUP1 ISZERO PUSH3 0x249E JUMPI PUSH1 0x0 DUP1 REVERT JUMPDEST POP GAS DELEGATECALL ISZERO DUP1 ISZERO PUSH3 0x24B3 JUMPI RETURNDATASIZE PUSH1 0x0 DUP1 RETURNDATACOPY RETURNDATASIZE PUSH1 0x0 REVERT JUMPDEST POP POP POP POP PUSH1 0x40 MLOAD RETURNDATASIZE PUSH1 0x1F NOT PUSH1 0x1F DUP3 ADD AND DUP3 ADD DUP1 PUSH1 0x40 MSTORE POP DUP2 ADD SWAP1 PUSH3 0x24D9 SWAP2 SWAP1 PUSH3 0x44B8 JUMP JUMPDEST SWAP1 POP DUP1 PUSH1 0x3 PUSH1 0x6 ADD DUP2 SWAP1 SSTORE POP DUP1 PUSH1 0x3 PUSH1 0x7 ADD DUP2 SWAP1 SSTORE POP TIMESTAMP PUSH1 0x3 PUSH1 0x8 ADD DUP2 SWAP1 SSTORE POP TIMESTAMP PUSH1 0x3 PUSH1 0x9 ADD DUP2 SWAP1 SSTORE POP PUSH32 0x46E22FB3709AD289F62CE63D469248536DBC78D82B84A3D7E74AD606DC201938 DUP2 TIMESTAMP PUSH1 0x40 MLOAD PUSH3 0x2536 SWAP3 SWAP2 SWAP1 PUSH3 0x5707 JUMP JUMPDEST PUSH1 0x40 MLOAD DUP1 SWAP2 SUB SWAP1 LOG1 POP JUMP JUMPDEST PUSH3 0x254B PUSH3 0x365B JUMP JUMPDEST PUSH20 0xFFFFFFFFFFFFFFFFFFFFFFFFFFFFFFFFFFFFFFFF AND PUSH3 0x256B PUSH3 0x1E21 JUMP JUMPDEST PUSH20 0xFFFFFFFFFFFFFFFFFFFFFFFFFFFFFFFFFFFFFFFF AND EQ PUSH3 0x25C4 JUMPI PUSH1 0x40 MLOAD PUSH32 0x8C379A000000000000000000000000000000000000000000000000000000000 DUP2 MSTORE PUSH1 0x4 ADD PUSH3 0x25BB SWAP1 PUSH3 0x5226 JUMP JUMPDEST PUSH1 0x40 MLOAD DUP1 SWAP2 SUB SWAP1 REVERT JUMPDEST PUSH1 0x0 PUSH20 0xFFFFFFFFFFFFFFFFFFFFFFFFFFFFFFFFFFFFFFFF AND DUP2 PUSH20 0xFFFFFFFFFFFFFFFFFFFFFFFFFFFFFFFFFFFFFFFF AND EQ ISZERO PUSH3 0x2637 JUMPI PUSH1 0x40 MLOAD PUSH32 0x8C379A000000000000000000000000000000000000000000000000000000000 DUP2 MSTORE PUSH1 0x4 ADD PUSH3 0x262E SWAP1 PUSH3 0x5204 JUMP JUMPDEST PUSH1 0x40 MLOAD DUP1 SWAP2 SUB SWAP1 REVERT JUMPDEST DUP1 PUSH1 0x10 PUSH1 0x0 PUSH2 0x100 EXP DUP2 SLOAD DUP2 PUSH20 0xFFFFFFFFFFFFFFFFFFFFFFFFFFFFFFFFFFFFFFFF MUL NOT AND SWAP1 DUP4 PUSH20 0xFFFFFFFFFFFFFFFFFFFFFFFFFFFFFFFFFFFFFFFF AND MUL OR SWAP1 SSTORE POP PUSH32 0xAE5A12C29E496B092467A620746B9EAF4E0E231A631A4370C233B1FAC38E8E26 DUP2 PUSH1 0x40 MLOAD PUSH3 0x26A9 SWAP2 SWAP1 PUSH3 0x4ED5 JUMP JUMPDEST PUSH1 0x40 MLOAD DUP1 SWAP2 SUB SWAP1 LOG1 POP JUMP JUMPDEST PUSH1 0x60 PUSH1 0x3 PUSH1 0x2 ADD DUP1 SLOAD DUP1 PUSH1 0x20 MUL PUSH1 0x20 ADD PUSH1 0x40 MLOAD SWAP1 DUP2 ADD PUSH1 0x40 MSTORE DUP1 SWAP3 SWAP2 SWAP1 DUP2 DUP2 MSTORE PUSH1 0x20 ADD DUP3 DUP1 SLOAD DUP1 ISZERO PUSH3 0x2707 JUMPI PUSH1 0x20 MUL DUP3 ADD SWAP2 SWAP1 PUSH1 0x0 MSTORE PUSH1 0x20 PUSH1 0x0 KECCAK256 SWAP1 JUMPDEST DUP2 SLOAD DUP2 MSTORE PUSH1 0x20 ADD SWAP1 PUSH1 0x1 ADD SWAP1 DUP1 DUP4 GT PUSH3 0x26F2 JUMPI JUMPDEST POP POP POP POP POP SWAP1 POP SWAP1 JUMP JUMPDEST PUSH1 0x0 PUSH1 0x3 PUSH20 0x0 PUSH4 0xB52E146F SWAP1 SWAP2 PUSH1 0x40 MLOAD DUP3 PUSH4 0xFFFFFFFF AND PUSH1 0xE0 SHL DUP2 MSTORE PUSH1 0x4 ADD PUSH3 0x274F SWAP2 SWAP1 PUSH3 0x5424 JUMP JUMPDEST PUSH1 0x20 PUSH1 0x40 MLOAD DUP1 DUP4 SUB DUP2 DUP7 DUP1 EXTCODESIZE ISZERO DUP1 ISZERO PUSH3 0x2768 JUMPI PUSH1 0x0 DUP1 REVERT JUMPDEST POP GAS DELEGATECALL ISZERO DUP1 ISZERO PUSH3 0x277D JUMPI RETURNDATASIZE PUSH1 0x0 DUP1 RETURNDATACOPY RETURNDATASIZE PUSH1 0x0 REVERT JUMPDEST POP POP POP POP PUSH1 0x40 MLOAD RETURNDATASIZE PUSH1 0x1F NOT PUSH1 0x1F DUP3 ADD AND DUP3 ADD DUP1 PUSH1 0x40 MSTORE POP DUP2 ADD SWAP1 PUSH3 0x27A3 SWAP2 SWAP1 PUSH3 0x44B8 JUMP JUMPDEST SWAP1 POP SWAP1 JUMP JUMPDEST PUSH4 0x5F5E100 DUP2 JUMP JUMPDEST PUSH3 0x27BA PUSH3 0x365B JUMP JUMPDEST PUSH20 0xFFFFFFFFFFFFFFFFFFFFFFFFFFFFFFFFFFFFFFFF AND PUSH3 0x27DA PUSH3 0x1E21 JUMP JUMPDEST PUSH20 0xFFFFFFFFFFFFFFFFFFFFFFFFFFFFFFFFFFFFFFFF AND EQ PUSH3 0x2833 JUMPI PUSH1 0x40 MLOAD PUSH32 0x8C379A000000000000000000000000000000000000000000000000000000000 DUP2 MSTORE PUSH1 0x4 ADD PUSH3 0x282A SWAP1 PUSH3 0x5226 JUMP JUMPDEST PUSH1 0x40 MLOAD DUP1 SWAP2 SUB SWAP1 REVERT JUMPDEST PUSH1 0x2 PUSH1 0x1 SWAP1 SLOAD SWAP1 PUSH2 0x100 EXP SWAP1 DIV PUSH1 0xFF AND DUP1 PUSH3 0x285C JUMPI POP PUSH1 0x2 PUSH1 0x0 SWAP1 SLOAD SWAP1 PUSH2 0x100 EXP SWAP1 DIV PUSH1 0xFF AND ISZERO JUMPDEST PUSH3 0x289E JUMPI PUSH1 0x40 MLOAD PUSH32 0x8C379A000000000000000000000000000000000000000000000000000000000 DUP2 MSTORE PUSH1 0x4 ADD PUSH3 0x2895 SWAP1 PUSH3 0x51C0 JUMP JUMPDEST PUSH1 0x40 MLOAD DUP1 SWAP2 SUB SWAP1 REVERT JUMPDEST PUSH1 0x0 PUSH1 0x2 PUSH1 0x1 SWAP1 SLOAD SWAP1 PUSH2 0x100 EXP SWAP1 DIV PUSH1 0xFF AND ISZERO SWAP1 POP DUP1 ISZERO PUSH3 0x28F1 JUMPI PUSH1 0x1 PUSH1 0x2 PUSH1 0x1 PUSH2 0x100 EXP DUP2 SLOAD DUP2 PUSH1 0xFF MUL NOT AND SWAP1 DUP4 ISZERO ISZERO MUL OR SWAP1 SSTORE POP PUSH1 0x1 PUSH1 0x2 PUSH1 0x0 PUSH2 0x100 EXP DUP2 SLOAD DUP2 PUSH1 0xFF MUL NOT AND SWAP1 DUP4 ISZERO ISZERO MUL OR SWAP1 SSTORE POP JUMPDEST DUP9 MLOAD DUP11 MLOAD EQ PUSH3 0x2938 JUMPI PUSH1 0x40 MLOAD PUSH32 0x8C379A000000000000000000000000000000000000000000000000000000000 DUP2 MSTORE PUSH1 0x4 ADD PUSH3 0x292F SWAP1 PUSH3 0x52F2 JUMP JUMPDEST PUSH1 0x40 MLOAD DUP1 SWAP2 SUB SWAP1 REVERT JUMPDEST PUSH1 0x0 PUSH20 0xFFFFFFFFFFFFFFFFFFFFFFFFFFFFFFFFFFFFFFFF AND DUP3 PUSH20 0xFFFFFFFFFFFFFFFFFFFFFFFFFFFFFFFFFFFFFFFF AND EQ ISZERO PUSH3 0x29AB JUMPI PUSH1 0x40 MLOAD PUSH32 0x8C379A000000000000000000000000000000000000000000000000000000000 DUP2 MSTORE PUSH1 0x4 ADD PUSH3 0x29A2 SWAP1 PUSH3 0x52AE JUMP JUMPDEST PUSH1 0x40 MLOAD DUP1 SWAP2 SUB SWAP1 REVERT JUMPDEST PUSH1 0x0 DUP11 MLOAD SWAP1 POP PUSH1 0x0 DUP2 PUSH8 0xFFFFFFFFFFFFFFFF DUP2 GT ISZERO PUSH3 0x29F4 JUMPI PUSH32 0x4E487B7100000000000000000000000000000000000000000000000000000000 PUSH1 0x0 MSTORE PUSH1 0x41 PUSH1 0x4 MSTORE PUSH1 0x24 PUSH1 0x0 REVERT JUMPDEST PUSH1 0x40 MLOAD SWAP1 DUP1 DUP3 MSTORE DUP1 PUSH1 0x20 MUL PUSH1 0x20 ADD DUP3 ADD PUSH1 0x40 MSTORE DUP1 ISZERO PUSH3 0x2A23 JUMPI DUP2 PUSH1 0x20 ADD PUSH1 0x20 DUP3 MUL DUP1 CALLDATASIZE DUP4 CALLDATACOPY DUP1 DUP3 ADD SWAP2 POP POP SWAP1 POP JUMPDEST POP SWAP1 POP PUSH1 0x0 DUP3 PUSH8 0xFFFFFFFFFFFFFFFF DUP2 GT ISZERO PUSH3 0x2A69 JUMPI PUSH32 0x4E487B7100000000000000000000000000000000000000000000000000000000 PUSH1 0x0 MSTORE PUSH1 0x41 PUSH1 0x4 MSTORE PUSH1 0x24 PUSH1 0x0 REVERT JUMPDEST PUSH1 0x40 MLOAD SWAP1 DUP1 DUP3 MSTORE DUP1 PUSH1 0x20 MUL PUSH1 0x20 ADD DUP3 ADD PUSH1 0x40 MSTORE DUP1 ISZERO PUSH3 0x2A98 JUMPI DUP2 PUSH1 0x20 ADD PUSH1 0x20 DUP3 MUL DUP1 CALLDATASIZE DUP4 CALLDATACOPY DUP1 DUP3 ADD SWAP2 POP POP SWAP1 POP JUMPDEST POP SWAP1 POP PUSH1 0x0 JUMPDEST DUP4 DUP2 LT ISZERO PUSH3 0x2DF2 JUMPI PUSH1 0x0 PUSH20 0xFFFFFFFFFFFFFFFFFFFFFFFFFFFFFFFFFFFFFFFF AND DUP15 DUP3 DUP2 MLOAD DUP2 LT PUSH3 0x2AF9 JUMPI PUSH32 0x4E487B7100000000000000000000000000000000000000000000000000000000 PUSH1 0x0 MSTORE PUSH1 0x32 PUSH1 0x4 MSTORE PUSH1 0x24 PUSH1 0x0 REVERT JUMPDEST PUSH1 0x20 MUL PUSH1 0x20 ADD ADD MLOAD PUSH20 0xFFFFFFFFFFFFFFFFFFFFFFFFFFFFFFFFFFFFFFFF AND EQ ISZERO PUSH3 0x2B5B JUMPI PUSH1 0x40 MLOAD PUSH32 0x8C379A000000000000000000000000000000000000000000000000000000000 DUP2 MSTORE PUSH1 0x4 ADD PUSH3 0x2B52 SWAP1 PUSH3 0x51E2 JUMP JUMPDEST PUSH1 0x40 MLOAD DUP1 SWAP2 SUB SWAP1 REVERT JUMPDEST PUSH1 0x12 DUP14 DUP3 DUP2 MLOAD DUP2 LT PUSH3 0x2B97 JUMPI PUSH32 0x4E487B7100000000000000000000000000000000000000000000000000000000 PUSH1 0x0 MSTORE PUSH1 0x32 PUSH1 0x4 MSTORE PUSH1 0x24 PUSH1 0x0 REVERT JUMPDEST PUSH1 0x20 MUL PUSH1 0x20 ADD ADD MLOAD PUSH1 0xFF AND GT ISZERO PUSH3 0x2BE6 JUMPI PUSH1 0x40 MLOAD PUSH32 0x8C379A000000000000000000000000000000000000000000000000000000000 DUP2 MSTORE PUSH1 0x4 ADD PUSH3 0x2BDD SWAP1 PUSH3 0x50F4 JUMP JUMPDEST PUSH1 0x40 MLOAD DUP1 SWAP2 SUB SWAP1 REVERT JUMPDEST DUP13 DUP2 DUP2 MLOAD DUP2 LT PUSH3 0x2C20 JUMPI PUSH32 0x4E487B7100000000000000000000000000000000000000000000000000000000 PUSH1 0x0 MSTORE PUSH1 0x32 PUSH1 0x4 MSTORE PUSH1 0x24 PUSH1 0x0 REVERT JUMPDEST PUSH1 0x20 MUL PUSH1 0x20 ADD ADD MLOAD PUSH1 0xFF AND PUSH1 0x12 PUSH3 0x2C39 SWAP2 SWAP1 PUSH3 0x5C0A JUMP JUMPDEST PUSH1 0xA PUSH3 0x2C47 SWAP2 SWAP1 PUSH3 0x5A6C JUMP JUMPDEST DUP4 DUP3 DUP2 MLOAD DUP2 LT PUSH3 0x2C81 JUMPI PUSH32 0x4E487B7100000000000000000000000000000000000000000000000000000000 PUSH1 0x0 MSTORE PUSH1 0x32 PUSH1 0x4 MSTORE PUSH1 0x24 PUSH1 0x0 REVERT JUMPDEST PUSH1 0x20 MUL PUSH1 0x20 ADD ADD DUP2 DUP2 MSTORE POP POP DUP14 DUP2 DUP2 MLOAD DUP2 LT PUSH3 0x2CC7 JUMPI PUSH32 0x4E487B7100000000000000000000000000000000000000000000000000000000 PUSH1 0x0 MSTORE PUSH1 0x32 PUSH1 0x4 MSTORE PUSH1 0x24 PUSH1 0x0 REVERT JUMPDEST PUSH1 0x20 MUL PUSH1 0x20 ADD ADD MLOAD DUP3 DUP3 DUP2 MLOAD DUP2 LT PUSH3 0x2D09 JUMPI PUSH32 0x4E487B7100000000000000000000000000000000000000000000000000000000 PUSH1 0x0 MSTORE PUSH1 0x32 PUSH1 0x4 MSTORE PUSH1 0x24 PUSH1 0x0 REVERT JUMPDEST PUSH1 0x20 MUL PUSH1 0x20 ADD ADD SWAP1 PUSH20 0xFFFFFFFFFFFFFFFFFFFFFFFFFFFFFFFFFFFFFFFF AND SWAP1 DUP2 PUSH20 0xFFFFFFFFFFFFFFFFFFFFFFFFFFFFFFFFFFFFFFFF AND DUP2 MSTORE POP POP DUP1 PUSH1 0x12 PUSH1 0x0 DUP5 DUP5 DUP2 MLOAD DUP2 LT PUSH3 0x2D82 JUMPI PUSH32 0x4E487B7100000000000000000000000000000000000000000000000000000000 PUSH1 0x0 MSTORE PUSH1 0x32 PUSH1 0x4 MSTORE PUSH1 0x24 PUSH1 0x0 REVERT JUMPDEST PUSH1 0x20 MUL PUSH1 0x20 ADD ADD MLOAD PUSH20 0xFFFFFFFFFFFFFFFFFFFFFFFFFFFFFFFFFFFFFFFF AND PUSH20 0xFFFFFFFFFFFFFFFFFFFFFFFFFFFFFFFFFFFFFFFF AND DUP2 MSTORE PUSH1 0x20 ADD SWAP1 DUP2 MSTORE PUSH1 0x20 ADD PUSH1 0x0 KECCAK256 PUSH1 0x0 PUSH2 0x100 EXP DUP2 SLOAD DUP2 PUSH1 0xFF MUL NOT AND SWAP1 DUP4 PUSH1 0xFF AND MUL OR SWAP1 SSTORE POP DUP1 DUP1 PUSH3 0x2DE9 SWAP1 PUSH3 0x5D7B JUMP JUMPDEST SWAP2 POP POP PUSH3 0x2A9E JUMP JUMPDEST POP PUSH3 0xF4240 DUP10 LT PUSH3 0x2E3B JUMPI PUSH1 0x40 MLOAD PUSH32 0x8C379A000000000000000000000000000000000000000000000000000000000 DUP2 MSTORE PUSH1 0x4 ADD PUSH3 0x2E32 SWAP1 PUSH3 0x50B0 JUMP JUMPDEST PUSH1 0x40 MLOAD DUP1 SWAP2 SUB SWAP1 REVERT JUMPDEST PUSH4 0x5F5E100 DUP9 GT ISZERO PUSH3 0x2E85 JUMPI PUSH1 0x40 MLOAD PUSH32 0x8C379A000000000000000000000000000000000000000000000000000000000 DUP2 MSTORE PUSH1 0x4 ADD PUSH3 0x2E7C SWAP1 PUSH3 0x5116 JUMP JUMPDEST PUSH1 0x40 MLOAD DUP1 SWAP2 SUB SWAP1 REVERT JUMPDEST PUSH5 0x2540BE400 DUP8 GT ISZERO PUSH3 0x2ED0 JUMPI PUSH1 0x40 MLOAD PUSH32 0x8C379A000000000000000000000000000000000000000000000000000000000 DUP2 MSTORE PUSH1 0x4 ADD PUSH3 0x2EC7 SWAP1 PUSH3 0x519E JUMP JUMPDEST PUSH1 0x40 MLOAD DUP1 SWAP2 SUB SWAP1 REVERT JUMPDEST PUSH4 0x5F5E100 DUP7 GT ISZERO PUSH3 0x2F1A JUMPI PUSH1 0x40 MLOAD PUSH32 0x8C379A000000000000000000000000000000000000000000000000000000000 DUP2 MSTORE PUSH1 0x4 ADD PUSH3 0x2F11 SWAP1 PUSH3 0x526A JUMP JUMPDEST PUSH1 0x40 MLOAD DUP1 SWAP2 SUB SWAP1 REVERT JUMPDEST DUP11 DUP11 PUSH1 0x40 MLOAD PUSH3 0x2F2A SWAP1 PUSH3 0x3C9B JUMP JUMPDEST PUSH3 0x2F37 SWAP3 SWAP2 SWAP1 PUSH3 0x5053 JUMP JUMPDEST PUSH1 0x40 MLOAD DUP1 SWAP2 SUB SWAP1 PUSH1 0x0 CREATE DUP1 ISZERO DUP1 ISZERO PUSH3 0x2F54 JUMPI RETURNDATASIZE PUSH1 0x0 DUP1 RETURNDATACOPY RETURNDATASIZE PUSH1 0x0 REVERT JUMPDEST POP PUSH1 0x3 PUSH1 0x1 ADD PUSH1 0x0 PUSH2 0x100 EXP DUP2 SLOAD DUP2 PUSH20 0xFFFFFFFFFFFFFFFFFFFFFFFFFFFFFFFFFFFFFFFF MUL NOT AND SWAP1 DUP4 PUSH20 0xFFFFFFFFFFFFFFFFFFFFFFFFFFFFFFFFFFFFFFFF AND MUL OR SWAP1 SSTORE POP DUP3 PUSH8 0xFFFFFFFFFFFFFFFF DUP2 GT ISZERO PUSH3 0x2FD9 JUMPI PUSH32 0x4E487B7100000000000000000000000000000000000000000000000000000000 PUSH1 0x0 MSTORE PUSH1 0x41 PUSH1 0x4 MSTORE PUSH1 0x24 PUSH1 0x0 REVERT JUMPDEST PUSH1 0x40 MLOAD SWAP1 DUP1 DUP3 MSTORE DUP1 PUSH1 0x20 MUL PUSH1 0x20 ADD DUP3 ADD PUSH1 0x40 MSTORE DUP1 ISZERO PUSH3 0x3008 JUMPI DUP2 PUSH1 0x20 ADD PUSH1 0x20 DUP3 MUL DUP1 CALLDATASIZE DUP4 CALLDATACOPY DUP1 DUP3 ADD SWAP2 POP POP SWAP1 POP JUMPDEST POP PUSH1 0x3 DUP1 ADD SWAP1 DUP1 MLOAD SWAP1 PUSH1 0x20 ADD SWAP1 PUSH3 0x3022 SWAP3 SWAP2 SWAP1 PUSH3 0x3CA9 JUMP JUMPDEST POP DUP2 PUSH1 0x3 PUSH1 0x2 ADD SWAP1 DUP1 MLOAD SWAP1 PUSH1 0x20 ADD SWAP1 PUSH3 0x303E SWAP3 SWAP2 SWAP1 PUSH3 0x3CA9 JUMP JUMPDEST POP DUP1 PUSH1 0x3 PUSH1 0x0 ADD SWAP1 DUP1 MLOAD SWAP1 PUSH1 0x20 ADD SWAP1 PUSH3 0x305A SWAP3 SWAP2 SWAP1 PUSH3 0x3CFB JUMP JUMPDEST POP PUSH1 0x64 DUP10 PUSH3 0x306A SWAP2 SWAP1 PUSH3 0x5BA9 JUMP JUMPDEST PUSH1 0x3 PUSH1 0x6 ADD DUP2 SWAP1 SSTORE POP PUSH1 0x64 DUP10 PUSH3 0x3082 SWAP2 SWAP1 PUSH3 0x5BA9 JUMP JUMPDEST PUSH1 0x3 PUSH1 0x7 ADD DUP2 SWAP1 SSTORE POP DUP8 PUSH1 0x3 PUSH1 0x4 ADD DUP2 SWAP1 SSTORE POP DUP7 PUSH1 0x3 PUSH1 0x5 ADD DUP2 SWAP1 SSTORE POP DUP6 PUSH1 0x3 PUSH1 0xA ADD DUP2 SWAP1 SSTORE POP DUP5 PUSH1 0x10 PUSH1 0x0 PUSH2 0x100 EXP DUP2 SLOAD DUP2 PUSH20 0xFFFFFFFFFFFFFFFFFFFFFFFFFFFFFFFFFFFFFFFF MUL NOT AND SWAP1 DUP4 PUSH20 0xFFFFFFFFFFFFFFFFFFFFFFFFFFFFFFFFFFFFFFFF AND MUL OR SWAP1 SSTORE POP POP POP POP DUP1 ISZERO PUSH3 0x3110 JUMPI PUSH1 0x0 PUSH1 0x2 PUSH1 0x1 PUSH2 0x100 EXP DUP2 SLOAD DUP2 PUSH1 0xFF MUL NOT AND SWAP1 DUP4 ISZERO ISZERO MUL OR SWAP1 SSTORE POP JUMPDEST POP POP POP POP POP POP POP POP POP POP JUMP JUMPDEST PUSH1 0x0 PUSH1 0x3 PUSH20 0x0 PUSH4 0xD36604AC SWAP1 SWAP2 PUSH1 0x40 MLOAD DUP3 PUSH4 0xFFFFFFFF AND PUSH1 0xE0 SHL DUP2 MSTORE PUSH1 0x4 ADD PUSH3 0x315A SWAP2 SWAP1 PUSH3 0x5424 JUMP JUMPDEST PUSH1 0x20 PUSH1 0x40 MLOAD DUP1 DUP4 SUB DUP2 DUP7 DUP1 EXTCODESIZE ISZERO DUP1 ISZERO PUSH3 0x3173 JUMPI PUSH1 0x0 DUP1 REVERT JUMPDEST POP GAS DELEGATECALL ISZERO DUP1 ISZERO PUSH3 0x3188 JUMPI RETURNDATASIZE PUSH1 0x0 DUP1 RETURNDATACOPY RETURNDATASIZE PUSH1 0x0 REVERT JUMPDEST POP POP POP POP PUSH1 0x40 MLOAD RETURNDATASIZE PUSH1 0x1F NOT PUSH1 0x1F DUP3 ADD AND DUP3 ADD DUP1 PUSH1 0x40 MSTORE POP DUP2 ADD SWAP1 PUSH3 0x31AE SWAP2 SWAP1 PUSH3 0x44B8 JUMP JUMPDEST SWAP1 POP SWAP1 JUMP JUMPDEST PUSH1 0x0 PUSH1 0x3 PUSH20 0x0 PUSH4 0x1E7E95D3 SWAP1 SWAP2 DUP7 DUP7 DUP7 PUSH1 0x40 MLOAD DUP6 PUSH4 0xFFFFFFFF AND PUSH1 0xE0 SHL DUP2 MSTORE PUSH1 0x4 ADD PUSH3 0x31F7 SWAP5 SWAP4 SWAP3 SWAP2 SWAP1 PUSH3 0x54CB JUMP JUMPDEST PUSH1 0x20 PUSH1 0x40 MLOAD DUP1 DUP4 SUB DUP2 DUP7 DUP1 EXTCODESIZE ISZERO DUP1 ISZERO PUSH3 0x3210 JUMPI PUSH1 0x0 DUP1 REVERT JUMPDEST POP GAS DELEGATECALL ISZERO DUP1 ISZERO PUSH3 0x3225 JUMPI RETURNDATASIZE PUSH1 0x0 DUP1 RETURNDATACOPY RETURNDATASIZE PUSH1 0x0 REVERT JUMPDEST POP POP POP POP PUSH1 0x40 MLOAD RETURNDATASIZE PUSH1 0x1F NOT PUSH1 0x1F DUP3 ADD AND DUP3 ADD DUP1 PUSH1 0x40 MSTORE POP DUP2 ADD SWAP1 PUSH3 0x324B SWAP2 SWAP1 PUSH3 0x44B8 JUMP JUMPDEST SWAP1 POP SWAP4 SWAP3 POP POP POP JUMP JUMPDEST PUSH1 0x0 PUSH1 0x3 PUSH1 0x0 ADD DUP1 SLOAD SWAP1 POP SWAP1 POP SWAP1 JUMP JUMPDEST PUSH3 0x326E PUSH3 0x365B JUMP JUMPDEST PUSH20 0xFFFFFFFFFFFFFFFFFFFFFFFFFFFFFFFFFFFFFFFF AND PUSH3 0x328E PUSH3 0x1E21 JUMP JUMPDEST PUSH20 0xFFFFFFFFFFFFFFFFFFFFFFFFFFFFFFFFFFFFFFFF AND EQ PUSH3 0x32E7 JUMPI PUSH1 0x40 MLOAD PUSH32 0x8C379A000000000000000000000000000000000000000000000000000000000 DUP2 MSTORE PUSH1 0x4 ADD PUSH3 0x32DE SWAP1 PUSH3 0x5226 JUMP JUMPDEST PUSH1 0x40 MLOAD DUP1 SWAP2 SUB SWAP1 REVERT JUMPDEST PUSH1 0x0 PUSH20 0xFFFFFFFFFFFFFFFFFFFFFFFFFFFFFFFFFFFFFFFF AND DUP2 PUSH20 0xFFFFFFFFFFFFFFFFFFFFFFFFFFFFFFFFFFFFFFFF AND EQ ISZERO PUSH3 0x335A JUMPI PUSH1 0x40 MLOAD PUSH32 0x8C379A000000000000000000000000000000000000000000000000000000000 DUP2 MSTORE PUSH1 0x4 ADD PUSH3 0x3351 SWAP1 PUSH3 0x50D2 JUMP JUMPDEST PUSH1 0x40 MLOAD DUP1 SWAP2 SUB SWAP1 REVERT JUMPDEST PUSH3 0x3365 DUP2 PUSH3 0x3817 JUMP JUMPDEST POP JUMP JUMPDEST PUSH5 0x2540BE400 DUP2 JUMP JUMPDEST PUSH1 0x11 PUSH1 0x0 SWAP1 SLOAD SWAP1 PUSH2 0x100 EXP SWAP1 DIV PUSH20 0xFFFFFFFFFFFFFFFFFFFFFFFFFFFFFFFFFFFFFFFF AND PUSH20 0xFFFFFFFFFFFFFFFFFFFFFFFFFFFFFFFFFFFFFFFF AND CALLER PUSH20 0xFFFFFFFFFFFFFFFFFFFFFFFFFFFFFFFFFFFFFFFF AND EQ DUP1 PUSH3 0x3402 JUMPI POP PUSH3 0x33D3 PUSH3 0x1E21 JUMP JUMPDEST PUSH20 0xFFFFFFFFFFFFFFFFFFFFFFFFFFFFFFFFFFFFFFFF AND CALLER PUSH20 0xFFFFFFFFFFFFFFFFFFFFFFFFFFFFFFFFFFFFFFFF AND EQ JUMPDEST PUSH3 0x3444 JUMPI PUSH1 0x40 MLOAD PUSH32 0x8C379A000000000000000000000000000000000000000000000000000000000 DUP2 MSTORE PUSH1 0x4 ADD PUSH3 0x343B SWAP1 PUSH3 0x5336 JUMP JUMPDEST PUSH1 0x40 MLOAD DUP1 SWAP2 SUB SWAP1 REVERT JUMPDEST PUSH1 0x0 JUMPDEST PUSH1 0x3 PUSH1 0x0 ADD DUP1 SLOAD SWAP1 POP DUP2 LT ISZERO PUSH3 0x3658 JUMPI PUSH1 0x0 PUSH1 0x3 PUSH1 0x0 ADD DUP3 DUP2 SLOAD DUP2 LT PUSH3 0x3498 JUMPI PUSH32 0x4E487B7100000000000000000000000000000000000000000000000000000000 PUSH1 0x0 MSTORE PUSH1 0x32 PUSH1 0x4 MSTORE PUSH1 0x24 PUSH1 0x0 REVERT JUMPDEST SWAP1 PUSH1 0x0 MSTORE PUSH1 0x20 PUSH1 0x0 KECCAK256 ADD PUSH1 0x0 SWAP1 SLOAD SWAP1 PUSH2 0x100 EXP SWAP1 DIV PUSH20 0xFFFFFFFFFFFFFFFFFFFFFFFFFFFFFFFFFFFFFFFF AND SWAP1 POP PUSH1 0x0 PUSH1 0x3 DUP1 ADD DUP4 DUP2 SLOAD DUP2 LT PUSH3 0x3504 JUMPI PUSH32 0x4E487B7100000000000000000000000000000000000000000000000000000000 PUSH1 0x0 MSTORE PUSH1 0x32 PUSH1 0x4 MSTORE PUSH1 0x24 PUSH1 0x0 REVERT JUMPDEST SWAP1 PUSH1 0x0 MSTORE PUSH1 0x20 PUSH1 0x0 KECCAK256 ADD SLOAD DUP3 PUSH20 0xFFFFFFFFFFFFFFFFFFFFFFFFFFFFFFFFFFFFFFFF AND PUSH4 0x70A08231 ADDRESS PUSH1 0x40 MLOAD DUP3 PUSH4 0xFFFFFFFF AND PUSH1 0xE0 SHL DUP2 MSTORE PUSH1 0x4 ADD PUSH3 0x354A SWAP2 SWAP1 PUSH3 0x4ED5 JUMP JUMPDEST PUSH1 0x20 PUSH1 0x40 MLOAD DUP1 DUP4 SUB DUP2 DUP7 DUP1 EXTCODESIZE ISZERO DUP1 ISZERO PUSH3 0x3563 JUMPI PUSH1 0x0 DUP1 REVERT JUMPDEST POP GAS STATICCALL ISZERO DUP1 ISZERO PUSH3 0x3578 JUMPI RETURNDATASIZE PUSH1 0x0 DUP1 RETURNDATACOPY RETURNDATASIZE PUSH1 0x0 REVERT JUMPDEST POP POP POP POP PUSH1 0x40 MLOAD RETURNDATASIZE PUSH1 0x1F NOT PUSH1 0x1F DUP3 ADD AND DUP3 ADD DUP1 PUSH1 0x40 MSTORE POP DUP2 ADD SWAP1 PUSH3 0x359E SWAP2 SWAP1 PUSH3 0x44B8 JUMP JUMPDEST PUSH3 0x35AA SWAP2 SWAP1 PUSH3 0x5C0A JUMP JUMPDEST SWAP1 POP PUSH1 0x0 DUP2 EQ PUSH3 0x3640 JUMPI PUSH3 0x3604 PUSH1 0x10 PUSH1 0x0 SWAP1 SLOAD SWAP1 PUSH2 0x100 EXP SWAP1 DIV PUSH20 0xFFFFFFFFFFFFFFFFFFFFFFFFFFFFFFFFFFFFFFFF AND DUP3 DUP5 PUSH20 0xFFFFFFFFFFFFFFFFFFFFFFFFFFFFFFFFFFFFFFFF AND PUSH3 0x3987 SWAP1 SWAP3 SWAP2 SWAP1 PUSH4 0xFFFFFFFF AND JUMP JUMPDEST PUSH32 0xEE3859EFA95E525BC2BCB149B51B60A8BB4E89C647392D9D4112E03C3E73BDD6 DUP3 DUP3 PUSH1 0x40 MLOAD PUSH3 0x3637 SWAP3 SWAP2 SWAP1 PUSH3 0x4EF2 JUMP JUMPDEST PUSH1 0x40 MLOAD DUP1 SWAP2 SUB SWAP1 LOG1 JUMPDEST POP POP DUP1 DUP1 PUSH3 0x364F SWAP1 PUSH3 0x5D7B JUMP JUMPDEST SWAP2 POP POP PUSH3 0x3447 JUMP JUMPDEST POP JUMP JUMPDEST PUSH1 0x0 CALLER SWAP1 POP SWAP1 JUMP JUMPDEST PUSH3 0x366D PUSH3 0x17D1 JUMP JUMPDEST PUSH3 0x36AF JUMPI PUSH1 0x40 MLOAD PUSH32 0x8C379A000000000000000000000000000000000000000000000000000000000 DUP2 MSTORE PUSH1 0x4 ADD PUSH3 0x36A6 SWAP1 PUSH3 0x508E JUMP JUMPDEST PUSH1 0x40 MLOAD DUP1 SWAP2 SUB SWAP1 REVERT JUMPDEST PUSH1 0x0 DUP1 PUSH1 0x14 PUSH2 0x100 EXP DUP2 SLOAD DUP2 PUSH1 0xFF MUL NOT AND SWAP1 DUP4 ISZERO ISZERO MUL OR SWAP1 SSTORE POP PUSH32 0x5DB9EE0A495BF2E6FF9C91A7834C1BA4FDD244A5E8AA4E537BD38AEAE4B073AA PUSH3 0x36F4 PUSH3 0x365B JUMP JUMPDEST PUSH1 0x40 MLOAD PUSH3 0x3703 SWAP2 SWAP1 PUSH3 0x4ED5 JUMP JUMPDEST PUSH1 0x40 MLOAD DUP1 SWAP2 SUB SWAP1 LOG1 JUMP JUMPDEST PUSH1 0x0 DUP1 PUSH3 0x24EA00 DUP5 PUSH1 0xB ADD PUSH1 0x0 DUP6 PUSH20 0xFFFFFFFFFFFFFFFFFFFFFFFFFFFFFFFFFFFFFFFF AND PUSH20 0xFFFFFFFFFFFFFFFFFFFFFFFFFFFFFFFFFFFFFFFF AND DUP2 MSTORE PUSH1 0x20 ADD SWAP1 DUP2 MSTORE PUSH1 0x20 ADD PUSH1 0x0 KECCAK256 SLOAD PUSH3 0x3762 SWAP2 SWAP1 PUSH3 0x597C JUMP JUMPDEST SWAP1 POP TIMESTAMP DUP2 GT ISZERO PUSH3 0x380B JUMPI PUSH1 0x0 TIMESTAMP DUP3 PUSH3 0x377D SWAP2 SWAP1 PUSH3 0x5C0A JUMP JUMPDEST SWAP1 POP PUSH5 0x2540BE400 PUSH3 0x24EA00 DUP3 DUP8 PUSH1 0xC ADD PUSH1 0x0 DUP9 PUSH20 0xFFFFFFFFFFFFFFFFFFFFFFFFFFFFFFFFFFFFFFFF AND PUSH20 0xFFFFFFFFFFFFFFFFFFFFFFFFFFFFFFFFFFFFFFFF AND DUP2 MSTORE PUSH1 0x20 ADD SWAP1 DUP2 MSTORE PUSH1 0x20 ADD PUSH1 0x0 KECCAK256 SLOAD DUP9 PUSH1 0xA ADD SLOAD PUSH3 0x37DD SWAP2 SWAP1 PUSH3 0x5BA9 JUMP JUMPDEST PUSH3 0x37E9 SWAP2 SWAP1 PUSH3 0x5BA9 JUMP JUMPDEST PUSH3 0x37F5 SWAP2 SWAP1 PUSH3 0x59D9 JUMP JUMPDEST PUSH3 0x3801 SWAP2 SWAP1 PUSH3 0x59D9 JUMP JUMPDEST SWAP3 POP POP POP PUSH3 0x3811 JUMP JUMPDEST PUSH1 0x0 SWAP2 POP POP JUMPDEST SWAP3 SWAP2 POP POP JUMP JUMPDEST PUSH1 0x0 DUP1 PUSH1 0x0 SWAP1 SLOAD SWAP1 PUSH2 0x100 EXP SWAP1 DIV PUSH20 0xFFFFFFFFFFFFFFFFFFFFFFFFFFFFFFFFFFFFFFFF AND SWAP1 POP DUP2 PUSH1 0x0 DUP1 PUSH2 0x100 EXP DUP2 SLOAD DUP2 PUSH20 0xFFFFFFFFFFFFFFFFFFFFFFFFFFFFFFFFFFFFFFFF MUL NOT AND SWAP1 DUP4 PUSH20 0xFFFFFFFFFFFFFFFFFFFFFFFFFFFFFFFFFFFFFFFF AND MUL OR SWAP1 SSTORE POP DUP2 PUSH20 0xFFFFFFFFFFFFFFFFFFFFFFFFFFFFFFFFFFFFFFFF AND DUP2 PUSH20 0xFFFFFFFFFFFFFFFFFFFFFFFFFFFFFFFFFFFFFFFF AND PUSH32 0x8BE0079C531659141344CD1FD0A4F28419497F9722A3DAAFE3B4186F6B6457E0 PUSH1 0x40 MLOAD PUSH1 0x40 MLOAD DUP1 SWAP2 SUB SWAP1 LOG3 POP POP JUMP JUMPDEST PUSH3 0x38E5 PUSH3 0x17D1 JUMP JUMPDEST ISZERO PUSH3 0x3928 JUMPI PUSH1 0x40 MLOAD PUSH32 0x8C379A000000000000000000000000000000000000000000000000000000000 DUP2 MSTORE PUSH1 0x4 ADD PUSH3 0x391F SWAP1 PUSH3 0x517C JUMP JUMPDEST PUSH1 0x40 MLOAD DUP1 SWAP2 SUB SWAP1 REVERT JUMPDEST PUSH1 0x1 PUSH1 0x0 PUSH1 0x14 PUSH2 0x100 EXP DUP2 SLOAD DUP2 PUSH1 0xFF MUL NOT AND SWAP1 DUP4 ISZERO ISZERO MUL OR SWAP1 SSTORE POP PUSH32 0x62E78CEA01BEE320CD4E420270B5EA74000D11B0C9F74754EBDBFC544B05A258 PUSH3 0x396E PUSH3 0x365B JUMP JUMPDEST PUSH1 0x40 MLOAD PUSH3 0x397D SWAP2 SWAP1 PUSH3 0x4ED5 JUMP JUMPDEST PUSH1 0x40 MLOAD DUP1 SWAP2 SUB SWAP1 LOG1 JUMP JUMPDEST PUSH3 0x3A0C DUP4 PUSH4 0xA9059CBB PUSH1 0xE0 SHL DUP5 DUP5 PUSH1 0x40 MLOAD PUSH1 0x24 ADD PUSH3 0x39A9 SWAP3 SWAP2 SWAP1 PUSH3 0x4EF2 JUMP JUMPDEST PUSH1 0x40 MLOAD PUSH1 0x20 DUP2 DUP4 SUB SUB DUP2 MSTORE SWAP1 PUSH1 0x40 MSTORE SWAP1 PUSH28 0xFFFFFFFFFFFFFFFFFFFFFFFFFFFFFFFFFFFFFFFFFFFFFFFFFFFFFFFF NOT AND PUSH1 0x20 DUP3 ADD DUP1 MLOAD PUSH28 0xFFFFFFFFFFFFFFFFFFFFFFFFFFFFFFFFFFFFFFFFFFFFFFFFFFFFFFFF DUP4 DUP2 DUP4 AND OR DUP4 MSTORE POP POP POP POP PUSH3 0x3A11 JUMP JUMPDEST POP POP POP JUMP JUMPDEST PUSH1 0x0 PUSH3 0x3A75 DUP3 PUSH1 0x40 MLOAD DUP1 PUSH1 0x40 ADD PUSH1 0x40 MSTORE DUP1 PUSH1 0x20 DUP2 MSTORE PUSH1 0x20 ADD PUSH32 0x5361666545524332303A206C6F772D6C6576656C2063616C6C206661696C6564 DUP2 MSTORE POP DUP6 PUSH20 0xFFFFFFFFFFFFFFFFFFFFFFFFFFFFFFFFFFFFFFFF AND PUSH3 0x3AE0 SWAP1 SWAP3 SWAP2 SWAP1 PUSH4 0xFFFFFFFF AND JUMP JUMPDEST SWAP1 POP PUSH1 0x0 DUP2 MLOAD GT ISZERO PUSH3 0x3ADB JUMPI DUP1 DUP1 PUSH1 0x20 ADD SWAP1 MLOAD DUP2 ADD SWAP1 PUSH3 0x3A98 SWAP2 SWAP1 PUSH3 0x448C JUMP JUMPDEST PUSH3 0x3ADA JUMPI PUSH1 0x40 MLOAD PUSH32 0x8C379A000000000000000000000000000000000000000000000000000000000 DUP2 MSTORE PUSH1 0x4 ADD PUSH3 0x3AD1 SWAP1 PUSH3 0x5358 JUMP JUMPDEST PUSH1 0x40 MLOAD DUP1 SWAP2 SUB SWAP1 REVERT JUMPDEST JUMPDEST POP POP POP JUMP JUMPDEST PUSH1 0x60 PUSH3 0x3AF1 DUP5 DUP5 PUSH1 0x0 DUP6 PUSH3 0x3AFA JUMP JUMPDEST SWAP1 POP SWAP4 SWAP3 POP POP POP JUMP JUMPDEST PUSH1 0x60 DUP3 SELFBALANCE LT ISZERO PUSH3 0x3B42 JUMPI PUSH1 0x40 MLOAD PUSH32 0x8C379A000000000000000000000000000000000000000000000000000000000 DUP2 MSTORE PUSH1 0x4 ADD PUSH3 0x3B39 SWAP1 PUSH3 0x5138 JUMP JUMPDEST PUSH1 0x40 MLOAD DUP1 SWAP2 SUB SWAP1 REVERT JUMPDEST PUSH3 0x3B4D DUP6 PUSH3 0x3C1C JUMP JUMPDEST PUSH3 0x3B8F JUMPI PUSH1 0x40 MLOAD PUSH32 0x8C379A000000000000000000000000000000000000000000000000000000000 DUP2 MSTORE PUSH1 0x4 ADD PUSH3 0x3B86 SWAP1 PUSH3 0x5314 JUMP JUMPDEST PUSH1 0x40 MLOAD DUP1 SWAP2 SUB SWAP1 REVERT JUMPDEST PUSH1 0x0 DUP1 DUP7 PUSH20 0xFFFFFFFFFFFFFFFFFFFFFFFFFFFFFFFFFFFFFFFF AND DUP6 DUP8 PUSH1 0x40 MLOAD PUSH3 0x3BBA SWAP2 SWAP1 PUSH3 0x4EBC JUMP JUMPDEST PUSH1 0x0 PUSH1 0x40 MLOAD DUP1 DUP4 SUB DUP2 DUP6 DUP8 GAS CALL SWAP3 POP POP POP RETURNDATASIZE DUP1 PUSH1 0x0 DUP2 EQ PUSH3 0x3BF9 JUMPI PUSH1 0x40 MLOAD SWAP2 POP PUSH1 0x1F NOT PUSH1 0x3F RETURNDATASIZE ADD AND DUP3 ADD PUSH1 0x40 MSTORE RETURNDATASIZE DUP3 MSTORE RETURNDATASIZE PUSH1 0x0 PUSH1 0x20 DUP5 ADD RETURNDATACOPY PUSH3 0x3BFE JUMP JUMPDEST PUSH1 0x60 SWAP2 POP JUMPDEST POP SWAP2 POP SWAP2 POP PUSH3 0x3C10 DUP3 DUP3 DUP7 PUSH3 0x3C2F JUMP JUMPDEST SWAP3 POP POP POP SWAP5 SWAP4 POP POP POP POP JUMP JUMPDEST PUSH1 0x0 DUP1 DUP3 EXTCODESIZE SWAP1 POP PUSH1 0x0 DUP2 GT SWAP2 POP POP SWAP2 SWAP1 POP JUMP JUMPDEST PUSH1 0x60 DUP4 ISZERO PUSH3 0x3C41 JUMPI DUP3 SWAP1 POP PUSH3 0x3C94 JUMP JUMPDEST PUSH1 0x0 DUP4 MLOAD GT ISZERO PUSH3 0x3C55 JUMPI DUP3 MLOAD DUP1 DUP5 PUSH1 0x20 ADD REVERT JUMPDEST DUP2 PUSH1 0x40 MLOAD PUSH32 0x8C379A000000000000000000000000000000000000000000000000000000000 DUP2 MSTORE PUSH1 0x4 ADD PUSH3 0x3C8B SWAP2 SWAP1 PUSH3 0x502F JUMP JUMPDEST PUSH1 0x40 MLOAD DUP1 SWAP2 SUB SWAP1 REVERT JUMPDEST SWAP4 SWAP3 POP POP POP JUMP JUMPDEST PUSH2 0x25C5 DUP1 PUSH3 0x63C8 DUP4 CODECOPY ADD SWAP1 JUMP JUMPDEST DUP3 DUP1 SLOAD DUP3 DUP3 SSTORE SWAP1 PUSH1 0x0 MSTORE PUSH1 0x20 PUSH1 0x0 KECCAK256 SWAP1 DUP2 ADD SWAP3 DUP3 ISZERO PUSH3 0x3CE8 JUMPI SWAP2 PUSH1 0x20 MUL DUP3 ADD JUMPDEST DUP3 DUP2 GT ISZERO PUSH3 0x3CE7 JUMPI DUP3 MLOAD DUP3 SSTORE SWAP2 PUSH1 0x20 ADD SWAP2 SWAP1 PUSH1 0x1 ADD SWAP1 PUSH3 0x3CCA JUMP JUMPDEST JUMPDEST POP SWAP1 POP PUSH3 0x3CF7 SWAP2 SWAP1 PUSH3 0x3D8A JUMP JUMPDEST POP SWAP1 JUMP JUMPDEST DUP3 DUP1 SLOAD DUP3 DUP3 SSTORE SWAP1 PUSH1 0x0 MSTORE PUSH1 0x20 PUSH1 0x0 KECCAK256 SWAP1 DUP2 ADD SWAP3 DUP3 ISZERO PUSH3 0x3D77 JUMPI SWAP2 PUSH1 0x20 MUL DUP3 ADD JUMPDEST DUP3 DUP2 GT ISZERO PUSH3 0x3D76 JUMPI DUP3 MLOAD DUP3 PUSH1 0x0 PUSH2 0x100 EXP DUP2 SLOAD DUP2 PUSH20 0xFFFFFFFFFFFFFFFFFFFFFFFFFFFFFFFFFFFFFFFF MUL NOT AND SWAP1 DUP4 PUSH20 0xFFFFFFFFFFFFFFFFFFFFFFFFFFFFFFFFFFFFFFFF AND MUL OR SWAP1 SSTORE POP SWAP2 PUSH1 0x20 ADD SWAP2 SWAP1 PUSH1 0x1 ADD SWAP1 PUSH3 0x3D1C JUMP JUMPDEST JUMPDEST POP SWAP1 POP PUSH3 0x3D86 SWAP2 SWAP1 PUSH3 0x3D8A JUMP JUMPDEST POP SWAP1 JUMP JUMPDEST JUMPDEST DUP1 DUP3 GT ISZERO PUSH3 0x3DA5 JUMPI PUSH1 0x0 DUP2 PUSH1 0x0 SWAP1 SSTORE POP PUSH1 0x1 ADD PUSH3 0x3D8B JUMP JUMPDEST POP SWAP1 JUMP JUMPDEST PUSH1 0x0 PUSH3 0x3DC0 PUSH3 0x3DBA DUP5 PUSH3 0x5804 JUMP JUMPDEST PUSH3 0x57DB JUMP JUMPDEST SWAP1 POP DUP1 DUP4 DUP3 MSTORE PUSH1 0x20 DUP3 ADD SWAP1 POP DUP3 DUP6 PUSH1 0x20 DUP7 MUL DUP3 ADD GT ISZERO PUSH3 0x3DE0 JUMPI PUSH1 0x0 DUP1 REVERT JUMPDEST PUSH1 0x0 JUMPDEST DUP6 DUP2 LT ISZERO PUSH3 0x3E14 JUMPI DUP2 PUSH3 0x3DF9 DUP9 DUP3 PUSH3 0x3FC2 JUMP JUMPDEST DUP5 MSTORE PUSH1 0x20 DUP5 ADD SWAP4 POP PUSH1 0x20 DUP4 ADD SWAP3 POP POP PUSH1 0x1 DUP2 ADD SWAP1 POP PUSH3 0x3DE3 JUMP JUMPDEST POP POP POP SWAP4 SWAP3 POP POP POP JUMP JUMPDEST PUSH1 0x0 PUSH3 0x3E35 PUSH3 0x3E2F DUP5 PUSH3 0x5833 JUMP JUMPDEST PUSH3 0x57DB JUMP JUMPDEST SWAP1 POP DUP1 DUP4 DUP3 MSTORE PUSH1 0x20 DUP3 ADD SWAP1 POP DUP3 DUP6 PUSH1 0x20 DUP7 MUL DUP3 ADD GT ISZERO PUSH3 0x3E55 JUMPI PUSH1 0x0 DUP1 REVERT JUMPDEST PUSH1 0x0 JUMPDEST DUP6 DUP2 LT ISZERO PUSH3 0x3E89 JUMPI DUP2 PUSH3 0x3E6E DUP9 DUP3 PUSH3 0x4135 JUMP JUMPDEST DUP5 MSTORE PUSH1 0x20 DUP5 ADD SWAP4 POP PUSH1 0x20 DUP4 ADD SWAP3 POP POP PUSH1 0x1 DUP2 ADD SWAP1 POP PUSH3 0x3E58 JUMP JUMPDEST POP POP POP SWAP4 SWAP3 POP POP POP JUMP JUMPDEST PUSH1 0x0 PUSH3 0x3EAA PUSH3 0x3EA4 DUP5 PUSH3 0x5833 JUMP JUMPDEST PUSH3 0x57DB JUMP JUMPDEST SWAP1 POP DUP1 DUP4 DUP3 MSTORE PUSH1 0x20 DUP3 ADD SWAP1 POP DUP3 DUP6 PUSH1 0x20 DUP7 MUL DUP3 ADD GT ISZERO PUSH3 0x3ECA JUMPI PUSH1 0x0 DUP1 REVERT JUMPDEST PUSH1 0x0 JUMPDEST DUP6 DUP2 LT ISZERO PUSH3 0x3EFE JUMPI DUP2 PUSH3 0x3EE3 DUP9 DUP3 PUSH3 0x414C JUMP JUMPDEST DUP5 MSTORE PUSH1 0x20 DUP5 ADD SWAP4 POP PUSH1 0x20 DUP4 ADD SWAP3 POP POP PUSH1 0x1 DUP2 ADD SWAP1 POP PUSH3 0x3ECD JUMP JUMPDEST POP POP POP SWAP4 SWAP3 POP POP POP JUMP JUMPDEST PUSH1 0x0 PUSH3 0x3F1F PUSH3 0x3F19 DUP5 PUSH3 0x5862 JUMP JUMPDEST PUSH3 0x57DB JUMP JUMPDEST SWAP1 POP DUP1 DUP4 DUP3 MSTORE PUSH1 0x20 DUP3 ADD SWAP1 POP DUP3 DUP6 PUSH1 0x20 DUP7 MUL DUP3 ADD GT ISZERO PUSH3 0x3F3F JUMPI PUSH1 0x0 DUP1 REVERT JUMPDEST PUSH1 0x0 JUMPDEST DUP6 DUP2 LT ISZERO PUSH3 0x3F73 JUMPI DUP2 PUSH3 0x3F58 DUP9 DUP3 PUSH3 0x4163 JUMP JUMPDEST DUP5 MSTORE PUSH1 0x20 DUP5 ADD SWAP4 POP PUSH1 0x20 DUP4 ADD SWAP3 POP POP PUSH1 0x1 DUP2 ADD SWAP1 POP PUSH3 0x3F42 JUMP JUMPDEST POP POP POP SWAP4 SWAP3 POP POP POP JUMP JUMPDEST PUSH1 0x0 PUSH3 0x3F94 PUSH3 0x3F8E DUP5 PUSH3 0x5891 JUMP JUMPDEST PUSH3 0x57DB JUMP JUMPDEST SWAP1 POP DUP3 DUP2 MSTORE PUSH1 0x20 DUP2 ADD DUP5 DUP5 DUP5 ADD GT ISZERO PUSH3 0x3FAD JUMPI PUSH1 0x0 DUP1 REVERT JUMPDEST PUSH3 0x3FBA DUP5 DUP3 DUP6 PUSH3 0x5D00 JUMP JUMPDEST POP SWAP4 SWAP3 POP POP POP JUMP JUMPDEST PUSH1 0x0 DUP2 CALLDATALOAD SWAP1 POP PUSH3 0x3FD3 DUP2 PUSH3 0x635F JUMP JUMPDEST SWAP3 SWAP2 POP POP JUMP JUMPDEST PUSH1 0x0 DUP3 PUSH1 0x1F DUP4 ADD SLT PUSH3 0x3FEB JUMPI PUSH1 0x0 DUP1 REVERT JUMPDEST DUP2 CALLDATALOAD PUSH3 0x3FFD DUP5 DUP3 PUSH1 0x20 DUP7 ADD PUSH3 0x3DA9 JUMP JUMPDEST SWAP2 POP POP SWAP3 SWAP2 POP POP JUMP JUMPDEST PUSH1 0x0 DUP1 DUP4 PUSH1 0x1F DUP5 ADD SLT PUSH3 0x4019 JUMPI PUSH1 0x0 DUP1 REVERT JUMPDEST DUP3 CALLDATALOAD SWAP1 POP PUSH8 0xFFFFFFFFFFFFFFFF DUP2 GT ISZERO PUSH3 0x4033 JUMPI PUSH1 0x0 DUP1 REVERT JUMPDEST PUSH1 0x20 DUP4 ADD SWAP2 POP DUP4 PUSH1 0x20 DUP3 MUL DUP4 ADD GT ISZERO PUSH3 0x404C JUMPI PUSH1 0x0 DUP1 REVERT JUMPDEST SWAP3 POP SWAP3 SWAP1 POP JUMP JUMPDEST PUSH1 0x0 DUP3 PUSH1 0x1F DUP4 ADD SLT PUSH3 0x4065 JUMPI PUSH1 0x0 DUP1 REVERT JUMPDEST DUP2 CALLDATALOAD PUSH3 0x4077 DUP5 DUP3 PUSH1 0x20 DUP7 ADD PUSH3 0x3E1E JUMP JUMPDEST SWAP2 POP POP SWAP3 SWAP2 POP POP JUMP JUMPDEST PUSH1 0x0 DUP3 PUSH1 0x1F DUP4 ADD SLT PUSH3 0x4092 JUMPI PUSH1 0x0 DUP1 REVERT JUMPDEST DUP2 MLOAD PUSH3 0x40A4 DUP5 DUP3 PUSH1 0x20 DUP7 ADD PUSH3 0x3E93 JUMP JUMPDEST SWAP2 POP POP SWAP3 SWAP2 POP POP JUMP JUMPDEST PUSH1 0x0 DUP3 PUSH1 0x1F DUP4 ADD SLT PUSH3 0x40BF JUMPI PUSH1 0x0 DUP1 REVERT JUMPDEST DUP2 CALLDATALOAD PUSH3 0x40D1 DUP5 DUP3 PUSH1 0x20 DUP7 ADD PUSH3 0x3F08 JUMP JUMPDEST SWAP2 POP POP SWAP3 SWAP2 POP POP JUMP JUMPDEST PUSH1 0x0 DUP2 CALLDATALOAD SWAP1 POP PUSH3 0x40EB DUP2 PUSH3 0x6379 JUMP JUMPDEST SWAP3 SWAP2 POP POP JUMP JUMPDEST PUSH1 0x0 DUP2 MLOAD SWAP1 POP PUSH3 0x4102 DUP2 PUSH3 0x6379 JUMP JUMPDEST SWAP3 SWAP2 POP POP JUMP JUMPDEST PUSH1 0x0 DUP3 PUSH1 0x1F DUP4 ADD SLT PUSH3 0x411A JUMPI PUSH1 0x0 DUP1 REVERT JUMPDEST DUP2 CALLDATALOAD PUSH3 0x412C DUP5 DUP3 PUSH1 0x20 DUP7 ADD PUSH3 0x3F7D JUMP JUMPDEST SWAP2 POP POP SWAP3 SWAP2 POP POP JUMP JUMPDEST PUSH1 0x0 DUP2 CALLDATALOAD SWAP1 POP PUSH3 0x4146 DUP2 PUSH3 0x6393 JUMP JUMPDEST SWAP3 SWAP2 POP POP JUMP JUMPDEST PUSH1 0x0 DUP2 MLOAD SWAP1 POP PUSH3 0x415D DUP2 PUSH3 0x6393 JUMP JUMPDEST SWAP3 SWAP2 POP POP JUMP JUMPDEST PUSH1 0x0 DUP2 CALLDATALOAD SWAP1 POP PUSH3 0x4174 DUP2 PUSH3 0x63AD JUMP JUMPDEST SWAP3 SWAP2 POP POP JUMP JUMPDEST PUSH1 0x0 PUSH1 0x20 DUP3 DUP5 SUB SLT ISZERO PUSH3 0x418D JUMPI PUSH1 0x0 DUP1 REVERT JUMPDEST PUSH1 0x0 PUSH3 0x419D DUP5 DUP3 DUP6 ADD PUSH3 0x3FC2 JUMP JUMPDEST SWAP2 POP POP SWAP3 SWAP2 POP POP JUMP JUMPDEST PUSH1 0x0 DUP1 PUSH1 0x40 DUP4 DUP6 SUB SLT ISZERO PUSH3 0x41BA JUMPI PUSH1 0x0 DUP1 REVERT JUMPDEST PUSH1 0x0 PUSH3 0x41CA DUP6 DUP3 DUP7 ADD PUSH3 0x3FC2 JUMP JUMPDEST SWAP3 POP POP PUSH1 0x20 PUSH3 0x41DD DUP6 DUP3 DUP7 ADD PUSH3 0x4135 JUMP JUMPDEST SWAP2 POP POP SWAP3 POP SWAP3 SWAP1 POP JUMP JUMPDEST PUSH1 0x0 DUP1 PUSH1 0x0 PUSH1 0x60 DUP5 DUP7 SUB SLT ISZERO PUSH3 0x41FD JUMPI PUSH1 0x0 DUP1 REVERT JUMPDEST PUSH1 0x0 PUSH3 0x420D DUP7 DUP3 DUP8 ADD PUSH3 0x3FC2 JUMP JUMPDEST SWAP4 POP POP PUSH1 0x20 PUSH3 0x4220 DUP7 DUP3 DUP8 ADD PUSH3 0x4135 JUMP JUMPDEST SWAP3 POP POP PUSH1 0x40 PUSH3 0x4233 DUP7 DUP3 DUP8 ADD PUSH3 0x4163 JUMP JUMPDEST SWAP2 POP POP SWAP3 POP SWAP3 POP SWAP3 JUMP JUMPDEST PUSH1 0x0 DUP1 PUSH1 0x0 DUP1 PUSH1 0x0 DUP1 PUSH1 0x0 DUP1 PUSH1 0x0 PUSH2 0x120 DUP11 DUP13 SUB SLT ISZERO PUSH3 0x425D JUMPI PUSH1 0x0 DUP1 REVERT JUMPDEST PUSH1 0x0 DUP11 ADD CALLDATALOAD PUSH8 0xFFFFFFFFFFFFFFFF DUP2 GT ISZERO PUSH3 0x4278 JUMPI PUSH1 0x0 DUP1 REVERT JUMPDEST PUSH3 0x4286 DUP13 DUP3 DUP14 ADD PUSH3 0x3FD9 JUMP JUMPDEST SWAP10 POP POP PUSH1 0x20 DUP11 ADD CALLDATALOAD PUSH8 0xFFFFFFFFFFFFFFFF DUP2 GT ISZERO PUSH3 0x42A4 JUMPI PUSH1 0x0 DUP1 REVERT JUMPDEST PUSH3 0x42B2 DUP13 DUP3 DUP14 ADD PUSH3 0x40AD JUMP JUMPDEST SWAP9 POP POP PUSH1 0x40 DUP11 ADD CALLDATALOAD PUSH8 0xFFFFFFFFFFFFFFFF DUP2 GT ISZERO PUSH3 0x42D0 JUMPI PUSH1 0x0 DUP1 REVERT JUMPDEST PUSH3 0x42DE DUP13 DUP3 DUP14 ADD PUSH3 0x4108 JUMP JUMPDEST SWAP8 POP POP PUSH1 0x60 DUP11 ADD CALLDATALOAD PUSH8 0xFFFFFFFFFFFFFFFF DUP2 GT ISZERO PUSH3 0x42FC JUMPI PUSH1 0x0 DUP1 REVERT JUMPDEST PUSH3 0x430A DUP13 DUP3 DUP14 ADD PUSH3 0x4108 JUMP JUMPDEST SWAP7 POP POP PUSH1 0x80 PUSH3 0x431D DUP13 DUP3 DUP14 ADD PUSH3 0x4135 JUMP JUMPDEST SWAP6 POP POP PUSH1 0xA0 PUSH3 0x4330 DUP13 DUP3 DUP14 ADD PUSH3 0x4135 JUMP JUMPDEST SWAP5 POP POP PUSH1 0xC0 PUSH3 0x4343 DUP13 DUP3 DUP14 ADD PUSH3 0x4135 JUMP JUMPDEST SWAP4 POP POP PUSH1 0xE0 PUSH3 0x4356 DUP13 DUP3 DUP14 ADD PUSH3 0x4135 JUMP JUMPDEST SWAP3 POP POP PUSH2 0x100 PUSH3 0x436A DUP13 DUP3 DUP14 ADD PUSH3 0x3FC2 JUMP JUMPDEST SWAP2 POP POP SWAP3 SWAP6 SWAP9 POP SWAP3 SWAP6 SWAP9 POP SWAP3 SWAP6 SWAP9 JUMP JUMPDEST PUSH1 0x0 DUP1 PUSH1 0x0 PUSH1 0x40 DUP5 DUP7 SUB SLT ISZERO PUSH3 0x4390 JUMPI PUSH1 0x0 DUP1 REVERT JUMPDEST PUSH1 0x0 DUP5 ADD CALLDATALOAD PUSH8 0xFFFFFFFFFFFFFFFF DUP2 GT ISZERO PUSH3 0x43AB JUMPI PUSH1 0x0 DUP1 REVERT JUMPDEST PUSH3 0x43B9 DUP7 DUP3 DUP8 ADD PUSH3 0x4006 JUMP JUMPDEST SWAP4 POP SWAP4 POP POP PUSH1 0x20 PUSH3 0x43CE DUP7 DUP3 DUP8 ADD PUSH3 0x40DA JUMP JUMPDEST SWAP2 POP POP SWAP3 POP SWAP3 POP SWAP3 JUMP JUMPDEST PUSH1 0x0 PUSH1 0x20 DUP3 DUP5 SUB SLT ISZERO PUSH3 0x43EB JUMPI PUSH1 0x0 DUP1 REVERT JUMPDEST PUSH1 0x0 DUP3 ADD MLOAD PUSH8 0xFFFFFFFFFFFFFFFF DUP2 GT ISZERO PUSH3 0x4406 JUMPI PUSH1 0x0 DUP1 REVERT JUMPDEST PUSH3 0x4414 DUP5 DUP3 DUP6 ADD PUSH3 0x4080 JUMP JUMPDEST SWAP2 POP POP SWAP3 SWAP2 POP POP JUMP JUMPDEST PUSH1 0x0 DUP1 PUSH1 0x0 PUSH1 0x60 DUP5 DUP7 SUB SLT ISZERO PUSH3 0x4433 JUMPI PUSH1 0x0 DUP1 REVERT JUMPDEST PUSH1 0x0 DUP5 ADD CALLDATALOAD PUSH8 0xFFFFFFFFFFFFFFFF DUP2 GT ISZERO PUSH3 0x444E JUMPI PUSH1 0x0 DUP1 REVERT JUMPDEST PUSH3 0x445C DUP7 DUP3 DUP8 ADD PUSH3 0x4053 JUMP JUMPDEST SWAP4 POP POP PUSH1 0x20 PUSH3 0x446F DUP7 DUP3 DUP8 ADD PUSH3 0x4135 JUMP JUMPDEST SWAP3 POP POP PUSH1 0x40 PUSH3 0x4482 DUP7 DUP3 DUP8 ADD PUSH3 0x4135 JUMP JUMPDEST SWAP2 POP POP SWAP3 POP SWAP3 POP SWAP3 JUMP JUMPDEST PUSH1 0x0 PUSH1 0x20 DUP3 DUP5 SUB SLT ISZERO PUSH3 0x449F JUMPI PUSH1 0x0 DUP1 REVERT JUMPDEST PUSH1 0x0 PUSH3 0x44AF DUP5 DUP3 DUP6 ADD PUSH3 0x40F1 JUMP JUMPDEST SWAP2 POP POP SWAP3 SWAP2 POP POP JUMP JUMPDEST PUSH1 0x0 PUSH1 0x20 DUP3 DUP5 SUB SLT ISZERO PUSH3 0x44CB JUMPI PUSH1 0x0 DUP1 REVERT JUMPDEST PUSH1 0x0 PUSH3 0x44DB DUP5 DUP3 DUP6 ADD PUSH3 0x414C JUMP JUMPDEST SWAP2 POP POP SWAP3 SWAP2 POP POP JUMP JUMPDEST PUSH1 0x0 DUP1 PUSH1 0x0 PUSH1 0x60 DUP5 DUP7 SUB SLT ISZERO PUSH3 0x44FA JUMPI PUSH1 0x0 DUP1 REVERT JUMPDEST PUSH1 0x0 PUSH3 0x450A DUP7 DUP3 DUP8 ADD PUSH3 0x4135 JUMP JUMPDEST SWAP4 POP POP PUSH1 0x20 DUP5 ADD CALLDATALOAD PUSH8 0xFFFFFFFFFFFFFFFF DUP2 GT ISZERO PUSH3 0x4528 JUMPI PUSH1 0x0 DUP1 REVERT JUMPDEST PUSH3 0x4536 DUP7 DUP3 DUP8 ADD PUSH3 0x4053 JUMP JUMPDEST SWAP3 POP POP PUSH1 0x40 PUSH3 0x4549 DUP7 DUP3 DUP8 ADD PUSH3 0x4135 JUMP JUMPDEST SWAP2 POP POP SWAP3 POP SWAP3 POP SWAP3 JUMP JUMPDEST PUSH1 0x0 DUP1 PUSH1 0x40 DUP4 DUP6 SUB SLT ISZERO PUSH3 0x4567 JUMPI PUSH1 0x0 DUP1 REVERT JUMPDEST PUSH1 0x0 PUSH3 0x4577 DUP6 DUP3 DUP7 ADD PUSH3 0x4135 JUMP JUMPDEST SWAP3 POP POP PUSH1 0x20 PUSH3 0x458A DUP6 DUP3 DUP7 ADD PUSH3 0x4135 JUMP JUMPDEST SWAP2 POP POP SWAP3 POP SWAP3 SWAP1 POP JUMP JUMPDEST PUSH1 0x0 DUP1 PUSH1 0x0 PUSH1 0x60 DUP5 DUP7 SUB SLT ISZERO PUSH3 0x45AA JUMPI PUSH1 0x0 DUP1 REVERT JUMPDEST PUSH1 0x0 PUSH3 0x45BA DUP7 DUP3 DUP8 ADD PUSH3 0x4135 JUMP JUMPDEST SWAP4 POP POP PUSH1 0x20 PUSH3 0x45CD DUP7 DUP3 DUP8 ADD PUSH3 0x4135 JUMP JUMPDEST SWAP3 POP POP PUSH1 0x40 PUSH3 0x45E0 DUP7 DUP3 DUP8 ADD PUSH3 0x4135 JUMP JUMPDEST SWAP2 POP POP SWAP3 POP SWAP3 POP SWAP3 JUMP JUMPDEST PUSH1 0x0 DUP1 PUSH1 0x0 DUP1 PUSH1 0x80 DUP6 DUP8 SUB SLT ISZERO PUSH3 0x4601 JUMPI PUSH1 0x0 DUP1 REVERT JUMPDEST PUSH1 0x0 PUSH3 0x4611 DUP8 DUP3 DUP9 ADD PUSH3 0x4135 JUMP JUMPDEST SWAP5 POP POP PUSH1 0x20 PUSH3 0x4624 DUP8 DUP3 DUP9 ADD PUSH3 0x4163 JUMP JUMPDEST SWAP4 POP POP PUSH1 0x40 PUSH3 0x4637 DUP8 DUP3 DUP9 ADD PUSH3 0x4135 JUMP JUMPDEST SWAP3 POP POP PUSH1 0x60 PUSH3 0x464A DUP8 DUP3 DUP9 ADD PUSH3 0x4135 JUMP JUMPDEST SWAP2 POP POP SWAP3 SWAP6 SWAP2 SWAP5 POP SWAP3 POP JUMP JUMPDEST PUSH1 0x0 PUSH1 0x20 DUP3 DUP5 SUB SLT ISZERO PUSH3 0x4669 JUMPI PUSH1 0x0 DUP1 REVERT JUMPDEST PUSH1 0x0 PUSH3 0x4679 DUP5 DUP3 DUP6 ADD PUSH3 0x4163 JUMP JUMPDEST SWAP2 POP POP SWAP3 SWAP2 POP POP JUMP JUMPDEST PUSH1 0x0 DUP1 PUSH1 0x0 PUSH1 0x60 DUP5 DUP7 SUB SLT ISZERO PUSH3 0x4698 JUMPI PUSH1 0x0 DUP1 REVERT JUMPDEST PUSH1 0x0 PUSH3 0x46A8 DUP7 DUP3 DUP8 ADD PUSH3 0x4163 JUMP JUMPDEST SWAP4 POP POP PUSH1 0x20 PUSH3 0x46BB DUP7 DUP3 DUP8 ADD PUSH3 0x4163 JUMP JUMPDEST SWAP3 POP POP PUSH1 0x40 PUSH3 0x46CE DUP7 DUP3 DUP8 ADD PUSH3 0x4135 JUMP JUMPDEST SWAP2 POP POP SWAP3 POP SWAP3 POP SWAP3 JUMP JUMPDEST PUSH1 0x0 DUP1 PUSH1 0x0 DUP1 PUSH1 0x0 PUSH1 0xA0 DUP7 DUP9 SUB SLT ISZERO PUSH3 0x46F1 JUMPI PUSH1 0x0 DUP1 REVERT JUMPDEST PUSH1 0x0 PUSH3 0x4701 DUP9 DUP3 DUP10 ADD PUSH3 0x4163 JUMP JUMPDEST SWAP6 POP POP PUSH1 0x20 PUSH3 0x4714 DUP9 DUP3 DUP10 ADD PUSH3 0x4163 JUMP JUMPDEST SWAP5 POP POP PUSH1 0x40 PUSH3 0x4727 DUP9 DUP3 DUP10 ADD PUSH3 0x4135 JUMP JUMPDEST SWAP4 POP POP PUSH1 0x60 PUSH3 0x473A DUP9 DUP3 DUP10 ADD PUSH3 0x4135 JUMP JUMPDEST SWAP3 POP POP PUSH1 0x80 PUSH3 0x474D DUP9 DUP3 DUP10 ADD PUSH3 0x4135 JUMP JUMPDEST SWAP2 POP POP SWAP3 SWAP6 POP SWAP3 SWAP6 SWAP1 SWAP4 POP JUMP JUMPDEST PUSH1 0x0 PUSH3 0x4768 DUP4 DUP4 PUSH3 0x49BE JUMP JUMPDEST PUSH1 0x20 DUP4 ADD SWAP1 POP SWAP3 SWAP2 POP POP JUMP JUMPDEST PUSH1 0x0 PUSH3 0x4782 DUP4 DUP4 PUSH3 0x4E56 JUMP JUMPDEST PUSH1 0x20 DUP4 ADD SWAP1 POP SWAP3 SWAP2 POP POP JUMP JUMPDEST PUSH1 0x0 PUSH3 0x479C DUP4 DUP4 PUSH3 0x4E89 JUMP JUMPDEST PUSH1 0x20 DUP4 ADD SWAP1 POP SWAP3 SWAP2 POP POP JUMP JUMPDEST PUSH3 0x47B3 DUP2 PUSH3 0x5C45 JUMP JUMPDEST DUP3 MSTORE POP POP JUMP JUMPDEST PUSH3 0x47C4 DUP2 PUSH3 0x5C45 JUMP JUMPDEST DUP3 MSTORE POP POP JUMP JUMPDEST PUSH1 0x0 PUSH3 0x47D7 DUP3 PUSH3 0x58E7 JUMP JUMPDEST PUSH3 0x47E3 DUP2 DUP6 PUSH3 0x592D JUMP JUMPDEST SWAP4 POP PUSH3 0x47F0 DUP4 PUSH3 0x58C7 JUMP JUMPDEST DUP1 PUSH1 0x0 JUMPDEST DUP4 DUP2 LT ISZERO PUSH3 0x4827 JUMPI DUP2 MLOAD PUSH3 0x480B DUP9 DUP3 PUSH3 0x475A JUMP JUMPDEST SWAP8 POP PUSH3 0x4818 DUP4 PUSH3 0x5913 JUMP JUMPDEST SWAP3 POP POP PUSH1 0x1 DUP2 ADD SWAP1 POP PUSH3 0x47F4 JUMP JUMPDEST POP DUP6 SWAP4 POP POP POP POP SWAP3 SWAP2 POP POP JUMP JUMPDEST PUSH1 0x0 PUSH3 0x4842 DUP4 DUP6 PUSH3 0x594F JUMP JUMPDEST SWAP4 POP PUSH32 0x7FFFFFFFFFFFFFFFFFFFFFFFFFFFFFFFFFFFFFFFFFFFFFFFFFFFFFFFFFFFFFF DUP4 GT ISZERO PUSH3 0x4872 JUMPI PUSH1 0x0 DUP1 REVERT JUMPDEST PUSH1 0x20 DUP4 MUL SWAP3 POP PUSH3 0x4885 DUP4 DUP6 DUP5 PUSH3 0x5D00 JUMP JUMPDEST DUP3 DUP5 ADD SWAP1 POP SWAP4 SWAP3 POP POP POP JUMP JUMPDEST PUSH1 0x0 PUSH3 0x489E DUP3 PUSH3 0x58F2 JUMP JUMPDEST PUSH3 0x48AA DUP2 DUP6 PUSH3 0x593E JUMP JUMPDEST SWAP4 POP PUSH3 0x48B7 DUP4 PUSH3 0x58D7 JUMP JUMPDEST DUP1 PUSH1 0x0 JUMPDEST DUP4 DUP2 LT ISZERO PUSH3 0x48EE JUMPI DUP2 MLOAD PUSH3 0x48D2 DUP9 DUP3 PUSH3 0x4774 JUMP JUMPDEST SWAP8 POP PUSH3 0x48DF DUP4 PUSH3 0x5920 JUMP JUMPDEST SWAP3 POP POP PUSH1 0x1 DUP2 ADD SWAP1 POP PUSH3 0x48BB JUMP JUMPDEST POP DUP6 SWAP4 POP POP POP POP SWAP3 SWAP2 POP POP JUMP JUMPDEST PUSH1 0x0 PUSH3 0x4908 DUP3 PUSH3 0x58F2 JUMP JUMPDEST PUSH3 0x4914 DUP2 DUP6 PUSH3 0x594F JUMP JUMPDEST SWAP4 POP PUSH3 0x4921 DUP4 PUSH3 0x58D7 JUMP JUMPDEST DUP1 PUSH1 0x0 JUMPDEST DUP4 DUP2 LT ISZERO PUSH3 0x4958 JUMPI DUP2 MLOAD PUSH3 0x493C DUP9 DUP3 PUSH3 0x478E JUMP JUMPDEST SWAP8 POP PUSH3 0x4949 DUP4 PUSH3 0x5920 JUMP JUMPDEST SWAP3 POP POP PUSH1 0x1 DUP2 ADD SWAP1 POP PUSH3 0x4925 JUMP JUMPDEST POP DUP6 SWAP4 POP POP POP POP SWAP3 SWAP2 POP POP JUMP JUMPDEST PUSH3 0x4970 DUP2 PUSH3 0x5C59 JUMP JUMPDEST DUP3 MSTORE POP POP JUMP JUMPDEST PUSH3 0x4981 DUP2 PUSH3 0x5C59 JUMP JUMPDEST DUP3 MSTORE POP POP JUMP JUMPDEST PUSH1 0x0 PUSH3 0x4994 DUP3 PUSH3 0x58FD JUMP JUMPDEST PUSH3 0x49A0 DUP2 DUP6 PUSH3 0x5960 JUMP JUMPDEST SWAP4 POP PUSH3 0x49B2 DUP2 DUP6 PUSH1 0x20 DUP7 ADD PUSH3 0x5D0F JUMP JUMPDEST DUP1 DUP5 ADD SWAP2 POP POP SWAP3 SWAP2 POP POP JUMP JUMPDEST PUSH3 0x49C9 DUP2 PUSH3 0x5C9C JUMP JUMPDEST DUP3 MSTORE POP POP JUMP JUMPDEST PUSH3 0x49DA DUP2 PUSH3 0x5C9C JUMP JUMPDEST DUP3 MSTORE POP POP JUMP JUMPDEST PUSH3 0x49EB DUP2 PUSH3 0x5CC4 JUMP JUMPDEST DUP3 MSTORE POP POP JUMP JUMPDEST PUSH1 0x0 PUSH3 0x49FE DUP3 PUSH3 0x5908 JUMP JUMPDEST PUSH3 0x4A0A DUP2 DUP6 PUSH3 0x596B JUMP JUMPDEST SWAP4 POP PUSH3 0x4A1C DUP2 DUP6 PUSH1 0x20 DUP7 ADD PUSH3 0x5D0F JUMP JUMPDEST PUSH3 0x4A27 DUP2 PUSH3 0x5E56 JUMP JUMPDEST DUP5 ADD SWAP2 POP POP SWAP3 SWAP2 POP POP JUMP JUMPDEST PUSH1 0x0 PUSH3 0x4A41 PUSH1 0x14 DUP4 PUSH3 0x596B JUMP JUMPDEST SWAP2 POP PUSH3 0x4A4E DUP3 PUSH3 0x5E74 JUMP JUMPDEST PUSH1 0x20 DUP3 ADD SWAP1 POP SWAP2 SWAP1 POP JUMP JUMPDEST PUSH1 0x0 PUSH3 0x4A68 PUSH1 0x6 DUP4 PUSH3 0x596B JUMP JUMPDEST SWAP2 POP PUSH3 0x4A75 DUP3 PUSH3 0x5E9D JUMP JUMPDEST PUSH1 0x20 DUP3 ADD SWAP1 POP SWAP2 SWAP1 POP JUMP JUMPDEST PUSH1 0x0 PUSH3 0x4A8F PUSH1 0x26 DUP4 PUSH3 0x596B JUMP JUMPDEST SWAP2 POP PUSH3 0x4A9C DUP3 PUSH3 0x5EC6 JUMP JUMPDEST PUSH1 0x40 DUP3 ADD SWAP1 POP SWAP2 SWAP1 POP JUMP JUMPDEST PUSH1 0x0 PUSH3 0x4AB6 PUSH1 0xF DUP4 PUSH3 0x596B JUMP JUMPDEST SWAP2 POP PUSH3 0x4AC3 DUP3 PUSH3 0x5F15 JUMP JUMPDEST PUSH1 0x20 DUP3 ADD SWAP1 POP SWAP2 SWAP1 POP JUMP JUMPDEST PUSH1 0x0 PUSH3 0x4ADD PUSH1 0xC DUP4 PUSH3 0x596B JUMP JUMPDEST SWAP2 POP PUSH3 0x4AEA DUP3 PUSH3 0x5F3E JUMP JUMPDEST PUSH1 0x20 DUP3 ADD SWAP1 POP SWAP2 SWAP1 POP JUMP JUMPDEST PUSH1 0x0 PUSH3 0x4B04 PUSH1 0x26 DUP4 PUSH3 0x596B JUMP JUMPDEST SWAP2 POP PUSH3 0x4B11 DUP3 PUSH3 0x5F67 JUMP JUMPDEST PUSH1 0x40 DUP3 ADD SWAP1 POP SWAP2 SWAP1 POP JUMP JUMPDEST PUSH1 0x0 PUSH3 0x4B2B PUSH1 0x8 DUP4 PUSH3 0x596B JUMP JUMPDEST SWAP2 POP PUSH3 0x4B38 DUP3 PUSH3 0x5FB6 JUMP JUMPDEST PUSH1 0x20 DUP3 ADD SWAP1 POP SWAP2 SWAP1 POP JUMP JUMPDEST PUSH1 0x0 PUSH3 0x4B52 PUSH1 0x10 DUP4 PUSH3 0x596B JUMP JUMPDEST SWAP2 POP PUSH3 0x4B5F DUP3 PUSH3 0x5FDF JUMP JUMPDEST PUSH1 0x20 DUP3 ADD SWAP1 POP SWAP2 SWAP1 POP JUMP JUMPDEST PUSH1 0x0 PUSH3 0x4B79 PUSH1 0xD DUP4 PUSH3 0x596B JUMP JUMPDEST SWAP2 POP PUSH3 0x4B86 DUP3 PUSH3 0x6008 JUMP JUMPDEST PUSH1 0x20 DUP3 ADD SWAP1 POP SWAP2 SWAP1 POP JUMP JUMPDEST PUSH1 0x0 PUSH3 0x4BA0 PUSH1 0x2E DUP4 PUSH3 0x596B JUMP JUMPDEST SWAP2 POP PUSH3 0x4BAD DUP3 PUSH3 0x6031 JUMP JUMPDEST PUSH1 0x40 DUP3 ADD SWAP1 POP SWAP2 SWAP1 POP JUMP JUMPDEST PUSH1 0x0 PUSH3 0x4BC7 PUSH1 0x13 DUP4 PUSH3 0x596B JUMP JUMPDEST SWAP2 POP PUSH3 0x4BD4 DUP3 PUSH3 0x6080 JUMP JUMPDEST PUSH1 0x20 DUP3 ADD SWAP1 POP SWAP2 SWAP1 POP JUMP JUMPDEST PUSH1 0x0 PUSH3 0x4BEE PUSH1 0xB DUP4 PUSH3 0x596B JUMP JUMPDEST SWAP2 POP PUSH3 0x4BFB DUP3 PUSH3 0x60A9 JUMP JUMPDEST PUSH1 0x20 DUP3 ADD SWAP1 POP SWAP2 SWAP1 POP JUMP JUMPDEST PUSH1 0x0 PUSH3 0x4C15 PUSH1 0x20 DUP4 PUSH3 0x596B JUMP JUMPDEST SWAP2 POP PUSH3 0x4C22 DUP3 PUSH3 0x60D2 JUMP JUMPDEST PUSH1 0x20 DUP3 ADD SWAP1 POP SWAP2 SWAP1 POP JUMP JUMPDEST PUSH1 0x0 PUSH3 0x4C3C PUSH1 0xD DUP4 PUSH3 0x596B JUMP JUMPDEST SWAP2 POP PUSH3 0x4C49 DUP3 PUSH3 0x60FB JUMP JUMPDEST PUSH1 0x20 DUP3 ADD SWAP1 POP SWAP2 SWAP1 POP JUMP JUMPDEST PUSH1 0x0 PUSH3 0x4C63 PUSH1 0x10 DUP4 PUSH3 0x596B JUMP JUMPDEST SWAP2 POP PUSH3 0x4C70 DUP3 PUSH3 0x6124 JUMP JUMPDEST PUSH1 0x20 DUP3 ADD SWAP1 POP SWAP2 SWAP1 POP JUMP JUMPDEST PUSH1 0x0 PUSH3 0x4C8A PUSH1 0xD DUP4 PUSH3 0x596B JUMP JUMPDEST SWAP2 POP PUSH3 0x4C97 DUP3 PUSH3 0x614D JUMP JUMPDEST PUSH1 0x20 DUP3 ADD SWAP1 POP SWAP2 SWAP1 POP JUMP JUMPDEST PUSH1 0x0 PUSH3 0x4CB1 PUSH1 0x16 DUP4 PUSH3 0x596B JUMP JUMPDEST SWAP2 POP PUSH3 0x4CBE DUP3 PUSH3 0x6176 JUMP JUMPDEST PUSH1 0x20 DUP3 ADD SWAP1 POP SWAP2 SWAP1 POP JUMP JUMPDEST PUSH1 0x0 PUSH3 0x4CD8 PUSH1 0xB DUP4 PUSH3 0x596B JUMP JUMPDEST SWAP2 POP PUSH3 0x4CE5 DUP3 PUSH3 0x619F JUMP JUMPDEST PUSH1 0x20 DUP3 ADD SWAP1 POP SWAP2 SWAP1 POP JUMP JUMPDEST PUSH1 0x0 PUSH3 0x4CFF PUSH1 0x1D DUP4 PUSH3 0x596B JUMP JUMPDEST SWAP2 POP PUSH3 0x4D0C DUP3 PUSH3 0x61C8 JUMP JUMPDEST PUSH1 0x20 DUP3 ADD SWAP1 POP SWAP2 SWAP1 POP JUMP JUMPDEST PUSH1 0x0 PUSH3 0x4D26 PUSH1 0x1D DUP4 PUSH3 0x596B JUMP JUMPDEST SWAP2 POP PUSH3 0x4D33 DUP3 PUSH3 0x61F1 JUMP JUMPDEST PUSH1 0x20 DUP3 ADD SWAP1 POP SWAP2 SWAP1 POP JUMP JUMPDEST PUSH1 0x0 PUSH3 0x4D4D PUSH1 0x15 DUP4 PUSH3 0x596B JUMP JUMPDEST SWAP2 POP PUSH3 0x4D5A DUP3 PUSH3 0x621A JUMP JUMPDEST PUSH1 0x20 DUP3 ADD SWAP1 POP SWAP2 SWAP1 POP JUMP JUMPDEST PUSH1 0x0 PUSH3 0x4D74 PUSH1 0x2A DUP4 PUSH3 0x596B JUMP JUMPDEST SWAP2 POP PUSH3 0x4D81 DUP3 PUSH3 0x6243 JUMP JUMPDEST PUSH1 0x40 DUP3 ADD SWAP1 POP SWAP2 SWAP1 POP JUMP JUMPDEST PUSH1 0x0 PUSH3 0x4D9B PUSH1 0xB DUP4 PUSH3 0x596B JUMP JUMPDEST SWAP2 POP PUSH3 0x4DA8 DUP3 PUSH3 0x6292 JUMP JUMPDEST PUSH1 0x20 DUP3 ADD SWAP1 POP SWAP2 SWAP1 POP JUMP JUMPDEST PUSH1 0x0 PUSH3 0x4DC2 PUSH1 0x7 DUP4 PUSH3 0x596B JUMP JUMPDEST SWAP2 POP PUSH3 0x4DCF DUP3 PUSH3 0x62BB JUMP JUMPDEST PUSH1 0x20 DUP3 ADD SWAP1 POP SWAP2 SWAP1 POP JUMP JUMPDEST PUSH1 0x0 PUSH3 0x4DE9 PUSH1 0xA DUP4 PUSH3 0x596B JUMP JUMPDEST SWAP2 POP PUSH3 0x4DF6 DUP3 PUSH3 0x62E4 JUMP JUMPDEST PUSH1 0x20 DUP3 ADD SWAP1 POP SWAP2 SWAP1 POP JUMP JUMPDEST PUSH1 0x0 PUSH3 0x4E10 PUSH1 0x1F DUP4 PUSH3 0x596B JUMP JUMPDEST SWAP2 POP PUSH3 0x4E1D DUP3 PUSH3 0x630D JUMP JUMPDEST PUSH1 0x20 DUP3 ADD SWAP1 POP SWAP2 SWAP1 POP JUMP JUMPDEST PUSH1 0x0 PUSH3 0x4E37 PUSH1 0xE DUP4 PUSH3 0x596B JUMP JUMPDEST SWAP2 POP PUSH3 0x4E44 DUP3 PUSH3 0x6336 JUMP JUMPDEST PUSH1 0x20 DUP3 ADD SWAP1 POP SWAP2 SWAP1 POP JUMP JUMPDEST DUP1 DUP3 MSTORE POP POP JUMP JUMPDEST PUSH3 0x4E61 DUP2 PUSH3 0x5C85 JUMP JUMPDEST DUP3 MSTORE POP POP JUMP JUMPDEST PUSH3 0x4E72 DUP2 PUSH3 0x5C85 JUMP JUMPDEST DUP3 MSTORE POP POP JUMP JUMPDEST PUSH3 0x4E83 DUP2 PUSH3 0x5C85 JUMP JUMPDEST DUP3 MSTORE POP POP JUMP JUMPDEST PUSH3 0x4E94 DUP2 PUSH3 0x5C85 JUMP JUMPDEST DUP3 MSTORE POP POP JUMP JUMPDEST PUSH3 0x4EA5 DUP2 PUSH3 0x5CEC JUMP JUMPDEST DUP3 MSTORE POP POP JUMP JUMPDEST PUSH3 0x4EB6 DUP2 PUSH3 0x5C8F JUMP JUMPDEST DUP3 MSTORE POP POP JUMP JUMPDEST PUSH1 0x0 PUSH3 0x4ECA DUP3 DUP5 PUSH3 0x4987 JUMP JUMPDEST SWAP2 POP DUP2 SWAP1 POP SWAP3 SWAP2 POP POP JUMP JUMPDEST PUSH1 0x0 PUSH1 0x20 DUP3 ADD SWAP1 POP PUSH3 0x4EEC PUSH1 0x0 DUP4 ADD DUP5 PUSH3 0x47A8 JUMP JUMPDEST SWAP3 SWAP2 POP POP JUMP JUMPDEST PUSH1 0x0 PUSH1 0x40 DUP3 ADD SWAP1 POP PUSH3 0x4F09 PUSH1 0x0 DUP4 ADD DUP6 PUSH3 0x47A8 JUMP JUMPDEST PUSH3 0x4F18 PUSH1 0x20 DUP4 ADD DUP5 PUSH3 0x4E67 JUMP JUMPDEST SWAP4 SWAP3 POP POP POP JUMP JUMPDEST PUSH1 0x0 PUSH1 0x20 DUP3 ADD SWAP1 POP DUP2 DUP2 SUB PUSH1 0x0 DUP4 ADD MSTORE PUSH3 0x4F3B DUP2 DUP5 PUSH3 0x47CA JUMP JUMPDEST SWAP1 POP SWAP3 SWAP2 POP POP JUMP JUMPDEST PUSH1 0x0 PUSH1 0x20 DUP3 ADD SWAP1 POP DUP2 DUP2 SUB PUSH1 0x0 DUP4 ADD MSTORE PUSH3 0x4F5F DUP2 DUP5 PUSH3 0x4891 JUMP JUMPDEST SWAP1 POP SWAP3 SWAP2 POP POP JUMP JUMPDEST PUSH1 0x0 PUSH1 0x20 DUP3 ADD SWAP1 POP PUSH3 0x4F7E PUSH1 0x0 DUP4 ADD DUP5 PUSH3 0x4965 JUMP JUMPDEST SWAP3 SWAP2 POP POP JUMP JUMPDEST PUSH1 0x0 PUSH1 0x20 DUP3 ADD SWAP1 POP PUSH3 0x4F9B PUSH1 0x0 DUP4 ADD DUP5 PUSH3 0x49CF JUMP JUMPDEST SWAP3 SWAP2 POP POP JUMP JUMPDEST PUSH1 0x0 PUSH2 0x100 DUP3 ADD SWAP1 POP PUSH3 0x4FB9 PUSH1 0x0 DUP4 ADD DUP12 PUSH3 0x49E0 JUMP JUMPDEST PUSH3 0x4FC8 PUSH1 0x20 DUP4 ADD DUP11 PUSH3 0x4E67 JUMP JUMPDEST PUSH3 0x4FD7 PUSH1 0x40 DUP4 ADD DUP10 PUSH3 0x4E67 JUMP JUMPDEST PUSH3 0x4FE6 PUSH1 0x60 DUP4 ADD DUP9 PUSH3 0x4E67 JUMP JUMPDEST PUSH3 0x4FF5 PUSH1 0x80 DUP4 ADD DUP8 PUSH3 0x4E67 JUMP JUMPDEST PUSH3 0x5004 PUSH1 0xA0 DUP4 ADD DUP7 PUSH3 0x4E67 JUMP JUMPDEST PUSH3 0x5013 PUSH1 0xC0 DUP4 ADD DUP6 PUSH3 0x4E67 JUMP JUMPDEST PUSH3 0x5022 PUSH1 0xE0 DUP4 ADD DUP5 PUSH3 0x4E67 JUMP JUMPDEST SWAP10 SWAP9 POP POP POP POP POP POP POP POP POP JUMP JUMPDEST PUSH1 0x0 PUSH1 0x20 DUP3 ADD SWAP1 POP DUP2 DUP2 SUB PUSH1 0x0 DUP4 ADD MSTORE PUSH3 0x504B DUP2 DUP5 PUSH3 0x49F1 JUMP JUMPDEST SWAP1 POP SWAP3 SWAP2 POP POP JUMP JUMPDEST PUSH1 0x0 PUSH1 0x40 DUP3 ADD SWAP1 POP DUP2 DUP2 SUB PUSH1 0x0 DUP4 ADD MSTORE PUSH3 0x506F DUP2 DUP6 PUSH3 0x49F1 JUMP JUMPDEST SWAP1 POP DUP2 DUP2 SUB PUSH1 0x20 DUP4 ADD MSTORE PUSH3 0x5085 DUP2 DUP5 PUSH3 0x49F1 JUMP JUMPDEST SWAP1 POP SWAP4 SWAP3 POP POP POP JUMP JUMPDEST PUSH1 0x0 PUSH1 0x20 DUP3 ADD SWAP1 POP DUP2 DUP2 SUB PUSH1 0x0 DUP4 ADD MSTORE PUSH3 0x50A9 DUP2 PUSH3 0x4A32 JUMP JUMPDEST SWAP1 POP SWAP2 SWAP1 POP JUMP JUMPDEST PUSH1 0x0 PUSH1 0x20 DUP3 ADD SWAP1 POP DUP2 DUP2 SUB PUSH1 0x0 DUP4 ADD MSTORE PUSH3 0x50CB DUP2 PUSH3 0x4A59 JUMP JUMPDEST SWAP1 POP SWAP2 SWAP1 POP JUMP JUMPDEST PUSH1 0x0 PUSH1 0x20 DUP3 ADD SWAP1 POP DUP2 DUP2 SUB PUSH1 0x0 DUP4 ADD MSTORE PUSH3 0x50ED DUP2 PUSH3 0x4A80 JUMP JUMPDEST SWAP1 POP SWAP2 SWAP1 POP JUMP JUMPDEST PUSH1 0x0 PUSH1 0x20 DUP3 ADD SWAP1 POP DUP2 DUP2 SUB PUSH1 0x0 DUP4 ADD MSTORE PUSH3 0x510F DUP2 PUSH3 0x4AA7 JUMP JUMPDEST SWAP1 POP SWAP2 SWAP1 POP JUMP JUMPDEST PUSH1 0x0 PUSH1 0x20 DUP3 ADD SWAP1 POP DUP2 DUP2 SUB PUSH1 0x0 DUP4 ADD MSTORE PUSH3 0x5131 DUP2 PUSH3 0x4ACE JUMP JUMPDEST SWAP1 POP SWAP2 SWAP1 POP JUMP JUMPDEST PUSH1 0x0 PUSH1 0x20 DUP3 ADD SWAP1 POP DUP2 DUP2 SUB PUSH1 0x0 DUP4 ADD MSTORE PUSH3 0x5153 DUP2 PUSH3 0x4AF5 JUMP JUMPDEST SWAP1 POP SWAP2 SWAP1 POP JUMP JUMPDEST PUSH1 0x0 PUSH1 0x20 DUP3 ADD SWAP1 POP DUP2 DUP2 SUB PUSH1 0x0 DUP4 ADD MSTORE PUSH3 0x5175 DUP2 PUSH3 0x4B1C JUMP JUMPDEST SWAP1 POP SWAP2 SWAP1 POP JUMP JUMPDEST PUSH1 0x0 PUSH1 0x20 DUP3 ADD SWAP1 POP DUP2 DUP2 SUB PUSH1 0x0 DUP4 ADD MSTORE PUSH3 0x5197 DUP2 PUSH3 0x4B43 JUMP JUMPDEST SWAP1 POP SWAP2 SWAP1 POP JUMP JUMPDEST PUSH1 0x0 PUSH1 0x20 DUP3 ADD SWAP1 POP DUP2 DUP2 SUB PUSH1 0x0 DUP4 ADD MSTORE PUSH3 0x51B9 DUP2 PUSH3 0x4B6A JUMP JUMPDEST SWAP1 POP SWAP2 SWAP1 POP JUMP JUMPDEST PUSH1 0x0 PUSH1 0x20 DUP3 ADD SWAP1 POP DUP2 DUP2 SUB PUSH1 0x0 DUP4 ADD MSTORE PUSH3 0x51DB DUP2 PUSH3 0x4B91 JUMP JUMPDEST SWAP1 POP SWAP2 SWAP1 POP JUMP JUMPDEST PUSH1 0x0 PUSH1 0x20 DUP3 ADD SWAP1 POP DUP2 DUP2 SUB PUSH1 0x0 DUP4 ADD MSTORE PUSH3 0x51FD DUP2 PUSH3 0x4BB8 JUMP JUMPDEST SWAP1 POP SWAP2 SWAP1 POP JUMP JUMPDEST PUSH1 0x0 PUSH1 0x20 DUP3 ADD SWAP1 POP DUP2 DUP2 SUB PUSH1 0x0 DUP4 ADD MSTORE PUSH3 0x521F DUP2 PUSH3 0x4BDF JUMP JUMPDEST SWAP1 POP SWAP2 SWAP1 POP JUMP JUMPDEST PUSH1 0x0 PUSH1 0x20 DUP3 ADD SWAP1 POP DUP2 DUP2 SUB PUSH1 0x0 DUP4 ADD MSTORE PUSH3 0x5241 DUP2 PUSH3 0x4C06 JUMP JUMPDEST SWAP1 POP SWAP2 SWAP1 POP JUMP JUMPDEST PUSH1 0x0 PUSH1 0x20 DUP3 ADD SWAP1 POP DUP2 DUP2 SUB PUSH1 0x0 DUP4 ADD MSTORE PUSH3 0x5263 DUP2 PUSH3 0x4C2D JUMP JUMPDEST SWAP1 POP SWAP2 SWAP1 POP JUMP JUMPDEST PUSH1 0x0 PUSH1 0x20 DUP3 ADD SWAP1 POP DUP2 DUP2 SUB PUSH1 0x0 DUP4 ADD MSTORE PUSH3 0x5285 DUP2 PUSH3 0x4C54 JUMP JUMPDEST SWAP1 POP SWAP2 SWAP1 POP JUMP JUMPDEST PUSH1 0x0 PUSH1 0x20 DUP3 ADD SWAP1 POP DUP2 DUP2 SUB PUSH1 0x0 DUP4 ADD MSTORE PUSH3 0x52A7 DUP2 PUSH3 0x4C7B JUMP JUMPDEST SWAP1 POP SWAP2 SWAP1 POP JUMP JUMPDEST PUSH1 0x0 PUSH1 0x20 DUP3 ADD SWAP1 POP DUP2 DUP2 SUB PUSH1 0x0 DUP4 ADD MSTORE PUSH3 0x52C9 DUP2 PUSH3 0x4CA2 JUMP JUMPDEST SWAP1 POP SWAP2 SWAP1 POP JUMP JUMPDEST PUSH1 0x0 PUSH1 0x20 DUP3 ADD SWAP1 POP DUP2 DUP2 SUB PUSH1 0x0 DUP4 ADD MSTORE PUSH3 0x52EB DUP2 PUSH3 0x4CC9 JUMP JUMPDEST SWAP1 POP SWAP2 SWAP1 POP JUMP JUMPDEST PUSH1 0x0 PUSH1 0x20 DUP3 ADD SWAP1 POP DUP2 DUP2 SUB PUSH1 0x0 DUP4 ADD MSTORE PUSH3 0x530D DUP2 PUSH3 0x4CF0 JUMP JUMPDEST SWAP1 POP SWAP2 SWAP1 POP JUMP JUMPDEST PUSH1 0x0 PUSH1 0x20 DUP3 ADD SWAP1 POP DUP2 DUP2 SUB PUSH1 0x0 DUP4 ADD MSTORE PUSH3 0x532F DUP2 PUSH3 0x4D17 JUMP JUMPDEST SWAP1 POP SWAP2 SWAP1 POP JUMP JUMPDEST PUSH1 0x0 PUSH1 0x20 DUP3 ADD SWAP1 POP DUP2 DUP2 SUB PUSH1 0x0 DUP4 ADD MSTORE PUSH3 0x5351 DUP2 PUSH3 0x4D3E JUMP JUMPDEST SWAP1 POP SWAP2 SWAP1 POP JUMP JUMPDEST PUSH1 0x0 PUSH1 0x20 DUP3 ADD SWAP1 POP DUP2 DUP2 SUB PUSH1 0x0 DUP4 ADD MSTORE PUSH3 0x5373 DUP2 PUSH3 0x4D65 JUMP JUMPDEST SWAP1 POP SWAP2 SWAP1 POP JUMP JUMPDEST PUSH1 0x0 PUSH1 0x20 DUP3 ADD SWAP1 POP DUP2 DUP2 SUB PUSH1 0x0 DUP4 ADD MSTORE PUSH3 0x5395 DUP2 PUSH3 0x4D8C JUMP JUMPDEST SWAP1 POP SWAP2 SWAP1 POP JUMP JUMPDEST PUSH1 0x0 PUSH1 0x20 DUP3 ADD SWAP1 POP DUP2 DUP2 SUB PUSH1 0x0 DUP4 ADD MSTORE PUSH3 0x53B7 DUP2 PUSH3 0x4DB3 JUMP JUMPDEST SWAP1 POP SWAP2 SWAP1 POP JUMP JUMPDEST PUSH1 0x0 PUSH1 0x20 DUP3 ADD SWAP1 POP DUP2 DUP2 SUB PUSH1 0x0 DUP4 ADD MSTORE PUSH3 0x53D9 DUP2 PUSH3 0x4DDA JUMP JUMPDEST SWAP1 POP SWAP2 SWAP1 POP JUMP JUMPDEST PUSH1 0x0 PUSH1 0x20 DUP3 ADD SWAP1 POP DUP2 DUP2 SUB PUSH1 0x0 DUP4 ADD MSTORE PUSH3 0x53FB DUP2 PUSH3 0x4E01 JUMP JUMPDEST SWAP1 POP SWAP2 SWAP1 POP JUMP JUMPDEST PUSH1 0x0 PUSH1 0x20 DUP3 ADD SWAP1 POP DUP2 DUP2 SUB PUSH1 0x0 DUP4 ADD MSTORE PUSH3 0x541D DUP2 PUSH3 0x4E28 JUMP JUMPDEST SWAP1 POP SWAP2 SWAP1 POP JUMP JUMPDEST PUSH1 0x0 PUSH1 0x20 DUP3 ADD SWAP1 POP PUSH3 0x543B PUSH1 0x0 DUP4 ADD DUP5 PUSH3 0x4E4F JUMP JUMPDEST SWAP3 SWAP2 POP POP JUMP JUMPDEST PUSH1 0x0 PUSH1 0x60 DUP3 ADD SWAP1 POP PUSH3 0x5458 PUSH1 0x0 DUP4 ADD DUP7 PUSH3 0x4E4F JUMP JUMPDEST PUSH3 0x5467 PUSH1 0x20 DUP4 ADD DUP6 PUSH3 0x47B9 JUMP JUMPDEST PUSH3 0x5476 PUSH1 0x40 DUP4 ADD DUP5 PUSH3 0x4E78 JUMP JUMPDEST SWAP5 SWAP4 POP POP POP POP JUMP JUMPDEST PUSH1 0x0 PUSH1 0x80 DUP3 ADD SWAP1 POP PUSH3 0x5495 PUSH1 0x0 DUP4 ADD DUP8 PUSH3 0x4E4F JUMP JUMPDEST PUSH3 0x54A4 PUSH1 0x20 DUP4 ADD DUP7 PUSH3 0x47B9 JUMP JUMPDEST PUSH3 0x54B3 PUSH1 0x40 DUP4 ADD DUP6 PUSH3 0x4E78 JUMP JUMPDEST PUSH3 0x54C2 PUSH1 0x60 DUP4 ADD DUP5 PUSH3 0x4E9A JUMP JUMPDEST SWAP6 SWAP5 POP POP POP POP POP JUMP JUMPDEST PUSH1 0x0 PUSH1 0x60 DUP3 ADD SWAP1 POP PUSH3 0x54E2 PUSH1 0x0 DUP4 ADD DUP8 PUSH3 0x4E4F JUMP JUMPDEST DUP2 DUP2 SUB PUSH1 0x20 DUP4 ADD MSTORE PUSH3 0x54F7 DUP2 DUP6 DUP8 PUSH3 0x4834 JUMP JUMPDEST SWAP1 POP PUSH3 0x5508 PUSH1 0x40 DUP4 ADD DUP5 PUSH3 0x4976 JUMP JUMPDEST SWAP6 SWAP5 POP POP POP POP POP JUMP JUMPDEST PUSH1 0x0 PUSH1 0x60 DUP3 ADD SWAP1 POP PUSH3 0x5528 PUSH1 0x0 DUP4 ADD DUP7 PUSH3 0x4E4F JUMP JUMPDEST DUP2 DUP2 SUB PUSH1 0x20 DUP4 ADD MSTORE PUSH3 0x553C DUP2 DUP6 PUSH3 0x48FB JUMP JUMPDEST SWAP1 POP PUSH3 0x554D PUSH1 0x40 DUP4 ADD DUP5 PUSH3 0x4E78 JUMP JUMPDEST SWAP5 SWAP4 POP POP POP POP JUMP JUMPDEST PUSH1 0x0 PUSH1 0x40 DUP3 ADD SWAP1 POP PUSH3 0x556C PUSH1 0x0 DUP4 ADD DUP6 PUSH3 0x4E4F JUMP JUMPDEST PUSH3 0x557B PUSH1 0x20 DUP4 ADD DUP5 PUSH3 0x4E78 JUMP JUMPDEST SWAP4 SWAP3 POP POP POP JUMP JUMPDEST PUSH1 0x0 PUSH1 0x60 DUP3 ADD SWAP1 POP PUSH3 0x5599 PUSH1 0x0 DUP4 ADD DUP7 PUSH3 0x4E4F JUMP JUMPDEST PUSH3 0x55A8 PUSH1 0x20 DUP4 ADD DUP6 PUSH3 0x4E78 JUMP JUMPDEST DUP2 DUP2 SUB PUSH1 0x40 DUP4 ADD MSTORE PUSH3 0x55BC DUP2 DUP5 PUSH3 0x48FB JUMP JUMPDEST SWAP1 POP SWAP5 SWAP4 POP POP POP POP JUMP JUMPDEST PUSH1 0x0 PUSH1 0x80 DUP3 ADD SWAP1 POP PUSH3 0x55DD PUSH1 0x0 DUP4 ADD DUP8 PUSH3 0x4E4F JUMP JUMPDEST PUSH3 0x55EC PUSH1 0x20 DUP4 ADD DUP7 PUSH3 0x4E78 JUMP JUMPDEST PUSH3 0x55FB PUSH1 0x40 DUP4 ADD DUP6 PUSH3 0x4E9A JUMP JUMPDEST PUSH3 0x560A PUSH1 0x60 DUP4 ADD DUP5 PUSH3 0x4E78 JUMP JUMPDEST SWAP6 SWAP5 POP POP POP POP POP JUMP JUMPDEST PUSH1 0x0 PUSH1 0x40 DUP3 ADD SWAP1 POP PUSH3 0x562A PUSH1 0x0 DUP4 ADD DUP6 PUSH3 0x4E4F JUMP JUMPDEST PUSH3 0x5639 PUSH1 0x20 DUP4 ADD DUP5 PUSH3 0x4E9A JUMP JUMPDEST SWAP4 SWAP3 POP POP POP JUMP JUMPDEST PUSH1 0x0 PUSH1 0x80 DUP3 ADD SWAP1 POP PUSH3 0x5657 PUSH1 0x0 DUP4 ADD DUP8 PUSH3 0x4E4F JUMP JUMPDEST PUSH3 0x5666 PUSH1 0x20 DUP4 ADD DUP7 PUSH3 0x4E9A JUMP JUMPDEST PUSH3 0x5675 PUSH1 0x40 DUP4 ADD DUP6 PUSH3 0x4E9A JUMP JUMPDEST PUSH3 0x5684 PUSH1 0x60 DUP4 ADD DUP5 PUSH3 0x4E78 JUMP JUMPDEST SWAP6 SWAP5 POP POP POP POP POP JUMP JUMPDEST PUSH1 0x0 PUSH1 0xA0 DUP3 ADD SWAP1 POP PUSH3 0x56A4 PUSH1 0x0 DUP4 ADD DUP9 PUSH3 0x4E4F JUMP JUMPDEST PUSH3 0x56B3 PUSH1 0x20 DUP4 ADD DUP8 PUSH3 0x4E9A JUMP JUMPDEST PUSH3 0x56C2 PUSH1 0x40 DUP4 ADD DUP7 PUSH3 0x4E9A JUMP JUMPDEST PUSH3 0x56D1 PUSH1 0x60 DUP4 ADD DUP6 PUSH3 0x4E78 JUMP JUMPDEST PUSH3 0x56E0 PUSH1 0x80 DUP4 ADD DUP5 PUSH3 0x4E78 JUMP JUMPDEST SWAP7 SWAP6 POP POP POP POP POP POP JUMP JUMPDEST PUSH1 0x0 PUSH1 0x20 DUP3 ADD SWAP1 POP PUSH3 0x5701 PUSH1 0x0 DUP4 ADD DUP5 PUSH3 0x4E67 JUMP JUMPDEST SWAP3 SWAP2 POP POP JUMP JUMPDEST PUSH1 0x0 PUSH1 0x40 DUP3 ADD SWAP1 POP PUSH3 0x571E PUSH1 0x0 DUP4 ADD DUP6 PUSH3 0x4E67 JUMP JUMPDEST PUSH3 0x572D PUSH1 0x20 DUP4 ADD DUP5 PUSH3 0x4E67 JUMP JUMPDEST SWAP4 SWAP3 POP POP POP JUMP JUMPDEST PUSH1 0x0 PUSH1 0x60 DUP3 ADD SWAP1 POP PUSH3 0x574B PUSH1 0x0 DUP4 ADD DUP7 PUSH3 0x4E67 JUMP JUMPDEST PUSH3 0x575A PUSH1 0x20 DUP4 ADD DUP6 PUSH3 0x4E67 JUMP JUMPDEST PUSH3 0x5769 PUSH1 0x40 DUP4 ADD DUP5 PUSH3 0x4E67 JUMP JUMPDEST SWAP5 SWAP4 POP POP POP POP JUMP JUMPDEST PUSH1 0x0 PUSH1 0x80 DUP3 ADD SWAP1 POP PUSH3 0x5788 PUSH1 0x0 DUP4 ADD DUP8 PUSH3 0x4E67 JUMP JUMPDEST PUSH3 0x5797 PUSH1 0x20 DUP4 ADD DUP7 PUSH3 0x4E67 JUMP JUMPDEST PUSH3 0x57A6 PUSH1 0x40 DUP4 ADD DUP6 PUSH3 0x4E67 JUMP JUMPDEST PUSH3 0x57B5 PUSH1 0x60 DUP4 ADD DUP5 PUSH3 0x4E67 JUMP JUMPDEST SWAP6 SWAP5 POP POP POP POP POP JUMP JUMPDEST PUSH1 0x0 PUSH1 0x20 DUP3 ADD SWAP1 POP PUSH3 0x57D5 PUSH1 0x0 DUP4 ADD DUP5 PUSH3 0x4EAB JUMP JUMPDEST SWAP3 SWAP2 POP POP JUMP JUMPDEST PUSH1 0x0 PUSH3 0x57E7 PUSH3 0x57FA JUMP JUMPDEST SWAP1 POP PUSH3 0x57F5 DUP3 DUP3 PUSH3 0x5D45 JUMP JUMPDEST SWAP2 SWAP1 POP JUMP JUMPDEST PUSH1 0x0 PUSH1 0x40 MLOAD SWAP1 POP SWAP1 JUMP JUMPDEST PUSH1 0x0 PUSH8 0xFFFFFFFFFFFFFFFF DUP3 GT ISZERO PUSH3 0x5822 JUMPI PUSH3 0x5821 PUSH3 0x5E27 JUMP JUMPDEST JUMPDEST PUSH1 0x20 DUP3 MUL SWAP1 POP PUSH1 0x20 DUP2 ADD SWAP1 POP SWAP2 SWAP1 POP JUMP JUMPDEST PUSH1 0x0 PUSH8 0xFFFFFFFFFFFFFFFF DUP3 GT ISZERO PUSH3 0x5851 JUMPI PUSH3 0x5850 PUSH3 0x5E27 JUMP JUMPDEST JUMPDEST PUSH1 0x20 DUP3 MUL SWAP1 POP PUSH1 0x20 DUP2 ADD SWAP1 POP SWAP2 SWAP1 POP JUMP JUMPDEST PUSH1 0x0 PUSH8 0xFFFFFFFFFFFFFFFF DUP3 GT ISZERO PUSH3 0x5880 JUMPI PUSH3 0x587F PUSH3 0x5E27 JUMP JUMPDEST JUMPDEST PUSH1 0x20 DUP3 MUL SWAP1 POP PUSH1 0x20 DUP2 ADD SWAP1 POP SWAP2 SWAP1 POP JUMP JUMPDEST PUSH1 0x0 PUSH8 0xFFFFFFFFFFFFFFFF DUP3 GT ISZERO PUSH3 0x58AF JUMPI PUSH3 0x58AE PUSH3 0x5E27 JUMP JUMPDEST JUMPDEST PUSH3 0x58BA DUP3 PUSH3 0x5E56 JUMP JUMPDEST SWAP1 POP PUSH1 0x20 DUP2 ADD SWAP1 POP SWAP2 SWAP1 POP JUMP JUMPDEST PUSH1 0x0 DUP2 SWAP1 POP PUSH1 0x20 DUP3 ADD SWAP1 POP SWAP2 SWAP1 POP JUMP JUMPDEST PUSH1 0x0 DUP2 SWAP1 POP PUSH1 0x20 DUP3 ADD SWAP1 POP SWAP2 SWAP1 POP JUMP JUMPDEST PUSH1 0x0 DUP2 MLOAD SWAP1 POP SWAP2 SWAP1 POP JUMP JUMPDEST PUSH1 0x0 DUP2 MLOAD SWAP1 POP SWAP2 SWAP1 POP JUMP JUMPDEST PUSH1 0x0 DUP2 MLOAD SWAP1 POP SWAP2 SWAP1 POP JUMP JUMPDEST PUSH1 0x0 DUP2 MLOAD SWAP1 POP SWAP2 SWAP1 POP JUMP JUMPDEST PUSH1 0x0 PUSH1 0x20 DUP3 ADD SWAP1 POP SWAP2 SWAP1 POP JUMP JUMPDEST PUSH1 0x0 PUSH1 0x20 DUP3 ADD SWAP1 POP SWAP2 SWAP1 POP JUMP JUMPDEST PUSH1 0x0 DUP3 DUP3 MSTORE PUSH1 0x20 DUP3 ADD SWAP1 POP SWAP3 SWAP2 POP POP JUMP JUMPDEST PUSH1 0x0 DUP3 DUP3 MSTORE PUSH1 0x20 DUP3 ADD SWAP1 POP SWAP3 SWAP2 POP POP JUMP JUMPDEST PUSH1 0x0 DUP3 DUP3 MSTORE PUSH1 0x20 DUP3 ADD SWAP1 POP SWAP3 SWAP2 POP POP JUMP JUMPDEST PUSH1 0x0 DUP2 SWAP1 POP SWAP3 SWAP2 POP POP JUMP JUMPDEST PUSH1 0x0 DUP3 DUP3 MSTORE PUSH1 0x20 DUP3 ADD SWAP1 POP SWAP3 SWAP2 POP POP JUMP JUMPDEST PUSH1 0x0 PUSH3 0x5989 DUP3 PUSH3 0x5C85 JUMP JUMPDEST SWAP2 POP PUSH3 0x5996 DUP4 PUSH3 0x5C85 JUMP JUMPDEST SWAP3 POP DUP3 PUSH32 0xFFFFFFFFFFFFFFFFFFFFFFFFFFFFFFFFFFFFFFFFFFFFFFFFFFFFFFFFFFFFFFFF SUB DUP3 GT ISZERO PUSH3 0x59CE JUMPI PUSH3 0x59CD PUSH3 0x5DC9 JUMP JUMPDEST JUMPDEST DUP3 DUP3 ADD SWAP1 POP SWAP3 SWAP2 POP POP JUMP JUMPDEST PUSH1 0x0 PUSH3 0x59E6 DUP3 PUSH3 0x5C85 JUMP JUMPDEST SWAP2 POP PUSH3 0x59F3 DUP4 PUSH3 0x5C85 JUMP JUMPDEST SWAP3 POP DUP3 PUSH3 0x5A06 JUMPI PUSH3 0x5A05 PUSH3 0x5DF8 JUMP JUMPDEST JUMPDEST DUP3 DUP3 DIV SWAP1 POP SWAP3 SWAP2 POP POP JUMP JUMPDEST PUSH1 0x0 DUP1 DUP3 SWAP2 POP DUP4 SWAP1 POP JUMPDEST PUSH1 0x1 DUP6 GT ISZERO PUSH3 0x5A63 JUMPI DUP1 DUP7 DIV DUP2 GT ISZERO PUSH3 0x5A3B JUMPI PUSH3 0x5A3A PUSH3 0x5DC9 JUMP JUMPDEST JUMPDEST PUSH1 0x1 DUP6 AND ISZERO PUSH3 0x5A4B JUMPI DUP1 DUP3 MUL SWAP2 POP JUMPDEST DUP1 DUP2 MUL SWAP1 POP PUSH3 0x5A5B DUP6 PUSH3 0x5E67 JUMP JUMPDEST SWAP5 POP PUSH3 0x5A1B JUMP JUMPDEST SWAP5 POP SWAP5 SWAP3 POP POP POP JUMP JUMPDEST PUSH1 0x0 PUSH3 0x5A79 DUP3 PUSH3 0x5C85 JUMP JUMPDEST SWAP2 POP PUSH3 0x5A86 DUP4 PUSH3 0x5C85 JUMP JUMPDEST SWAP3 POP PUSH3 0x5AB5 PUSH32 0xFFFFFFFFFFFFFFFFFFFFFFFFFFFFFFFFFFFFFFFFFFFFFFFFFFFFFFFFFFFFFFFF DUP5 DUP5 PUSH3 0x5ABD JUMP JUMPDEST SWAP1 POP SWAP3 SWAP2 POP POP JUMP JUMPDEST PUSH1 0x0 DUP3 PUSH3 0x5ACF JUMPI PUSH1 0x1 SWAP1 POP PUSH3 0x5BA2 JUMP JUMPDEST DUP2 PUSH3 0x5ADF JUMPI PUSH1 0x0 SWAP1 POP PUSH3 0x5BA2 JUMP JUMPDEST DUP2 PUSH1 0x1 DUP2 EQ PUSH3 0x5AF8 JUMPI PUSH1 0x2 DUP2 EQ PUSH3 0x5B03 JUMPI PUSH3 0x5B39 JUMP JUMPDEST PUSH1 0x1 SWAP2 POP POP PUSH3 0x5BA2 JUMP JUMPDEST PUSH1 0xFF DUP5 GT ISZERO PUSH3 0x5B18 JUMPI PUSH3 0x5B17 PUSH3 0x5DC9 JUMP JUMPDEST JUMPDEST DUP4 PUSH1 0x2 EXP SWAP2 POP DUP5 DUP3 GT ISZERO PUSH3 0x5B32 JUMPI PUSH3 0x5B31 PUSH3 0x5DC9 JUMP JUMPDEST JUMPDEST POP PUSH3 0x5BA2 JUMP JUMPDEST POP PUSH1 0x20 DUP4 LT PUSH2 0x133 DUP4 LT AND PUSH1 0x4E DUP5 LT PUSH1 0xB DUP5 LT AND OR ISZERO PUSH3 0x5B73 JUMPI DUP3 DUP3 EXP SWAP1 POP DUP4 DUP2 GT ISZERO PUSH3 0x5B6D JUMPI PUSH3 0x5B6C PUSH3 0x5DC9 JUMP JUMPDEST JUMPDEST PUSH3 0x5BA2 JUMP JUMPDEST PUSH3 0x5B82 DUP5 DUP5 DUP5 PUSH1 0x1 PUSH3 0x5A11 JUMP JUMPDEST SWAP3 POP SWAP1 POP DUP2 DUP5 DIV DUP2 GT ISZERO PUSH3 0x5B9C JUMPI PUSH3 0x5B9B PUSH3 0x5DC9 JUMP JUMPDEST JUMPDEST DUP2 DUP2 MUL SWAP1 POP JUMPDEST SWAP4 SWAP3 POP POP POP JUMP JUMPDEST PUSH1 0x0 PUSH3 0x5BB6 DUP3 PUSH3 0x5C85 JUMP JUMPDEST SWAP2 POP PUSH3 0x5BC3 DUP4 PUSH3 0x5C85 JUMP JUMPDEST SWAP3 POP DUP2 PUSH32 0xFFFFFFFFFFFFFFFFFFFFFFFFFFFFFFFFFFFFFFFFFFFFFFFFFFFFFFFFFFFFFFFF DIV DUP4 GT DUP3 ISZERO ISZERO AND ISZERO PUSH3 0x5BFF JUMPI PUSH3 0x5BFE PUSH3 0x5DC9 JUMP JUMPDEST JUMPDEST DUP3 DUP3 MUL SWAP1 POP SWAP3 SWAP2 POP POP JUMP JUMPDEST PUSH1 0x0 PUSH3 0x5C17 DUP3 PUSH3 0x5C85 JUMP JUMPDEST SWAP2 POP PUSH3 0x5C24 DUP4 PUSH3 0x5C85 JUMP JUMPDEST SWAP3 POP DUP3 DUP3 LT ISZERO PUSH3 0x5C3A JUMPI PUSH3 0x5C39 PUSH3 0x5DC9 JUMP JUMPDEST JUMPDEST DUP3 DUP3 SUB SWAP1 POP SWAP3 SWAP2 POP POP JUMP JUMPDEST PUSH1 0x0 PUSH3 0x5C52 DUP3 PUSH3 0x5C65 JUMP JUMPDEST SWAP1 POP SWAP2 SWAP1 POP JUMP JUMPDEST PUSH1 0x0 DUP2 ISZERO ISZERO SWAP1 POP SWAP2 SWAP1 POP JUMP JUMPDEST PUSH1 0x0 PUSH20 0xFFFFFFFFFFFFFFFFFFFFFFFFFFFFFFFFFFFFFFFF DUP3 AND SWAP1 POP SWAP2 SWAP1 POP JUMP JUMPDEST PUSH1 0x0 DUP2 SWAP1 POP SWAP2 SWAP1 POP JUMP JUMPDEST PUSH1 0x0 PUSH1 0xFF DUP3 AND SWAP1 POP SWAP2 SWAP1 POP JUMP JUMPDEST PUSH1 0x0 PUSH3 0x5CA9 DUP3 PUSH3 0x5CB0 JUMP JUMPDEST SWAP1 POP SWAP2 SWAP1 POP JUMP JUMPDEST PUSH1 0x0 PUSH3 0x5CBD DUP3 PUSH3 0x5C65 JUMP JUMPDEST SWAP1 POP SWAP2 SWAP1 POP JUMP JUMPDEST PUSH1 0x0 PUSH3 0x5CD1 DUP3 PUSH3 0x5CD8 JUMP JUMPDEST SWAP1 POP SWAP2 SWAP1 POP JUMP JUMPDEST PUSH1 0x0 PUSH3 0x5CE5 DUP3 PUSH3 0x5C65 JUMP JUMPDEST SWAP1 POP SWAP2 SWAP1 POP JUMP JUMPDEST PUSH1 0x0 PUSH3 0x5CF9 DUP3 PUSH3 0x5C8F JUMP JUMPDEST SWAP1 POP SWAP2 SWAP1 POP JUMP JUMPDEST DUP3 DUP2 DUP4 CALLDATACOPY PUSH1 0x0 DUP4 DUP4 ADD MSTORE POP POP POP JUMP JUMPDEST PUSH1 0x0 JUMPDEST DUP4 DUP2 LT ISZERO PUSH3 0x5D2F JUMPI DUP1 DUP3 ADD MLOAD DUP2 DUP5 ADD MSTORE PUSH1 0x20 DUP2 ADD SWAP1 POP PUSH3 0x5D12 JUMP JUMPDEST DUP4 DUP2 GT ISZERO PUSH3 0x5D3F JUMPI PUSH1 0x0 DUP5 DUP5 ADD MSTORE JUMPDEST POP POP POP POP JUMP JUMPDEST PUSH3 0x5D50 DUP3 PUSH3 0x5E56 JUMP JUMPDEST DUP2 ADD DUP2 DUP2 LT PUSH8 0xFFFFFFFFFFFFFFFF DUP3 GT OR ISZERO PUSH3 0x5D72 JUMPI PUSH3 0x5D71 PUSH3 0x5E27 JUMP JUMPDEST JUMPDEST DUP1 PUSH1 0x40 MSTORE POP POP POP JUMP JUMPDEST PUSH1 0x0 PUSH3 0x5D88 DUP3 PUSH3 0x5C85 JUMP JUMPDEST SWAP2 POP PUSH32 0xFFFFFFFFFFFFFFFFFFFFFFFFFFFFFFFFFFFFFFFFFFFFFFFFFFFFFFFFFFFFFFFF DUP3 EQ ISZERO PUSH3 0x5DBE JUMPI PUSH3 0x5DBD PUSH3 0x5DC9 JUMP JUMPDEST JUMPDEST PUSH1 0x1 DUP3 ADD SWAP1 POP SWAP2 SWAP1 POP JUMP JUMPDEST PUSH32 0x4E487B7100000000000000000000000000000000000000000000000000000000 PUSH1 0x0 MSTORE PUSH1 0x11 PUSH1 0x4 MSTORE PUSH1 0x24 PUSH1 0x0 REVERT JUMPDEST PUSH32 0x4E487B7100000000000000000000000000000000000000000000000000000000 PUSH1 0x0 MSTORE PUSH1 0x12 PUSH1 0x4 MSTORE PUSH1 0x24 PUSH1 0x0 REVERT JUMPDEST PUSH32 0x4E487B7100000000000000000000000000000000000000000000000000000000 PUSH1 0x0 MSTORE PUSH1 0x41 PUSH1 0x4 MSTORE PUSH1 0x24 PUSH1 0x0 REVERT JUMPDEST PUSH1 0x0 PUSH1 0x1F NOT PUSH1 0x1F DUP4 ADD AND SWAP1 POP SWAP2 SWAP1 POP JUMP JUMPDEST PUSH1 0x0 DUP2 PUSH1 0x1 SHR SWAP1 POP SWAP2 SWAP1 POP JUMP JUMPDEST PUSH32 0x5061757361626C653A206E6F7420706175736564000000000000000000000000 PUSH1 0x0 DUP3 ADD MSTORE POP JUMP JUMPDEST PUSH32 0x3E206D6178410000000000000000000000000000000000000000000000000000 PUSH1 0x0 DUP3 ADD MSTORE POP JUMP JUMPDEST PUSH32 0x4F776E61626C653A206E6577206F776E657220697320746865207A65726F2061 PUSH1 0x0 DUP3 ADD MSTORE PUSH32 0x6464726573730000000000000000000000000000000000000000000000000000 PUSH1 0x20 DUP3 ADD MSTORE POP JUMP JUMPDEST PUSH32 0x696E76616C6964446563696D616C730000000000000000000000000000000000 PUSH1 0x0 DUP3 ADD MSTORE POP JUMP JUMPDEST PUSH32 0x3E206D6178537761704665650000000000000000000000000000000000000000 PUSH1 0x0 DUP3 ADD MSTORE POP JUMP JUMPDEST PUSH32 0x416464726573733A20696E73756666696369656E742062616C616E636520666F PUSH1 0x0 DUP3 ADD MSTORE PUSH32 0x722063616C6C0000000000000000000000000000000000000000000000000000 PUSH1 0x20 DUP3 ADD MSTORE POP JUMP JUMPDEST PUSH32 0x216C70546F6B656E000000000000000000000000000000000000000000000000 PUSH1 0x0 DUP3 ADD MSTORE POP JUMP JUMPDEST PUSH32 0x5061757361626C653A2070617573656400000000000000000000000000000000 PUSH1 0x0 DUP3 ADD MSTORE POP JUMP JUMPDEST PUSH32 0x3E206D617841646D696E46656500000000000000000000000000000000000000 PUSH1 0x0 DUP3 ADD MSTORE POP JUMP JUMPDEST PUSH32 0x496E697469616C697A61626C653A20636F6E747261637420697320616C726561 PUSH1 0x0 DUP3 ADD MSTORE PUSH32 0x647920696E697469616C697A6564000000000000000000000000000000000000 PUSH1 0x20 DUP3 ADD MSTORE POP JUMP JUMPDEST PUSH32 0x696E76616C6964546F6B656E4164647265737300000000000000000000000000 PUSH1 0x0 DUP3 ADD MSTORE POP JUMP JUMPDEST PUSH32 0x7A65726F41646472657373000000000000000000000000000000000000000000 PUSH1 0x0 DUP3 ADD MSTORE POP JUMP JUMPDEST PUSH32 0x4F776E61626C653A2063616C6C6572206973206E6F7420746865206F776E6572 PUSH1 0x0 DUP3 ADD MSTORE POP JUMP JUMPDEST PUSH32 0x3C206D696E52616D7054696D6500000000000000000000000000000000000000 PUSH1 0x0 DUP3 ADD MSTORE POP JUMP JUMPDEST PUSH32 0x3E206D6178576974686472617746656500000000000000000000000000000000 PUSH1 0x0 DUP3 ADD MSTORE POP JUMP JUMPDEST PUSH32 0x746F6B656E4E6F74466F756E6400000000000000000000000000000000000000 PUSH1 0x0 DUP3 ADD MSTORE POP JUMP JUMPDEST PUSH32 0x6665654469737472696275746F72203D20656D70747900000000000000000000 PUSH1 0x0 DUP3 ADD MSTORE POP JUMP JUMPDEST PUSH32 0x3C2072616D7044656C6179000000000000000000000000000000000000000000 PUSH1 0x0 DUP3 ADD MSTORE POP JUMP JUMPDEST PUSH32 0x636F696E734C656E67746820213D20646563696D616C734C656E677468000000 PUSH1 0x0 DUP3 ADD MSTORE POP JUMP JUMPDEST PUSH32 0x416464726573733A2063616C6C20746F206E6F6E2D636F6E7472616374000000 PUSH1 0x0 DUP3 ADD MSTORE POP JUMP JUMPDEST PUSH32 0x21666565436F6E74726F6C6C65724F724F776E65720000000000000000000000 PUSH1 0x0 DUP3 ADD MSTORE POP JUMP JUMPDEST PUSH32 0x5361666545524332303A204552433230206F7065726174696F6E20646964206E PUSH1 0x0 DUP3 ADD MSTORE PUSH32 0x6F74207375636365656400000000000000000000000000000000000000000000 PUSH1 0x20 DUP3 ADD MSTORE POP JUMP JUMPDEST PUSH32 0x3E206D61784368616E6765000000000000000000000000000000000000000000 PUSH1 0x0 DUP3 ADD MSTORE POP JUMP JUMPDEST PUSH32 0x74696D656F757400000000000000000000000000000000000000000000000000 PUSH1 0x0 DUP3 ADD MSTORE POP JUMP JUMPDEST PUSH32 0x6F75744F6652616E676500000000000000000000000000000000000000000000 PUSH1 0x0 DUP3 ADD MSTORE POP JUMP JUMPDEST PUSH32 0x5265656E7472616E637947756172643A207265656E7472616E742063616C6C00 PUSH1 0x0 DUP3 ADD MSTORE POP JUMP JUMPDEST PUSH32 0x616C726561647953746F70706564000000000000000000000000000000000000 PUSH1 0x0 DUP3 ADD MSTORE POP JUMP JUMPDEST PUSH3 0x636A DUP2 PUSH3 0x5C45 JUMP JUMPDEST DUP2 EQ PUSH3 0x6376 JUMPI PUSH1 0x0 DUP1 REVERT JUMPDEST POP JUMP JUMPDEST PUSH3 0x6384 DUP2 PUSH3 0x5C59 JUMP JUMPDEST DUP2 EQ PUSH3 0x6390 JUMPI PUSH1 0x0 DUP1 REVERT JUMPDEST POP JUMP JUMPDEST PUSH3 0x639E DUP2 PUSH3 0x5C85 JUMP JUMPDEST DUP2 EQ PUSH3 0x63AA JUMPI PUSH1 0x0 DUP1 REVERT JUMPDEST POP JUMP JUMPDEST PUSH3 0x63B8 DUP2 PUSH3 0x5C8F JUMP JUMPDEST DUP2 EQ PUSH3 0x63C4 JUMPI PUSH1 0x0 DUP1 REVERT JUMPDEST POP JUMP INVALID PUSH1 0x80 PUSH1 0x40 MSTORE CALLVALUE DUP1 ISZERO PUSH3 0x11 JUMPI PUSH1 0x0 DUP1 REVERT JUMPDEST POP PUSH1 0x40 MLOAD PUSH3 0x25C5 CODESIZE SUB DUP1 PUSH3 0x25C5 DUP4 CODECOPY DUP2 DUP2 ADD PUSH1 0x40 MSTORE DUP2 ADD SWAP1 PUSH3 0x37 SWAP2 SWAP1 PUSH3 0x2C4 JUMP JUMPDEST DUP2 DUP2 PUSH3 0x59 PUSH3 0x4D PUSH3 0xD6 PUSH1 0x20 SHL PUSH1 0x20 SHR JUMP JUMPDEST PUSH3 0xDE PUSH1 0x20 SHL PUSH1 0x20 SHR JUMP JUMPDEST DUP2 PUSH1 0x4 SWAP1 DUP1 MLOAD SWAP1 PUSH1 0x20 ADD SWAP1 PUSH3 0x71 SWAP3 SWAP2 SWAP1 PUSH3 0x1A2 JUMP JUMPDEST POP DUP1 PUSH1 0x5 SWAP1 DUP1 MLOAD SWAP1 PUSH1 0x20 ADD SWAP1 PUSH3 0x8A SWAP3 SWAP2 SWAP1 PUSH3 0x1A2 JUMP JUMPDEST POP POP POP CALLER PUSH1 0x6 PUSH1 0x0 PUSH2 0x100 EXP DUP2 SLOAD DUP2 PUSH20 0xFFFFFFFFFFFFFFFFFFFFFFFFFFFFFFFFFFFFFFFF MUL NOT AND SWAP1 DUP4 PUSH20 0xFFFFFFFFFFFFFFFFFFFFFFFFFFFFFFFFFFFFFFFF AND MUL OR SWAP1 SSTORE POP POP POP PUSH3 0x4A7 JUMP JUMPDEST PUSH1 0x0 CALLER SWAP1 POP SWAP1 JUMP JUMPDEST PUSH1 0x0 DUP1 PUSH1 0x0 SWAP1 SLOAD SWAP1 PUSH2 0x100 EXP SWAP1 DIV PUSH20 0xFFFFFFFFFFFFFFFFFFFFFFFFFFFFFFFFFFFFFFFF AND SWAP1 POP DUP2 PUSH1 0x0 DUP1 PUSH2 0x100 EXP DUP2 SLOAD DUP2 PUSH20 0xFFFFFFFFFFFFFFFFFFFFFFFFFFFFFFFFFFFFFFFF MUL NOT AND SWAP1 DUP4 PUSH20 0xFFFFFFFFFFFFFFFFFFFFFFFFFFFFFFFFFFFFFFFF AND MUL OR SWAP1 SSTORE POP DUP2 PUSH20 0xFFFFFFFFFFFFFFFFFFFFFFFFFFFFFFFFFFFFFFFF AND DUP2 PUSH20 0xFFFFFFFFFFFFFFFFFFFFFFFFFFFFFFFFFFFFFFFF AND PUSH32 0x8BE0079C531659141344CD1FD0A4F28419497F9722A3DAAFE3B4186F6B6457E0 PUSH1 0x40 MLOAD PUSH1 0x40 MLOAD DUP1 SWAP2 SUB SWAP1 LOG3 POP POP JUMP JUMPDEST DUP3 DUP1 SLOAD PUSH3 0x1B0 SWAP1 PUSH3 0x3CC JUMP JUMPDEST SWAP1 PUSH1 0x0 MSTORE PUSH1 0x20 PUSH1 0x0 KECCAK256 SWAP1 PUSH1 0x1F ADD PUSH1 0x20 SWAP1 DIV DUP2 ADD SWAP3 DUP3 PUSH3 0x1D4 JUMPI PUSH1 0x0 DUP6 SSTORE PUSH3 0x220 JUMP JUMPDEST DUP3 PUSH1 0x1F LT PUSH3 0x1EF JUMPI DUP1 MLOAD PUSH1 0xFF NOT AND DUP4 DUP1 ADD OR DUP6 SSTORE PUSH3 0x220 JUMP JUMPDEST DUP3 DUP1 ADD PUSH1 0x1 ADD DUP6 SSTORE DUP3 ISZERO PUSH3 0x220 JUMPI SWAP2 DUP3 ADD JUMPDEST DUP3 DUP2 GT ISZERO PUSH3 0x21F JUMPI DUP3 MLOAD DUP3 SSTORE SWAP2 PUSH1 0x20 ADD SWAP2 SWAP1 PUSH1 0x1 ADD SWAP1 PUSH3 0x202 JUMP JUMPDEST JUMPDEST POP SWAP1 POP PUSH3 0x22F SWAP2 SWAP1 PUSH3 0x233 JUMP JUMPDEST POP SWAP1 JUMP JUMPDEST JUMPDEST DUP1 DUP3 GT ISZERO PUSH3 0x24E JUMPI PUSH1 0x0 DUP2 PUSH1 0x0 SWAP1 SSTORE POP PUSH1 0x1 ADD PUSH3 0x234 JUMP JUMPDEST POP SWAP1 JUMP JUMPDEST PUSH1 0x0 PUSH3 0x269 PUSH3 0x263 DUP5 PUSH3 0x360 JUMP JUMPDEST PUSH3 0x337 JUMP JUMPDEST SWAP1 POP DUP3 DUP2 MSTORE PUSH1 0x20 DUP2 ADD DUP5 DUP5 DUP5 ADD GT ISZERO PUSH3 0x282 JUMPI PUSH1 0x0 DUP1 REVERT JUMPDEST PUSH3 0x28F DUP5 DUP3 DUP6 PUSH3 0x396 JUMP JUMPDEST POP SWAP4 SWAP3 POP POP POP JUMP JUMPDEST PUSH1 0x0 DUP3 PUSH1 0x1F DUP4 ADD SLT PUSH3 0x2A9 JUMPI PUSH1 0x0 DUP1 REVERT JUMPDEST DUP2 MLOAD PUSH3 0x2BB DUP5 DUP3 PUSH1 0x20 DUP7 ADD PUSH3 0x252 JUMP JUMPDEST SWAP2 POP POP SWAP3 SWAP2 POP POP JUMP JUMPDEST PUSH1 0x0 DUP1 PUSH1 0x40 DUP4 DUP6 SUB SLT ISZERO PUSH3 0x2D8 JUMPI PUSH1 0x0 DUP1 REVERT JUMPDEST PUSH1 0x0 DUP4 ADD MLOAD PUSH8 0xFFFFFFFFFFFFFFFF DUP2 GT ISZERO PUSH3 0x2F3 JUMPI PUSH1 0x0 DUP1 REVERT JUMPDEST PUSH3 0x301 DUP6 DUP3 DUP7 ADD PUSH3 0x297 JUMP JUMPDEST SWAP3 POP POP PUSH1 0x20 DUP4 ADD MLOAD PUSH8 0xFFFFFFFFFFFFFFFF DUP2 GT ISZERO PUSH3 0x31F JUMPI PUSH1 0x0 DUP1 REVERT JUMPDEST PUSH3 0x32D DUP6 DUP3 DUP7 ADD PUSH3 0x297 JUMP JUMPDEST SWAP2 POP POP SWAP3 POP SWAP3 SWAP1 POP JUMP JUMPDEST PUSH1 0x0 PUSH3 0x343 PUSH3 0x356 JUMP JUMPDEST SWAP1 POP PUSH3 0x351 DUP3 DUP3 PUSH3 0x402 JUMP JUMPDEST SWAP2 SWAP1 POP JUMP JUMPDEST PUSH1 0x0 PUSH1 0x40 MLOAD SWAP1 POP SWAP1 JUMP JUMPDEST PUSH1 0x0 PUSH8 0xFFFFFFFFFFFFFFFF DUP3 GT ISZERO PUSH3 0x37E JUMPI PUSH3 0x37D PUSH3 0x467 JUMP JUMPDEST JUMPDEST PUSH3 0x389 DUP3 PUSH3 0x496 JUMP JUMPDEST SWAP1 POP PUSH1 0x20 DUP2 ADD SWAP1 POP SWAP2 SWAP1 POP JUMP JUMPDEST PUSH1 0x0 JUMPDEST DUP4 DUP2 LT ISZERO PUSH3 0x3B6 JUMPI DUP1 DUP3 ADD MLOAD DUP2 DUP5 ADD MSTORE PUSH1 0x20 DUP2 ADD SWAP1 POP PUSH3 0x399 JUMP JUMPDEST DUP4 DUP2 GT ISZERO PUSH3 0x3C6 JUMPI PUSH1 0x0 DUP5 DUP5 ADD MSTORE JUMPDEST POP POP POP POP JUMP JUMPDEST PUSH1 0x0 PUSH1 0x2 DUP3 DIV SWAP1 POP PUSH1 0x1 DUP3 AND DUP1 PUSH3 0x3E5 JUMPI PUSH1 0x7F DUP3 AND SWAP2 POP JUMPDEST PUSH1 0x20 DUP3 LT DUP2 EQ ISZERO PUSH3 0x3FC JUMPI PUSH3 0x3FB PUSH3 0x438 JUMP JUMPDEST JUMPDEST POP SWAP2 SWAP1 POP JUMP JUMPDEST PUSH3 0x40D DUP3 PUSH3 0x496 JUMP JUMPDEST DUP2 ADD DUP2 DUP2 LT PUSH8 0xFFFFFFFFFFFFFFFF DUP3 GT OR ISZERO PUSH3 0x42F JUMPI PUSH3 0x42E PUSH3 0x467 JUMP JUMPDEST JUMPDEST DUP1 PUSH1 0x40 MSTORE POP POP POP JUMP JUMPDEST PUSH32 0x4E487B7100000000000000000000000000000000000000000000000000000000 PUSH1 0x0 MSTORE PUSH1 0x22 PUSH1 0x4 MSTORE PUSH1 0x24 PUSH1 0x0 REVERT JUMPDEST PUSH32 0x4E487B7100000000000000000000000000000000000000000000000000000000 PUSH1 0x0 MSTORE PUSH1 0x41 PUSH1 0x4 MSTORE PUSH1 0x24 PUSH1 0x0 REVERT JUMPDEST PUSH1 0x0 PUSH1 0x1F NOT PUSH1 0x1F DUP4 ADD AND SWAP1 POP SWAP2 SWAP1 POP JUMP JUMPDEST PUSH2 0x210E DUP1 PUSH3 0x4B7 PUSH1 0x0 CODECOPY PUSH1 0x0 RETURN INVALID PUSH1 0x80 PUSH1 0x40 MSTORE CALLVALUE DUP1 ISZERO PUSH2 0x10 JUMPI PUSH1 0x0 DUP1 REVERT JUMPDEST POP PUSH1 0x4 CALLDATASIZE LT PUSH2 0x116 JUMPI PUSH1 0x0 CALLDATALOAD PUSH1 0xE0 SHR DUP1 PUSH4 0x715018A6 GT PUSH2 0xA2 JUMPI DUP1 PUSH4 0x95D89B41 GT PUSH2 0x71 JUMPI DUP1 PUSH4 0x95D89B41 EQ PUSH2 0x2CF JUMPI DUP1 PUSH4 0xA457C2D7 EQ PUSH2 0x2ED JUMPI DUP1 PUSH4 0xA9059CBB EQ PUSH2 0x31D JUMPI DUP1 PUSH4 0xDD62ED3E EQ PUSH2 0x34D JUMPI DUP1 PUSH4 0xF2FDE38B EQ PUSH2 0x37D JUMPI PUSH2 0x116 JUMP JUMPDEST DUP1 PUSH4 0x715018A6 EQ PUSH2 0x26D JUMPI DUP1 PUSH4 0x79CC6790 EQ PUSH2 0x277 JUMPI DUP1 PUSH4 0x8119C065 EQ PUSH2 0x293 JUMPI DUP1 PUSH4 0x8DA5CB5B EQ PUSH2 0x2B1 JUMPI PUSH2 0x116 JUMP JUMPDEST DUP1 PUSH4 0x313CE567 GT PUSH2 0xE9 JUMPI DUP1 PUSH4 0x313CE567 EQ PUSH2 0x1B7 JUMPI DUP1 PUSH4 0x39509351 EQ PUSH2 0x1D5 JUMPI DUP1 PUSH4 0x40C10F19 EQ PUSH2 0x205 JUMPI DUP1 PUSH4 0x42966C68 EQ PUSH2 0x221 JUMPI DUP1 PUSH4 0x70A08231 EQ PUSH2 0x23D JUMPI PUSH2 0x116 JUMP JUMPDEST DUP1 PUSH4 0x6FDDE03 EQ PUSH2 0x11B JUMPI DUP1 PUSH4 0x95EA7B3 EQ PUSH2 0x139 JUMPI DUP1 PUSH4 0x18160DDD EQ PUSH2 0x169 JUMPI DUP1 PUSH4 0x23B872DD EQ PUSH2 0x187 JUMPI JUMPDEST PUSH1 0x0 DUP1 REVERT JUMPDEST PUSH2 0x123 PUSH2 0x399 JUMP JUMPDEST PUSH1 0x40 MLOAD PUSH2 0x130 SWAP2 SWAP1 PUSH2 0x18BF JUMP JUMPDEST PUSH1 0x40 MLOAD DUP1 SWAP2 SUB SWAP1 RETURN JUMPDEST PUSH2 0x153 PUSH1 0x4 DUP1 CALLDATASIZE SUB DUP2 ADD SWAP1 PUSH2 0x14E SWAP2 SWAP1 PUSH2 0x1572 JUMP JUMPDEST PUSH2 0x42B JUMP JUMPDEST PUSH1 0x40 MLOAD PUSH2 0x160 SWAP2 SWAP1 PUSH2 0x1889 JUMP JUMPDEST PUSH1 0x40 MLOAD DUP1 SWAP2 SUB SWAP1 RETURN JUMPDEST PUSH2 0x171 PUSH2 0x449 JUMP JUMPDEST PUSH1 0x40 MLOAD PUSH2 0x17E SWAP2 SWAP1 PUSH2 0x1AA1 JUMP JUMPDEST PUSH1 0x40 MLOAD DUP1 SWAP2 SUB SWAP1 RETURN JUMPDEST PUSH2 0x1A1 PUSH1 0x4 DUP1 CALLDATASIZE SUB DUP2 ADD SWAP1 PUSH2 0x19C SWAP2 SWAP1 PUSH2 0x1523 JUMP JUMPDEST PUSH2 0x453 JUMP JUMPDEST PUSH1 0x40 MLOAD PUSH2 0x1AE SWAP2 SWAP1 PUSH2 0x1889 JUMP JUMPDEST PUSH1 0x40 MLOAD DUP1 SWAP2 SUB SWAP1 RETURN JUMPDEST PUSH2 0x1BF PUSH2 0x54B JUMP JUMPDEST PUSH1 0x40 MLOAD PUSH2 0x1CC SWAP2 SWAP1 PUSH2 0x1ABC JUMP JUMPDEST PUSH1 0x40 MLOAD DUP1 SWAP2 SUB SWAP1 RETURN JUMPDEST PUSH2 0x1EF PUSH1 0x4 DUP1 CALLDATASIZE SUB DUP2 ADD SWAP1 PUSH2 0x1EA SWAP2 SWAP1 PUSH2 0x1572 JUMP JUMPDEST PUSH2 0x554 JUMP JUMPDEST PUSH1 0x40 MLOAD PUSH2 0x1FC SWAP2 SWAP1 PUSH2 0x1889 JUMP JUMPDEST PUSH1 0x40 MLOAD DUP1 SWAP2 SUB SWAP1 RETURN JUMPDEST PUSH2 0x21F PUSH1 0x4 DUP1 CALLDATASIZE SUB DUP2 ADD SWAP1 PUSH2 0x21A SWAP2 SWAP1 PUSH2 0x1572 JUMP JUMPDEST PUSH2 0x600 JUMP JUMPDEST STOP JUMPDEST PUSH2 0x23B PUSH1 0x4 DUP1 CALLDATASIZE SUB DUP2 ADD SWAP1 PUSH2 0x236 SWAP2 SWAP1 PUSH2 0x15AE JUMP JUMPDEST PUSH2 0x6CD JUMP JUMPDEST STOP JUMPDEST PUSH2 0x257 PUSH1 0x4 DUP1 CALLDATASIZE SUB DUP2 ADD SWAP1 PUSH2 0x252 SWAP2 SWAP1 PUSH2 0x14BE JUMP JUMPDEST PUSH2 0x6E1 JUMP JUMPDEST PUSH1 0x40 MLOAD PUSH2 0x264 SWAP2 SWAP1 PUSH2 0x1AA1 JUMP JUMPDEST PUSH1 0x40 MLOAD DUP1 SWAP2 SUB SWAP1 RETURN JUMPDEST PUSH2 0x275 PUSH2 0x72A JUMP JUMPDEST STOP JUMPDEST PUSH2 0x291 PUSH1 0x4 DUP1 CALLDATASIZE SUB DUP2 ADD SWAP1 PUSH2 0x28C SWAP2 SWAP1 PUSH2 0x1572 JUMP JUMPDEST PUSH2 0x7B2 JUMP JUMPDEST STOP JUMPDEST PUSH2 0x29B PUSH2 0x82D JUMP JUMPDEST PUSH1 0x40 MLOAD PUSH2 0x2A8 SWAP2 SWAP1 PUSH2 0x18A4 JUMP JUMPDEST PUSH1 0x40 MLOAD DUP1 SWAP2 SUB SWAP1 RETURN JUMPDEST PUSH2 0x2B9 PUSH2 0x853 JUMP JUMPDEST PUSH1 0x40 MLOAD PUSH2 0x2C6 SWAP2 SWAP1 PUSH2 0x1845 JUMP JUMPDEST PUSH1 0x40 MLOAD DUP1 SWAP2 SUB SWAP1 RETURN JUMPDEST PUSH2 0x2D7 PUSH2 0x87C JUMP JUMPDEST PUSH1 0x40 MLOAD PUSH2 0x2E4 SWAP2 SWAP1 PUSH2 0x18BF JUMP JUMPDEST PUSH1 0x40 MLOAD DUP1 SWAP2 SUB SWAP1 RETURN JUMPDEST PUSH2 0x307 PUSH1 0x4 DUP1 CALLDATASIZE SUB DUP2 ADD SWAP1 PUSH2 0x302 SWAP2 SWAP1 PUSH2 0x1572 JUMP JUMPDEST PUSH2 0x90E JUMP JUMPDEST PUSH1 0x40 MLOAD PUSH2 0x314 SWAP2 SWAP1 PUSH2 0x1889 JUMP JUMPDEST PUSH1 0x40 MLOAD DUP1 SWAP2 SUB SWAP1 RETURN JUMPDEST PUSH2 0x337 PUSH1 0x4 DUP1 CALLDATASIZE SUB DUP2 ADD SWAP1 PUSH2 0x332 SWAP2 SWAP1 PUSH2 0x1572 JUMP JUMPDEST PUSH2 0x9F9 JUMP JUMPDEST PUSH1 0x40 MLOAD PUSH2 0x344 SWAP2 SWAP1 PUSH2 0x1889 JUMP JUMPDEST PUSH1 0x40 MLOAD DUP1 SWAP2 SUB SWAP1 RETURN JUMPDEST PUSH2 0x367 PUSH1 0x4 DUP1 CALLDATASIZE SUB DUP2 ADD SWAP1 PUSH2 0x362 SWAP2 SWAP1 PUSH2 0x14E7 JUMP JUMPDEST PUSH2 0xA17 JUMP JUMPDEST PUSH1 0x40 MLOAD PUSH2 0x374 SWAP2 SWAP1 PUSH2 0x1AA1 JUMP JUMPDEST PUSH1 0x40 MLOAD DUP1 SWAP2 SUB SWAP1 RETURN JUMPDEST PUSH2 0x397 PUSH1 0x4 DUP1 CALLDATASIZE SUB DUP2 ADD SWAP1 PUSH2 0x392 SWAP2 SWAP1 PUSH2 0x14BE JUMP JUMPDEST PUSH2 0xA9E JUMP JUMPDEST STOP JUMPDEST PUSH1 0x60 PUSH1 0x4 DUP1 SLOAD PUSH2 0x3A8 SWAP1 PUSH2 0x1C29 JUMP JUMPDEST DUP1 PUSH1 0x1F ADD PUSH1 0x20 DUP1 SWAP2 DIV MUL PUSH1 0x20 ADD PUSH1 0x40 MLOAD SWAP1 DUP2 ADD PUSH1 0x40 MSTORE DUP1 SWAP3 SWAP2 SWAP1 DUP2 DUP2 MSTORE PUSH1 0x20 ADD DUP3 DUP1 SLOAD PUSH2 0x3D4 SWAP1 PUSH2 0x1C29 JUMP JUMPDEST DUP1 ISZERO PUSH2 0x421 JUMPI DUP1 PUSH1 0x1F LT PUSH2 0x3F6 JUMPI PUSH2 0x100 DUP1 DUP4 SLOAD DIV MUL DUP4 MSTORE SWAP2 PUSH1 0x20 ADD SWAP2 PUSH2 0x421 JUMP JUMPDEST DUP3 ADD SWAP2 SWAP1 PUSH1 0x0 MSTORE PUSH1 0x20 PUSH1 0x0 KECCAK256 SWAP1 JUMPDEST DUP2 SLOAD DUP2 MSTORE SWAP1 PUSH1 0x1 ADD SWAP1 PUSH1 0x20 ADD DUP1 DUP4 GT PUSH2 0x404 JUMPI DUP3 SWAP1 SUB PUSH1 0x1F AND DUP3 ADD SWAP2 JUMPDEST POP POP POP POP POP SWAP1 POP SWAP1 JUMP JUMPDEST PUSH1 0x0 PUSH2 0x43F PUSH2 0x438 PUSH2 0xB96 JUMP JUMPDEST DUP5 DUP5 PUSH2 0xB9E JUMP JUMPDEST PUSH1 0x1 SWAP1 POP SWAP3 SWAP2 POP POP JUMP JUMPDEST PUSH1 0x0 PUSH1 0x3 SLOAD SWAP1 POP SWAP1 JUMP JUMPDEST PUSH1 0x0 PUSH2 0x460 DUP5 DUP5 DUP5 PUSH2 0xD69 JUMP JUMPDEST PUSH1 0x0 PUSH1 0x2 PUSH1 0x0 DUP7 PUSH20 0xFFFFFFFFFFFFFFFFFFFFFFFFFFFFFFFFFFFFFFFF AND PUSH20 0xFFFFFFFFFFFFFFFFFFFFFFFFFFFFFFFFFFFFFFFF AND DUP2 MSTORE PUSH1 0x20 ADD SWAP1 DUP2 MSTORE PUSH1 0x20 ADD PUSH1 0x0 KECCAK256 PUSH1 0x0 PUSH2 0x4AB PUSH2 0xB96 JUMP JUMPDEST PUSH20 0xFFFFFFFFFFFFFFFFFFFFFFFFFFFFFFFFFFFFFFFF AND PUSH20 0xFFFFFFFFFFFFFFFFFFFFFFFFFFFFFFFFFFFFFFFF AND DUP2 MSTORE PUSH1 0x20 ADD SWAP1 DUP2 MSTORE PUSH1 0x20 ADD PUSH1 0x0 KECCAK256 SLOAD SWAP1 POP DUP3 DUP2 LT ISZERO PUSH2 0x52B JUMPI PUSH1 0x40 MLOAD PUSH32 0x8C379A000000000000000000000000000000000000000000000000000000000 DUP2 MSTORE PUSH1 0x4 ADD PUSH2 0x522 SWAP1 PUSH2 0x19A1 JUMP JUMPDEST PUSH1 0x40 MLOAD DUP1 SWAP2 SUB SWAP1 REVERT JUMPDEST PUSH2 0x53F DUP6 PUSH2 0x537 PUSH2 0xB96 JUMP JUMPDEST DUP6 DUP5 SUB PUSH2 0xB9E JUMP JUMPDEST PUSH1 0x1 SWAP2 POP POP SWAP4 SWAP3 POP POP POP JUMP JUMPDEST PUSH1 0x0 PUSH1 0x12 SWAP1 POP SWAP1 JUMP JUMPDEST PUSH1 0x0 PUSH2 0x5F6 PUSH2 0x561 PUSH2 0xB96 JUMP JUMPDEST DUP5 DUP5 PUSH1 0x2 PUSH1 0x0 PUSH2 0x56F PUSH2 0xB96 JUMP JUMPDEST PUSH20 0xFFFFFFFFFFFFFFFFFFFFFFFFFFFFFFFFFFFFFFFF AND PUSH20 0xFFFFFFFFFFFFFFFFFFFFFFFFFFFFFFFFFFFFFFFF AND DUP2 MSTORE PUSH1 0x20 ADD SWAP1 DUP2 MSTORE PUSH1 0x20 ADD PUSH1 0x0 KECCAK256 PUSH1 0x0 DUP9 PUSH20 0xFFFFFFFFFFFFFFFFFFFFFFFFFFFFFFFFFFFFFFFF AND PUSH20 0xFFFFFFFFFFFFFFFFFFFFFFFFFFFFFFFFFFFFFFFF AND DUP2 MSTORE PUSH1 0x20 ADD SWAP1 DUP2 MSTORE PUSH1 0x20 ADD PUSH1 0x0 KECCAK256 SLOAD PUSH2 0x5F1 SWAP2 SWAP1 PUSH2 0x1AF3 JUMP JUMPDEST PUSH2 0xB9E JUMP JUMPDEST PUSH1 0x1 SWAP1 POP SWAP3 SWAP2 POP POP JUMP JUMPDEST PUSH2 0x608 PUSH2 0xB96 JUMP JUMPDEST PUSH20 0xFFFFFFFFFFFFFFFFFFFFFFFFFFFFFFFFFFFFFFFF AND PUSH2 0x626 PUSH2 0x853 JUMP JUMPDEST PUSH20 0xFFFFFFFFFFFFFFFFFFFFFFFFFFFFFFFFFFFFFFFF AND EQ PUSH2 0x67C JUMPI PUSH1 0x40 MLOAD PUSH32 0x8C379A000000000000000000000000000000000000000000000000000000000 DUP2 MSTORE PUSH1 0x4 ADD PUSH2 0x673 SWAP1 PUSH2 0x19C1 JUMP JUMPDEST PUSH1 0x40 MLOAD DUP1 SWAP2 SUB SWAP1 REVERT JUMPDEST PUSH1 0x0 DUP2 GT PUSH2 0x6BF JUMPI PUSH1 0x40 MLOAD PUSH32 0x8C379A000000000000000000000000000000000000000000000000000000000 DUP2 MSTORE PUSH1 0x4 ADD PUSH2 0x6B6 SWAP1 PUSH2 0x1981 JUMP JUMPDEST PUSH1 0x40 MLOAD DUP1 SWAP2 SUB SWAP1 REVERT JUMPDEST PUSH2 0x6C9 DUP3 DUP3 PUSH2 0xFED JUMP JUMPDEST POP POP JUMP JUMPDEST PUSH2 0x6DE PUSH2 0x6D8 PUSH2 0xB96 JUMP JUMPDEST DUP3 PUSH2 0x114E JUMP JUMPDEST POP JUMP JUMPDEST PUSH1 0x0 PUSH1 0x1 PUSH1 0x0 DUP4 PUSH20 0xFFFFFFFFFFFFFFFFFFFFFFFFFFFFFFFFFFFFFFFF AND PUSH20 0xFFFFFFFFFFFFFFFFFFFFFFFFFFFFFFFFFFFFFFFF AND DUP2 MSTORE PUSH1 0x20 ADD SWAP1 DUP2 MSTORE PUSH1 0x20 ADD PUSH1 0x0 KECCAK256 SLOAD SWAP1 POP SWAP2 SWAP1 POP JUMP JUMPDEST PUSH2 0x732 PUSH2 0xB96 JUMP JUMPDEST PUSH20 0xFFFFFFFFFFFFFFFFFFFFFFFFFFFFFFFFFFFFFFFF AND PUSH2 0x750 PUSH2 0x853 JUMP JUMPDEST PUSH20 0xFFFFFFFFFFFFFFFFFFFFFFFFFFFFFFFFFFFFFFFF AND EQ PUSH2 0x7A6 JUMPI PUSH1 0x40 MLOAD PUSH32 0x8C379A000000000000000000000000000000000000000000000000000000000 DUP2 MSTORE PUSH1 0x4 ADD PUSH2 0x79D SWAP1 PUSH2 0x19C1 JUMP JUMPDEST PUSH1 0x40 MLOAD DUP1 SWAP2 SUB SWAP1 REVERT JUMPDEST PUSH2 0x7B0 PUSH1 0x0 PUSH2 0x1327 JUMP JUMPDEST JUMP JUMPDEST PUSH1 0x0 PUSH2 0x7C5 DUP4 PUSH2 0x7C0 PUSH2 0xB96 JUMP JUMPDEST PUSH2 0xA17 JUMP JUMPDEST SWAP1 POP DUP2 DUP2 LT ISZERO PUSH2 0x80A JUMPI PUSH1 0x40 MLOAD PUSH32 0x8C379A000000000000000000000000000000000000000000000000000000000 DUP2 MSTORE PUSH1 0x4 ADD PUSH2 0x801 SWAP1 PUSH2 0x19E1 JUMP JUMPDEST PUSH1 0x40 MLOAD DUP1 SWAP2 SUB SWAP1 REVERT JUMPDEST PUSH2 0x81E DUP4 PUSH2 0x816 PUSH2 0xB96 JUMP JUMPDEST DUP5 DUP5 SUB PUSH2 0xB9E JUMP JUMPDEST PUSH2 0x828 DUP4 DUP4 PUSH2 0x114E JUMP JUMPDEST POP POP POP JUMP JUMPDEST PUSH1 0x6 PUSH1 0x0 SWAP1 SLOAD SWAP1 PUSH2 0x100 EXP SWAP1 DIV PUSH20 0xFFFFFFFFFFFFFFFFFFFFFFFFFFFFFFFFFFFFFFFF AND DUP2 JUMP JUMPDEST PUSH1 0x0 DUP1 PUSH1 0x0 SWAP1 SLOAD SWAP1 PUSH2 0x100 EXP SWAP1 DIV PUSH20 0xFFFFFFFFFFFFFFFFFFFFFFFFFFFFFFFFFFFFFFFF AND SWAP1 POP SWAP1 JUMP JUMPDEST PUSH1 0x60 PUSH1 0x5 DUP1 SLOAD PUSH2 0x88B SWAP1 PUSH2 0x1C29 JUMP JUMPDEST DUP1 PUSH1 0x1F ADD PUSH1 0x20 DUP1 SWAP2 DIV MUL PUSH1 0x20 ADD PUSH1 0x40 MLOAD SWAP1 DUP2 ADD PUSH1 0x40 MSTORE DUP1 SWAP3 SWAP2 SWAP1 DUP2 DUP2 MSTORE PUSH1 0x20 ADD DUP3 DUP1 SLOAD PUSH2 0x8B7 SWAP1 PUSH2 0x1C29 JUMP JUMPDEST DUP1 ISZERO PUSH2 0x904 JUMPI DUP1 PUSH1 0x1F LT PUSH2 0x8D9 JUMPI PUSH2 0x100 DUP1 DUP4 SLOAD DIV MUL DUP4 MSTORE SWAP2 PUSH1 0x20 ADD SWAP2 PUSH2 0x904 JUMP JUMPDEST DUP3 ADD SWAP2 SWAP1 PUSH1 0x0 MSTORE PUSH1 0x20 PUSH1 0x0 KECCAK256 SWAP1 JUMPDEST DUP2 SLOAD DUP2 MSTORE SWAP1 PUSH1 0x1 ADD SWAP1 PUSH1 0x20 ADD DUP1 DUP4 GT PUSH2 0x8E7 JUMPI DUP3 SWAP1 SUB PUSH1 0x1F AND DUP3 ADD SWAP2 JUMPDEST POP POP POP POP POP SWAP1 POP SWAP1 JUMP JUMPDEST PUSH1 0x0 DUP1 PUSH1 0x2 PUSH1 0x0 PUSH2 0x91D PUSH2 0xB96 JUMP JUMPDEST PUSH20 0xFFFFFFFFFFFFFFFFFFFFFFFFFFFFFFFFFFFFFFFF AND PUSH20 0xFFFFFFFFFFFFFFFFFFFFFFFFFFFFFFFFFFFFFFFF AND DUP2 MSTORE PUSH1 0x20 ADD SWAP1 DUP2 MSTORE PUSH1 0x20 ADD PUSH1 0x0 KECCAK256 PUSH1 0x0 DUP6 PUSH20 0xFFFFFFFFFFFFFFFFFFFFFFFFFFFFFFFFFFFFFFFF AND PUSH20 0xFFFFFFFFFFFFFFFFFFFFFFFFFFFFFFFFFFFFFFFF AND DUP2 MSTORE PUSH1 0x20 ADD SWAP1 DUP2 MSTORE PUSH1 0x20 ADD PUSH1 0x0 KECCAK256 SLOAD SWAP1 POP DUP3 DUP2 LT ISZERO PUSH2 0x9DA JUMPI PUSH1 0x40 MLOAD PUSH32 0x8C379A000000000000000000000000000000000000000000000000000000000 DUP2 MSTORE PUSH1 0x4 ADD PUSH2 0x9D1 SWAP1 PUSH2 0x1A61 JUMP JUMPDEST PUSH1 0x40 MLOAD DUP1 SWAP2 SUB SWAP1 REVERT JUMPDEST PUSH2 0x9EE PUSH2 0x9E5 PUSH2 0xB96 JUMP JUMPDEST DUP6 DUP6 DUP5 SUB PUSH2 0xB9E JUMP JUMPDEST PUSH1 0x1 SWAP2 POP POP SWAP3 SWAP2 POP POP JUMP JUMPDEST PUSH1 0x0 PUSH2 0xA0D PUSH2 0xA06 PUSH2 0xB96 JUMP JUMPDEST DUP5 DUP5 PUSH2 0xD69 JUMP JUMPDEST PUSH1 0x1 SWAP1 POP SWAP3 SWAP2 POP POP JUMP JUMPDEST PUSH1 0x0 PUSH1 0x2 PUSH1 0x0 DUP5 PUSH20 0xFFFFFFFFFFFFFFFFFFFFFFFFFFFFFFFFFFFFFFFF AND PUSH20 0xFFFFFFFFFFFFFFFFFFFFFFFFFFFFFFFFFFFFFFFF AND DUP2 MSTORE PUSH1 0x20 ADD SWAP1 DUP2 MSTORE PUSH1 0x20 ADD PUSH1 0x0 KECCAK256 PUSH1 0x0 DUP4 PUSH20 0xFFFFFFFFFFFFFFFFFFFFFFFFFFFFFFFFFFFFFFFF AND PUSH20 0xFFFFFFFFFFFFFFFFFFFFFFFFFFFFFFFFFFFFFFFF AND DUP2 MSTORE PUSH1 0x20 ADD SWAP1 DUP2 MSTORE PUSH1 0x20 ADD PUSH1 0x0 KECCAK256 SLOAD SWAP1 POP SWAP3 SWAP2 POP POP JUMP JUMPDEST PUSH2 0xAA6 PUSH2 0xB96 JUMP JUMPDEST PUSH20 0xFFFFFFFFFFFFFFFFFFFFFFFFFFFFFFFFFFFFFFFF AND PUSH2 0xAC4 PUSH2 0x853 JUMP JUMPDEST PUSH20 0xFFFFFFFFFFFFFFFFFFFFFFFFFFFFFFFFFFFFFFFF AND EQ PUSH2 0xB1A JUMPI PUSH1 0x40 MLOAD PUSH32 0x8C379A000000000000000000000000000000000000000000000000000000000 DUP2 MSTORE PUSH1 0x4 ADD PUSH2 0xB11 SWAP1 PUSH2 0x19C1 JUMP JUMPDEST PUSH1 0x40 MLOAD DUP1 SWAP2 SUB SWAP1 REVERT JUMPDEST PUSH1 0x0 PUSH20 0xFFFFFFFFFFFFFFFFFFFFFFFFFFFFFFFFFFFFFFFF AND DUP2 PUSH20 0xFFFFFFFFFFFFFFFFFFFFFFFFFFFFFFFFFFFFFFFF AND EQ ISZERO PUSH2 0xB8A JUMPI PUSH1 0x40 MLOAD PUSH32 0x8C379A000000000000000000000000000000000000000000000000000000000 DUP2 MSTORE PUSH1 0x4 ADD PUSH2 0xB81 SWAP1 PUSH2 0x1921 JUMP JUMPDEST PUSH1 0x40 MLOAD DUP1 SWAP2 SUB SWAP1 REVERT JUMPDEST PUSH2 0xB93 DUP2 PUSH2 0x1327 JUMP JUMPDEST POP JUMP JUMPDEST PUSH1 0x0 CALLER SWAP1 POP SWAP1 JUMP JUMPDEST PUSH1 0x0 PUSH20 0xFFFFFFFFFFFFFFFFFFFFFFFFFFFFFFFFFFFFFFFF AND DUP4 PUSH20 0xFFFFFFFFFFFFFFFFFFFFFFFFFFFFFFFFFFFFFFFF AND EQ ISZERO PUSH2 0xC0E JUMPI PUSH1 0x40 MLOAD PUSH32 0x8C379A000000000000000000000000000000000000000000000000000000000 DUP2 MSTORE PUSH1 0x4 ADD PUSH2 0xC05 SWAP1 PUSH2 0x1A41 JUMP JUMPDEST PUSH1 0x40 MLOAD DUP1 SWAP2 SUB SWAP1 REVERT JUMPDEST PUSH1 0x0 PUSH20 0xFFFFFFFFFFFFFFFFFFFFFFFFFFFFFFFFFFFFFFFF AND DUP3 PUSH20 0xFFFFFFFFFFFFFFFFFFFFFFFFFFFFFFFFFFFFFFFF AND EQ ISZERO PUSH2 0xC7E JUMPI PUSH1 0x40 MLOAD PUSH32 0x8C379A000000000000000000000000000000000000000000000000000000000 DUP2 MSTORE PUSH1 0x4 ADD PUSH2 0xC75 SWAP1 PUSH2 0x1941 JUMP JUMPDEST PUSH1 0x40 MLOAD DUP1 SWAP2 SUB SWAP1 REVERT JUMPDEST DUP1 PUSH1 0x2 PUSH1 0x0 DUP6 PUSH20 0xFFFFFFFFFFFFFFFFFFFFFFFFFFFFFFFFFFFFFFFF AND PUSH20 0xFFFFFFFFFFFFFFFFFFFFFFFFFFFFFFFFFFFFFFFF AND DUP2 MSTORE PUSH1 0x20 ADD SWAP1 DUP2 MSTORE PUSH1 0x20 ADD PUSH1 0x0 KECCAK256 PUSH1 0x0 DUP5 PUSH20 0xFFFFFFFFFFFFFFFFFFFFFFFFFFFFFFFFFFFFFFFF AND PUSH20 0xFFFFFFFFFFFFFFFFFFFFFFFFFFFFFFFFFFFFFFFF AND DUP2 MSTORE PUSH1 0x20 ADD SWAP1 DUP2 MSTORE PUSH1 0x20 ADD PUSH1 0x0 KECCAK256 DUP2 SWAP1 SSTORE POP DUP2 PUSH20 0xFFFFFFFFFFFFFFFFFFFFFFFFFFFFFFFFFFFFFFFF AND DUP4 PUSH20 0xFFFFFFFFFFFFFFFFFFFFFFFFFFFFFFFFFFFFFFFF AND PUSH32 0x8C5BE1E5EBEC7D5BD14F71427D1E84F3DD0314C0F7B2291E5B200AC8C7C3B925 DUP4 PUSH1 0x40 MLOAD PUSH2 0xD5C SWAP2 SWAP1 PUSH2 0x1AA1 JUMP JUMPDEST PUSH1 0x40 MLOAD DUP1 SWAP2 SUB SWAP1 LOG3 POP POP POP JUMP JUMPDEST PUSH1 0x0 PUSH20 0xFFFFFFFFFFFFFFFFFFFFFFFFFFFFFFFFFFFFFFFF AND DUP4 PUSH20 0xFFFFFFFFFFFFFFFFFFFFFFFFFFFFFFFFFFFFFFFF AND EQ ISZERO PUSH2 0xDD9 JUMPI PUSH1 0x40 MLOAD PUSH32 0x8C379A000000000000000000000000000000000000000000000000000000000 DUP2 MSTORE PUSH1 0x4 ADD PUSH2 0xDD0 SWAP1 PUSH2 0x1A21 JUMP JUMPDEST PUSH1 0x40 MLOAD DUP1 SWAP2 SUB SWAP1 REVERT JUMPDEST PUSH1 0x0 PUSH20 0xFFFFFFFFFFFFFFFFFFFFFFFFFFFFFFFFFFFFFFFF AND DUP3 PUSH20 0xFFFFFFFFFFFFFFFFFFFFFFFFFFFFFFFFFFFFFFFF AND EQ ISZERO PUSH2 0xE49 JUMPI PUSH1 0x40 MLOAD PUSH32 0x8C379A000000000000000000000000000000000000000000000000000000000 DUP2 MSTORE PUSH1 0x4 ADD PUSH2 0xE40 SWAP1 PUSH2 0x18E1 JUMP JUMPDEST PUSH1 0x40 MLOAD DUP1 SWAP2 SUB SWAP1 REVERT JUMPDEST PUSH2 0xE54 DUP4 DUP4 DUP4 PUSH2 0x13EB JUMP JUMPDEST PUSH1 0x0 PUSH1 0x1 PUSH1 0x0 DUP6 PUSH20 0xFFFFFFFFFFFFFFFFFFFFFFFFFFFFFFFFFFFFFFFF AND PUSH20 0xFFFFFFFFFFFFFFFFFFFFFFFFFFFFFFFFFFFFFFFF AND DUP2 MSTORE PUSH1 0x20 ADD SWAP1 DUP2 MSTORE PUSH1 0x20 ADD PUSH1 0x0 KECCAK256 SLOAD SWAP1 POP DUP2 DUP2 LT ISZERO PUSH2 0xEDB JUMPI PUSH1 0x40 MLOAD PUSH32 0x8C379A000000000000000000000000000000000000000000000000000000000 DUP2 MSTORE PUSH1 0x4 ADD PUSH2 0xED2 SWAP1 PUSH2 0x1961 JUMP JUMPDEST PUSH1 0x40 MLOAD DUP1 SWAP2 SUB SWAP1 REVERT JUMPDEST DUP2 DUP2 SUB PUSH1 0x1 PUSH1 0x0 DUP7 PUSH20 0xFFFFFFFFFFFFFFFFFFFFFFFFFFFFFFFFFFFFFFFF AND PUSH20 0xFFFFFFFFFFFFFFFFFFFFFFFFFFFFFFFFFFFFFFFF AND DUP2 MSTORE PUSH1 0x20 ADD SWAP1 DUP2 MSTORE PUSH1 0x20 ADD PUSH1 0x0 KECCAK256 DUP2 SWAP1 SSTORE POP DUP2 PUSH1 0x1 PUSH1 0x0 DUP6 PUSH20 0xFFFFFFFFFFFFFFFFFFFFFFFFFFFFFFFFFFFFFFFF AND PUSH20 0xFFFFFFFFFFFFFFFFFFFFFFFFFFFFFFFFFFFFFFFF AND DUP2 MSTORE PUSH1 0x20 ADD SWAP1 DUP2 MSTORE PUSH1 0x20 ADD PUSH1 0x0 KECCAK256 PUSH1 0x0 DUP3 DUP3 SLOAD PUSH2 0xF70 SWAP2 SWAP1 PUSH2 0x1AF3 JUMP JUMPDEST SWAP3 POP POP DUP2 SWAP1 SSTORE POP DUP3 PUSH20 0xFFFFFFFFFFFFFFFFFFFFFFFFFFFFFFFFFFFFFFFF AND DUP5 PUSH20 0xFFFFFFFFFFFFFFFFFFFFFFFFFFFFFFFFFFFFFFFF AND PUSH32 0xDDF252AD1BE2C89B69C2B068FC378DAA952BA7F163C4A11628F55A4DF523B3EF DUP5 PUSH1 0x40 MLOAD PUSH2 0xFD4 SWAP2 SWAP1 PUSH2 0x1AA1 JUMP JUMPDEST PUSH1 0x40 MLOAD DUP1 SWAP2 SUB SWAP1 LOG3 PUSH2 0xFE7 DUP5 DUP5 DUP5 PUSH2 0x148A JUMP JUMPDEST POP POP POP POP JUMP JUMPDEST PUSH1 0x0 PUSH20 0xFFFFFFFFFFFFFFFFFFFFFFFFFFFFFFFFFFFFFFFF AND DUP3 PUSH20 0xFFFFFFFFFFFFFFFFFFFFFFFFFFFFFFFFFFFFFFFF AND EQ ISZERO PUSH2 0x105D JUMPI PUSH1 0x40 MLOAD PUSH32 0x8C379A000000000000000000000000000000000000000000000000000000000 DUP2 MSTORE PUSH1 0x4 ADD PUSH2 0x1054 SWAP1 PUSH2 0x1A81 JUMP JUMPDEST PUSH1 0x40 MLOAD DUP1 SWAP2 SUB SWAP1 REVERT JUMPDEST PUSH2 0x1069 PUSH1 0x0 DUP4 DUP4 PUSH2 0x13EB JUMP JUMPDEST DUP1 PUSH1 0x3 PUSH1 0x0 DUP3 DUP3 SLOAD PUSH2 0x107B SWAP2 SWAP1 PUSH2 0x1AF3 JUMP JUMPDEST SWAP3 POP POP DUP2 SWAP1 SSTORE POP DUP1 PUSH1 0x1 PUSH1 0x0 DUP5 PUSH20 0xFFFFFFFFFFFFFFFFFFFFFFFFFFFFFFFFFFFFFFFF AND PUSH20 0xFFFFFFFFFFFFFFFFFFFFFFFFFFFFFFFFFFFFFFFF AND DUP2 MSTORE PUSH1 0x20 ADD SWAP1 DUP2 MSTORE PUSH1 0x20 ADD PUSH1 0x0 KECCAK256 PUSH1 0x0 DUP3 DUP3 SLOAD PUSH2 0x10D1 SWAP2 SWAP1 PUSH2 0x1AF3 JUMP JUMPDEST SWAP3 POP POP DUP2 SWAP1 SSTORE POP DUP2 PUSH20 0xFFFFFFFFFFFFFFFFFFFFFFFFFFFFFFFFFFFFFFFF AND PUSH1 0x0 PUSH20 0xFFFFFFFFFFFFFFFFFFFFFFFFFFFFFFFFFFFFFFFF AND PUSH32 0xDDF252AD1BE2C89B69C2B068FC378DAA952BA7F163C4A11628F55A4DF523B3EF DUP4 PUSH1 0x40 MLOAD PUSH2 0x1136 SWAP2 SWAP1 PUSH2 0x1AA1 JUMP JUMPDEST PUSH1 0x40 MLOAD DUP1 SWAP2 SUB SWAP1 LOG3 PUSH2 0x114A PUSH1 0x0 DUP4 DUP4 PUSH2 0x148A JUMP JUMPDEST POP POP JUMP JUMPDEST PUSH1 0x0 PUSH20 0xFFFFFFFFFFFFFFFFFFFFFFFFFFFFFFFFFFFFFFFF AND DUP3 PUSH20 0xFFFFFFFFFFFFFFFFFFFFFFFFFFFFFFFFFFFFFFFF AND EQ ISZERO PUSH2 0x11BE JUMPI PUSH1 0x40 MLOAD PUSH32 0x8C379A000000000000000000000000000000000000000000000000000000000 DUP2 MSTORE PUSH1 0x4 ADD PUSH2 0x11B5 SWAP1 PUSH2 0x1A01 JUMP JUMPDEST PUSH1 0x40 MLOAD DUP1 SWAP2 SUB SWAP1 REVERT JUMPDEST PUSH2 0x11CA DUP3 PUSH1 0x0 DUP4 PUSH2 0x13EB JUMP JUMPDEST PUSH1 0x0 PUSH1 0x1 PUSH1 0x0 DUP5 PUSH20 0xFFFFFFFFFFFFFFFFFFFFFFFFFFFFFFFFFFFFFFFF AND PUSH20 0xFFFFFFFFFFFFFFFFFFFFFFFFFFFFFFFFFFFFFFFF AND DUP2 MSTORE PUSH1 0x20 ADD SWAP1 DUP2 MSTORE PUSH1 0x20 ADD PUSH1 0x0 KECCAK256 SLOAD SWAP1 POP DUP2 DUP2 LT ISZERO PUSH2 0x1251 JUMPI PUSH1 0x40 MLOAD PUSH32 0x8C379A000000000000000000000000000000000000000000000000000000000 DUP2 MSTORE PUSH1 0x4 ADD PUSH2 0x1248 SWAP1 PUSH2 0x1901 JUMP JUMPDEST PUSH1 0x40 MLOAD DUP1 SWAP2 SUB SWAP1 REVERT JUMPDEST DUP2 DUP2 SUB PUSH1 0x1 PUSH1 0x0 DUP6 PUSH20 0xFFFFFFFFFFFFFFFFFFFFFFFFFFFFFFFFFFFFFFFF AND PUSH20 0xFFFFFFFFFFFFFFFFFFFFFFFFFFFFFFFFFFFFFFFF AND DUP2 MSTORE PUSH1 0x20 ADD SWAP1 DUP2 MSTORE PUSH1 0x20 ADD PUSH1 0x0 KECCAK256 DUP2 SWAP1 SSTORE POP DUP2 PUSH1 0x3 PUSH1 0x0 DUP3 DUP3 SLOAD PUSH2 0x12A9 SWAP2 SWAP1 PUSH2 0x1B49 JUMP JUMPDEST SWAP3 POP POP DUP2 SWAP1 SSTORE POP PUSH1 0x0 PUSH20 0xFFFFFFFFFFFFFFFFFFFFFFFFFFFFFFFFFFFFFFFF AND DUP4 PUSH20 0xFFFFFFFFFFFFFFFFFFFFFFFFFFFFFFFFFFFFFFFF AND PUSH32 0xDDF252AD1BE2C89B69C2B068FC378DAA952BA7F163C4A11628F55A4DF523B3EF DUP5 PUSH1 0x40 MLOAD PUSH2 0x130E SWAP2 SWAP1 PUSH2 0x1AA1 JUMP JUMPDEST PUSH1 0x40 MLOAD DUP1 SWAP2 SUB SWAP1 LOG3 PUSH2 0x1322 DUP4 PUSH1 0x0 DUP5 PUSH2 0x148A JUMP JUMPDEST POP POP POP JUMP JUMPDEST PUSH1 0x0 DUP1 PUSH1 0x0 SWAP1 SLOAD SWAP1 PUSH2 0x100 EXP SWAP1 DIV PUSH20 0xFFFFFFFFFFFFFFFFFFFFFFFFFFFFFFFFFFFFFFFF AND SWAP1 POP DUP2 PUSH1 0x0 DUP1 PUSH2 0x100 EXP DUP2 SLOAD DUP2 PUSH20 0xFFFFFFFFFFFFFFFFFFFFFFFFFFFFFFFFFFFFFFFF MUL NOT AND SWAP1 DUP4 PUSH20 0xFFFFFFFFFFFFFFFFFFFFFFFFFFFFFFFFFFFFFFFF AND MUL OR SWAP1 SSTORE POP DUP2 PUSH20 0xFFFFFFFFFFFFFFFFFFFFFFFFFFFFFFFFFFFFFFFF AND DUP2 PUSH20 0xFFFFFFFFFFFFFFFFFFFFFFFFFFFFFFFFFFFFFFFF AND PUSH32 0x8BE0079C531659141344CD1FD0A4F28419497F9722A3DAAFE3B4186F6B6457E0 PUSH1 0x40 MLOAD PUSH1 0x40 MLOAD DUP1 SWAP2 SUB SWAP1 LOG3 POP POP JUMP JUMPDEST PUSH2 0x13F6 DUP4 DUP4 DUP4 PUSH2 0x148F JUMP JUMPDEST PUSH1 0x6 PUSH1 0x0 SWAP1 SLOAD SWAP1 PUSH2 0x100 EXP SWAP1 DIV PUSH20 0xFFFFFFFFFFFFFFFFFFFFFFFFFFFFFFFFFFFFFFFF AND PUSH20 0xFFFFFFFFFFFFFFFFFFFFFFFFFFFFFFFFFFFFFFFF AND PUSH4 0xC00C125C DUP4 DUP4 PUSH1 0x40 MLOAD DUP4 PUSH4 0xFFFFFFFF AND PUSH1 0xE0 SHL DUP2 MSTORE PUSH1 0x4 ADD PUSH2 0x1453 SWAP3 SWAP2 SWAP1 PUSH2 0x1860 JUMP JUMPDEST PUSH1 0x0 PUSH1 0x40 MLOAD DUP1 DUP4 SUB DUP2 PUSH1 0x0 DUP8 DUP1 EXTCODESIZE ISZERO DUP1 ISZERO PUSH2 0x146D JUMPI PUSH1 0x0 DUP1 REVERT JUMPDEST POP GAS CALL ISZERO DUP1 ISZERO PUSH2 0x1481 JUMPI RETURNDATASIZE PUSH1 0x0 DUP1 RETURNDATACOPY RETURNDATASIZE PUSH1 0x0 REVERT JUMPDEST POP POP POP POP POP POP POP JUMP JUMPDEST POP POP POP JUMP JUMPDEST POP POP POP JUMP JUMPDEST PUSH1 0x0 DUP2 CALLDATALOAD SWAP1 POP PUSH2 0x14A3 DUP2 PUSH2 0x20AA JUMP JUMPDEST SWAP3 SWAP2 POP POP JUMP JUMPDEST PUSH1 0x0 DUP2 CALLDATALOAD SWAP1 POP PUSH2 0x14B8 DUP2 PUSH2 0x20C1 JUMP JUMPDEST SWAP3 SWAP2 POP POP JUMP JUMPDEST PUSH1 0x0 PUSH1 0x20 DUP3 DUP5 SUB SLT ISZERO PUSH2 0x14D0 JUMPI PUSH1 0x0 DUP1 REVERT JUMPDEST PUSH1 0x0 PUSH2 0x14DE DUP5 DUP3 DUP6 ADD PUSH2 0x1494 JUMP JUMPDEST SWAP2 POP POP SWAP3 SWAP2 POP POP JUMP JUMPDEST PUSH1 0x0 DUP1 PUSH1 0x40 DUP4 DUP6 SUB SLT ISZERO PUSH2 0x14FA JUMPI PUSH1 0x0 DUP1 REVERT JUMPDEST PUSH1 0x0 PUSH2 0x1508 DUP6 DUP3 DUP7 ADD PUSH2 0x1494 JUMP JUMPDEST SWAP3 POP POP PUSH1 0x20 PUSH2 0x1519 DUP6 DUP3 DUP7 ADD PUSH2 0x1494 JUMP JUMPDEST SWAP2 POP POP SWAP3 POP SWAP3 SWAP1 POP JUMP JUMPDEST PUSH1 0x0 DUP1 PUSH1 0x0 PUSH1 0x60 DUP5 DUP7 SUB SLT ISZERO PUSH2 0x1538 JUMPI PUSH1 0x0 DUP1 REVERT JUMPDEST PUSH1 0x0 PUSH2 0x1546 DUP7 DUP3 DUP8 ADD PUSH2 0x1494 JUMP JUMPDEST SWAP4 POP POP PUSH1 0x20 PUSH2 0x1557 DUP7 DUP3 DUP8 ADD PUSH2 0x1494 JUMP JUMPDEST SWAP3 POP POP PUSH1 0x40 PUSH2 0x1568 DUP7 DUP3 DUP8 ADD PUSH2 0x14A9 JUMP JUMPDEST SWAP2 POP POP SWAP3 POP SWAP3 POP SWAP3 JUMP JUMPDEST PUSH1 0x0 DUP1 PUSH1 0x40 DUP4 DUP6 SUB SLT ISZERO PUSH2 0x1585 JUMPI PUSH1 0x0 DUP1 REVERT JUMPDEST PUSH1 0x0 PUSH2 0x1593 DUP6 DUP3 DUP7 ADD PUSH2 0x1494 JUMP JUMPDEST SWAP3 POP POP PUSH1 0x20 PUSH2 0x15A4 DUP6 DUP3 DUP7 ADD PUSH2 0x14A9 JUMP JUMPDEST SWAP2 POP POP SWAP3 POP SWAP3 SWAP1 POP JUMP JUMPDEST PUSH1 0x0 PUSH1 0x20 DUP3 DUP5 SUB SLT ISZERO PUSH2 0x15C0 JUMPI PUSH1 0x0 DUP1 REVERT JUMPDEST PUSH1 0x0 PUSH2 0x15CE DUP5 DUP3 DUP6 ADD PUSH2 0x14A9 JUMP JUMPDEST SWAP2 POP POP SWAP3 SWAP2 POP POP JUMP JUMPDEST PUSH2 0x15E0 DUP2 PUSH2 0x1B7D JUMP JUMPDEST DUP3 MSTORE POP POP JUMP JUMPDEST PUSH2 0x15EF DUP2 PUSH2 0x1B8F JUMP JUMPDEST DUP3 MSTORE POP POP JUMP JUMPDEST PUSH2 0x15FE DUP2 PUSH2 0x1BD2 JUMP JUMPDEST DUP3 MSTORE POP POP JUMP JUMPDEST PUSH1 0x0 PUSH2 0x160F DUP3 PUSH2 0x1AD7 JUMP JUMPDEST PUSH2 0x1619 DUP2 DUP6 PUSH2 0x1AE2 JUMP JUMPDEST SWAP4 POP PUSH2 0x1629 DUP2 DUP6 PUSH1 0x20 DUP7 ADD PUSH2 0x1BF6 JUMP JUMPDEST PUSH2 0x1632 DUP2 PUSH2 0x1CB9 JUMP JUMPDEST DUP5 ADD SWAP2 POP POP SWAP3 SWAP2 POP POP JUMP JUMPDEST PUSH1 0x0 PUSH2 0x164A PUSH1 0x23 DUP4 PUSH2 0x1AE2 JUMP JUMPDEST SWAP2 POP PUSH2 0x1655 DUP3 PUSH2 0x1CCA JUMP JUMPDEST PUSH1 0x40 DUP3 ADD SWAP1 POP SWAP2 SWAP1 POP JUMP JUMPDEST PUSH1 0x0 PUSH2 0x166D PUSH1 0x22 DUP4 PUSH2 0x1AE2 JUMP JUMPDEST SWAP2 POP PUSH2 0x1678 DUP3 PUSH2 0x1D19 JUMP JUMPDEST PUSH1 0x40 DUP3 ADD SWAP1 POP SWAP2 SWAP1 POP JUMP JUMPDEST PUSH1 0x0 PUSH2 0x1690 PUSH1 0x26 DUP4 PUSH2 0x1AE2 JUMP JUMPDEST SWAP2 POP PUSH2 0x169B DUP3 PUSH2 0x1D68 JUMP JUMPDEST PUSH1 0x40 DUP3 ADD SWAP1 POP SWAP2 SWAP1 POP JUMP JUMPDEST PUSH1 0x0 PUSH2 0x16B3 PUSH1 0x22 DUP4 PUSH2 0x1AE2 JUMP JUMPDEST SWAP2 POP PUSH2 0x16BE DUP3 PUSH2 0x1DB7 JUMP JUMPDEST PUSH1 0x40 DUP3 ADD SWAP1 POP SWAP2 SWAP1 POP JUMP JUMPDEST PUSH1 0x0 PUSH2 0x16D6 PUSH1 0x26 DUP4 PUSH2 0x1AE2 JUMP JUMPDEST SWAP2 POP PUSH2 0x16E1 DUP3 PUSH2 0x1E06 JUMP JUMPDEST PUSH1 0x40 DUP3 ADD SWAP1 POP SWAP2 SWAP1 POP JUMP JUMPDEST PUSH1 0x0 PUSH2 0x16F9 PUSH1 0xE DUP4 PUSH2 0x1AE2 JUMP JUMPDEST SWAP2 POP PUSH2 0x1704 DUP3 PUSH2 0x1E55 JUMP JUMPDEST PUSH1 0x20 DUP3 ADD SWAP1 POP SWAP2 SWAP1 POP JUMP JUMPDEST PUSH1 0x0 PUSH2 0x171C PUSH1 0x28 DUP4 PUSH2 0x1AE2 JUMP JUMPDEST SWAP2 POP PUSH2 0x1727 DUP3 PUSH2 0x1E7E JUMP JUMPDEST PUSH1 0x40 DUP3 ADD SWAP1 POP SWAP2 SWAP1 POP JUMP JUMPDEST PUSH1 0x0 PUSH2 0x173F PUSH1 0x20 DUP4 PUSH2 0x1AE2 JUMP JUMPDEST SWAP2 POP PUSH2 0x174A DUP3 PUSH2 0x1ECD JUMP JUMPDEST PUSH1 0x20 DUP3 ADD SWAP1 POP SWAP2 SWAP1 POP JUMP JUMPDEST PUSH1 0x0 PUSH2 0x1762 PUSH1 0x24 DUP4 PUSH2 0x1AE2 JUMP JUMPDEST SWAP2 POP PUSH2 0x176D DUP3 PUSH2 0x1EF6 JUMP JUMPDEST PUSH1 0x40 DUP3 ADD SWAP1 POP SWAP2 SWAP1 POP JUMP JUMPDEST PUSH1 0x0 PUSH2 0x1785 PUSH1 0x21 DUP4 PUSH2 0x1AE2 JUMP JUMPDEST SWAP2 POP PUSH2 0x1790 DUP3 PUSH2 0x1F45 JUMP JUMPDEST PUSH1 0x40 DUP3 ADD SWAP1 POP SWAP2 SWAP1 POP JUMP JUMPDEST PUSH1 0x0 PUSH2 0x17A8 PUSH1 0x25 DUP4 PUSH2 0x1AE2 JUMP JUMPDEST SWAP2 POP PUSH2 0x17B3 DUP3 PUSH2 0x1F94 JUMP JUMPDEST PUSH1 0x40 DUP3 ADD SWAP1 POP SWAP2 SWAP1 POP JUMP JUMPDEST PUSH1 0x0 PUSH2 0x17CB PUSH1 0x24 DUP4 PUSH2 0x1AE2 JUMP JUMPDEST SWAP2 POP PUSH2 0x17D6 DUP3 PUSH2 0x1FE3 JUMP JUMPDEST PUSH1 0x40 DUP3 ADD SWAP1 POP SWAP2 SWAP1 POP JUMP JUMPDEST PUSH1 0x0 PUSH2 0x17EE PUSH1 0x25 DUP4 PUSH2 0x1AE2 JUMP JUMPDEST SWAP2 POP PUSH2 0x17F9 DUP3 PUSH2 0x2032 JUMP JUMPDEST PUSH1 0x40 DUP3 ADD SWAP1 POP SWAP2 SWAP1 POP JUMP JUMPDEST PUSH1 0x0 PUSH2 0x1811 PUSH1 0x1F DUP4 PUSH2 0x1AE2 JUMP JUMPDEST SWAP2 POP PUSH2 0x181C DUP3 PUSH2 0x2081 JUMP JUMPDEST PUSH1 0x20 DUP3 ADD SWAP1 POP SWAP2 SWAP1 POP JUMP JUMPDEST PUSH2 0x1830 DUP2 PUSH2 0x1BBB JUMP JUMPDEST DUP3 MSTORE POP POP JUMP JUMPDEST PUSH2 0x183F DUP2 PUSH2 0x1BC5 JUMP JUMPDEST DUP3 MSTORE POP POP JUMP JUMPDEST PUSH1 0x0 PUSH1 0x20 DUP3 ADD SWAP1 POP PUSH2 0x185A PUSH1 0x0 DUP4 ADD DUP5 PUSH2 0x15D7 JUMP JUMPDEST SWAP3 SWAP2 POP POP JUMP JUMPDEST PUSH1 0x0 PUSH1 0x40 DUP3 ADD SWAP1 POP PUSH2 0x1875 PUSH1 0x0 DUP4 ADD DUP6 PUSH2 0x15D7 JUMP JUMPDEST PUSH2 0x1882 PUSH1 0x20 DUP4 ADD DUP5 PUSH2 0x1827 JUMP JUMPDEST SWAP4 SWAP3 POP POP POP JUMP JUMPDEST PUSH1 0x0 PUSH1 0x20 DUP3 ADD SWAP1 POP PUSH2 0x189E PUSH1 0x0 DUP4 ADD DUP5 PUSH2 0x15E6 JUMP JUMPDEST SWAP3 SWAP2 POP POP JUMP JUMPDEST PUSH1 0x0 PUSH1 0x20 DUP3 ADD SWAP1 POP PUSH2 0x18B9 PUSH1 0x0 DUP4 ADD DUP5 PUSH2 0x15F5 JUMP JUMPDEST SWAP3 SWAP2 POP POP JUMP JUMPDEST PUSH1 0x0 PUSH1 0x20 DUP3 ADD SWAP1 POP DUP2 DUP2 SUB PUSH1 0x0 DUP4 ADD MSTORE PUSH2 0x18D9 DUP2 DUP5 PUSH2 0x1604 JUMP JUMPDEST SWAP1 POP SWAP3 SWAP2 POP POP JUMP JUMPDEST PUSH1 0x0 PUSH1 0x20 DUP3 ADD SWAP1 POP DUP2 DUP2 SUB PUSH1 0x0 DUP4 ADD MSTORE PUSH2 0x18FA DUP2 PUSH2 0x163D JUMP JUMPDEST SWAP1 POP SWAP2 SWAP1 POP JUMP JUMPDEST PUSH1 0x0 PUSH1 0x20 DUP3 ADD SWAP1 POP DUP2 DUP2 SUB PUSH1 0x0 DUP4 ADD MSTORE PUSH2 0x191A DUP2 PUSH2 0x1660 JUMP JUMPDEST SWAP1 POP SWAP2 SWAP1 POP JUMP JUMPDEST PUSH1 0x0 PUSH1 0x20 DUP3 ADD SWAP1 POP DUP2 DUP2 SUB PUSH1 0x0 DUP4 ADD MSTORE PUSH2 0x193A DUP2 PUSH2 0x1683 JUMP JUMPDEST SWAP1 POP SWAP2 SWAP1 POP JUMP JUMPDEST PUSH1 0x0 PUSH1 0x20 DUP3 ADD SWAP1 POP DUP2 DUP2 SUB PUSH1 0x0 DUP4 ADD MSTORE PUSH2 0x195A DUP2 PUSH2 0x16A6 JUMP JUMPDEST SWAP1 POP SWAP2 SWAP1 POP JUMP JUMPDEST PUSH1 0x0 PUSH1 0x20 DUP3 ADD SWAP1 POP DUP2 DUP2 SUB PUSH1 0x0 DUP4 ADD MSTORE PUSH2 0x197A DUP2 PUSH2 0x16C9 JUMP JUMPDEST SWAP1 POP SWAP2 SWAP1 POP JUMP JUMPDEST PUSH1 0x0 PUSH1 0x20 DUP3 ADD SWAP1 POP DUP2 DUP2 SUB PUSH1 0x0 DUP4 ADD MSTORE PUSH2 0x199A DUP2 PUSH2 0x16EC JUMP JUMPDEST SWAP1 POP SWAP2 SWAP1 POP JUMP JUMPDEST PUSH1 0x0 PUSH1 0x20 DUP3 ADD SWAP1 POP DUP2 DUP2 SUB PUSH1 0x0 DUP4 ADD MSTORE PUSH2 0x19BA DUP2 PUSH2 0x170F JUMP JUMPDEST SWAP1 POP SWAP2 SWAP1 POP JUMP JUMPDEST PUSH1 0x0 PUSH1 0x20 DUP3 ADD SWAP1 POP DUP2 DUP2 SUB PUSH1 0x0 DUP4 ADD MSTORE PUSH2 0x19DA DUP2 PUSH2 0x1732 JUMP JUMPDEST SWAP1 POP SWAP2 SWAP1 POP JUMP JUMPDEST PUSH1 0x0 PUSH1 0x20 DUP3 ADD SWAP1 POP DUP2 DUP2 SUB PUSH1 0x0 DUP4 ADD MSTORE PUSH2 0x19FA DUP2 PUSH2 0x1755 JUMP JUMPDEST SWAP1 POP SWAP2 SWAP1 POP JUMP JUMPDEST PUSH1 0x0 PUSH1 0x20 DUP3 ADD SWAP1 POP DUP2 DUP2 SUB PUSH1 0x0 DUP4 ADD MSTORE PUSH2 0x1A1A DUP2 PUSH2 0x1778 JUMP JUMPDEST SWAP1 POP SWAP2 SWAP1 POP JUMP JUMPDEST PUSH1 0x0 PUSH1 0x20 DUP3 ADD SWAP1 POP DUP2 DUP2 SUB PUSH1 0x0 DUP4 ADD MSTORE PUSH2 0x1A3A DUP2 PUSH2 0x179B JUMP JUMPDEST SWAP1 POP SWAP2 SWAP1 POP JUMP JUMPDEST PUSH1 0x0 PUSH1 0x20 DUP3 ADD SWAP1 POP DUP2 DUP2 SUB PUSH1 0x0 DUP4 ADD MSTORE PUSH2 0x1A5A DUP2 PUSH2 0x17BE JUMP JUMPDEST SWAP1 POP SWAP2 SWAP1 POP JUMP JUMPDEST PUSH1 0x0 PUSH1 0x20 DUP3 ADD SWAP1 POP DUP2 DUP2 SUB PUSH1 0x0 DUP4 ADD MSTORE PUSH2 0x1A7A DUP2 PUSH2 0x17E1 JUMP JUMPDEST SWAP1 POP SWAP2 SWAP1 POP JUMP JUMPDEST PUSH1 0x0 PUSH1 0x20 DUP3 ADD SWAP1 POP DUP2 DUP2 SUB PUSH1 0x0 DUP4 ADD MSTORE PUSH2 0x1A9A DUP2 PUSH2 0x1804 JUMP JUMPDEST SWAP1 POP SWAP2 SWAP1 POP JUMP JUMPDEST PUSH1 0x0 PUSH1 0x20 DUP3 ADD SWAP1 POP PUSH2 0x1AB6 PUSH1 0x0 DUP4 ADD DUP5 PUSH2 0x1827 JUMP JUMPDEST SWAP3 SWAP2 POP POP JUMP JUMPDEST PUSH1 0x0 PUSH1 0x20 DUP3 ADD SWAP1 POP PUSH2 0x1AD1 PUSH1 0x0 DUP4 ADD DUP5 PUSH2 0x1836 JUMP JUMPDEST SWAP3 SWAP2 POP POP JUMP JUMPDEST PUSH1 0x0 DUP2 MLOAD SWAP1 POP SWAP2 SWAP1 POP JUMP JUMPDEST PUSH1 0x0 DUP3 DUP3 MSTORE PUSH1 0x20 DUP3 ADD SWAP1 POP SWAP3 SWAP2 POP POP JUMP JUMPDEST PUSH1 0x0 PUSH2 0x1AFE DUP3 PUSH2 0x1BBB JUMP JUMPDEST SWAP2 POP PUSH2 0x1B09 DUP4 PUSH2 0x1BBB JUMP JUMPDEST SWAP3 POP DUP3 PUSH32 0xFFFFFFFFFFFFFFFFFFFFFFFFFFFFFFFFFFFFFFFFFFFFFFFFFFFFFFFFFFFFFFFF SUB DUP3 GT ISZERO PUSH2 0x1B3E JUMPI PUSH2 0x1B3D PUSH2 0x1C5B JUMP JUMPDEST JUMPDEST DUP3 DUP3 ADD SWAP1 POP SWAP3 SWAP2 POP POP JUMP JUMPDEST PUSH1 0x0 PUSH2 0x1B54 DUP3 PUSH2 0x1BBB JUMP JUMPDEST SWAP2 POP PUSH2 0x1B5F DUP4 PUSH2 0x1BBB JUMP JUMPDEST SWAP3 POP DUP3 DUP3 LT ISZERO PUSH2 0x1B72 JUMPI PUSH2 0x1B71 PUSH2 0x1C5B JUMP JUMPDEST JUMPDEST DUP3 DUP3 SUB SWAP1 POP SWAP3 SWAP2 POP POP JUMP JUMPDEST PUSH1 0x0 PUSH2 0x1B88 DUP3 PUSH2 0x1B9B JUMP JUMPDEST SWAP1 POP SWAP2 SWAP1 POP JUMP JUMPDEST PUSH1 0x0 DUP2 ISZERO ISZERO SWAP1 POP SWAP2 SWAP1 POP JUMP JUMPDEST PUSH1 0x0 PUSH20 0xFFFFFFFFFFFFFFFFFFFFFFFFFFFFFFFFFFFFFFFF DUP3 AND SWAP1 POP SWAP2 SWAP1 POP JUMP JUMPDEST PUSH1 0x0 DUP2 SWAP1 POP SWAP2 SWAP1 POP JUMP JUMPDEST PUSH1 0x0 PUSH1 0xFF DUP3 AND SWAP1 POP SWAP2 SWAP1 POP JUMP JUMPDEST PUSH1 0x0 PUSH2 0x1BDD DUP3 PUSH2 0x1BE4 JUMP JUMPDEST SWAP1 POP SWAP2 SWAP1 POP JUMP JUMPDEST PUSH1 0x0 PUSH2 0x1BEF DUP3 PUSH2 0x1B9B JUMP JUMPDEST SWAP1 POP SWAP2 SWAP1 POP JUMP JUMPDEST PUSH1 0x0 JUMPDEST DUP4 DUP2 LT ISZERO PUSH2 0x1C14 JUMPI DUP1 DUP3 ADD MLOAD DUP2 DUP5 ADD MSTORE PUSH1 0x20 DUP2 ADD SWAP1 POP PUSH2 0x1BF9 JUMP JUMPDEST DUP4 DUP2 GT ISZERO PUSH2 0x1C23 JUMPI PUSH1 0x0 DUP5 DUP5 ADD MSTORE JUMPDEST POP POP POP POP JUMP JUMPDEST PUSH1 0x0 PUSH1 0x2 DUP3 DIV SWAP1 POP PUSH1 0x1 DUP3 AND DUP1 PUSH2 0x1C41 JUMPI PUSH1 0x7F DUP3 AND SWAP2 POP JUMPDEST PUSH1 0x20 DUP3 LT DUP2 EQ ISZERO PUSH2 0x1C55 JUMPI PUSH2 0x1C54 PUSH2 0x1C8A JUMP JUMPDEST JUMPDEST POP SWAP2 SWAP1 POP JUMP JUMPDEST PUSH32 0x4E487B7100000000000000000000000000000000000000000000000000000000 PUSH1 0x0 MSTORE PUSH1 0x11 PUSH1 0x4 MSTORE PUSH1 0x24 PUSH1 0x0 REVERT JUMPDEST PUSH32 0x4E487B7100000000000000000000000000000000000000000000000000000000 PUSH1 0x0 MSTORE PUSH1 0x22 PUSH1 0x4 MSTORE PUSH1 0x24 PUSH1 0x0 REVERT JUMPDEST PUSH1 0x0 PUSH1 0x1F NOT PUSH1 0x1F DUP4 ADD AND SWAP1 POP SWAP2 SWAP1 POP JUMP JUMPDEST PUSH32 0x45524332303A207472616E7366657220746F20746865207A65726F2061646472 PUSH1 0x0 DUP3 ADD MSTORE PUSH32 0x6573730000000000000000000000000000000000000000000000000000000000 PUSH1 0x20 DUP3 ADD MSTORE POP JUMP JUMPDEST PUSH32 0x45524332303A206275726E20616D6F756E7420657863656564732062616C616E PUSH1 0x0 DUP3 ADD MSTORE PUSH32 0x6365000000000000000000000000000000000000000000000000000000000000 PUSH1 0x20 DUP3 ADD MSTORE POP JUMP JUMPDEST PUSH32 0x4F776E61626C653A206E6577206F776E657220697320746865207A65726F2061 PUSH1 0x0 DUP3 ADD MSTORE PUSH32 0x6464726573730000000000000000000000000000000000000000000000000000 PUSH1 0x20 DUP3 ADD MSTORE POP JUMP JUMPDEST PUSH32 0x45524332303A20617070726F766520746F20746865207A65726F206164647265 PUSH1 0x0 DUP3 ADD MSTORE PUSH32 0x7373000000000000000000000000000000000000000000000000000000000000 PUSH1 0x20 DUP3 ADD MSTORE POP JUMP JUMPDEST PUSH32 0x45524332303A207472616E7366657220616D6F756E7420657863656564732062 PUSH1 0x0 DUP3 ADD MSTORE PUSH32 0x616C616E63650000000000000000000000000000000000000000000000000000 PUSH1 0x20 DUP3 ADD MSTORE POP JUMP JUMPDEST PUSH32 0x7A65726F4D696E74416D6F756E74000000000000000000000000000000000000 PUSH1 0x0 DUP3 ADD MSTORE POP JUMP JUMPDEST PUSH32 0x45524332303A207472616E7366657220616D6F756E7420657863656564732061 PUSH1 0x0 DUP3 ADD MSTORE PUSH32 0x6C6C6F77616E6365000000000000000000000000000000000000000000000000 PUSH1 0x20 DUP3 ADD MSTORE POP JUMP JUMPDEST PUSH32 0x4F776E61626C653A2063616C6C6572206973206E6F7420746865206F776E6572 PUSH1 0x0 DUP3 ADD MSTORE POP JUMP JUMPDEST PUSH32 0x45524332303A206275726E20616D6F756E74206578636565647320616C6C6F77 PUSH1 0x0 DUP3 ADD MSTORE PUSH32 0x616E636500000000000000000000000000000000000000000000000000000000 PUSH1 0x20 DUP3 ADD MSTORE POP JUMP JUMPDEST PUSH32 0x45524332303A206275726E2066726F6D20746865207A65726F20616464726573 PUSH1 0x0 DUP3 ADD MSTORE PUSH32 0x7300000000000000000000000000000000000000000000000000000000000000 PUSH1 0x20 DUP3 ADD MSTORE POP JUMP JUMPDEST PUSH32 0x45524332303A207472616E736665722066726F6D20746865207A65726F206164 PUSH1 0x0 DUP3 ADD MSTORE PUSH32 0x6472657373000000000000000000000000000000000000000000000000000000 PUSH1 0x20 DUP3 ADD MSTORE POP JUMP JUMPDEST PUSH32 0x45524332303A20617070726F76652066726F6D20746865207A65726F20616464 PUSH1 0x0 DUP3 ADD MSTORE PUSH32 0x7265737300000000000000000000000000000000000000000000000000000000 PUSH1 0x20 DUP3 ADD MSTORE POP JUMP JUMPDEST PUSH32 0x45524332303A2064656372656173656420616C6C6F77616E63652062656C6F77 PUSH1 0x0 DUP3 ADD MSTORE PUSH32 0x207A65726F000000000000000000000000000000000000000000000000000000 PUSH1 0x20 DUP3 ADD MSTORE POP JUMP JUMPDEST PUSH32 0x45524332303A206D696E7420746F20746865207A65726F206164647265737300 PUSH1 0x0 DUP3 ADD MSTORE POP JUMP JUMPDEST PUSH2 0x20B3 DUP2 PUSH2 0x1B7D JUMP JUMPDEST DUP2 EQ PUSH2 0x20BE JUMPI PUSH1 0x0 DUP1 REVERT JUMPDEST POP JUMP JUMPDEST PUSH2 0x20CA DUP2 PUSH2 0x1BBB JUMP JUMPDEST DUP2 EQ PUSH2 0x20D5 JUMPI PUSH1 0x0 DUP1 REVERT JUMPDEST POP JUMP INVALID LOG2 PUSH5 0x6970667358 0x22 SLT KECCAK256 DUP16 MSTORE 0xBB ISZERO MULMOD JUMP PUSH22 0xB17733765A209D6B2AC33B12B4644A28F2E3405818EA SUB DUP15 SWAP2 PUSH5 0x736F6C6343 STOP ADDMOD DIV STOP CALLER LOG2 PUSH5 0x6970667358 0x22 SLT KECCAK256 RETURNDATACOPY PUSH4 0xB14BB9FB 0x28 0x49 PUSH17 0xD53434A412D6D8B0E1D0BECBC483E26E23 PUSH27 0xCD240FDF6B64736F6C634300080400330000000000000000000000 "
		},
		"gasEstimates": {
			"creation": {
				"codeDepositCost": "7053200",
				"executionCost": "infinite",
				"totalCost": "infinite"
			},
			"external": {
				"MAX_A()": "397",
				"MAX_ADMIN_FEE()": "461",
				"MAX_A_CHANGE()": "462",
				"MAX_SWAP_FEE()": "440",
				"MAX_WITHDRAW_FEE()": "462",
				"MIN_RAMP_TIME()": "398",
				"addLiquidity(uint256[],uint256,uint256)": "infinite",
				"calculateCurrentWithdrawFee(address)": "infinite",
				"calculateRemoveLiquidity(address,uint256)": "infinite",
				"calculateRemoveLiquidityOneToken(address,uint256,uint8)": "infinite",
				"calculateSwap(uint8,uint8,uint256)": "infinite",
				"calculateTokenAmount(uint256[],bool)": "infinite",
				"feeController()": "1259",
				"feeDistributor()": "1327",
				"getA()": "infinite",
				"getAPrecise()": "infinite",
				"getAdminBalance(uint8)": "infinite",
				"getAdminBalances()": "infinite",
				"getLpToken()": "1382",
				"getNumberOfTokens()": "1239",
				"getToken(uint8)": "2561",
				"getTokenBalance(uint8)": "2434",
				"getTokenBalances()": "infinite",
				"getTokenIndex(address)": "3598",
				"getTokenPrecisionMultipliers()": "infinite",
				"getTokens()": "infinite",
				"getVirtualPrice()": "infinite",
				"initialize(address[],uint8[],string,string,uint256,uint256,uint256,uint256,address)": "infinite",
				"owner()": "1312",
				"pause()": "infinite",
				"paused()": "1341",
				"rampA(uint256,uint256)": "infinite",
				"removeLiquidity(uint256,uint256[],uint256)": "infinite",
				"removeLiquidityImbalance(uint256[],uint256,uint256)": "infinite",
				"removeLiquidityOneToken(uint256,uint8,uint256,uint256)": "infinite",
				"renounceOwnership()": "24441",
				"setFee(uint256,uint256,uint256)": "infinite",
				"setFeeController(address)": "infinite",
				"setFeeDistributor(address)": "infinite",
				"stopRampA()": "infinite",
				"swap(uint8,uint8,uint256,uint256,uint256)": "infinite",
				"swapStorage()": "infinite",
				"tokenIndexes(address)": "1592",
				"transferOwnership(address)": "24833",
				"unpause()": "infinite",
				"updateUserWithdrawFee(address,uint256)": "infinite",
				"withdrawAdminFee()": "infinite"
			}
		},
		"methodIdentifiers": {
			"MAX_A()": "39698415",
			"MAX_ADMIN_FEE()": "f3de0362",
			"MAX_A_CHANGE()": "ab5ac061",
			"MAX_SWAP_FEE()": "ab3d8544",
			"MAX_WITHDRAW_FEE()": "d4b0de2f",
			"MIN_RAMP_TIME()": "06e9481c",
			"addLiquidity(uint256[],uint256,uint256)": "4d49e87d",
			"calculateCurrentWithdrawFee(address)": "4a1b0d57",
			"calculateRemoveLiquidity(address,uint256)": "7c61e561",
			"calculateRemoveLiquidityOneToken(address,uint256,uint8)": "98899f40",
			"calculateSwap(uint8,uint8,uint256)": "a95b089f",
			"calculateTokenAmount(uint256[],bool)": "e6ab2806",
			"feeController()": "6999b377",
			"feeDistributor()": "0d43e8ad",
			"getA()": "d46300fd",
			"getAPrecise()": "0ba81959",
			"getAdminBalance(uint8)": "8554a7d4",
			"getAdminBalances()": "18f52ce2",
			"getLpToken()": "8214f5a4",
			"getNumberOfTokens()": "efeecb51",
			"getToken(uint8)": "82b86600",
			"getTokenBalance(uint8)": "91ceb3eb",
			"getTokenBalances()": "a1dc9031",
			"getTokenIndex(address)": "66c0bd24",
			"getTokenPrecisionMultipliers()": "d41f6568",
			"getTokens()": "aa6ca808",
			"getVirtualPrice()": "e25aa5fa",
			"initialize(address[],uint8[],string,string,uint256,uint256,uint256,uint256,address)": "df3ed68d",
			"owner()": "8da5cb5b",
			"pause()": "8456cb59",
			"paused()": "5c975abb",
			"rampA(uint256,uint256)": "593d132c",
			"removeLiquidity(uint256,uint256[],uint256)": "31cd52b0",
			"removeLiquidityImbalance(uint256[],uint256,uint256)": "84cdd9bc",
			"removeLiquidityOneToken(uint256,uint8,uint256,uint256)": "3e3a1560",
			"renounceOwnership()": "715018a6",
			"setFee(uint256,uint256,uint256)": "5b65b9ab",
			"setFeeController(address)": "3ed4c678",
			"setFeeDistributor(address)": "ccfc2e8d",
			"stopRampA()": "c4db7fa0",
			"swap(uint8,uint8,uint256,uint256,uint256)": "91695586",
			"swapStorage()": "5fd65f0f",
			"tokenIndexes(address)": "04bc3b1c",
			"transferOwnership(address)": "f2fde38b",
			"unpause()": "3f4ba83a",
			"updateUserWithdrawFee(address,uint256)": "c00c125c",
			"withdrawAdminFee()": "fe49abe3"
		}
	},
	"abi": [
		{
			"anonymous": false,
			"inputs": [
				{
					"indexed": true,
					"internalType": "address",
					"name": "provider",
					"type": "address"
				},
				{
					"indexed": false,
					"internalType": "uint256[]",
					"name": "tokenAmounts",
					"type": "uint256[]"
				},
				{
					"indexed": false,
					"internalType": "uint256[]",
					"name": "fees",
					"type": "uint256[]"
				},
				{
					"indexed": false,
					"internalType": "uint256",
					"name": "invariant",
					"type": "uint256"
				},
				{
					"indexed": false,
					"internalType": "uint256",
					"name": "tokenSupply",
					"type": "uint256"
				}
			],
			"name": "AddLiquidity",
			"type": "event"
		},
		{
			"anonymous": false,
			"inputs": [
				{
					"indexed": false,
					"internalType": "address",
					"name": "token",
					"type": "address"
				},
				{
					"indexed": false,
					"internalType": "uint256",
					"name": "amount",
					"type": "uint256"
				}
			],
			"name": "CollectProtocolFee",
			"type": "event"
		},
		{
			"anonymous": false,
			"inputs": [
				{
					"indexed": false,
					"internalType": "address",
					"name": "newController",
					"type": "address"
				}
			],
			"name": "FeeControllerChanged",
			"type": "event"
		},
		{
			"anonymous": false,
			"inputs": [
				{
					"indexed": false,
					"internalType": "address",
					"name": "newController",
					"type": "address"
				}
			],
			"name": "FeeDistributorChanged",
			"type": "event"
		},
		{
			"anonymous": false,
			"inputs": [
				{
					"indexed": false,
					"internalType": "uint256",
					"name": "fee",
					"type": "uint256"
				},
				{
					"indexed": false,
					"internalType": "uint256",
					"name": "adminFee",
					"type": "uint256"
				},
				{
					"indexed": false,
					"internalType": "uint256",
					"name": "withdrawFee",
					"type": "uint256"
				}
			],
			"name": "NewFee",
			"type": "event"
		},
		{
			"anonymous": false,
			"inputs": [
				{
					"indexed": true,
					"internalType": "address",
					"name": "previousOwner",
					"type": "address"
				},
				{
					"indexed": true,
					"internalType": "address",
					"name": "newOwner",
					"type": "address"
				}
			],
			"name": "OwnershipTransferred",
			"type": "event"
		},
		{
			"anonymous": false,
			"inputs": [
				{
					"indexed": false,
					"internalType": "address",
					"name": "account",
					"type": "address"
				}
			],
			"name": "Paused",
			"type": "event"
		},
		{
			"anonymous": false,
			"inputs": [
				{
					"indexed": false,
					"internalType": "uint256",
					"name": "oldA",
					"type": "uint256"
				},
				{
					"indexed": false,
					"internalType": "uint256",
					"name": "newA",
					"type": "uint256"
				},
				{
					"indexed": false,
					"internalType": "uint256",
					"name": "initialTime",
					"type": "uint256"
				},
				{
					"indexed": false,
					"internalType": "uint256",
					"name": "futureTime",
					"type": "uint256"
				}
			],
			"name": "RampA",
			"type": "event"
		},
		{
			"anonymous": false,
			"inputs": [
				{
					"indexed": true,
					"internalType": "address",
					"name": "provider",
					"type": "address"
				},
				{
					"indexed": false,
					"internalType": "uint256[]",
					"name": "tokenAmounts",
					"type": "uint256[]"
				},
				{
					"indexed": false,
					"internalType": "uint256[]",
					"name": "fees",
					"type": "uint256[]"
				},
				{
					"indexed": false,
					"internalType": "uint256",
					"name": "tokenSupply",
					"type": "uint256"
				}
			],
			"name": "RemoveLiquidity",
			"type": "event"
		},
		{
			"anonymous": false,
			"inputs": [
				{
					"indexed": true,
					"internalType": "address",
					"name": "provider",
					"type": "address"
				},
				{
					"indexed": false,
					"internalType": "uint256[]",
					"name": "tokenAmounts",
					"type": "uint256[]"
				},
				{
					"indexed": false,
					"internalType": "uint256[]",
					"name": "fees",
					"type": "uint256[]"
				},
				{
					"indexed": false,
					"internalType": "uint256",
					"name": "invariant",
					"type": "uint256"
				},
				{
					"indexed": false,
					"internalType": "uint256",
					"name": "tokenSupply",
					"type": "uint256"
				}
			],
			"name": "RemoveLiquidityImbalance",
			"type": "event"
		},
		{
			"anonymous": false,
			"inputs": [
				{
					"indexed": true,
					"internalType": "address",
					"name": "provider",
					"type": "address"
				},
				{
					"indexed": false,
					"internalType": "uint256",
					"name": "tokenIndex",
					"type": "uint256"
				},
				{
					"indexed": false,
					"internalType": "uint256",
					"name": "tokenAmount",
					"type": "uint256"
				},
				{
					"indexed": false,
					"internalType": "uint256",
					"name": "coinAmount",
					"type": "uint256"
				}
			],
			"name": "RemoveLiquidityOne",
			"type": "event"
		},
		{
			"anonymous": false,
			"inputs": [
				{
					"indexed": false,
					"internalType": "uint256",
					"name": "A",
					"type": "uint256"
				},
				{
					"indexed": false,
					"internalType": "uint256",
					"name": "timestamp",
					"type": "uint256"
				}
			],
			"name": "StopRampA",
			"type": "event"
		},
		{
			"anonymous": false,
			"inputs": [
				{
					"indexed": true,
					"internalType": "address",
					"name": "buyer",
					"type": "address"
				},
				{
					"indexed": false,
					"internalType": "uint256",
					"name": "soldId",
					"type": "uint256"
				},
				{
					"indexed": false,
					"internalType": "uint256",
					"name": "tokensSold",
					"type": "uint256"
				},
				{
					"indexed": false,
					"internalType": "uint256",
					"name": "boughtId",
					"type": "uint256"
				},
				{
					"indexed": false,
					"internalType": "uint256",
					"name": "tokensBought",
					"type": "uint256"
				}
			],
			"name": "TokenExchange",
			"type": "event"
		},
		{
			"anonymous": false,
			"inputs": [
				{
					"indexed": false,
					"internalType": "address",
					"name": "account",
					"type": "address"
				}
			],
			"name": "Unpaused",
			"type": "event"
		},
		{
			"inputs": [],
			"name": "MAX_A",
			"outputs": [
				{
					"internalType": "uint256",
					"name": "",
					"type": "uint256"
				}
			],
			"stateMutability": "view",
			"type": "function"
		},
		{
			"inputs": [],
			"name": "MAX_ADMIN_FEE",
			"outputs": [
				{
					"internalType": "uint256",
					"name": "",
					"type": "uint256"
				}
			],
			"stateMutability": "view",
			"type": "function"
		},
		{
			"inputs": [],
			"name": "MAX_A_CHANGE",
			"outputs": [
				{
					"internalType": "uint256",
					"name": "",
					"type": "uint256"
				}
			],
			"stateMutability": "view",
			"type": "function"
		},
		{
			"inputs": [],
			"name": "MAX_SWAP_FEE",
			"outputs": [
				{
					"internalType": "uint256",
					"name": "",
					"type": "uint256"
				}
			],
			"stateMutability": "view",
			"type": "function"
		},
		{
			"inputs": [],
			"name": "MAX_WITHDRAW_FEE",
			"outputs": [
				{
					"internalType": "uint256",
					"name": "",
					"type": "uint256"
				}
			],
			"stateMutability": "view",
			"type": "function"
		},
		{
			"inputs": [],
			"name": "MIN_RAMP_TIME",
			"outputs": [
				{
					"internalType": "uint256",
					"name": "",
					"type": "uint256"
				}
			],
			"stateMutability": "view",
			"type": "function"
		},
		{
			"inputs": [
				{
					"internalType": "uint256[]",
					"name": "amounts",
					"type": "uint256[]"
				},
				{
					"internalType": "uint256",
					"name": "minMintAmount",
					"type": "uint256"
				},
				{
					"internalType": "uint256",
					"name": "deadline",
					"type": "uint256"
				}
			],
			"name": "addLiquidity",
			"outputs": [
				{
					"internalType": "uint256",
					"name": "",
					"type": "uint256"
				}
			],
			"stateMutability": "nonpayable",
			"type": "function"
		},
		{
			"inputs": [
				{
					"internalType": "address",
					"name": "account",
					"type": "address"
				}
			],
			"name": "calculateCurrentWithdrawFee",
			"outputs": [
				{
					"internalType": "uint256",
					"name": "",
					"type": "uint256"
				}
			],
			"stateMutability": "view",
			"type": "function"
		},
		{
			"inputs": [
				{
					"internalType": "address",
					"name": "account",
					"type": "address"
				},
				{
					"internalType": "uint256",
					"name": "amount",
					"type": "uint256"
				}
			],
			"name": "calculateRemoveLiquidity",
			"outputs": [
				{
					"internalType": "uint256[]",
					"name": "",
					"type": "uint256[]"
				}
			],
			"stateMutability": "view",
			"type": "function"
		},
		{
			"inputs": [
				{
					"internalType": "address",
					"name": "account",
					"type": "address"
				},
				{
					"internalType": "uint256",
					"name": "amount",
					"type": "uint256"
				},
				{
					"internalType": "uint8",
					"name": "index",
					"type": "uint8"
				}
			],
			"name": "calculateRemoveLiquidityOneToken",
			"outputs": [
				{
					"internalType": "uint256",
					"name": "",
					"type": "uint256"
				}
			],
			"stateMutability": "view",
			"type": "function"
		},
		{
			"inputs": [
				{
					"internalType": "uint8",
					"name": "inIndex",
					"type": "uint8"
				},
				{
					"internalType": "uint8",
					"name": "outIndex",
					"type": "uint8"
				},
				{
					"internalType": "uint256",
					"name": "inAmount",
					"type": "uint256"
				}
			],
			"name": "calculateSwap",
			"outputs": [
				{
					"internalType": "uint256",
					"name": "",
					"type": "uint256"
				}
			],
			"stateMutability": "view",
			"type": "function"
		},
		{
			"inputs": [
				{
					"internalType": "uint256[]",
					"name": "amounts",
					"type": "uint256[]"
				},
				{
					"internalType": "bool",
					"name": "deposit",
					"type": "bool"
				}
			],
			"name": "calculateTokenAmount",
			"outputs": [
				{
					"internalType": "uint256",
					"name": "",
					"type": "uint256"
				}
			],
			"stateMutability": "view",
			"type": "function"
		},
		{
			"inputs": [],
			"name": "feeController",
			"outputs": [
				{
					"internalType": "address",
					"name": "",
					"type": "address"
				}
			],
			"stateMutability": "view",
			"type": "function"
		},
		{
			"inputs": [],
			"name": "feeDistributor",
			"outputs": [
				{
					"internalType": "address",
					"name": "",
					"type": "address"
				}
			],
			"stateMutability": "view",
			"type": "function"
		},
		{
			"inputs": [],
			"name": "getA",
			"outputs": [
				{
					"internalType": "uint256",
					"name": "",
					"type": "uint256"
				}
			],
			"stateMutability": "view",
			"type": "function"
		},
		{
			"inputs": [],
			"name": "getAPrecise",
			"outputs": [
				{
					"internalType": "uint256",
					"name": "",
					"type": "uint256"
				}
			],
			"stateMutability": "view",
			"type": "function"
		},
		{
			"inputs": [
				{
					"internalType": "uint8",
					"name": "index",
					"type": "uint8"
				}
			],
			"name": "getAdminBalance",
			"outputs": [
				{
					"internalType": "uint256",
					"name": "",
					"type": "uint256"
				}
			],
			"stateMutability": "view",
			"type": "function"
		},
		{
			"inputs": [],
			"name": "getAdminBalances",
			"outputs": [
				{
					"internalType": "uint256[]",
					"name": "adminBalances",
					"type": "uint256[]"
				}
			],
			"stateMutability": "view",
			"type": "function"
		},
		{
			"inputs": [],
			"name": "getLpToken",
			"outputs": [
				{
					"internalType": "contract IERC20",
					"name": "",
					"type": "address"
				}
			],
			"stateMutability": "view",
			"type": "function"
		},
		{
			"inputs": [],
			"name": "getNumberOfTokens",
			"outputs": [
				{
					"internalType": "uint256",
					"name": "",
					"type": "uint256"
				}
			],
			"stateMutability": "view",
			"type": "function"
		},
		{
			"inputs": [
				{
					"internalType": "uint8",
					"name": "index",
					"type": "uint8"
				}
			],
			"name": "getToken",
			"outputs": [
				{
					"internalType": "contract IERC20",
					"name": "",
					"type": "address"
				}
			],
			"stateMutability": "view",
			"type": "function"
		},
		{
			"inputs": [
				{
					"internalType": "uint8",
					"name": "index",
					"type": "uint8"
				}
			],
			"name": "getTokenBalance",
			"outputs": [
				{
					"internalType": "uint256",
					"name": "",
					"type": "uint256"
				}
			],
			"stateMutability": "view",
			"type": "function"
		},
		{
			"inputs": [],
			"name": "getTokenBalances",
			"outputs": [
				{
					"internalType": "uint256[]",
					"name": "",
					"type": "uint256[]"
				}
			],
			"stateMutability": "view",
			"type": "function"
		},
		{
			"inputs": [
				{
					"internalType": "address",
					"name": "token",
					"type": "address"
				}
			],
			"name": "getTokenIndex",
			"outputs": [
				{
					"internalType": "uint8",
					"name": "index",
					"type": "uint8"
				}
			],
			"stateMutability": "view",
			"type": "function"
		},
		{
			"inputs": [],
			"name": "getTokenPrecisionMultipliers",
			"outputs": [
				{
					"internalType": "uint256[]",
					"name": "",
					"type": "uint256[]"
				}
			],
			"stateMutability": "view",
			"type": "function"
		},
		{
			"inputs": [],
			"name": "getTokens",
			"outputs": [
				{
					"internalType": "contract IERC20[]",
					"name": "",
					"type": "address[]"
				}
			],
			"stateMutability": "view",
			"type": "function"
		},
		{
			"inputs": [],
			"name": "getVirtualPrice",
			"outputs": [
				{
					"internalType": "uint256",
					"name": "",
					"type": "uint256"
				}
			],
			"stateMutability": "view",
			"type": "function"
		},
		{
			"inputs": [
				{
					"internalType": "address[]",
					"name": "_coins",
					"type": "address[]"
				},
				{
					"internalType": "uint8[]",
					"name": "_decimals",
					"type": "uint8[]"
				},
				{
					"internalType": "string",
					"name": "lpTokenName",
					"type": "string"
				},
				{
					"internalType": "string",
					"name": "lpTokenSymbol",
					"type": "string"
				},
				{
					"internalType": "uint256",
					"name": "_A",
					"type": "uint256"
				},
				{
					"internalType": "uint256",
					"name": "_fee",
					"type": "uint256"
				},
				{
					"internalType": "uint256",
					"name": "_adminFee",
					"type": "uint256"
				},
				{
					"internalType": "uint256",
					"name": "_withdrawFee",
					"type": "uint256"
				},
				{
					"internalType": "address",
					"name": "_feeDistributor",
					"type": "address"
				}
			],
			"name": "initialize",
			"outputs": [],
			"stateMutability": "nonpayable",
			"type": "function"
		},
		{
			"inputs": [],
			"name": "owner",
			"outputs": [
				{
					"internalType": "address",
					"name": "",
					"type": "address"
				}
			],
			"stateMutability": "view",
			"type": "function"
		},
		{
			"inputs": [],
			"name": "pause",
			"outputs": [],
			"stateMutability": "nonpayable",
			"type": "function"
		},
		{
			"inputs": [],
			"name": "paused",
			"outputs": [
				{
					"internalType": "bool",
					"name": "",
					"type": "bool"
				}
			],
			"stateMutability": "view",
			"type": "function"
		},
		{
			"inputs": [
				{
					"internalType": "uint256",
					"name": "futureA",
					"type": "uint256"
				},
				{
					"internalType": "uint256",
					"name": "futureATime",
					"type": "uint256"
				}
			],
			"name": "rampA",
			"outputs": [],
			"stateMutability": "nonpayable",
			"type": "function"
		},
		{
			"inputs": [
				{
					"internalType": "uint256",
					"name": "lpAmount",
					"type": "uint256"
				},
				{
					"internalType": "uint256[]",
					"name": "minAmounts",
					"type": "uint256[]"
				},
				{
					"internalType": "uint256",
					"name": "deadline",
					"type": "uint256"
				}
			],
			"name": "removeLiquidity",
			"outputs": [
				{
					"internalType": "uint256[]",
					"name": "",
					"type": "uint256[]"
				}
			],
			"stateMutability": "nonpayable",
			"type": "function"
		},
		{
			"inputs": [
				{
					"internalType": "uint256[]",
					"name": "amounts",
					"type": "uint256[]"
				},
				{
					"internalType": "uint256",
					"name": "maxBurnAmount",
					"type": "uint256"
				},
				{
					"internalType": "uint256",
					"name": "deadline",
					"type": "uint256"
				}
			],
			"name": "removeLiquidityImbalance",
			"outputs": [
				{
					"internalType": "uint256",
					"name": "",
					"type": "uint256"
				}
			],
			"stateMutability": "nonpayable",
			"type": "function"
		},
		{
			"inputs": [
				{
					"internalType": "uint256",
					"name": "lpAmount",
					"type": "uint256"
				},
				{
					"internalType": "uint8",
					"name": "index",
					"type": "uint8"
				},
				{
					"internalType": "uint256",
					"name": "minAmount",
					"type": "uint256"
				},
				{
					"internalType": "uint256",
					"name": "deadline",
					"type": "uint256"
				}
			],
			"name": "removeLiquidityOneToken",
			"outputs": [
				{
					"internalType": "uint256",
					"name": "",
					"type": "uint256"
				}
			],
			"stateMutability": "nonpayable",
			"type": "function"
		},
		{
			"inputs": [],
			"name": "renounceOwnership",
			"outputs": [],
			"stateMutability": "nonpayable",
			"type": "function"
		},
		{
			"inputs": [
				{
					"internalType": "uint256",
					"name": "newSwapFee",
					"type": "uint256"
				},
				{
					"internalType": "uint256",
					"name": "newAdminFee",
					"type": "uint256"
				},
				{
					"internalType": "uint256",
					"name": "newWithdrawFee",
					"type": "uint256"
				}
			],
			"name": "setFee",
			"outputs": [],
			"stateMutability": "nonpayable",
			"type": "function"
		},
		{
			"inputs": [
				{
					"internalType": "address",
					"name": "_feeController",
					"type": "address"
				}
			],
			"name": "setFeeController",
			"outputs": [],
			"stateMutability": "nonpayable",
			"type": "function"
		},
		{
			"inputs": [
				{
					"internalType": "address",
					"name": "_feeDistributor",
					"type": "address"
				}
			],
			"name": "setFeeDistributor",
			"outputs": [],
			"stateMutability": "nonpayable",
			"type": "function"
		},
		{
			"inputs": [],
			"name": "stopRampA",
			"outputs": [],
			"stateMutability": "nonpayable",
			"type": "function"
		},
		{
			"inputs": [
				{
					"internalType": "uint8",
					"name": "fromIndex",
					"type": "uint8"
				},
				{
					"internalType": "uint8",
					"name": "toIndex",
					"type": "uint8"
				},
				{
					"internalType": "uint256",
					"name": "inAmount",
					"type": "uint256"
				},
				{
					"internalType": "uint256",
					"name": "minOutAmount",
					"type": "uint256"
				},
				{
					"internalType": "uint256",
					"name": "deadline",
					"type": "uint256"
				}
			],
			"name": "swap",
			"outputs": [
				{
					"internalType": "uint256",
					"name": "",
					"type": "uint256"
				}
			],
			"stateMutability": "nonpayable",
			"type": "function"
		},
		{
			"inputs": [],
			"name": "swapStorage",
			"outputs": [
				{
					"internalType": "contract LPToken",
					"name": "lpToken",
					"type": "address"
				},
				{
					"internalType": "uint256",
					"name": "fee",
					"type": "uint256"
				},
				{
					"internalType": "uint256",
					"name": "adminFee",
					"type": "uint256"
				},
				{
					"internalType": "uint256",
					"name": "initialA",
					"type": "uint256"
				},
				{
					"internalType": "uint256",
					"name": "futureA",
					"type": "uint256"
				},
				{
					"internalType": "uint256",
					"name": "initialATime",
					"type": "uint256"
				},
				{
					"internalType": "uint256",
					"name": "futureATime",
					"type": "uint256"
				},
				{
					"internalType": "uint256",
					"name": "defaultWithdrawFee",
					"type": "uint256"
				}
			],
			"stateMutability": "view",
			"type": "function"
		},
		{
			"inputs": [
				{
					"internalType": "address",
					"name": "",
					"type": "address"
				}
			],
			"name": "tokenIndexes",
			"outputs": [
				{
					"internalType": "uint8",
					"name": "",
					"type": "uint8"
				}
			],
			"stateMutability": "view",
			"type": "function"
		},
		{
			"inputs": [
				{
					"internalType": "address",
					"name": "newOwner",
					"type": "address"
				}
			],
			"name": "transferOwnership",
			"outputs": [],
			"stateMutability": "nonpayable",
			"type": "function"
		},
		{
			"inputs": [],
			"name": "unpause",
			"outputs": [],
			"stateMutability": "nonpayable",
			"type": "function"
		},
		{
			"inputs": [
				{
					"internalType": "address",
					"name": "recipient",
					"type": "address"
				},
				{
					"internalType": "uint256",
					"name": "transferAmount",
					"type": "uint256"
				}
			],
			"name": "updateUserWithdrawFee",
			"outputs": [],
			"stateMutability": "nonpayable",
			"type": "function"
		},
		{
			"inputs": [],
			"name": "withdrawAdminFee",
			"outputs": [],
			"stateMutability": "nonpayable",
			"type": "function"
		}
	]
}