{
  "_format": "hh-sol-artifact-1",
  "contractName": "RequiemAggregatorRECENT",
  "sourceName": "contracts/backup.sol",
  "abi": [
    {
      "inputs": [
        {
          "internalType": "address",
          "name": "_pairRouter",
          "type": "address"
        },
        {
          "internalType": "address",
          "name": "_stableRouter",
          "type": "address"
        }
      ],
      "stateMutability": "nonpayable",
      "type": "constructor"
    },
    {
      "inputs": [
        {
          "internalType": "address[][]",
          "name": "path",
          "type": "address[][]"
        },
        {
          "internalType": "uint256[]",
          "name": "routerId",
          "type": "uint256[]"
        },
        {
          "internalType": "uint256",
          "name": "amountOut",
          "type": "uint256"
        },
        {
          "internalType": "uint256",
          "name": "amountInMax",
          "type": "uint256"
        },
        {
          "internalType": "uint256",
          "name": "deadline",
          "type": "uint256"
        }
      ],
      "name": "multiSwapETHForExactTokens",
      "outputs": [
        {
          "internalType": "uint256",
          "name": "",
          "type": "uint256"
        }
      ],
      "stateMutability": "payable",
      "type": "function"
    },
    {
      "inputs": [
        {
          "internalType": "address[][]",
          "name": "path",
          "type": "address[][]"
        },
        {
          "internalType": "uint256[]",
          "name": "routerId",
          "type": "uint256[]"
        },
        {
          "internalType": "uint256",
          "name": "amountOutMin",
          "type": "uint256"
        },
        {
          "internalType": "uint256",
          "name": "deadline",
          "type": "uint256"
        }
      ],
      "name": "multiSwapExactETHForTokens",
      "outputs": [
        {
          "internalType": "uint256",
          "name": "",
          "type": "uint256"
        }
      ],
      "stateMutability": "payable",
      "type": "function"
    },
    {
      "inputs": [
        {
          "internalType": "address[][]",
          "name": "path",
          "type": "address[][]"
        },
        {
          "internalType": "uint256[]",
          "name": "routerId",
          "type": "uint256[]"
        },
        {
          "internalType": "uint256",
          "name": "amountIn",
          "type": "uint256"
        },
        {
          "internalType": "uint256",
          "name": "amountOutMin",
          "type": "uint256"
        },
        {
          "internalType": "uint256",
          "name": "deadline",
          "type": "uint256"
        }
      ],
      "name": "multiSwapExactTokensForETH",
      "outputs": [
        {
          "internalType": "uint256",
          "name": "",
          "type": "uint256"
        }
      ],
      "stateMutability": "payable",
      "type": "function"
    },
    {
      "inputs": [
        {
          "internalType": "address[][]",
          "name": "path",
          "type": "address[][]"
        },
        {
          "internalType": "uint256[]",
          "name": "routerId",
          "type": "uint256[]"
        },
        {
          "internalType": "uint256",
          "name": "amountIn",
          "type": "uint256"
        },
        {
          "internalType": "uint256",
          "name": "amountOutMin",
          "type": "uint256"
        },
        {
          "internalType": "uint256",
          "name": "deadline",
          "type": "uint256"
        }
      ],
      "name": "multiSwapExactTokensForTokens",
      "outputs": [
        {
          "internalType": "uint256",
          "name": "",
          "type": "uint256"
        }
      ],
      "stateMutability": "payable",
      "type": "function"
    },
    {
      "inputs": [
        {
          "internalType": "address[]",
          "name": "path",
          "type": "address[]"
        },
        {
          "internalType": "uint256[]",
          "name": "routerId",
          "type": "uint256[]"
        },
        {
          "internalType": "uint256",
          "name": "amountIn",
          "type": "uint256"
        },
        {
          "internalType": "uint256",
          "name": "amountOutMin",
          "type": "uint256"
        },
        {
          "internalType": "uint256",
          "name": "deadline",
          "type": "uint256"
        }
      ],
      "name": "multiSwapStructTest",
      "outputs": [
        {
          "internalType": "uint256",
          "name": "amount",
          "type": "uint256"
        }
      ],
      "stateMutability": "payable",
      "type": "function"
    },
    {
      "inputs": [
        {
          "internalType": "address[][]",
          "name": "path",
          "type": "address[][]"
        },
        {
          "internalType": "uint256[]",
          "name": "routerId",
          "type": "uint256[]"
        },
        {
          "internalType": "uint256",
          "name": "amountIn",
          "type": "uint256"
        },
        {
          "internalType": "uint256",
          "name": "amountOutMin",
          "type": "uint256"
        },
        {
          "internalType": "uint256",
          "name": "deadline",
          "type": "uint256"
        }
      ],
      "name": "multiSwapStructView",
      "outputs": [
        {
          "internalType": "address[]",
          "name": "",
          "type": "address[]"
        }
      ],
      "stateMutability": "view",
      "type": "function"
    },
    {
      "inputs": [
        {
          "internalType": "address[][]",
          "name": "path",
          "type": "address[][]"
        },
        {
          "internalType": "uint256[]",
          "name": "routerId",
          "type": "uint256[]"
        },
        {
          "internalType": "uint256",
          "name": "amountOut",
          "type": "uint256"
        },
        {
          "internalType": "uint256",
          "name": "amountInMax",
          "type": "uint256"
        },
        {
          "internalType": "uint256",
          "name": "deadline",
          "type": "uint256"
        }
      ],
      "name": "multiSwapTokensForExactETH",
      "outputs": [
        {
          "internalType": "uint256",
          "name": "",
          "type": "uint256"
        }
      ],
      "stateMutability": "payable",
      "type": "function"
    },
    {
      "inputs": [
        {
          "internalType": "address[][]",
          "name": "path",
          "type": "address[][]"
        },
        {
          "internalType": "uint256[]",
          "name": "routerId",
          "type": "uint256[]"
        },
        {
          "internalType": "uint256",
          "name": "amountOut",
          "type": "uint256"
        },
        {
          "internalType": "uint256",
          "name": "amountInMax",
          "type": "uint256"
        },
        {
          "internalType": "uint256",
          "name": "deadline",
          "type": "uint256"
        }
      ],
      "name": "multiSwapTokensForExactTokens",
      "outputs": [
        {
          "internalType": "uint256",
          "name": "",
          "type": "uint256"
        }
      ],
      "stateMutability": "payable",
      "type": "function"
    },
    {
      "inputs": [
        {
          "internalType": "address[][]",
          "name": "path",
          "type": "address[][]"
        },
        {
          "internalType": "uint256[]",
          "name": "routerId",
          "type": "uint256[]"
        },
        {
          "internalType": "uint256",
          "name": "amountOut",
          "type": "uint256"
        },
        {
          "internalType": "uint256",
          "name": "amountInMax",
          "type": "uint256"
        },
        {
          "internalType": "uint256",
          "name": "deadline",
          "type": "uint256"
        }
      ],
      "name": "multiSwapTokensForExactTokensTest",
      "outputs": [
        {
          "internalType": "uint256",
          "name": "",
          "type": "uint256"
        }
      ],
      "stateMutability": "payable",
      "type": "function"
    },
    {
      "inputs": [],
      "name": "pairRouter",
      "outputs": [
        {
          "internalType": "address",
          "name": "",
          "type": "address"
        }
      ],
      "stateMutability": "view",
      "type": "function"
    },
    {
      "inputs": [],
      "name": "stableRouter",
      "outputs": [
        {
          "internalType": "address",
          "name": "",
          "type": "address"
        }
      ],
      "stateMutability": "view",
      "type": "function"
    }
  ],
  "bytecode": "0x60c06040523480156200001157600080fd5b50604051620052c4380380620052c4833981016040819052620000349162000070565b6001600160601b0319606092831b8116608052911b1660a052620000a7565b80516001600160a01b03811681146200006b57600080fd5b919050565b6000806040838503121562000083578182fd5b6200008e8362000053565b91506200009e6020840162000053565b90509250929050565b60805160601c60a05160601c61506a6200025a6000396000818160d9015281816104ef015281816105ff0152818161073301528181610c2d01528181610ce901528181610df901528181610f0701528181611437015281816115470152818161167b01528181611aec01528181611ba801528181611cb801528181611dc6015281816125bb0152818161264f015281816127620152818161287301528181612f5701528181612feb015281816130fb0152818161320901528181613703015281816138130152818161394701528181613c2001528181613cdc01528181613dec01528181613efa015281816144ad0152818161454101528181614654015261476501526000818161015e015281816102f9015281816103a301528181610806015281816109dd01528181610a93015281816110510152818161110a0152818161174e01528181611f1001528181611fc90152818161225201528181612308015281816123e7015281816129b801528181612a4a01528181612ce301528181613348015281816133dc01528181613a1a01528181614044015281816140fd015281816148aa015261493e015261506a6000f3fe60806040526004361061009c5760003560e01c8063866cb90d11610064578063866cb90d1461014c5780639352873514610180578063ac1e6b4514610193578063e3792d33146101a6578063ea3e1d8a146101b9578063fe30ab82146101e657600080fd5b806332eb6fd3146100a15780634c3677c8146100c75780635de91cb6146101135780636022cc061461012657806376d383b814610139575b600080fd5b6100b46100af366004614b7d565b6101f9565b6040519081526020015b60405180910390f35b3480156100d357600080fd5b506100fb7f000000000000000000000000000000000000000000000000000000000000000081565b6040516001600160a01b0390911681526020016100be565b6100b4610121366004614b7d565b610447565b6100b4610134366004614b7d565b61138f565b6100b4610147366004614bff565b61224d565b34801561015857600080fd5b506100fb7f000000000000000000000000000000000000000000000000000000000000000081565b6100b461018e366004614b7d565b612cd5565b6100b46101a1366004614b7d565b612db9565b6100b46101b4366004614b7d565b613661565b3480156101c557600080fd5b506101d96101d4366004614b7d565b614213565b6040516100be9190614dda565b6100b46101f4366004614b7d565b614306565b60008686600081811061021c57634e487b7160e01b600052603260045260246000fd5b90506020020160208101906102319190614b5c565b6001600160a01b03166323b872dd3330876040518463ffffffff1660e01b815260040161026093929190614d9d565b602060405180830381600087803b15801561027a57600080fd5b505af115801561028e573d6000803e3d6000fd5b505050506040513d601f19601f820116820180604052508101906102b29190614cfe565b50836000888882816102d457634e487b7160e01b600052603260045260246000fd5b90506020020160208101906102e99190614b5c565b6001600160a01b031663095ea7b37f0000000000000000000000000000000000000000000000000000000000000000846040518363ffffffff1660e01b8152600401610336929190614dc1565b602060405180830381600087803b15801561035057600080fd5b505af1158015610364573d6000803e3d6000fd5b505050506040513d601f19601f820116820180604052508101906103889190614cfe565b506040516338ed173960e01b81526000906001600160a01b037f000000000000000000000000000000000000000000000000000000000000000016906338ed1739906103e2908a908a908f908f9030908d90600401614e81565b600060405180830381600087803b1580156103fc57600080fd5b505af1158015610410573d6000803e3d6000fd5b505050506040513d6000823e601f3d908101601f191682016040526104389190810190614c77565b50919998505050505050505050565b6000808667ffffffffffffffff81111561047157634e487b7160e01b600052604160045260246000fd5b60405190808252806020026020018201604052801561049a578160200160208202803683370190505b50905060008590506000600188516104b29190614f9f565b90505b8015610966578781815181106104db57634e487b7160e01b600052603260045260246000fd5b6020026020010151600014156108025760007f00000000000000000000000000000000000000000000000000000000000000006001600160a01b03166366c0bd248c8c8581811061053c57634e487b7160e01b600052603260045260246000fd5b905060200281019061054e9190614eea565b600181811061056d57634e487b7160e01b600052603260045260246000fd5b90506020020160208101906105829190614b5c565b6040516001600160e01b031960e084901b1681526001600160a01b03909116600482015260240160206040518083038186803b1580156105c157600080fd5b505afa1580156105d5573d6000803e3d6000fd5b505050506040513d601f19601f820116820180604052508101906105f99190614d36565b905060007f00000000000000000000000000000000000000000000000000000000000000006001600160a01b03166366c0bd248d8d8681811061064c57634e487b7160e01b600052603260045260246000fd5b905060200281019061065e9190614eea565b600081811061067d57634e487b7160e01b600052603260045260246000fd5b90506020020160208101906106929190614b5c565b6040516001600160e01b031960e084901b1681526001600160a01b03909116600482015260240160206040518083038186803b1580156106d157600080fd5b505afa1580156106e5573d6000803e3d6000fd5b505050506040513d601f19601f820116820180604052508101906107099190614d36565b60405163a95b089f60e01b815260ff808516600483015282166024820152604481018690529091507f00000000000000000000000000000000000000000000000000000000000000006001600160a01b03169063a95b089f9060640160206040518083038186803b15801561077d57600080fd5b505afa158015610791573d6000803e3d6000fd5b505050506040513d601f19601f820116820180604052508101906107b59190614d1e565b935083858b51856107c69190614f9f565b6107d1906001614f87565b815181106107ef57634e487b7160e01b600052603260045260246000fd5b6020026020010181815250505050610954565b60007f00000000000000000000000000000000000000000000000000000000000000006001600160a01b0316631f00ca74898d8d8681811061085457634e487b7160e01b600052603260045260246000fd5b90506020028101906108669190614eea565b6040518463ffffffff1660e01b815260040161088493929190614e5e565b60006040518083038186803b15801561089c57600080fd5b505afa1580156108b0573d6000803e3d6000fd5b505050506040513d6000823e601f3d908101601f191682016040526108d89190810190614c77565b905080600182516108e99190614f9f565b8151811061090757634e487b7160e01b600052603260045260246000fd5b6020026020010151848a518461091d9190614f9f565b610928906001614f87565b8151811061094657634e487b7160e01b600052603260045260246000fd5b602002602001018181525050505b8061095e81614fcd565b9150506104b5565b50848260008151811061098957634e487b7160e01b600052603260045260246000fd5b602002602001015111156109d95760405162461bcd60e51b8152602060048201526012602482015271125394d551919250d251539517d25394155560721b60448201526064015b60405180910390fd5b60007f00000000000000000000000000000000000000000000000000000000000000006001600160a01b03163460405160006040518083038185875af1925050503d8060008114610a46576040519150601f19603f3d011682016040523d82523d6000602084013e610a4b565b606091505b5050905080610a915760405162461bcd60e51b815260206004820152601260248201527108c8292988a88bea89ebea68a9c88be8aa8960731b60448201526064016109d0565b7f00000000000000000000000000000000000000000000000000000000000000006001600160a01b0316637ff36ab560008c8c6000818110610ae357634e487b7160e01b600052603260045260246000fd5b9050602002810190610af59190614eea565b308a6040518663ffffffff1660e01b8152600401610b17959493929190614e27565b600060405180830381600087803b158015610b3157600080fd5b505af1158015610b45573d6000803e3d6000fd5b505050506040513d6000823e601f3d908101601f19168201604052610b6d9190810190614c77565b50600060018951610b7e9190614f9f565b90505b801561122057888181518110610ba757634e487b7160e01b600052603260045260246000fd5b602002602001015160001415610fdb578a8a82818110610bd757634e487b7160e01b600052603260045260246000fd5b9050602002810190610be99190614eea565b6000818110610c0857634e487b7160e01b600052603260045260246000fd5b9050602002016020810190610c1d9190614b5c565b6001600160a01b031663095ea7b37f000000000000000000000000000000000000000000000000000000000000000086600081518110610c6d57634e487b7160e01b600052603260045260246000fd5b60200260200101516040518363ffffffff1660e01b8152600401610c92929190614dc1565b602060405180830381600087803b158015610cac57600080fd5b505af1158015610cc0573d6000803e3d6000fd5b505050506040513d601f19601f82011682018060405250810190610ce49190614cfe565b5060007f00000000000000000000000000000000000000000000000000000000000000006001600160a01b03166366c0bd248d8d85818110610d3657634e487b7160e01b600052603260045260246000fd5b9050602002810190610d489190614eea565b6000818110610d6757634e487b7160e01b600052603260045260246000fd5b9050602002016020810190610d7c9190614b5c565b6040516001600160e01b031960e084901b1681526001600160a01b03909116600482015260240160206040518083038186803b158015610dbb57600080fd5b505afa158015610dcf573d6000803e3d6000fd5b505050506040513d601f19601f82011682018060405250810190610df39190614d36565b905060007f00000000000000000000000000000000000000000000000000000000000000006001600160a01b03166366c0bd248e8e86818110610e4657634e487b7160e01b600052603260045260246000fd5b9050602002810190610e589190614eea565b6001818110610e7757634e487b7160e01b600052603260045260246000fd5b9050602002016020810190610e8c9190614b5c565b6040516001600160e01b031960e084901b1681526001600160a01b03909116600482015260240160206040518083038186803b158015610ecb57600080fd5b505afa158015610edf573d6000803e3d6000fd5b505050506040513d601f19601f82011682018060405250810190610f039190614d36565b90507f00000000000000000000000000000000000000000000000000000000000000006001600160a01b031663916955868383898781518110610f5657634e487b7160e01b600052603260045260246000fd5b602002602001015160008d6040518663ffffffff1660e01b8152600401610f81959493929190614ebf565b602060405180830381600087803b158015610f9b57600080fd5b505af1158015610faf573d6000803e3d6000fd5b505050506040513d601f19601f82011682018060405250810190610fd39190614d1e565b50505061120e565b8a8a82818110610ffb57634e487b7160e01b600052603260045260246000fd5b905060200281019061100d9190614eea565b600081811061102c57634e487b7160e01b600052603260045260246000fd5b90506020020160208101906110419190614b5c565b6001600160a01b031663095ea7b37f000000000000000000000000000000000000000000000000000000000000000086848151811061109057634e487b7160e01b600052603260045260246000fd5b60200260200101516040518363ffffffff1660e01b81526004016110b5929190614dc1565b602060405180830381600087803b1580156110cf57600080fd5b505af11580156110e3573d6000803e3d6000fd5b505050506040513d601f19601f820116820180604052508101906111079190614cfe565b507f00000000000000000000000000000000000000000000000000000000000000006001600160a01b03166338ed173985838151811061115757634e487b7160e01b600052603260045260246000fd5b602002602001015160008e8e8681811061118157634e487b7160e01b600052603260045260246000fd5b90506020028101906111939190614eea565b308c6040518763ffffffff1660e01b81526004016111b696959493929190614e81565b600060405180830381600087803b1580156111d057600080fd5b505af11580156111e4573d6000803e3d6000fd5b505050506040513d6000823e601f3d908101601f1916820160405261120c9190810190614c77565b505b8061121881614fcd565b915050610b81565b50898961122e600182614f9f565b81811061124b57634e487b7160e01b600052603260045260246000fd5b905060200281019061125d9190614eea565b60018c8c61126b8382614f9f565b81811061128857634e487b7160e01b600052603260045260246000fd5b905060200281019061129a9190614eea565b6112a5929150614f9f565b8181106112c257634e487b7160e01b600052603260045260246000fd5b90506020020160208101906112d79190614b5c565b6001600160a01b031663a9059cbb33896040518363ffffffff1660e01b8152600401611304929190614dc1565b602060405180830381600087803b15801561131e57600080fd5b505af1158015611332573d6000803e3d6000fd5b505050506040513d601f19601f820116820180604052508101906113569190614cfe565b508260008151811061137857634e487b7160e01b600052603260045260246000fd5b602002602001015193505050509695505050505050565b6000808667ffffffffffffffff8111156113b957634e487b7160e01b600052604160045260246000fd5b6040519080825280602002602001820160405280156113e2578160200160208202803683370190505b50905060008590506000600188516113fa9190614f9f565b90505b80156118ae5787818151811061142357634e487b7160e01b600052603260045260246000fd5b60200260200101516000141561174a5760007f00000000000000000000000000000000000000000000000000000000000000006001600160a01b03166366c0bd248c8c8581811061148457634e487b7160e01b600052603260045260246000fd5b90506020028101906114969190614eea565b60018181106114b557634e487b7160e01b600052603260045260246000fd5b90506020020160208101906114ca9190614b5c565b6040516001600160e01b031960e084901b1681526001600160a01b03909116600482015260240160206040518083038186803b15801561150957600080fd5b505afa15801561151d573d6000803e3d6000fd5b505050506040513d601f19601f820116820180604052508101906115419190614d36565b905060007f00000000000000000000000000000000000000000000000000000000000000006001600160a01b03166366c0bd248d8d8681811061159457634e487b7160e01b600052603260045260246000fd5b90506020028101906115a69190614eea565b60008181106115c557634e487b7160e01b600052603260045260246000fd5b90506020020160208101906115da9190614b5c565b6040516001600160e01b031960e084901b1681526001600160a01b03909116600482015260240160206040518083038186803b15801561161957600080fd5b505afa15801561162d573d6000803e3d6000fd5b505050506040513d601f19601f820116820180604052508101906116519190614d36565b60405163a95b089f60e01b815260ff808516600483015282166024820152604481018690529091507f00000000000000000000000000000000000000000000000000000000000000006001600160a01b03169063a95b089f9060640160206040518083038186803b1580156116c557600080fd5b505afa1580156116d9573d6000803e3d6000fd5b505050506040513d601f19601f820116820180604052508101906116fd9190614d1e565b935083858b518561170e9190614f9f565b611719906001614f87565b8151811061173757634e487b7160e01b600052603260045260246000fd5b602002602001018181525050505061189c565b60007f00000000000000000000000000000000000000000000000000000000000000006001600160a01b0316631f00ca74898d8d8681811061179c57634e487b7160e01b600052603260045260246000fd5b90506020028101906117ae9190614eea565b6040518463ffffffff1660e01b81526004016117cc93929190614e5e565b60006040518083038186803b1580156117e457600080fd5b505afa1580156117f8573d6000803e3d6000fd5b505050506040513d6000823e601f3d908101601f191682016040526118209190810190614c77565b905080600182516118319190614f9f565b8151811061184f57634e487b7160e01b600052603260045260246000fd5b6020026020010151848a51846118659190614f9f565b611870906001614f87565b8151811061188e57634e487b7160e01b600052603260045260246000fd5b602002602001018181525050505b806118a681614fcd565b9150506113fd565b5084826000815181106118d157634e487b7160e01b600052603260045260246000fd5b6020026020010151111561191c5760405162461bcd60e51b8152602060048201526012602482015271125394d551919250d251539517d25394155560721b60448201526064016109d0565b8888600081811061193d57634e487b7160e01b600052603260045260246000fd5b905060200281019061194f9190614eea565b600081811061196e57634e487b7160e01b600052603260045260246000fd5b90506020020160208101906119839190614b5c565b6001600160a01b03166323b872dd3330856000815181106119b457634e487b7160e01b600052603260045260246000fd5b60200260200101516040518463ffffffff1660e01b81526004016119da93929190614d9d565b602060405180830381600087803b1580156119f457600080fd5b505af1158015611a08573d6000803e3d6000fd5b505050506040513d601f19601f82011682018060405250810190611a2c9190614cfe565b50600060018851611a3d9190614f9f565b90505b80156120df57878181518110611a6657634e487b7160e01b600052603260045260246000fd5b602002602001015160001415611e9a57898982818110611a9657634e487b7160e01b600052603260045260246000fd5b9050602002810190611aa89190614eea565b6000818110611ac757634e487b7160e01b600052603260045260246000fd5b9050602002016020810190611adc9190614b5c565b6001600160a01b031663095ea7b37f000000000000000000000000000000000000000000000000000000000000000085600081518110611b2c57634e487b7160e01b600052603260045260246000fd5b60200260200101516040518363ffffffff1660e01b8152600401611b51929190614dc1565b602060405180830381600087803b158015611b6b57600080fd5b505af1158015611b7f573d6000803e3d6000fd5b505050506040513d601f19601f82011682018060405250810190611ba39190614cfe565b5060007f00000000000000000000000000000000000000000000000000000000000000006001600160a01b03166366c0bd248c8c85818110611bf557634e487b7160e01b600052603260045260246000fd5b9050602002810190611c079190614eea565b6000818110611c2657634e487b7160e01b600052603260045260246000fd5b9050602002016020810190611c3b9190614b5c565b6040516001600160e01b031960e084901b1681526001600160a01b03909116600482015260240160206040518083038186803b158015611c7a57600080fd5b505afa158015611c8e573d6000803e3d6000fd5b505050506040513d601f19601f82011682018060405250810190611cb29190614d36565b905060007f00000000000000000000000000000000000000000000000000000000000000006001600160a01b03166366c0bd248d8d86818110611d0557634e487b7160e01b600052603260045260246000fd5b9050602002810190611d179190614eea565b6001818110611d3657634e487b7160e01b600052603260045260246000fd5b9050602002016020810190611d4b9190614b5c565b6040516001600160e01b031960e084901b1681526001600160a01b03909116600482015260240160206040518083038186803b158015611d8a57600080fd5b505afa158015611d9e573d6000803e3d6000fd5b505050506040513d601f19601f82011682018060405250810190611dc29190614d36565b90507f00000000000000000000000000000000000000000000000000000000000000006001600160a01b031663916955868383888781518110611e1557634e487b7160e01b600052603260045260246000fd5b602002602001015160008c6040518663ffffffff1660e01b8152600401611e40959493929190614ebf565b602060405180830381600087803b158015611e5a57600080fd5b505af1158015611e6e573d6000803e3d6000fd5b505050506040513d601f19601f82011682018060405250810190611e929190614d1e565b5050506120cd565b898982818110611eba57634e487b7160e01b600052603260045260246000fd5b9050602002810190611ecc9190614eea565b6000818110611eeb57634e487b7160e01b600052603260045260246000fd5b9050602002016020810190611f009190614b5c565b6001600160a01b031663095ea7b37f0000000000000000000000000000000000000000000000000000000000000000858481518110611f4f57634e487b7160e01b600052603260045260246000fd5b60200260200101516040518363ffffffff1660e01b8152600401611f74929190614dc1565b602060405180830381600087803b158015611f8e57600080fd5b505af1158015611fa2573d6000803e3d6000fd5b505050506040513d601f19601f82011682018060405250810190611fc69190614cfe565b507f00000000000000000000000000000000000000000000000000000000000000006001600160a01b03166338ed173984838151811061201657634e487b7160e01b600052603260045260246000fd5b602002602001015160008d8d8681811061204057634e487b7160e01b600052603260045260246000fd5b90506020028101906120529190614eea565b308b6040518763ffffffff1660e01b815260040161207596959493929190614e81565b600060405180830381600087803b15801561208f57600080fd5b505af11580156120a3573d6000803e3d6000fd5b505050506040513d6000823e601f3d908101601f191682016040526120cb9190810190614c77565b505b806120d781614fcd565b915050611a40565b5088886120ed600182614f9f565b81811061210a57634e487b7160e01b600052603260045260246000fd5b905060200281019061211c9190614eea565b60018b8b61212a8382614f9f565b81811061214757634e487b7160e01b600052603260045260246000fd5b90506020028101906121599190614eea565b612164929150614f9f565b81811061218157634e487b7160e01b600052603260045260246000fd5b90506020020160208101906121969190614b5c565b6001600160a01b031663a9059cbb33886040518363ffffffff1660e01b81526004016121c3929190614dc1565b602060405180830381600087803b1580156121dd57600080fd5b505af11580156121f1573d6000803e3d6000fd5b505050506040513d601f19601f820116820180604052508101906122159190614cfe565b508160008151811061223757634e487b7160e01b600052603260045260246000fd5b6020026020010151925050509695505050505050565b6000807f00000000000000000000000000000000000000000000000000000000000000006001600160a01b03163460405160006040518083038185875af1925050503d80600081146122bb576040519150601f19603f3d011682016040523d82523d6000602084013e6122c0565b606091505b50509050806123065760405162461bcd60e51b815260206004820152601260248201527108c8292988a88bea89ebea68a9c88be8aa8960731b60448201526064016109d0565b7f00000000000000000000000000000000000000000000000000000000000000006001600160a01b0316637ff36ab560008989600081811061235857634e487b7160e01b600052603260045260246000fd5b905060200281019061236a9190614eea565b30886040518663ffffffff1660e01b815260040161238c959493929190614e27565b600060405180830381600087803b1580156123a657600080fd5b505af11580156123ba573d6000803e3d6000fd5b505050506040513d6000823e601f3d908101601f191682016040526123e29190810190614c77565b5060007f00000000000000000000000000000000000000000000000000000000000000006001600160a01b0316637ff36ab560008a8a600081811061243757634e487b7160e01b600052603260045260246000fd5b90506020028101906124499190614eea565b30896040518663ffffffff1660e01b815260040161246b959493929190614e27565b600060405180830381600087803b15801561248557600080fd5b505af1158015612499573d6000803e3d6000fd5b505050506040513d6000823e601f3d908101601f191682016040526124c19190810190614c77565b9050600081600183516124d49190614f9f565b815181106124f257634e487b7160e01b600052603260045260246000fd5b602002602001015190506000600190505b87518160ff161015612b9257878160ff168151811061253257634e487b7160e01b600052603260045260246000fd5b60200260200101516000141561293f5789898260ff1681811061256557634e487b7160e01b600052603260045260246000fd5b90506020028101906125779190614eea565b600081811061259657634e487b7160e01b600052603260045260246000fd5b90506020020160208101906125ab9190614b5c565b6001600160a01b031663095ea7b37f0000000000000000000000000000000000000000000000000000000000000000846040518363ffffffff1660e01b81526004016125f8929190614dc1565b602060405180830381600087803b15801561261257600080fd5b505af1158015612626573d6000803e3d6000fd5b505050506040513d601f19601f8201168201806040525081019061264a9190614cfe565b5060007f00000000000000000000000000000000000000000000000000000000000000006001600160a01b03166366c0bd248c8c8560ff1681811061269f57634e487b7160e01b600052603260045260246000fd5b90506020028101906126b19190614eea565b60008181106126d057634e487b7160e01b600052603260045260246000fd5b90506020020160208101906126e59190614b5c565b6040516001600160e01b031960e084901b1681526001600160a01b03909116600482015260240160206040518083038186803b15801561272457600080fd5b505afa158015612738573d6000803e3d6000fd5b505050506040513d601f19601f8201168201806040525081019061275c9190614d36565b905060007f00000000000000000000000000000000000000000000000000000000000000006001600160a01b03166366c0bd248d8d8660ff168181106127b257634e487b7160e01b600052603260045260246000fd5b90506020028101906127c49190614eea565b60018181106127e357634e487b7160e01b600052603260045260246000fd5b90506020020160208101906127f89190614b5c565b6040516001600160e01b031960e084901b1681526001600160a01b03909116600482015260240160206040518083038186803b15801561283757600080fd5b505afa15801561284b573d6000803e3d6000fd5b505050506040513d601f19601f8201168201806040525081019061286f9190614d36565b90507f00000000000000000000000000000000000000000000000000000000000000006001600160a01b0316639169558683838760018f516128b19190614f9f565b8860ff16106128c0578d6128c3565b60005b8d6040518663ffffffff1660e01b81526004016128e4959493929190614ebf565b602060405180830381600087803b1580156128fe57600080fd5b505af1158015612912573d6000803e3d6000fd5b505050506040513d601f19601f820116820180604052508101906129369190614d1e565b93505050612b80565b89898260ff1681811061296257634e487b7160e01b600052603260045260246000fd5b90506020028101906129749190614eea565b600081811061299357634e487b7160e01b600052603260045260246000fd5b90506020020160208101906129a89190614b5c565b6001600160a01b031663095ea7b37f0000000000000000000000000000000000000000000000000000000000000000846040518363ffffffff1660e01b81526004016129f5929190614dc1565b602060405180830381600087803b158015612a0f57600080fd5b505af1158015612a23573d6000803e3d6000fd5b505050506040513d601f19601f82011682018060405250810190612a479190614cfe565b507f00000000000000000000000000000000000000000000000000000000000000006001600160a01b03166338ed17398360018b51612a869190614f9f565b8460ff1610612a955789612a98565b60005b8d8d8660ff16818110612abb57634e487b7160e01b600052603260045260246000fd5b9050602002810190612acd9190614eea565b308c6040518763ffffffff1660e01b8152600401612af096959493929190614e81565b600060405180830381600087803b158015612b0a57600080fd5b505af1158015612b1e573d6000803e3d6000fd5b505050506040513d6000823e601f3d908101601f19168201604052612b469190810190614c77565b92508260018451612b579190614f9f565b81518110612b7557634e487b7160e01b600052603260045260246000fd5b602002602001015191505b80612b8a81614fe8565b915050612503565b508888612ba0600182614f9f565b818110612bbd57634e487b7160e01b600052603260045260246000fd5b9050602002810190612bcf9190614eea565b60018b8b612bdd8382614f9f565b818110612bfa57634e487b7160e01b600052603260045260246000fd5b9050602002810190612c0c9190614eea565b612c17929150614f9f565b818110612c3457634e487b7160e01b600052603260045260246000fd5b9050602002016020810190612c499190614b5c565b6001600160a01b031663a9059cbb33836040518363ffffffff1660e01b8152600401612c76929190614dc1565b602060405180830381600087803b158015612c9057600080fd5b505af1158015612ca4573d6000803e3d6000fd5b505050506040513d601f19601f82011682018060405250810190612cc89190614cfe565b5098975050505050505050565b600083816001600160a01b037f000000000000000000000000000000000000000000000000000000000000000016631f00ca74838b8b8581612d2757634e487b7160e01b600052603260045260246000fd5b9050602002810190612d399190614eea565b6040518463ffffffff1660e01b8152600401612d5793929190614e5e565b60006040518083038186803b158015612d6f57600080fd5b505afa158015612d83573d6000803e3d6000fd5b505050506040513d6000823e601f3d908101601f19168201604052612dab9190810190614c77565b509098975050505050505050565b600086866000818110612ddc57634e487b7160e01b600052603260045260246000fd5b9050602002810190612dee9190614eea565b6000818110612e0d57634e487b7160e01b600052603260045260246000fd5b9050602002016020810190612e229190614b5c565b6001600160a01b03166323b872dd3330876040518463ffffffff1660e01b8152600401612e5193929190614d9d565b602060405180830381600087803b158015612e6b57600080fd5b505af1158015612e7f573d6000803e3d6000fd5b505050506040513d601f19601f82011682018060405250810190612ea39190614cfe565b508360005b865181101561351f57868181518110612ed157634e487b7160e01b600052603260045260246000fd5b6020026020010151600014156132d257888882818110612f0157634e487b7160e01b600052603260045260246000fd5b9050602002810190612f139190614eea565b6000818110612f3257634e487b7160e01b600052603260045260246000fd5b9050602002016020810190612f479190614b5c565b6001600160a01b031663095ea7b37f0000000000000000000000000000000000000000000000000000000000000000846040518363ffffffff1660e01b8152600401612f94929190614dc1565b602060405180830381600087803b158015612fae57600080fd5b505af1158015612fc2573d6000803e3d6000fd5b505050506040513d601f19601f82011682018060405250810190612fe69190614cfe565b5060007f00000000000000000000000000000000000000000000000000000000000000006001600160a01b03166366c0bd248b8b8581811061303857634e487b7160e01b600052603260045260246000fd5b905060200281019061304a9190614eea565b600081811061306957634e487b7160e01b600052603260045260246000fd5b905060200201602081019061307e9190614b5c565b6040516001600160e01b031960e084901b1681526001600160a01b03909116600482015260240160206040518083038186803b1580156130bd57600080fd5b505afa1580156130d1573d6000803e3d6000fd5b505050506040513d601f19601f820116820180604052508101906130f59190614d36565b905060007f00000000000000000000000000000000000000000000000000000000000000006001600160a01b03166366c0bd248c8c8681811061314857634e487b7160e01b600052603260045260246000fd5b905060200281019061315a9190614eea565b600181811061317957634e487b7160e01b600052603260045260246000fd5b905060200201602081019061318e9190614b5c565b6040516001600160e01b031960e084901b1681526001600160a01b03909116600482015260240160206040518083038186803b1580156131cd57600080fd5b505afa1580156131e1573d6000803e3d6000fd5b505050506040513d601f19601f820116820180604052508101906132059190614d36565b90507f00000000000000000000000000000000000000000000000000000000000000006001600160a01b0316639169558683838760018e516132479190614f9f565b8810613253578b613256565b60005b8b6040518663ffffffff1660e01b8152600401613277959493929190614ebf565b602060405180830381600087803b15801561329157600080fd5b505af11580156132a5573d6000803e3d6000fd5b505050506040513d601f19601f820116820180604052508101906132c99190614d1e565b9350505061350d565b8888828181106132f257634e487b7160e01b600052603260045260246000fd5b90506020028101906133049190614eea565b600081811061332357634e487b7160e01b600052603260045260246000fd5b90506020020160208101906133389190614b5c565b6001600160a01b031663095ea7b37f0000000000000000000000000000000000000000000000000000000000000000846040518363ffffffff1660e01b8152600401613385929190614dc1565b602060405180830381600087803b15801561339f57600080fd5b505af11580156133b3573d6000803e3d6000fd5b505050506040513d601f19601f820116820180604052508101906133d79190614cfe565b5060007f00000000000000000000000000000000000000000000000000000000000000006001600160a01b03166338ed17398460018b516134189190614f9f565b85106134245788613427565b60005b8d8d8781811061344757634e487b7160e01b600052603260045260246000fd5b90506020028101906134599190614eea565b308b6040518763ffffffff1660e01b815260040161347c96959493929190614e81565b600060405180830381600087803b15801561349657600080fd5b505af11580156134aa573d6000803e3d6000fd5b505050506040513d6000823e601f3d908101601f191682016040526134d29190810190614c77565b905080600182516134e39190614f9f565b8151811061350157634e487b7160e01b600052603260045260246000fd5b60200260200101519250505b8061351781614fcd565b915050612ea8565b50878761352d600182614f9f565b81811061354a57634e487b7160e01b600052603260045260246000fd5b905060200281019061355c9190614eea565b60018a8a61356a8382614f9f565b81811061358757634e487b7160e01b600052603260045260246000fd5b90506020028101906135999190614eea565b6135a4929150614f9f565b8181106135c157634e487b7160e01b600052603260045260246000fd5b90506020020160208101906135d69190614b5c565b6001600160a01b031663a9059cbb33836040518363ffffffff1660e01b8152600401613603929190614dc1565b602060405180830381600087803b15801561361d57600080fd5b505af1158015613631573d6000803e3d6000fd5b505050506040513d601f19601f820116820180604052508101906136559190614cfe565b50979650505050505050565b6000808667ffffffffffffffff81111561368b57634e487b7160e01b600052604160045260246000fd5b6040519080825280602002602001820160405280156136b4578160200160208202803683370190505b50905060008590506000600188516136cc9190614f9f565b90505b8781815181106136ef57634e487b7160e01b600052603260045260246000fd5b602002602001015160001415613a165760007f00000000000000000000000000000000000000000000000000000000000000006001600160a01b03166366c0bd248c8c8581811061375057634e487b7160e01b600052603260045260246000fd5b90506020028101906137629190614eea565b600181811061378157634e487b7160e01b600052603260045260246000fd5b90506020020160208101906137969190614b5c565b6040516001600160e01b031960e084901b1681526001600160a01b03909116600482015260240160206040518083038186803b1580156137d557600080fd5b505afa1580156137e9573d6000803e3d6000fd5b505050506040513d601f19601f8201168201806040525081019061380d9190614d36565b905060007f00000000000000000000000000000000000000000000000000000000000000006001600160a01b03166366c0bd248d8d8681811061386057634e487b7160e01b600052603260045260246000fd5b90506020028101906138729190614eea565b600081811061389157634e487b7160e01b600052603260045260246000fd5b90506020020160208101906138a69190614b5c565b6040516001600160e01b031960e084901b1681526001600160a01b03909116600482015260240160206040518083038186803b1580156138e557600080fd5b505afa1580156138f9573d6000803e3d6000fd5b505050506040513d601f19601f8201168201806040525081019061391d9190614d36565b60405163a95b089f60e01b815260ff808516600483015282166024820152604481018690529091507f00000000000000000000000000000000000000000000000000000000000000006001600160a01b03169063a95b089f9060640160206040518083038186803b15801561399157600080fd5b505afa1580156139a5573d6000803e3d6000fd5b505050506040513d601f19601f820116820180604052508101906139c99190614d1e565b935083858b51856139da9190614f9f565b6139e5906001614f87565b81518110613a0357634e487b7160e01b600052603260045260246000fd5b6020026020010181815250505050613b68565b60007f00000000000000000000000000000000000000000000000000000000000000006001600160a01b0316631f00ca74848d8d86818110613a6857634e487b7160e01b600052603260045260246000fd5b9050602002810190613a7a9190614eea565b6040518463ffffffff1660e01b8152600401613a9893929190614e5e565b60006040518083038186803b158015613ab057600080fd5b505afa158015613ac4573d6000803e3d6000fd5b505050506040513d6000823e601f3d908101601f19168201604052613aec9190810190614c77565b90508060018251613afd9190614f9f565b81518110613b1b57634e487b7160e01b600052603260045260246000fd5b6020026020010151848a5184613b319190614f9f565b613b3c906001614f87565b81518110613b5a57634e487b7160e01b600052603260045260246000fd5b602002602001018181525050505b80613b7281614fb6565b9150506136cf565b878181518110613b9a57634e487b7160e01b600052603260045260246000fd5b602002602001015160001415613fce57898982818110613bca57634e487b7160e01b600052603260045260246000fd5b9050602002810190613bdc9190614eea565b6000818110613bfb57634e487b7160e01b600052603260045260246000fd5b9050602002016020810190613c109190614b5c565b6001600160a01b031663095ea7b37f000000000000000000000000000000000000000000000000000000000000000085600081518110613c6057634e487b7160e01b600052603260045260246000fd5b60200260200101516040518363ffffffff1660e01b8152600401613c85929190614dc1565b602060405180830381600087803b158015613c9f57600080fd5b505af1158015613cb3573d6000803e3d6000fd5b505050506040513d601f19601f82011682018060405250810190613cd79190614cfe565b5060007f00000000000000000000000000000000000000000000000000000000000000006001600160a01b03166366c0bd248c8c85818110613d2957634e487b7160e01b600052603260045260246000fd5b9050602002810190613d3b9190614eea565b6000818110613d5a57634e487b7160e01b600052603260045260246000fd5b9050602002016020810190613d6f9190614b5c565b6040516001600160e01b031960e084901b1681526001600160a01b03909116600482015260240160206040518083038186803b158015613dae57600080fd5b505afa158015613dc2573d6000803e3d6000fd5b505050506040513d601f19601f82011682018060405250810190613de69190614d36565b905060007f00000000000000000000000000000000000000000000000000000000000000006001600160a01b03166366c0bd248d8d86818110613e3957634e487b7160e01b600052603260045260246000fd5b9050602002810190613e4b9190614eea565b6001818110613e6a57634e487b7160e01b600052603260045260246000fd5b9050602002016020810190613e7f9190614b5c565b6040516001600160e01b031960e084901b1681526001600160a01b03909116600482015260240160206040518083038186803b158015613ebe57600080fd5b505afa158015613ed2573d6000803e3d6000fd5b505050506040513d601f19601f82011682018060405250810190613ef69190614d36565b90507f00000000000000000000000000000000000000000000000000000000000000006001600160a01b031663916955868383888781518110613f4957634e487b7160e01b600052603260045260246000fd5b602002602001015160008c6040518663ffffffff1660e01b8152600401613f74959493929190614ebf565b602060405180830381600087803b158015613f8e57600080fd5b505af1158015613fa2573d6000803e3d6000fd5b505050506040513d601f19601f82011682018060405250810190613fc69190614d1e565b505050614201565b898982818110613fee57634e487b7160e01b600052603260045260246000fd5b90506020028101906140009190614eea565b600081811061401f57634e487b7160e01b600052603260045260246000fd5b90506020020160208101906140349190614b5c565b6001600160a01b031663095ea7b37f000000000000000000000000000000000000000000000000000000000000000085848151811061408357634e487b7160e01b600052603260045260246000fd5b60200260200101516040518363ffffffff1660e01b81526004016140a8929190614dc1565b602060405180830381600087803b1580156140c257600080fd5b505af11580156140d6573d6000803e3d6000fd5b505050506040513d601f19601f820116820180604052508101906140fa9190614cfe565b507f00000000000000000000000000000000000000000000000000000000000000006001600160a01b03166338ed173984838151811061414a57634e487b7160e01b600052603260045260246000fd5b602002602001015160008d8d8681811061417457634e487b7160e01b600052603260045260246000fd5b90506020028101906141869190614eea565b308b6040518763ffffffff1660e01b81526004016141a996959493929190614e81565b600060405180830381600087803b1580156141c357600080fd5b505af11580156141d7573d6000803e3d6000fd5b505050506040513d6000823e601f3d908101601f191682016040526141ff9190810190614c77565b505b8061420b81614fb6565b915050613b7a565b6060836000805b87518160ff16101561429357878160ff168151811061424957634e487b7160e01b600052603260045260246000fd5b60200260200101516000141561425e57614281565b6001885161426c9190614f9f565b8160ff161061427b578561427e565b60005b91505b8061428b81614fe8565b91505061421a565b50888860008181106142b557634e487b7160e01b600052603260045260246000fd5b90506020028101906142c79190614eea565b80806020026020016040519081016040528093929190818152602001838360200280828437600092019190915250929c9b505050505050505050505050565b60008686600081811061432957634e487b7160e01b600052603260045260246000fd5b905060200281019061433b9190614eea565b600081811061435a57634e487b7160e01b600052603260045260246000fd5b905060200201602081019061436f9190614b5c565b6001600160a01b03166323b872dd3330876040518463ffffffff1660e01b815260040161439e93929190614d9d565b602060405180830381600087803b1580156143b857600080fd5b505af11580156143cc573d6000803e3d6000fd5b505050506040513d601f19601f820116820180604052508101906143f09190614cfe565b508360005b86518160ff16101561351f57868160ff168151811061442457634e487b7160e01b600052603260045260246000fd5b6020026020010151600014156148315788888260ff1681811061445757634e487b7160e01b600052603260045260246000fd5b90506020028101906144699190614eea565b600081811061448857634e487b7160e01b600052603260045260246000fd5b905060200201602081019061449d9190614b5c565b6001600160a01b031663095ea7b37f0000000000000000000000000000000000000000000000000000000000000000846040518363ffffffff1660e01b81526004016144ea929190614dc1565b602060405180830381600087803b15801561450457600080fd5b505af1158015614518573d6000803e3d6000fd5b505050506040513d601f19601f8201168201806040525081019061453c9190614cfe565b5060007f00000000000000000000000000000000000000000000000000000000000000006001600160a01b03166366c0bd248b8b8560ff1681811061459157634e487b7160e01b600052603260045260246000fd5b90506020028101906145a39190614eea565b60008181106145c257634e487b7160e01b600052603260045260246000fd5b90506020020160208101906145d79190614b5c565b6040516001600160e01b031960e084901b1681526001600160a01b03909116600482015260240160206040518083038186803b15801561461657600080fd5b505afa15801561462a573d6000803e3d6000fd5b505050506040513d601f19601f8201168201806040525081019061464e9190614d36565b905060007f00000000000000000000000000000000000000000000000000000000000000006001600160a01b03166366c0bd248c8c8660ff168181106146a457634e487b7160e01b600052603260045260246000fd5b90506020028101906146b69190614eea565b60018181106146d557634e487b7160e01b600052603260045260246000fd5b90506020020160208101906146ea9190614b5c565b6040516001600160e01b031960e084901b1681526001600160a01b03909116600482015260240160206040518083038186803b15801561472957600080fd5b505afa15801561473d573d6000803e3d6000fd5b505050506040513d601f19601f820116820180604052508101906147619190614d36565b90507f00000000000000000000000000000000000000000000000000000000000000006001600160a01b0316639169558683838760018e516147a39190614f9f565b8860ff16106147b2578b6147b5565b60005b8b6040518663ffffffff1660e01b81526004016147d6959493929190614ebf565b602060405180830381600087803b1580156147f057600080fd5b505af1158015614804573d6000803e3d6000fd5b505050506040513d601f19601f820116820180604052508101906148289190614d1e565b93505050614a75565b88888260ff1681811061485457634e487b7160e01b600052603260045260246000fd5b90506020028101906148669190614eea565b600081811061488557634e487b7160e01b600052603260045260246000fd5b905060200201602081019061489a9190614b5c565b6001600160a01b031663095ea7b37f0000000000000000000000000000000000000000000000000000000000000000846040518363ffffffff1660e01b81526004016148e7929190614dc1565b602060405180830381600087803b15801561490157600080fd5b505af1158015614915573d6000803e3d6000fd5b505050506040513d601f19601f820116820180604052508101906149399190614cfe565b5060007f00000000000000000000000000000000000000000000000000000000000000006001600160a01b03166338ed17398460018b5161497a9190614f9f565b8560ff1610614989578861498c565b60005b8d8d8760ff168181106149af57634e487b7160e01b600052603260045260246000fd5b90506020028101906149c19190614eea565b308b6040518763ffffffff1660e01b81526004016149e496959493929190614e81565b600060405180830381600087803b1580156149fe57600080fd5b505af1158015614a12573d6000803e3d6000fd5b505050506040513d6000823e601f3d908101601f19168201604052614a3a9190810190614c77565b90508060018251614a4b9190614f9f565b81518110614a6957634e487b7160e01b600052603260045260246000fd5b60200260200101519250505b80614a7f81614fe8565b9150506143f5565b80356001600160a01b0381168114614a9e57600080fd5b919050565b60008083601f840112614ab4578182fd5b50813567ffffffffffffffff811115614acb578182fd5b6020830191508360208260051b8501011115614ae657600080fd5b9250929050565b600082601f830112614afd578081fd5b81356020614b12614b0d83614f63565b614f32565b80838252828201915082860187848660051b8901011115614b31578586fd5b855b85811015614b4f57813584529284019290840190600101614b33565b5090979650505050505050565b600060208284031215614b6d578081fd5b614b7682614a87565b9392505050565b60008060008060008060a08789031215614b95578182fd5b863567ffffffffffffffff80821115614bac578384fd5b614bb88a838b01614aa3565b90985096506020890135915080821115614bd0578384fd5b50614bdd89828a01614aed565b9450506040870135925060608701359150608087013590509295509295509295565b600080600080600060808688031215614c16578081fd5b853567ffffffffffffffff80821115614c2d578283fd5b614c3989838a01614aa3565b90975095506020880135915080821115614c51578283fd5b50614c5e88828901614aed565b9598949750949560408101359550606001359392505050565b60006020808385031215614c89578182fd5b825167ffffffffffffffff811115614c9f578283fd5b8301601f81018513614caf578283fd5b8051614cbd614b0d82614f63565b80828252848201915084840188868560051b8701011115614cdc578687fd5b8694505b83851015613655578051835260019490940193918501918501614ce0565b600060208284031215614d0f578081fd5b81518015158114614b76578182fd5b600060208284031215614d2f578081fd5b5051919050565b600060208284031215614d47578081fd5b815160ff81168114614b76578182fd5b81835260006020808501945082825b85811015614d92576001600160a01b03614d7f83614a87565b1687529582019590820190600101614d66565b509495945050505050565b6001600160a01b039384168152919092166020820152604081019190915260600190565b6001600160a01b03929092168252602082015260400190565b6020808252825182820181905260009190848201906040850190845b81811015614e1b5783516001600160a01b031683529284019291840191600101614df6565b50909695505050505050565b858152608060208201526000614e41608083018688614d57565b6001600160a01b0394909416604083015250606001529392505050565b838152604060208201526000614e78604083018486614d57565b95945050505050565b86815285602082015260a060408201526000614ea160a083018688614d57565b6001600160a01b039490941660608301525060800152949350505050565b60ff958616815293909416602084015260408301919091526060820152608081019190915260a00190565b6000808335601e19843603018112614f00578283fd5b83018035915067ffffffffffffffff821115614f1a578283fd5b6020019150600581901b3603821315614ae657600080fd5b604051601f8201601f1916810167ffffffffffffffff81118282101715614f5b57614f5b61501e565b604052919050565b600067ffffffffffffffff821115614f7d57614f7d61501e565b5060051b60200190565b60008219821115614f9a57614f9a615008565b500190565b600082821015614fb157614fb1615008565b500390565b600081614fc557614fc5615008565b506000190190565b6000600019821415614fe157614fe1615008565b5060010190565b600060ff821660ff811415614fff57614fff615008565b60010192915050565b634e487b7160e01b600052601160045260246000fd5b634e487b7160e01b600052604160045260246000fdfea264697066735822122024fcb56167d0258e5c0aadc8e65d4277ac2c8e19fdcc2fcbe8237dc2aa7717c364736f6c63430008040033",
  "linkReferences": {},
  "deployedLinkReferences": {}
}