{
  "address": "0x9067e2C2bf8531283AB97C34EaA74599E0004842",
  "abi": [
    {
      "anonymous": false,
      "inputs": [
        {
          "indexed": true,
          "internalType": "address",
          "name": "provider",
          "type": "address"
        },
        {
          "indexed": false,
          "internalType": "uint256[]",
          "name": "tokenAmounts",
          "type": "uint256[]"
        },
        {
          "indexed": false,
          "internalType": "uint256[]",
          "name": "fees",
          "type": "uint256[]"
        },
        {
          "indexed": false,
          "internalType": "uint256",
          "name": "invariant",
          "type": "uint256"
        },
        {
          "indexed": false,
          "internalType": "uint256",
          "name": "tokenSupply",
          "type": "uint256"
        }
      ],
      "name": "AddLiquidity",
      "type": "event"
    },
    {
      "anonymous": false,
      "inputs": [
        {
          "indexed": false,
          "internalType": "address",
          "name": "token",
          "type": "address"
        },
        {
          "indexed": false,
          "internalType": "uint256",
          "name": "amount",
          "type": "uint256"
        }
      ],
      "name": "CollectProtocolFee",
      "type": "event"
    },
    {
      "anonymous": false,
      "inputs": [
        {
          "indexed": false,
          "internalType": "address",
          "name": "newController",
          "type": "address"
        }
      ],
      "name": "FeeControllerChanged",
      "type": "event"
    },
    {
      "anonymous": false,
      "inputs": [
        {
          "indexed": false,
          "internalType": "address",
          "name": "newController",
          "type": "address"
        }
      ],
      "name": "FeeDistributorChanged",
      "type": "event"
    },
    {
      "anonymous": false,
      "inputs": [
        {
          "indexed": false,
          "internalType": "uint256",
          "name": "fee",
          "type": "uint256"
        },
        {
          "indexed": false,
          "internalType": "uint256",
          "name": "adminFee",
          "type": "uint256"
        },
        {
          "indexed": false,
          "internalType": "uint256",
          "name": "withdrawFee",
          "type": "uint256"
        }
      ],
      "name": "NewFee",
      "type": "event"
    },
    {
      "anonymous": false,
      "inputs": [
        {
          "indexed": true,
          "internalType": "address",
          "name": "previousOwner",
          "type": "address"
        },
        {
          "indexed": true,
          "internalType": "address",
          "name": "newOwner",
          "type": "address"
        }
      ],
      "name": "OwnershipTransferred",
      "type": "event"
    },
    {
      "anonymous": false,
      "inputs": [
        {
          "indexed": false,
          "internalType": "address",
          "name": "account",
          "type": "address"
        }
      ],
      "name": "Paused",
      "type": "event"
    },
    {
      "anonymous": false,
      "inputs": [
        {
          "indexed": false,
          "internalType": "uint256",
          "name": "oldA",
          "type": "uint256"
        },
        {
          "indexed": false,
          "internalType": "uint256",
          "name": "newA",
          "type": "uint256"
        },
        {
          "indexed": false,
          "internalType": "uint256",
          "name": "initialTime",
          "type": "uint256"
        },
        {
          "indexed": false,
          "internalType": "uint256",
          "name": "futureTime",
          "type": "uint256"
        }
      ],
      "name": "RampA",
      "type": "event"
    },
    {
      "anonymous": false,
      "inputs": [
        {
          "indexed": true,
          "internalType": "address",
          "name": "provider",
          "type": "address"
        },
        {
          "indexed": false,
          "internalType": "uint256[]",
          "name": "tokenAmounts",
          "type": "uint256[]"
        },
        {
          "indexed": false,
          "internalType": "uint256[]",
          "name": "fees",
          "type": "uint256[]"
        },
        {
          "indexed": false,
          "internalType": "uint256",
          "name": "tokenSupply",
          "type": "uint256"
        }
      ],
      "name": "RemoveLiquidity",
      "type": "event"
    },
    {
      "anonymous": false,
      "inputs": [
        {
          "indexed": true,
          "internalType": "address",
          "name": "provider",
          "type": "address"
        },
        {
          "indexed": false,
          "internalType": "uint256[]",
          "name": "tokenAmounts",
          "type": "uint256[]"
        },
        {
          "indexed": false,
          "internalType": "uint256[]",
          "name": "fees",
          "type": "uint256[]"
        },
        {
          "indexed": false,
          "internalType": "uint256",
          "name": "invariant",
          "type": "uint256"
        },
        {
          "indexed": false,
          "internalType": "uint256",
          "name": "tokenSupply",
          "type": "uint256"
        }
      ],
      "name": "RemoveLiquidityImbalance",
      "type": "event"
    },
    {
      "anonymous": false,
      "inputs": [
        {
          "indexed": true,
          "internalType": "address",
          "name": "provider",
          "type": "address"
        },
        {
          "indexed": false,
          "internalType": "uint256",
          "name": "tokenIndex",
          "type": "uint256"
        },
        {
          "indexed": false,
          "internalType": "uint256",
          "name": "tokenAmount",
          "type": "uint256"
        },
        {
          "indexed": false,
          "internalType": "uint256",
          "name": "coinAmount",
          "type": "uint256"
        }
      ],
      "name": "RemoveLiquidityOne",
      "type": "event"
    },
    {
      "anonymous": false,
      "inputs": [
        {
          "indexed": false,
          "internalType": "uint256",
          "name": "A",
          "type": "uint256"
        },
        {
          "indexed": false,
          "internalType": "uint256",
          "name": "timestamp",
          "type": "uint256"
        }
      ],
      "name": "StopRampA",
      "type": "event"
    },
    {
      "anonymous": false,
      "inputs": [
        {
          "indexed": true,
          "internalType": "address",
          "name": "buyer",
          "type": "address"
        },
        {
          "indexed": false,
          "internalType": "uint256",
          "name": "soldId",
          "type": "uint256"
        },
        {
          "indexed": false,
          "internalType": "uint256",
          "name": "tokensSold",
          "type": "uint256"
        },
        {
          "indexed": false,
          "internalType": "uint256",
          "name": "boughtId",
          "type": "uint256"
        },
        {
          "indexed": false,
          "internalType": "uint256",
          "name": "tokensBought",
          "type": "uint256"
        }
      ],
      "name": "TokenExchange",
      "type": "event"
    },
    {
      "anonymous": false,
      "inputs": [
        {
          "indexed": false,
          "internalType": "address",
          "name": "account",
          "type": "address"
        }
      ],
      "name": "Unpaused",
      "type": "event"
    },
    {
      "inputs": [],
      "name": "MAX_A",
      "outputs": [
        {
          "internalType": "uint256",
          "name": "",
          "type": "uint256"
        }
      ],
      "stateMutability": "view",
      "type": "function"
    },
    {
      "inputs": [],
      "name": "MAX_ADMIN_FEE",
      "outputs": [
        {
          "internalType": "uint256",
          "name": "",
          "type": "uint256"
        }
      ],
      "stateMutability": "view",
      "type": "function"
    },
    {
      "inputs": [],
      "name": "MAX_A_CHANGE",
      "outputs": [
        {
          "internalType": "uint256",
          "name": "",
          "type": "uint256"
        }
      ],
      "stateMutability": "view",
      "type": "function"
    },
    {
      "inputs": [],
      "name": "MAX_SWAP_FEE",
      "outputs": [
        {
          "internalType": "uint256",
          "name": "",
          "type": "uint256"
        }
      ],
      "stateMutability": "view",
      "type": "function"
    },
    {
      "inputs": [],
      "name": "MAX_WITHDRAW_FEE",
      "outputs": [
        {
          "internalType": "uint256",
          "name": "",
          "type": "uint256"
        }
      ],
      "stateMutability": "view",
      "type": "function"
    },
    {
      "inputs": [],
      "name": "MIN_RAMP_TIME",
      "outputs": [
        {
          "internalType": "uint256",
          "name": "",
          "type": "uint256"
        }
      ],
      "stateMutability": "view",
      "type": "function"
    },
    {
      "inputs": [
        {
          "internalType": "uint256[]",
          "name": "amounts",
          "type": "uint256[]"
        },
        {
          "internalType": "uint256",
          "name": "minMintAmount",
          "type": "uint256"
        },
        {
          "internalType": "uint256",
          "name": "deadline",
          "type": "uint256"
        }
      ],
      "name": "addLiquidity",
      "outputs": [
        {
          "internalType": "uint256",
          "name": "",
          "type": "uint256"
        }
      ],
      "stateMutability": "nonpayable",
      "type": "function"
    },
    {
      "inputs": [
        {
          "internalType": "address",
          "name": "account",
          "type": "address"
        }
      ],
      "name": "calculateCurrentWithdrawFee",
      "outputs": [
        {
          "internalType": "uint256",
          "name": "",
          "type": "uint256"
        }
      ],
      "stateMutability": "view",
      "type": "function"
    },
    {
      "inputs": [
        {
          "internalType": "address",
          "name": "account",
          "type": "address"
        },
        {
          "internalType": "uint256",
          "name": "amount",
          "type": "uint256"
        }
      ],
      "name": "calculateRemoveLiquidity",
      "outputs": [
        {
          "internalType": "uint256[]",
          "name": "",
          "type": "uint256[]"
        }
      ],
      "stateMutability": "view",
      "type": "function"
    },
    {
      "inputs": [
        {
          "internalType": "address",
          "name": "account",
          "type": "address"
        },
        {
          "internalType": "uint256",
          "name": "amount",
          "type": "uint256"
        },
        {
          "internalType": "uint8",
          "name": "index",
          "type": "uint8"
        }
      ],
      "name": "calculateRemoveLiquidityOneToken",
      "outputs": [
        {
          "internalType": "uint256",
          "name": "",
          "type": "uint256"
        }
      ],
      "stateMutability": "view",
      "type": "function"
    },
    {
      "inputs": [
        {
          "internalType": "uint8",
          "name": "inIndex",
          "type": "uint8"
        },
        {
          "internalType": "uint8",
          "name": "outIndex",
          "type": "uint8"
        },
        {
          "internalType": "uint256",
          "name": "inAmount",
          "type": "uint256"
        }
      ],
      "name": "calculateSwap",
      "outputs": [
        {
          "internalType": "uint256",
          "name": "",
          "type": "uint256"
        }
      ],
      "stateMutability": "view",
      "type": "function"
    },
    {
      "inputs": [
        {
          "internalType": "uint256[]",
          "name": "amounts",
          "type": "uint256[]"
        },
        {
          "internalType": "bool",
          "name": "deposit",
          "type": "bool"
        }
      ],
      "name": "calculateTokenAmount",
      "outputs": [
        {
          "internalType": "uint256",
          "name": "",
          "type": "uint256"
        }
      ],
      "stateMutability": "view",
      "type": "function"
    },
    {
      "inputs": [],
      "name": "feeController",
      "outputs": [
        {
          "internalType": "address",
          "name": "",
          "type": "address"
        }
      ],
      "stateMutability": "view",
      "type": "function"
    },
    {
      "inputs": [],
      "name": "feeDistributor",
      "outputs": [
        {
          "internalType": "address",
          "name": "",
          "type": "address"
        }
      ],
      "stateMutability": "view",
      "type": "function"
    },
    {
      "inputs": [],
      "name": "getA",
      "outputs": [
        {
          "internalType": "uint256",
          "name": "",
          "type": "uint256"
        }
      ],
      "stateMutability": "view",
      "type": "function"
    },
    {
      "inputs": [],
      "name": "getAPrecise",
      "outputs": [
        {
          "internalType": "uint256",
          "name": "",
          "type": "uint256"
        }
      ],
      "stateMutability": "view",
      "type": "function"
    },
    {
      "inputs": [
        {
          "internalType": "uint8",
          "name": "index",
          "type": "uint8"
        }
      ],
      "name": "getAdminBalance",
      "outputs": [
        {
          "internalType": "uint256",
          "name": "",
          "type": "uint256"
        }
      ],
      "stateMutability": "view",
      "type": "function"
    },
    {
      "inputs": [],
      "name": "getAdminBalances",
      "outputs": [
        {
          "internalType": "uint256[]",
          "name": "adminBalances",
          "type": "uint256[]"
        }
      ],
      "stateMutability": "view",
      "type": "function"
    },
    {
      "inputs": [],
      "name": "getLpToken",
      "outputs": [
        {
          "internalType": "contract IERC20",
          "name": "",
          "type": "address"
        }
      ],
      "stateMutability": "view",
      "type": "function"
    },
    {
      "inputs": [],
      "name": "getNumberOfTokens",
      "outputs": [
        {
          "internalType": "uint256",
          "name": "",
          "type": "uint256"
        }
      ],
      "stateMutability": "view",
      "type": "function"
    },
    {
      "inputs": [
        {
          "internalType": "uint8",
          "name": "index",
          "type": "uint8"
        }
      ],
      "name": "getToken",
      "outputs": [
        {
          "internalType": "contract IERC20",
          "name": "",
          "type": "address"
        }
      ],
      "stateMutability": "view",
      "type": "function"
    },
    {
      "inputs": [
        {
          "internalType": "uint8",
          "name": "index",
          "type": "uint8"
        }
      ],
      "name": "getTokenBalance",
      "outputs": [
        {
          "internalType": "uint256",
          "name": "",
          "type": "uint256"
        }
      ],
      "stateMutability": "view",
      "type": "function"
    },
    {
      "inputs": [],
      "name": "getTokenBalances",
      "outputs": [
        {
          "internalType": "uint256[]",
          "name": "",
          "type": "uint256[]"
        }
      ],
      "stateMutability": "view",
      "type": "function"
    },
    {
      "inputs": [
        {
          "internalType": "address",
          "name": "token",
          "type": "address"
        }
      ],
      "name": "getTokenIndex",
      "outputs": [
        {
          "internalType": "uint8",
          "name": "index",
          "type": "uint8"
        }
      ],
      "stateMutability": "view",
      "type": "function"
    },
    {
      "inputs": [],
      "name": "getTokenPrecisionMultipliers",
      "outputs": [
        {
          "internalType": "uint256[]",
          "name": "",
          "type": "uint256[]"
        }
      ],
      "stateMutability": "view",
      "type": "function"
    },
    {
      "inputs": [],
      "name": "getTokens",
      "outputs": [
        {
          "internalType": "contract IERC20[]",
          "name": "",
          "type": "address[]"
        }
      ],
      "stateMutability": "view",
      "type": "function"
    },
    {
      "inputs": [],
      "name": "getVirtualPrice",
      "outputs": [
        {
          "internalType": "uint256",
          "name": "",
          "type": "uint256"
        }
      ],
      "stateMutability": "view",
      "type": "function"
    },
    {
      "inputs": [
        {
          "internalType": "address[]",
          "name": "_coins",
          "type": "address[]"
        },
        {
          "internalType": "uint8[]",
          "name": "_decimals",
          "type": "uint8[]"
        },
        {
          "internalType": "string",
          "name": "lpTokenName",
          "type": "string"
        },
        {
          "internalType": "string",
          "name": "lpTokenSymbol",
          "type": "string"
        },
        {
          "internalType": "uint256",
          "name": "_A",
          "type": "uint256"
        },
        {
          "internalType": "uint256",
          "name": "_fee",
          "type": "uint256"
        },
        {
          "internalType": "uint256",
          "name": "_adminFee",
          "type": "uint256"
        },
        {
          "internalType": "uint256",
          "name": "_withdrawFee",
          "type": "uint256"
        },
        {
          "internalType": "address",
          "name": "_feeDistributor",
          "type": "address"
        }
      ],
      "name": "initialize",
      "outputs": [],
      "stateMutability": "nonpayable",
      "type": "function"
    },
    {
      "inputs": [],
      "name": "owner",
      "outputs": [
        {
          "internalType": "address",
          "name": "",
          "type": "address"
        }
      ],
      "stateMutability": "view",
      "type": "function"
    },
    {
      "inputs": [],
      "name": "pause",
      "outputs": [],
      "stateMutability": "nonpayable",
      "type": "function"
    },
    {
      "inputs": [],
      "name": "paused",
      "outputs": [
        {
          "internalType": "bool",
          "name": "",
          "type": "bool"
        }
      ],
      "stateMutability": "view",
      "type": "function"
    },
    {
      "inputs": [
        {
          "internalType": "uint256",
          "name": "futureA",
          "type": "uint256"
        },
        {
          "internalType": "uint256",
          "name": "futureATime",
          "type": "uint256"
        }
      ],
      "name": "rampA",
      "outputs": [],
      "stateMutability": "nonpayable",
      "type": "function"
    },
    {
      "inputs": [
        {
          "internalType": "uint256",
          "name": "lpAmount",
          "type": "uint256"
        },
        {
          "internalType": "uint256[]",
          "name": "minAmounts",
          "type": "uint256[]"
        },
        {
          "internalType": "uint256",
          "name": "deadline",
          "type": "uint256"
        }
      ],
      "name": "removeLiquidity",
      "outputs": [
        {
          "internalType": "uint256[]",
          "name": "",
          "type": "uint256[]"
        }
      ],
      "stateMutability": "nonpayable",
      "type": "function"
    },
    {
      "inputs": [
        {
          "internalType": "uint256[]",
          "name": "amounts",
          "type": "uint256[]"
        },
        {
          "internalType": "uint256",
          "name": "maxBurnAmount",
          "type": "uint256"
        },
        {
          "internalType": "uint256",
          "name": "deadline",
          "type": "uint256"
        }
      ],
      "name": "removeLiquidityImbalance",
      "outputs": [
        {
          "internalType": "uint256",
          "name": "",
          "type": "uint256"
        }
      ],
      "stateMutability": "nonpayable",
      "type": "function"
    },
    {
      "inputs": [
        {
          "internalType": "uint256",
          "name": "lpAmount",
          "type": "uint256"
        },
        {
          "internalType": "uint8",
          "name": "index",
          "type": "uint8"
        },
        {
          "internalType": "uint256",
          "name": "minAmount",
          "type": "uint256"
        },
        {
          "internalType": "uint256",
          "name": "deadline",
          "type": "uint256"
        }
      ],
      "name": "removeLiquidityOneToken",
      "outputs": [
        {
          "internalType": "uint256",
          "name": "",
          "type": "uint256"
        }
      ],
      "stateMutability": "nonpayable",
      "type": "function"
    },
    {
      "inputs": [],
      "name": "renounceOwnership",
      "outputs": [],
      "stateMutability": "nonpayable",
      "type": "function"
    },
    {
      "inputs": [
        {
          "internalType": "uint256",
          "name": "newSwapFee",
          "type": "uint256"
        },
        {
          "internalType": "uint256",
          "name": "newAdminFee",
          "type": "uint256"
        },
        {
          "internalType": "uint256",
          "name": "newWithdrawFee",
          "type": "uint256"
        }
      ],
      "name": "setFee",
      "outputs": [],
      "stateMutability": "nonpayable",
      "type": "function"
    },
    {
      "inputs": [
        {
          "internalType": "address",
          "name": "_feeController",
          "type": "address"
        }
      ],
      "name": "setFeeController",
      "outputs": [],
      "stateMutability": "nonpayable",
      "type": "function"
    },
    {
      "inputs": [
        {
          "internalType": "address",
          "name": "_feeDistributor",
          "type": "address"
        }
      ],
      "name": "setFeeDistributor",
      "outputs": [],
      "stateMutability": "nonpayable",
      "type": "function"
    },
    {
      "inputs": [],
      "name": "stopRampA",
      "outputs": [],
      "stateMutability": "nonpayable",
      "type": "function"
    },
    {
      "inputs": [
        {
          "internalType": "uint8",
          "name": "fromIndex",
          "type": "uint8"
        },
        {
          "internalType": "uint8",
          "name": "toIndex",
          "type": "uint8"
        },
        {
          "internalType": "uint256",
          "name": "inAmount",
          "type": "uint256"
        },
        {
          "internalType": "uint256",
          "name": "minOutAmount",
          "type": "uint256"
        },
        {
          "internalType": "uint256",
          "name": "deadline",
          "type": "uint256"
        }
      ],
      "name": "swap",
      "outputs": [
        {
          "internalType": "uint256",
          "name": "",
          "type": "uint256"
        }
      ],
      "stateMutability": "nonpayable",
      "type": "function"
    },
    {
      "inputs": [],
      "name": "swapStorage",
      "outputs": [
        {
          "internalType": "contract LPToken",
          "name": "lpToken",
          "type": "address"
        },
        {
          "internalType": "uint256",
          "name": "fee",
          "type": "uint256"
        },
        {
          "internalType": "uint256",
          "name": "adminFee",
          "type": "uint256"
        },
        {
          "internalType": "uint256",
          "name": "initialA",
          "type": "uint256"
        },
        {
          "internalType": "uint256",
          "name": "futureA",
          "type": "uint256"
        },
        {
          "internalType": "uint256",
          "name": "initialATime",
          "type": "uint256"
        },
        {
          "internalType": "uint256",
          "name": "futureATime",
          "type": "uint256"
        },
        {
          "internalType": "uint256",
          "name": "defaultWithdrawFee",
          "type": "uint256"
        }
      ],
      "stateMutability": "view",
      "type": "function"
    },
    {
      "inputs": [
        {
          "internalType": "address",
          "name": "",
          "type": "address"
        }
      ],
      "name": "tokenIndexes",
      "outputs": [
        {
          "internalType": "uint8",
          "name": "",
          "type": "uint8"
        }
      ],
      "stateMutability": "view",
      "type": "function"
    },
    {
      "inputs": [
        {
          "internalType": "address",
          "name": "newOwner",
          "type": "address"
        }
      ],
      "name": "transferOwnership",
      "outputs": [],
      "stateMutability": "nonpayable",
      "type": "function"
    },
    {
      "inputs": [],
      "name": "unpause",
      "outputs": [],
      "stateMutability": "nonpayable",
      "type": "function"
    },
    {
      "inputs": [
        {
          "internalType": "address",
          "name": "recipient",
          "type": "address"
        },
        {
          "internalType": "uint256",
          "name": "transferAmount",
          "type": "uint256"
        }
      ],
      "name": "updateUserWithdrawFee",
      "outputs": [],
      "stateMutability": "nonpayable",
      "type": "function"
    },
    {
      "inputs": [],
      "name": "withdrawAdminFee",
      "outputs": [],
      "stateMutability": "nonpayable",
      "type": "function"
    }
  ],
  "transactionHash": "0xa973cdada91b824354cffc9f4463b933d8b2bc339f1c386906e8d4d24fa055dd",
  "args": [],
  "solcInputHash": "d3cd0b2d51786d70fd8bcac41d47fee6",
  "bytecode": "0x60806040523480156200001157600080fd5b506200001d3362000034565b6000805460ff60a01b191690556001805562000084565b600080546001600160a01b038381166001600160a01b0319831681178455604051919092169283917f8be0079c531659141344cd1fd0a4f28419497f9722a3daafe3b4186f6b6457e09190a35050565b6147f880620000946000396000f3fe60806040523480156200001157600080fd5b5060043610620002cd5760003560e01c806384cdd9bc1162000185578063c4db7fa011620000df578063e25aa5fa1162000092578063e25aa5fa146200067b578063e6ab28061462000685578063efeecb51146200069c578063f2fde38b14620006a5578063f3de036214620006bc578063fe49abe314620006c957600080fd5b8063c4db7fa0146200062f578063ccfc2e8d1462000639578063d41f65681462000650578063d46300fd146200065a578063d4b0de2f1462000603578063df3ed68d146200066457600080fd5b8063a1dc90311162000138578063a1dc903114620005c9578063a95b089f14620005d3578063aa6ca80814620005ea578063ab3d85441462000603578063ab5ac061146200060f578063c00c125c146200061857600080fd5b806384cdd9bc14620005445780638554a7d4146200055b5780638da5cb5b146200057257806391695586146200058457806391ceb3eb146200059b57806398899f4014620005b257600080fd5b80634d49e87d11620002375780636999b37711620001ea5780636999b37714620004dc578063715018a614620004f05780637c61e56114620004fa5780638214f5a4146200051157806382b8660014620005235780638456cb59146200053a57600080fd5b80634d49e87d14620003ec578063593d132c14620004035780635b65b9ab146200041a5780635c975abb14620004315780635fd65f0f146200044f57806366c0bd2414620004c557600080fd5b806331cd52b0116200029057806331cd52b014620003795780633969841514620003905780633e3a1560146200039b5780633ed4c67814620003b25780633f4ba83a14620003cb5780634a1b0d5714620003d557600080fd5b806304bc3b1c14620002d257806306e9481c146200030f5780630ba8195914620003295780630d43e8ad146200033357806318f52ce21462000360575b600080fd5b620002f8620002e336600462002bff565b60126020526000908152604090205460ff1681565b60405160ff90911681526020015b60405180910390f35b6200031a6201518081565b60405190815260200162000306565b6200031a620006d3565b60105462000347906001600160a01b031681565b6040516001600160a01b03909116815260200162000306565b6200036a62000763565b60405162000306919062003185565b6200036a6200038a36600462002f23565b6200089e565b6200031a620f424081565b6200031a620003ac36600462002fc3565b6200099b565b620003c9620003c336600462002bff565b62000ac5565b005b620003c962000b8d565b6200031a620003e636600462002bff565b62000bc6565b6200031a620003fd36600462002e9b565b62000bdb565b620003c96200041436600462002f75565b62000cea565b620003c96200042b36600462002f97565b62000fac565b600054600160a01b900460ff16604051901515815260200162000306565b600454600754600854600954600a54600b54600c54600d546200047f976001600160a01b03169695949392919088565b604080516001600160a01b0390991689526020890197909752958701949094526060860192909252608085015260a084015260c083015260e08201526101000162000306565b620002f8620004d636600462002bff565b62001103565b60115462000347906001600160a01b031681565b620003c96200119f565b6200036a6200050b36600462002c1c565b620011d8565b6004546001600160a01b031662000347565b620003476200053436600462003000565b62001283565b620003c9620012c8565b6200031a6200055536600462002e9b565b620012ff565b6200031a6200056c36600462003000565b620013bb565b6000546001600160a01b031662000347565b6200031a620005953660046200305d565b6200144e565b6200031a620005ac36600462003000565b62001580565b6200031a620005c336600462002c48565b620015bb565b6200036a6200166d565b6200031a620005e43660046200301d565b620016c9565b620005f46200171d565b60405162000306919062003136565b6200031a6305f5e10081565b6200031a600a81565b620003c96200062936600462002c1c565b62001783565b620003c962001849565b620003c96200064a36600462002bff565b62001994565b6200036a62001a56565b6200031a62001ab1565b620003c96200067536600462002c88565b62001aed565b6200031a620021d9565b6200031a6200069636600462002d77565b62002215565b6003546200031a565b620003c9620006b636600462002bff565b62002258565b6200031a6402540be40081565b620003c9620022fa565b60405163a303558560e01b815260036004820152600090731cd3976123e7c2D052eB42DE5F52895b0418F6269063a3035585906024015b60206040518083038186803b1580156200072357600080fd5b505af415801562000738573d6000803e3d6000fd5b505050506040513d601f19601f820116820180604052508101906200075e919062002f0a565b905090565b6003546060908067ffffffffffffffff8111156200079157634e487b7160e01b600052604160045260246000fd5b604051908082528060200260200182016040528015620007bb578160200160208202803683370190505b50915060005b81811015620008995760405163e2eba89b60e01b81526003600482015260248101829052731cd3976123e7c2D052eB42DE5F52895b0418F6269063e2eba89b9060440160206040518083038186803b1580156200081d57600080fd5b505af415801562000832573d6000803e3d6000fd5b505050506040513d601f19601f8201168201806040525081019062000858919062002f0a565b8382815181106200087957634e487b7160e01b600052603260045260246000fd5b60209081029190910101528062000890816200355e565b915050620007c1565b505090565b606060026001541415620008cf5760405162461bcd60e51b8152600401620008c69062003286565b60405180910390fd5b60026001558142811015620008f85760405162461bcd60e51b8152600401620008c69062003265565b6040516331a15a5b60e21b8152731cd3976123e7c2D052eB42DE5F52895b0418F6269063c685696c9062000936906003908990899060040162003332565b60006040518083038186803b1580156200094f57600080fd5b505af415801562000964573d6000803e3d6000fd5b505050506040513d6000823e601f3d908101601f191682016040526200098e919081019062002dff565b6001805595945050505050565b600060026001541415620009c35760405162461bcd60e51b8152600401620008c69062003286565b6002600155600054600160a01b900460ff1615620009f55760405162461bcd60e51b8152600401620008c69062003206565b818042111562000a195760405162461bcd60e51b8152600401620008c69062003265565b6040516302bfe30d60e41b8152600360048201526024810187905260ff8616604482015260648101859052731cd3976123e7c2D052eB42DE5F52895b0418F62690632bfe30d09060840160206040518083038186803b15801562000a7c57600080fd5b505af415801562000a91573d6000803e3d6000fd5b505050506040513d601f19601f8201168201806040525081019062000ab7919062002f0a565b600180559695505050505050565b6000546001600160a01b0316331462000af25760405162461bcd60e51b8152600401620008c69062003230565b6001600160a01b03811662000b385760405162461bcd60e51b815260206004820152600b60248201526a7a65726f4164647265737360a81b6044820152606401620008c6565b601180546001600160a01b0319166001600160a01b0383169081179091556040519081527f4c3f3b9852ccceadd50f16518f348e2624c8f0240acdd5bc81911c0fba83ec67906020015b60405180910390a150565b6000546001600160a01b0316331462000bba5760405162461bcd60e51b8152600401620008c69062003230565b62000bc4620024e8565b565b600062000bd560038362002587565b92915050565b60008054600160a01b900460ff161562000c095760405162461bcd60e51b8152600401620008c69062003206565b6002600154141562000c2f5760405162461bcd60e51b8152600401620008c69062003286565b6002600155814281101562000c585760405162461bcd60e51b8152600401620008c69062003265565b604051631e9b2e8f60e21b8152731cd3976123e7c2D052eB42DE5F52895b0418F62690637a6cba3c9062000c96906003908990899060040162003307565b60206040518083038186803b15801562000caf57600080fd5b505af415801562000cc4573d6000803e3d6000fd5b505050506040513d601f19601f820116820180604052508101906200098e919062002f0a565b6000546001600160a01b0316331462000d175760405162461bcd60e51b8152600401620008c69062003230565b600b5462000d299062015180620033ae565b42101562000d685760405162461bcd60e51b815260206004820152600b60248201526a3c2072616d7044656c617960a81b6044820152606401620008c6565b62000d776201518042620033ae565b81101562000db85760405162461bcd60e51b815260206004820152600d60248201526c3c206d696e52616d7054696d6560981b6044820152606401620008c6565b81600010801562000dcb5750620f424082105b62000e065760405162461bcd60e51b815260206004820152600a6024820152696f75744f6652616e676560b01b6044820152606401620008c6565b60405163a303558560e01b815260036004820152600090731cd3976123e7c2D052eB42DE5F52895b0418F6269063a30355859060240160206040518083038186803b15801562000e5557600080fd5b505af415801562000e6a573d6000803e3d6000fd5b505050506040513d601f19601f8201168201806040525081019062000e90919062002f0a565b9050600062000ea1606485620034ef565b90508181101562000efe578162000eba600a83620034ef565b101562000ef85760405162461bcd60e51b815260206004820152600b60248201526a3e206d61784368616e676560a81b6044820152606401620008c6565b62000f4a565b62000f0b600a83620034ef565b81111562000f4a5760405162461bcd60e51b815260206004820152600b60248201526a3e206d61784368616e676560a81b6044820152606401620008c6565b6009829055600a81905542600b819055600c84905560408051848152602081018490528082019290925260608201859052517fa2b71ec6df949300b59aab36b55e189697b750119dd349fcfa8c0f779e83c2549181900360800190a150505050565b6000546001600160a01b0316331462000fd95760405162461bcd60e51b8152600401620008c69062003230565b6305f5e1008311156200101e5760405162461bcd60e51b815260206004820152600c60248201526b3e206d61785377617046656560a01b6044820152606401620008c6565b6402540be400821115620010655760405162461bcd60e51b815260206004820152600d60248201526c3e206d617841646d696e46656560981b6044820152606401620008c6565b6305f5e100811115620010ae5760405162461bcd60e51b815260206004820152601060248201526f3e206d6178576974686472617746656560801b6044820152606401620008c6565b60088290556007839055600d81905560408051848152602081018490529081018290527fcfca96e0fef3432146913b2a5a2268a55d3f475fe057e7ffde1082b77693f4f39060600160405180910390a1505050565b6001600160a01b0381166000818152601260205260409020546003805460ff9092169291839081106200114657634e487b7160e01b600052603260045260246000fd5b6000918252602090912001546001600160a01b0316146200119a5760405162461bcd60e51b815260206004820152600d60248201526c1d1bdad95b939bdd119bdd5b99609a1b6044820152606401620008c6565b919050565b6000546001600160a01b03163314620011cc5760405162461bcd60e51b8152600401620008c69062003230565b62000bc4600062002641565b60405163fa56359760e01b8152600360048201526001600160a01b038316602482015260448101829052606090731cd3976123e7c2D052eB42DE5F52895b0418F6269063fa5635979060640160006040518083038186803b1580156200123d57600080fd5b505af415801562001252573d6000803e3d6000fd5b505050506040513d6000823e601f3d908101601f191682016040526200127c919081019062002dff565b9392505050565b600060036000018260ff1681548110620012ad57634e487b7160e01b600052603260045260246000fd5b6000918252602090912001546001600160a01b031692915050565b6000546001600160a01b03163314620012f55760405162461bcd60e51b8152600401620008c69062003230565b62000bc462002691565b600060026001541415620013275760405162461bcd60e51b8152600401620008c69062003286565b6002600155600054600160a01b900460ff1615620013595760405162461bcd60e51b8152600401620008c69062003206565b81804211156200137d5760405162461bcd60e51b8152600401620008c69062003265565b60405163641a260360e11b8152731cd3976123e7c2D052eB42DE5F52895b0418F6269063c8344c069062000c96906003908990899060040162003307565b60405163e2eba89b60e01b81526003600482015260ff82166024820152600090731cd3976123e7c2D052eB42DE5F52895b0418F6269063e2eba89b9060440160206040518083038186803b1580156200141357600080fd5b505af415801562001428573d6000803e3d6000fd5b505050506040513d601f19601f8201168201806040525081019062000bd5919062002f0a565b60008054600160a01b900460ff16156200147c5760405162461bcd60e51b8152600401620008c69062003206565b60026001541415620014a25760405162461bcd60e51b8152600401620008c69062003286565b60026001558142811015620014cb5760405162461bcd60e51b8152600401620008c69062003265565b604051636e9b505d60e01b81526003600482015260ff8089166024830152871660448201526064810186905260848101859052731cd3976123e7c2D052eB42DE5F52895b0418F62690636e9b505d9060a40160206040518083038186803b1580156200153657600080fd5b505af41580156200154b573d6000803e3d6000fd5b505050506040513d601f19601f8201168201806040525081019062001571919062002f0a565b60018055979650505050505050565b6000600380018260ff1681548110620015a957634e487b7160e01b600052603260045260246000fd5b90600052602060002001549050919050565b60405163159763bb60e01b8152600360048201526001600160a01b03841660248201526044810183905260ff82166064820152600090731cd3976123e7c2D052eB42DE5F52895b0418F6269063159763bb906084015b60206040518083038186803b1580156200162a57600080fd5b505af41580156200163f573d6000803e3d6000fd5b505050506040513d601f19601f8201168201806040525081019062001665919062002f0a565b949350505050565b606060038001805480602002602001604051908101604052809291908181526020018280548015620016bf57602002820191906000526020600020905b815481526020019060010190808311620016aa575b5050505050905090565b60405163ba2998d960e01b81526003600482015260ff80851660248301528316604482015260648101829052600090731cd3976123e7c2D052eB42DE5F52895b0418F6269063ba2998d99060840162001611565b60606003600001805480602002602001604051908101604052809291908181526020018280548015620016bf57602002820191906000526020600020905b81546001600160a01b031681526001909101906020018083116200175b575050505050905090565b6004546001600160a01b03163314620017ca5760405162461bcd60e51b815260206004820152600860248201526710b6382a37b5b2b760c11b6044820152606401620008c6565b6040516360c4725f60e11b8152600360048201526001600160a01b038316602482015260448101829052731cd3976123e7c2D052eB42DE5F52895b0418F6269063c188e4be9060640160006040518083038186803b1580156200182c57600080fd5b505af415801562001841573d6000803e3d6000fd5b505050505050565b6000546001600160a01b03163314620018765760405162461bcd60e51b8152600401620008c69062003230565b600c544210620018ba5760405162461bcd60e51b815260206004820152600e60248201526d185b1c9958591e54dd1bdc1c195960921b6044820152606401620008c6565b60405163a303558560e01b815260036004820152600090731cd3976123e7c2D052eB42DE5F52895b0418F6269063a30355859060240160206040518083038186803b1580156200190957600080fd5b505af41580156200191e573d6000803e3d6000fd5b505050506040513d601f19601f8201168201806040525081019062001944919062002f0a565b6009819055600a81905542600b819055600c8190556040519192507f46e22fb3709ad289f62ce63d469248536dbc78d82b84a3d7e74ad606dc2019389162000b8291848252602082015260400190565b6000546001600160a01b03163314620019c15760405162461bcd60e51b8152600401620008c69062003230565b6001600160a01b03811662001a075760405162461bcd60e51b815260206004820152600b60248201526a7a65726f4164647265737360a81b6044820152606401620008c6565b601080546001600160a01b0319166001600160a01b0383169081179091556040519081527fae5a12c29e496b092467a620746b9eaf4e0e231a631a4370c233b1fac38e8e269060200162000b82565b60606003600201805480602002602001604051908101604052809291908181526020018280548015620016bf5760200282019190600052602060002090815481526020019060010190808311620016aa575050505050905090565b60405163b52e146f60e01b815260036004820152600090731cd3976123e7c2D052eB42DE5F52895b0418F6269063b52e146f906024016200070a565b6000546001600160a01b0316331462001b1a5760405162461bcd60e51b8152600401620008c69062003230565b600254610100900460ff168062001b34575060025460ff16155b62001b995760405162461bcd60e51b815260206004820152602e60248201527f496e697469616c697a61626c653a20636f6e747261637420697320616c72656160448201526d191e481a5b9a5d1a585b1a5e995960921b6064820152608401620008c6565b600254610100900460ff1615801562001bbc576002805461ffff19166101011790555b88518a511462001c0f5760405162461bcd60e51b815260206004820152601d60248201527f636f696e734c656e67746820213d20646563696d616c734c656e6774680000006044820152606401620008c6565b6001600160a01b03821662001c605760405162461bcd60e51b81526020600482015260166024820152756665654469737472696275746f72203d20656d70747960501b6044820152606401620008c6565b895160008167ffffffffffffffff81111562001c8c57634e487b7160e01b600052604160045260246000fd5b60405190808252806020026020018201604052801562001cb6578160200160208202803683370190505b50905060008267ffffffffffffffff81111562001ce357634e487b7160e01b600052604160045260246000fd5b60405190808252806020026020018201604052801562001d0d578160200160208202803683370190505b50905060005b8381101562001f695760006001600160a01b03168e828151811062001d4857634e487b7160e01b600052603260045260246000fd5b60200260200101516001600160a01b0316141562001d9f5760405162461bcd60e51b8152602060048201526013602482015272696e76616c6964546f6b656e4164647265737360681b6044820152606401620008c6565b60128d828151811062001dc257634e487b7160e01b600052603260045260246000fd5b602002602001015160ff16111562001e0f5760405162461bcd60e51b815260206004820152600f60248201526e696e76616c6964446563696d616c7360881b6044820152606401620008c6565b8c818151811062001e3057634e487b7160e01b600052603260045260246000fd5b602002602001015160ff16601262001e49919062003511565b62001e5690600a62003433565b83828151811062001e7757634e487b7160e01b600052603260045260246000fd5b6020026020010181815250508d818151811062001ea457634e487b7160e01b600052603260045260246000fd5b602002602001015182828151811062001ecd57634e487b7160e01b600052603260045260246000fd5b60200260200101906001600160a01b031690816001600160a01b031681525050806012600084848151811062001f1357634e487b7160e01b600052603260045260246000fd5b60200260200101516001600160a01b03166001600160a01b0316815260200190815260200160002060006101000a81548160ff021916908360ff160217905550808062001f60906200355e565b91505062001d13565b50620f4240891062001fa75760405162461bcd60e51b81526020600482015260066024820152653e206d61784160d01b6044820152606401620008c6565b6305f5e10088111562001fec5760405162461bcd60e51b815260206004820152600c60248201526b3e206d61785377617046656560a01b6044820152606401620008c6565b6402540be400871115620020335760405162461bcd60e51b815260206004820152600d60248201526c3e206d617841646d696e46656560981b6044820152606401620008c6565b6305f5e1008611156200207c5760405162461bcd60e51b815260206004820152601060248201526f3e206d6178576974686472617746656560801b6044820152606401620008c6565b8a8a6040516200208c9062002945565b62002099929190620031d4565b604051809103906000f080158015620020b6573d6000803e3d6000fd5b50600480546001600160a01b0319166001600160a01b03929092169190911790558267ffffffffffffffff811115620020ff57634e487b7160e01b600052604160045260246000fd5b60405190808252806020026020018201604052801562002129578160200160208202803683370190505b508051620021409160069160209091019062002953565b5081516200215690600590602085019062002953565b5080516200216c906003906020840190620029a3565b506200217a60648a620034ef565b6009556200218a60648a620034ef565b600a5550505060078590556008849055600d839055601080546001600160a01b0319166001600160a01b0384161790558015620021cd576002805461ff00191690555b50505050505050505050565b6040516334d9812b60e21b815260036004820152600090731cd3976123e7c2D052eB42DE5F52895b0418F6269063d36604ac906024016200070a565b604051631e7e95d360e01b8152600090731cd3976123e7c2D052eB42DE5F52895b0418F62690631e7e95d3906200161190600390889088908890600401620032bd565b6000546001600160a01b03163314620022855760405162461bcd60e51b8152600401620008c69062003230565b6001600160a01b038116620022ec5760405162461bcd60e51b815260206004820152602660248201527f4f776e61626c653a206e6577206f776e657220697320746865207a65726f206160448201526564647265737360d01b6064820152608401620008c6565b620022f78162002641565b50565b6011546001600160a01b03163314806200231e57506000546001600160a01b031633145b620023645760405162461bcd60e51b815260206004820152601560248201527410b332b2a1b7b73a3937b63632b927b927bbb732b960591b6044820152606401620008c6565b60005b600354811015620022f7576000600360000182815481106200239957634e487b7160e01b600052603260045260246000fd5b6000918252602082200154600680546001600160a01b0390921693509084908110620023d557634e487b7160e01b600052603260045260246000fd5b6000918252602090912001546040516370a0823160e01b81523060048201526001600160a01b038416906370a082319060240160206040518083038186803b1580156200242157600080fd5b505afa15801562002436573d6000803e3d6000fd5b505050506040513d601f19601f820116820180604052508101906200245c919062002f0a565b62002468919062003511565b90508015620024d0576010546200248d906001600160a01b03848116911683620026fa565b604080516001600160a01b0384168152602081018390527fee3859efa95e525bc2bcb149b51b60a8bb4e89c647392d9d4112e03c3e73bdd6910160405180910390a15b50508080620024df906200355e565b91505062002367565b600054600160a01b900460ff166200253a5760405162461bcd60e51b815260206004820152601460248201527314185d5cd8589b194e881b9bdd081c185d5cd95960621b6044820152606401620008c6565b6000805460ff60a01b191690557f5db9ee0a495bf2e6ff9c91a7834c1ba4fdd244a5e8aa4e537bd38aeae4b073aa335b6040516001600160a01b03909116815260200160405180910390a1565b6001600160a01b0381166000908152600b830160205260408120548190620025b3906224ea00620033ae565b90504281111562002637576000620025cc428362003511565b6001600160a01b0385166000908152600c87016020526040902054600a8701549192506402540be400916224ea00918491620026099190620034ef565b620026159190620034ef565b620026219190620033c9565b6200262d9190620033c9565b9250505062000bd5565b5060009392505050565b600080546001600160a01b038381166001600160a01b0319831681178455604051919092169283917f8be0079c531659141344cd1fd0a4f28419497f9722a3daafe3b4186f6b6457e09190a35050565b600054600160a01b900460ff1615620026be5760405162461bcd60e51b8152600401620008c69062003206565b6000805460ff60a01b1916600160a01b1790557f62e78cea01bee320cd4e420270b5ea74000d11b0c9f74754ebdbfc544b05a2586200256a3390565b604080516001600160a01b038416602482015260448082018490528251808303909101815260649091019091526020810180516001600160e01b031663a9059cbb60e01b1790526200274e90849062002753565b505050565b6000620027aa826040518060400160405280602081526020017f5361666545524332303a206c6f772d6c6576656c2063616c6c206661696c6564815250856001600160a01b03166200282c9092919063ffffffff16565b8051909150156200274e5780806020019051810190620027cb919062002eeb565b6200274e5760405162461bcd60e51b815260206004820152602a60248201527f5361666545524332303a204552433230206f7065726174696f6e20646964206e6044820152691bdd081cdd58d8d9595960b21b6064820152608401620008c6565b606062001665848460008585843b620028885760405162461bcd60e51b815260206004820152601d60248201527f416464726573733a2063616c6c20746f206e6f6e2d636f6e74726163740000006044820152606401620008c6565b600080866001600160a01b03168587604051620028a6919062003118565b60006040518083038185875af1925050503d8060008114620028e5576040519150601f19603f3d011682016040523d82523d6000602084013e620028ea565b606091505b5091509150620028fc82828662002907565b979650505050505050565b60608315620029185750816200127c565b825115620029295782518084602001fd5b8160405162461bcd60e51b8152600401620008c69190620031bf565b61120b80620035b883390190565b82805482825590600052602060002090810192821562002991579160200282015b828111156200299157825182559160200191906001019062002974565b506200299f929150620029fb565b5090565b82805482825590600052602060002090810192821562002991579160200282015b828111156200299157825182546001600160a01b0319166001600160a01b03909116178255602090920191600190910190620029c4565b5b808211156200299f5760008155600101620029fc565b80356001600160a01b03811681146200119a57600080fd5b600082601f83011262002a3b578081fd5b8135602062002a5462002a4e8362003387565b62003353565b80838252828201915082860187848660051b890101111562002a74578586fd5b855b8581101562002a9d5762002a8a8262002a12565b8452928401929084019060010162002a76565b5090979650505050505050565b600082601f83011262002abb578081fd5b8135602062002ace62002a4e8362003387565b80838252828201915082860187848660051b890101111562002aee578586fd5b855b8581101562002a9d5781358452928401929084019060010162002af0565b600082601f83011262002b1f578081fd5b8135602062002b3262002a4e8362003387565b80838252828201915082860187848660051b890101111562002b52578586fd5b855b8581101562002a9d5762002b688262002bed565b8452928401929084019060010162002b54565b600082601f83011262002b8c578081fd5b813567ffffffffffffffff81111562002ba95762002ba962003592565b62002bbe601f8201601f191660200162003353565b81815284602083860101111562002bd3578283fd5b816020850160208301379081016020019190915292915050565b803560ff811681146200119a57600080fd5b60006020828403121562002c11578081fd5b6200127c8262002a12565b6000806040838503121562002c2f578081fd5b62002c3a8362002a12565b946020939093013593505050565b60008060006060848603121562002c5d578081fd5b62002c688462002a12565b92506020840135915062002c7f6040850162002bed565b90509250925092565b60008060008060008060008060006101208a8c03121562002ca7578485fd5b893567ffffffffffffffff8082111562002cbf578687fd5b62002ccd8d838e0162002a2a565b9a5060208c013591508082111562002ce3578687fd5b62002cf18d838e0162002b0e565b995060408c013591508082111562002d07578687fd5b62002d158d838e0162002b7b565b985060608c013591508082111562002d2b578687fd5b5062002d3a8c828d0162002b7b565b96505060808a0135945060a08a0135935060c08a0135925060e08a0135915062002d686101008b0162002a12565b90509295985092959850929598565b60008060006040848603121562002d8c578081fd5b833567ffffffffffffffff8082111562002da4578283fd5b818601915086601f83011262002db8578283fd5b81358181111562002dc7578384fd5b8760208260051b850101111562002ddc578384fd5b6020928301955093505084013562002df481620035a8565b809150509250925092565b6000602080838503121562002e12578182fd5b825167ffffffffffffffff81111562002e29578283fd5b8301601f8101851362002e3a578283fd5b805162002e4b62002a4e8262003387565b80828252848201915084840188868560051b870101111562002e6b578687fd5b8694505b8385101562002e8f57805183526001949094019391850191850162002e6f565b50979650505050505050565b60008060006060848603121562002eb0578081fd5b833567ffffffffffffffff81111562002ec7578182fd5b62002ed58682870162002aaa565b9660208601359650604090950135949350505050565b60006020828403121562002efd578081fd5b81516200127c81620035a8565b60006020828403121562002f1c578081fd5b5051919050565b60008060006060848603121562002f38578081fd5b83359250602084013567ffffffffffffffff81111562002f56578182fd5b62002f648682870162002aaa565b925050604084013590509250925092565b6000806040838503121562002f88578182fd5b50508035926020909101359150565b60008060006060848603121562002fac578081fd5b505081359360208301359350604090920135919050565b6000806000806080858703121562002fd9578182fd5b8435935062002feb6020860162002bed565b93969395505050506040820135916060013590565b60006020828403121562003012578081fd5b6200127c8262002bed565b60008060006060848603121562003032578081fd5b6200303d8462002bed565b92506200304d6020850162002bed565b9150604084013590509250925092565b600080600080600060a0868803121562003075578283fd5b620030808662002bed565b9450620030906020870162002bed565b94979496505050506040830135926060810135926080909101359150565b6000815180845260208085019450808401835b83811015620030df57815187529582019590820190600101620030c1565b509495945050505050565b60008151808452620031048160208601602086016200352b565b601f01601f19169290920160200192915050565b600082516200312c8184602087016200352b565b9190910192915050565b6020808252825182820181905260009190848201906040850190845b81811015620031795783516001600160a01b03168352928401929184019160010162003152565b50909695505050505050565b6020808252825182820181905260009190848201906040850190845b818110156200317957835183529284019291840191600101620031a1565b6020815260006200127c6020830184620030ea565b604081526000620031e96040830185620030ea565b8281036020840152620031fd8185620030ea565b95945050505050565b60208082526010908201526f14185d5cd8589b194e881c185d5cd95960821b604082015260600190565b6020808252818101527f4f776e61626c653a2063616c6c6572206973206e6f7420746865206f776e6572604082015260600190565b6020808252600790820152661d1a5b595bdd5d60ca1b604082015260600190565b6020808252601f908201527f5265656e7472616e637947756172643a207265656e7472616e742063616c6c00604082015260600190565b848152606060208201819052810183905260006001600160fb1b03841115620032e4578081fd5b8360051b8086608085013782016080019081529115156040909101529392505050565b838152606060208201526000620033226060830185620030ae565b9050826040830152949350505050565b838152826020820152606060408201526000620031fd6060830184620030ae565b604051601f8201601f1916810167ffffffffffffffff811182821017156200337f576200337f62003592565b604052919050565b600067ffffffffffffffff821115620033a457620033a462003592565b5060051b60200190565b60008219821115620033c457620033c46200357c565b500190565b600082620033e557634e487b7160e01b81526012600452602481fd5b500490565b600181815b808511156200342b5781600019048211156200340f576200340f6200357c565b808516156200341d57918102915b93841c9390800290620033ef565b509250929050565b60006200127c83836000826200344c5750600162000bd5565b816200345b5750600062000bd5565b81600181146200347457600281146200347f576200349f565b600191505062000bd5565b60ff8411156200349357620034936200357c565b50506001821b62000bd5565b5060208310610133831016604e8410600b8410161715620034c4575081810a62000bd5565b620034d08383620033ea565b8060001904821115620034e757620034e76200357c565b029392505050565b60008160001904831182151516156200350c576200350c6200357c565b500290565b6000828210156200352657620035266200357c565b500390565b60005b83811015620035485781810151838201526020016200352e565b8381111562003558576000848401525b50505050565b60006000198214156200357557620035756200357c565b5060010190565b634e487b7160e01b600052601160045260246000fd5b634e487b7160e01b600052604160045260246000fd5b8015158114620022f757600080fdfe60806040523480156200001157600080fd5b506040516200120b3803806200120b833981016040819052620000349162000233565b818162000041336200008a565b815162000056906004906020850190620000da565b5080516200006c906005906020840190620000da565b5050600680546001600160a01b0319163317905550620002ed915050565b600080546001600160a01b038381166001600160a01b0319831681178455604051919092169283917f8be0079c531659141344cd1fd0a4f28419497f9722a3daafe3b4186f6b6457e09190a35050565b828054620000e8906200029a565b90600052602060002090601f0160209004810192826200010c576000855562000157565b82601f106200012757805160ff191683800117855562000157565b8280016001018555821562000157579182015b82811115620001575782518255916020019190600101906200013a565b506200016592915062000169565b5090565b5b808211156200016557600081556001016200016a565b600082601f83011262000191578081fd5b81516001600160401b0380821115620001ae57620001ae620002d7565b604051601f8301601f19908116603f01168101908282118183101715620001d957620001d9620002d7565b81604052838152602092508683858801011115620001f5578485fd5b8491505b83821015620002185785820183015181830184015290820190620001f9565b838211156200022957848385830101525b9695505050505050565b6000806040838503121562000246578182fd5b82516001600160401b03808211156200025d578384fd5b6200026b8683870162000180565b9350602085015191508082111562000281578283fd5b50620002908582860162000180565b9150509250929050565b600181811c90821680620002af57607f821691505b60208210811415620002d157634e487b7160e01b600052602260045260246000fd5b50919050565b634e487b7160e01b600052604160045260246000fd5b610f0e80620002fd6000396000f3fe608060405234801561001057600080fd5b50600436106101165760003560e01c8063715018a6116100a257806395d89b411161007157806395d89b411461024b578063a457c2d714610253578063a9059cbb14610266578063dd62ed3e14610279578063f2fde38b146102b257600080fd5b8063715018a6146101f457806379cc6790146101fc5780638119c0651461020f5780638da5cb5b1461023a57600080fd5b8063313ce567116100e9578063313ce56714610181578063395093511461019057806340c10f19146101a357806342966c68146101b857806370a08231146101cb57600080fd5b806306fdde031461011b578063095ea7b31461013957806318160ddd1461015c57806323b872dd1461016e575b600080fd5b6101236102c5565b6040516101309190610dd0565b60405180910390f35b61014c610147366004610d8f565b610357565b6040519015158152602001610130565b6003545b604051908152602001610130565b61014c61017c366004610d54565b61036d565b60405160128152602001610130565b61014c61019e366004610d8f565b61041c565b6101b66101b1366004610d8f565b610458565b005b6101b66101c6366004610db8565b6104d1565b6101606101d9366004610d01565b6001600160a01b031660009081526001602052604090205490565b6101b66104de565b6101b661020a366004610d8f565b610514565b600654610222906001600160a01b031681565b6040516001600160a01b039091168152602001610130565b6000546001600160a01b0316610222565b61012361059a565b61014c610261366004610d8f565b6105a9565b61014c610274366004610d8f565b610642565b610160610287366004610d22565b6001600160a01b03918216600090815260026020908152604080832093909416825291909152205490565b6101b66102c0366004610d01565b61064f565b6060600480546102d490610e87565b80601f016020809104026020016040519081016040528092919081815260200182805461030090610e87565b801561034d5780601f106103225761010080835404028352916020019161034d565b820191906000526020600020905b81548152906001019060200180831161033057829003601f168201915b5050505050905090565b60006103643384846106e7565b50600192915050565b600061037a84848461080b565b6001600160a01b0384166000908152600260209081526040808320338452909152902054828110156104045760405162461bcd60e51b815260206004820152602860248201527f45524332303a207472616e7366657220616d6f756e74206578636565647320616044820152676c6c6f77616e636560c01b60648201526084015b60405180910390fd5b61041185338584036106e7565b506001949350505050565b3360008181526002602090815260408083206001600160a01b03871684529091528120549091610364918590610453908690610e58565b6106e7565b6000546001600160a01b031633146104825760405162461bcd60e51b81526004016103fb90610e23565b600081116104c35760405162461bcd60e51b815260206004820152600e60248201526d1e995c9bd35a5b9d105b5bdd5b9d60921b60448201526064016103fb565b6104cd82826109e5565b5050565b6104db3382610ad0565b50565b6000546001600160a01b031633146105085760405162461bcd60e51b81526004016103fb90610e23565b6105126000610c2a565b565b60006105208333610287565b90508181101561057e5760405162461bcd60e51b8152602060048201526024808201527f45524332303a206275726e20616d6f756e74206578636565647320616c6c6f77604482015263616e636560e01b60648201526084016103fb565b61058b83338484036106e7565b6105958383610ad0565b505050565b6060600580546102d490610e87565b3360009081526002602090815260408083206001600160a01b03861684529091528120548281101561062b5760405162461bcd60e51b815260206004820152602560248201527f45524332303a2064656372656173656420616c6c6f77616e63652062656c6f77604482015264207a65726f60d81b60648201526084016103fb565b61063833858584036106e7565b5060019392505050565b600061036433848461080b565b6000546001600160a01b031633146106795760405162461bcd60e51b81526004016103fb90610e23565b6001600160a01b0381166106de5760405162461bcd60e51b815260206004820152602660248201527f4f776e61626c653a206e6577206f776e657220697320746865207a65726f206160448201526564647265737360d01b60648201526084016103fb565b6104db81610c2a565b6001600160a01b0383166107495760405162461bcd60e51b8152602060048201526024808201527f45524332303a20617070726f76652066726f6d20746865207a65726f206164646044820152637265737360e01b60648201526084016103fb565b6001600160a01b0382166107aa5760405162461bcd60e51b815260206004820152602260248201527f45524332303a20617070726f766520746f20746865207a65726f206164647265604482015261737360f01b60648201526084016103fb565b6001600160a01b0383811660008181526002602090815260408083209487168084529482529182902085905590518481527f8c5be1e5ebec7d5bd14f71427d1e84f3dd0314c0f7b2291e5b200ac8c7c3b925910160405180910390a3505050565b6001600160a01b03831661086f5760405162461bcd60e51b815260206004820152602560248201527f45524332303a207472616e736665722066726f6d20746865207a65726f206164604482015264647265737360d81b60648201526084016103fb565b6001600160a01b0382166108d15760405162461bcd60e51b815260206004820152602360248201527f45524332303a207472616e7366657220746f20746865207a65726f206164647260448201526265737360e81b60648201526084016103fb565b6108dc838383610c7a565b6001600160a01b038316600090815260016020526040902054818110156109545760405162461bcd60e51b815260206004820152602660248201527f45524332303a207472616e7366657220616d6f756e7420657863656564732062604482015265616c616e636560d01b60648201526084016103fb565b6001600160a01b0380851660009081526001602052604080822085850390559185168152908120805484929061098b908490610e58565b92505081905550826001600160a01b0316846001600160a01b03167fddf252ad1be2c89b69c2b068fc378daa952ba7f163c4a11628f55a4df523b3ef846040516109d791815260200190565b60405180910390a350505050565b6001600160a01b038216610a3b5760405162461bcd60e51b815260206004820152601f60248201527f45524332303a206d696e7420746f20746865207a65726f20616464726573730060448201526064016103fb565b610a4760008383610c7a565b8060036000828254610a599190610e58565b90915550506001600160a01b03821660009081526001602052604081208054839290610a86908490610e58565b90915550506040518181526001600160a01b038316906000907fddf252ad1be2c89b69c2b068fc378daa952ba7f163c4a11628f55a4df523b3ef9060200160405180910390a35050565b6001600160a01b038216610b305760405162461bcd60e51b815260206004820152602160248201527f45524332303a206275726e2066726f6d20746865207a65726f206164647265736044820152607360f81b60648201526084016103fb565b610b3c82600083610c7a565b6001600160a01b03821660009081526001602052604090205481811015610bb05760405162461bcd60e51b815260206004820152602260248201527f45524332303a206275726e20616d6f756e7420657863656564732062616c616e604482015261636560f01b60648201526084016103fb565b6001600160a01b0383166000908152600160205260408120838303905560038054849290610bdf908490610e70565b90915550506040518281526000906001600160a01b038516907fddf252ad1be2c89b69c2b068fc378daa952ba7f163c4a11628f55a4df523b3ef9060200160405180910390a3505050565b600080546001600160a01b038381166001600160a01b0319831681178455604051919092169283917f8be0079c531659141344cd1fd0a4f28419497f9722a3daafe3b4186f6b6457e09190a35050565b600654604051633003049760e21b81526001600160a01b038481166004830152602482018490529091169063c00c125c90604401600060405180830381600087803b158015610cc857600080fd5b505af1158015610cdc573d6000803e3d6000fd5b50505050505050565b80356001600160a01b0381168114610cfc57600080fd5b919050565b600060208284031215610d12578081fd5b610d1b82610ce5565b9392505050565b60008060408385031215610d34578081fd5b610d3d83610ce5565b9150610d4b60208401610ce5565b90509250929050565b600080600060608486031215610d68578081fd5b610d7184610ce5565b9250610d7f60208501610ce5565b9150604084013590509250925092565b60008060408385031215610da1578182fd5b610daa83610ce5565b946020939093013593505050565b600060208284031215610dc9578081fd5b5035919050565b6000602080835283518082850152825b81811015610dfc57858101830151858201604001528201610de0565b81811115610e0d5783604083870101525b50601f01601f1916929092016040019392505050565b6020808252818101527f4f776e61626c653a2063616c6c6572206973206e6f7420746865206f776e6572604082015260600190565b60008219821115610e6b57610e6b610ec2565b500190565b600082821015610e8257610e82610ec2565b500390565b600181811c90821680610e9b57607f821691505b60208210811415610ebc57634e487b7160e01b600052602260045260246000fd5b50919050565b634e487b7160e01b600052601160045260246000fdfea26469706673582212203e9b635934d3f6e971fd8f2b993dadb5079870d69788ac73cb4d45ec194ea5fd64736f6c63430008040033a2646970667358221220ba395ebe225549cc9da80d3f0a7255b979813807af85bbdb0a94e76fdc59083e64736f6c63430008040033",
  "deployedBytecode": "0x60806040523480156200001157600080fd5b5060043610620002cd5760003560e01c806384cdd9bc1162000185578063c4db7fa011620000df578063e25aa5fa1162000092578063e25aa5fa146200067b578063e6ab28061462000685578063efeecb51146200069c578063f2fde38b14620006a5578063f3de036214620006bc578063fe49abe314620006c957600080fd5b8063c4db7fa0146200062f578063ccfc2e8d1462000639578063d41f65681462000650578063d46300fd146200065a578063d4b0de2f1462000603578063df3ed68d146200066457600080fd5b8063a1dc90311162000138578063a1dc903114620005c9578063a95b089f14620005d3578063aa6ca80814620005ea578063ab3d85441462000603578063ab5ac061146200060f578063c00c125c146200061857600080fd5b806384cdd9bc14620005445780638554a7d4146200055b5780638da5cb5b146200057257806391695586146200058457806391ceb3eb146200059b57806398899f4014620005b257600080fd5b80634d49e87d11620002375780636999b37711620001ea5780636999b37714620004dc578063715018a614620004f05780637c61e56114620004fa5780638214f5a4146200051157806382b8660014620005235780638456cb59146200053a57600080fd5b80634d49e87d14620003ec578063593d132c14620004035780635b65b9ab146200041a5780635c975abb14620004315780635fd65f0f146200044f57806366c0bd2414620004c557600080fd5b806331cd52b0116200029057806331cd52b014620003795780633969841514620003905780633e3a1560146200039b5780633ed4c67814620003b25780633f4ba83a14620003cb5780634a1b0d5714620003d557600080fd5b806304bc3b1c14620002d257806306e9481c146200030f5780630ba8195914620003295780630d43e8ad146200033357806318f52ce21462000360575b600080fd5b620002f8620002e336600462002bff565b60126020526000908152604090205460ff1681565b60405160ff90911681526020015b60405180910390f35b6200031a6201518081565b60405190815260200162000306565b6200031a620006d3565b60105462000347906001600160a01b031681565b6040516001600160a01b03909116815260200162000306565b6200036a62000763565b60405162000306919062003185565b6200036a6200038a36600462002f23565b6200089e565b6200031a620f424081565b6200031a620003ac36600462002fc3565b6200099b565b620003c9620003c336600462002bff565b62000ac5565b005b620003c962000b8d565b6200031a620003e636600462002bff565b62000bc6565b6200031a620003fd36600462002e9b565b62000bdb565b620003c96200041436600462002f75565b62000cea565b620003c96200042b36600462002f97565b62000fac565b600054600160a01b900460ff16604051901515815260200162000306565b600454600754600854600954600a54600b54600c54600d546200047f976001600160a01b03169695949392919088565b604080516001600160a01b0390991689526020890197909752958701949094526060860192909252608085015260a084015260c083015260e08201526101000162000306565b620002f8620004d636600462002bff565b62001103565b60115462000347906001600160a01b031681565b620003c96200119f565b6200036a6200050b36600462002c1c565b620011d8565b6004546001600160a01b031662000347565b620003476200053436600462003000565b62001283565b620003c9620012c8565b6200031a6200055536600462002e9b565b620012ff565b6200031a6200056c36600462003000565b620013bb565b6000546001600160a01b031662000347565b6200031a620005953660046200305d565b6200144e565b6200031a620005ac36600462003000565b62001580565b6200031a620005c336600462002c48565b620015bb565b6200036a6200166d565b6200031a620005e43660046200301d565b620016c9565b620005f46200171d565b60405162000306919062003136565b6200031a6305f5e10081565b6200031a600a81565b620003c96200062936600462002c1c565b62001783565b620003c962001849565b620003c96200064a36600462002bff565b62001994565b6200036a62001a56565b6200031a62001ab1565b620003c96200067536600462002c88565b62001aed565b6200031a620021d9565b6200031a6200069636600462002d77565b62002215565b6003546200031a565b620003c9620006b636600462002bff565b62002258565b6200031a6402540be40081565b620003c9620022fa565b60405163a303558560e01b81526003600482015260009073__$6aaf67e7827a013dd22ce71b2520632c86$__9063a3035585906024015b60206040518083038186803b1580156200072357600080fd5b505af415801562000738573d6000803e3d6000fd5b505050506040513d601f19601f820116820180604052508101906200075e919062002f0a565b905090565b6003546060908067ffffffffffffffff8111156200079157634e487b7160e01b600052604160045260246000fd5b604051908082528060200260200182016040528015620007bb578160200160208202803683370190505b50915060005b81811015620008995760405163e2eba89b60e01b8152600360048201526024810182905273__$6aaf67e7827a013dd22ce71b2520632c86$__9063e2eba89b9060440160206040518083038186803b1580156200081d57600080fd5b505af415801562000832573d6000803e3d6000fd5b505050506040513d601f19601f8201168201806040525081019062000858919062002f0a565b8382815181106200087957634e487b7160e01b600052603260045260246000fd5b60209081029190910101528062000890816200355e565b915050620007c1565b505090565b606060026001541415620008cf5760405162461bcd60e51b8152600401620008c69062003286565b60405180910390fd5b60026001558142811015620008f85760405162461bcd60e51b8152600401620008c69062003265565b6040516331a15a5b60e21b815273__$6aaf67e7827a013dd22ce71b2520632c86$__9063c685696c9062000936906003908990899060040162003332565b60006040518083038186803b1580156200094f57600080fd5b505af415801562000964573d6000803e3d6000fd5b505050506040513d6000823e601f3d908101601f191682016040526200098e919081019062002dff565b6001805595945050505050565b600060026001541415620009c35760405162461bcd60e51b8152600401620008c69062003286565b6002600155600054600160a01b900460ff1615620009f55760405162461bcd60e51b8152600401620008c69062003206565b818042111562000a195760405162461bcd60e51b8152600401620008c69062003265565b6040516302bfe30d60e41b8152600360048201526024810187905260ff861660448201526064810185905273__$6aaf67e7827a013dd22ce71b2520632c86$__90632bfe30d09060840160206040518083038186803b15801562000a7c57600080fd5b505af415801562000a91573d6000803e3d6000fd5b505050506040513d601f19601f8201168201806040525081019062000ab7919062002f0a565b600180559695505050505050565b6000546001600160a01b0316331462000af25760405162461bcd60e51b8152600401620008c69062003230565b6001600160a01b03811662000b385760405162461bcd60e51b815260206004820152600b60248201526a7a65726f4164647265737360a81b6044820152606401620008c6565b601180546001600160a01b0319166001600160a01b0383169081179091556040519081527f4c3f3b9852ccceadd50f16518f348e2624c8f0240acdd5bc81911c0fba83ec67906020015b60405180910390a150565b6000546001600160a01b0316331462000bba5760405162461bcd60e51b8152600401620008c69062003230565b62000bc4620024e8565b565b600062000bd560038362002587565b92915050565b60008054600160a01b900460ff161562000c095760405162461bcd60e51b8152600401620008c69062003206565b6002600154141562000c2f5760405162461bcd60e51b8152600401620008c69062003286565b6002600155814281101562000c585760405162461bcd60e51b8152600401620008c69062003265565b604051631e9b2e8f60e21b815273__$6aaf67e7827a013dd22ce71b2520632c86$__90637a6cba3c9062000c96906003908990899060040162003307565b60206040518083038186803b15801562000caf57600080fd5b505af415801562000cc4573d6000803e3d6000fd5b505050506040513d601f19601f820116820180604052508101906200098e919062002f0a565b6000546001600160a01b0316331462000d175760405162461bcd60e51b8152600401620008c69062003230565b600b5462000d299062015180620033ae565b42101562000d685760405162461bcd60e51b815260206004820152600b60248201526a3c2072616d7044656c617960a81b6044820152606401620008c6565b62000d776201518042620033ae565b81101562000db85760405162461bcd60e51b815260206004820152600d60248201526c3c206d696e52616d7054696d6560981b6044820152606401620008c6565b81600010801562000dcb5750620f424082105b62000e065760405162461bcd60e51b815260206004820152600a6024820152696f75744f6652616e676560b01b6044820152606401620008c6565b60405163a303558560e01b81526003600482015260009073__$6aaf67e7827a013dd22ce71b2520632c86$__9063a30355859060240160206040518083038186803b15801562000e5557600080fd5b505af415801562000e6a573d6000803e3d6000fd5b505050506040513d601f19601f8201168201806040525081019062000e90919062002f0a565b9050600062000ea1606485620034ef565b90508181101562000efe578162000eba600a83620034ef565b101562000ef85760405162461bcd60e51b815260206004820152600b60248201526a3e206d61784368616e676560a81b6044820152606401620008c6565b62000f4a565b62000f0b600a83620034ef565b81111562000f4a5760405162461bcd60e51b815260206004820152600b60248201526a3e206d61784368616e676560a81b6044820152606401620008c6565b6009829055600a81905542600b819055600c84905560408051848152602081018490528082019290925260608201859052517fa2b71ec6df949300b59aab36b55e189697b750119dd349fcfa8c0f779e83c2549181900360800190a150505050565b6000546001600160a01b0316331462000fd95760405162461bcd60e51b8152600401620008c69062003230565b6305f5e1008311156200101e5760405162461bcd60e51b815260206004820152600c60248201526b3e206d61785377617046656560a01b6044820152606401620008c6565b6402540be400821115620010655760405162461bcd60e51b815260206004820152600d60248201526c3e206d617841646d696e46656560981b6044820152606401620008c6565b6305f5e100811115620010ae5760405162461bcd60e51b815260206004820152601060248201526f3e206d6178576974686472617746656560801b6044820152606401620008c6565b60088290556007839055600d81905560408051848152602081018490529081018290527fcfca96e0fef3432146913b2a5a2268a55d3f475fe057e7ffde1082b77693f4f39060600160405180910390a1505050565b6001600160a01b0381166000818152601260205260409020546003805460ff9092169291839081106200114657634e487b7160e01b600052603260045260246000fd5b6000918252602090912001546001600160a01b0316146200119a5760405162461bcd60e51b815260206004820152600d60248201526c1d1bdad95b939bdd119bdd5b99609a1b6044820152606401620008c6565b919050565b6000546001600160a01b03163314620011cc5760405162461bcd60e51b8152600401620008c69062003230565b62000bc4600062002641565b60405163fa56359760e01b8152600360048201526001600160a01b03831660248201526044810182905260609073__$6aaf67e7827a013dd22ce71b2520632c86$__9063fa5635979060640160006040518083038186803b1580156200123d57600080fd5b505af415801562001252573d6000803e3d6000fd5b505050506040513d6000823e601f3d908101601f191682016040526200127c919081019062002dff565b9392505050565b600060036000018260ff1681548110620012ad57634e487b7160e01b600052603260045260246000fd5b6000918252602090912001546001600160a01b031692915050565b6000546001600160a01b03163314620012f55760405162461bcd60e51b8152600401620008c69062003230565b62000bc462002691565b600060026001541415620013275760405162461bcd60e51b8152600401620008c69062003286565b6002600155600054600160a01b900460ff1615620013595760405162461bcd60e51b8152600401620008c69062003206565b81804211156200137d5760405162461bcd60e51b8152600401620008c69062003265565b60405163641a260360e11b815273__$6aaf67e7827a013dd22ce71b2520632c86$__9063c8344c069062000c96906003908990899060040162003307565b60405163e2eba89b60e01b81526003600482015260ff8216602482015260009073__$6aaf67e7827a013dd22ce71b2520632c86$__9063e2eba89b9060440160206040518083038186803b1580156200141357600080fd5b505af415801562001428573d6000803e3d6000fd5b505050506040513d601f19601f8201168201806040525081019062000bd5919062002f0a565b60008054600160a01b900460ff16156200147c5760405162461bcd60e51b8152600401620008c69062003206565b60026001541415620014a25760405162461bcd60e51b8152600401620008c69062003286565b60026001558142811015620014cb5760405162461bcd60e51b8152600401620008c69062003265565b604051636e9b505d60e01b81526003600482015260ff808916602483015287166044820152606481018690526084810185905273__$6aaf67e7827a013dd22ce71b2520632c86$__90636e9b505d9060a40160206040518083038186803b1580156200153657600080fd5b505af41580156200154b573d6000803e3d6000fd5b505050506040513d601f19601f8201168201806040525081019062001571919062002f0a565b60018055979650505050505050565b6000600380018260ff1681548110620015a957634e487b7160e01b600052603260045260246000fd5b90600052602060002001549050919050565b60405163159763bb60e01b8152600360048201526001600160a01b03841660248201526044810183905260ff8216606482015260009073__$6aaf67e7827a013dd22ce71b2520632c86$__9063159763bb906084015b60206040518083038186803b1580156200162a57600080fd5b505af41580156200163f573d6000803e3d6000fd5b505050506040513d601f19601f8201168201806040525081019062001665919062002f0a565b949350505050565b606060038001805480602002602001604051908101604052809291908181526020018280548015620016bf57602002820191906000526020600020905b815481526020019060010190808311620016aa575b5050505050905090565b60405163ba2998d960e01b81526003600482015260ff8085166024830152831660448201526064810182905260009073__$6aaf67e7827a013dd22ce71b2520632c86$__9063ba2998d99060840162001611565b60606003600001805480602002602001604051908101604052809291908181526020018280548015620016bf57602002820191906000526020600020905b81546001600160a01b031681526001909101906020018083116200175b575050505050905090565b6004546001600160a01b03163314620017ca5760405162461bcd60e51b815260206004820152600860248201526710b6382a37b5b2b760c11b6044820152606401620008c6565b6040516360c4725f60e11b8152600360048201526001600160a01b03831660248201526044810182905273__$6aaf67e7827a013dd22ce71b2520632c86$__9063c188e4be9060640160006040518083038186803b1580156200182c57600080fd5b505af415801562001841573d6000803e3d6000fd5b505050505050565b6000546001600160a01b03163314620018765760405162461bcd60e51b8152600401620008c69062003230565b600c544210620018ba5760405162461bcd60e51b815260206004820152600e60248201526d185b1c9958591e54dd1bdc1c195960921b6044820152606401620008c6565b60405163a303558560e01b81526003600482015260009073__$6aaf67e7827a013dd22ce71b2520632c86$__9063a30355859060240160206040518083038186803b1580156200190957600080fd5b505af41580156200191e573d6000803e3d6000fd5b505050506040513d601f19601f8201168201806040525081019062001944919062002f0a565b6009819055600a81905542600b819055600c8190556040519192507f46e22fb3709ad289f62ce63d469248536dbc78d82b84a3d7e74ad606dc2019389162000b8291848252602082015260400190565b6000546001600160a01b03163314620019c15760405162461bcd60e51b8152600401620008c69062003230565b6001600160a01b03811662001a075760405162461bcd60e51b815260206004820152600b60248201526a7a65726f4164647265737360a81b6044820152606401620008c6565b601080546001600160a01b0319166001600160a01b0383169081179091556040519081527fae5a12c29e496b092467a620746b9eaf4e0e231a631a4370c233b1fac38e8e269060200162000b82565b60606003600201805480602002602001604051908101604052809291908181526020018280548015620016bf5760200282019190600052602060002090815481526020019060010190808311620016aa575050505050905090565b60405163b52e146f60e01b81526003600482015260009073__$6aaf67e7827a013dd22ce71b2520632c86$__9063b52e146f906024016200070a565b6000546001600160a01b0316331462001b1a5760405162461bcd60e51b8152600401620008c69062003230565b600254610100900460ff168062001b34575060025460ff16155b62001b995760405162461bcd60e51b815260206004820152602e60248201527f496e697469616c697a61626c653a20636f6e747261637420697320616c72656160448201526d191e481a5b9a5d1a585b1a5e995960921b6064820152608401620008c6565b600254610100900460ff1615801562001bbc576002805461ffff19166101011790555b88518a511462001c0f5760405162461bcd60e51b815260206004820152601d60248201527f636f696e734c656e67746820213d20646563696d616c734c656e6774680000006044820152606401620008c6565b6001600160a01b03821662001c605760405162461bcd60e51b81526020600482015260166024820152756665654469737472696275746f72203d20656d70747960501b6044820152606401620008c6565b895160008167ffffffffffffffff81111562001c8c57634e487b7160e01b600052604160045260246000fd5b60405190808252806020026020018201604052801562001cb6578160200160208202803683370190505b50905060008267ffffffffffffffff81111562001ce357634e487b7160e01b600052604160045260246000fd5b60405190808252806020026020018201604052801562001d0d578160200160208202803683370190505b50905060005b8381101562001f695760006001600160a01b03168e828151811062001d4857634e487b7160e01b600052603260045260246000fd5b60200260200101516001600160a01b0316141562001d9f5760405162461bcd60e51b8152602060048201526013602482015272696e76616c6964546f6b656e4164647265737360681b6044820152606401620008c6565b60128d828151811062001dc257634e487b7160e01b600052603260045260246000fd5b602002602001015160ff16111562001e0f5760405162461bcd60e51b815260206004820152600f60248201526e696e76616c6964446563696d616c7360881b6044820152606401620008c6565b8c818151811062001e3057634e487b7160e01b600052603260045260246000fd5b602002602001015160ff16601262001e49919062003511565b62001e5690600a62003433565b83828151811062001e7757634e487b7160e01b600052603260045260246000fd5b6020026020010181815250508d818151811062001ea457634e487b7160e01b600052603260045260246000fd5b602002602001015182828151811062001ecd57634e487b7160e01b600052603260045260246000fd5b60200260200101906001600160a01b031690816001600160a01b031681525050806012600084848151811062001f1357634e487b7160e01b600052603260045260246000fd5b60200260200101516001600160a01b03166001600160a01b0316815260200190815260200160002060006101000a81548160ff021916908360ff160217905550808062001f60906200355e565b91505062001d13565b50620f4240891062001fa75760405162461bcd60e51b81526020600482015260066024820152653e206d61784160d01b6044820152606401620008c6565b6305f5e10088111562001fec5760405162461bcd60e51b815260206004820152600c60248201526b3e206d61785377617046656560a01b6044820152606401620008c6565b6402540be400871115620020335760405162461bcd60e51b815260206004820152600d60248201526c3e206d617841646d696e46656560981b6044820152606401620008c6565b6305f5e1008611156200207c5760405162461bcd60e51b815260206004820152601060248201526f3e206d6178576974686472617746656560801b6044820152606401620008c6565b8a8a6040516200208c9062002945565b62002099929190620031d4565b604051809103906000f080158015620020b6573d6000803e3d6000fd5b50600480546001600160a01b0319166001600160a01b03929092169190911790558267ffffffffffffffff811115620020ff57634e487b7160e01b600052604160045260246000fd5b60405190808252806020026020018201604052801562002129578160200160208202803683370190505b508051620021409160069160209091019062002953565b5081516200215690600590602085019062002953565b5080516200216c906003906020840190620029a3565b506200217a60648a620034ef565b6009556200218a60648a620034ef565b600a5550505060078590556008849055600d839055601080546001600160a01b0319166001600160a01b0384161790558015620021cd576002805461ff00191690555b50505050505050505050565b6040516334d9812b60e21b81526003600482015260009073__$6aaf67e7827a013dd22ce71b2520632c86$__9063d36604ac906024016200070a565b604051631e7e95d360e01b815260009073__$6aaf67e7827a013dd22ce71b2520632c86$__90631e7e95d3906200161190600390889088908890600401620032bd565b6000546001600160a01b03163314620022855760405162461bcd60e51b8152600401620008c69062003230565b6001600160a01b038116620022ec5760405162461bcd60e51b815260206004820152602660248201527f4f776e61626c653a206e6577206f776e657220697320746865207a65726f206160448201526564647265737360d01b6064820152608401620008c6565b620022f78162002641565b50565b6011546001600160a01b03163314806200231e57506000546001600160a01b031633145b620023645760405162461bcd60e51b815260206004820152601560248201527410b332b2a1b7b73a3937b63632b927b927bbb732b960591b6044820152606401620008c6565b60005b600354811015620022f7576000600360000182815481106200239957634e487b7160e01b600052603260045260246000fd5b6000918252602082200154600680546001600160a01b0390921693509084908110620023d557634e487b7160e01b600052603260045260246000fd5b6000918252602090912001546040516370a0823160e01b81523060048201526001600160a01b038416906370a082319060240160206040518083038186803b1580156200242157600080fd5b505afa15801562002436573d6000803e3d6000fd5b505050506040513d601f19601f820116820180604052508101906200245c919062002f0a565b62002468919062003511565b90508015620024d0576010546200248d906001600160a01b03848116911683620026fa565b604080516001600160a01b0384168152602081018390527fee3859efa95e525bc2bcb149b51b60a8bb4e89c647392d9d4112e03c3e73bdd6910160405180910390a15b50508080620024df906200355e565b91505062002367565b600054600160a01b900460ff166200253a5760405162461bcd60e51b815260206004820152601460248201527314185d5cd8589b194e881b9bdd081c185d5cd95960621b6044820152606401620008c6565b6000805460ff60a01b191690557f5db9ee0a495bf2e6ff9c91a7834c1ba4fdd244a5e8aa4e537bd38aeae4b073aa335b6040516001600160a01b03909116815260200160405180910390a1565b6001600160a01b0381166000908152600b830160205260408120548190620025b3906224ea00620033ae565b90504281111562002637576000620025cc428362003511565b6001600160a01b0385166000908152600c87016020526040902054600a8701549192506402540be400916224ea00918491620026099190620034ef565b620026159190620034ef565b620026219190620033c9565b6200262d9190620033c9565b9250505062000bd5565b5060009392505050565b600080546001600160a01b038381166001600160a01b0319831681178455604051919092169283917f8be0079c531659141344cd1fd0a4f28419497f9722a3daafe3b4186f6b6457e09190a35050565b600054600160a01b900460ff1615620026be5760405162461bcd60e51b8152600401620008c69062003206565b6000805460ff60a01b1916600160a01b1790557f62e78cea01bee320cd4e420270b5ea74000d11b0c9f74754ebdbfc544b05a2586200256a3390565b604080516001600160a01b038416602482015260448082018490528251808303909101815260649091019091526020810180516001600160e01b031663a9059cbb60e01b1790526200274e90849062002753565b505050565b6000620027aa826040518060400160405280602081526020017f5361666545524332303a206c6f772d6c6576656c2063616c6c206661696c6564815250856001600160a01b03166200282c9092919063ffffffff16565b8051909150156200274e5780806020019051810190620027cb919062002eeb565b6200274e5760405162461bcd60e51b815260206004820152602a60248201527f5361666545524332303a204552433230206f7065726174696f6e20646964206e6044820152691bdd081cdd58d8d9595960b21b6064820152608401620008c6565b606062001665848460008585843b620028885760405162461bcd60e51b815260206004820152601d60248201527f416464726573733a2063616c6c20746f206e6f6e2d636f6e74726163740000006044820152606401620008c6565b600080866001600160a01b03168587604051620028a6919062003118565b60006040518083038185875af1925050503d8060008114620028e5576040519150601f19603f3d011682016040523d82523d6000602084013e620028ea565b606091505b5091509150620028fc82828662002907565b979650505050505050565b60608315620029185750816200127c565b825115620029295782518084602001fd5b8160405162461bcd60e51b8152600401620008c69190620031bf565b61120b80620035b883390190565b82805482825590600052602060002090810192821562002991579160200282015b828111156200299157825182559160200191906001019062002974565b506200299f929150620029fb565b5090565b82805482825590600052602060002090810192821562002991579160200282015b828111156200299157825182546001600160a01b0319166001600160a01b03909116178255602090920191600190910190620029c4565b5b808211156200299f5760008155600101620029fc565b80356001600160a01b03811681146200119a57600080fd5b600082601f83011262002a3b578081fd5b8135602062002a5462002a4e8362003387565b62003353565b80838252828201915082860187848660051b890101111562002a74578586fd5b855b8581101562002a9d5762002a8a8262002a12565b8452928401929084019060010162002a76565b5090979650505050505050565b600082601f83011262002abb578081fd5b8135602062002ace62002a4e8362003387565b80838252828201915082860187848660051b890101111562002aee578586fd5b855b8581101562002a9d5781358452928401929084019060010162002af0565b600082601f83011262002b1f578081fd5b8135602062002b3262002a4e8362003387565b80838252828201915082860187848660051b890101111562002b52578586fd5b855b8581101562002a9d5762002b688262002bed565b8452928401929084019060010162002b54565b600082601f83011262002b8c578081fd5b813567ffffffffffffffff81111562002ba95762002ba962003592565b62002bbe601f8201601f191660200162003353565b81815284602083860101111562002bd3578283fd5b816020850160208301379081016020019190915292915050565b803560ff811681146200119a57600080fd5b60006020828403121562002c11578081fd5b6200127c8262002a12565b6000806040838503121562002c2f578081fd5b62002c3a8362002a12565b946020939093013593505050565b60008060006060848603121562002c5d578081fd5b62002c688462002a12565b92506020840135915062002c7f6040850162002bed565b90509250925092565b60008060008060008060008060006101208a8c03121562002ca7578485fd5b893567ffffffffffffffff8082111562002cbf578687fd5b62002ccd8d838e0162002a2a565b9a5060208c013591508082111562002ce3578687fd5b62002cf18d838e0162002b0e565b995060408c013591508082111562002d07578687fd5b62002d158d838e0162002b7b565b985060608c013591508082111562002d2b578687fd5b5062002d3a8c828d0162002b7b565b96505060808a0135945060a08a0135935060c08a0135925060e08a0135915062002d686101008b0162002a12565b90509295985092959850929598565b60008060006040848603121562002d8c578081fd5b833567ffffffffffffffff8082111562002da4578283fd5b818601915086601f83011262002db8578283fd5b81358181111562002dc7578384fd5b8760208260051b850101111562002ddc578384fd5b6020928301955093505084013562002df481620035a8565b809150509250925092565b6000602080838503121562002e12578182fd5b825167ffffffffffffffff81111562002e29578283fd5b8301601f8101851362002e3a578283fd5b805162002e4b62002a4e8262003387565b80828252848201915084840188868560051b870101111562002e6b578687fd5b8694505b8385101562002e8f57805183526001949094019391850191850162002e6f565b50979650505050505050565b60008060006060848603121562002eb0578081fd5b833567ffffffffffffffff81111562002ec7578182fd5b62002ed58682870162002aaa565b9660208601359650604090950135949350505050565b60006020828403121562002efd578081fd5b81516200127c81620035a8565b60006020828403121562002f1c578081fd5b5051919050565b60008060006060848603121562002f38578081fd5b83359250602084013567ffffffffffffffff81111562002f56578182fd5b62002f648682870162002aaa565b925050604084013590509250925092565b6000806040838503121562002f88578182fd5b50508035926020909101359150565b60008060006060848603121562002fac578081fd5b505081359360208301359350604090920135919050565b6000806000806080858703121562002fd9578182fd5b8435935062002feb6020860162002bed565b93969395505050506040820135916060013590565b60006020828403121562003012578081fd5b6200127c8262002bed565b60008060006060848603121562003032578081fd5b6200303d8462002bed565b92506200304d6020850162002bed565b9150604084013590509250925092565b600080600080600060a0868803121562003075578283fd5b620030808662002bed565b9450620030906020870162002bed565b94979496505050506040830135926060810135926080909101359150565b6000815180845260208085019450808401835b83811015620030df57815187529582019590820190600101620030c1565b509495945050505050565b60008151808452620031048160208601602086016200352b565b601f01601f19169290920160200192915050565b600082516200312c8184602087016200352b565b9190910192915050565b6020808252825182820181905260009190848201906040850190845b81811015620031795783516001600160a01b03168352928401929184019160010162003152565b50909695505050505050565b6020808252825182820181905260009190848201906040850190845b818110156200317957835183529284019291840191600101620031a1565b6020815260006200127c6020830184620030ea565b604081526000620031e96040830185620030ea565b8281036020840152620031fd8185620030ea565b95945050505050565b60208082526010908201526f14185d5cd8589b194e881c185d5cd95960821b604082015260600190565b6020808252818101527f4f776e61626c653a2063616c6c6572206973206e6f7420746865206f776e6572604082015260600190565b6020808252600790820152661d1a5b595bdd5d60ca1b604082015260600190565b6020808252601f908201527f5265656e7472616e637947756172643a207265656e7472616e742063616c6c00604082015260600190565b848152606060208201819052810183905260006001600160fb1b03841115620032e4578081fd5b8360051b8086608085013782016080019081529115156040909101529392505050565b838152606060208201526000620033226060830185620030ae565b9050826040830152949350505050565b838152826020820152606060408201526000620031fd6060830184620030ae565b604051601f8201601f1916810167ffffffffffffffff811182821017156200337f576200337f62003592565b604052919050565b600067ffffffffffffffff821115620033a457620033a462003592565b5060051b60200190565b60008219821115620033c457620033c46200357c565b500190565b600082620033e557634e487b7160e01b81526012600452602481fd5b500490565b600181815b808511156200342b5781600019048211156200340f576200340f6200357c565b808516156200341d57918102915b93841c9390800290620033ef565b509250929050565b60006200127c83836000826200344c5750600162000bd5565b816200345b5750600062000bd5565b81600181146200347457600281146200347f576200349f565b600191505062000bd5565b60ff8411156200349357620034936200357c565b50506001821b62000bd5565b5060208310610133831016604e8410600b8410161715620034c4575081810a62000bd5565b620034d08383620033ea565b8060001904821115620034e757620034e76200357c565b029392505050565b60008160001904831182151516156200350c576200350c6200357c565b500290565b6000828210156200352657620035266200357c565b500390565b60005b83811015620035485781810151838201526020016200352e565b8381111562003558576000848401525b50505050565b60006000198214156200357557620035756200357c565b5060010190565b634e487b7160e01b600052601160045260246000fd5b634e487b7160e01b600052604160045260246000fd5b8015158114620022f757600080fdfe60806040523480156200001157600080fd5b506040516200120b3803806200120b833981016040819052620000349162000233565b818162000041336200008a565b815162000056906004906020850190620000da565b5080516200006c906005906020840190620000da565b5050600680546001600160a01b0319163317905550620002ed915050565b600080546001600160a01b038381166001600160a01b0319831681178455604051919092169283917f8be0079c531659141344cd1fd0a4f28419497f9722a3daafe3b4186f6b6457e09190a35050565b828054620000e8906200029a565b90600052602060002090601f0160209004810192826200010c576000855562000157565b82601f106200012757805160ff191683800117855562000157565b8280016001018555821562000157579182015b82811115620001575782518255916020019190600101906200013a565b506200016592915062000169565b5090565b5b808211156200016557600081556001016200016a565b600082601f83011262000191578081fd5b81516001600160401b0380821115620001ae57620001ae620002d7565b604051601f8301601f19908116603f01168101908282118183101715620001d957620001d9620002d7565b81604052838152602092508683858801011115620001f5578485fd5b8491505b83821015620002185785820183015181830184015290820190620001f9565b838211156200022957848385830101525b9695505050505050565b6000806040838503121562000246578182fd5b82516001600160401b03808211156200025d578384fd5b6200026b8683870162000180565b9350602085015191508082111562000281578283fd5b50620002908582860162000180565b9150509250929050565b600181811c90821680620002af57607f821691505b60208210811415620002d157634e487b7160e01b600052602260045260246000fd5b50919050565b634e487b7160e01b600052604160045260246000fd5b610f0e80620002fd6000396000f3fe608060405234801561001057600080fd5b50600436106101165760003560e01c8063715018a6116100a257806395d89b411161007157806395d89b411461024b578063a457c2d714610253578063a9059cbb14610266578063dd62ed3e14610279578063f2fde38b146102b257600080fd5b8063715018a6146101f457806379cc6790146101fc5780638119c0651461020f5780638da5cb5b1461023a57600080fd5b8063313ce567116100e9578063313ce56714610181578063395093511461019057806340c10f19146101a357806342966c68146101b857806370a08231146101cb57600080fd5b806306fdde031461011b578063095ea7b31461013957806318160ddd1461015c57806323b872dd1461016e575b600080fd5b6101236102c5565b6040516101309190610dd0565b60405180910390f35b61014c610147366004610d8f565b610357565b6040519015158152602001610130565b6003545b604051908152602001610130565b61014c61017c366004610d54565b61036d565b60405160128152602001610130565b61014c61019e366004610d8f565b61041c565b6101b66101b1366004610d8f565b610458565b005b6101b66101c6366004610db8565b6104d1565b6101606101d9366004610d01565b6001600160a01b031660009081526001602052604090205490565b6101b66104de565b6101b661020a366004610d8f565b610514565b600654610222906001600160a01b031681565b6040516001600160a01b039091168152602001610130565b6000546001600160a01b0316610222565b61012361059a565b61014c610261366004610d8f565b6105a9565b61014c610274366004610d8f565b610642565b610160610287366004610d22565b6001600160a01b03918216600090815260026020908152604080832093909416825291909152205490565b6101b66102c0366004610d01565b61064f565b6060600480546102d490610e87565b80601f016020809104026020016040519081016040528092919081815260200182805461030090610e87565b801561034d5780601f106103225761010080835404028352916020019161034d565b820191906000526020600020905b81548152906001019060200180831161033057829003601f168201915b5050505050905090565b60006103643384846106e7565b50600192915050565b600061037a84848461080b565b6001600160a01b0384166000908152600260209081526040808320338452909152902054828110156104045760405162461bcd60e51b815260206004820152602860248201527f45524332303a207472616e7366657220616d6f756e74206578636565647320616044820152676c6c6f77616e636560c01b60648201526084015b60405180910390fd5b61041185338584036106e7565b506001949350505050565b3360008181526002602090815260408083206001600160a01b03871684529091528120549091610364918590610453908690610e58565b6106e7565b6000546001600160a01b031633146104825760405162461bcd60e51b81526004016103fb90610e23565b600081116104c35760405162461bcd60e51b815260206004820152600e60248201526d1e995c9bd35a5b9d105b5bdd5b9d60921b60448201526064016103fb565b6104cd82826109e5565b5050565b6104db3382610ad0565b50565b6000546001600160a01b031633146105085760405162461bcd60e51b81526004016103fb90610e23565b6105126000610c2a565b565b60006105208333610287565b90508181101561057e5760405162461bcd60e51b8152602060048201526024808201527f45524332303a206275726e20616d6f756e74206578636565647320616c6c6f77604482015263616e636560e01b60648201526084016103fb565b61058b83338484036106e7565b6105958383610ad0565b505050565b6060600580546102d490610e87565b3360009081526002602090815260408083206001600160a01b03861684529091528120548281101561062b5760405162461bcd60e51b815260206004820152602560248201527f45524332303a2064656372656173656420616c6c6f77616e63652062656c6f77604482015264207a65726f60d81b60648201526084016103fb565b61063833858584036106e7565b5060019392505050565b600061036433848461080b565b6000546001600160a01b031633146106795760405162461bcd60e51b81526004016103fb90610e23565b6001600160a01b0381166106de5760405162461bcd60e51b815260206004820152602660248201527f4f776e61626c653a206e6577206f776e657220697320746865207a65726f206160448201526564647265737360d01b60648201526084016103fb565b6104db81610c2a565b6001600160a01b0383166107495760405162461bcd60e51b8152602060048201526024808201527f45524332303a20617070726f76652066726f6d20746865207a65726f206164646044820152637265737360e01b60648201526084016103fb565b6001600160a01b0382166107aa5760405162461bcd60e51b815260206004820152602260248201527f45524332303a20617070726f766520746f20746865207a65726f206164647265604482015261737360f01b60648201526084016103fb565b6001600160a01b0383811660008181526002602090815260408083209487168084529482529182902085905590518481527f8c5be1e5ebec7d5bd14f71427d1e84f3dd0314c0f7b2291e5b200ac8c7c3b925910160405180910390a3505050565b6001600160a01b03831661086f5760405162461bcd60e51b815260206004820152602560248201527f45524332303a207472616e736665722066726f6d20746865207a65726f206164604482015264647265737360d81b60648201526084016103fb565b6001600160a01b0382166108d15760405162461bcd60e51b815260206004820152602360248201527f45524332303a207472616e7366657220746f20746865207a65726f206164647260448201526265737360e81b60648201526084016103fb565b6108dc838383610c7a565b6001600160a01b038316600090815260016020526040902054818110156109545760405162461bcd60e51b815260206004820152602660248201527f45524332303a207472616e7366657220616d6f756e7420657863656564732062604482015265616c616e636560d01b60648201526084016103fb565b6001600160a01b0380851660009081526001602052604080822085850390559185168152908120805484929061098b908490610e58565b92505081905550826001600160a01b0316846001600160a01b03167fddf252ad1be2c89b69c2b068fc378daa952ba7f163c4a11628f55a4df523b3ef846040516109d791815260200190565b60405180910390a350505050565b6001600160a01b038216610a3b5760405162461bcd60e51b815260206004820152601f60248201527f45524332303a206d696e7420746f20746865207a65726f20616464726573730060448201526064016103fb565b610a4760008383610c7a565b8060036000828254610a599190610e58565b90915550506001600160a01b03821660009081526001602052604081208054839290610a86908490610e58565b90915550506040518181526001600160a01b038316906000907fddf252ad1be2c89b69c2b068fc378daa952ba7f163c4a11628f55a4df523b3ef9060200160405180910390a35050565b6001600160a01b038216610b305760405162461bcd60e51b815260206004820152602160248201527f45524332303a206275726e2066726f6d20746865207a65726f206164647265736044820152607360f81b60648201526084016103fb565b610b3c82600083610c7a565b6001600160a01b03821660009081526001602052604090205481811015610bb05760405162461bcd60e51b815260206004820152602260248201527f45524332303a206275726e20616d6f756e7420657863656564732062616c616e604482015261636560f01b60648201526084016103fb565b6001600160a01b0383166000908152600160205260408120838303905560038054849290610bdf908490610e70565b90915550506040518281526000906001600160a01b038516907fddf252ad1be2c89b69c2b068fc378daa952ba7f163c4a11628f55a4df523b3ef9060200160405180910390a3505050565b600080546001600160a01b038381166001600160a01b0319831681178455604051919092169283917f8be0079c531659141344cd1fd0a4f28419497f9722a3daafe3b4186f6b6457e09190a35050565b600654604051633003049760e21b81526001600160a01b038481166004830152602482018490529091169063c00c125c90604401600060405180830381600087803b158015610cc857600080fd5b505af1158015610cdc573d6000803e3d6000fd5b50505050505050565b80356001600160a01b0381168114610cfc57600080fd5b919050565b600060208284031215610d12578081fd5b610d1b82610ce5565b9392505050565b60008060408385031215610d34578081fd5b610d3d83610ce5565b9150610d4b60208401610ce5565b90509250929050565b600080600060608486031215610d68578081fd5b610d7184610ce5565b9250610d7f60208501610ce5565b9150604084013590509250925092565b60008060408385031215610da1578182fd5b610daa83610ce5565b946020939093013593505050565b600060208284031215610dc9578081fd5b5035919050565b6000602080835283518082850152825b81811015610dfc57858101830151858201604001528201610de0565b81811115610e0d5783604083870101525b50601f01601f1916929092016040019392505050565b6020808252818101527f4f776e61626c653a2063616c6c6572206973206e6f7420746865206f776e6572604082015260600190565b60008219821115610e6b57610e6b610ec2565b500190565b600082821015610e8257610e82610ec2565b500390565b600181811c90821680610e9b57607f821691505b60208210811415610ebc57634e487b7160e01b600052602260045260246000fd5b50919050565b634e487b7160e01b600052601160045260246000fdfea26469706673582212203e9b635934d3f6e971fd8f2b993dadb5079870d69788ac73cb4d45ec194ea5fd64736f6c63430008040033a2646970667358221220ba395ebe225549cc9da80d3f0a7255b979813807af85bbdb0a94e76fdc59083e64736f6c63430008040033",
  "libraries": {
    "RequiemStableSwapLib": "0x1cd3976123e7c2D052eB42DE5F52895b0418F626"
  },
  "devdoc": {
    "kind": "dev",
    "methods": {
      "owner()": {
        "details": "Returns the address of the current owner."
      },
      "paused()": {
        "details": "Returns true if the contract is paused, and false otherwise."
      },
      "rampA(uint256,uint256)": {
        "params": {
          "futureA": "the new A to ramp towards",
          "futureATime": "timestamp when the new A should be reached"
        }
      },
      "renounceOwnership()": {
        "details": "Leaves the contract without owner. It will not be possible to call `onlyOwner` functions anymore. Can only be called by the current owner. NOTE: Renouncing ownership will leave the contract without an owner, thereby removing any functionality that is only available to the owner."
      },
      "setFee(uint256,uint256,uint256)": {
        "details": "adminFee cannot be higher than 100% of the swap fee swap fee cannot be higher than 1% of each swap",
        "params": {
          "newAdminFee": "new admin fee to be applied on future transactions",
          "newSwapFee": "new swap fee to be applied on future transactions",
          "newWithdrawFee": "new initial withdraw fee to be applied on future withdrawal transactions"
        }
      },
      "transferOwnership(address)": {
        "details": "Transfers ownership of the contract to a new account (`newOwner`). Can only be called by the current owner."
      },
      "updateUserWithdrawFee(address,uint256)": {
        "params": {
          "recipient": "address of the recipient of pool token",
          "transferAmount": "amount of pool token to transfer"
        }
      }
    },
    "version": 1
  },
  "userdoc": {
    "events": {
      "AddLiquidity(address,uint256[],uint256[],uint256,uint256)": {
        "notice": "EVENTS"
      }
    },
    "kind": "user",
    "methods": {
      "MIN_RAMP_TIME()": {
        "notice": "constants"
      },
      "addLiquidity(uint256[],uint256,uint256)": {
        "notice": "PUBLIC FUNCTIONS"
      },
      "getVirtualPrice()": {
        "notice": "VIEW FUNCTIONS"
      },
      "rampA(uint256,uint256)": {
        "notice": "Start ramping up or down A parameter towards given futureA_ and futureTime_ Checks if the change is too rapid, and commits the new A value only when it falls under the limit range."
      },
      "setFee(uint256,uint256,uint256)": {
        "notice": "Sets the admin fee"
      },
      "swapStorage()": {
        "notice": "STATE VARS"
      },
      "updateUserWithdrawFee(address,uint256)": {
        "notice": "Updates the user withdraw fee. This function can only be called by the pool token. Should be used to update the withdraw fee on transfer of pool tokens. Transferring your pool token will reset the 4 weeks period. If the recipient is already holding some pool tokens, the withdraw fee will be discounted in respective amounts."
      }
    },
    "version": 1
  },
  "storageLayout": {
    "storage": [
      {
        "astId": 7120,
        "contract": "contracts/RequiemStableSwap.sol:RequiemStableSwap",
        "label": "_owner",
        "offset": 0,
        "slot": "0",
        "type": "t_address"
      },
      {
        "astId": 7235,
        "contract": "contracts/RequiemStableSwap.sol:RequiemStableSwap",
        "label": "_paused",
        "offset": 20,
        "slot": "0",
        "type": "t_bool"
      },
      {
        "astId": 7320,
        "contract": "contracts/RequiemStableSwap.sol:RequiemStableSwap",
        "label": "_status",
        "offset": 0,
        "slot": "1",
        "type": "t_uint256"
      },
      {
        "astId": 7072,
        "contract": "contracts/RequiemStableSwap.sol:RequiemStableSwap",
        "label": "_initialized",
        "offset": 0,
        "slot": "2",
        "type": "t_bool"
      },
      {
        "astId": 7075,
        "contract": "contracts/RequiemStableSwap.sol:RequiemStableSwap",
        "label": "_initializing",
        "offset": 1,
        "slot": "2",
        "type": "t_bool"
      },
      {
        "astId": 515,
        "contract": "contracts/RequiemStableSwap.sol:RequiemStableSwap",
        "label": "swapStorage",
        "offset": 0,
        "slot": "3",
        "type": "t_struct(SwapStorage)1740_storage"
      },
      {
        "astId": 517,
        "contract": "contracts/RequiemStableSwap.sol:RequiemStableSwap",
        "label": "feeDistributor",
        "offset": 0,
        "slot": "16",
        "type": "t_address"
      },
      {
        "astId": 519,
        "contract": "contracts/RequiemStableSwap.sol:RequiemStableSwap",
        "label": "feeController",
        "offset": 0,
        "slot": "17",
        "type": "t_address"
      },
      {
        "astId": 523,
        "contract": "contracts/RequiemStableSwap.sol:RequiemStableSwap",
        "label": "tokenIndexes",
        "offset": 0,
        "slot": "18",
        "type": "t_mapping(t_address,t_uint8)"
      }
    ],
    "types": {
      "t_address": {
        "encoding": "inplace",
        "label": "address",
        "numberOfBytes": "20"
      },
      "t_array(t_contract(IERC20)5756)dyn_storage": {
        "base": "t_contract(IERC20)5756",
        "encoding": "dynamic_array",
        "label": "contract IERC20[]",
        "numberOfBytes": "32"
      },
      "t_array(t_uint256)dyn_storage": {
        "base": "t_uint256",
        "encoding": "dynamic_array",
        "label": "uint256[]",
        "numberOfBytes": "32"
      },
      "t_bool": {
        "encoding": "inplace",
        "label": "bool",
        "numberOfBytes": "1"
      },
      "t_contract(IERC20)5756": {
        "encoding": "inplace",
        "label": "contract IERC20",
        "numberOfBytes": "20"
      },
      "t_contract(LPToken)7712": {
        "encoding": "inplace",
        "label": "contract LPToken",
        "numberOfBytes": "20"
      },
      "t_mapping(t_address,t_uint256)": {
        "encoding": "mapping",
        "key": "t_address",
        "label": "mapping(address => uint256)",
        "numberOfBytes": "32",
        "value": "t_uint256"
      },
      "t_mapping(t_address,t_uint8)": {
        "encoding": "mapping",
        "key": "t_address",
        "label": "mapping(address => uint8)",
        "numberOfBytes": "32",
        "value": "t_uint8"
      },
      "t_struct(SwapStorage)1740_storage": {
        "encoding": "inplace",
        "label": "struct RequiemStableSwapLib.SwapStorage",
        "members": [
          {
            "astId": 1703,
            "contract": "contracts/RequiemStableSwap.sol:RequiemStableSwap",
            "label": "pooledTokens",
            "offset": 0,
            "slot": "0",
            "type": "t_array(t_contract(IERC20)5756)dyn_storage"
          },
          {
            "astId": 1706,
            "contract": "contracts/RequiemStableSwap.sol:RequiemStableSwap",
            "label": "lpToken",
            "offset": 0,
            "slot": "1",
            "type": "t_contract(LPToken)7712"
          },
          {
            "astId": 1710,
            "contract": "contracts/RequiemStableSwap.sol:RequiemStableSwap",
            "label": "tokenMultipliers",
            "offset": 0,
            "slot": "2",
            "type": "t_array(t_uint256)dyn_storage"
          },
          {
            "astId": 1714,
            "contract": "contracts/RequiemStableSwap.sol:RequiemStableSwap",
            "label": "balances",
            "offset": 0,
            "slot": "3",
            "type": "t_array(t_uint256)dyn_storage"
          },
          {
            "astId": 1717,
            "contract": "contracts/RequiemStableSwap.sol:RequiemStableSwap",
            "label": "fee",
            "offset": 0,
            "slot": "4",
            "type": "t_uint256"
          },
          {
            "astId": 1720,
            "contract": "contracts/RequiemStableSwap.sol:RequiemStableSwap",
            "label": "adminFee",
            "offset": 0,
            "slot": "5",
            "type": "t_uint256"
          },
          {
            "astId": 1723,
            "contract": "contracts/RequiemStableSwap.sol:RequiemStableSwap",
            "label": "initialA",
            "offset": 0,
            "slot": "6",
            "type": "t_uint256"
          },
          {
            "astId": 1725,
            "contract": "contracts/RequiemStableSwap.sol:RequiemStableSwap",
            "label": "futureA",
            "offset": 0,
            "slot": "7",
            "type": "t_uint256"
          },
          {
            "astId": 1727,
            "contract": "contracts/RequiemStableSwap.sol:RequiemStableSwap",
            "label": "initialATime",
            "offset": 0,
            "slot": "8",
            "type": "t_uint256"
          },
          {
            "astId": 1729,
            "contract": "contracts/RequiemStableSwap.sol:RequiemStableSwap",
            "label": "futureATime",
            "offset": 0,
            "slot": "9",
            "type": "t_uint256"
          },
          {
            "astId": 1731,
            "contract": "contracts/RequiemStableSwap.sol:RequiemStableSwap",
            "label": "defaultWithdrawFee",
            "offset": 0,
            "slot": "10",
            "type": "t_uint256"
          },
          {
            "astId": 1735,
            "contract": "contracts/RequiemStableSwap.sol:RequiemStableSwap",
            "label": "depositTimestamp",
            "offset": 0,
            "slot": "11",
            "type": "t_mapping(t_address,t_uint256)"
          },
          {
            "astId": 1739,
            "contract": "contracts/RequiemStableSwap.sol:RequiemStableSwap",
            "label": "withdrawFeeMultiplier",
            "offset": 0,
            "slot": "12",
            "type": "t_mapping(t_address,t_uint256)"
          }
        ],
        "numberOfBytes": "416"
      },
      "t_uint256": {
        "encoding": "inplace",
        "label": "uint256",
        "numberOfBytes": "32"
      },
      "t_uint8": {
        "encoding": "inplace",
        "label": "uint8",
        "numberOfBytes": "1"
      }
    }
  }
}