{
  "address": "0x5726fa73f24Fac131c44282e17917A6a13C8307e",
  "abi": [
    {
      "inputs": [
        {
          "internalType": "address",
          "name": "_pairRouter",
          "type": "address"
        },
        {
          "internalType": "address",
          "name": "_stableRouter",
          "type": "address"
        },
        {
          "internalType": "address",
          "name": "_WETH",
          "type": "address"
        }
      ],
      "stateMutability": "nonpayable",
      "type": "constructor"
    },
    {
      "inputs": [],
      "name": "WETH",
      "outputs": [
        {
          "internalType": "address",
          "name": "",
          "type": "address"
        }
      ],
      "stateMutability": "view",
      "type": "function"
    },
    {
      "inputs": [
        {
          "internalType": "address[][]",
          "name": "path",
          "type": "address[][]"
        },
        {
          "internalType": "uint256[]",
          "name": "routerId",
          "type": "uint256[]"
        },
        {
          "internalType": "uint256",
          "name": "amountOut",
          "type": "uint256"
        },
        {
          "internalType": "uint256",
          "name": "deadline",
          "type": "uint256"
        }
      ],
      "name": "multiSwapETHForExactTokens",
      "outputs": [
        {
          "internalType": "uint256",
          "name": "",
          "type": "uint256"
        }
      ],
      "stateMutability": "payable",
      "type": "function"
    },
    {
      "inputs": [
        {
          "internalType": "address[][]",
          "name": "path",
          "type": "address[][]"
        },
        {
          "internalType": "uint256[]",
          "name": "routerId",
          "type": "uint256[]"
        },
        {
          "internalType": "uint256",
          "name": "amountOutMin",
          "type": "uint256"
        },
        {
          "internalType": "uint256",
          "name": "deadline",
          "type": "uint256"
        }
      ],
      "name": "multiSwapExactETHForTokens",
      "outputs": [
        {
          "internalType": "uint256",
          "name": "",
          "type": "uint256"
        }
      ],
      "stateMutability": "payable",
      "type": "function"
    },
    {
      "inputs": [
        {
          "internalType": "address[][]",
          "name": "path",
          "type": "address[][]"
        },
        {
          "internalType": "uint256[]",
          "name": "routerId",
          "type": "uint256[]"
        },
        {
          "internalType": "uint256",
          "name": "amountIn",
          "type": "uint256"
        },
        {
          "internalType": "uint256",
          "name": "amountOutMin",
          "type": "uint256"
        },
        {
          "internalType": "uint256",
          "name": "deadline",
          "type": "uint256"
        }
      ],
      "name": "multiSwapExactTokensForETH",
      "outputs": [
        {
          "internalType": "uint256",
          "name": "",
          "type": "uint256"
        }
      ],
      "stateMutability": "payable",
      "type": "function"
    },
    {
      "inputs": [
        {
          "internalType": "address[][]",
          "name": "path",
          "type": "address[][]"
        },
        {
          "internalType": "uint256[]",
          "name": "routerId",
          "type": "uint256[]"
        },
        {
          "internalType": "uint256",
          "name": "amountIn",
          "type": "uint256"
        },
        {
          "internalType": "uint256",
          "name": "amountOutMin",
          "type": "uint256"
        },
        {
          "internalType": "uint256",
          "name": "deadline",
          "type": "uint256"
        }
      ],
      "name": "multiSwapExactTokensForTokens",
      "outputs": [
        {
          "internalType": "uint256",
          "name": "",
          "type": "uint256"
        }
      ],
      "stateMutability": "payable",
      "type": "function"
    },
    {
      "inputs": [
        {
          "internalType": "address[][]",
          "name": "path",
          "type": "address[][]"
        },
        {
          "internalType": "uint256[]",
          "name": "routerId",
          "type": "uint256[]"
        },
        {
          "internalType": "uint256",
          "name": "amountOut",
          "type": "uint256"
        },
        {
          "internalType": "uint256",
          "name": "amountInMax",
          "type": "uint256"
        },
        {
          "internalType": "uint256",
          "name": "deadline",
          "type": "uint256"
        }
      ],
      "name": "multiSwapTokensForExactETH",
      "outputs": [
        {
          "internalType": "uint256",
          "name": "",
          "type": "uint256"
        }
      ],
      "stateMutability": "payable",
      "type": "function"
    },
    {
      "inputs": [
        {
          "internalType": "address[][]",
          "name": "path",
          "type": "address[][]"
        },
        {
          "internalType": "uint256[]",
          "name": "routerId",
          "type": "uint256[]"
        },
        {
          "internalType": "uint256",
          "name": "amountOut",
          "type": "uint256"
        },
        {
          "internalType": "uint256",
          "name": "amountInMax",
          "type": "uint256"
        },
        {
          "internalType": "uint256",
          "name": "deadline",
          "type": "uint256"
        }
      ],
      "name": "multiSwapTokensForExactTokens",
      "outputs": [
        {
          "internalType": "uint256",
          "name": "",
          "type": "uint256"
        }
      ],
      "stateMutability": "payable",
      "type": "function"
    },
    {
      "inputs": [],
      "name": "pairRouter",
      "outputs": [
        {
          "internalType": "address",
          "name": "",
          "type": "address"
        }
      ],
      "stateMutability": "view",
      "type": "function"
    },
    {
      "inputs": [],
      "name": "stableRouter",
      "outputs": [
        {
          "internalType": "address",
          "name": "",
          "type": "address"
        }
      ],
      "stateMutability": "view",
      "type": "function"
    }
  ],
  "transactionHash": "0x731335eb51aa72ef7374c93ee2af8b89c3b00f3d2c2dc98ae856a7045ff68e2b",
  "args": [
    "0x2a90276992ddC21C3585FE50f5B43D0Cf62aDe03",
    "0x9067e2C2bf8531283AB97C34EaA74599E0004842",
    "0xd00ae08403B9bbb9124bB305C09058E32C39A48c"
  ],
  "solcInputHash": "e28c21b10f7c73cf436d40d42e0afe7a",
  "bytecode": "0x60e06040523480156200001157600080fd5b506040516200557738038062005577833981016040819052620000349162000079565b6001600160601b0319606093841b811660805291831b821660a05290911b1660c052620000c2565b80516001600160a01b03811681146200007457600080fd5b919050565b6000806000606084860312156200008e578283fd5b62000099846200005c565b9250620000a9602085016200005c565b9150620000b9604085016200005c565b90509250925092565b60805160601c60a05160601c60c05160601c6152d2620002a56000396000818161017c015281816107e5015281816108810152818161233a01526123d601526000818160c30152818161026c01528181610386015281816104bc01528181610b2101528181610bdd01528181610ced01528181610dfb01528181611329015281816114390152818161156d015281816119d601528181611a9201528181611ba201528181611cb0015281816126bd01528181612751015281816128640152818161297501528181612f74015281816130080152818161311801528181613226015281816135e4015281816136fe0152818161383401528181613c7e01528181613d3a01528181613e4a01528181613f580152818161455c015281816145f00152818161470301526148140152600081816101350152818161058a015281816108b00152818161096a01528181610f4501528181610ffe0152818161164001528181611dfa01528181611eb30152818161204a015281816121150152818161226301528181612405015281816124bf01528181612aba01528181612b4c01528181613365015281816133f901528181613902015281816140a20152818161415b01528181614959015281816149eb01528181614bb40152614c4e01526152d26000f3fe6080604052600436106100865760003560e01c8063866cb90d11610059578063866cb90d14610123578063ac1e6b4514610157578063ad5c46481461016a578063e3792d331461019e578063fe30ab82146101b157600080fd5b806308023e6d1461008b5780634c3677c8146100b15780636022cc06146100fd57806376d383b814610110575b600080fd5b61009e610099366004614e69565b6101c4565b6040519081526020015b60405180910390f35b3480156100bd57600080fd5b506100e57f000000000000000000000000000000000000000000000000000000000000000081565b6040516001600160a01b0390911681526020016100a8565b61009e61010b366004614ee1565b611281565b61009e61011e366004614e69565b61225e565b34801561012f57600080fd5b506100e57f000000000000000000000000000000000000000000000000000000000000000081565b61009e610165366004614ee1565b612dd6565b34801561017657600080fd5b506100e57f000000000000000000000000000000000000000000000000000000000000000081565b61009e6101ac366004614ee1565b61353c565b61009e6101bf366004614ee1565b6143a7565b6000808567ffffffffffffffff8111156101ee57634e487b7160e01b600052604160045260246000fd5b604051908082528060200260200182016040528015610217578160200160208202803683370190505b50855190915084905b80156106d55786610232600183615207565b8151811061025057634e487b7160e01b600052603260045260246000fd5b60200260200101516000141561057e5760006001600160a01b037f0000000000000000000000000000000000000000000000000000000000000000166366c0bd248b8b61029e600187615207565b8181106102bb57634e487b7160e01b600052603260045260246000fd5b90506020028101906102cd9190615152565b60018181106102ec57634e487b7160e01b600052603260045260246000fd5b90506020020160208101906103019190614e48565b6040516001600160e01b031960e084901b1681526001600160a01b03909116600482015260240160206040518083038186803b15801561034057600080fd5b505afa158015610354573d6000803e3d6000fd5b505050506040513d601f19601f820116820180604052508101906103789190615022565b905060006001600160a01b037f0000000000000000000000000000000000000000000000000000000000000000166366c0bd248c8c6103b8600188615207565b8181106103d557634e487b7160e01b600052603260045260246000fd5b90506020028101906103e79190615152565b600081811061040657634e487b7160e01b600052603260045260246000fd5b905060200201602081019061041b9190614e48565b6040516001600160e01b031960e084901b1681526001600160a01b03909116600482015260240160206040518083038186803b15801561045a57600080fd5b505afa15801561046e573d6000803e3d6000fd5b505050506040513d601f19601f820116820180604052508101906104929190615022565b60405163a95b089f60e01b815260ff808516600483015282166024820152604481018690529091507f00000000000000000000000000000000000000000000000000000000000000006001600160a01b03169063a95b089f9060640160206040518083038186803b15801561050657600080fd5b505afa15801561051a573d6000803e3d6000fd5b505050506040513d601f19601f8201168201806040525081019061053e919061500a565b9350838561054d600186615207565b8151811061056b57634e487b7160e01b600052603260045260246000fd5b60200260200101818152505050506106c3565b60006001600160a01b037f000000000000000000000000000000000000000000000000000000000000000016631f00ca74848c8c6105bd600188615207565b8181106105da57634e487b7160e01b600052603260045260246000fd5b90506020028101906105ec9190615152565b6040518463ffffffff1660e01b815260040161060a939291906150c6565b60006040518083038186803b15801561062257600080fd5b505afa158015610636573d6000803e3d6000fd5b505050506040513d6000823e601f3d908101601f1916820160405261065e9190810190614f63565b90508060008151811061068157634e487b7160e01b600052603260045260246000fd5b6020026020010151846001846106979190615207565b815181106106b557634e487b7160e01b600052603260045260246000fd5b602002602001018181525050505b806106cd8161521e565b915050610220565b50816000815181106106f757634e487b7160e01b600052603260045260246000fd5b60200260200101513410156107485760405162461bcd60e51b8152602060048201526012602482015271125394d551919250d251539517d25394155560721b60448201526064015b60405180910390fd5b8160008151811061076957634e487b7160e01b600052603260045260246000fd5b60200260200101513411156107e357336001600160a01b03166108fc836000815181106107a657634e487b7160e01b600052603260045260246000fd5b6020026020010151346107b99190615207565b6040518115909202916000818181858888f193505050501580156107e1573d6000803e3d6000fd5b505b7f00000000000000000000000000000000000000000000000000000000000000006001600160a01b031663d0e30db08360008151811061083357634e487b7160e01b600052603260045260246000fd5b60200260200101516040518263ffffffff1660e01b81526004016000604051808303818588803b15801561086657600080fd5b505af115801561087a573d6000803e3d6000fd5b50505050507f00000000000000000000000000000000000000000000000000000000000000006001600160a01b031663095ea7b37f0000000000000000000000000000000000000000000000000000000000000000846000815181106108f057634e487b7160e01b600052603260045260246000fd5b60200260200101516040518363ffffffff1660e01b81526004016109159291906150ad565b602060405180830381600087803b15801561092f57600080fd5b505af1158015610943573d6000803e3d6000fd5b505050506040513d601f19601f820116820180604052508101906109679190614fea565b507f00000000000000000000000000000000000000000000000000000000000000006001600160a01b03166338ed1739836000815181106109b857634e487b7160e01b600052603260045260246000fd5b602002602001015160008b8b60008181106109e357634e487b7160e01b600052603260045260246000fd5b90506020028101906109f59190615152565b308a6040518763ffffffff1660e01b8152600401610a18969594939291906150e9565b600060405180830381600087803b158015610a3257600080fd5b505af1158015610a46573d6000803e3d6000fd5b505050506040513d6000823e601f3d908101601f19168201604052610a6e9190810190614f63565b5060015b865181101561111457868181518110610a9b57634e487b7160e01b600052603260045260246000fd5b602002602001015160001415610ecf57888882818110610acb57634e487b7160e01b600052603260045260246000fd5b9050602002810190610add9190615152565b6000818110610afc57634e487b7160e01b600052603260045260246000fd5b9050602002016020810190610b119190614e48565b6001600160a01b031663095ea7b37f000000000000000000000000000000000000000000000000000000000000000085600081518110610b6157634e487b7160e01b600052603260045260246000fd5b60200260200101516040518363ffffffff1660e01b8152600401610b869291906150ad565b602060405180830381600087803b158015610ba057600080fd5b505af1158015610bb4573d6000803e3d6000fd5b505050506040513d601f19601f82011682018060405250810190610bd89190614fea565b5060007f00000000000000000000000000000000000000000000000000000000000000006001600160a01b03166366c0bd248b8b85818110610c2a57634e487b7160e01b600052603260045260246000fd5b9050602002810190610c3c9190615152565b6000818110610c5b57634e487b7160e01b600052603260045260246000fd5b9050602002016020810190610c709190614e48565b6040516001600160e01b031960e084901b1681526001600160a01b03909116600482015260240160206040518083038186803b158015610caf57600080fd5b505afa158015610cc3573d6000803e3d6000fd5b505050506040513d601f19601f82011682018060405250810190610ce79190615022565b905060007f00000000000000000000000000000000000000000000000000000000000000006001600160a01b03166366c0bd248c8c86818110610d3a57634e487b7160e01b600052603260045260246000fd5b9050602002810190610d4c9190615152565b6001818110610d6b57634e487b7160e01b600052603260045260246000fd5b9050602002016020810190610d809190614e48565b6040516001600160e01b031960e084901b1681526001600160a01b03909116600482015260240160206040518083038186803b158015610dbf57600080fd5b505afa158015610dd3573d6000803e3d6000fd5b505050506040513d601f19601f82011682018060405250810190610df79190615022565b90507f00000000000000000000000000000000000000000000000000000000000000006001600160a01b031663916955868383888781518110610e4a57634e487b7160e01b600052603260045260246000fd5b602002602001015160008c6040518663ffffffff1660e01b8152600401610e75959493929190615127565b602060405180830381600087803b158015610e8f57600080fd5b505af1158015610ea3573d6000803e3d6000fd5b505050506040513d601f19601f82011682018060405250810190610ec7919061500a565b505050611102565b888882818110610eef57634e487b7160e01b600052603260045260246000fd5b9050602002810190610f019190615152565b6000818110610f2057634e487b7160e01b600052603260045260246000fd5b9050602002016020810190610f359190614e48565b6001600160a01b031663095ea7b37f0000000000000000000000000000000000000000000000000000000000000000858481518110610f8457634e487b7160e01b600052603260045260246000fd5b60200260200101516040518363ffffffff1660e01b8152600401610fa99291906150ad565b602060405180830381600087803b158015610fc357600080fd5b505af1158015610fd7573d6000803e3d6000fd5b505050506040513d601f19601f82011682018060405250810190610ffb9190614fea565b507f00000000000000000000000000000000000000000000000000000000000000006001600160a01b03166338ed173984838151811061104b57634e487b7160e01b600052603260045260246000fd5b602002602001015160008c8c8681811061107557634e487b7160e01b600052603260045260246000fd5b90506020028101906110879190615152565b308b6040518763ffffffff1660e01b81526004016110aa969594939291906150e9565b600060405180830381600087803b1580156110c457600080fd5b505af11580156110d8573d6000803e3d6000fd5b505050506040513d6000823e601f3d908101601f191682016040526111009190810190614f63565b505b8061110c81615235565b915050610a72565b508787611122600182615207565b81811061113f57634e487b7160e01b600052603260045260246000fd5b90506020028101906111519190615152565b60018a8a61115f8382615207565b81811061117c57634e487b7160e01b600052603260045260246000fd5b905060200281019061118e9190615152565b611199929150615207565b8181106111b657634e487b7160e01b600052603260045260246000fd5b90506020020160208101906111cb9190614e48565b6001600160a01b031663a9059cbb33876040518363ffffffff1660e01b81526004016111f89291906150ad565b602060405180830381600087803b15801561121257600080fd5b505af1158015611226573d6000803e3d6000fd5b505050506040513d601f19601f8201168201806040525081019061124a9190614fea565b508160008151811061126c57634e487b7160e01b600052603260045260246000fd5b60200260200101519250505095945050505050565b6000808667ffffffffffffffff8111156112ab57634e487b7160e01b600052604160045260246000fd5b6040519080825280602002602001820160405280156112d4578160200160208202803683370190505b50905060008590506000600188516112ec9190615207565b90505b80156117a05787818151811061131557634e487b7160e01b600052603260045260246000fd5b60200260200101516000141561163c5760007f00000000000000000000000000000000000000000000000000000000000000006001600160a01b03166366c0bd248c8c8581811061137657634e487b7160e01b600052603260045260246000fd5b90506020028101906113889190615152565b60018181106113a757634e487b7160e01b600052603260045260246000fd5b90506020020160208101906113bc9190614e48565b6040516001600160e01b031960e084901b1681526001600160a01b03909116600482015260240160206040518083038186803b1580156113fb57600080fd5b505afa15801561140f573d6000803e3d6000fd5b505050506040513d601f19601f820116820180604052508101906114339190615022565b905060007f00000000000000000000000000000000000000000000000000000000000000006001600160a01b03166366c0bd248d8d8681811061148657634e487b7160e01b600052603260045260246000fd5b90506020028101906114989190615152565b60008181106114b757634e487b7160e01b600052603260045260246000fd5b90506020020160208101906114cc9190614e48565b6040516001600160e01b031960e084901b1681526001600160a01b03909116600482015260240160206040518083038186803b15801561150b57600080fd5b505afa15801561151f573d6000803e3d6000fd5b505050506040513d601f19601f820116820180604052508101906115439190615022565b60405163a95b089f60e01b815260ff808516600483015282166024820152604481018690529091507f00000000000000000000000000000000000000000000000000000000000000006001600160a01b03169063a95b089f9060640160206040518083038186803b1580156115b757600080fd5b505afa1580156115cb573d6000803e3d6000fd5b505050506040513d601f19601f820116820180604052508101906115ef919061500a565b935083858b51856116009190615207565b61160b9060016151ef565b8151811061162957634e487b7160e01b600052603260045260246000fd5b602002602001018181525050505061178e565b60007f00000000000000000000000000000000000000000000000000000000000000006001600160a01b0316631f00ca74898d8d8681811061168e57634e487b7160e01b600052603260045260246000fd5b90506020028101906116a09190615152565b6040518463ffffffff1660e01b81526004016116be939291906150c6565b60006040518083038186803b1580156116d657600080fd5b505afa1580156116ea573d6000803e3d6000fd5b505050506040513d6000823e601f3d908101601f191682016040526117129190810190614f63565b905080600182516117239190615207565b8151811061174157634e487b7160e01b600052603260045260246000fd5b6020026020010151848a51846117579190615207565b6117629060016151ef565b8151811061178057634e487b7160e01b600052603260045260246000fd5b602002602001018181525050505b8061179881615235565b9150506112ef565b5084826000815181106117c357634e487b7160e01b600052603260045260246000fd5b60200260200101511161180a5760405162461bcd60e51b815260206004820152600f60248201526e115610d154d4d2559157d253941555608a1b604482015260640161073f565b8888600081811061182b57634e487b7160e01b600052603260045260246000fd5b905060200281019061183d9190615152565b600081811061185c57634e487b7160e01b600052603260045260246000fd5b90506020020160208101906118719190614e48565b6001600160a01b03166323b872dd3330856000815181106118a257634e487b7160e01b600052603260045260246000fd5b60200260200101516040518463ffffffff1660e01b81526004016118c893929190615089565b602060405180830381600087803b1580156118e257600080fd5b505af11580156118f6573d6000803e3d6000fd5b505050506040513d601f19601f8201168201806040525081019061191a9190614fea565b5060005b61192960018a615207565b811015611fc95787818151811061195057634e487b7160e01b600052603260045260246000fd5b602002602001015160001415611d845789898281811061198057634e487b7160e01b600052603260045260246000fd5b90506020028101906119929190615152565b60008181106119b157634e487b7160e01b600052603260045260246000fd5b90506020020160208101906119c69190614e48565b6001600160a01b031663095ea7b37f000000000000000000000000000000000000000000000000000000000000000085600081518110611a1657634e487b7160e01b600052603260045260246000fd5b60200260200101516040518363ffffffff1660e01b8152600401611a3b9291906150ad565b602060405180830381600087803b158015611a5557600080fd5b505af1158015611a69573d6000803e3d6000fd5b505050506040513d601f19601f82011682018060405250810190611a8d9190614fea565b5060007f00000000000000000000000000000000000000000000000000000000000000006001600160a01b03166366c0bd248c8c85818110611adf57634e487b7160e01b600052603260045260246000fd5b9050602002810190611af19190615152565b6000818110611b1057634e487b7160e01b600052603260045260246000fd5b9050602002016020810190611b259190614e48565b6040516001600160e01b031960e084901b1681526001600160a01b03909116600482015260240160206040518083038186803b158015611b6457600080fd5b505afa158015611b78573d6000803e3d6000fd5b505050506040513d601f19601f82011682018060405250810190611b9c9190615022565b905060007f00000000000000000000000000000000000000000000000000000000000000006001600160a01b03166366c0bd248d8d86818110611bef57634e487b7160e01b600052603260045260246000fd5b9050602002810190611c019190615152565b6001818110611c2057634e487b7160e01b600052603260045260246000fd5b9050602002016020810190611c359190614e48565b6040516001600160e01b031960e084901b1681526001600160a01b03909116600482015260240160206040518083038186803b158015611c7457600080fd5b505afa158015611c88573d6000803e3d6000fd5b505050506040513d601f19601f82011682018060405250810190611cac9190615022565b90507f00000000000000000000000000000000000000000000000000000000000000006001600160a01b031663916955868383888781518110611cff57634e487b7160e01b600052603260045260246000fd5b602002602001015160008c6040518663ffffffff1660e01b8152600401611d2a959493929190615127565b602060405180830381600087803b158015611d4457600080fd5b505af1158015611d58573d6000803e3d6000fd5b505050506040513d601f19601f82011682018060405250810190611d7c919061500a565b505050611fb7565b898982818110611da457634e487b7160e01b600052603260045260246000fd5b9050602002810190611db69190615152565b6000818110611dd557634e487b7160e01b600052603260045260246000fd5b9050602002016020810190611dea9190614e48565b6001600160a01b031663095ea7b37f0000000000000000000000000000000000000000000000000000000000000000858481518110611e3957634e487b7160e01b600052603260045260246000fd5b60200260200101516040518363ffffffff1660e01b8152600401611e5e9291906150ad565b602060405180830381600087803b158015611e7857600080fd5b505af1158015611e8c573d6000803e3d6000fd5b505050506040513d601f19601f82011682018060405250810190611eb09190614fea565b507f00000000000000000000000000000000000000000000000000000000000000006001600160a01b03166338ed1739848381518110611f0057634e487b7160e01b600052603260045260246000fd5b602002602001015160008d8d86818110611f2a57634e487b7160e01b600052603260045260246000fd5b9050602002810190611f3c9190615152565b308b6040518763ffffffff1660e01b8152600401611f5f969594939291906150e9565b600060405180830381600087803b158015611f7957600080fd5b505af1158015611f8d573d6000803e3d6000fd5b505050506040513d6000823e601f3d908101601f19168201604052611fb59190810190614f63565b505b80611fc181615235565b91505061191e565b508888611fd7600182615207565b818110611ff457634e487b7160e01b600052603260045260246000fd5b90506020028101906120069190615152565b600081811061202557634e487b7160e01b600052603260045260246000fd5b905060200201602081019061203a9190614e48565b6001600160a01b031663095ea7b37f00000000000000000000000000000000000000000000000000000000000000008461207560018d615207565b8151811061209357634e487b7160e01b600052603260045260246000fd5b60200260200101516040518363ffffffff1660e01b81526004016120b89291906150ad565b602060405180830381600087803b1580156120d257600080fd5b505af11580156120e6573d6000803e3d6000fd5b505050506040513d601f19601f8201168201806040525081019061210a9190614fea565b506001600160a01b037f0000000000000000000000000000000000000000000000000000000000000000166318cbafe58361214660018c615207565b8151811061216457634e487b7160e01b600052603260045260246000fd5b602090810291909101015160008c8c61217e600182615207565b81811061219b57634e487b7160e01b600052603260045260246000fd5b90506020028101906121ad9190615152565b338a6040518763ffffffff1660e01b81526004016121d0969594939291906150e9565b600060405180830381600087803b1580156121ea57600080fd5b505af11580156121fe573d6000803e3d6000fd5b505050506040513d6000823e601f3d908101601f191682016040526122269190810190614f63565b508160008151811061224857634e487b7160e01b600052603260045260246000fd5b6020026020010151925050509695505050505050565b6000807f00000000000000000000000000000000000000000000000000000000000000006001600160a01b031663d06ca61f34898960008181106122b257634e487b7160e01b600052603260045260246000fd5b90506020028101906122c49190615152565b6040518463ffffffff1660e01b81526004016122e2939291906150c6565b60006040518083038186803b1580156122fa57600080fd5b505afa15801561230e573d6000803e3d6000fd5b505050506040513d6000823e601f3d908101601f191682016040526123369190810190614f63565b90507f00000000000000000000000000000000000000000000000000000000000000006001600160a01b031663d0e30db08260008151811061238857634e487b7160e01b600052603260045260246000fd5b60200260200101516040518263ffffffff1660e01b81526004016000604051808303818588803b1580156123bb57600080fd5b505af11580156123cf573d6000803e3d6000fd5b50505050507f00000000000000000000000000000000000000000000000000000000000000006001600160a01b031663095ea7b37f00000000000000000000000000000000000000000000000000000000000000008360008151811061244557634e487b7160e01b600052603260045260246000fd5b60200260200101516040518363ffffffff1660e01b815260040161246a9291906150ad565b602060405180830381600087803b15801561248457600080fd5b505af1158015612498573d6000803e3d6000fd5b505050506040513d601f19601f820116820180604052508101906124bc9190614fea565b507f00000000000000000000000000000000000000000000000000000000000000006001600160a01b03166338ed17398260008151811061250d57634e487b7160e01b600052603260045260246000fd5b602002602001015160008a8a600081811061253857634e487b7160e01b600052603260045260246000fd5b905060200281019061254a9190615152565b30896040518763ffffffff1660e01b815260040161256d969594939291906150e9565b600060405180830381600087803b15801561258757600080fd5b505af115801561259b573d6000803e3d6000fd5b505050506040513d6000823e601f3d908101601f191682016040526125c39190810190614f63565b9050600081600183516125d69190615207565b815181106125f457634e487b7160e01b600052603260045260246000fd5b602002602001015190506000600190505b86518160ff161015612c9457868160ff168151811061263457634e487b7160e01b600052603260045260246000fd5b602002602001015160001415612a415788888260ff1681811061266757634e487b7160e01b600052603260045260246000fd5b90506020028101906126799190615152565b600081811061269857634e487b7160e01b600052603260045260246000fd5b90506020020160208101906126ad9190614e48565b6001600160a01b031663095ea7b37f0000000000000000000000000000000000000000000000000000000000000000846040518363ffffffff1660e01b81526004016126fa9291906150ad565b602060405180830381600087803b15801561271457600080fd5b505af1158015612728573d6000803e3d6000fd5b505050506040513d601f19601f8201168201806040525081019061274c9190614fea565b5060007f00000000000000000000000000000000000000000000000000000000000000006001600160a01b03166366c0bd248b8b8560ff168181106127a157634e487b7160e01b600052603260045260246000fd5b90506020028101906127b39190615152565b60008181106127d257634e487b7160e01b600052603260045260246000fd5b90506020020160208101906127e79190614e48565b6040516001600160e01b031960e084901b1681526001600160a01b03909116600482015260240160206040518083038186803b15801561282657600080fd5b505afa15801561283a573d6000803e3d6000fd5b505050506040513d601f19601f8201168201806040525081019061285e9190615022565b905060007f00000000000000000000000000000000000000000000000000000000000000006001600160a01b03166366c0bd248c8c8660ff168181106128b457634e487b7160e01b600052603260045260246000fd5b90506020028101906128c69190615152565b60018181106128e557634e487b7160e01b600052603260045260246000fd5b90506020020160208101906128fa9190614e48565b6040516001600160e01b031960e084901b1681526001600160a01b03909116600482015260240160206040518083038186803b15801561293957600080fd5b505afa15801561294d573d6000803e3d6000fd5b505050506040513d601f19601f820116820180604052508101906129719190615022565b90507f00000000000000000000000000000000000000000000000000000000000000006001600160a01b0316639169558683838760018e516129b39190615207565b8860ff16106129c2578c6129c5565b60005b8c6040518663ffffffff1660e01b81526004016129e6959493929190615127565b602060405180830381600087803b158015612a0057600080fd5b505af1158015612a14573d6000803e3d6000fd5b505050506040513d601f19601f82011682018060405250810190612a38919061500a565b93505050612c82565b88888260ff16818110612a6457634e487b7160e01b600052603260045260246000fd5b9050602002810190612a769190615152565b6000818110612a9557634e487b7160e01b600052603260045260246000fd5b9050602002016020810190612aaa9190614e48565b6001600160a01b031663095ea7b37f0000000000000000000000000000000000000000000000000000000000000000846040518363ffffffff1660e01b8152600401612af79291906150ad565b602060405180830381600087803b158015612b1157600080fd5b505af1158015612b25573d6000803e3d6000fd5b505050506040513d601f19601f82011682018060405250810190612b499190614fea565b507f00000000000000000000000000000000000000000000000000000000000000006001600160a01b03166338ed17398360018a51612b889190615207565b8460ff1610612b975788612b9a565b60005b8c8c8660ff16818110612bbd57634e487b7160e01b600052603260045260246000fd5b9050602002810190612bcf9190615152565b308b6040518763ffffffff1660e01b8152600401612bf2969594939291906150e9565b600060405180830381600087803b158015612c0c57600080fd5b505af1158015612c20573d6000803e3d6000fd5b505050506040513d6000823e601f3d908101601f19168201604052612c489190810190614f63565b92508260018451612c599190615207565b81518110612c7757634e487b7160e01b600052603260045260246000fd5b602002602001015191505b80612c8c81615250565b915050612605565b508787612ca2600182615207565b818110612cbf57634e487b7160e01b600052603260045260246000fd5b9050602002810190612cd19190615152565b60018a8a612cdf8382615207565b818110612cfc57634e487b7160e01b600052603260045260246000fd5b9050602002810190612d0e9190615152565b612d19929150615207565b818110612d3657634e487b7160e01b600052603260045260246000fd5b9050602002016020810190612d4b9190614e48565b6001600160a01b031663a9059cbb33836040518363ffffffff1660e01b8152600401612d789291906150ad565b602060405180830381600087803b158015612d9257600080fd5b505af1158015612da6573d6000803e3d6000fd5b505050506040513d601f19601f82011682018060405250810190612dca9190614fea565b50979650505050505050565b600086866000818110612df957634e487b7160e01b600052603260045260246000fd5b9050602002810190612e0b9190615152565b6000818110612e2a57634e487b7160e01b600052603260045260246000fd5b9050602002016020810190612e3f9190614e48565b6001600160a01b03166323b872dd3330876040518463ffffffff1660e01b8152600401612e6e93929190615089565b602060405180830381600087803b158015612e8857600080fd5b505af1158015612e9c573d6000803e3d6000fd5b505050506040513d601f19601f82011682018060405250810190612ec09190614fea565b508360005b8651811015612c9457868181518110612eee57634e487b7160e01b600052603260045260246000fd5b6020026020010151600014156132ef57888882818110612f1e57634e487b7160e01b600052603260045260246000fd5b9050602002810190612f309190615152565b6000818110612f4f57634e487b7160e01b600052603260045260246000fd5b9050602002016020810190612f649190614e48565b6001600160a01b031663095ea7b37f0000000000000000000000000000000000000000000000000000000000000000846040518363ffffffff1660e01b8152600401612fb19291906150ad565b602060405180830381600087803b158015612fcb57600080fd5b505af1158015612fdf573d6000803e3d6000fd5b505050506040513d601f19601f820116820180604052508101906130039190614fea565b5060007f00000000000000000000000000000000000000000000000000000000000000006001600160a01b03166366c0bd248b8b8581811061305557634e487b7160e01b600052603260045260246000fd5b90506020028101906130679190615152565b600081811061308657634e487b7160e01b600052603260045260246000fd5b905060200201602081019061309b9190614e48565b6040516001600160e01b031960e084901b1681526001600160a01b03909116600482015260240160206040518083038186803b1580156130da57600080fd5b505afa1580156130ee573d6000803e3d6000fd5b505050506040513d601f19601f820116820180604052508101906131129190615022565b905060007f00000000000000000000000000000000000000000000000000000000000000006001600160a01b03166366c0bd248c8c8681811061316557634e487b7160e01b600052603260045260246000fd5b90506020028101906131779190615152565b600181811061319657634e487b7160e01b600052603260045260246000fd5b90506020020160208101906131ab9190614e48565b6040516001600160e01b031960e084901b1681526001600160a01b03909116600482015260240160206040518083038186803b1580156131ea57600080fd5b505afa1580156131fe573d6000803e3d6000fd5b505050506040513d601f19601f820116820180604052508101906132229190615022565b90507f00000000000000000000000000000000000000000000000000000000000000006001600160a01b0316639169558683838760018e516132649190615207565b8810613270578b613273565b60005b8b6040518663ffffffff1660e01b8152600401613294959493929190615127565b602060405180830381600087803b1580156132ae57600080fd5b505af11580156132c2573d6000803e3d6000fd5b505050506040513d601f19601f820116820180604052508101906132e6919061500a565b9350505061352a565b88888281811061330f57634e487b7160e01b600052603260045260246000fd5b90506020028101906133219190615152565b600081811061334057634e487b7160e01b600052603260045260246000fd5b90506020020160208101906133559190614e48565b6001600160a01b031663095ea7b37f0000000000000000000000000000000000000000000000000000000000000000846040518363ffffffff1660e01b81526004016133a29291906150ad565b602060405180830381600087803b1580156133bc57600080fd5b505af11580156133d0573d6000803e3d6000fd5b505050506040513d601f19601f820116820180604052508101906133f49190614fea565b5060007f00000000000000000000000000000000000000000000000000000000000000006001600160a01b03166338ed17398460018b516134359190615207565b85106134415788613444565b60005b8d8d8781811061346457634e487b7160e01b600052603260045260246000fd5b90506020028101906134769190615152565b308b6040518763ffffffff1660e01b8152600401613499969594939291906150e9565b600060405180830381600087803b1580156134b357600080fd5b505af11580156134c7573d6000803e3d6000fd5b505050506040513d6000823e601f3d908101601f191682016040526134ef9190810190614f63565b905080600182516135009190615207565b8151811061351e57634e487b7160e01b600052603260045260246000fd5b60200260200101519250505b8061353481615235565b915050612ec5565b6000808667ffffffffffffffff81111561356657634e487b7160e01b600052604160045260246000fd5b60405190808252806020026020018201604052801561358f578160200160208202803683370190505b50865190915085905b8015613a4d57876135aa600183615207565b815181106135c857634e487b7160e01b600052603260045260246000fd5b6020026020010151600014156138f65760006001600160a01b037f0000000000000000000000000000000000000000000000000000000000000000166366c0bd248c8c613616600187615207565b81811061363357634e487b7160e01b600052603260045260246000fd5b90506020028101906136459190615152565b600181811061366457634e487b7160e01b600052603260045260246000fd5b90506020020160208101906136799190614e48565b6040516001600160e01b031960e084901b1681526001600160a01b03909116600482015260240160206040518083038186803b1580156136b857600080fd5b505afa1580156136cc573d6000803e3d6000fd5b505050506040513d601f19601f820116820180604052508101906136f09190615022565b905060006001600160a01b037f0000000000000000000000000000000000000000000000000000000000000000166366c0bd248d8d613730600188615207565b81811061374d57634e487b7160e01b600052603260045260246000fd5b905060200281019061375f9190615152565b600081811061377e57634e487b7160e01b600052603260045260246000fd5b90506020020160208101906137939190614e48565b6040516001600160e01b031960e084901b1681526001600160a01b03909116600482015260240160206040518083038186803b1580156137d257600080fd5b505afa1580156137e6573d6000803e3d6000fd5b505050506040513d601f19601f8201168201806040525081019061380a9190615022565b60405163a95b089f60e01b815260ff808516600483015282166024820152604481018690529091507f00000000000000000000000000000000000000000000000000000000000000006001600160a01b03169063a95b089f9060640160206040518083038186803b15801561387e57600080fd5b505afa158015613892573d6000803e3d6000fd5b505050506040513d601f19601f820116820180604052508101906138b6919061500a565b935083856138c5600186615207565b815181106138e357634e487b7160e01b600052603260045260246000fd5b6020026020010181815250505050613a3b565b60006001600160a01b037f000000000000000000000000000000000000000000000000000000000000000016631f00ca74848d8d613935600188615207565b81811061395257634e487b7160e01b600052603260045260246000fd5b90506020028101906139649190615152565b6040518463ffffffff1660e01b8152600401613982939291906150c6565b60006040518083038186803b15801561399a57600080fd5b505afa1580156139ae573d6000803e3d6000fd5b505050506040513d6000823e601f3d908101601f191682016040526139d69190810190614f63565b9050806000815181106139f957634e487b7160e01b600052603260045260246000fd5b602002602001015184600184613a0f9190615207565b81518110613a2d57634e487b7160e01b600052603260045260246000fd5b602002602001018181525050505b80613a458161521e565b915050613598565b508482600081518110613a7057634e487b7160e01b600052603260045260246000fd5b60200260200101511115613abb5760405162461bcd60e51b8152602060048201526012602482015271125394d551919250d251539517d25394155560721b604482015260640161073f565b88886000818110613adc57634e487b7160e01b600052603260045260246000fd5b9050602002810190613aee9190615152565b6000818110613b0d57634e487b7160e01b600052603260045260246000fd5b9050602002016020810190613b229190614e48565b6001600160a01b03166323b872dd333085600081518110613b5357634e487b7160e01b600052603260045260246000fd5b60200260200101516040518463ffffffff1660e01b8152600401613b7993929190615089565b602060405180830381600087803b158015613b9357600080fd5b505af1158015613ba7573d6000803e3d6000fd5b505050506040513d601f19601f82011682018060405250810190613bcb9190614fea565b5060005b875181101561427157878181518110613bf857634e487b7160e01b600052603260045260246000fd5b60200260200101516000141561402c57898982818110613c2857634e487b7160e01b600052603260045260246000fd5b9050602002810190613c3a9190615152565b6000818110613c5957634e487b7160e01b600052603260045260246000fd5b9050602002016020810190613c6e9190614e48565b6001600160a01b031663095ea7b37f000000000000000000000000000000000000000000000000000000000000000085600081518110613cbe57634e487b7160e01b600052603260045260246000fd5b60200260200101516040518363ffffffff1660e01b8152600401613ce39291906150ad565b602060405180830381600087803b158015613cfd57600080fd5b505af1158015613d11573d6000803e3d6000fd5b505050506040513d601f19601f82011682018060405250810190613d359190614fea565b5060007f00000000000000000000000000000000000000000000000000000000000000006001600160a01b03166366c0bd248c8c85818110613d8757634e487b7160e01b600052603260045260246000fd5b9050602002810190613d999190615152565b6000818110613db857634e487b7160e01b600052603260045260246000fd5b9050602002016020810190613dcd9190614e48565b6040516001600160e01b031960e084901b1681526001600160a01b03909116600482015260240160206040518083038186803b158015613e0c57600080fd5b505afa158015613e20573d6000803e3d6000fd5b505050506040513d601f19601f82011682018060405250810190613e449190615022565b905060007f00000000000000000000000000000000000000000000000000000000000000006001600160a01b03166366c0bd248d8d86818110613e9757634e487b7160e01b600052603260045260246000fd5b9050602002810190613ea99190615152565b6001818110613ec857634e487b7160e01b600052603260045260246000fd5b9050602002016020810190613edd9190614e48565b6040516001600160e01b031960e084901b1681526001600160a01b03909116600482015260240160206040518083038186803b158015613f1c57600080fd5b505afa158015613f30573d6000803e3d6000fd5b505050506040513d601f19601f82011682018060405250810190613f549190615022565b90507f00000000000000000000000000000000000000000000000000000000000000006001600160a01b031663916955868383888781518110613fa757634e487b7160e01b600052603260045260246000fd5b602002602001015160008c6040518663ffffffff1660e01b8152600401613fd2959493929190615127565b602060405180830381600087803b158015613fec57600080fd5b505af1158015614000573d6000803e3d6000fd5b505050506040513d601f19601f82011682018060405250810190614024919061500a565b50505061425f565b89898281811061404c57634e487b7160e01b600052603260045260246000fd5b905060200281019061405e9190615152565b600081811061407d57634e487b7160e01b600052603260045260246000fd5b90506020020160208101906140929190614e48565b6001600160a01b031663095ea7b37f00000000000000000000000000000000000000000000000000000000000000008584815181106140e157634e487b7160e01b600052603260045260246000fd5b60200260200101516040518363ffffffff1660e01b81526004016141069291906150ad565b602060405180830381600087803b15801561412057600080fd5b505af1158015614134573d6000803e3d6000fd5b505050506040513d601f19601f820116820180604052508101906141589190614fea565b507f00000000000000000000000000000000000000000000000000000000000000006001600160a01b03166338ed17398483815181106141a857634e487b7160e01b600052603260045260246000fd5b602002602001015160008d8d868181106141d257634e487b7160e01b600052603260045260246000fd5b90506020028101906141e49190615152565b308b6040518763ffffffff1660e01b8152600401614207969594939291906150e9565b600060405180830381600087803b15801561422157600080fd5b505af1158015614235573d6000803e3d6000fd5b505050506040513d6000823e601f3d908101601f1916820160405261425d9190810190614f63565b505b8061426981615235565b915050613bcf565b50888861427f600182615207565b81811061429c57634e487b7160e01b600052603260045260246000fd5b90506020028101906142ae9190615152565b60018b8b6142bc8382615207565b8181106142d957634e487b7160e01b600052603260045260246000fd5b90506020028101906142eb9190615152565b6142f6929150615207565b81811061431357634e487b7160e01b600052603260045260246000fd5b90506020020160208101906143289190614e48565b6001600160a01b031663a9059cbb33886040518363ffffffff1660e01b81526004016143559291906150ad565b602060405180830381600087803b15801561436f57600080fd5b505af1158015614383573d6000803e3d6000fd5b505050506040513d601f19601f820116820180604052508101906122269190614fea565b6000868660008181106143ca57634e487b7160e01b600052603260045260246000fd5b90506020028101906143dc9190615152565b60008181106143fb57634e487b7160e01b600052603260045260246000fd5b90506020020160208101906144109190614e48565b6001600160a01b03166323b872dd3330876040518463ffffffff1660e01b815260040161443f93929190615089565b602060405180830381600087803b15801561445957600080fd5b505af115801561446d573d6000803e3d6000fd5b505050506040513d601f19601f820116820180604052508101906144919190614fea565b5083606060005b600188516144a69190615207565b8160ff161015614b3357878160ff16815181106144d357634e487b7160e01b600052603260045260246000fd5b6020026020010151600014156148e05789898260ff1681811061450657634e487b7160e01b600052603260045260246000fd5b90506020028101906145189190615152565b600081811061453757634e487b7160e01b600052603260045260246000fd5b905060200201602081019061454c9190614e48565b6001600160a01b031663095ea7b37f0000000000000000000000000000000000000000000000000000000000000000856040518363ffffffff1660e01b81526004016145999291906150ad565b602060405180830381600087803b1580156145b357600080fd5b505af11580156145c7573d6000803e3d6000fd5b505050506040513d601f19601f820116820180604052508101906145eb9190614fea565b5060007f00000000000000000000000000000000000000000000000000000000000000006001600160a01b03166366c0bd248c8c8560ff1681811061464057634e487b7160e01b600052603260045260246000fd5b90506020028101906146529190615152565b600081811061467157634e487b7160e01b600052603260045260246000fd5b90506020020160208101906146869190614e48565b6040516001600160e01b031960e084901b1681526001600160a01b03909116600482015260240160206040518083038186803b1580156146c557600080fd5b505afa1580156146d9573d6000803e3d6000fd5b505050506040513d601f19601f820116820180604052508101906146fd9190615022565b905060007f00000000000000000000000000000000000000000000000000000000000000006001600160a01b03166366c0bd248d8d8660ff1681811061475357634e487b7160e01b600052603260045260246000fd5b90506020028101906147659190615152565b600181811061478457634e487b7160e01b600052603260045260246000fd5b90506020020160208101906147999190614e48565b6040516001600160e01b031960e084901b1681526001600160a01b03909116600482015260240160206040518083038186803b1580156147d857600080fd5b505afa1580156147ec573d6000803e3d6000fd5b505050506040513d601f19601f820116820180604052508101906148109190615022565b90507f00000000000000000000000000000000000000000000000000000000000000006001600160a01b0316639169558683838860018f516148529190615207565b8860ff1610614861578c614864565b60005b8c6040518663ffffffff1660e01b8152600401614885959493929190615127565b602060405180830381600087803b15801561489f57600080fd5b505af11580156148b3573d6000803e3d6000fd5b505050506040513d601f19601f820116820180604052508101906148d7919061500a565b94505050614b21565b89898260ff1681811061490357634e487b7160e01b600052603260045260246000fd5b90506020028101906149159190615152565b600081811061493457634e487b7160e01b600052603260045260246000fd5b90506020020160208101906149499190614e48565b6001600160a01b031663095ea7b37f0000000000000000000000000000000000000000000000000000000000000000856040518363ffffffff1660e01b81526004016149969291906150ad565b602060405180830381600087803b1580156149b057600080fd5b505af11580156149c4573d6000803e3d6000fd5b505050506040513d601f19601f820116820180604052508101906149e89190614fea565b507f00000000000000000000000000000000000000000000000000000000000000006001600160a01b03166338ed17398460018b51614a279190615207565b8460ff1610614a365788614a39565b60005b8d8d8660ff16818110614a5c57634e487b7160e01b600052603260045260246000fd5b9050602002810190614a6e9190615152565b308b6040518763ffffffff1660e01b8152600401614a91969594939291906150e9565b600060405180830381600087803b158015614aab57600080fd5b505af1158015614abf573d6000803e3d6000fd5b505050506040513d6000823e601f3d908101601f19168201604052614ae79190810190614f63565b91508160018351614af89190615207565b81518110614b1657634e487b7160e01b600052603260045260246000fd5b602002602001015192505b80614b2b81615250565b915050614498565b508888614b41600182615207565b818110614b5e57634e487b7160e01b600052603260045260246000fd5b9050602002810190614b709190615152565b6000818110614b8f57634e487b7160e01b600052603260045260246000fd5b9050602002016020810190614ba49190614e48565b6001600160a01b031663095ea7b37f0000000000000000000000000000000000000000000000000000000000000000846040518363ffffffff1660e01b8152600401614bf19291906150ad565b602060405180830381600087803b158015614c0b57600080fd5b505af1158015614c1f573d6000803e3d6000fd5b505050506040513d601f19601f82011682018060405250810190614c439190614fea565b506001600160a01b037f0000000000000000000000000000000000000000000000000000000000000000166318cbafe58360008c8c614c83600182615207565b818110614ca057634e487b7160e01b600052603260045260246000fd5b9050602002810190614cb29190615152565b338a6040518763ffffffff1660e01b8152600401614cd5969594939291906150e9565b600060405180830381600087803b158015614cef57600080fd5b505af1158015614d03573d6000803e3d6000fd5b505050506040513d6000823e601f3d908101601f19168201604052614d2b9190810190614f63565b90508060018251614d3c9190615207565b81518110614d5a57634e487b7160e01b600052603260045260246000fd5b6020026020010151915081925050509695505050505050565b80356001600160a01b0381168114614d8a57600080fd5b919050565b60008083601f840112614da0578182fd5b50813567ffffffffffffffff811115614db7578182fd5b6020830191508360208260051b8501011115614dd257600080fd5b9250929050565b600082601f830112614de9578081fd5b81356020614dfe614df9836151cb565b61519a565b80838252828201915082860187848660051b8901011115614e1d578586fd5b855b85811015614e3b57813584529284019290840190600101614e1f565b5090979650505050505050565b600060208284031215614e59578081fd5b614e6282614d73565b9392505050565b600080600080600060808688031215614e80578081fd5b853567ffffffffffffffff80821115614e97578283fd5b614ea389838a01614d8f565b90975095506020880135915080821115614ebb578283fd5b50614ec888828901614dd9565b9598949750949560408101359550606001359392505050565b60008060008060008060a08789031215614ef9578081fd5b863567ffffffffffffffff80821115614f10578283fd5b614f1c8a838b01614d8f565b90985096506020890135915080821115614f34578283fd5b50614f4189828a01614dd9565b9450506040870135925060608701359150608087013590509295509295509295565b60006020808385031215614f75578182fd5b825167ffffffffffffffff811115614f8b578283fd5b8301601f81018513614f9b578283fd5b8051614fa9614df9826151cb565b80828252848201915084840188868560051b8701011115614fc8578687fd5b8694505b83851015612dca578051835260019490940193918501918501614fcc565b600060208284031215614ffb578081fd5b81518015158114614e62578182fd5b60006020828403121561501b578081fd5b5051919050565b600060208284031215615033578081fd5b815160ff81168114614e62578182fd5b81835260006020808501945082825b8581101561507e576001600160a01b0361506b83614d73565b1687529582019590820190600101615052565b509495945050505050565b6001600160a01b039384168152919092166020820152604081019190915260600190565b6001600160a01b03929092168252602082015260400190565b8381526040602082015260006150e0604083018486615043565b95945050505050565b86815285602082015260a06040820152600061510960a083018688615043565b6001600160a01b039490941660608301525060800152949350505050565b60ff958616815293909416602084015260408301919091526060820152608081019190915260a00190565b6000808335601e19843603018112615168578283fd5b83018035915067ffffffffffffffff821115615182578283fd5b6020019150600581901b3603821315614dd257600080fd5b604051601f8201601f1916810167ffffffffffffffff811182821017156151c3576151c3615286565b604052919050565b600067ffffffffffffffff8211156151e5576151e5615286565b5060051b60200190565b6000821982111561520257615202615270565b500190565b60008282101561521957615219615270565b500390565b60008161522d5761522d615270565b506000190190565b600060001982141561524957615249615270565b5060010190565b600060ff821660ff81141561526757615267615270565b60010192915050565b634e487b7160e01b600052601160045260246000fd5b634e487b7160e01b600052604160045260246000fdfea2646970667358221220322a79897cb588b9a0760bbf502d59a9990ecc8323aae29554d4233dca2797cf64736f6c63430008040033",
  "devdoc": {
    "kind": "dev",
    "methods": {},
    "version": 1
  },
  "userdoc": {
    "kind": "user",
    "methods": {},
    "version": 1
  },
  "storageLayout": {
    "storage": [],
    "types": null
  }
}