{
	"data": {
		"bytecode": {
			"linkReferences": {},
			"object": "615cd062000054600b82828239805160001a607314610047577f4e487b7100000000000000000000000000000000000000000000000000000000600052600060045260246000fd5b30600052607381538281f3fe73000000000000000000000000000000000000000030146080604052600436106101155760003560e01c8063c188e4be116100ac578063d011f9181161007b578063d011f91814610382578063d36604ac146103a0578063d73792a9146103d0578063e2eba89b146103ee578063fa5635971461041e57610115565b8063c188e4be146102c1578063c20aace8146102ea578063c685696c14610308578063c8344c061461034557610115565b80637a6cba3c116100e85780637a6cba3c146101f4578063a303558514610231578063b52e146f14610261578063ba2998d91461029157610115565b8063159763bb1461011a5780631e7e95d31461014a5780632bfe30d01461017a5780636e9b505d146101b7575b600080fd5b610134600480360381019061012f9190614a24565b61044e565b60405161014191906153f7565b60405180910390f35b610164600480360381019061015f9190614a87565b610469565b60405161017191906153f7565b60405180910390f35b81801561018657600080fd5b506101a1600480360381019061019c9190614bf8565b61089e565b6040516101ae91906153f7565b60405180910390f35b8180156101c357600080fd5b506101de60048036038101906101d99190614c5b565b610d6c565b6040516101eb91906153f7565b60405180910390f35b81801561020057600080fd5b5061021b60048036038101906102169190614aee565b6111f7565b60405161022891906153f7565b60405180910390f35b61024b600480360381019061024691906149ac565b611b85565b60405161025891906153f7565b60405180910390f35b61027b600480360381019061027691906149ac565b611b97565b60405161028891906153f7565b60405180910390f35b6102ab60048036038101906102a69190614bf8565b611bb5565b6040516102b891906153f7565b60405180910390f35b8180156102cd57600080fd5b506102e860048036038101906102e391906149d5565b611d61565b005b6102f2611d71565b6040516102ff91906153f7565b60405180910390f35b81801561031457600080fd5b5061032f600480360381019061032a9190614b91565b611d76565b60405161033c919061513b565b60405180910390f35b81801561035157600080fd5b5061036c60048036038101906103679190614aee565b61223f565b60405161037991906153f7565b60405180910390f35b61038a612bbb565b60405161039791906153f7565b60405180910390f35b6103ba60048036038101906103b591906149ac565b612bc0565b6040516103c791906153f7565b60405180910390f35b6103d8612cb2565b6040516103e591906153f7565b60405180910390f35b61040860048036038101906104039190614b55565b612cbb565b60405161041591906153f7565b60405180910390f35b610438600480360381019061043391906149d5565b612e4e565b604051610445919061513b565b60405180910390f35b600061045c85858585612e64565b5080915050949350505050565b60008084600001805490509050808451146104b9576040517f08c379a00000000000000000000000000000000000000000000000000000000081526004016104b090615397565b60405180910390fd5b60006104c48661331c565b905060006104da6104d48861340a565b836134c1565b905060008760030180548060200260200160405190810160405280929190818152602001828054801561052c57602002820191906000526020600020905b815481526020019060010190808311610518575b5050505050905060005b848110156106875786156105de5787818151811061057d577f4e487b7100000000000000000000000000000000000000000000000000000000600052603260045260246000fd5b60200260200101518282815181106105be577f4e487b7100000000000000000000000000000000000000000000000000000000600052603260045260246000fd5b602002602001018181516105d2919061555b565b91508181525050610674565b878181518110610617577f4e487b7100000000000000000000000000000000000000000000000000000000600052603260045260246000fd5b6020026020010151828281518110610658577f4e487b7100000000000000000000000000000000000000000000000000000000600052603260045260246000fd5b6020026020010181815161066c91906157ad565b915081815250505b808061067f90615897565b915050610536565b5060006106ef6106e9838b6002018054806020026020016040519081016040528092919081815260200182805480156106df57602002820191906000526020600020905b8154815260200190600101908083116106cb575b5050505050613699565b856134c1565b905060008960010160009054906101000a900473ffffffffffffffffffffffffffffffffffffffff1673ffffffffffffffffffffffffffffffffffffffff166318160ddd6040518163ffffffff1660e01b815260040160206040518083038186803b15801561075d57600080fd5b505afa158015610771573d6000803e3d6000fd5b505050506040513d601f19601f820116820180604052508101906107959190614cd2565b905060008114156107ae57819650505050505050610897565b6000886107c65782856107c191906157ad565b6107d3565b84836107d291906157ad565b5b9050848b60010160009054906101000a900473ffffffffffffffffffffffffffffffffffffffff1673ffffffffffffffffffffffffffffffffffffffff166318160ddd6040518163ffffffff1660e01b815260040160206040518083038186803b15801561084057600080fd5b505afa158015610854573d6000803e3d6000fd5b505050506040513d601f19601f820116820180604052508101906108789190614cd2565b826108839190615753565b61088d91906155b1565b9750505050505050505b9392505050565b6000808560010160009054906101000a900473ffffffffffffffffffffffffffffffffffffffff1673ffffffffffffffffffffffffffffffffffffffff166318160ddd6040518163ffffffff1660e01b815260040160206040518083038186803b15801561090b57600080fd5b505afa15801561091f573d6000803e3d6000fd5b505050506040513d601f19601f820116820180604052508101906109439190614cd2565b905060008111610988576040517f08c379a000000000000000000000000000000000000000000000000000000000815260040161097f90615237565b60405180910390fd5b6000866000018054905090508660010160009054906101000a900473ffffffffffffffffffffffffffffffffffffffff1673ffffffffffffffffffffffffffffffffffffffff166370a08231336040518263ffffffff1660e01b81526004016109f191906150c0565b60206040518083038186803b158015610a0957600080fd5b505afa158015610a1d573d6000803e3d6000fd5b505050506040513d601f19601f82011682018060405250810190610a419190614cd2565b861115610a83576040517f08c379a0000000000000000000000000000000000000000000000000000000008152600401610a7a90615257565b60405180910390fd5b81861115610ac6576040517f08c379a0000000000000000000000000000000000000000000000000000000008152600401610abd906152d7565b60405180910390fd5b808510610b08576040517f08c379a0000000000000000000000000000000000000000000000000000000008152600401610aff906152f7565b60405180910390fd5b600080610b1789338a8a612e64565b809350819250505085811015610b62576040517f08c379a0000000000000000000000000000000000000000000000000000000008152600401610b59906153b7565b60405180910390fd5b6402540be400896005015483610b789190615753565b610b8291906155b1565b81610b8d919061555b565b896003018881548110610bc9577f4e487b7100000000000000000000000000000000000000000000000000000000600052603260045260246000fd5b906000526020600020016000828254610be291906157ad565b925050819055508860010160009054906101000a900473ffffffffffffffffffffffffffffffffffffffff1673ffffffffffffffffffffffffffffffffffffffff166379cc6790338a6040518363ffffffff1660e01b8152600401610c48929190615112565b600060405180830381600087803b158015610c6257600080fd5b505af1158015610c76573d6000803e3d6000fd5b50505050610d0b33828b6000018a81548110610cbb577f4e487b7100000000000000000000000000000000000000000000000000000000600052603260045260246000fd5b9060005260206000200160009054906101000a900473ffffffffffffffffffffffffffffffffffffffff1673ffffffffffffffffffffffffffffffffffffffff166137959092919063ffffffff16565b3373ffffffffffffffffffffffffffffffffffffffff167f5ad056f2e28a8cec232015406b843668c1e36cda598127ec3b8c59b8c72773a0888a84604051610d5593929190615412565b60405180910390a280945050505050949350505050565b600080866000018681548110610dab577f4e487b7100000000000000000000000000000000000000000000000000000000600052603260045260246000fd5b9060005260206000200160009054906101000a900473ffffffffffffffffffffffffffffffffffffffff1690506000610de38861340a565b9050610def828661381b565b94506000886002018881548110610e2f577f4e487b7100000000000000000000000000000000000000000000000000000000600052603260045260246000fd5b906000526020600020015486610e459190615753565b828981518110610e7e577f4e487b7100000000000000000000000000000000000000000000000000000000600052603260045260246000fd5b6020026020010151610e90919061555b565b90506000610ea18a8a8a8587613973565b90506000600182858b81518110610ee1577f4e487b7100000000000000000000000000000000000000000000000000000000600052603260045260246000fd5b6020026020010151610ef391906157ad565b610efd91906157ad565b905060006402540be4008c6004015483610f179190615753565b610f2191906155b1565b90508b6002018a81548110610f5f577f4e487b7100000000000000000000000000000000000000000000000000000000600052603260045260246000fd5b90600052602060002001548183610f7691906157ad565b610f8091906155b1565b915087821015610fc5576040517f08c379a0000000000000000000000000000000000000000000000000000000008152600401610fbc906153b7565b60405180910390fd5b60008c6002018b81548110611003577f4e487b7100000000000000000000000000000000000000000000000000000000600052603260045260246000fd5b90600052602060002001546402540be4008e60050154846110249190615753565b61102e91906155b1565b61103891906155b1565b9050898d6003018d81548110611077577f4e487b7100000000000000000000000000000000000000000000000000000000600052603260045260246000fd5b906000526020600020016000828254611090919061555b565b9250508190555080836110a3919061555b565b8d6003018c815481106110df577f4e487b7100000000000000000000000000000000000000000000000000000000600052603260045260246000fd5b9060005260206000200160008282546110f891906157ad565b9250508190555061119033848f6000018e81548110611140577f4e487b7100000000000000000000000000000000000000000000000000000000600052603260045260246000fd5b9060005260206000200160009054906101000a900473ffffffffffffffffffffffffffffffffffffffff1673ffffffffffffffffffffffffffffffffffffffff166137959092919063ffffffff16565b3373ffffffffffffffffffffffffffffffffffffffff167fb2e76ae99761dc136e598d4a629bb347eccb9532a5f8bbd72e18467c3c34cc988d8c8e876040516111dc9493929190615449565b60405180910390a28297505050505050505095945050505050565b6000808460000180549050905080845114611247576040517f08c379a000000000000000000000000000000000000000000000000000000000815260040161123e90615397565b60405180910390fd5b60008167ffffffffffffffff811115611289577f4e487b7100000000000000000000000000000000000000000000000000000000600052604160045260246000fd5b6040519080825280602002602001820160405280156112b75781602001602082028036833780820191505090505b50905060006112c587613c23565b905060008760010160009054906101000a900473ffffffffffffffffffffffffffffffffffffffff1673ffffffffffffffffffffffffffffffffffffffff166318160ddd6040518163ffffffff1660e01b815260040160206040518083038186803b15801561133357600080fd5b505afa158015611347573d6000803e3d6000fd5b505050506040513d601f19601f8201168201806040525081019061136b9190614cd2565b905060006113788961331c565b905060008083111561143e5761143b6114358b6003018054806020026020016040519081016040528092919081815260200182805480156113d857602002820191906000526020600020905b8154815260200190600101908083116113c4575b50505050508c60020180548060200260200160405190810160405280929190818152602001828054801561142b57602002820191906000526020600020905b815481526020019060010190808311611417575b5050505050613699565b836134c1565b90505b60008a60030180548060200260200160405190810160405280929190818152602001828054801561148e57602002820191906000526020600020905b81548152602001906001019080831161147a575b5050505050905060005b8781101561164457600085141561152d5760008b82815181106114e4577f4e487b7100000000000000000000000000000000000000000000000000000000600052603260045260246000fd5b60200260200101511161152c576040517f08c379a0000000000000000000000000000000000000000000000000000000008152600401611523906153d7565b60405180910390fd5b5b6115dd8c600001828154811061156c577f4e487b7100000000000000000000000000000000000000000000000000000000600052603260045260246000fd5b9060005260206000200160009054906101000a900473ffffffffffffffffffffffffffffffffffffffff168c83815181106115d0577f4e487b7100000000000000000000000000000000000000000000000000000000600052603260045260246000fd5b602002602001015161381b565b828281518110611616577f4e487b7100000000000000000000000000000000000000000000000000000000600052603260045260246000fd5b6020026020010181815161162a919061555b565b91508181525050808061163c90615897565b915050611498565b5060006116ac6116a6838e60020180548060200260200160405190810160405280929190818152602001828054801561169c57602002820191906000526020600020905b815481526020019060010190808311611688575b5050505050613699565b856134c1565b90508281116116e4577f4e487b7100000000000000000000000000000000000000000000000000000000600052600160045260246000fd5b600085141561170e57818c6003019080519060200190611705929190614805565b50809850611a4e565b6000805b898110156119c0576117c0858f600301838154811061175a577f4e487b7100000000000000000000000000000000000000000000000000000000600052603260045260246000fd5b9060005260206000200154856117709190615753565b61177a91906155b1565b8583815181106117b3577f4e487b7100000000000000000000000000000000000000000000000000000000600052603260045260246000fd5b6020026020010151613c6b565b91506402540be40082896117d49190615753565b6117de91906155b1565b898281518110611817577f4e487b7100000000000000000000000000000000000000000000000000000000600052603260045260246000fd5b6020026020010181815250506402540be4008e600501548a8381518110611867577f4e487b7100000000000000000000000000000000000000000000000000000000600052603260045260246000fd5b60200260200101516118799190615753565b61188391906155b1565b8482815181106118bc577f4e487b7100000000000000000000000000000000000000000000000000000000600052603260045260246000fd5b60200260200101516118ce91906157ad565b8e600301828154811061190a577f4e487b7100000000000000000000000000000000000000000000000000000000600052603260045260246000fd5b9060005260206000200181905550888181518110611951577f4e487b7100000000000000000000000000000000000000000000000000000000600052603260045260246000fd5b6020026020010151848281518110611992577f4e487b7100000000000000000000000000000000000000000000000000000000600052603260045260246000fd5b602002602001018181516119a691906157ad565b9150818152505080806119b890615897565b915050611712565b50611a26611a20848f600201805480602002602001604051908101604052809291908181526020018280548015611a1657602002820191906000526020600020905b815481526020019060010190808311611a02575b5050505050613699565b866134c1565b9150838483611a3591906157ad565b87611a409190615753565b611a4a91906155b1565b9950505b89891015611a91576040517f08c379a0000000000000000000000000000000000000000000000000000000008152600401611a88906153b7565b60405180910390fd5b8b60010160009054906101000a900473ffffffffffffffffffffffffffffffffffffffff1673ffffffffffffffffffffffffffffffffffffffff166340c10f19338b6040518363ffffffff1660e01b8152600401611af0929190615112565b600060405180830381600087803b158015611b0a57600080fd5b505af1158015611b1e573d6000803e3d6000fd5b505050503373ffffffffffffffffffffffffffffffffffffffff167f189c623b666b1b45b83d7178f39b8c087cb09774317ca2f53c2d3c3726f222a28c89848d604051611b6e94939291906151a2565b60405180910390a250505050505050509392505050565b6000611b908261331c565b9050919050565b60006064611ba48361331c565b611bae91906155b1565b9050919050565b600080611bc18661340a565b90506000866002018681548110611c01577f4e487b7100000000000000000000000000000000000000000000000000000000600052603260045260246000fd5b906000526020600020015484611c179190615753565b828781518110611c50577f4e487b7100000000000000000000000000000000000000000000000000000000600052603260045260246000fd5b6020026020010151611c62919061555b565b90506000611c738888888587613973565b90506000886002018781548110611cb3577f4e487b7100000000000000000000000000000000000000000000000000000000600052603260045260246000fd5b9060005260206000200154600183868a81518110611cfa577f4e487b7100000000000000000000000000000000000000000000000000000000600052603260045260246000fd5b6020026020010151611d0c91906157ad565b611d1691906157ad565b611d2091906155b1565b905060006402540be400828b60040154611d3a9190615753565b611d4491906155b1565b90508082611d5291906157ad565b95505050505050949350505050565b611d6c838383613c9a565b505050565b601281565b606060008460010160009054906101000a900473ffffffffffffffffffffffffffffffffffffffff1673ffffffffffffffffffffffffffffffffffffffff166318160ddd6040518163ffffffff1660e01b815260040160206040518083038186803b158015611de457600080fd5b505afa158015611df8573d6000803e3d6000fd5b505050506040513d601f19601f82011682018060405250810190611e1c9190614cd2565b905080841115611e2b57600080fd5b60008560000180549050905060008167ffffffffffffffff811115611e79577f4e487b7100000000000000000000000000000000000000000000000000000000600052604160045260246000fd5b604051908082528060200260200182016040528015611ea75781602001602082028036833780820191505090505b509050611eb5873388613f02565b935060005b845181101561214657858181518110611efc577f4e487b7100000000000000000000000000000000000000000000000000000000600052603260045260246000fd5b6020026020010151858281518110611f3d577f4e487b7100000000000000000000000000000000000000000000000000000000600052603260045260246000fd5b60200260200101511015611f86576040517f08c379a0000000000000000000000000000000000000000000000000000000008152600401611f7d906153b7565b60405180910390fd5b848181518110611fbf577f4e487b7100000000000000000000000000000000000000000000000000000000600052603260045260246000fd5b6020026020010151886003018281548110612003577f4e487b7100000000000000000000000000000000000000000000000000000000600052603260045260246000fd5b906000526020600020015461201891906157ad565b886003018281548110612054577f4e487b7100000000000000000000000000000000000000000000000000000000600052603260045260246000fd5b90600052602060002001819055506121333386838151811061209f577f4e487b7100000000000000000000000000000000000000000000000000000000600052603260045260246000fd5b60200260200101518a60000184815481106120e3577f4e487b7100000000000000000000000000000000000000000000000000000000600052603260045260246000fd5b9060005260206000200160009054906101000a900473ffffffffffffffffffffffffffffffffffffffff1673ffffffffffffffffffffffffffffffffffffffff166137959092919063ffffffff16565b808061213e90615897565b915050611eba565b508660010160009054906101000a900473ffffffffffffffffffffffffffffffffffffffff1673ffffffffffffffffffffffffffffffffffffffff166379cc679033886040518363ffffffff1660e01b81526004016121a6929190615112565b600060405180830381600087803b1580156121c057600080fd5b505af11580156121d4573d6000803e3d6000fd5b505050503373ffffffffffffffffffffffffffffffffffffffff167f347ad828e58cbe534d8f6b67985d791360756b18f0d95fd9f197a66cc46480ea8583898761221e91906157ad565b60405161222d9392919061515d565b60405180910390a25050509392505050565b600080846000018054905090508084511461228f576040517f08c379a000000000000000000000000000000000000000000000000000000000815260040161228690615397565b60405180910390fd5b60008560010160009054906101000a900473ffffffffffffffffffffffffffffffffffffffff1673ffffffffffffffffffffffffffffffffffffffff166318160ddd6040518163ffffffff1660e01b815260040160206040518083038186803b1580156122fb57600080fd5b505afa15801561230f573d6000803e3d6000fd5b505050506040513d601f19601f820116820180604052508101906123339190614cd2565b90506000811415612379576040517f08c379a000000000000000000000000000000000000000000000000000000000815260040161237090615237565b60405180910390fd5b600061238487613c23565b905060006123918861331c565b90506000886003018054806020026020016040519081016040528092919081815260200182805480156123e357602002820191906000526020600020905b8154815260200190600101908083116123cf575b5050505050905060006123fe6123f88b61340a565b846134c1565b905060005b868110156124b357898181518110612444577f4e487b7100000000000000000000000000000000000000000000000000000000600052603260045260246000fd5b6020026020010151838281518110612485577f4e487b7100000000000000000000000000000000000000000000000000000000600052603260045260246000fd5b6020026020010181815161249991906157ad565b9150818152505080806124ab90615897565b915050612403565b50600061251b612515848d60020180548060200260200160405190810160405280929190818152602001828054801561250b57602002820191906000526020600020905b8154815260200190600101908083116124f7575b5050505050613699565b856134c1565b905060008767ffffffffffffffff81111561255f577f4e487b7100000000000000000000000000000000000000000000000000000000600052604160045260246000fd5b60405190808252806020026020018201604052801561258d5781602001602082028036833780820191505090505b50905060005b8881101561284a576000848e60030183815481106125da577f4e487b7100000000000000000000000000000000000000000000000000000000600052603260045260246000fd5b9060005260206000200154856125f09190615753565b6125fa91906155b1565b9050600061264887848151811061263a577f4e487b7100000000000000000000000000000000000000000000000000000000600052603260045260246000fd5b602002602001015183613c6b565b90506402540be400818a61265c9190615753565b61266691906155b1565b84848151811061269f577f4e487b7100000000000000000000000000000000000000000000000000000000600052603260045260246000fd5b6020026020010181815250506402540be4008f600501548585815181106126ef577f4e487b7100000000000000000000000000000000000000000000000000000000600052603260045260246000fd5b60200260200101516127019190615753565b61270b91906155b1565b878481518110612744577f4e487b7100000000000000000000000000000000000000000000000000000000600052603260045260246000fd5b602002602001015161275691906157ad565b8f6003018481548110612792577f4e487b7100000000000000000000000000000000000000000000000000000000600052603260045260246000fd5b90600052602060002001819055508383815181106127d9577f4e487b7100000000000000000000000000000000000000000000000000000000600052603260045260246000fd5b602002602001015187848151811061281a577f4e487b7100000000000000000000000000000000000000000000000000000000600052603260045260246000fd5b6020026020010181815161282e91906157ad565b915081815250505050808061284290615897565b915050612593565b506128b06128aa858e6002018054806020026020016040519081016040528092919081815260200182805480156128a057602002820191906000526020600020905b81548152602001906001019080831161288c575b5050505050613699565b866134c1565b9150828783856128c091906157ad565b6128ca9190615753565b6128d491906155b1565b98506000891161290d577f4e487b7100000000000000000000000000000000000000000000000000000000600052600160045260246000fd5b6129178c33614175565b6402540be40061292791906157ad565b60018a612934919061555b565b61293e9190615753565b985089891115612983576040517f08c379a000000000000000000000000000000000000000000000000000000000815260040161297a906153b7565b60405180910390fd5b8b60010160009054906101000a900473ffffffffffffffffffffffffffffffffffffffff1673ffffffffffffffffffffffffffffffffffffffff166379cc6790338b6040518363ffffffff1660e01b81526004016129e2929190615112565b600060405180830381600087803b1580156129fc57600080fd5b505af1158015612a10573d6000803e3d6000fd5b5050505060005b88811015612b4c5760008c8281518110612a5a577f4e487b7100000000000000000000000000000000000000000000000000000000600052603260045260246000fd5b602002602001015114612b3957612b38338d8381518110612aa4577f4e487b7100000000000000000000000000000000000000000000000000000000600052603260045260246000fd5b60200260200101518f6000018481548110612ae8577f4e487b7100000000000000000000000000000000000000000000000000000000600052603260045260246000fd5b9060005260206000200160009054906101000a900473ffffffffffffffffffffffffffffffffffffffff1673ffffffffffffffffffffffffffffffffffffffff166137959092919063ffffffff16565b5b8080612b4490615897565b915050612a17565b503373ffffffffffffffffffffffffffffffffffffffff167f3631c28b1f9dd213e0319fb167b554d76b6c283a41143eb400a0d1adb1af17558c83858d8c612b9491906157ad565b604051612ba494939291906151a2565b60405180910390a250505050505050509392505050565b606481565b600080612bdd612bcf8461340a565b612bd88561331c565b6134c1565b905060008360010160009054906101000a900473ffffffffffffffffffffffffffffffffffffffff1673ffffffffffffffffffffffffffffffffffffffff166318160ddd6040518163ffffffff1660e01b815260040160206040518083038186803b158015612c4b57600080fd5b505afa158015612c5f573d6000803e3d6000fd5b505050506040513d601f19601f82011682018060405250810190612c839190614cd2565b9050806012600a612c949190615635565b83612c9f9190615753565b612ca991906155b1565b92505050919050565b6402540be40081565b600082600001805490508210612d06576040517f08c379a0000000000000000000000000000000000000000000000000000000008152600401612cfd90615217565b60405180910390fd5b826003018281548110612d42577f4e487b7100000000000000000000000000000000000000000000000000000000600052603260045260246000fd5b9060005260206000200154836000018381548110612d89577f4e487b7100000000000000000000000000000000000000000000000000000000600052603260045260246000fd5b9060005260206000200160009054906101000a900473ffffffffffffffffffffffffffffffffffffffff1673ffffffffffffffffffffffffffffffffffffffff166370a08231306040518263ffffffff1660e01b8152600401612dec91906150c0565b60206040518083038186803b158015612e0457600080fd5b505afa158015612e18573d6000803e3d6000fd5b505050506040513d601f19601f82011682018060405250810190612e3c9190614cd2565b612e4691906157ad565b905092915050565b6060612e5b848484613f02565b90509392505050565b60008085600001805490508310612eb0576040517f08c379a0000000000000000000000000000000000000000000000000000000008152600401612ea790615217565b60405180910390fd5b6000612ebb8761331c565b90506000612ec88861340a565b90506000612ed682846134c1565b905060008960010160009054906101000a900473ffffffffffffffffffffffffffffffffffffffff1673ffffffffffffffffffffffffffffffffffffffff166318160ddd6040518163ffffffff1660e01b815260040160206040518083038186803b158015612f4457600080fd5b505afa158015612f58573d6000803e3d6000fd5b505050506040513d601f19601f82011682018060405250810190612f7c9190614cd2565b8289612f889190615753565b612f9291906155b1565b82612f9d91906157ad565b90506000612fae8b868a8786614271565b905060008490506000612fc08d613c23565b905060005b8d600001805490508110156131705760008b821415613047578487878a858151811061301a577f4e487b7100000000000000000000000000000000000000000000000000000000600052603260045260246000fd5b602002602001015161302c9190615753565b61303691906155b1565b61304091906157ad565b90506130ec565b8686898481518110613082577f4e487b7100000000000000000000000000000000000000000000000000000000600052603260045260246000fd5b60200260200101516130949190615753565b61309e91906155b1565b8883815181106130d7577f4e487b7100000000000000000000000000000000000000000000000000000000600052603260045260246000fd5b60200260200101516130e991906157ad565b90505b6402540be40081846130fe9190615753565b61310891906155b1565b848381518110613141577f4e487b7100000000000000000000000000000000000000000000000000000000600052603260045260246000fd5b6020026020010181815161315591906157ad565b9150818152505050808061316890615897565b915050612fc5565b5061317e8d888c8588614271565b828b815181106131b7577f4e487b7100000000000000000000000000000000000000000000000000000000600052603260045260246000fd5b60200260200101516131c991906157ad565b98508c6002018a81548110613207577f4e487b7100000000000000000000000000000000000000000000000000000000600052603260045260246000fd5b906000526020600020015460018a61321f91906157ad565b61322991906155b1565b9850888d6002018b81548110613268577f4e487b7100000000000000000000000000000000000000000000000000000000600052603260045260246000fd5b906000526020600020015484888d815181106132ad577f4e487b7100000000000000000000000000000000000000000000000000000000600052603260045260246000fd5b60200260200101516132bf91906157ad565b6132c991906155b1565b6132d391906157ad565b97506402540be4006132e58e8e614175565b6402540be4006132f591906157ad565b8a6133009190615753565b61330a91906155b1565b98505050505050505094509492505050565b6000816009015442106133355781600701549050613405565b8160060154826007015411156133a7578160080154826009015461335991906157ad565b82600801544261336991906157ad565b8360060154846007015461337d91906157ad565b6133879190615753565b61339191906155b1565b82600601546133a0919061555b565b9050613405565b816008015482600901546133bb91906157ad565b8260080154426133cb91906157ad565b836007015484600601546133df91906157ad565b6133e99190615753565b6133f391906155b1565b826006015461340291906157ad565b90505b919050565b60606134ba8260030180548060200260200160405190810160405280929190818152602001828054801561345d57602002820191906000526020600020905b815481526020019060010190808311613449575b5050505050836002018054806020026020016040519081016040528092919081815260200182805480156134b057602002820191906000526020600020905b81548152602001906001019080831161349c575b5050505050613699565b9050919050565b6000808351905060006134d38561449b565b905060008114156134e957600092505050613693565b600080829050600084876134fd9190615753565b905060005b61010081101561365757600083905060005b8a5181101561359457878b8281518110613557577f4e487b7100000000000000000000000000000000000000000000000000000000600052603260045260246000fd5b60200260200101516135699190615753565b85836135759190615753565b61357f91906155b1565b9150808061358c90615897565b915050613514565b50839450806001886135a6919061555b565b6135b09190615753565b6064856064866135c091906157ad565b6135ca9190615753565b6135d491906155b1565b6135de919061555b565b8488836135eb9190615753565b606489876135f99190615753565b61360391906155b1565b61360d919061555b565b6136179190615753565b61362191906155b1565b9350600161362f8587613c6b565b116136435783975050505050505050613693565b50808061364f90615897565b915050613502565b506040517f08c379a000000000000000000000000000000000000000000000000000000000815260040161368a90615277565b60405180910390fd5b92915050565b606060005b835181101561378b578381815181106136e0577f4e487b7100000000000000000000000000000000000000000000000000000000600052603260045260246000fd5b6020026020010151838281518110613721577f4e487b7100000000000000000000000000000000000000000000000000000000600052603260045260246000fd5b60200260200101516137339190615753565b83828151811061376c577f4e487b7100000000000000000000000000000000000000000000000000000000600052603260045260246000fd5b602002602001018181525050808061378390615897565b91505061369e565b5081905092915050565b6138168363a9059cbb60e01b84846040516024016137b4929190615112565b604051602081830303815290604052907bffffffffffffffffffffffffffffffffffffffffffffffffffffffff19166020820180517bffffffffffffffffffffffffffffffffffffffffffffffffffffffff838183161783525050505061450f565b505050565b6000808373ffffffffffffffffffffffffffffffffffffffff166370a08231306040518263ffffffff1660e01b815260040161385791906150c0565b60206040518083038186803b15801561386f57600080fd5b505afa158015613883573d6000803e3d6000fd5b505050506040513d601f19601f820116820180604052508101906138a79190614cd2565b90506138d63330858773ffffffffffffffffffffffffffffffffffffffff166145d6909392919063ffffffff16565b808473ffffffffffffffffffffffffffffffffffffffff166370a08231306040518263ffffffff1660e01b815260040161391091906150c0565b60206040518083038186803b15801561392857600080fd5b505afa15801561393c573d6000803e3d6000fd5b505050506040513d601f19601f820116820180604052508101906139609190614cd2565b61396a91906157ad565b91505092915050565b6000838514156139b8576040517f08c379a00000000000000000000000000000000000000000000000000000000081526004016139af90615297565b60405180910390fd5b60008660000180549050905080861080156139d257508085105b613a11576040517f08c379a0000000000000000000000000000000000000000000000000000000008152600401613a0890615217565b60405180910390fd5b6000613a1c8861331c565b905060008282613a2c9190615753565b90506000613a3a86846134c1565b905060008082905060005b86811015613af4578a811415613a5a57613ae1565b60008c8214613aa957898281518110613a9c577f4e487b7100000000000000000000000000000000000000000000000000000000600052603260045260246000fd5b6020026020010151613aab565b8a5b90508084613ab9919061555b565b93508781613ac79190615753565b8584613ad39190615753565b613add91906155b1565b9250505b8080613aec90615897565b915050613a45565b508584613b019190615753565b60648483613b0f9190615753565b613b199190615753565b613b2391906155b1565b9050600084606485613b359190615753565b613b3f91906155b1565b83613b4a919061555b565b905060008085905060005b610100811015613bde578192508684836002613b719190615753565b613b7b919061555b565b613b8591906157ad565b858384613b929190615753565b613b9c919061555b565b613ba691906155b1565b91506001613bb48484613c6b565b11613bcb57819a5050505050505050505050613c1a565b8080613bd690615897565b915050613b55565b506040517f08c379a0000000000000000000000000000000000000000000000000000000008152600401613c1190615337565b60405180910390fd5b95945050505050565b60008082600001805490509050600181613c3d91906157ad565b6004613c499190615753565b818460040154613c599190615753565b613c6391906155b1565b915050919050565b6000818311613c85578282613c8091906157ad565b613c92565b8183613c9191906157ad565b5b905092915050565b600073ffffffffffffffffffffffffffffffffffffffff168273ffffffffffffffffffffffffffffffffffffffff161415613cd457613efd565b600083600a01541415613d31576402540be40083600c0160008473ffffffffffffffffffffffffffffffffffffffff1673ffffffffffffffffffffffffffffffffffffffff16815260200190815260200160002081905550613eb6565b6000613d3d8484614175565b905060008460010160009054906101000a900473ffffffffffffffffffffffffffffffffffffffff1673ffffffffffffffffffffffffffffffffffffffff166370a08231856040518263ffffffff1660e01b8152600401613d9e91906150c0565b60206040518083038186803b158015613db657600080fd5b505afa158015613dca573d6000803e3d6000fd5b505050506040513d601f19601f82011682018060405250810190613dee9190614cd2565b9050600085600a01548285613e03919061555b565b613e0d9190615753565b14613eb35784600a01548184613e23919061555b565b613e2d9190615753565b6402540be40086600a015485613e439190615753565b8484613e4f9190615753565b613e59919061555b565b613e639190615753565b613e6d91906155b1565b85600c0160008673ffffffffffffffffffffffffffffffffffffffff1673ffffffffffffffffffffffffffffffffffffffff168152602001908152602001600020819055505b50505b4283600b0160008473ffffffffffffffffffffffffffffffffffffffff1673ffffffffffffffffffffffffffffffffffffffff168152602001908152602001600020819055505b505050565b606060008460010160009054906101000a900473ffffffffffffffffffffffffffffffffffffffff1673ffffffffffffffffffffffffffffffffffffffff166318160ddd6040518163ffffffff1660e01b815260040160206040518083038186803b158015613f7057600080fd5b505afa158015613f84573d6000803e3d6000fd5b505050506040513d601f19601f82011682018060405250810190613fa89190614cd2565b905080831115613fed576040517f08c379a0000000000000000000000000000000000000000000000000000000008152600401613fe490615377565b60405180910390fd5b60006402540be400613fff8787614175565b6402540be40061400f91906157ad565b8561401a9190615753565b61402491906155b1565b90506000866000018054905067ffffffffffffffff81111561406f577f4e487b7100000000000000000000000000000000000000000000000000000000600052604160045260246000fd5b60405190808252806020026020018201604052801561409d5781602001602082028036833780820191505090505b50905060005b87600001805490508110156141675783838960030183815481106140f0577f4e487b7100000000000000000000000000000000000000000000000000000000600052603260045260246000fd5b90600052602060002001546141059190615753565b61410f91906155b1565b828281518110614148577f4e487b7100000000000000000000000000000000000000000000000000000000600052603260045260246000fd5b602002602001018181525050808061415f90615897565b9150506140a3565b508093505050509392505050565b6000806224ea0084600b0160008573ffffffffffffffffffffffffffffffffffffffff1673ffffffffffffffffffffffffffffffffffffffff168152602001908152602001600020546141c8919061555b565b90504281111561426557600042826141e091906157ad565b90506402540be4006224ea008287600c0160008873ffffffffffffffffffffffffffffffffffffffff1673ffffffffffffffffffffffffffffffffffffffff1681526020019081526020016000205488600a015461423e9190615753565b6142489190615753565b61425291906155b1565b61425c91906155b1565b9250505061426b565b60009150505b92915050565b600080866000018054905090508085106142b4577f4e487b7100000000000000000000000000000000000000000000000000000000600052600160045260246000fd5b600081876142c29190615753565b905060008490506000806000805b8681101561436e578a8114156142e55761435b565b89818151811061431e577f4e487b7100000000000000000000000000000000000000000000000000000000600052603260045260246000fd5b602002602001015192508284614334919061555b565b935086836143429190615753565b898661434e9190615753565b61435891906155b1565b94505b808061436690615897565b9150506142d0565b50858561437b9190615753565b606489866143899190615753565b6143939190615753565b61439d91906155b1565b935060008560648a6143af9190615753565b6143b991906155b1565b846143c4919061555b565b9050600089905060005b610100811015614456578193508a838360026143ea9190615753565b6143f4919061555b565b6143fe91906157ad565b87838461440b9190615753565b614415919061555b565b61441f91906155b1565b9150600161442d8584613c6b565b1161444357819950505050505050505050614492565b808061444e90615897565b9150506143ce565b506040517f08c379a000000000000000000000000000000000000000000000000000000000815260040161448990615277565b60405180910390fd5b95945050505050565b6000805b8251811015614509578281815181106144e1577f4e487b7100000000000000000000000000000000000000000000000000000000600052603260045260246000fd5b6020026020010151826144f4919061555b565b9150808061450190615897565b91505061449f565b50919050565b6000614571826040518060400160405280602081526020017f5361666545524332303a206c6f772d6c6576656c2063616c6c206661696c65648152508573ffffffffffffffffffffffffffffffffffffffff1661465f9092919063ffffffff16565b90506000815111156145d157808060200190518101906145919190614983565b6145d0576040517f08c379a00000000000000000000000000000000000000000000000000000000081526004016145c790615357565b60405180910390fd5b5b505050565b614659846323b872dd60e01b8585856040516024016145f7939291906150db565b604051602081830303815290604052907bffffffffffffffffffffffffffffffffffffffffffffffffffffffff19166020820180517bffffffffffffffffffffffffffffffffffffffffffffffffffffffff838183161783525050505061450f565b50505050565b606061466e8484600085614677565b90509392505050565b6060824710156146bc576040517f08c379a00000000000000000000000000000000000000000000000000000000081526004016146b3906152b7565b60405180910390fd5b6146c58561478b565b614704576040517f08c379a00000000000000000000000000000000000000000000000000000000081526004016146fb90615317565b60405180910390fd5b6000808673ffffffffffffffffffffffffffffffffffffffff16858760405161472d91906150a9565b60006040518083038185875af1925050503d806000811461476a576040519150601f19603f3d011682016040523d82523d6000602084013e61476f565b606091505b509150915061477f82828661479e565b92505050949350505050565b600080823b905060008111915050919050565b606083156147ae578290506147fe565b6000835111156147c15782518084602001fd5b816040517f08c379a00000000000000000000000000000000000000000000000000000000081526004016147f591906151f5565b60405180910390fd5b9392505050565b828054828255906000526020600020908101928215614841579160200282015b82811115614840578251825591602001919060010190614825565b5b50905061484e9190614852565b5090565b5b8082111561486b576000816000905550600101614853565b5090565b600061488261487d846154b3565b61548e565b905080838252602082019050828560208602820111156148a157600080fd5b60005b858110156148d157816148b78882614959565b8452602084019350602083019250506001810190506148a4565b5050509392505050565b6000813590506148ea81615c3e565b92915050565b600082601f83011261490157600080fd5b813561491184826020860161486f565b91505092915050565b60008135905061492981615c55565b92915050565b60008151905061493e81615c55565b92915050565b60008135905061495381615c6c565b92915050565b60008135905061496881615c83565b92915050565b60008151905061497d81615c83565b92915050565b60006020828403121561499557600080fd5b60006149a38482850161492f565b91505092915050565b6000602082840312156149be57600080fd5b60006149cc84828501614944565b91505092915050565b6000806000606084860312156149ea57600080fd5b60006149f886828701614944565b9350506020614a09868287016148db565b9250506040614a1a86828701614959565b9150509250925092565b60008060008060808587031215614a3a57600080fd5b6000614a4887828801614944565b9450506020614a59878288016148db565b9350506040614a6a87828801614959565b9250506060614a7b87828801614959565b91505092959194509250565b600080600060608486031215614a9c57600080fd5b6000614aaa86828701614944565b935050602084013567ffffffffffffffff811115614ac757600080fd5b614ad3868287016148f0565b9250506040614ae48682870161491a565b9150509250925092565b600080600060608486031215614b0357600080fd5b6000614b1186828701614944565b935050602084013567ffffffffffffffff811115614b2e57600080fd5b614b3a868287016148f0565b9250506040614b4b86828701614959565b9150509250925092565b60008060408385031215614b6857600080fd5b6000614b7685828601614944565b9250506020614b8785828601614959565b9150509250929050565b600080600060608486031215614ba657600080fd5b6000614bb486828701614944565b9350506020614bc586828701614959565b925050604084013567ffffffffffffffff811115614be257600080fd5b614bee868287016148f0565b9150509250925092565b60008060008060808587031215614c0e57600080fd5b6000614c1c87828801614944565b9450506020614c2d87828801614959565b9350506040614c3e87828801614959565b9250506060614c4f87828801614959565b91505092959194509250565b600080600080600060a08688031215614c7357600080fd5b6000614c8188828901614944565b9550506020614c9288828901614959565b9450506040614ca388828901614959565b9350506060614cb488828901614959565b9250506080614cc588828901614959565b9150509295509295909350565b600060208284031215614ce457600080fd5b6000614cf28482850161496e565b91505092915050565b6000614d07838361506d565b60208301905092915050565b6000614d1f838361509a565b60208301905092915050565b614d34816157e1565b82525050565b6000614d45826154ef565b614d4f818561551d565b9350614d5a836154df565b8060005b83811015614d8b578151614d728882614cfb565b9750614d7d83615510565b925050600181019050614d5e565b5085935050505092915050565b6000614da3826154ef565b614dad818561552e565b9350614db8836154df565b8060005b83811015614de9578151614dd08882614d13565b9750614ddb83615510565b925050600181019050614dbc565b5085935050505092915050565b6000614e01826154fa565b614e0b818561553f565b9350614e1b818560208601615833565b80840191505092915050565b6000614e3282615505565b614e3c818561554a565b9350614e4c818560208601615833565b614e558161596d565b840191505092915050565b6000614e6d600f8361554a565b9150614e788261598b565b602082019050919050565b6000614e90600f8361554a565b9150614e9b826159b4565b602082019050919050565b6000614eb360098361554a565b9150614ebe826159dd565b602082019050919050565b6000614ed6601a8361554a565b9150614ee182615a06565b602082019050919050565b6000614ef960098361554a565b9150614f0482615a2f565b602082019050919050565b6000614f1c60268361554a565b9150614f2782615a58565b604082019050919050565b6000614f3f600d8361554a565b9150614f4a82615aa7565b602082019050919050565b6000614f62600d8361554a565b9150614f6d82615ad0565b602082019050919050565b6000614f85601d8361554a565b9150614f9082615af9565b602082019050919050565b6000614fa860128361554a565b9150614fb382615b22565b602082019050919050565b6000614fcb602a8361554a565b9150614fd682615b4b565b604082019050919050565b6000614fee601a8361554a565b9150614ff982615b9a565b602082019050919050565b600061501160148361554a565b915061501c82615bc3565b602082019050919050565b6000615034600a8361554a565b915061503f82615bec565b602082019050919050565b6000615057601e8361554a565b915061506282615c15565b602082019050919050565b61507681615829565b82525050565b61508581615829565b82525050565b61509481615829565b82525050565b6150a381615829565b82525050565b60006150b58284614df6565b915081905092915050565b60006020820190506150d56000830184614d2b565b92915050565b60006060820190506150f06000830186614d2b565b6150fd6020830185614d2b565b61510a604083018461507c565b949350505050565b60006040820190506151276000830185614d2b565b615134602083018461507c565b9392505050565b600060208201905081810360008301526151558184614d98565b905092915050565b600060608201905081810360008301526151778186614d3a565b9050818103602083015261518b8185614d3a565b905061519a604083018461507c565b949350505050565b600060808201905081810360008301526151bc8187614d3a565b905081810360208301526151d08186614d3a565b90506151df604083018561507c565b6151ec606083018461507c565b95945050505050565b6000602082019050818103600083015261520f8184614e27565b905092915050565b6000602082019050818103600083015261523081614e60565b9050919050565b6000602082019050818103600083015261525081614e83565b9050919050565b6000602082019050818103600083015261527081614ea6565b9050919050565b6000602082019050818103600083015261529081614ec9565b9050919050565b600060208201905081810360008301526152b081614eec565b9050919050565b600060208201905081810360008301526152d081614f0f565b9050919050565b600060208201905081810360008301526152f081614f32565b9050919050565b6000602082019050818103600083015261531081614f55565b9050919050565b6000602082019050818103600083015261533081614f78565b9050919050565b6000602082019050818103600083015261535081614f9b565b9050919050565b6000602082019050818103600083015261537081614fbe565b9050919050565b6000602082019050818103600083015261539081614fe1565b9050919050565b600060208201905081810360008301526153b081615004565b9050919050565b600060208201905081810360008301526153d081615027565b9050919050565b600060208201905081810360008301526153f08161504a565b9050919050565b600060208201905061540c600083018461508b565b92915050565b6000606082019050615427600083018661507c565b615434602083018561507c565b615441604083018461507c565b949350505050565b600060808201905061545e600083018761507c565b61546b602083018661507c565b615478604083018561507c565b615485606083018461507c565b95945050505050565b60006154986154a9565b90506154a48282615866565b919050565b6000604051905090565b600067ffffffffffffffff8211156154ce576154cd61593e565b5b602082029050602081019050919050565b6000819050602082019050919050565b600081519050919050565b600081519050919050565b600081519050919050565b6000602082019050919050565b600082825260208201905092915050565b600082825260208201905092915050565b600081905092915050565b600082825260208201905092915050565b600061556682615829565b915061557183615829565b9250827fffffffffffffffffffffffffffffffffffffffffffffffffffffffffffffffff038211156155a6576155a56158e0565b5b828201905092915050565b60006155bc82615829565b91506155c783615829565b9250826155d7576155d661590f565b5b828204905092915050565b6000808291508390505b600185111561562c57808604811115615608576156076158e0565b5b60018516156156175780820291505b80810290506156258561597e565b94506155ec565b94509492505050565b600061564082615829565b915061564b83615829565b92506156787fffffffffffffffffffffffffffffffffffffffffffffffffffffffffffffffff8484615680565b905092915050565b600082615690576001905061574c565b8161569e576000905061574c565b81600181146156b457600281146156be576156ed565b600191505061574c565b60ff8411156156d0576156cf6158e0565b5b8360020a9150848211156156e7576156e66158e0565b5b5061574c565b5060208310610133831016604e8410600b84101617156157225782820a90508381111561571d5761571c6158e0565b5b61574c565b61572f84848460016155e2565b92509050818404811115615746576157456158e0565b5b81810290505b9392505050565b600061575e82615829565b915061576983615829565b9250817fffffffffffffffffffffffffffffffffffffffffffffffffffffffffffffffff04831182151516156157a2576157a16158e0565b5b828202905092915050565b60006157b882615829565b91506157c383615829565b9250828210156157d6576157d56158e0565b5b828203905092915050565b60006157ec82615809565b9050919050565b60008115159050919050565b6000819050919050565b600073ffffffffffffffffffffffffffffffffffffffff82169050919050565b6000819050919050565b60005b83811015615851578082015181840152602081019050615836565b83811115615860576000848401525b50505050565b61586f8261596d565b810181811067ffffffffffffffff8211171561588e5761588d61593e565b5b80604052505050565b60006158a282615829565b91507fffffffffffffffffffffffffffffffffffffffffffffffffffffffffffffffff8214156158d5576158d46158e0565b5b600182019050919050565b7f4e487b7100000000000000000000000000000000000000000000000000000000600052601160045260246000fd5b7f4e487b7100000000000000000000000000000000000000000000000000000000600052601260045260246000fd5b7f4e487b7100000000000000000000000000000000000000000000000000000000600052604160045260246000fd5b6000601f19601f8301169050919050565b60008160011c9050919050565b7f696e6465784f75744f6652616e67650000000000000000000000000000000000600082015250565b7f746f74616c537570706c79203d20300000000000000000000000000000000000600082015250565b7f3e2062616c616e63650000000000000000000000000000000000000000000000600082015250565b7f696e76617269616e7443616c63756c6174696f6e4661696c6564000000000000600082015250565b7f73616d65546f6b656e0000000000000000000000000000000000000000000000600082015250565b7f416464726573733a20696e73756666696369656e742062616c616e636520666f60008201527f722063616c6c0000000000000000000000000000000000000000000000000000602082015250565b7f3e20746f74616c537570706c7900000000000000000000000000000000000000600082015250565b7f746f6b656e4e6f74466f756e6400000000000000000000000000000000000000600082015250565b7f416464726573733a2063616c6c20746f206e6f6e2d636f6e7472616374000000600082015250565b7f7943616c63756c6174696f6e4661696c65640000000000000000000000000000600082015250565b7f5361666545524332303a204552433230206f7065726174696f6e20646964206e60008201527f6f74207375636365656400000000000000000000000000000000000000000000602082015250565b7f43616e6e6f742065786365656420746f74616c20737570706c79000000000000600082015250565b7f696e76616c6964416d6f756e74734c656e677468000000000000000000000000600082015250565b7f3e20736c69707061676500000000000000000000000000000000000000000000600082015250565b7f696e697469616c4465706f73697452657175697265416c6c546f6b656e730000600082015250565b615c47816157e1565b8114615c5257600080fd5b50565b615c5e816157f3565b8114615c6957600080fd5b50565b615c75816157ff565b8114615c8057600080fd5b50565b615c8c81615829565b8114615c9757600080fd5b5056fea2646970667358221220abf3ec7b62533e1b85a3c7a6db3d7b01c2203db520480262bf59b31f3b4864f364736f6c63430008040033",
			"opcodes": "PUSH2 0x5CD0 PUSH3 0x54 PUSH1 0xB DUP3 DUP3 DUP3 CODECOPY DUP1 MLOAD PUSH1 0x0 BYTE PUSH1 0x73 EQ PUSH2 0x47 JUMPI PUSH32 0x4E487B7100000000000000000000000000000000000000000000000000000000 PUSH1 0x0 MSTORE PUSH1 0x0 PUSH1 0x4 MSTORE PUSH1 0x24 PUSH1 0x0 REVERT JUMPDEST ADDRESS PUSH1 0x0 MSTORE PUSH1 0x73 DUP2 MSTORE8 DUP3 DUP2 RETURN INVALID PUSH20 0x0 ADDRESS EQ PUSH1 0x80 PUSH1 0x40 MSTORE PUSH1 0x4 CALLDATASIZE LT PUSH2 0x115 JUMPI PUSH1 0x0 CALLDATALOAD PUSH1 0xE0 SHR DUP1 PUSH4 0xC188E4BE GT PUSH2 0xAC JUMPI DUP1 PUSH4 0xD011F918 GT PUSH2 0x7B JUMPI DUP1 PUSH4 0xD011F918 EQ PUSH2 0x382 JUMPI DUP1 PUSH4 0xD36604AC EQ PUSH2 0x3A0 JUMPI DUP1 PUSH4 0xD73792A9 EQ PUSH2 0x3D0 JUMPI DUP1 PUSH4 0xE2EBA89B EQ PUSH2 0x3EE JUMPI DUP1 PUSH4 0xFA563597 EQ PUSH2 0x41E JUMPI PUSH2 0x115 JUMP JUMPDEST DUP1 PUSH4 0xC188E4BE EQ PUSH2 0x2C1 JUMPI DUP1 PUSH4 0xC20AACE8 EQ PUSH2 0x2EA JUMPI DUP1 PUSH4 0xC685696C EQ PUSH2 0x308 JUMPI DUP1 PUSH4 0xC8344C06 EQ PUSH2 0x345 JUMPI PUSH2 0x115 JUMP JUMPDEST DUP1 PUSH4 0x7A6CBA3C GT PUSH2 0xE8 JUMPI DUP1 PUSH4 0x7A6CBA3C EQ PUSH2 0x1F4 JUMPI DUP1 PUSH4 0xA3035585 EQ PUSH2 0x231 JUMPI DUP1 PUSH4 0xB52E146F EQ PUSH2 0x261 JUMPI DUP1 PUSH4 0xBA2998D9 EQ PUSH2 0x291 JUMPI PUSH2 0x115 JUMP JUMPDEST DUP1 PUSH4 0x159763BB EQ PUSH2 0x11A JUMPI DUP1 PUSH4 0x1E7E95D3 EQ PUSH2 0x14A JUMPI DUP1 PUSH4 0x2BFE30D0 EQ PUSH2 0x17A JUMPI DUP1 PUSH4 0x6E9B505D EQ PUSH2 0x1B7 JUMPI JUMPDEST PUSH1 0x0 DUP1 REVERT JUMPDEST PUSH2 0x134 PUSH1 0x4 DUP1 CALLDATASIZE SUB DUP2 ADD SWAP1 PUSH2 0x12F SWAP2 SWAP1 PUSH2 0x4A24 JUMP JUMPDEST PUSH2 0x44E JUMP JUMPDEST PUSH1 0x40 MLOAD PUSH2 0x141 SWAP2 SWAP1 PUSH2 0x53F7 JUMP JUMPDEST PUSH1 0x40 MLOAD DUP1 SWAP2 SUB SWAP1 RETURN JUMPDEST PUSH2 0x164 PUSH1 0x4 DUP1 CALLDATASIZE SUB DUP2 ADD SWAP1 PUSH2 0x15F SWAP2 SWAP1 PUSH2 0x4A87 JUMP JUMPDEST PUSH2 0x469 JUMP JUMPDEST PUSH1 0x40 MLOAD PUSH2 0x171 SWAP2 SWAP1 PUSH2 0x53F7 JUMP JUMPDEST PUSH1 0x40 MLOAD DUP1 SWAP2 SUB SWAP1 RETURN JUMPDEST DUP2 DUP1 ISZERO PUSH2 0x186 JUMPI PUSH1 0x0 DUP1 REVERT JUMPDEST POP PUSH2 0x1A1 PUSH1 0x4 DUP1 CALLDATASIZE SUB DUP2 ADD SWAP1 PUSH2 0x19C SWAP2 SWAP1 PUSH2 0x4BF8 JUMP JUMPDEST PUSH2 0x89E JUMP JUMPDEST PUSH1 0x40 MLOAD PUSH2 0x1AE SWAP2 SWAP1 PUSH2 0x53F7 JUMP JUMPDEST PUSH1 0x40 MLOAD DUP1 SWAP2 SUB SWAP1 RETURN JUMPDEST DUP2 DUP1 ISZERO PUSH2 0x1C3 JUMPI PUSH1 0x0 DUP1 REVERT JUMPDEST POP PUSH2 0x1DE PUSH1 0x4 DUP1 CALLDATASIZE SUB DUP2 ADD SWAP1 PUSH2 0x1D9 SWAP2 SWAP1 PUSH2 0x4C5B JUMP JUMPDEST PUSH2 0xD6C JUMP JUMPDEST PUSH1 0x40 MLOAD PUSH2 0x1EB SWAP2 SWAP1 PUSH2 0x53F7 JUMP JUMPDEST PUSH1 0x40 MLOAD DUP1 SWAP2 SUB SWAP1 RETURN JUMPDEST DUP2 DUP1 ISZERO PUSH2 0x200 JUMPI PUSH1 0x0 DUP1 REVERT JUMPDEST POP PUSH2 0x21B PUSH1 0x4 DUP1 CALLDATASIZE SUB DUP2 ADD SWAP1 PUSH2 0x216 SWAP2 SWAP1 PUSH2 0x4AEE JUMP JUMPDEST PUSH2 0x11F7 JUMP JUMPDEST PUSH1 0x40 MLOAD PUSH2 0x228 SWAP2 SWAP1 PUSH2 0x53F7 JUMP JUMPDEST PUSH1 0x40 MLOAD DUP1 SWAP2 SUB SWAP1 RETURN JUMPDEST PUSH2 0x24B PUSH1 0x4 DUP1 CALLDATASIZE SUB DUP2 ADD SWAP1 PUSH2 0x246 SWAP2 SWAP1 PUSH2 0x49AC JUMP JUMPDEST PUSH2 0x1B85 JUMP JUMPDEST PUSH1 0x40 MLOAD PUSH2 0x258 SWAP2 SWAP1 PUSH2 0x53F7 JUMP JUMPDEST PUSH1 0x40 MLOAD DUP1 SWAP2 SUB SWAP1 RETURN JUMPDEST PUSH2 0x27B PUSH1 0x4 DUP1 CALLDATASIZE SUB DUP2 ADD SWAP1 PUSH2 0x276 SWAP2 SWAP1 PUSH2 0x49AC JUMP JUMPDEST PUSH2 0x1B97 JUMP JUMPDEST PUSH1 0x40 MLOAD PUSH2 0x288 SWAP2 SWAP1 PUSH2 0x53F7 JUMP JUMPDEST PUSH1 0x40 MLOAD DUP1 SWAP2 SUB SWAP1 RETURN JUMPDEST PUSH2 0x2AB PUSH1 0x4 DUP1 CALLDATASIZE SUB DUP2 ADD SWAP1 PUSH2 0x2A6 SWAP2 SWAP1 PUSH2 0x4BF8 JUMP JUMPDEST PUSH2 0x1BB5 JUMP JUMPDEST PUSH1 0x40 MLOAD PUSH2 0x2B8 SWAP2 SWAP1 PUSH2 0x53F7 JUMP JUMPDEST PUSH1 0x40 MLOAD DUP1 SWAP2 SUB SWAP1 RETURN JUMPDEST DUP2 DUP1 ISZERO PUSH2 0x2CD JUMPI PUSH1 0x0 DUP1 REVERT JUMPDEST POP PUSH2 0x2E8 PUSH1 0x4 DUP1 CALLDATASIZE SUB DUP2 ADD SWAP1 PUSH2 0x2E3 SWAP2 SWAP1 PUSH2 0x49D5 JUMP JUMPDEST PUSH2 0x1D61 JUMP JUMPDEST STOP JUMPDEST PUSH2 0x2F2 PUSH2 0x1D71 JUMP JUMPDEST PUSH1 0x40 MLOAD PUSH2 0x2FF SWAP2 SWAP1 PUSH2 0x53F7 JUMP JUMPDEST PUSH1 0x40 MLOAD DUP1 SWAP2 SUB SWAP1 RETURN JUMPDEST DUP2 DUP1 ISZERO PUSH2 0x314 JUMPI PUSH1 0x0 DUP1 REVERT JUMPDEST POP PUSH2 0x32F PUSH1 0x4 DUP1 CALLDATASIZE SUB DUP2 ADD SWAP1 PUSH2 0x32A SWAP2 SWAP1 PUSH2 0x4B91 JUMP JUMPDEST PUSH2 0x1D76 JUMP JUMPDEST PUSH1 0x40 MLOAD PUSH2 0x33C SWAP2 SWAP1 PUSH2 0x513B JUMP JUMPDEST PUSH1 0x40 MLOAD DUP1 SWAP2 SUB SWAP1 RETURN JUMPDEST DUP2 DUP1 ISZERO PUSH2 0x351 JUMPI PUSH1 0x0 DUP1 REVERT JUMPDEST POP PUSH2 0x36C PUSH1 0x4 DUP1 CALLDATASIZE SUB DUP2 ADD SWAP1 PUSH2 0x367 SWAP2 SWAP1 PUSH2 0x4AEE JUMP JUMPDEST PUSH2 0x223F JUMP JUMPDEST PUSH1 0x40 MLOAD PUSH2 0x379 SWAP2 SWAP1 PUSH2 0x53F7 JUMP JUMPDEST PUSH1 0x40 MLOAD DUP1 SWAP2 SUB SWAP1 RETURN JUMPDEST PUSH2 0x38A PUSH2 0x2BBB JUMP JUMPDEST PUSH1 0x40 MLOAD PUSH2 0x397 SWAP2 SWAP1 PUSH2 0x53F7 JUMP JUMPDEST PUSH1 0x40 MLOAD DUP1 SWAP2 SUB SWAP1 RETURN JUMPDEST PUSH2 0x3BA PUSH1 0x4 DUP1 CALLDATASIZE SUB DUP2 ADD SWAP1 PUSH2 0x3B5 SWAP2 SWAP1 PUSH2 0x49AC JUMP JUMPDEST PUSH2 0x2BC0 JUMP JUMPDEST PUSH1 0x40 MLOAD PUSH2 0x3C7 SWAP2 SWAP1 PUSH2 0x53F7 JUMP JUMPDEST PUSH1 0x40 MLOAD DUP1 SWAP2 SUB SWAP1 RETURN JUMPDEST PUSH2 0x3D8 PUSH2 0x2CB2 JUMP JUMPDEST PUSH1 0x40 MLOAD PUSH2 0x3E5 SWAP2 SWAP1 PUSH2 0x53F7 JUMP JUMPDEST PUSH1 0x40 MLOAD DUP1 SWAP2 SUB SWAP1 RETURN JUMPDEST PUSH2 0x408 PUSH1 0x4 DUP1 CALLDATASIZE SUB DUP2 ADD SWAP1 PUSH2 0x403 SWAP2 SWAP1 PUSH2 0x4B55 JUMP JUMPDEST PUSH2 0x2CBB JUMP JUMPDEST PUSH1 0x40 MLOAD PUSH2 0x415 SWAP2 SWAP1 PUSH2 0x53F7 JUMP JUMPDEST PUSH1 0x40 MLOAD DUP1 SWAP2 SUB SWAP1 RETURN JUMPDEST PUSH2 0x438 PUSH1 0x4 DUP1 CALLDATASIZE SUB DUP2 ADD SWAP1 PUSH2 0x433 SWAP2 SWAP1 PUSH2 0x49D5 JUMP JUMPDEST PUSH2 0x2E4E JUMP JUMPDEST PUSH1 0x40 MLOAD PUSH2 0x445 SWAP2 SWAP1 PUSH2 0x513B JUMP JUMPDEST PUSH1 0x40 MLOAD DUP1 SWAP2 SUB SWAP1 RETURN JUMPDEST PUSH1 0x0 PUSH2 0x45C DUP6 DUP6 DUP6 DUP6 PUSH2 0x2E64 JUMP JUMPDEST POP DUP1 SWAP2 POP POP SWAP5 SWAP4 POP POP POP POP JUMP JUMPDEST PUSH1 0x0 DUP1 DUP5 PUSH1 0x0 ADD DUP1 SLOAD SWAP1 POP SWAP1 POP DUP1 DUP5 MLOAD EQ PUSH2 0x4B9 JUMPI PUSH1 0x40 MLOAD PUSH32 0x8C379A000000000000000000000000000000000000000000000000000000000 DUP2 MSTORE PUSH1 0x4 ADD PUSH2 0x4B0 SWAP1 PUSH2 0x5397 JUMP JUMPDEST PUSH1 0x40 MLOAD DUP1 SWAP2 SUB SWAP1 REVERT JUMPDEST PUSH1 0x0 PUSH2 0x4C4 DUP7 PUSH2 0x331C JUMP JUMPDEST SWAP1 POP PUSH1 0x0 PUSH2 0x4DA PUSH2 0x4D4 DUP9 PUSH2 0x340A JUMP JUMPDEST DUP4 PUSH2 0x34C1 JUMP JUMPDEST SWAP1 POP PUSH1 0x0 DUP8 PUSH1 0x3 ADD DUP1 SLOAD DUP1 PUSH1 0x20 MUL PUSH1 0x20 ADD PUSH1 0x40 MLOAD SWAP1 DUP2 ADD PUSH1 0x40 MSTORE DUP1 SWAP3 SWAP2 SWAP1 DUP2 DUP2 MSTORE PUSH1 0x20 ADD DUP3 DUP1 SLOAD DUP1 ISZERO PUSH2 0x52C JUMPI PUSH1 0x20 MUL DUP3 ADD SWAP2 SWAP1 PUSH1 0x0 MSTORE PUSH1 0x20 PUSH1 0x0 KECCAK256 SWAP1 JUMPDEST DUP2 SLOAD DUP2 MSTORE PUSH1 0x20 ADD SWAP1 PUSH1 0x1 ADD SWAP1 DUP1 DUP4 GT PUSH2 0x518 JUMPI JUMPDEST POP POP POP POP POP SWAP1 POP PUSH1 0x0 JUMPDEST DUP5 DUP2 LT ISZERO PUSH2 0x687 JUMPI DUP7 ISZERO PUSH2 0x5DE JUMPI DUP8 DUP2 DUP2 MLOAD DUP2 LT PUSH2 0x57D JUMPI PUSH32 0x4E487B7100000000000000000000000000000000000000000000000000000000 PUSH1 0x0 MSTORE PUSH1 0x32 PUSH1 0x4 MSTORE PUSH1 0x24 PUSH1 0x0 REVERT JUMPDEST PUSH1 0x20 MUL PUSH1 0x20 ADD ADD MLOAD DUP3 DUP3 DUP2 MLOAD DUP2 LT PUSH2 0x5BE JUMPI PUSH32 0x4E487B7100000000000000000000000000000000000000000000000000000000 PUSH1 0x0 MSTORE PUSH1 0x32 PUSH1 0x4 MSTORE PUSH1 0x24 PUSH1 0x0 REVERT JUMPDEST PUSH1 0x20 MUL PUSH1 0x20 ADD ADD DUP2 DUP2 MLOAD PUSH2 0x5D2 SWAP2 SWAP1 PUSH2 0x555B JUMP JUMPDEST SWAP2 POP DUP2 DUP2 MSTORE POP POP PUSH2 0x674 JUMP JUMPDEST DUP8 DUP2 DUP2 MLOAD DUP2 LT PUSH2 0x617 JUMPI PUSH32 0x4E487B7100000000000000000000000000000000000000000000000000000000 PUSH1 0x0 MSTORE PUSH1 0x32 PUSH1 0x4 MSTORE PUSH1 0x24 PUSH1 0x0 REVERT JUMPDEST PUSH1 0x20 MUL PUSH1 0x20 ADD ADD MLOAD DUP3 DUP3 DUP2 MLOAD DUP2 LT PUSH2 0x658 JUMPI PUSH32 0x4E487B7100000000000000000000000000000000000000000000000000000000 PUSH1 0x0 MSTORE PUSH1 0x32 PUSH1 0x4 MSTORE PUSH1 0x24 PUSH1 0x0 REVERT JUMPDEST PUSH1 0x20 MUL PUSH1 0x20 ADD ADD DUP2 DUP2 MLOAD PUSH2 0x66C SWAP2 SWAP1 PUSH2 0x57AD JUMP JUMPDEST SWAP2 POP DUP2 DUP2 MSTORE POP POP JUMPDEST DUP1 DUP1 PUSH2 0x67F SWAP1 PUSH2 0x5897 JUMP JUMPDEST SWAP2 POP POP PUSH2 0x536 JUMP JUMPDEST POP PUSH1 0x0 PUSH2 0x6EF PUSH2 0x6E9 DUP4 DUP12 PUSH1 0x2 ADD DUP1 SLOAD DUP1 PUSH1 0x20 MUL PUSH1 0x20 ADD PUSH1 0x40 MLOAD SWAP1 DUP2 ADD PUSH1 0x40 MSTORE DUP1 SWAP3 SWAP2 SWAP1 DUP2 DUP2 MSTORE PUSH1 0x20 ADD DUP3 DUP1 SLOAD DUP1 ISZERO PUSH2 0x6DF JUMPI PUSH1 0x20 MUL DUP3 ADD SWAP2 SWAP1 PUSH1 0x0 MSTORE PUSH1 0x20 PUSH1 0x0 KECCAK256 SWAP1 JUMPDEST DUP2 SLOAD DUP2 MSTORE PUSH1 0x20 ADD SWAP1 PUSH1 0x1 ADD SWAP1 DUP1 DUP4 GT PUSH2 0x6CB JUMPI JUMPDEST POP POP POP POP POP PUSH2 0x3699 JUMP JUMPDEST DUP6 PUSH2 0x34C1 JUMP JUMPDEST SWAP1 POP PUSH1 0x0 DUP10 PUSH1 0x1 ADD PUSH1 0x0 SWAP1 SLOAD SWAP1 PUSH2 0x100 EXP SWAP1 DIV PUSH20 0xFFFFFFFFFFFFFFFFFFFFFFFFFFFFFFFFFFFFFFFF AND PUSH20 0xFFFFFFFFFFFFFFFFFFFFFFFFFFFFFFFFFFFFFFFF AND PUSH4 0x18160DDD PUSH1 0x40 MLOAD DUP2 PUSH4 0xFFFFFFFF AND PUSH1 0xE0 SHL DUP2 MSTORE PUSH1 0x4 ADD PUSH1 0x20 PUSH1 0x40 MLOAD DUP1 DUP4 SUB DUP2 DUP7 DUP1 EXTCODESIZE ISZERO DUP1 ISZERO PUSH2 0x75D JUMPI PUSH1 0x0 DUP1 REVERT JUMPDEST POP GAS STATICCALL ISZERO DUP1 ISZERO PUSH2 0x771 JUMPI RETURNDATASIZE PUSH1 0x0 DUP1 RETURNDATACOPY RETURNDATASIZE PUSH1 0x0 REVERT JUMPDEST POP POP POP POP PUSH1 0x40 MLOAD RETURNDATASIZE PUSH1 0x1F NOT PUSH1 0x1F DUP3 ADD AND DUP3 ADD DUP1 PUSH1 0x40 MSTORE POP DUP2 ADD SWAP1 PUSH2 0x795 SWAP2 SWAP1 PUSH2 0x4CD2 JUMP JUMPDEST SWAP1 POP PUSH1 0x0 DUP2 EQ ISZERO PUSH2 0x7AE JUMPI DUP2 SWAP7 POP POP POP POP POP POP POP PUSH2 0x897 JUMP JUMPDEST PUSH1 0x0 DUP9 PUSH2 0x7C6 JUMPI DUP3 DUP6 PUSH2 0x7C1 SWAP2 SWAP1 PUSH2 0x57AD JUMP JUMPDEST PUSH2 0x7D3 JUMP JUMPDEST DUP5 DUP4 PUSH2 0x7D2 SWAP2 SWAP1 PUSH2 0x57AD JUMP JUMPDEST JUMPDEST SWAP1 POP DUP5 DUP12 PUSH1 0x1 ADD PUSH1 0x0 SWAP1 SLOAD SWAP1 PUSH2 0x100 EXP SWAP1 DIV PUSH20 0xFFFFFFFFFFFFFFFFFFFFFFFFFFFFFFFFFFFFFFFF AND PUSH20 0xFFFFFFFFFFFFFFFFFFFFFFFFFFFFFFFFFFFFFFFF AND PUSH4 0x18160DDD PUSH1 0x40 MLOAD DUP2 PUSH4 0xFFFFFFFF AND PUSH1 0xE0 SHL DUP2 MSTORE PUSH1 0x4 ADD PUSH1 0x20 PUSH1 0x40 MLOAD DUP1 DUP4 SUB DUP2 DUP7 DUP1 EXTCODESIZE ISZERO DUP1 ISZERO PUSH2 0x840 JUMPI PUSH1 0x0 DUP1 REVERT JUMPDEST POP GAS STATICCALL ISZERO DUP1 ISZERO PUSH2 0x854 JUMPI RETURNDATASIZE PUSH1 0x0 DUP1 RETURNDATACOPY RETURNDATASIZE PUSH1 0x0 REVERT JUMPDEST POP POP POP POP PUSH1 0x40 MLOAD RETURNDATASIZE PUSH1 0x1F NOT PUSH1 0x1F DUP3 ADD AND DUP3 ADD DUP1 PUSH1 0x40 MSTORE POP DUP2 ADD SWAP1 PUSH2 0x878 SWAP2 SWAP1 PUSH2 0x4CD2 JUMP JUMPDEST DUP3 PUSH2 0x883 SWAP2 SWAP1 PUSH2 0x5753 JUMP JUMPDEST PUSH2 0x88D SWAP2 SWAP1 PUSH2 0x55B1 JUMP JUMPDEST SWAP8 POP POP POP POP POP POP POP POP JUMPDEST SWAP4 SWAP3 POP POP POP JUMP JUMPDEST PUSH1 0x0 DUP1 DUP6 PUSH1 0x1 ADD PUSH1 0x0 SWAP1 SLOAD SWAP1 PUSH2 0x100 EXP SWAP1 DIV PUSH20 0xFFFFFFFFFFFFFFFFFFFFFFFFFFFFFFFFFFFFFFFF AND PUSH20 0xFFFFFFFFFFFFFFFFFFFFFFFFFFFFFFFFFFFFFFFF AND PUSH4 0x18160DDD PUSH1 0x40 MLOAD DUP2 PUSH4 0xFFFFFFFF AND PUSH1 0xE0 SHL DUP2 MSTORE PUSH1 0x4 ADD PUSH1 0x20 PUSH1 0x40 MLOAD DUP1 DUP4 SUB DUP2 DUP7 DUP1 EXTCODESIZE ISZERO DUP1 ISZERO PUSH2 0x90B JUMPI PUSH1 0x0 DUP1 REVERT JUMPDEST POP GAS STATICCALL ISZERO DUP1 ISZERO PUSH2 0x91F JUMPI RETURNDATASIZE PUSH1 0x0 DUP1 RETURNDATACOPY RETURNDATASIZE PUSH1 0x0 REVERT JUMPDEST POP POP POP POP PUSH1 0x40 MLOAD RETURNDATASIZE PUSH1 0x1F NOT PUSH1 0x1F DUP3 ADD AND DUP3 ADD DUP1 PUSH1 0x40 MSTORE POP DUP2 ADD SWAP1 PUSH2 0x943 SWAP2 SWAP1 PUSH2 0x4CD2 JUMP JUMPDEST SWAP1 POP PUSH1 0x0 DUP2 GT PUSH2 0x988 JUMPI PUSH1 0x40 MLOAD PUSH32 0x8C379A000000000000000000000000000000000000000000000000000000000 DUP2 MSTORE PUSH1 0x4 ADD PUSH2 0x97F SWAP1 PUSH2 0x5237 JUMP JUMPDEST PUSH1 0x40 MLOAD DUP1 SWAP2 SUB SWAP1 REVERT JUMPDEST PUSH1 0x0 DUP7 PUSH1 0x0 ADD DUP1 SLOAD SWAP1 POP SWAP1 POP DUP7 PUSH1 0x1 ADD PUSH1 0x0 SWAP1 SLOAD SWAP1 PUSH2 0x100 EXP SWAP1 DIV PUSH20 0xFFFFFFFFFFFFFFFFFFFFFFFFFFFFFFFFFFFFFFFF AND PUSH20 0xFFFFFFFFFFFFFFFFFFFFFFFFFFFFFFFFFFFFFFFF AND PUSH4 0x70A08231 CALLER PUSH1 0x40 MLOAD DUP3 PUSH4 0xFFFFFFFF AND PUSH1 0xE0 SHL DUP2 MSTORE PUSH1 0x4 ADD PUSH2 0x9F1 SWAP2 SWAP1 PUSH2 0x50C0 JUMP JUMPDEST PUSH1 0x20 PUSH1 0x40 MLOAD DUP1 DUP4 SUB DUP2 DUP7 DUP1 EXTCODESIZE ISZERO DUP1 ISZERO PUSH2 0xA09 JUMPI PUSH1 0x0 DUP1 REVERT JUMPDEST POP GAS STATICCALL ISZERO DUP1 ISZERO PUSH2 0xA1D JUMPI RETURNDATASIZE PUSH1 0x0 DUP1 RETURNDATACOPY RETURNDATASIZE PUSH1 0x0 REVERT JUMPDEST POP POP POP POP PUSH1 0x40 MLOAD RETURNDATASIZE PUSH1 0x1F NOT PUSH1 0x1F DUP3 ADD AND DUP3 ADD DUP1 PUSH1 0x40 MSTORE POP DUP2 ADD SWAP1 PUSH2 0xA41 SWAP2 SWAP1 PUSH2 0x4CD2 JUMP JUMPDEST DUP7 GT ISZERO PUSH2 0xA83 JUMPI PUSH1 0x40 MLOAD PUSH32 0x8C379A000000000000000000000000000000000000000000000000000000000 DUP2 MSTORE PUSH1 0x4 ADD PUSH2 0xA7A SWAP1 PUSH2 0x5257 JUMP JUMPDEST PUSH1 0x40 MLOAD DUP1 SWAP2 SUB SWAP1 REVERT JUMPDEST DUP2 DUP7 GT ISZERO PUSH2 0xAC6 JUMPI PUSH1 0x40 MLOAD PUSH32 0x8C379A000000000000000000000000000000000000000000000000000000000 DUP2 MSTORE PUSH1 0x4 ADD PUSH2 0xABD SWAP1 PUSH2 0x52D7 JUMP JUMPDEST PUSH1 0x40 MLOAD DUP1 SWAP2 SUB SWAP1 REVERT JUMPDEST DUP1 DUP6 LT PUSH2 0xB08 JUMPI PUSH1 0x40 MLOAD PUSH32 0x8C379A000000000000000000000000000000000000000000000000000000000 DUP2 MSTORE PUSH1 0x4 ADD PUSH2 0xAFF SWAP1 PUSH2 0x52F7 JUMP JUMPDEST PUSH1 0x40 MLOAD DUP1 SWAP2 SUB SWAP1 REVERT JUMPDEST PUSH1 0x0 DUP1 PUSH2 0xB17 DUP10 CALLER DUP11 DUP11 PUSH2 0x2E64 JUMP JUMPDEST DUP1 SWAP4 POP DUP2 SWAP3 POP POP POP DUP6 DUP2 LT ISZERO PUSH2 0xB62 JUMPI PUSH1 0x40 MLOAD PUSH32 0x8C379A000000000000000000000000000000000000000000000000000000000 DUP2 MSTORE PUSH1 0x4 ADD PUSH2 0xB59 SWAP1 PUSH2 0x53B7 JUMP JUMPDEST PUSH1 0x40 MLOAD DUP1 SWAP2 SUB SWAP1 REVERT JUMPDEST PUSH5 0x2540BE400 DUP10 PUSH1 0x5 ADD SLOAD DUP4 PUSH2 0xB78 SWAP2 SWAP1 PUSH2 0x5753 JUMP JUMPDEST PUSH2 0xB82 SWAP2 SWAP1 PUSH2 0x55B1 JUMP JUMPDEST DUP2 PUSH2 0xB8D SWAP2 SWAP1 PUSH2 0x555B JUMP JUMPDEST DUP10 PUSH1 0x3 ADD DUP9 DUP2 SLOAD DUP2 LT PUSH2 0xBC9 JUMPI PUSH32 0x4E487B7100000000000000000000000000000000000000000000000000000000 PUSH1 0x0 MSTORE PUSH1 0x32 PUSH1 0x4 MSTORE PUSH1 0x24 PUSH1 0x0 REVERT JUMPDEST SWAP1 PUSH1 0x0 MSTORE PUSH1 0x20 PUSH1 0x0 KECCAK256 ADD PUSH1 0x0 DUP3 DUP3 SLOAD PUSH2 0xBE2 SWAP2 SWAP1 PUSH2 0x57AD JUMP JUMPDEST SWAP3 POP POP DUP2 SWAP1 SSTORE POP DUP9 PUSH1 0x1 ADD PUSH1 0x0 SWAP1 SLOAD SWAP1 PUSH2 0x100 EXP SWAP1 DIV PUSH20 0xFFFFFFFFFFFFFFFFFFFFFFFFFFFFFFFFFFFFFFFF AND PUSH20 0xFFFFFFFFFFFFFFFFFFFFFFFFFFFFFFFFFFFFFFFF AND PUSH4 0x79CC6790 CALLER DUP11 PUSH1 0x40 MLOAD DUP4 PUSH4 0xFFFFFFFF AND PUSH1 0xE0 SHL DUP2 MSTORE PUSH1 0x4 ADD PUSH2 0xC48 SWAP3 SWAP2 SWAP1 PUSH2 0x5112 JUMP JUMPDEST PUSH1 0x0 PUSH1 0x40 MLOAD DUP1 DUP4 SUB DUP2 PUSH1 0x0 DUP8 DUP1 EXTCODESIZE ISZERO DUP1 ISZERO PUSH2 0xC62 JUMPI PUSH1 0x0 DUP1 REVERT JUMPDEST POP GAS CALL ISZERO DUP1 ISZERO PUSH2 0xC76 JUMPI RETURNDATASIZE PUSH1 0x0 DUP1 RETURNDATACOPY RETURNDATASIZE PUSH1 0x0 REVERT JUMPDEST POP POP POP POP PUSH2 0xD0B CALLER DUP3 DUP12 PUSH1 0x0 ADD DUP11 DUP2 SLOAD DUP2 LT PUSH2 0xCBB JUMPI PUSH32 0x4E487B7100000000000000000000000000000000000000000000000000000000 PUSH1 0x0 MSTORE PUSH1 0x32 PUSH1 0x4 MSTORE PUSH1 0x24 PUSH1 0x0 REVERT JUMPDEST SWAP1 PUSH1 0x0 MSTORE PUSH1 0x20 PUSH1 0x0 KECCAK256 ADD PUSH1 0x0 SWAP1 SLOAD SWAP1 PUSH2 0x100 EXP SWAP1 DIV PUSH20 0xFFFFFFFFFFFFFFFFFFFFFFFFFFFFFFFFFFFFFFFF AND PUSH20 0xFFFFFFFFFFFFFFFFFFFFFFFFFFFFFFFFFFFFFFFF AND PUSH2 0x3795 SWAP1 SWAP3 SWAP2 SWAP1 PUSH4 0xFFFFFFFF AND JUMP JUMPDEST CALLER PUSH20 0xFFFFFFFFFFFFFFFFFFFFFFFFFFFFFFFFFFFFFFFF AND PUSH32 0x5AD056F2E28A8CEC232015406B843668C1E36CDA598127EC3B8C59B8C72773A0 DUP9 DUP11 DUP5 PUSH1 0x40 MLOAD PUSH2 0xD55 SWAP4 SWAP3 SWAP2 SWAP1 PUSH2 0x5412 JUMP JUMPDEST PUSH1 0x40 MLOAD DUP1 SWAP2 SUB SWAP1 LOG2 DUP1 SWAP5 POP POP POP POP POP SWAP5 SWAP4 POP POP POP POP JUMP JUMPDEST PUSH1 0x0 DUP1 DUP7 PUSH1 0x0 ADD DUP7 DUP2 SLOAD DUP2 LT PUSH2 0xDAB JUMPI PUSH32 0x4E487B7100000000000000000000000000000000000000000000000000000000 PUSH1 0x0 MSTORE PUSH1 0x32 PUSH1 0x4 MSTORE PUSH1 0x24 PUSH1 0x0 REVERT JUMPDEST SWAP1 PUSH1 0x0 MSTORE PUSH1 0x20 PUSH1 0x0 KECCAK256 ADD PUSH1 0x0 SWAP1 SLOAD SWAP1 PUSH2 0x100 EXP SWAP1 DIV PUSH20 0xFFFFFFFFFFFFFFFFFFFFFFFFFFFFFFFFFFFFFFFF AND SWAP1 POP PUSH1 0x0 PUSH2 0xDE3 DUP9 PUSH2 0x340A JUMP JUMPDEST SWAP1 POP PUSH2 0xDEF DUP3 DUP7 PUSH2 0x381B JUMP JUMPDEST SWAP5 POP PUSH1 0x0 DUP9 PUSH1 0x2 ADD DUP9 DUP2 SLOAD DUP2 LT PUSH2 0xE2F JUMPI PUSH32 0x4E487B7100000000000000000000000000000000000000000000000000000000 PUSH1 0x0 MSTORE PUSH1 0x32 PUSH1 0x4 MSTORE PUSH1 0x24 PUSH1 0x0 REVERT JUMPDEST SWAP1 PUSH1 0x0 MSTORE PUSH1 0x20 PUSH1 0x0 KECCAK256 ADD SLOAD DUP7 PUSH2 0xE45 SWAP2 SWAP1 PUSH2 0x5753 JUMP JUMPDEST DUP3 DUP10 DUP2 MLOAD DUP2 LT PUSH2 0xE7E JUMPI PUSH32 0x4E487B7100000000000000000000000000000000000000000000000000000000 PUSH1 0x0 MSTORE PUSH1 0x32 PUSH1 0x4 MSTORE PUSH1 0x24 PUSH1 0x0 REVERT JUMPDEST PUSH1 0x20 MUL PUSH1 0x20 ADD ADD MLOAD PUSH2 0xE90 SWAP2 SWAP1 PUSH2 0x555B JUMP JUMPDEST SWAP1 POP PUSH1 0x0 PUSH2 0xEA1 DUP11 DUP11 DUP11 DUP6 DUP8 PUSH2 0x3973 JUMP JUMPDEST SWAP1 POP PUSH1 0x0 PUSH1 0x1 DUP3 DUP6 DUP12 DUP2 MLOAD DUP2 LT PUSH2 0xEE1 JUMPI PUSH32 0x4E487B7100000000000000000000000000000000000000000000000000000000 PUSH1 0x0 MSTORE PUSH1 0x32 PUSH1 0x4 MSTORE PUSH1 0x24 PUSH1 0x0 REVERT JUMPDEST PUSH1 0x20 MUL PUSH1 0x20 ADD ADD MLOAD PUSH2 0xEF3 SWAP2 SWAP1 PUSH2 0x57AD JUMP JUMPDEST PUSH2 0xEFD SWAP2 SWAP1 PUSH2 0x57AD JUMP JUMPDEST SWAP1 POP PUSH1 0x0 PUSH5 0x2540BE400 DUP13 PUSH1 0x4 ADD SLOAD DUP4 PUSH2 0xF17 SWAP2 SWAP1 PUSH2 0x5753 JUMP JUMPDEST PUSH2 0xF21 SWAP2 SWAP1 PUSH2 0x55B1 JUMP JUMPDEST SWAP1 POP DUP12 PUSH1 0x2 ADD DUP11 DUP2 SLOAD DUP2 LT PUSH2 0xF5F JUMPI PUSH32 0x4E487B7100000000000000000000000000000000000000000000000000000000 PUSH1 0x0 MSTORE PUSH1 0x32 PUSH1 0x4 MSTORE PUSH1 0x24 PUSH1 0x0 REVERT JUMPDEST SWAP1 PUSH1 0x0 MSTORE PUSH1 0x20 PUSH1 0x0 KECCAK256 ADD SLOAD DUP2 DUP4 PUSH2 0xF76 SWAP2 SWAP1 PUSH2 0x57AD JUMP JUMPDEST PUSH2 0xF80 SWAP2 SWAP1 PUSH2 0x55B1 JUMP JUMPDEST SWAP2 POP DUP8 DUP3 LT ISZERO PUSH2 0xFC5 JUMPI PUSH1 0x40 MLOAD PUSH32 0x8C379A000000000000000000000000000000000000000000000000000000000 DUP2 MSTORE PUSH1 0x4 ADD PUSH2 0xFBC SWAP1 PUSH2 0x53B7 JUMP JUMPDEST PUSH1 0x40 MLOAD DUP1 SWAP2 SUB SWAP1 REVERT JUMPDEST PUSH1 0x0 DUP13 PUSH1 0x2 ADD DUP12 DUP2 SLOAD DUP2 LT PUSH2 0x1003 JUMPI PUSH32 0x4E487B7100000000000000000000000000000000000000000000000000000000 PUSH1 0x0 MSTORE PUSH1 0x32 PUSH1 0x4 MSTORE PUSH1 0x24 PUSH1 0x0 REVERT JUMPDEST SWAP1 PUSH1 0x0 MSTORE PUSH1 0x20 PUSH1 0x0 KECCAK256 ADD SLOAD PUSH5 0x2540BE400 DUP15 PUSH1 0x5 ADD SLOAD DUP5 PUSH2 0x1024 SWAP2 SWAP1 PUSH2 0x5753 JUMP JUMPDEST PUSH2 0x102E SWAP2 SWAP1 PUSH2 0x55B1 JUMP JUMPDEST PUSH2 0x1038 SWAP2 SWAP1 PUSH2 0x55B1 JUMP JUMPDEST SWAP1 POP DUP10 DUP14 PUSH1 0x3 ADD DUP14 DUP2 SLOAD DUP2 LT PUSH2 0x1077 JUMPI PUSH32 0x4E487B7100000000000000000000000000000000000000000000000000000000 PUSH1 0x0 MSTORE PUSH1 0x32 PUSH1 0x4 MSTORE PUSH1 0x24 PUSH1 0x0 REVERT JUMPDEST SWAP1 PUSH1 0x0 MSTORE PUSH1 0x20 PUSH1 0x0 KECCAK256 ADD PUSH1 0x0 DUP3 DUP3 SLOAD PUSH2 0x1090 SWAP2 SWAP1 PUSH2 0x555B JUMP JUMPDEST SWAP3 POP POP DUP2 SWAP1 SSTORE POP DUP1 DUP4 PUSH2 0x10A3 SWAP2 SWAP1 PUSH2 0x555B JUMP JUMPDEST DUP14 PUSH1 0x3 ADD DUP13 DUP2 SLOAD DUP2 LT PUSH2 0x10DF JUMPI PUSH32 0x4E487B7100000000000000000000000000000000000000000000000000000000 PUSH1 0x0 MSTORE PUSH1 0x32 PUSH1 0x4 MSTORE PUSH1 0x24 PUSH1 0x0 REVERT JUMPDEST SWAP1 PUSH1 0x0 MSTORE PUSH1 0x20 PUSH1 0x0 KECCAK256 ADD PUSH1 0x0 DUP3 DUP3 SLOAD PUSH2 0x10F8 SWAP2 SWAP1 PUSH2 0x57AD JUMP JUMPDEST SWAP3 POP POP DUP2 SWAP1 SSTORE POP PUSH2 0x1190 CALLER DUP5 DUP16 PUSH1 0x0 ADD DUP15 DUP2 SLOAD DUP2 LT PUSH2 0x1140 JUMPI PUSH32 0x4E487B7100000000000000000000000000000000000000000000000000000000 PUSH1 0x0 MSTORE PUSH1 0x32 PUSH1 0x4 MSTORE PUSH1 0x24 PUSH1 0x0 REVERT JUMPDEST SWAP1 PUSH1 0x0 MSTORE PUSH1 0x20 PUSH1 0x0 KECCAK256 ADD PUSH1 0x0 SWAP1 SLOAD SWAP1 PUSH2 0x100 EXP SWAP1 DIV PUSH20 0xFFFFFFFFFFFFFFFFFFFFFFFFFFFFFFFFFFFFFFFF AND PUSH20 0xFFFFFFFFFFFFFFFFFFFFFFFFFFFFFFFFFFFFFFFF AND PUSH2 0x3795 SWAP1 SWAP3 SWAP2 SWAP1 PUSH4 0xFFFFFFFF AND JUMP JUMPDEST CALLER PUSH20 0xFFFFFFFFFFFFFFFFFFFFFFFFFFFFFFFFFFFFFFFF AND PUSH32 0xB2E76AE99761DC136E598D4A629BB347ECCB9532A5F8BBD72E18467C3C34CC98 DUP14 DUP13 DUP15 DUP8 PUSH1 0x40 MLOAD PUSH2 0x11DC SWAP5 SWAP4 SWAP3 SWAP2 SWAP1 PUSH2 0x5449 JUMP JUMPDEST PUSH1 0x40 MLOAD DUP1 SWAP2 SUB SWAP1 LOG2 DUP3 SWAP8 POP POP POP POP POP POP POP POP SWAP6 SWAP5 POP POP POP POP POP JUMP JUMPDEST PUSH1 0x0 DUP1 DUP5 PUSH1 0x0 ADD DUP1 SLOAD SWAP1 POP SWAP1 POP DUP1 DUP5 MLOAD EQ PUSH2 0x1247 JUMPI PUSH1 0x40 MLOAD PUSH32 0x8C379A000000000000000000000000000000000000000000000000000000000 DUP2 MSTORE PUSH1 0x4 ADD PUSH2 0x123E SWAP1 PUSH2 0x5397 JUMP JUMPDEST PUSH1 0x40 MLOAD DUP1 SWAP2 SUB SWAP1 REVERT JUMPDEST PUSH1 0x0 DUP2 PUSH8 0xFFFFFFFFFFFFFFFF DUP2 GT ISZERO PUSH2 0x1289 JUMPI PUSH32 0x4E487B7100000000000000000000000000000000000000000000000000000000 PUSH1 0x0 MSTORE PUSH1 0x41 PUSH1 0x4 MSTORE PUSH1 0x24 PUSH1 0x0 REVERT JUMPDEST PUSH1 0x40 MLOAD SWAP1 DUP1 DUP3 MSTORE DUP1 PUSH1 0x20 MUL PUSH1 0x20 ADD DUP3 ADD PUSH1 0x40 MSTORE DUP1 ISZERO PUSH2 0x12B7 JUMPI DUP2 PUSH1 0x20 ADD PUSH1 0x20 DUP3 MUL DUP1 CALLDATASIZE DUP4 CALLDATACOPY DUP1 DUP3 ADD SWAP2 POP POP SWAP1 POP JUMPDEST POP SWAP1 POP PUSH1 0x0 PUSH2 0x12C5 DUP8 PUSH2 0x3C23 JUMP JUMPDEST SWAP1 POP PUSH1 0x0 DUP8 PUSH1 0x1 ADD PUSH1 0x0 SWAP1 SLOAD SWAP1 PUSH2 0x100 EXP SWAP1 DIV PUSH20 0xFFFFFFFFFFFFFFFFFFFFFFFFFFFFFFFFFFFFFFFF AND PUSH20 0xFFFFFFFFFFFFFFFFFFFFFFFFFFFFFFFFFFFFFFFF AND PUSH4 0x18160DDD PUSH1 0x40 MLOAD DUP2 PUSH4 0xFFFFFFFF AND PUSH1 0xE0 SHL DUP2 MSTORE PUSH1 0x4 ADD PUSH1 0x20 PUSH1 0x40 MLOAD DUP1 DUP4 SUB DUP2 DUP7 DUP1 EXTCODESIZE ISZERO DUP1 ISZERO PUSH2 0x1333 JUMPI PUSH1 0x0 DUP1 REVERT JUMPDEST POP GAS STATICCALL ISZERO DUP1 ISZERO PUSH2 0x1347 JUMPI RETURNDATASIZE PUSH1 0x0 DUP1 RETURNDATACOPY RETURNDATASIZE PUSH1 0x0 REVERT JUMPDEST POP POP POP POP PUSH1 0x40 MLOAD RETURNDATASIZE PUSH1 0x1F NOT PUSH1 0x1F DUP3 ADD AND DUP3 ADD DUP1 PUSH1 0x40 MSTORE POP DUP2 ADD SWAP1 PUSH2 0x136B SWAP2 SWAP1 PUSH2 0x4CD2 JUMP JUMPDEST SWAP1 POP PUSH1 0x0 PUSH2 0x1378 DUP10 PUSH2 0x331C JUMP JUMPDEST SWAP1 POP PUSH1 0x0 DUP1 DUP4 GT ISZERO PUSH2 0x143E JUMPI PUSH2 0x143B PUSH2 0x1435 DUP12 PUSH1 0x3 ADD DUP1 SLOAD DUP1 PUSH1 0x20 MUL PUSH1 0x20 ADD PUSH1 0x40 MLOAD SWAP1 DUP2 ADD PUSH1 0x40 MSTORE DUP1 SWAP3 SWAP2 SWAP1 DUP2 DUP2 MSTORE PUSH1 0x20 ADD DUP3 DUP1 SLOAD DUP1 ISZERO PUSH2 0x13D8 JUMPI PUSH1 0x20 MUL DUP3 ADD SWAP2 SWAP1 PUSH1 0x0 MSTORE PUSH1 0x20 PUSH1 0x0 KECCAK256 SWAP1 JUMPDEST DUP2 SLOAD DUP2 MSTORE PUSH1 0x20 ADD SWAP1 PUSH1 0x1 ADD SWAP1 DUP1 DUP4 GT PUSH2 0x13C4 JUMPI JUMPDEST POP POP POP POP POP DUP13 PUSH1 0x2 ADD DUP1 SLOAD DUP1 PUSH1 0x20 MUL PUSH1 0x20 ADD PUSH1 0x40 MLOAD SWAP1 DUP2 ADD PUSH1 0x40 MSTORE DUP1 SWAP3 SWAP2 SWAP1 DUP2 DUP2 MSTORE PUSH1 0x20 ADD DUP3 DUP1 SLOAD DUP1 ISZERO PUSH2 0x142B JUMPI PUSH1 0x20 MUL DUP3 ADD SWAP2 SWAP1 PUSH1 0x0 MSTORE PUSH1 0x20 PUSH1 0x0 KECCAK256 SWAP1 JUMPDEST DUP2 SLOAD DUP2 MSTORE PUSH1 0x20 ADD SWAP1 PUSH1 0x1 ADD SWAP1 DUP1 DUP4 GT PUSH2 0x1417 JUMPI JUMPDEST POP POP POP POP POP PUSH2 0x3699 JUMP JUMPDEST DUP4 PUSH2 0x34C1 JUMP JUMPDEST SWAP1 POP JUMPDEST PUSH1 0x0 DUP11 PUSH1 0x3 ADD DUP1 SLOAD DUP1 PUSH1 0x20 MUL PUSH1 0x20 ADD PUSH1 0x40 MLOAD SWAP1 DUP2 ADD PUSH1 0x40 MSTORE DUP1 SWAP3 SWAP2 SWAP1 DUP2 DUP2 MSTORE PUSH1 0x20 ADD DUP3 DUP1 SLOAD DUP1 ISZERO PUSH2 0x148E JUMPI PUSH1 0x20 MUL DUP3 ADD SWAP2 SWAP1 PUSH1 0x0 MSTORE PUSH1 0x20 PUSH1 0x0 KECCAK256 SWAP1 JUMPDEST DUP2 SLOAD DUP2 MSTORE PUSH1 0x20 ADD SWAP1 PUSH1 0x1 ADD SWAP1 DUP1 DUP4 GT PUSH2 0x147A JUMPI JUMPDEST POP POP POP POP POP SWAP1 POP PUSH1 0x0 JUMPDEST DUP8 DUP2 LT ISZERO PUSH2 0x1644 JUMPI PUSH1 0x0 DUP6 EQ ISZERO PUSH2 0x152D JUMPI PUSH1 0x0 DUP12 DUP3 DUP2 MLOAD DUP2 LT PUSH2 0x14E4 JUMPI PUSH32 0x4E487B7100000000000000000000000000000000000000000000000000000000 PUSH1 0x0 MSTORE PUSH1 0x32 PUSH1 0x4 MSTORE PUSH1 0x24 PUSH1 0x0 REVERT JUMPDEST PUSH1 0x20 MUL PUSH1 0x20 ADD ADD MLOAD GT PUSH2 0x152C JUMPI PUSH1 0x40 MLOAD PUSH32 0x8C379A000000000000000000000000000000000000000000000000000000000 DUP2 MSTORE PUSH1 0x4 ADD PUSH2 0x1523 SWAP1 PUSH2 0x53D7 JUMP JUMPDEST PUSH1 0x40 MLOAD DUP1 SWAP2 SUB SWAP1 REVERT JUMPDEST JUMPDEST PUSH2 0x15DD DUP13 PUSH1 0x0 ADD DUP3 DUP2 SLOAD DUP2 LT PUSH2 0x156C JUMPI PUSH32 0x4E487B7100000000000000000000000000000000000000000000000000000000 PUSH1 0x0 MSTORE PUSH1 0x32 PUSH1 0x4 MSTORE PUSH1 0x24 PUSH1 0x0 REVERT JUMPDEST SWAP1 PUSH1 0x0 MSTORE PUSH1 0x20 PUSH1 0x0 KECCAK256 ADD PUSH1 0x0 SWAP1 SLOAD SWAP1 PUSH2 0x100 EXP SWAP1 DIV PUSH20 0xFFFFFFFFFFFFFFFFFFFFFFFFFFFFFFFFFFFFFFFF AND DUP13 DUP4 DUP2 MLOAD DUP2 LT PUSH2 0x15D0 JUMPI PUSH32 0x4E487B7100000000000000000000000000000000000000000000000000000000 PUSH1 0x0 MSTORE PUSH1 0x32 PUSH1 0x4 MSTORE PUSH1 0x24 PUSH1 0x0 REVERT JUMPDEST PUSH1 0x20 MUL PUSH1 0x20 ADD ADD MLOAD PUSH2 0x381B JUMP JUMPDEST DUP3 DUP3 DUP2 MLOAD DUP2 LT PUSH2 0x1616 JUMPI PUSH32 0x4E487B7100000000000000000000000000000000000000000000000000000000 PUSH1 0x0 MSTORE PUSH1 0x32 PUSH1 0x4 MSTORE PUSH1 0x24 PUSH1 0x0 REVERT JUMPDEST PUSH1 0x20 MUL PUSH1 0x20 ADD ADD DUP2 DUP2 MLOAD PUSH2 0x162A SWAP2 SWAP1 PUSH2 0x555B JUMP JUMPDEST SWAP2 POP DUP2 DUP2 MSTORE POP POP DUP1 DUP1 PUSH2 0x163C SWAP1 PUSH2 0x5897 JUMP JUMPDEST SWAP2 POP POP PUSH2 0x1498 JUMP JUMPDEST POP PUSH1 0x0 PUSH2 0x16AC PUSH2 0x16A6 DUP4 DUP15 PUSH1 0x2 ADD DUP1 SLOAD DUP1 PUSH1 0x20 MUL PUSH1 0x20 ADD PUSH1 0x40 MLOAD SWAP1 DUP2 ADD PUSH1 0x40 MSTORE DUP1 SWAP3 SWAP2 SWAP1 DUP2 DUP2 MSTORE PUSH1 0x20 ADD DUP3 DUP1 SLOAD DUP1 ISZERO PUSH2 0x169C JUMPI PUSH1 0x20 MUL DUP3 ADD SWAP2 SWAP1 PUSH1 0x0 MSTORE PUSH1 0x20 PUSH1 0x0 KECCAK256 SWAP1 JUMPDEST DUP2 SLOAD DUP2 MSTORE PUSH1 0x20 ADD SWAP1 PUSH1 0x1 ADD SWAP1 DUP1 DUP4 GT PUSH2 0x1688 JUMPI JUMPDEST POP POP POP POP POP PUSH2 0x3699 JUMP JUMPDEST DUP6 PUSH2 0x34C1 JUMP JUMPDEST SWAP1 POP DUP3 DUP2 GT PUSH2 0x16E4 JUMPI PUSH32 0x4E487B7100000000000000000000000000000000000000000000000000000000 PUSH1 0x0 MSTORE PUSH1 0x1 PUSH1 0x4 MSTORE PUSH1 0x24 PUSH1 0x0 REVERT JUMPDEST PUSH1 0x0 DUP6 EQ ISZERO PUSH2 0x170E JUMPI DUP2 DUP13 PUSH1 0x3 ADD SWAP1 DUP1 MLOAD SWAP1 PUSH1 0x20 ADD SWAP1 PUSH2 0x1705 SWAP3 SWAP2 SWAP1 PUSH2 0x4805 JUMP JUMPDEST POP DUP1 SWAP9 POP PUSH2 0x1A4E JUMP JUMPDEST PUSH1 0x0 DUP1 JUMPDEST DUP10 DUP2 LT ISZERO PUSH2 0x19C0 JUMPI PUSH2 0x17C0 DUP6 DUP16 PUSH1 0x3 ADD DUP4 DUP2 SLOAD DUP2 LT PUSH2 0x175A JUMPI PUSH32 0x4E487B7100000000000000000000000000000000000000000000000000000000 PUSH1 0x0 MSTORE PUSH1 0x32 PUSH1 0x4 MSTORE PUSH1 0x24 PUSH1 0x0 REVERT JUMPDEST SWAP1 PUSH1 0x0 MSTORE PUSH1 0x20 PUSH1 0x0 KECCAK256 ADD SLOAD DUP6 PUSH2 0x1770 SWAP2 SWAP1 PUSH2 0x5753 JUMP JUMPDEST PUSH2 0x177A SWAP2 SWAP1 PUSH2 0x55B1 JUMP JUMPDEST DUP6 DUP4 DUP2 MLOAD DUP2 LT PUSH2 0x17B3 JUMPI PUSH32 0x4E487B7100000000000000000000000000000000000000000000000000000000 PUSH1 0x0 MSTORE PUSH1 0x32 PUSH1 0x4 MSTORE PUSH1 0x24 PUSH1 0x0 REVERT JUMPDEST PUSH1 0x20 MUL PUSH1 0x20 ADD ADD MLOAD PUSH2 0x3C6B JUMP JUMPDEST SWAP2 POP PUSH5 0x2540BE400 DUP3 DUP10 PUSH2 0x17D4 SWAP2 SWAP1 PUSH2 0x5753 JUMP JUMPDEST PUSH2 0x17DE SWAP2 SWAP1 PUSH2 0x55B1 JUMP JUMPDEST DUP10 DUP3 DUP2 MLOAD DUP2 LT PUSH2 0x1817 JUMPI PUSH32 0x4E487B7100000000000000000000000000000000000000000000000000000000 PUSH1 0x0 MSTORE PUSH1 0x32 PUSH1 0x4 MSTORE PUSH1 0x24 PUSH1 0x0 REVERT JUMPDEST PUSH1 0x20 MUL PUSH1 0x20 ADD ADD DUP2 DUP2 MSTORE POP POP PUSH5 0x2540BE400 DUP15 PUSH1 0x5 ADD SLOAD DUP11 DUP4 DUP2 MLOAD DUP2 LT PUSH2 0x1867 JUMPI PUSH32 0x4E487B7100000000000000000000000000000000000000000000000000000000 PUSH1 0x0 MSTORE PUSH1 0x32 PUSH1 0x4 MSTORE PUSH1 0x24 PUSH1 0x0 REVERT JUMPDEST PUSH1 0x20 MUL PUSH1 0x20 ADD ADD MLOAD PUSH2 0x1879 SWAP2 SWAP1 PUSH2 0x5753 JUMP JUMPDEST PUSH2 0x1883 SWAP2 SWAP1 PUSH2 0x55B1 JUMP JUMPDEST DUP5 DUP3 DUP2 MLOAD DUP2 LT PUSH2 0x18BC JUMPI PUSH32 0x4E487B7100000000000000000000000000000000000000000000000000000000 PUSH1 0x0 MSTORE PUSH1 0x32 PUSH1 0x4 MSTORE PUSH1 0x24 PUSH1 0x0 REVERT JUMPDEST PUSH1 0x20 MUL PUSH1 0x20 ADD ADD MLOAD PUSH2 0x18CE SWAP2 SWAP1 PUSH2 0x57AD JUMP JUMPDEST DUP15 PUSH1 0x3 ADD DUP3 DUP2 SLOAD DUP2 LT PUSH2 0x190A JUMPI PUSH32 0x4E487B7100000000000000000000000000000000000000000000000000000000 PUSH1 0x0 MSTORE PUSH1 0x32 PUSH1 0x4 MSTORE PUSH1 0x24 PUSH1 0x0 REVERT JUMPDEST SWAP1 PUSH1 0x0 MSTORE PUSH1 0x20 PUSH1 0x0 KECCAK256 ADD DUP2 SWAP1 SSTORE POP DUP9 DUP2 DUP2 MLOAD DUP2 LT PUSH2 0x1951 JUMPI PUSH32 0x4E487B7100000000000000000000000000000000000000000000000000000000 PUSH1 0x0 MSTORE PUSH1 0x32 PUSH1 0x4 MSTORE PUSH1 0x24 PUSH1 0x0 REVERT JUMPDEST PUSH1 0x20 MUL PUSH1 0x20 ADD ADD MLOAD DUP5 DUP3 DUP2 MLOAD DUP2 LT PUSH2 0x1992 JUMPI PUSH32 0x4E487B7100000000000000000000000000000000000000000000000000000000 PUSH1 0x0 MSTORE PUSH1 0x32 PUSH1 0x4 MSTORE PUSH1 0x24 PUSH1 0x0 REVERT JUMPDEST PUSH1 0x20 MUL PUSH1 0x20 ADD ADD DUP2 DUP2 MLOAD PUSH2 0x19A6 SWAP2 SWAP1 PUSH2 0x57AD JUMP JUMPDEST SWAP2 POP DUP2 DUP2 MSTORE POP POP DUP1 DUP1 PUSH2 0x19B8 SWAP1 PUSH2 0x5897 JUMP JUMPDEST SWAP2 POP POP PUSH2 0x1712 JUMP JUMPDEST POP PUSH2 0x1A26 PUSH2 0x1A20 DUP5 DUP16 PUSH1 0x2 ADD DUP1 SLOAD DUP1 PUSH1 0x20 MUL PUSH1 0x20 ADD PUSH1 0x40 MLOAD SWAP1 DUP2 ADD PUSH1 0x40 MSTORE DUP1 SWAP3 SWAP2 SWAP1 DUP2 DUP2 MSTORE PUSH1 0x20 ADD DUP3 DUP1 SLOAD DUP1 ISZERO PUSH2 0x1A16 JUMPI PUSH1 0x20 MUL DUP3 ADD SWAP2 SWAP1 PUSH1 0x0 MSTORE PUSH1 0x20 PUSH1 0x0 KECCAK256 SWAP1 JUMPDEST DUP2 SLOAD DUP2 MSTORE PUSH1 0x20 ADD SWAP1 PUSH1 0x1 ADD SWAP1 DUP1 DUP4 GT PUSH2 0x1A02 JUMPI JUMPDEST POP POP POP POP POP PUSH2 0x3699 JUMP JUMPDEST DUP7 PUSH2 0x34C1 JUMP JUMPDEST SWAP2 POP DUP4 DUP5 DUP4 PUSH2 0x1A35 SWAP2 SWAP1 PUSH2 0x57AD JUMP JUMPDEST DUP8 PUSH2 0x1A40 SWAP2 SWAP1 PUSH2 0x5753 JUMP JUMPDEST PUSH2 0x1A4A SWAP2 SWAP1 PUSH2 0x55B1 JUMP JUMPDEST SWAP10 POP POP JUMPDEST DUP10 DUP10 LT ISZERO PUSH2 0x1A91 JUMPI PUSH1 0x40 MLOAD PUSH32 0x8C379A000000000000000000000000000000000000000000000000000000000 DUP2 MSTORE PUSH1 0x4 ADD PUSH2 0x1A88 SWAP1 PUSH2 0x53B7 JUMP JUMPDEST PUSH1 0x40 MLOAD DUP1 SWAP2 SUB SWAP1 REVERT JUMPDEST DUP12 PUSH1 0x1 ADD PUSH1 0x0 SWAP1 SLOAD SWAP1 PUSH2 0x100 EXP SWAP1 DIV PUSH20 0xFFFFFFFFFFFFFFFFFFFFFFFFFFFFFFFFFFFFFFFF AND PUSH20 0xFFFFFFFFFFFFFFFFFFFFFFFFFFFFFFFFFFFFFFFF AND PUSH4 0x40C10F19 CALLER DUP12 PUSH1 0x40 MLOAD DUP4 PUSH4 0xFFFFFFFF AND PUSH1 0xE0 SHL DUP2 MSTORE PUSH1 0x4 ADD PUSH2 0x1AF0 SWAP3 SWAP2 SWAP1 PUSH2 0x5112 JUMP JUMPDEST PUSH1 0x0 PUSH1 0x40 MLOAD DUP1 DUP4 SUB DUP2 PUSH1 0x0 DUP8 DUP1 EXTCODESIZE ISZERO DUP1 ISZERO PUSH2 0x1B0A JUMPI PUSH1 0x0 DUP1 REVERT JUMPDEST POP GAS CALL ISZERO DUP1 ISZERO PUSH2 0x1B1E JUMPI RETURNDATASIZE PUSH1 0x0 DUP1 RETURNDATACOPY RETURNDATASIZE PUSH1 0x0 REVERT JUMPDEST POP POP POP POP CALLER PUSH20 0xFFFFFFFFFFFFFFFFFFFFFFFFFFFFFFFFFFFFFFFF AND PUSH32 0x189C623B666B1B45B83D7178F39B8C087CB09774317CA2F53C2D3C3726F222A2 DUP13 DUP10 DUP5 DUP14 PUSH1 0x40 MLOAD PUSH2 0x1B6E SWAP5 SWAP4 SWAP3 SWAP2 SWAP1 PUSH2 0x51A2 JUMP JUMPDEST PUSH1 0x40 MLOAD DUP1 SWAP2 SUB SWAP1 LOG2 POP POP POP POP POP POP POP POP SWAP4 SWAP3 POP POP POP JUMP JUMPDEST PUSH1 0x0 PUSH2 0x1B90 DUP3 PUSH2 0x331C JUMP JUMPDEST SWAP1 POP SWAP2 SWAP1 POP JUMP JUMPDEST PUSH1 0x0 PUSH1 0x64 PUSH2 0x1BA4 DUP4 PUSH2 0x331C JUMP JUMPDEST PUSH2 0x1BAE SWAP2 SWAP1 PUSH2 0x55B1 JUMP JUMPDEST SWAP1 POP SWAP2 SWAP1 POP JUMP JUMPDEST PUSH1 0x0 DUP1 PUSH2 0x1BC1 DUP7 PUSH2 0x340A JUMP JUMPDEST SWAP1 POP PUSH1 0x0 DUP7 PUSH1 0x2 ADD DUP7 DUP2 SLOAD DUP2 LT PUSH2 0x1C01 JUMPI PUSH32 0x4E487B7100000000000000000000000000000000000000000000000000000000 PUSH1 0x0 MSTORE PUSH1 0x32 PUSH1 0x4 MSTORE PUSH1 0x24 PUSH1 0x0 REVERT JUMPDEST SWAP1 PUSH1 0x0 MSTORE PUSH1 0x20 PUSH1 0x0 KECCAK256 ADD SLOAD DUP5 PUSH2 0x1C17 SWAP2 SWAP1 PUSH2 0x5753 JUMP JUMPDEST DUP3 DUP8 DUP2 MLOAD DUP2 LT PUSH2 0x1C50 JUMPI PUSH32 0x4E487B7100000000000000000000000000000000000000000000000000000000 PUSH1 0x0 MSTORE PUSH1 0x32 PUSH1 0x4 MSTORE PUSH1 0x24 PUSH1 0x0 REVERT JUMPDEST PUSH1 0x20 MUL PUSH1 0x20 ADD ADD MLOAD PUSH2 0x1C62 SWAP2 SWAP1 PUSH2 0x555B JUMP JUMPDEST SWAP1 POP PUSH1 0x0 PUSH2 0x1C73 DUP9 DUP9 DUP9 DUP6 DUP8 PUSH2 0x3973 JUMP JUMPDEST SWAP1 POP PUSH1 0x0 DUP9 PUSH1 0x2 ADD DUP8 DUP2 SLOAD DUP2 LT PUSH2 0x1CB3 JUMPI PUSH32 0x4E487B7100000000000000000000000000000000000000000000000000000000 PUSH1 0x0 MSTORE PUSH1 0x32 PUSH1 0x4 MSTORE PUSH1 0x24 PUSH1 0x0 REVERT JUMPDEST SWAP1 PUSH1 0x0 MSTORE PUSH1 0x20 PUSH1 0x0 KECCAK256 ADD SLOAD PUSH1 0x1 DUP4 DUP7 DUP11 DUP2 MLOAD DUP2 LT PUSH2 0x1CFA JUMPI PUSH32 0x4E487B7100000000000000000000000000000000000000000000000000000000 PUSH1 0x0 MSTORE PUSH1 0x32 PUSH1 0x4 MSTORE PUSH1 0x24 PUSH1 0x0 REVERT JUMPDEST PUSH1 0x20 MUL PUSH1 0x20 ADD ADD MLOAD PUSH2 0x1D0C SWAP2 SWAP1 PUSH2 0x57AD JUMP JUMPDEST PUSH2 0x1D16 SWAP2 SWAP1 PUSH2 0x57AD JUMP JUMPDEST PUSH2 0x1D20 SWAP2 SWAP1 PUSH2 0x55B1 JUMP JUMPDEST SWAP1 POP PUSH1 0x0 PUSH5 0x2540BE400 DUP3 DUP12 PUSH1 0x4 ADD SLOAD PUSH2 0x1D3A SWAP2 SWAP1 PUSH2 0x5753 JUMP JUMPDEST PUSH2 0x1D44 SWAP2 SWAP1 PUSH2 0x55B1 JUMP JUMPDEST SWAP1 POP DUP1 DUP3 PUSH2 0x1D52 SWAP2 SWAP1 PUSH2 0x57AD JUMP JUMPDEST SWAP6 POP POP POP POP POP POP SWAP5 SWAP4 POP POP POP POP JUMP JUMPDEST PUSH2 0x1D6C DUP4 DUP4 DUP4 PUSH2 0x3C9A JUMP JUMPDEST POP POP POP JUMP JUMPDEST PUSH1 0x12 DUP2 JUMP JUMPDEST PUSH1 0x60 PUSH1 0x0 DUP5 PUSH1 0x1 ADD PUSH1 0x0 SWAP1 SLOAD SWAP1 PUSH2 0x100 EXP SWAP1 DIV PUSH20 0xFFFFFFFFFFFFFFFFFFFFFFFFFFFFFFFFFFFFFFFF AND PUSH20 0xFFFFFFFFFFFFFFFFFFFFFFFFFFFFFFFFFFFFFFFF AND PUSH4 0x18160DDD PUSH1 0x40 MLOAD DUP2 PUSH4 0xFFFFFFFF AND PUSH1 0xE0 SHL DUP2 MSTORE PUSH1 0x4 ADD PUSH1 0x20 PUSH1 0x40 MLOAD DUP1 DUP4 SUB DUP2 DUP7 DUP1 EXTCODESIZE ISZERO DUP1 ISZERO PUSH2 0x1DE4 JUMPI PUSH1 0x0 DUP1 REVERT JUMPDEST POP GAS STATICCALL ISZERO DUP1 ISZERO PUSH2 0x1DF8 JUMPI RETURNDATASIZE PUSH1 0x0 DUP1 RETURNDATACOPY RETURNDATASIZE PUSH1 0x0 REVERT JUMPDEST POP POP POP POP PUSH1 0x40 MLOAD RETURNDATASIZE PUSH1 0x1F NOT PUSH1 0x1F DUP3 ADD AND DUP3 ADD DUP1 PUSH1 0x40 MSTORE POP DUP2 ADD SWAP1 PUSH2 0x1E1C SWAP2 SWAP1 PUSH2 0x4CD2 JUMP JUMPDEST SWAP1 POP DUP1 DUP5 GT ISZERO PUSH2 0x1E2B JUMPI PUSH1 0x0 DUP1 REVERT JUMPDEST PUSH1 0x0 DUP6 PUSH1 0x0 ADD DUP1 SLOAD SWAP1 POP SWAP1 POP PUSH1 0x0 DUP2 PUSH8 0xFFFFFFFFFFFFFFFF DUP2 GT ISZERO PUSH2 0x1E79 JUMPI PUSH32 0x4E487B7100000000000000000000000000000000000000000000000000000000 PUSH1 0x0 MSTORE PUSH1 0x41 PUSH1 0x4 MSTORE PUSH1 0x24 PUSH1 0x0 REVERT JUMPDEST PUSH1 0x40 MLOAD SWAP1 DUP1 DUP3 MSTORE DUP1 PUSH1 0x20 MUL PUSH1 0x20 ADD DUP3 ADD PUSH1 0x40 MSTORE DUP1 ISZERO PUSH2 0x1EA7 JUMPI DUP2 PUSH1 0x20 ADD PUSH1 0x20 DUP3 MUL DUP1 CALLDATASIZE DUP4 CALLDATACOPY DUP1 DUP3 ADD SWAP2 POP POP SWAP1 POP JUMPDEST POP SWAP1 POP PUSH2 0x1EB5 DUP8 CALLER DUP9 PUSH2 0x3F02 JUMP JUMPDEST SWAP4 POP PUSH1 0x0 JUMPDEST DUP5 MLOAD DUP2 LT ISZERO PUSH2 0x2146 JUMPI DUP6 DUP2 DUP2 MLOAD DUP2 LT PUSH2 0x1EFC JUMPI PUSH32 0x4E487B7100000000000000000000000000000000000000000000000000000000 PUSH1 0x0 MSTORE PUSH1 0x32 PUSH1 0x4 MSTORE PUSH1 0x24 PUSH1 0x0 REVERT JUMPDEST PUSH1 0x20 MUL PUSH1 0x20 ADD ADD MLOAD DUP6 DUP3 DUP2 MLOAD DUP2 LT PUSH2 0x1F3D JUMPI PUSH32 0x4E487B7100000000000000000000000000000000000000000000000000000000 PUSH1 0x0 MSTORE PUSH1 0x32 PUSH1 0x4 MSTORE PUSH1 0x24 PUSH1 0x0 REVERT JUMPDEST PUSH1 0x20 MUL PUSH1 0x20 ADD ADD MLOAD LT ISZERO PUSH2 0x1F86 JUMPI PUSH1 0x40 MLOAD PUSH32 0x8C379A000000000000000000000000000000000000000000000000000000000 DUP2 MSTORE PUSH1 0x4 ADD PUSH2 0x1F7D SWAP1 PUSH2 0x53B7 JUMP JUMPDEST PUSH1 0x40 MLOAD DUP1 SWAP2 SUB SWAP1 REVERT JUMPDEST DUP5 DUP2 DUP2 MLOAD DUP2 LT PUSH2 0x1FBF JUMPI PUSH32 0x4E487B7100000000000000000000000000000000000000000000000000000000 PUSH1 0x0 MSTORE PUSH1 0x32 PUSH1 0x4 MSTORE PUSH1 0x24 PUSH1 0x0 REVERT JUMPDEST PUSH1 0x20 MUL PUSH1 0x20 ADD ADD MLOAD DUP9 PUSH1 0x3 ADD DUP3 DUP2 SLOAD DUP2 LT PUSH2 0x2003 JUMPI PUSH32 0x4E487B7100000000000000000000000000000000000000000000000000000000 PUSH1 0x0 MSTORE PUSH1 0x32 PUSH1 0x4 MSTORE PUSH1 0x24 PUSH1 0x0 REVERT JUMPDEST SWAP1 PUSH1 0x0 MSTORE PUSH1 0x20 PUSH1 0x0 KECCAK256 ADD SLOAD PUSH2 0x2018 SWAP2 SWAP1 PUSH2 0x57AD JUMP JUMPDEST DUP9 PUSH1 0x3 ADD DUP3 DUP2 SLOAD DUP2 LT PUSH2 0x2054 JUMPI PUSH32 0x4E487B7100000000000000000000000000000000000000000000000000000000 PUSH1 0x0 MSTORE PUSH1 0x32 PUSH1 0x4 MSTORE PUSH1 0x24 PUSH1 0x0 REVERT JUMPDEST SWAP1 PUSH1 0x0 MSTORE PUSH1 0x20 PUSH1 0x0 KECCAK256 ADD DUP2 SWAP1 SSTORE POP PUSH2 0x2133 CALLER DUP7 DUP4 DUP2 MLOAD DUP2 LT PUSH2 0x209F JUMPI PUSH32 0x4E487B7100000000000000000000000000000000000000000000000000000000 PUSH1 0x0 MSTORE PUSH1 0x32 PUSH1 0x4 MSTORE PUSH1 0x24 PUSH1 0x0 REVERT JUMPDEST PUSH1 0x20 MUL PUSH1 0x20 ADD ADD MLOAD DUP11 PUSH1 0x0 ADD DUP5 DUP2 SLOAD DUP2 LT PUSH2 0x20E3 JUMPI PUSH32 0x4E487B7100000000000000000000000000000000000000000000000000000000 PUSH1 0x0 MSTORE PUSH1 0x32 PUSH1 0x4 MSTORE PUSH1 0x24 PUSH1 0x0 REVERT JUMPDEST SWAP1 PUSH1 0x0 MSTORE PUSH1 0x20 PUSH1 0x0 KECCAK256 ADD PUSH1 0x0 SWAP1 SLOAD SWAP1 PUSH2 0x100 EXP SWAP1 DIV PUSH20 0xFFFFFFFFFFFFFFFFFFFFFFFFFFFFFFFFFFFFFFFF AND PUSH20 0xFFFFFFFFFFFFFFFFFFFFFFFFFFFFFFFFFFFFFFFF AND PUSH2 0x3795 SWAP1 SWAP3 SWAP2 SWAP1 PUSH4 0xFFFFFFFF AND JUMP JUMPDEST DUP1 DUP1 PUSH2 0x213E SWAP1 PUSH2 0x5897 JUMP JUMPDEST SWAP2 POP POP PUSH2 0x1EBA JUMP JUMPDEST POP DUP7 PUSH1 0x1 ADD PUSH1 0x0 SWAP1 SLOAD SWAP1 PUSH2 0x100 EXP SWAP1 DIV PUSH20 0xFFFFFFFFFFFFFFFFFFFFFFFFFFFFFFFFFFFFFFFF AND PUSH20 0xFFFFFFFFFFFFFFFFFFFFFFFFFFFFFFFFFFFFFFFF AND PUSH4 0x79CC6790 CALLER DUP9 PUSH1 0x40 MLOAD DUP4 PUSH4 0xFFFFFFFF AND PUSH1 0xE0 SHL DUP2 MSTORE PUSH1 0x4 ADD PUSH2 0x21A6 SWAP3 SWAP2 SWAP1 PUSH2 0x5112 JUMP JUMPDEST PUSH1 0x0 PUSH1 0x40 MLOAD DUP1 DUP4 SUB DUP2 PUSH1 0x0 DUP8 DUP1 EXTCODESIZE ISZERO DUP1 ISZERO PUSH2 0x21C0 JUMPI PUSH1 0x0 DUP1 REVERT JUMPDEST POP GAS CALL ISZERO DUP1 ISZERO PUSH2 0x21D4 JUMPI RETURNDATASIZE PUSH1 0x0 DUP1 RETURNDATACOPY RETURNDATASIZE PUSH1 0x0 REVERT JUMPDEST POP POP POP POP CALLER PUSH20 0xFFFFFFFFFFFFFFFFFFFFFFFFFFFFFFFFFFFFFFFF AND PUSH32 0x347AD828E58CBE534D8F6B67985D791360756B18F0D95FD9F197A66CC46480EA DUP6 DUP4 DUP10 DUP8 PUSH2 0x221E SWAP2 SWAP1 PUSH2 0x57AD JUMP JUMPDEST PUSH1 0x40 MLOAD PUSH2 0x222D SWAP4 SWAP3 SWAP2 SWAP1 PUSH2 0x515D JUMP JUMPDEST PUSH1 0x40 MLOAD DUP1 SWAP2 SUB SWAP1 LOG2 POP POP POP SWAP4 SWAP3 POP POP POP JUMP JUMPDEST PUSH1 0x0 DUP1 DUP5 PUSH1 0x0 ADD DUP1 SLOAD SWAP1 POP SWAP1 POP DUP1 DUP5 MLOAD EQ PUSH2 0x228F JUMPI PUSH1 0x40 MLOAD PUSH32 0x8C379A000000000000000000000000000000000000000000000000000000000 DUP2 MSTORE PUSH1 0x4 ADD PUSH2 0x2286 SWAP1 PUSH2 0x5397 JUMP JUMPDEST PUSH1 0x40 MLOAD DUP1 SWAP2 SUB SWAP1 REVERT JUMPDEST PUSH1 0x0 DUP6 PUSH1 0x1 ADD PUSH1 0x0 SWAP1 SLOAD SWAP1 PUSH2 0x100 EXP SWAP1 DIV PUSH20 0xFFFFFFFFFFFFFFFFFFFFFFFFFFFFFFFFFFFFFFFF AND PUSH20 0xFFFFFFFFFFFFFFFFFFFFFFFFFFFFFFFFFFFFFFFF AND PUSH4 0x18160DDD PUSH1 0x40 MLOAD DUP2 PUSH4 0xFFFFFFFF AND PUSH1 0xE0 SHL DUP2 MSTORE PUSH1 0x4 ADD PUSH1 0x20 PUSH1 0x40 MLOAD DUP1 DUP4 SUB DUP2 DUP7 DUP1 EXTCODESIZE ISZERO DUP1 ISZERO PUSH2 0x22FB JUMPI PUSH1 0x0 DUP1 REVERT JUMPDEST POP GAS STATICCALL ISZERO DUP1 ISZERO PUSH2 0x230F JUMPI RETURNDATASIZE PUSH1 0x0 DUP1 RETURNDATACOPY RETURNDATASIZE PUSH1 0x0 REVERT JUMPDEST POP POP POP POP PUSH1 0x40 MLOAD RETURNDATASIZE PUSH1 0x1F NOT PUSH1 0x1F DUP3 ADD AND DUP3 ADD DUP1 PUSH1 0x40 MSTORE POP DUP2 ADD SWAP1 PUSH2 0x2333 SWAP2 SWAP1 PUSH2 0x4CD2 JUMP JUMPDEST SWAP1 POP PUSH1 0x0 DUP2 EQ ISZERO PUSH2 0x2379 JUMPI PUSH1 0x40 MLOAD PUSH32 0x8C379A000000000000000000000000000000000000000000000000000000000 DUP2 MSTORE PUSH1 0x4 ADD PUSH2 0x2370 SWAP1 PUSH2 0x5237 JUMP JUMPDEST PUSH1 0x40 MLOAD DUP1 SWAP2 SUB SWAP1 REVERT JUMPDEST PUSH1 0x0 PUSH2 0x2384 DUP8 PUSH2 0x3C23 JUMP JUMPDEST SWAP1 POP PUSH1 0x0 PUSH2 0x2391 DUP9 PUSH2 0x331C JUMP JUMPDEST SWAP1 POP PUSH1 0x0 DUP9 PUSH1 0x3 ADD DUP1 SLOAD DUP1 PUSH1 0x20 MUL PUSH1 0x20 ADD PUSH1 0x40 MLOAD SWAP1 DUP2 ADD PUSH1 0x40 MSTORE DUP1 SWAP3 SWAP2 SWAP1 DUP2 DUP2 MSTORE PUSH1 0x20 ADD DUP3 DUP1 SLOAD DUP1 ISZERO PUSH2 0x23E3 JUMPI PUSH1 0x20 MUL DUP3 ADD SWAP2 SWAP1 PUSH1 0x0 MSTORE PUSH1 0x20 PUSH1 0x0 KECCAK256 SWAP1 JUMPDEST DUP2 SLOAD DUP2 MSTORE PUSH1 0x20 ADD SWAP1 PUSH1 0x1 ADD SWAP1 DUP1 DUP4 GT PUSH2 0x23CF JUMPI JUMPDEST POP POP POP POP POP SWAP1 POP PUSH1 0x0 PUSH2 0x23FE PUSH2 0x23F8 DUP12 PUSH2 0x340A JUMP JUMPDEST DUP5 PUSH2 0x34C1 JUMP JUMPDEST SWAP1 POP PUSH1 0x0 JUMPDEST DUP7 DUP2 LT ISZERO PUSH2 0x24B3 JUMPI DUP10 DUP2 DUP2 MLOAD DUP2 LT PUSH2 0x2444 JUMPI PUSH32 0x4E487B7100000000000000000000000000000000000000000000000000000000 PUSH1 0x0 MSTORE PUSH1 0x32 PUSH1 0x4 MSTORE PUSH1 0x24 PUSH1 0x0 REVERT JUMPDEST PUSH1 0x20 MUL PUSH1 0x20 ADD ADD MLOAD DUP4 DUP3 DUP2 MLOAD DUP2 LT PUSH2 0x2485 JUMPI PUSH32 0x4E487B7100000000000000000000000000000000000000000000000000000000 PUSH1 0x0 MSTORE PUSH1 0x32 PUSH1 0x4 MSTORE PUSH1 0x24 PUSH1 0x0 REVERT JUMPDEST PUSH1 0x20 MUL PUSH1 0x20 ADD ADD DUP2 DUP2 MLOAD PUSH2 0x2499 SWAP2 SWAP1 PUSH2 0x57AD JUMP JUMPDEST SWAP2 POP DUP2 DUP2 MSTORE POP POP DUP1 DUP1 PUSH2 0x24AB SWAP1 PUSH2 0x5897 JUMP JUMPDEST SWAP2 POP POP PUSH2 0x2403 JUMP JUMPDEST POP PUSH1 0x0 PUSH2 0x251B PUSH2 0x2515 DUP5 DUP14 PUSH1 0x2 ADD DUP1 SLOAD DUP1 PUSH1 0x20 MUL PUSH1 0x20 ADD PUSH1 0x40 MLOAD SWAP1 DUP2 ADD PUSH1 0x40 MSTORE DUP1 SWAP3 SWAP2 SWAP1 DUP2 DUP2 MSTORE PUSH1 0x20 ADD DUP3 DUP1 SLOAD DUP1 ISZERO PUSH2 0x250B JUMPI PUSH1 0x20 MUL DUP3 ADD SWAP2 SWAP1 PUSH1 0x0 MSTORE PUSH1 0x20 PUSH1 0x0 KECCAK256 SWAP1 JUMPDEST DUP2 SLOAD DUP2 MSTORE PUSH1 0x20 ADD SWAP1 PUSH1 0x1 ADD SWAP1 DUP1 DUP4 GT PUSH2 0x24F7 JUMPI JUMPDEST POP POP POP POP POP PUSH2 0x3699 JUMP JUMPDEST DUP6 PUSH2 0x34C1 JUMP JUMPDEST SWAP1 POP PUSH1 0x0 DUP8 PUSH8 0xFFFFFFFFFFFFFFFF DUP2 GT ISZERO PUSH2 0x255F JUMPI PUSH32 0x4E487B7100000000000000000000000000000000000000000000000000000000 PUSH1 0x0 MSTORE PUSH1 0x41 PUSH1 0x4 MSTORE PUSH1 0x24 PUSH1 0x0 REVERT JUMPDEST PUSH1 0x40 MLOAD SWAP1 DUP1 DUP3 MSTORE DUP1 PUSH1 0x20 MUL PUSH1 0x20 ADD DUP3 ADD PUSH1 0x40 MSTORE DUP1 ISZERO PUSH2 0x258D JUMPI DUP2 PUSH1 0x20 ADD PUSH1 0x20 DUP3 MUL DUP1 CALLDATASIZE DUP4 CALLDATACOPY DUP1 DUP3 ADD SWAP2 POP POP SWAP1 POP JUMPDEST POP SWAP1 POP PUSH1 0x0 JUMPDEST DUP9 DUP2 LT ISZERO PUSH2 0x284A JUMPI PUSH1 0x0 DUP5 DUP15 PUSH1 0x3 ADD DUP4 DUP2 SLOAD DUP2 LT PUSH2 0x25DA JUMPI PUSH32 0x4E487B7100000000000000000000000000000000000000000000000000000000 PUSH1 0x0 MSTORE PUSH1 0x32 PUSH1 0x4 MSTORE PUSH1 0x24 PUSH1 0x0 REVERT JUMPDEST SWAP1 PUSH1 0x0 MSTORE PUSH1 0x20 PUSH1 0x0 KECCAK256 ADD SLOAD DUP6 PUSH2 0x25F0 SWAP2 SWAP1 PUSH2 0x5753 JUMP JUMPDEST PUSH2 0x25FA SWAP2 SWAP1 PUSH2 0x55B1 JUMP JUMPDEST SWAP1 POP PUSH1 0x0 PUSH2 0x2648 DUP8 DUP5 DUP2 MLOAD DUP2 LT PUSH2 0x263A JUMPI PUSH32 0x4E487B7100000000000000000000000000000000000000000000000000000000 PUSH1 0x0 MSTORE PUSH1 0x32 PUSH1 0x4 MSTORE PUSH1 0x24 PUSH1 0x0 REVERT JUMPDEST PUSH1 0x20 MUL PUSH1 0x20 ADD ADD MLOAD DUP4 PUSH2 0x3C6B JUMP JUMPDEST SWAP1 POP PUSH5 0x2540BE400 DUP2 DUP11 PUSH2 0x265C SWAP2 SWAP1 PUSH2 0x5753 JUMP JUMPDEST PUSH2 0x2666 SWAP2 SWAP1 PUSH2 0x55B1 JUMP JUMPDEST DUP5 DUP5 DUP2 MLOAD DUP2 LT PUSH2 0x269F JUMPI PUSH32 0x4E487B7100000000000000000000000000000000000000000000000000000000 PUSH1 0x0 MSTORE PUSH1 0x32 PUSH1 0x4 MSTORE PUSH1 0x24 PUSH1 0x0 REVERT JUMPDEST PUSH1 0x20 MUL PUSH1 0x20 ADD ADD DUP2 DUP2 MSTORE POP POP PUSH5 0x2540BE400 DUP16 PUSH1 0x5 ADD SLOAD DUP6 DUP6 DUP2 MLOAD DUP2 LT PUSH2 0x26EF JUMPI PUSH32 0x4E487B7100000000000000000000000000000000000000000000000000000000 PUSH1 0x0 MSTORE PUSH1 0x32 PUSH1 0x4 MSTORE PUSH1 0x24 PUSH1 0x0 REVERT JUMPDEST PUSH1 0x20 MUL PUSH1 0x20 ADD ADD MLOAD PUSH2 0x2701 SWAP2 SWAP1 PUSH2 0x5753 JUMP JUMPDEST PUSH2 0x270B SWAP2 SWAP1 PUSH2 0x55B1 JUMP JUMPDEST DUP8 DUP5 DUP2 MLOAD DUP2 LT PUSH2 0x2744 JUMPI PUSH32 0x4E487B7100000000000000000000000000000000000000000000000000000000 PUSH1 0x0 MSTORE PUSH1 0x32 PUSH1 0x4 MSTORE PUSH1 0x24 PUSH1 0x0 REVERT JUMPDEST PUSH1 0x20 MUL PUSH1 0x20 ADD ADD MLOAD PUSH2 0x2756 SWAP2 SWAP1 PUSH2 0x57AD JUMP JUMPDEST DUP16 PUSH1 0x3 ADD DUP5 DUP2 SLOAD DUP2 LT PUSH2 0x2792 JUMPI PUSH32 0x4E487B7100000000000000000000000000000000000000000000000000000000 PUSH1 0x0 MSTORE PUSH1 0x32 PUSH1 0x4 MSTORE PUSH1 0x24 PUSH1 0x0 REVERT JUMPDEST SWAP1 PUSH1 0x0 MSTORE PUSH1 0x20 PUSH1 0x0 KECCAK256 ADD DUP2 SWAP1 SSTORE POP DUP4 DUP4 DUP2 MLOAD DUP2 LT PUSH2 0x27D9 JUMPI PUSH32 0x4E487B7100000000000000000000000000000000000000000000000000000000 PUSH1 0x0 MSTORE PUSH1 0x32 PUSH1 0x4 MSTORE PUSH1 0x24 PUSH1 0x0 REVERT JUMPDEST PUSH1 0x20 MUL PUSH1 0x20 ADD ADD MLOAD DUP8 DUP5 DUP2 MLOAD DUP2 LT PUSH2 0x281A JUMPI PUSH32 0x4E487B7100000000000000000000000000000000000000000000000000000000 PUSH1 0x0 MSTORE PUSH1 0x32 PUSH1 0x4 MSTORE PUSH1 0x24 PUSH1 0x0 REVERT JUMPDEST PUSH1 0x20 MUL PUSH1 0x20 ADD ADD DUP2 DUP2 MLOAD PUSH2 0x282E SWAP2 SWAP1 PUSH2 0x57AD JUMP JUMPDEST SWAP2 POP DUP2 DUP2 MSTORE POP POP POP POP DUP1 DUP1 PUSH2 0x2842 SWAP1 PUSH2 0x5897 JUMP JUMPDEST SWAP2 POP POP PUSH2 0x2593 JUMP JUMPDEST POP PUSH2 0x28B0 PUSH2 0x28AA DUP6 DUP15 PUSH1 0x2 ADD DUP1 SLOAD DUP1 PUSH1 0x20 MUL PUSH1 0x20 ADD PUSH1 0x40 MLOAD SWAP1 DUP2 ADD PUSH1 0x40 MSTORE DUP1 SWAP3 SWAP2 SWAP1 DUP2 DUP2 MSTORE PUSH1 0x20 ADD DUP3 DUP1 SLOAD DUP1 ISZERO PUSH2 0x28A0 JUMPI PUSH1 0x20 MUL DUP3 ADD SWAP2 SWAP1 PUSH1 0x0 MSTORE PUSH1 0x20 PUSH1 0x0 KECCAK256 SWAP1 JUMPDEST DUP2 SLOAD DUP2 MSTORE PUSH1 0x20 ADD SWAP1 PUSH1 0x1 ADD SWAP1 DUP1 DUP4 GT PUSH2 0x288C JUMPI JUMPDEST POP POP POP POP POP PUSH2 0x3699 JUMP JUMPDEST DUP7 PUSH2 0x34C1 JUMP JUMPDEST SWAP2 POP DUP3 DUP8 DUP4 DUP6 PUSH2 0x28C0 SWAP2 SWAP1 PUSH2 0x57AD JUMP JUMPDEST PUSH2 0x28CA SWAP2 SWAP1 PUSH2 0x5753 JUMP JUMPDEST PUSH2 0x28D4 SWAP2 SWAP1 PUSH2 0x55B1 JUMP JUMPDEST SWAP9 POP PUSH1 0x0 DUP10 GT PUSH2 0x290D JUMPI PUSH32 0x4E487B7100000000000000000000000000000000000000000000000000000000 PUSH1 0x0 MSTORE PUSH1 0x1 PUSH1 0x4 MSTORE PUSH1 0x24 PUSH1 0x0 REVERT JUMPDEST PUSH2 0x2917 DUP13 CALLER PUSH2 0x4175 JUMP JUMPDEST PUSH5 0x2540BE400 PUSH2 0x2927 SWAP2 SWAP1 PUSH2 0x57AD JUMP JUMPDEST PUSH1 0x1 DUP11 PUSH2 0x2934 SWAP2 SWAP1 PUSH2 0x555B JUMP JUMPDEST PUSH2 0x293E SWAP2 SWAP1 PUSH2 0x5753 JUMP JUMPDEST SWAP9 POP DUP10 DUP10 GT ISZERO PUSH2 0x2983 JUMPI PUSH1 0x40 MLOAD PUSH32 0x8C379A000000000000000000000000000000000000000000000000000000000 DUP2 MSTORE PUSH1 0x4 ADD PUSH2 0x297A SWAP1 PUSH2 0x53B7 JUMP JUMPDEST PUSH1 0x40 MLOAD DUP1 SWAP2 SUB SWAP1 REVERT JUMPDEST DUP12 PUSH1 0x1 ADD PUSH1 0x0 SWAP1 SLOAD SWAP1 PUSH2 0x100 EXP SWAP1 DIV PUSH20 0xFFFFFFFFFFFFFFFFFFFFFFFFFFFFFFFFFFFFFFFF AND PUSH20 0xFFFFFFFFFFFFFFFFFFFFFFFFFFFFFFFFFFFFFFFF AND PUSH4 0x79CC6790 CALLER DUP12 PUSH1 0x40 MLOAD DUP4 PUSH4 0xFFFFFFFF AND PUSH1 0xE0 SHL DUP2 MSTORE PUSH1 0x4 ADD PUSH2 0x29E2 SWAP3 SWAP2 SWAP1 PUSH2 0x5112 JUMP JUMPDEST PUSH1 0x0 PUSH1 0x40 MLOAD DUP1 DUP4 SUB DUP2 PUSH1 0x0 DUP8 DUP1 EXTCODESIZE ISZERO DUP1 ISZERO PUSH2 0x29FC JUMPI PUSH1 0x0 DUP1 REVERT JUMPDEST POP GAS CALL ISZERO DUP1 ISZERO PUSH2 0x2A10 JUMPI RETURNDATASIZE PUSH1 0x0 DUP1 RETURNDATACOPY RETURNDATASIZE PUSH1 0x0 REVERT JUMPDEST POP POP POP POP PUSH1 0x0 JUMPDEST DUP9 DUP2 LT ISZERO PUSH2 0x2B4C JUMPI PUSH1 0x0 DUP13 DUP3 DUP2 MLOAD DUP2 LT PUSH2 0x2A5A JUMPI PUSH32 0x4E487B7100000000000000000000000000000000000000000000000000000000 PUSH1 0x0 MSTORE PUSH1 0x32 PUSH1 0x4 MSTORE PUSH1 0x24 PUSH1 0x0 REVERT JUMPDEST PUSH1 0x20 MUL PUSH1 0x20 ADD ADD MLOAD EQ PUSH2 0x2B39 JUMPI PUSH2 0x2B38 CALLER DUP14 DUP4 DUP2 MLOAD DUP2 LT PUSH2 0x2AA4 JUMPI PUSH32 0x4E487B7100000000000000000000000000000000000000000000000000000000 PUSH1 0x0 MSTORE PUSH1 0x32 PUSH1 0x4 MSTORE PUSH1 0x24 PUSH1 0x0 REVERT JUMPDEST PUSH1 0x20 MUL PUSH1 0x20 ADD ADD MLOAD DUP16 PUSH1 0x0 ADD DUP5 DUP2 SLOAD DUP2 LT PUSH2 0x2AE8 JUMPI PUSH32 0x4E487B7100000000000000000000000000000000000000000000000000000000 PUSH1 0x0 MSTORE PUSH1 0x32 PUSH1 0x4 MSTORE PUSH1 0x24 PUSH1 0x0 REVERT JUMPDEST SWAP1 PUSH1 0x0 MSTORE PUSH1 0x20 PUSH1 0x0 KECCAK256 ADD PUSH1 0x0 SWAP1 SLOAD SWAP1 PUSH2 0x100 EXP SWAP1 DIV PUSH20 0xFFFFFFFFFFFFFFFFFFFFFFFFFFFFFFFFFFFFFFFF AND PUSH20 0xFFFFFFFFFFFFFFFFFFFFFFFFFFFFFFFFFFFFFFFF AND PUSH2 0x3795 SWAP1 SWAP3 SWAP2 SWAP1 PUSH4 0xFFFFFFFF AND JUMP JUMPDEST JUMPDEST DUP1 DUP1 PUSH2 0x2B44 SWAP1 PUSH2 0x5897 JUMP JUMPDEST SWAP2 POP POP PUSH2 0x2A17 JUMP JUMPDEST POP CALLER PUSH20 0xFFFFFFFFFFFFFFFFFFFFFFFFFFFFFFFFFFFFFFFF AND PUSH32 0x3631C28B1F9DD213E0319FB167B554D76B6C283A41143EB400A0D1ADB1AF1755 DUP13 DUP4 DUP6 DUP14 DUP13 PUSH2 0x2B94 SWAP2 SWAP1 PUSH2 0x57AD JUMP JUMPDEST PUSH1 0x40 MLOAD PUSH2 0x2BA4 SWAP5 SWAP4 SWAP3 SWAP2 SWAP1 PUSH2 0x51A2 JUMP JUMPDEST PUSH1 0x40 MLOAD DUP1 SWAP2 SUB SWAP1 LOG2 POP POP POP POP POP POP POP POP SWAP4 SWAP3 POP POP POP JUMP JUMPDEST PUSH1 0x64 DUP2 JUMP JUMPDEST PUSH1 0x0 DUP1 PUSH2 0x2BDD PUSH2 0x2BCF DUP5 PUSH2 0x340A JUMP JUMPDEST PUSH2 0x2BD8 DUP6 PUSH2 0x331C JUMP JUMPDEST PUSH2 0x34C1 JUMP JUMPDEST SWAP1 POP PUSH1 0x0 DUP4 PUSH1 0x1 ADD PUSH1 0x0 SWAP1 SLOAD SWAP1 PUSH2 0x100 EXP SWAP1 DIV PUSH20 0xFFFFFFFFFFFFFFFFFFFFFFFFFFFFFFFFFFFFFFFF AND PUSH20 0xFFFFFFFFFFFFFFFFFFFFFFFFFFFFFFFFFFFFFFFF AND PUSH4 0x18160DDD PUSH1 0x40 MLOAD DUP2 PUSH4 0xFFFFFFFF AND PUSH1 0xE0 SHL DUP2 MSTORE PUSH1 0x4 ADD PUSH1 0x20 PUSH1 0x40 MLOAD DUP1 DUP4 SUB DUP2 DUP7 DUP1 EXTCODESIZE ISZERO DUP1 ISZERO PUSH2 0x2C4B JUMPI PUSH1 0x0 DUP1 REVERT JUMPDEST POP GAS STATICCALL ISZERO DUP1 ISZERO PUSH2 0x2C5F JUMPI RETURNDATASIZE PUSH1 0x0 DUP1 RETURNDATACOPY RETURNDATASIZE PUSH1 0x0 REVERT JUMPDEST POP POP POP POP PUSH1 0x40 MLOAD RETURNDATASIZE PUSH1 0x1F NOT PUSH1 0x1F DUP3 ADD AND DUP3 ADD DUP1 PUSH1 0x40 MSTORE POP DUP2 ADD SWAP1 PUSH2 0x2C83 SWAP2 SWAP1 PUSH2 0x4CD2 JUMP JUMPDEST SWAP1 POP DUP1 PUSH1 0x12 PUSH1 0xA PUSH2 0x2C94 SWAP2 SWAP1 PUSH2 0x5635 JUMP JUMPDEST DUP4 PUSH2 0x2C9F SWAP2 SWAP1 PUSH2 0x5753 JUMP JUMPDEST PUSH2 0x2CA9 SWAP2 SWAP1 PUSH2 0x55B1 JUMP JUMPDEST SWAP3 POP POP POP SWAP2 SWAP1 POP JUMP JUMPDEST PUSH5 0x2540BE400 DUP2 JUMP JUMPDEST PUSH1 0x0 DUP3 PUSH1 0x0 ADD DUP1 SLOAD SWAP1 POP DUP3 LT PUSH2 0x2D06 JUMPI PUSH1 0x40 MLOAD PUSH32 0x8C379A000000000000000000000000000000000000000000000000000000000 DUP2 MSTORE PUSH1 0x4 ADD PUSH2 0x2CFD SWAP1 PUSH2 0x5217 JUMP JUMPDEST PUSH1 0x40 MLOAD DUP1 SWAP2 SUB SWAP1 REVERT JUMPDEST DUP3 PUSH1 0x3 ADD DUP3 DUP2 SLOAD DUP2 LT PUSH2 0x2D42 JUMPI PUSH32 0x4E487B7100000000000000000000000000000000000000000000000000000000 PUSH1 0x0 MSTORE PUSH1 0x32 PUSH1 0x4 MSTORE PUSH1 0x24 PUSH1 0x0 REVERT JUMPDEST SWAP1 PUSH1 0x0 MSTORE PUSH1 0x20 PUSH1 0x0 KECCAK256 ADD SLOAD DUP4 PUSH1 0x0 ADD DUP4 DUP2 SLOAD DUP2 LT PUSH2 0x2D89 JUMPI PUSH32 0x4E487B7100000000000000000000000000000000000000000000000000000000 PUSH1 0x0 MSTORE PUSH1 0x32 PUSH1 0x4 MSTORE PUSH1 0x24 PUSH1 0x0 REVERT JUMPDEST SWAP1 PUSH1 0x0 MSTORE PUSH1 0x20 PUSH1 0x0 KECCAK256 ADD PUSH1 0x0 SWAP1 SLOAD SWAP1 PUSH2 0x100 EXP SWAP1 DIV PUSH20 0xFFFFFFFFFFFFFFFFFFFFFFFFFFFFFFFFFFFFFFFF AND PUSH20 0xFFFFFFFFFFFFFFFFFFFFFFFFFFFFFFFFFFFFFFFF AND PUSH4 0x70A08231 ADDRESS PUSH1 0x40 MLOAD DUP3 PUSH4 0xFFFFFFFF AND PUSH1 0xE0 SHL DUP2 MSTORE PUSH1 0x4 ADD PUSH2 0x2DEC SWAP2 SWAP1 PUSH2 0x50C0 JUMP JUMPDEST PUSH1 0x20 PUSH1 0x40 MLOAD DUP1 DUP4 SUB DUP2 DUP7 DUP1 EXTCODESIZE ISZERO DUP1 ISZERO PUSH2 0x2E04 JUMPI PUSH1 0x0 DUP1 REVERT JUMPDEST POP GAS STATICCALL ISZERO DUP1 ISZERO PUSH2 0x2E18 JUMPI RETURNDATASIZE PUSH1 0x0 DUP1 RETURNDATACOPY RETURNDATASIZE PUSH1 0x0 REVERT JUMPDEST POP POP POP POP PUSH1 0x40 MLOAD RETURNDATASIZE PUSH1 0x1F NOT PUSH1 0x1F DUP3 ADD AND DUP3 ADD DUP1 PUSH1 0x40 MSTORE POP DUP2 ADD SWAP1 PUSH2 0x2E3C SWAP2 SWAP1 PUSH2 0x4CD2 JUMP JUMPDEST PUSH2 0x2E46 SWAP2 SWAP1 PUSH2 0x57AD JUMP JUMPDEST SWAP1 POP SWAP3 SWAP2 POP POP JUMP JUMPDEST PUSH1 0x60 PUSH2 0x2E5B DUP5 DUP5 DUP5 PUSH2 0x3F02 JUMP JUMPDEST SWAP1 POP SWAP4 SWAP3 POP POP POP JUMP JUMPDEST PUSH1 0x0 DUP1 DUP6 PUSH1 0x0 ADD DUP1 SLOAD SWAP1 POP DUP4 LT PUSH2 0x2EB0 JUMPI PUSH1 0x40 MLOAD PUSH32 0x8C379A000000000000000000000000000000000000000000000000000000000 DUP2 MSTORE PUSH1 0x4 ADD PUSH2 0x2EA7 SWAP1 PUSH2 0x5217 JUMP JUMPDEST PUSH1 0x40 MLOAD DUP1 SWAP2 SUB SWAP1 REVERT JUMPDEST PUSH1 0x0 PUSH2 0x2EBB DUP8 PUSH2 0x331C JUMP JUMPDEST SWAP1 POP PUSH1 0x0 PUSH2 0x2EC8 DUP9 PUSH2 0x340A JUMP JUMPDEST SWAP1 POP PUSH1 0x0 PUSH2 0x2ED6 DUP3 DUP5 PUSH2 0x34C1 JUMP JUMPDEST SWAP1 POP PUSH1 0x0 DUP10 PUSH1 0x1 ADD PUSH1 0x0 SWAP1 SLOAD SWAP1 PUSH2 0x100 EXP SWAP1 DIV PUSH20 0xFFFFFFFFFFFFFFFFFFFFFFFFFFFFFFFFFFFFFFFF AND PUSH20 0xFFFFFFFFFFFFFFFFFFFFFFFFFFFFFFFFFFFFFFFF AND PUSH4 0x18160DDD PUSH1 0x40 MLOAD DUP2 PUSH4 0xFFFFFFFF AND PUSH1 0xE0 SHL DUP2 MSTORE PUSH1 0x4 ADD PUSH1 0x20 PUSH1 0x40 MLOAD DUP1 DUP4 SUB DUP2 DUP7 DUP1 EXTCODESIZE ISZERO DUP1 ISZERO PUSH2 0x2F44 JUMPI PUSH1 0x0 DUP1 REVERT JUMPDEST POP GAS STATICCALL ISZERO DUP1 ISZERO PUSH2 0x2F58 JUMPI RETURNDATASIZE PUSH1 0x0 DUP1 RETURNDATACOPY RETURNDATASIZE PUSH1 0x0 REVERT JUMPDEST POP POP POP POP PUSH1 0x40 MLOAD RETURNDATASIZE PUSH1 0x1F NOT PUSH1 0x1F DUP3 ADD AND DUP3 ADD DUP1 PUSH1 0x40 MSTORE POP DUP2 ADD SWAP1 PUSH2 0x2F7C SWAP2 SWAP1 PUSH2 0x4CD2 JUMP JUMPDEST DUP3 DUP10 PUSH2 0x2F88 SWAP2 SWAP1 PUSH2 0x5753 JUMP JUMPDEST PUSH2 0x2F92 SWAP2 SWAP1 PUSH2 0x55B1 JUMP JUMPDEST DUP3 PUSH2 0x2F9D SWAP2 SWAP1 PUSH2 0x57AD JUMP JUMPDEST SWAP1 POP PUSH1 0x0 PUSH2 0x2FAE DUP12 DUP7 DUP11 DUP8 DUP7 PUSH2 0x4271 JUMP JUMPDEST SWAP1 POP PUSH1 0x0 DUP5 SWAP1 POP PUSH1 0x0 PUSH2 0x2FC0 DUP14 PUSH2 0x3C23 JUMP JUMPDEST SWAP1 POP PUSH1 0x0 JUMPDEST DUP14 PUSH1 0x0 ADD DUP1 SLOAD SWAP1 POP DUP2 LT ISZERO PUSH2 0x3170 JUMPI PUSH1 0x0 DUP12 DUP3 EQ ISZERO PUSH2 0x3047 JUMPI DUP5 DUP8 DUP8 DUP11 DUP6 DUP2 MLOAD DUP2 LT PUSH2 0x301A JUMPI PUSH32 0x4E487B7100000000000000000000000000000000000000000000000000000000 PUSH1 0x0 MSTORE PUSH1 0x32 PUSH1 0x4 MSTORE PUSH1 0x24 PUSH1 0x0 REVERT JUMPDEST PUSH1 0x20 MUL PUSH1 0x20 ADD ADD MLOAD PUSH2 0x302C SWAP2 SWAP1 PUSH2 0x5753 JUMP JUMPDEST PUSH2 0x3036 SWAP2 SWAP1 PUSH2 0x55B1 JUMP JUMPDEST PUSH2 0x3040 SWAP2 SWAP1 PUSH2 0x57AD JUMP JUMPDEST SWAP1 POP PUSH2 0x30EC JUMP JUMPDEST DUP7 DUP7 DUP10 DUP5 DUP2 MLOAD DUP2 LT PUSH2 0x3082 JUMPI PUSH32 0x4E487B7100000000000000000000000000000000000000000000000000000000 PUSH1 0x0 MSTORE PUSH1 0x32 PUSH1 0x4 MSTORE PUSH1 0x24 PUSH1 0x0 REVERT JUMPDEST PUSH1 0x20 MUL PUSH1 0x20 ADD ADD MLOAD PUSH2 0x3094 SWAP2 SWAP1 PUSH2 0x5753 JUMP JUMPDEST PUSH2 0x309E SWAP2 SWAP1 PUSH2 0x55B1 JUMP JUMPDEST DUP9 DUP4 DUP2 MLOAD DUP2 LT PUSH2 0x30D7 JUMPI PUSH32 0x4E487B7100000000000000000000000000000000000000000000000000000000 PUSH1 0x0 MSTORE PUSH1 0x32 PUSH1 0x4 MSTORE PUSH1 0x24 PUSH1 0x0 REVERT JUMPDEST PUSH1 0x20 MUL PUSH1 0x20 ADD ADD MLOAD PUSH2 0x30E9 SWAP2 SWAP1 PUSH2 0x57AD JUMP JUMPDEST SWAP1 POP JUMPDEST PUSH5 0x2540BE400 DUP2 DUP5 PUSH2 0x30FE SWAP2 SWAP1 PUSH2 0x5753 JUMP JUMPDEST PUSH2 0x3108 SWAP2 SWAP1 PUSH2 0x55B1 JUMP JUMPDEST DUP5 DUP4 DUP2 MLOAD DUP2 LT PUSH2 0x3141 JUMPI PUSH32 0x4E487B7100000000000000000000000000000000000000000000000000000000 PUSH1 0x0 MSTORE PUSH1 0x32 PUSH1 0x4 MSTORE PUSH1 0x24 PUSH1 0x0 REVERT JUMPDEST PUSH1 0x20 MUL PUSH1 0x20 ADD ADD DUP2 DUP2 MLOAD PUSH2 0x3155 SWAP2 SWAP1 PUSH2 0x57AD JUMP JUMPDEST SWAP2 POP DUP2 DUP2 MSTORE POP POP POP DUP1 DUP1 PUSH2 0x3168 SWAP1 PUSH2 0x5897 JUMP JUMPDEST SWAP2 POP POP PUSH2 0x2FC5 JUMP JUMPDEST POP PUSH2 0x317E DUP14 DUP9 DUP13 DUP6 DUP9 PUSH2 0x4271 JUMP JUMPDEST DUP3 DUP12 DUP2 MLOAD DUP2 LT PUSH2 0x31B7 JUMPI PUSH32 0x4E487B7100000000000000000000000000000000000000000000000000000000 PUSH1 0x0 MSTORE PUSH1 0x32 PUSH1 0x4 MSTORE PUSH1 0x24 PUSH1 0x0 REVERT JUMPDEST PUSH1 0x20 MUL PUSH1 0x20 ADD ADD MLOAD PUSH2 0x31C9 SWAP2 SWAP1 PUSH2 0x57AD JUMP JUMPDEST SWAP9 POP DUP13 PUSH1 0x2 ADD DUP11 DUP2 SLOAD DUP2 LT PUSH2 0x3207 JUMPI PUSH32 0x4E487B7100000000000000000000000000000000000000000000000000000000 PUSH1 0x0 MSTORE PUSH1 0x32 PUSH1 0x4 MSTORE PUSH1 0x24 PUSH1 0x0 REVERT JUMPDEST SWAP1 PUSH1 0x0 MSTORE PUSH1 0x20 PUSH1 0x0 KECCAK256 ADD SLOAD PUSH1 0x1 DUP11 PUSH2 0x321F SWAP2 SWAP1 PUSH2 0x57AD JUMP JUMPDEST PUSH2 0x3229 SWAP2 SWAP1 PUSH2 0x55B1 JUMP JUMPDEST SWAP9 POP DUP9 DUP14 PUSH1 0x2 ADD DUP12 DUP2 SLOAD DUP2 LT PUSH2 0x3268 JUMPI PUSH32 0x4E487B7100000000000000000000000000000000000000000000000000000000 PUSH1 0x0 MSTORE PUSH1 0x32 PUSH1 0x4 MSTORE PUSH1 0x24 PUSH1 0x0 REVERT JUMPDEST SWAP1 PUSH1 0x0 MSTORE PUSH1 0x20 PUSH1 0x0 KECCAK256 ADD SLOAD DUP5 DUP9 DUP14 DUP2 MLOAD DUP2 LT PUSH2 0x32AD JUMPI PUSH32 0x4E487B7100000000000000000000000000000000000000000000000000000000 PUSH1 0x0 MSTORE PUSH1 0x32 PUSH1 0x4 MSTORE PUSH1 0x24 PUSH1 0x0 REVERT JUMPDEST PUSH1 0x20 MUL PUSH1 0x20 ADD ADD MLOAD PUSH2 0x32BF SWAP2 SWAP1 PUSH2 0x57AD JUMP JUMPDEST PUSH2 0x32C9 SWAP2 SWAP1 PUSH2 0x55B1 JUMP JUMPDEST PUSH2 0x32D3 SWAP2 SWAP1 PUSH2 0x57AD JUMP JUMPDEST SWAP8 POP PUSH5 0x2540BE400 PUSH2 0x32E5 DUP15 DUP15 PUSH2 0x4175 JUMP JUMPDEST PUSH5 0x2540BE400 PUSH2 0x32F5 SWAP2 SWAP1 PUSH2 0x57AD JUMP JUMPDEST DUP11 PUSH2 0x3300 SWAP2 SWAP1 PUSH2 0x5753 JUMP JUMPDEST PUSH2 0x330A SWAP2 SWAP1 PUSH2 0x55B1 JUMP JUMPDEST SWAP9 POP POP POP POP POP POP POP POP SWAP5 POP SWAP5 SWAP3 POP POP POP JUMP JUMPDEST PUSH1 0x0 DUP2 PUSH1 0x9 ADD SLOAD TIMESTAMP LT PUSH2 0x3335 JUMPI DUP2 PUSH1 0x7 ADD SLOAD SWAP1 POP PUSH2 0x3405 JUMP JUMPDEST DUP2 PUSH1 0x6 ADD SLOAD DUP3 PUSH1 0x7 ADD SLOAD GT ISZERO PUSH2 0x33A7 JUMPI DUP2 PUSH1 0x8 ADD SLOAD DUP3 PUSH1 0x9 ADD SLOAD PUSH2 0x3359 SWAP2 SWAP1 PUSH2 0x57AD JUMP JUMPDEST DUP3 PUSH1 0x8 ADD SLOAD TIMESTAMP PUSH2 0x3369 SWAP2 SWAP1 PUSH2 0x57AD JUMP JUMPDEST DUP4 PUSH1 0x6 ADD SLOAD DUP5 PUSH1 0x7 ADD SLOAD PUSH2 0x337D SWAP2 SWAP1 PUSH2 0x57AD JUMP JUMPDEST PUSH2 0x3387 SWAP2 SWAP1 PUSH2 0x5753 JUMP JUMPDEST PUSH2 0x3391 SWAP2 SWAP1 PUSH2 0x55B1 JUMP JUMPDEST DUP3 PUSH1 0x6 ADD SLOAD PUSH2 0x33A0 SWAP2 SWAP1 PUSH2 0x555B JUMP JUMPDEST SWAP1 POP PUSH2 0x3405 JUMP JUMPDEST DUP2 PUSH1 0x8 ADD SLOAD DUP3 PUSH1 0x9 ADD SLOAD PUSH2 0x33BB SWAP2 SWAP1 PUSH2 0x57AD JUMP JUMPDEST DUP3 PUSH1 0x8 ADD SLOAD TIMESTAMP PUSH2 0x33CB SWAP2 SWAP1 PUSH2 0x57AD JUMP JUMPDEST DUP4 PUSH1 0x7 ADD SLOAD DUP5 PUSH1 0x6 ADD SLOAD PUSH2 0x33DF SWAP2 SWAP1 PUSH2 0x57AD JUMP JUMPDEST PUSH2 0x33E9 SWAP2 SWAP1 PUSH2 0x5753 JUMP JUMPDEST PUSH2 0x33F3 SWAP2 SWAP1 PUSH2 0x55B1 JUMP JUMPDEST DUP3 PUSH1 0x6 ADD SLOAD PUSH2 0x3402 SWAP2 SWAP1 PUSH2 0x57AD JUMP JUMPDEST SWAP1 POP JUMPDEST SWAP2 SWAP1 POP JUMP JUMPDEST PUSH1 0x60 PUSH2 0x34BA DUP3 PUSH1 0x3 ADD DUP1 SLOAD DUP1 PUSH1 0x20 MUL PUSH1 0x20 ADD PUSH1 0x40 MLOAD SWAP1 DUP2 ADD PUSH1 0x40 MSTORE DUP1 SWAP3 SWAP2 SWAP1 DUP2 DUP2 MSTORE PUSH1 0x20 ADD DUP3 DUP1 SLOAD DUP1 ISZERO PUSH2 0x345D JUMPI PUSH1 0x20 MUL DUP3 ADD SWAP2 SWAP1 PUSH1 0x0 MSTORE PUSH1 0x20 PUSH1 0x0 KECCAK256 SWAP1 JUMPDEST DUP2 SLOAD DUP2 MSTORE PUSH1 0x20 ADD SWAP1 PUSH1 0x1 ADD SWAP1 DUP1 DUP4 GT PUSH2 0x3449 JUMPI JUMPDEST POP POP POP POP POP DUP4 PUSH1 0x2 ADD DUP1 SLOAD DUP1 PUSH1 0x20 MUL PUSH1 0x20 ADD PUSH1 0x40 MLOAD SWAP1 DUP2 ADD PUSH1 0x40 MSTORE DUP1 SWAP3 SWAP2 SWAP1 DUP2 DUP2 MSTORE PUSH1 0x20 ADD DUP3 DUP1 SLOAD DUP1 ISZERO PUSH2 0x34B0 JUMPI PUSH1 0x20 MUL DUP3 ADD SWAP2 SWAP1 PUSH1 0x0 MSTORE PUSH1 0x20 PUSH1 0x0 KECCAK256 SWAP1 JUMPDEST DUP2 SLOAD DUP2 MSTORE PUSH1 0x20 ADD SWAP1 PUSH1 0x1 ADD SWAP1 DUP1 DUP4 GT PUSH2 0x349C JUMPI JUMPDEST POP POP POP POP POP PUSH2 0x3699 JUMP JUMPDEST SWAP1 POP SWAP2 SWAP1 POP JUMP JUMPDEST PUSH1 0x0 DUP1 DUP4 MLOAD SWAP1 POP PUSH1 0x0 PUSH2 0x34D3 DUP6 PUSH2 0x449B JUMP JUMPDEST SWAP1 POP PUSH1 0x0 DUP2 EQ ISZERO PUSH2 0x34E9 JUMPI PUSH1 0x0 SWAP3 POP POP POP PUSH2 0x3693 JUMP JUMPDEST PUSH1 0x0 DUP1 DUP3 SWAP1 POP PUSH1 0x0 DUP5 DUP8 PUSH2 0x34FD SWAP2 SWAP1 PUSH2 0x5753 JUMP JUMPDEST SWAP1 POP PUSH1 0x0 JUMPDEST PUSH2 0x100 DUP2 LT ISZERO PUSH2 0x3657 JUMPI PUSH1 0x0 DUP4 SWAP1 POP PUSH1 0x0 JUMPDEST DUP11 MLOAD DUP2 LT ISZERO PUSH2 0x3594 JUMPI DUP8 DUP12 DUP3 DUP2 MLOAD DUP2 LT PUSH2 0x3557 JUMPI PUSH32 0x4E487B7100000000000000000000000000000000000000000000000000000000 PUSH1 0x0 MSTORE PUSH1 0x32 PUSH1 0x4 MSTORE PUSH1 0x24 PUSH1 0x0 REVERT JUMPDEST PUSH1 0x20 MUL PUSH1 0x20 ADD ADD MLOAD PUSH2 0x3569 SWAP2 SWAP1 PUSH2 0x5753 JUMP JUMPDEST DUP6 DUP4 PUSH2 0x3575 SWAP2 SWAP1 PUSH2 0x5753 JUMP JUMPDEST PUSH2 0x357F SWAP2 SWAP1 PUSH2 0x55B1 JUMP JUMPDEST SWAP2 POP DUP1 DUP1 PUSH2 0x358C SWAP1 PUSH2 0x5897 JUMP JUMPDEST SWAP2 POP POP PUSH2 0x3514 JUMP JUMPDEST POP DUP4 SWAP5 POP DUP1 PUSH1 0x1 DUP9 PUSH2 0x35A6 SWAP2 SWAP1 PUSH2 0x555B JUMP JUMPDEST PUSH2 0x35B0 SWAP2 SWAP1 PUSH2 0x5753 JUMP JUMPDEST PUSH1 0x64 DUP6 PUSH1 0x64 DUP7 PUSH2 0x35C0 SWAP2 SWAP1 PUSH2 0x57AD JUMP JUMPDEST PUSH2 0x35CA SWAP2 SWAP1 PUSH2 0x5753 JUMP JUMPDEST PUSH2 0x35D4 SWAP2 SWAP1 PUSH2 0x55B1 JUMP JUMPDEST PUSH2 0x35DE SWAP2 SWAP1 PUSH2 0x555B JUMP JUMPDEST DUP5 DUP9 DUP4 PUSH2 0x35EB SWAP2 SWAP1 PUSH2 0x5753 JUMP JUMPDEST PUSH1 0x64 DUP10 DUP8 PUSH2 0x35F9 SWAP2 SWAP1 PUSH2 0x5753 JUMP JUMPDEST PUSH2 0x3603 SWAP2 SWAP1 PUSH2 0x55B1 JUMP JUMPDEST PUSH2 0x360D SWAP2 SWAP1 PUSH2 0x555B JUMP JUMPDEST PUSH2 0x3617 SWAP2 SWAP1 PUSH2 0x5753 JUMP JUMPDEST PUSH2 0x3621 SWAP2 SWAP1 PUSH2 0x55B1 JUMP JUMPDEST SWAP4 POP PUSH1 0x1 PUSH2 0x362F DUP6 DUP8 PUSH2 0x3C6B JUMP JUMPDEST GT PUSH2 0x3643 JUMPI DUP4 SWAP8 POP POP POP POP POP POP POP POP PUSH2 0x3693 JUMP JUMPDEST POP DUP1 DUP1 PUSH2 0x364F SWAP1 PUSH2 0x5897 JUMP JUMPDEST SWAP2 POP POP PUSH2 0x3502 JUMP JUMPDEST POP PUSH1 0x40 MLOAD PUSH32 0x8C379A000000000000000000000000000000000000000000000000000000000 DUP2 MSTORE PUSH1 0x4 ADD PUSH2 0x368A SWAP1 PUSH2 0x5277 JUMP JUMPDEST PUSH1 0x40 MLOAD DUP1 SWAP2 SUB SWAP1 REVERT JUMPDEST SWAP3 SWAP2 POP POP JUMP JUMPDEST PUSH1 0x60 PUSH1 0x0 JUMPDEST DUP4 MLOAD DUP2 LT ISZERO PUSH2 0x378B JUMPI DUP4 DUP2 DUP2 MLOAD DUP2 LT PUSH2 0x36E0 JUMPI PUSH32 0x4E487B7100000000000000000000000000000000000000000000000000000000 PUSH1 0x0 MSTORE PUSH1 0x32 PUSH1 0x4 MSTORE PUSH1 0x24 PUSH1 0x0 REVERT JUMPDEST PUSH1 0x20 MUL PUSH1 0x20 ADD ADD MLOAD DUP4 DUP3 DUP2 MLOAD DUP2 LT PUSH2 0x3721 JUMPI PUSH32 0x4E487B7100000000000000000000000000000000000000000000000000000000 PUSH1 0x0 MSTORE PUSH1 0x32 PUSH1 0x4 MSTORE PUSH1 0x24 PUSH1 0x0 REVERT JUMPDEST PUSH1 0x20 MUL PUSH1 0x20 ADD ADD MLOAD PUSH2 0x3733 SWAP2 SWAP1 PUSH2 0x5753 JUMP JUMPDEST DUP4 DUP3 DUP2 MLOAD DUP2 LT PUSH2 0x376C JUMPI PUSH32 0x4E487B7100000000000000000000000000000000000000000000000000000000 PUSH1 0x0 MSTORE PUSH1 0x32 PUSH1 0x4 MSTORE PUSH1 0x24 PUSH1 0x0 REVERT JUMPDEST PUSH1 0x20 MUL PUSH1 0x20 ADD ADD DUP2 DUP2 MSTORE POP POP DUP1 DUP1 PUSH2 0x3783 SWAP1 PUSH2 0x5897 JUMP JUMPDEST SWAP2 POP POP PUSH2 0x369E JUMP JUMPDEST POP DUP2 SWAP1 POP SWAP3 SWAP2 POP POP JUMP JUMPDEST PUSH2 0x3816 DUP4 PUSH4 0xA9059CBB PUSH1 0xE0 SHL DUP5 DUP5 PUSH1 0x40 MLOAD PUSH1 0x24 ADD PUSH2 0x37B4 SWAP3 SWAP2 SWAP1 PUSH2 0x5112 JUMP JUMPDEST PUSH1 0x40 MLOAD PUSH1 0x20 DUP2 DUP4 SUB SUB DUP2 MSTORE SWAP1 PUSH1 0x40 MSTORE SWAP1 PUSH28 0xFFFFFFFFFFFFFFFFFFFFFFFFFFFFFFFFFFFFFFFFFFFFFFFFFFFFFFFF NOT AND PUSH1 0x20 DUP3 ADD DUP1 MLOAD PUSH28 0xFFFFFFFFFFFFFFFFFFFFFFFFFFFFFFFFFFFFFFFFFFFFFFFFFFFFFFFF DUP4 DUP2 DUP4 AND OR DUP4 MSTORE POP POP POP POP PUSH2 0x450F JUMP JUMPDEST POP POP POP JUMP JUMPDEST PUSH1 0x0 DUP1 DUP4 PUSH20 0xFFFFFFFFFFFFFFFFFFFFFFFFFFFFFFFFFFFFFFFF AND PUSH4 0x70A08231 ADDRESS PUSH1 0x40 MLOAD DUP3 PUSH4 0xFFFFFFFF AND PUSH1 0xE0 SHL DUP2 MSTORE PUSH1 0x4 ADD PUSH2 0x3857 SWAP2 SWAP1 PUSH2 0x50C0 JUMP JUMPDEST PUSH1 0x20 PUSH1 0x40 MLOAD DUP1 DUP4 SUB DUP2 DUP7 DUP1 EXTCODESIZE ISZERO DUP1 ISZERO PUSH2 0x386F JUMPI PUSH1 0x0 DUP1 REVERT JUMPDEST POP GAS STATICCALL ISZERO DUP1 ISZERO PUSH2 0x3883 JUMPI RETURNDATASIZE PUSH1 0x0 DUP1 RETURNDATACOPY RETURNDATASIZE PUSH1 0x0 REVERT JUMPDEST POP POP POP POP PUSH1 0x40 MLOAD RETURNDATASIZE PUSH1 0x1F NOT PUSH1 0x1F DUP3 ADD AND DUP3 ADD DUP1 PUSH1 0x40 MSTORE POP DUP2 ADD SWAP1 PUSH2 0x38A7 SWAP2 SWAP1 PUSH2 0x4CD2 JUMP JUMPDEST SWAP1 POP PUSH2 0x38D6 CALLER ADDRESS DUP6 DUP8 PUSH20 0xFFFFFFFFFFFFFFFFFFFFFFFFFFFFFFFFFFFFFFFF AND PUSH2 0x45D6 SWAP1 SWAP4 SWAP3 SWAP2 SWAP1 PUSH4 0xFFFFFFFF AND JUMP JUMPDEST DUP1 DUP5 PUSH20 0xFFFFFFFFFFFFFFFFFFFFFFFFFFFFFFFFFFFFFFFF AND PUSH4 0x70A08231 ADDRESS PUSH1 0x40 MLOAD DUP3 PUSH4 0xFFFFFFFF AND PUSH1 0xE0 SHL DUP2 MSTORE PUSH1 0x4 ADD PUSH2 0x3910 SWAP2 SWAP1 PUSH2 0x50C0 JUMP JUMPDEST PUSH1 0x20 PUSH1 0x40 MLOAD DUP1 DUP4 SUB DUP2 DUP7 DUP1 EXTCODESIZE ISZERO DUP1 ISZERO PUSH2 0x3928 JUMPI PUSH1 0x0 DUP1 REVERT JUMPDEST POP GAS STATICCALL ISZERO DUP1 ISZERO PUSH2 0x393C JUMPI RETURNDATASIZE PUSH1 0x0 DUP1 RETURNDATACOPY RETURNDATASIZE PUSH1 0x0 REVERT JUMPDEST POP POP POP POP PUSH1 0x40 MLOAD RETURNDATASIZE PUSH1 0x1F NOT PUSH1 0x1F DUP3 ADD AND DUP3 ADD DUP1 PUSH1 0x40 MSTORE POP DUP2 ADD SWAP1 PUSH2 0x3960 SWAP2 SWAP1 PUSH2 0x4CD2 JUMP JUMPDEST PUSH2 0x396A SWAP2 SWAP1 PUSH2 0x57AD JUMP JUMPDEST SWAP2 POP POP SWAP3 SWAP2 POP POP JUMP JUMPDEST PUSH1 0x0 DUP4 DUP6 EQ ISZERO PUSH2 0x39B8 JUMPI PUSH1 0x40 MLOAD PUSH32 0x8C379A000000000000000000000000000000000000000000000000000000000 DUP2 MSTORE PUSH1 0x4 ADD PUSH2 0x39AF SWAP1 PUSH2 0x5297 JUMP JUMPDEST PUSH1 0x40 MLOAD DUP1 SWAP2 SUB SWAP1 REVERT JUMPDEST PUSH1 0x0 DUP7 PUSH1 0x0 ADD DUP1 SLOAD SWAP1 POP SWAP1 POP DUP1 DUP7 LT DUP1 ISZERO PUSH2 0x39D2 JUMPI POP DUP1 DUP6 LT JUMPDEST PUSH2 0x3A11 JUMPI PUSH1 0x40 MLOAD PUSH32 0x8C379A000000000000000000000000000000000000000000000000000000000 DUP2 MSTORE PUSH1 0x4 ADD PUSH2 0x3A08 SWAP1 PUSH2 0x5217 JUMP JUMPDEST PUSH1 0x40 MLOAD DUP1 SWAP2 SUB SWAP1 REVERT JUMPDEST PUSH1 0x0 PUSH2 0x3A1C DUP9 PUSH2 0x331C JUMP JUMPDEST SWAP1 POP PUSH1 0x0 DUP3 DUP3 PUSH2 0x3A2C SWAP2 SWAP1 PUSH2 0x5753 JUMP JUMPDEST SWAP1 POP PUSH1 0x0 PUSH2 0x3A3A DUP7 DUP5 PUSH2 0x34C1 JUMP JUMPDEST SWAP1 POP PUSH1 0x0 DUP1 DUP3 SWAP1 POP PUSH1 0x0 JUMPDEST DUP7 DUP2 LT ISZERO PUSH2 0x3AF4 JUMPI DUP11 DUP2 EQ ISZERO PUSH2 0x3A5A JUMPI PUSH2 0x3AE1 JUMP JUMPDEST PUSH1 0x0 DUP13 DUP3 EQ PUSH2 0x3AA9 JUMPI DUP10 DUP3 DUP2 MLOAD DUP2 LT PUSH2 0x3A9C JUMPI PUSH32 0x4E487B7100000000000000000000000000000000000000000000000000000000 PUSH1 0x0 MSTORE PUSH1 0x32 PUSH1 0x4 MSTORE PUSH1 0x24 PUSH1 0x0 REVERT JUMPDEST PUSH1 0x20 MUL PUSH1 0x20 ADD ADD MLOAD PUSH2 0x3AAB JUMP JUMPDEST DUP11 JUMPDEST SWAP1 POP DUP1 DUP5 PUSH2 0x3AB9 SWAP2 SWAP1 PUSH2 0x555B JUMP JUMPDEST SWAP4 POP DUP8 DUP2 PUSH2 0x3AC7 SWAP2 SWAP1 PUSH2 0x5753 JUMP JUMPDEST DUP6 DUP5 PUSH2 0x3AD3 SWAP2 SWAP1 PUSH2 0x5753 JUMP JUMPDEST PUSH2 0x3ADD SWAP2 SWAP1 PUSH2 0x55B1 JUMP JUMPDEST SWAP3 POP POP JUMPDEST DUP1 DUP1 PUSH2 0x3AEC SWAP1 PUSH2 0x5897 JUMP JUMPDEST SWAP2 POP POP PUSH2 0x3A45 JUMP JUMPDEST POP DUP6 DUP5 PUSH2 0x3B01 SWAP2 SWAP1 PUSH2 0x5753 JUMP JUMPDEST PUSH1 0x64 DUP5 DUP4 PUSH2 0x3B0F SWAP2 SWAP1 PUSH2 0x5753 JUMP JUMPDEST PUSH2 0x3B19 SWAP2 SWAP1 PUSH2 0x5753 JUMP JUMPDEST PUSH2 0x3B23 SWAP2 SWAP1 PUSH2 0x55B1 JUMP JUMPDEST SWAP1 POP PUSH1 0x0 DUP5 PUSH1 0x64 DUP6 PUSH2 0x3B35 SWAP2 SWAP1 PUSH2 0x5753 JUMP JUMPDEST PUSH2 0x3B3F SWAP2 SWAP1 PUSH2 0x55B1 JUMP JUMPDEST DUP4 PUSH2 0x3B4A SWAP2 SWAP1 PUSH2 0x555B JUMP JUMPDEST SWAP1 POP PUSH1 0x0 DUP1 DUP6 SWAP1 POP PUSH1 0x0 JUMPDEST PUSH2 0x100 DUP2 LT ISZERO PUSH2 0x3BDE JUMPI DUP2 SWAP3 POP DUP7 DUP5 DUP4 PUSH1 0x2 PUSH2 0x3B71 SWAP2 SWAP1 PUSH2 0x5753 JUMP JUMPDEST PUSH2 0x3B7B SWAP2 SWAP1 PUSH2 0x555B JUMP JUMPDEST PUSH2 0x3B85 SWAP2 SWAP1 PUSH2 0x57AD JUMP JUMPDEST DUP6 DUP4 DUP5 PUSH2 0x3B92 SWAP2 SWAP1 PUSH2 0x5753 JUMP JUMPDEST PUSH2 0x3B9C SWAP2 SWAP1 PUSH2 0x555B JUMP JUMPDEST PUSH2 0x3BA6 SWAP2 SWAP1 PUSH2 0x55B1 JUMP JUMPDEST SWAP2 POP PUSH1 0x1 PUSH2 0x3BB4 DUP5 DUP5 PUSH2 0x3C6B JUMP JUMPDEST GT PUSH2 0x3BCB JUMPI DUP2 SWAP11 POP POP POP POP POP POP POP POP POP POP POP PUSH2 0x3C1A JUMP JUMPDEST DUP1 DUP1 PUSH2 0x3BD6 SWAP1 PUSH2 0x5897 JUMP JUMPDEST SWAP2 POP POP PUSH2 0x3B55 JUMP JUMPDEST POP PUSH1 0x40 MLOAD PUSH32 0x8C379A000000000000000000000000000000000000000000000000000000000 DUP2 MSTORE PUSH1 0x4 ADD PUSH2 0x3C11 SWAP1 PUSH2 0x5337 JUMP JUMPDEST PUSH1 0x40 MLOAD DUP1 SWAP2 SUB SWAP1 REVERT JUMPDEST SWAP6 SWAP5 POP POP POP POP POP JUMP JUMPDEST PUSH1 0x0 DUP1 DUP3 PUSH1 0x0 ADD DUP1 SLOAD SWAP1 POP SWAP1 POP PUSH1 0x1 DUP2 PUSH2 0x3C3D SWAP2 SWAP1 PUSH2 0x57AD JUMP JUMPDEST PUSH1 0x4 PUSH2 0x3C49 SWAP2 SWAP1 PUSH2 0x5753 JUMP JUMPDEST DUP2 DUP5 PUSH1 0x4 ADD SLOAD PUSH2 0x3C59 SWAP2 SWAP1 PUSH2 0x5753 JUMP JUMPDEST PUSH2 0x3C63 SWAP2 SWAP1 PUSH2 0x55B1 JUMP JUMPDEST SWAP2 POP POP SWAP2 SWAP1 POP JUMP JUMPDEST PUSH1 0x0 DUP2 DUP4 GT PUSH2 0x3C85 JUMPI DUP3 DUP3 PUSH2 0x3C80 SWAP2 SWAP1 PUSH2 0x57AD JUMP JUMPDEST PUSH2 0x3C92 JUMP JUMPDEST DUP2 DUP4 PUSH2 0x3C91 SWAP2 SWAP1 PUSH2 0x57AD JUMP JUMPDEST JUMPDEST SWAP1 POP SWAP3 SWAP2 POP POP JUMP JUMPDEST PUSH1 0x0 PUSH20 0xFFFFFFFFFFFFFFFFFFFFFFFFFFFFFFFFFFFFFFFF AND DUP3 PUSH20 0xFFFFFFFFFFFFFFFFFFFFFFFFFFFFFFFFFFFFFFFF AND EQ ISZERO PUSH2 0x3CD4 JUMPI PUSH2 0x3EFD JUMP JUMPDEST PUSH1 0x0 DUP4 PUSH1 0xA ADD SLOAD EQ ISZERO PUSH2 0x3D31 JUMPI PUSH5 0x2540BE400 DUP4 PUSH1 0xC ADD PUSH1 0x0 DUP5 PUSH20 0xFFFFFFFFFFFFFFFFFFFFFFFFFFFFFFFFFFFFFFFF AND PUSH20 0xFFFFFFFFFFFFFFFFFFFFFFFFFFFFFFFFFFFFFFFF AND DUP2 MSTORE PUSH1 0x20 ADD SWAP1 DUP2 MSTORE PUSH1 0x20 ADD PUSH1 0x0 KECCAK256 DUP2 SWAP1 SSTORE POP PUSH2 0x3EB6 JUMP JUMPDEST PUSH1 0x0 PUSH2 0x3D3D DUP5 DUP5 PUSH2 0x4175 JUMP JUMPDEST SWAP1 POP PUSH1 0x0 DUP5 PUSH1 0x1 ADD PUSH1 0x0 SWAP1 SLOAD SWAP1 PUSH2 0x100 EXP SWAP1 DIV PUSH20 0xFFFFFFFFFFFFFFFFFFFFFFFFFFFFFFFFFFFFFFFF AND PUSH20 0xFFFFFFFFFFFFFFFFFFFFFFFFFFFFFFFFFFFFFFFF AND PUSH4 0x70A08231 DUP6 PUSH1 0x40 MLOAD DUP3 PUSH4 0xFFFFFFFF AND PUSH1 0xE0 SHL DUP2 MSTORE PUSH1 0x4 ADD PUSH2 0x3D9E SWAP2 SWAP1 PUSH2 0x50C0 JUMP JUMPDEST PUSH1 0x20 PUSH1 0x40 MLOAD DUP1 DUP4 SUB DUP2 DUP7 DUP1 EXTCODESIZE ISZERO DUP1 ISZERO PUSH2 0x3DB6 JUMPI PUSH1 0x0 DUP1 REVERT JUMPDEST POP GAS STATICCALL ISZERO DUP1 ISZERO PUSH2 0x3DCA JUMPI RETURNDATASIZE PUSH1 0x0 DUP1 RETURNDATACOPY RETURNDATASIZE PUSH1 0x0 REVERT JUMPDEST POP POP POP POP PUSH1 0x40 MLOAD RETURNDATASIZE PUSH1 0x1F NOT PUSH1 0x1F DUP3 ADD AND DUP3 ADD DUP1 PUSH1 0x40 MSTORE POP DUP2 ADD SWAP1 PUSH2 0x3DEE SWAP2 SWAP1 PUSH2 0x4CD2 JUMP JUMPDEST SWAP1 POP PUSH1 0x0 DUP6 PUSH1 0xA ADD SLOAD DUP3 DUP6 PUSH2 0x3E03 SWAP2 SWAP1 PUSH2 0x555B JUMP JUMPDEST PUSH2 0x3E0D SWAP2 SWAP1 PUSH2 0x5753 JUMP JUMPDEST EQ PUSH2 0x3EB3 JUMPI DUP5 PUSH1 0xA ADD SLOAD DUP2 DUP5 PUSH2 0x3E23 SWAP2 SWAP1 PUSH2 0x555B JUMP JUMPDEST PUSH2 0x3E2D SWAP2 SWAP1 PUSH2 0x5753 JUMP JUMPDEST PUSH5 0x2540BE400 DUP7 PUSH1 0xA ADD SLOAD DUP6 PUSH2 0x3E43 SWAP2 SWAP1 PUSH2 0x5753 JUMP JUMPDEST DUP5 DUP5 PUSH2 0x3E4F SWAP2 SWAP1 PUSH2 0x5753 JUMP JUMPDEST PUSH2 0x3E59 SWAP2 SWAP1 PUSH2 0x555B JUMP JUMPDEST PUSH2 0x3E63 SWAP2 SWAP1 PUSH2 0x5753 JUMP JUMPDEST PUSH2 0x3E6D SWAP2 SWAP1 PUSH2 0x55B1 JUMP JUMPDEST DUP6 PUSH1 0xC ADD PUSH1 0x0 DUP7 PUSH20 0xFFFFFFFFFFFFFFFFFFFFFFFFFFFFFFFFFFFFFFFF AND PUSH20 0xFFFFFFFFFFFFFFFFFFFFFFFFFFFFFFFFFFFFFFFF AND DUP2 MSTORE PUSH1 0x20 ADD SWAP1 DUP2 MSTORE PUSH1 0x20 ADD PUSH1 0x0 KECCAK256 DUP2 SWAP1 SSTORE POP JUMPDEST POP POP JUMPDEST TIMESTAMP DUP4 PUSH1 0xB ADD PUSH1 0x0 DUP5 PUSH20 0xFFFFFFFFFFFFFFFFFFFFFFFFFFFFFFFFFFFFFFFF AND PUSH20 0xFFFFFFFFFFFFFFFFFFFFFFFFFFFFFFFFFFFFFFFF AND DUP2 MSTORE PUSH1 0x20 ADD SWAP1 DUP2 MSTORE PUSH1 0x20 ADD PUSH1 0x0 KECCAK256 DUP2 SWAP1 SSTORE POP JUMPDEST POP POP POP JUMP JUMPDEST PUSH1 0x60 PUSH1 0x0 DUP5 PUSH1 0x1 ADD PUSH1 0x0 SWAP1 SLOAD SWAP1 PUSH2 0x100 EXP SWAP1 DIV PUSH20 0xFFFFFFFFFFFFFFFFFFFFFFFFFFFFFFFFFFFFFFFF AND PUSH20 0xFFFFFFFFFFFFFFFFFFFFFFFFFFFFFFFFFFFFFFFF AND PUSH4 0x18160DDD PUSH1 0x40 MLOAD DUP2 PUSH4 0xFFFFFFFF AND PUSH1 0xE0 SHL DUP2 MSTORE PUSH1 0x4 ADD PUSH1 0x20 PUSH1 0x40 MLOAD DUP1 DUP4 SUB DUP2 DUP7 DUP1 EXTCODESIZE ISZERO DUP1 ISZERO PUSH2 0x3F70 JUMPI PUSH1 0x0 DUP1 REVERT JUMPDEST POP GAS STATICCALL ISZERO DUP1 ISZERO PUSH2 0x3F84 JUMPI RETURNDATASIZE PUSH1 0x0 DUP1 RETURNDATACOPY RETURNDATASIZE PUSH1 0x0 REVERT JUMPDEST POP POP POP POP PUSH1 0x40 MLOAD RETURNDATASIZE PUSH1 0x1F NOT PUSH1 0x1F DUP3 ADD AND DUP3 ADD DUP1 PUSH1 0x40 MSTORE POP DUP2 ADD SWAP1 PUSH2 0x3FA8 SWAP2 SWAP1 PUSH2 0x4CD2 JUMP JUMPDEST SWAP1 POP DUP1 DUP4 GT ISZERO PUSH2 0x3FED JUMPI PUSH1 0x40 MLOAD PUSH32 0x8C379A000000000000000000000000000000000000000000000000000000000 DUP2 MSTORE PUSH1 0x4 ADD PUSH2 0x3FE4 SWAP1 PUSH2 0x5377 JUMP JUMPDEST PUSH1 0x40 MLOAD DUP1 SWAP2 SUB SWAP1 REVERT JUMPDEST PUSH1 0x0 PUSH5 0x2540BE400 PUSH2 0x3FFF DUP8 DUP8 PUSH2 0x4175 JUMP JUMPDEST PUSH5 0x2540BE400 PUSH2 0x400F SWAP2 SWAP1 PUSH2 0x57AD JUMP JUMPDEST DUP6 PUSH2 0x401A SWAP2 SWAP1 PUSH2 0x5753 JUMP JUMPDEST PUSH2 0x4024 SWAP2 SWAP1 PUSH2 0x55B1 JUMP JUMPDEST SWAP1 POP PUSH1 0x0 DUP7 PUSH1 0x0 ADD DUP1 SLOAD SWAP1 POP PUSH8 0xFFFFFFFFFFFFFFFF DUP2 GT ISZERO PUSH2 0x406F JUMPI PUSH32 0x4E487B7100000000000000000000000000000000000000000000000000000000 PUSH1 0x0 MSTORE PUSH1 0x41 PUSH1 0x4 MSTORE PUSH1 0x24 PUSH1 0x0 REVERT JUMPDEST PUSH1 0x40 MLOAD SWAP1 DUP1 DUP3 MSTORE DUP1 PUSH1 0x20 MUL PUSH1 0x20 ADD DUP3 ADD PUSH1 0x40 MSTORE DUP1 ISZERO PUSH2 0x409D JUMPI DUP2 PUSH1 0x20 ADD PUSH1 0x20 DUP3 MUL DUP1 CALLDATASIZE DUP4 CALLDATACOPY DUP1 DUP3 ADD SWAP2 POP POP SWAP1 POP JUMPDEST POP SWAP1 POP PUSH1 0x0 JUMPDEST DUP8 PUSH1 0x0 ADD DUP1 SLOAD SWAP1 POP DUP2 LT ISZERO PUSH2 0x4167 JUMPI DUP4 DUP4 DUP10 PUSH1 0x3 ADD DUP4 DUP2 SLOAD DUP2 LT PUSH2 0x40F0 JUMPI PUSH32 0x4E487B7100000000000000000000000000000000000000000000000000000000 PUSH1 0x0 MSTORE PUSH1 0x32 PUSH1 0x4 MSTORE PUSH1 0x24 PUSH1 0x0 REVERT JUMPDEST SWAP1 PUSH1 0x0 MSTORE PUSH1 0x20 PUSH1 0x0 KECCAK256 ADD SLOAD PUSH2 0x4105 SWAP2 SWAP1 PUSH2 0x5753 JUMP JUMPDEST PUSH2 0x410F SWAP2 SWAP1 PUSH2 0x55B1 JUMP JUMPDEST DUP3 DUP3 DUP2 MLOAD DUP2 LT PUSH2 0x4148 JUMPI PUSH32 0x4E487B7100000000000000000000000000000000000000000000000000000000 PUSH1 0x0 MSTORE PUSH1 0x32 PUSH1 0x4 MSTORE PUSH1 0x24 PUSH1 0x0 REVERT JUMPDEST PUSH1 0x20 MUL PUSH1 0x20 ADD ADD DUP2 DUP2 MSTORE POP POP DUP1 DUP1 PUSH2 0x415F SWAP1 PUSH2 0x5897 JUMP JUMPDEST SWAP2 POP POP PUSH2 0x40A3 JUMP JUMPDEST POP DUP1 SWAP4 POP POP POP POP SWAP4 SWAP3 POP POP POP JUMP JUMPDEST PUSH1 0x0 DUP1 PUSH3 0x24EA00 DUP5 PUSH1 0xB ADD PUSH1 0x0 DUP6 PUSH20 0xFFFFFFFFFFFFFFFFFFFFFFFFFFFFFFFFFFFFFFFF AND PUSH20 0xFFFFFFFFFFFFFFFFFFFFFFFFFFFFFFFFFFFFFFFF AND DUP2 MSTORE PUSH1 0x20 ADD SWAP1 DUP2 MSTORE PUSH1 0x20 ADD PUSH1 0x0 KECCAK256 SLOAD PUSH2 0x41C8 SWAP2 SWAP1 PUSH2 0x555B JUMP JUMPDEST SWAP1 POP TIMESTAMP DUP2 GT ISZERO PUSH2 0x4265 JUMPI PUSH1 0x0 TIMESTAMP DUP3 PUSH2 0x41E0 SWAP2 SWAP1 PUSH2 0x57AD JUMP JUMPDEST SWAP1 POP PUSH5 0x2540BE400 PUSH3 0x24EA00 DUP3 DUP8 PUSH1 0xC ADD PUSH1 0x0 DUP9 PUSH20 0xFFFFFFFFFFFFFFFFFFFFFFFFFFFFFFFFFFFFFFFF AND PUSH20 0xFFFFFFFFFFFFFFFFFFFFFFFFFFFFFFFFFFFFFFFF AND DUP2 MSTORE PUSH1 0x20 ADD SWAP1 DUP2 MSTORE PUSH1 0x20 ADD PUSH1 0x0 KECCAK256 SLOAD DUP9 PUSH1 0xA ADD SLOAD PUSH2 0x423E SWAP2 SWAP1 PUSH2 0x5753 JUMP JUMPDEST PUSH2 0x4248 SWAP2 SWAP1 PUSH2 0x5753 JUMP JUMPDEST PUSH2 0x4252 SWAP2 SWAP1 PUSH2 0x55B1 JUMP JUMPDEST PUSH2 0x425C SWAP2 SWAP1 PUSH2 0x55B1 JUMP JUMPDEST SWAP3 POP POP POP PUSH2 0x426B JUMP JUMPDEST PUSH1 0x0 SWAP2 POP POP JUMPDEST SWAP3 SWAP2 POP POP JUMP JUMPDEST PUSH1 0x0 DUP1 DUP7 PUSH1 0x0 ADD DUP1 SLOAD SWAP1 POP SWAP1 POP DUP1 DUP6 LT PUSH2 0x42B4 JUMPI PUSH32 0x4E487B7100000000000000000000000000000000000000000000000000000000 PUSH1 0x0 MSTORE PUSH1 0x1 PUSH1 0x4 MSTORE PUSH1 0x24 PUSH1 0x0 REVERT JUMPDEST PUSH1 0x0 DUP2 DUP8 PUSH2 0x42C2 SWAP2 SWAP1 PUSH2 0x5753 JUMP JUMPDEST SWAP1 POP PUSH1 0x0 DUP5 SWAP1 POP PUSH1 0x0 DUP1 PUSH1 0x0 DUP1 JUMPDEST DUP7 DUP2 LT ISZERO PUSH2 0x436E JUMPI DUP11 DUP2 EQ ISZERO PUSH2 0x42E5 JUMPI PUSH2 0x435B JUMP JUMPDEST DUP10 DUP2 DUP2 MLOAD DUP2 LT PUSH2 0x431E JUMPI PUSH32 0x4E487B7100000000000000000000000000000000000000000000000000000000 PUSH1 0x0 MSTORE PUSH1 0x32 PUSH1 0x4 MSTORE PUSH1 0x24 PUSH1 0x0 REVERT JUMPDEST PUSH1 0x20 MUL PUSH1 0x20 ADD ADD MLOAD SWAP3 POP DUP3 DUP5 PUSH2 0x4334 SWAP2 SWAP1 PUSH2 0x555B JUMP JUMPDEST SWAP4 POP DUP7 DUP4 PUSH2 0x4342 SWAP2 SWAP1 PUSH2 0x5753 JUMP JUMPDEST DUP10 DUP7 PUSH2 0x434E SWAP2 SWAP1 PUSH2 0x5753 JUMP JUMPDEST PUSH2 0x4358 SWAP2 SWAP1 PUSH2 0x55B1 JUMP JUMPDEST SWAP5 POP JUMPDEST DUP1 DUP1 PUSH2 0x4366 SWAP1 PUSH2 0x5897 JUMP JUMPDEST SWAP2 POP POP PUSH2 0x42D0 JUMP JUMPDEST POP DUP6 DUP6 PUSH2 0x437B SWAP2 SWAP1 PUSH2 0x5753 JUMP JUMPDEST PUSH1 0x64 DUP10 DUP7 PUSH2 0x4389 SWAP2 SWAP1 PUSH2 0x5753 JUMP JUMPDEST PUSH2 0x4393 SWAP2 SWAP1 PUSH2 0x5753 JUMP JUMPDEST PUSH2 0x439D SWAP2 SWAP1 PUSH2 0x55B1 JUMP JUMPDEST SWAP4 POP PUSH1 0x0 DUP6 PUSH1 0x64 DUP11 PUSH2 0x43AF SWAP2 SWAP1 PUSH2 0x5753 JUMP JUMPDEST PUSH2 0x43B9 SWAP2 SWAP1 PUSH2 0x55B1 JUMP JUMPDEST DUP5 PUSH2 0x43C4 SWAP2 SWAP1 PUSH2 0x555B JUMP JUMPDEST SWAP1 POP PUSH1 0x0 DUP10 SWAP1 POP PUSH1 0x0 JUMPDEST PUSH2 0x100 DUP2 LT ISZERO PUSH2 0x4456 JUMPI DUP2 SWAP4 POP DUP11 DUP4 DUP4 PUSH1 0x2 PUSH2 0x43EA SWAP2 SWAP1 PUSH2 0x5753 JUMP JUMPDEST PUSH2 0x43F4 SWAP2 SWAP1 PUSH2 0x555B JUMP JUMPDEST PUSH2 0x43FE SWAP2 SWAP1 PUSH2 0x57AD JUMP JUMPDEST DUP8 DUP4 DUP5 PUSH2 0x440B SWAP2 SWAP1 PUSH2 0x5753 JUMP JUMPDEST PUSH2 0x4415 SWAP2 SWAP1 PUSH2 0x555B JUMP JUMPDEST PUSH2 0x441F SWAP2 SWAP1 PUSH2 0x55B1 JUMP JUMPDEST SWAP2 POP PUSH1 0x1 PUSH2 0x442D DUP6 DUP5 PUSH2 0x3C6B JUMP JUMPDEST GT PUSH2 0x4443 JUMPI DUP2 SWAP10 POP POP POP POP POP POP POP POP POP POP PUSH2 0x4492 JUMP JUMPDEST DUP1 DUP1 PUSH2 0x444E SWAP1 PUSH2 0x5897 JUMP JUMPDEST SWAP2 POP POP PUSH2 0x43CE JUMP JUMPDEST POP PUSH1 0x40 MLOAD PUSH32 0x8C379A000000000000000000000000000000000000000000000000000000000 DUP2 MSTORE PUSH1 0x4 ADD PUSH2 0x4489 SWAP1 PUSH2 0x5277 JUMP JUMPDEST PUSH1 0x40 MLOAD DUP1 SWAP2 SUB SWAP1 REVERT JUMPDEST SWAP6 SWAP5 POP POP POP POP POP JUMP JUMPDEST PUSH1 0x0 DUP1 JUMPDEST DUP3 MLOAD DUP2 LT ISZERO PUSH2 0x4509 JUMPI DUP3 DUP2 DUP2 MLOAD DUP2 LT PUSH2 0x44E1 JUMPI PUSH32 0x4E487B7100000000000000000000000000000000000000000000000000000000 PUSH1 0x0 MSTORE PUSH1 0x32 PUSH1 0x4 MSTORE PUSH1 0x24 PUSH1 0x0 REVERT JUMPDEST PUSH1 0x20 MUL PUSH1 0x20 ADD ADD MLOAD DUP3 PUSH2 0x44F4 SWAP2 SWAP1 PUSH2 0x555B JUMP JUMPDEST SWAP2 POP DUP1 DUP1 PUSH2 0x4501 SWAP1 PUSH2 0x5897 JUMP JUMPDEST SWAP2 POP POP PUSH2 0x449F JUMP JUMPDEST POP SWAP2 SWAP1 POP JUMP JUMPDEST PUSH1 0x0 PUSH2 0x4571 DUP3 PUSH1 0x40 MLOAD DUP1 PUSH1 0x40 ADD PUSH1 0x40 MSTORE DUP1 PUSH1 0x20 DUP2 MSTORE PUSH1 0x20 ADD PUSH32 0x5361666545524332303A206C6F772D6C6576656C2063616C6C206661696C6564 DUP2 MSTORE POP DUP6 PUSH20 0xFFFFFFFFFFFFFFFFFFFFFFFFFFFFFFFFFFFFFFFF AND PUSH2 0x465F SWAP1 SWAP3 SWAP2 SWAP1 PUSH4 0xFFFFFFFF AND JUMP JUMPDEST SWAP1 POP PUSH1 0x0 DUP2 MLOAD GT ISZERO PUSH2 0x45D1 JUMPI DUP1 DUP1 PUSH1 0x20 ADD SWAP1 MLOAD DUP2 ADD SWAP1 PUSH2 0x4591 SWAP2 SWAP1 PUSH2 0x4983 JUMP JUMPDEST PUSH2 0x45D0 JUMPI PUSH1 0x40 MLOAD PUSH32 0x8C379A000000000000000000000000000000000000000000000000000000000 DUP2 MSTORE PUSH1 0x4 ADD PUSH2 0x45C7 SWAP1 PUSH2 0x5357 JUMP JUMPDEST PUSH1 0x40 MLOAD DUP1 SWAP2 SUB SWAP1 REVERT JUMPDEST JUMPDEST POP POP POP JUMP JUMPDEST PUSH2 0x4659 DUP5 PUSH4 0x23B872DD PUSH1 0xE0 SHL DUP6 DUP6 DUP6 PUSH1 0x40 MLOAD PUSH1 0x24 ADD PUSH2 0x45F7 SWAP4 SWAP3 SWAP2 SWAP1 PUSH2 0x50DB JUMP JUMPDEST PUSH1 0x40 MLOAD PUSH1 0x20 DUP2 DUP4 SUB SUB DUP2 MSTORE SWAP1 PUSH1 0x40 MSTORE SWAP1 PUSH28 0xFFFFFFFFFFFFFFFFFFFFFFFFFFFFFFFFFFFFFFFFFFFFFFFFFFFFFFFF NOT AND PUSH1 0x20 DUP3 ADD DUP1 MLOAD PUSH28 0xFFFFFFFFFFFFFFFFFFFFFFFFFFFFFFFFFFFFFFFFFFFFFFFFFFFFFFFF DUP4 DUP2 DUP4 AND OR DUP4 MSTORE POP POP POP POP PUSH2 0x450F JUMP JUMPDEST POP POP POP POP JUMP JUMPDEST PUSH1 0x60 PUSH2 0x466E DUP5 DUP5 PUSH1 0x0 DUP6 PUSH2 0x4677 JUMP JUMPDEST SWAP1 POP SWAP4 SWAP3 POP POP POP JUMP JUMPDEST PUSH1 0x60 DUP3 SELFBALANCE LT ISZERO PUSH2 0x46BC JUMPI PUSH1 0x40 MLOAD PUSH32 0x8C379A000000000000000000000000000000000000000000000000000000000 DUP2 MSTORE PUSH1 0x4 ADD PUSH2 0x46B3 SWAP1 PUSH2 0x52B7 JUMP JUMPDEST PUSH1 0x40 MLOAD DUP1 SWAP2 SUB SWAP1 REVERT JUMPDEST PUSH2 0x46C5 DUP6 PUSH2 0x478B JUMP JUMPDEST PUSH2 0x4704 JUMPI PUSH1 0x40 MLOAD PUSH32 0x8C379A000000000000000000000000000000000000000000000000000000000 DUP2 MSTORE PUSH1 0x4 ADD PUSH2 0x46FB SWAP1 PUSH2 0x5317 JUMP JUMPDEST PUSH1 0x40 MLOAD DUP1 SWAP2 SUB SWAP1 REVERT JUMPDEST PUSH1 0x0 DUP1 DUP7 PUSH20 0xFFFFFFFFFFFFFFFFFFFFFFFFFFFFFFFFFFFFFFFF AND DUP6 DUP8 PUSH1 0x40 MLOAD PUSH2 0x472D SWAP2 SWAP1 PUSH2 0x50A9 JUMP JUMPDEST PUSH1 0x0 PUSH1 0x40 MLOAD DUP1 DUP4 SUB DUP2 DUP6 DUP8 GAS CALL SWAP3 POP POP POP RETURNDATASIZE DUP1 PUSH1 0x0 DUP2 EQ PUSH2 0x476A JUMPI PUSH1 0x40 MLOAD SWAP2 POP PUSH1 0x1F NOT PUSH1 0x3F RETURNDATASIZE ADD AND DUP3 ADD PUSH1 0x40 MSTORE RETURNDATASIZE DUP3 MSTORE RETURNDATASIZE PUSH1 0x0 PUSH1 0x20 DUP5 ADD RETURNDATACOPY PUSH2 0x476F JUMP JUMPDEST PUSH1 0x60 SWAP2 POP JUMPDEST POP SWAP2 POP SWAP2 POP PUSH2 0x477F DUP3 DUP3 DUP7 PUSH2 0x479E JUMP JUMPDEST SWAP3 POP POP POP SWAP5 SWAP4 POP POP POP POP JUMP JUMPDEST PUSH1 0x0 DUP1 DUP3 EXTCODESIZE SWAP1 POP PUSH1 0x0 DUP2 GT SWAP2 POP POP SWAP2 SWAP1 POP JUMP JUMPDEST PUSH1 0x60 DUP4 ISZERO PUSH2 0x47AE JUMPI DUP3 SWAP1 POP PUSH2 0x47FE JUMP JUMPDEST PUSH1 0x0 DUP4 MLOAD GT ISZERO PUSH2 0x47C1 JUMPI DUP3 MLOAD DUP1 DUP5 PUSH1 0x20 ADD REVERT JUMPDEST DUP2 PUSH1 0x40 MLOAD PUSH32 0x8C379A000000000000000000000000000000000000000000000000000000000 DUP2 MSTORE PUSH1 0x4 ADD PUSH2 0x47F5 SWAP2 SWAP1 PUSH2 0x51F5 JUMP JUMPDEST PUSH1 0x40 MLOAD DUP1 SWAP2 SUB SWAP1 REVERT JUMPDEST SWAP4 SWAP3 POP POP POP JUMP JUMPDEST DUP3 DUP1 SLOAD DUP3 DUP3 SSTORE SWAP1 PUSH1 0x0 MSTORE PUSH1 0x20 PUSH1 0x0 KECCAK256 SWAP1 DUP2 ADD SWAP3 DUP3 ISZERO PUSH2 0x4841 JUMPI SWAP2 PUSH1 0x20 MUL DUP3 ADD JUMPDEST DUP3 DUP2 GT ISZERO PUSH2 0x4840 JUMPI DUP3 MLOAD DUP3 SSTORE SWAP2 PUSH1 0x20 ADD SWAP2 SWAP1 PUSH1 0x1 ADD SWAP1 PUSH2 0x4825 JUMP JUMPDEST JUMPDEST POP SWAP1 POP PUSH2 0x484E SWAP2 SWAP1 PUSH2 0x4852 JUMP JUMPDEST POP SWAP1 JUMP JUMPDEST JUMPDEST DUP1 DUP3 GT ISZERO PUSH2 0x486B JUMPI PUSH1 0x0 DUP2 PUSH1 0x0 SWAP1 SSTORE POP PUSH1 0x1 ADD PUSH2 0x4853 JUMP JUMPDEST POP SWAP1 JUMP JUMPDEST PUSH1 0x0 PUSH2 0x4882 PUSH2 0x487D DUP5 PUSH2 0x54B3 JUMP JUMPDEST PUSH2 0x548E JUMP JUMPDEST SWAP1 POP DUP1 DUP4 DUP3 MSTORE PUSH1 0x20 DUP3 ADD SWAP1 POP DUP3 DUP6 PUSH1 0x20 DUP7 MUL DUP3 ADD GT ISZERO PUSH2 0x48A1 JUMPI PUSH1 0x0 DUP1 REVERT JUMPDEST PUSH1 0x0 JUMPDEST DUP6 DUP2 LT ISZERO PUSH2 0x48D1 JUMPI DUP2 PUSH2 0x48B7 DUP9 DUP3 PUSH2 0x4959 JUMP JUMPDEST DUP5 MSTORE PUSH1 0x20 DUP5 ADD SWAP4 POP PUSH1 0x20 DUP4 ADD SWAP3 POP POP PUSH1 0x1 DUP2 ADD SWAP1 POP PUSH2 0x48A4 JUMP JUMPDEST POP POP POP SWAP4 SWAP3 POP POP POP JUMP JUMPDEST PUSH1 0x0 DUP2 CALLDATALOAD SWAP1 POP PUSH2 0x48EA DUP2 PUSH2 0x5C3E JUMP JUMPDEST SWAP3 SWAP2 POP POP JUMP JUMPDEST PUSH1 0x0 DUP3 PUSH1 0x1F DUP4 ADD SLT PUSH2 0x4901 JUMPI PUSH1 0x0 DUP1 REVERT JUMPDEST DUP2 CALLDATALOAD PUSH2 0x4911 DUP5 DUP3 PUSH1 0x20 DUP7 ADD PUSH2 0x486F JUMP JUMPDEST SWAP2 POP POP SWAP3 SWAP2 POP POP JUMP JUMPDEST PUSH1 0x0 DUP2 CALLDATALOAD SWAP1 POP PUSH2 0x4929 DUP2 PUSH2 0x5C55 JUMP JUMPDEST SWAP3 SWAP2 POP POP JUMP JUMPDEST PUSH1 0x0 DUP2 MLOAD SWAP1 POP PUSH2 0x493E DUP2 PUSH2 0x5C55 JUMP JUMPDEST SWAP3 SWAP2 POP POP JUMP JUMPDEST PUSH1 0x0 DUP2 CALLDATALOAD SWAP1 POP PUSH2 0x4953 DUP2 PUSH2 0x5C6C JUMP JUMPDEST SWAP3 SWAP2 POP POP JUMP JUMPDEST PUSH1 0x0 DUP2 CALLDATALOAD SWAP1 POP PUSH2 0x4968 DUP2 PUSH2 0x5C83 JUMP JUMPDEST SWAP3 SWAP2 POP POP JUMP JUMPDEST PUSH1 0x0 DUP2 MLOAD SWAP1 POP PUSH2 0x497D DUP2 PUSH2 0x5C83 JUMP JUMPDEST SWAP3 SWAP2 POP POP JUMP JUMPDEST PUSH1 0x0 PUSH1 0x20 DUP3 DUP5 SUB SLT ISZERO PUSH2 0x4995 JUMPI PUSH1 0x0 DUP1 REVERT JUMPDEST PUSH1 0x0 PUSH2 0x49A3 DUP5 DUP3 DUP6 ADD PUSH2 0x492F JUMP JUMPDEST SWAP2 POP POP SWAP3 SWAP2 POP POP JUMP JUMPDEST PUSH1 0x0 PUSH1 0x20 DUP3 DUP5 SUB SLT ISZERO PUSH2 0x49BE JUMPI PUSH1 0x0 DUP1 REVERT JUMPDEST PUSH1 0x0 PUSH2 0x49CC DUP5 DUP3 DUP6 ADD PUSH2 0x4944 JUMP JUMPDEST SWAP2 POP POP SWAP3 SWAP2 POP POP JUMP JUMPDEST PUSH1 0x0 DUP1 PUSH1 0x0 PUSH1 0x60 DUP5 DUP7 SUB SLT ISZERO PUSH2 0x49EA JUMPI PUSH1 0x0 DUP1 REVERT JUMPDEST PUSH1 0x0 PUSH2 0x49F8 DUP7 DUP3 DUP8 ADD PUSH2 0x4944 JUMP JUMPDEST SWAP4 POP POP PUSH1 0x20 PUSH2 0x4A09 DUP7 DUP3 DUP8 ADD PUSH2 0x48DB JUMP JUMPDEST SWAP3 POP POP PUSH1 0x40 PUSH2 0x4A1A DUP7 DUP3 DUP8 ADD PUSH2 0x4959 JUMP JUMPDEST SWAP2 POP POP SWAP3 POP SWAP3 POP SWAP3 JUMP JUMPDEST PUSH1 0x0 DUP1 PUSH1 0x0 DUP1 PUSH1 0x80 DUP6 DUP8 SUB SLT ISZERO PUSH2 0x4A3A JUMPI PUSH1 0x0 DUP1 REVERT JUMPDEST PUSH1 0x0 PUSH2 0x4A48 DUP8 DUP3 DUP9 ADD PUSH2 0x4944 JUMP JUMPDEST SWAP5 POP POP PUSH1 0x20 PUSH2 0x4A59 DUP8 DUP3 DUP9 ADD PUSH2 0x48DB JUMP JUMPDEST SWAP4 POP POP PUSH1 0x40 PUSH2 0x4A6A DUP8 DUP3 DUP9 ADD PUSH2 0x4959 JUMP JUMPDEST SWAP3 POP POP PUSH1 0x60 PUSH2 0x4A7B DUP8 DUP3 DUP9 ADD PUSH2 0x4959 JUMP JUMPDEST SWAP2 POP POP SWAP3 SWAP6 SWAP2 SWAP5 POP SWAP3 POP JUMP JUMPDEST PUSH1 0x0 DUP1 PUSH1 0x0 PUSH1 0x60 DUP5 DUP7 SUB SLT ISZERO PUSH2 0x4A9C JUMPI PUSH1 0x0 DUP1 REVERT JUMPDEST PUSH1 0x0 PUSH2 0x4AAA DUP7 DUP3 DUP8 ADD PUSH2 0x4944 JUMP JUMPDEST SWAP4 POP POP PUSH1 0x20 DUP5 ADD CALLDATALOAD PUSH8 0xFFFFFFFFFFFFFFFF DUP2 GT ISZERO PUSH2 0x4AC7 JUMPI PUSH1 0x0 DUP1 REVERT JUMPDEST PUSH2 0x4AD3 DUP7 DUP3 DUP8 ADD PUSH2 0x48F0 JUMP JUMPDEST SWAP3 POP POP PUSH1 0x40 PUSH2 0x4AE4 DUP7 DUP3 DUP8 ADD PUSH2 0x491A JUMP JUMPDEST SWAP2 POP POP SWAP3 POP SWAP3 POP SWAP3 JUMP JUMPDEST PUSH1 0x0 DUP1 PUSH1 0x0 PUSH1 0x60 DUP5 DUP7 SUB SLT ISZERO PUSH2 0x4B03 JUMPI PUSH1 0x0 DUP1 REVERT JUMPDEST PUSH1 0x0 PUSH2 0x4B11 DUP7 DUP3 DUP8 ADD PUSH2 0x4944 JUMP JUMPDEST SWAP4 POP POP PUSH1 0x20 DUP5 ADD CALLDATALOAD PUSH8 0xFFFFFFFFFFFFFFFF DUP2 GT ISZERO PUSH2 0x4B2E JUMPI PUSH1 0x0 DUP1 REVERT JUMPDEST PUSH2 0x4B3A DUP7 DUP3 DUP8 ADD PUSH2 0x48F0 JUMP JUMPDEST SWAP3 POP POP PUSH1 0x40 PUSH2 0x4B4B DUP7 DUP3 DUP8 ADD PUSH2 0x4959 JUMP JUMPDEST SWAP2 POP POP SWAP3 POP SWAP3 POP SWAP3 JUMP JUMPDEST PUSH1 0x0 DUP1 PUSH1 0x40 DUP4 DUP6 SUB SLT ISZERO PUSH2 0x4B68 JUMPI PUSH1 0x0 DUP1 REVERT JUMPDEST PUSH1 0x0 PUSH2 0x4B76 DUP6 DUP3 DUP7 ADD PUSH2 0x4944 JUMP JUMPDEST SWAP3 POP POP PUSH1 0x20 PUSH2 0x4B87 DUP6 DUP3 DUP7 ADD PUSH2 0x4959 JUMP JUMPDEST SWAP2 POP POP SWAP3 POP SWAP3 SWAP1 POP JUMP JUMPDEST PUSH1 0x0 DUP1 PUSH1 0x0 PUSH1 0x60 DUP5 DUP7 SUB SLT ISZERO PUSH2 0x4BA6 JUMPI PUSH1 0x0 DUP1 REVERT JUMPDEST PUSH1 0x0 PUSH2 0x4BB4 DUP7 DUP3 DUP8 ADD PUSH2 0x4944 JUMP JUMPDEST SWAP4 POP POP PUSH1 0x20 PUSH2 0x4BC5 DUP7 DUP3 DUP8 ADD PUSH2 0x4959 JUMP JUMPDEST SWAP3 POP POP PUSH1 0x40 DUP5 ADD CALLDATALOAD PUSH8 0xFFFFFFFFFFFFFFFF DUP2 GT ISZERO PUSH2 0x4BE2 JUMPI PUSH1 0x0 DUP1 REVERT JUMPDEST PUSH2 0x4BEE DUP7 DUP3 DUP8 ADD PUSH2 0x48F0 JUMP JUMPDEST SWAP2 POP POP SWAP3 POP SWAP3 POP SWAP3 JUMP JUMPDEST PUSH1 0x0 DUP1 PUSH1 0x0 DUP1 PUSH1 0x80 DUP6 DUP8 SUB SLT ISZERO PUSH2 0x4C0E JUMPI PUSH1 0x0 DUP1 REVERT JUMPDEST PUSH1 0x0 PUSH2 0x4C1C DUP8 DUP3 DUP9 ADD PUSH2 0x4944 JUMP JUMPDEST SWAP5 POP POP PUSH1 0x20 PUSH2 0x4C2D DUP8 DUP3 DUP9 ADD PUSH2 0x4959 JUMP JUMPDEST SWAP4 POP POP PUSH1 0x40 PUSH2 0x4C3E DUP8 DUP3 DUP9 ADD PUSH2 0x4959 JUMP JUMPDEST SWAP3 POP POP PUSH1 0x60 PUSH2 0x4C4F DUP8 DUP3 DUP9 ADD PUSH2 0x4959 JUMP JUMPDEST SWAP2 POP POP SWAP3 SWAP6 SWAP2 SWAP5 POP SWAP3 POP JUMP JUMPDEST PUSH1 0x0 DUP1 PUSH1 0x0 DUP1 PUSH1 0x0 PUSH1 0xA0 DUP7 DUP9 SUB SLT ISZERO PUSH2 0x4C73 JUMPI PUSH1 0x0 DUP1 REVERT JUMPDEST PUSH1 0x0 PUSH2 0x4C81 DUP9 DUP3 DUP10 ADD PUSH2 0x4944 JUMP JUMPDEST SWAP6 POP POP PUSH1 0x20 PUSH2 0x4C92 DUP9 DUP3 DUP10 ADD PUSH2 0x4959 JUMP JUMPDEST SWAP5 POP POP PUSH1 0x40 PUSH2 0x4CA3 DUP9 DUP3 DUP10 ADD PUSH2 0x4959 JUMP JUMPDEST SWAP4 POP POP PUSH1 0x60 PUSH2 0x4CB4 DUP9 DUP3 DUP10 ADD PUSH2 0x4959 JUMP JUMPDEST SWAP3 POP POP PUSH1 0x80 PUSH2 0x4CC5 DUP9 DUP3 DUP10 ADD PUSH2 0x4959 JUMP JUMPDEST SWAP2 POP POP SWAP3 SWAP6 POP SWAP3 SWAP6 SWAP1 SWAP4 POP JUMP JUMPDEST PUSH1 0x0 PUSH1 0x20 DUP3 DUP5 SUB SLT ISZERO PUSH2 0x4CE4 JUMPI PUSH1 0x0 DUP1 REVERT JUMPDEST PUSH1 0x0 PUSH2 0x4CF2 DUP5 DUP3 DUP6 ADD PUSH2 0x496E JUMP JUMPDEST SWAP2 POP POP SWAP3 SWAP2 POP POP JUMP JUMPDEST PUSH1 0x0 PUSH2 0x4D07 DUP4 DUP4 PUSH2 0x506D JUMP JUMPDEST PUSH1 0x20 DUP4 ADD SWAP1 POP SWAP3 SWAP2 POP POP JUMP JUMPDEST PUSH1 0x0 PUSH2 0x4D1F DUP4 DUP4 PUSH2 0x509A JUMP JUMPDEST PUSH1 0x20 DUP4 ADD SWAP1 POP SWAP3 SWAP2 POP POP JUMP JUMPDEST PUSH2 0x4D34 DUP2 PUSH2 0x57E1 JUMP JUMPDEST DUP3 MSTORE POP POP JUMP JUMPDEST PUSH1 0x0 PUSH2 0x4D45 DUP3 PUSH2 0x54EF JUMP JUMPDEST PUSH2 0x4D4F DUP2 DUP6 PUSH2 0x551D JUMP JUMPDEST SWAP4 POP PUSH2 0x4D5A DUP4 PUSH2 0x54DF JUMP JUMPDEST DUP1 PUSH1 0x0 JUMPDEST DUP4 DUP2 LT ISZERO PUSH2 0x4D8B JUMPI DUP2 MLOAD PUSH2 0x4D72 DUP9 DUP3 PUSH2 0x4CFB JUMP JUMPDEST SWAP8 POP PUSH2 0x4D7D DUP4 PUSH2 0x5510 JUMP JUMPDEST SWAP3 POP POP PUSH1 0x1 DUP2 ADD SWAP1 POP PUSH2 0x4D5E JUMP JUMPDEST POP DUP6 SWAP4 POP POP POP POP SWAP3 SWAP2 POP POP JUMP JUMPDEST PUSH1 0x0 PUSH2 0x4DA3 DUP3 PUSH2 0x54EF JUMP JUMPDEST PUSH2 0x4DAD DUP2 DUP6 PUSH2 0x552E JUMP JUMPDEST SWAP4 POP PUSH2 0x4DB8 DUP4 PUSH2 0x54DF JUMP JUMPDEST DUP1 PUSH1 0x0 JUMPDEST DUP4 DUP2 LT ISZERO PUSH2 0x4DE9 JUMPI DUP2 MLOAD PUSH2 0x4DD0 DUP9 DUP3 PUSH2 0x4D13 JUMP JUMPDEST SWAP8 POP PUSH2 0x4DDB DUP4 PUSH2 0x5510 JUMP JUMPDEST SWAP3 POP POP PUSH1 0x1 DUP2 ADD SWAP1 POP PUSH2 0x4DBC JUMP JUMPDEST POP DUP6 SWAP4 POP POP POP POP SWAP3 SWAP2 POP POP JUMP JUMPDEST PUSH1 0x0 PUSH2 0x4E01 DUP3 PUSH2 0x54FA JUMP JUMPDEST PUSH2 0x4E0B DUP2 DUP6 PUSH2 0x553F JUMP JUMPDEST SWAP4 POP PUSH2 0x4E1B DUP2 DUP6 PUSH1 0x20 DUP7 ADD PUSH2 0x5833 JUMP JUMPDEST DUP1 DUP5 ADD SWAP2 POP POP SWAP3 SWAP2 POP POP JUMP JUMPDEST PUSH1 0x0 PUSH2 0x4E32 DUP3 PUSH2 0x5505 JUMP JUMPDEST PUSH2 0x4E3C DUP2 DUP6 PUSH2 0x554A JUMP JUMPDEST SWAP4 POP PUSH2 0x4E4C DUP2 DUP6 PUSH1 0x20 DUP7 ADD PUSH2 0x5833 JUMP JUMPDEST PUSH2 0x4E55 DUP2 PUSH2 0x596D JUMP JUMPDEST DUP5 ADD SWAP2 POP POP SWAP3 SWAP2 POP POP JUMP JUMPDEST PUSH1 0x0 PUSH2 0x4E6D PUSH1 0xF DUP4 PUSH2 0x554A JUMP JUMPDEST SWAP2 POP PUSH2 0x4E78 DUP3 PUSH2 0x598B JUMP JUMPDEST PUSH1 0x20 DUP3 ADD SWAP1 POP SWAP2 SWAP1 POP JUMP JUMPDEST PUSH1 0x0 PUSH2 0x4E90 PUSH1 0xF DUP4 PUSH2 0x554A JUMP JUMPDEST SWAP2 POP PUSH2 0x4E9B DUP3 PUSH2 0x59B4 JUMP JUMPDEST PUSH1 0x20 DUP3 ADD SWAP1 POP SWAP2 SWAP1 POP JUMP JUMPDEST PUSH1 0x0 PUSH2 0x4EB3 PUSH1 0x9 DUP4 PUSH2 0x554A JUMP JUMPDEST SWAP2 POP PUSH2 0x4EBE DUP3 PUSH2 0x59DD JUMP JUMPDEST PUSH1 0x20 DUP3 ADD SWAP1 POP SWAP2 SWAP1 POP JUMP JUMPDEST PUSH1 0x0 PUSH2 0x4ED6 PUSH1 0x1A DUP4 PUSH2 0x554A JUMP JUMPDEST SWAP2 POP PUSH2 0x4EE1 DUP3 PUSH2 0x5A06 JUMP JUMPDEST PUSH1 0x20 DUP3 ADD SWAP1 POP SWAP2 SWAP1 POP JUMP JUMPDEST PUSH1 0x0 PUSH2 0x4EF9 PUSH1 0x9 DUP4 PUSH2 0x554A JUMP JUMPDEST SWAP2 POP PUSH2 0x4F04 DUP3 PUSH2 0x5A2F JUMP JUMPDEST PUSH1 0x20 DUP3 ADD SWAP1 POP SWAP2 SWAP1 POP JUMP JUMPDEST PUSH1 0x0 PUSH2 0x4F1C PUSH1 0x26 DUP4 PUSH2 0x554A JUMP JUMPDEST SWAP2 POP PUSH2 0x4F27 DUP3 PUSH2 0x5A58 JUMP JUMPDEST PUSH1 0x40 DUP3 ADD SWAP1 POP SWAP2 SWAP1 POP JUMP JUMPDEST PUSH1 0x0 PUSH2 0x4F3F PUSH1 0xD DUP4 PUSH2 0x554A JUMP JUMPDEST SWAP2 POP PUSH2 0x4F4A DUP3 PUSH2 0x5AA7 JUMP JUMPDEST PUSH1 0x20 DUP3 ADD SWAP1 POP SWAP2 SWAP1 POP JUMP JUMPDEST PUSH1 0x0 PUSH2 0x4F62 PUSH1 0xD DUP4 PUSH2 0x554A JUMP JUMPDEST SWAP2 POP PUSH2 0x4F6D DUP3 PUSH2 0x5AD0 JUMP JUMPDEST PUSH1 0x20 DUP3 ADD SWAP1 POP SWAP2 SWAP1 POP JUMP JUMPDEST PUSH1 0x0 PUSH2 0x4F85 PUSH1 0x1D DUP4 PUSH2 0x554A JUMP JUMPDEST SWAP2 POP PUSH2 0x4F90 DUP3 PUSH2 0x5AF9 JUMP JUMPDEST PUSH1 0x20 DUP3 ADD SWAP1 POP SWAP2 SWAP1 POP JUMP JUMPDEST PUSH1 0x0 PUSH2 0x4FA8 PUSH1 0x12 DUP4 PUSH2 0x554A JUMP JUMPDEST SWAP2 POP PUSH2 0x4FB3 DUP3 PUSH2 0x5B22 JUMP JUMPDEST PUSH1 0x20 DUP3 ADD SWAP1 POP SWAP2 SWAP1 POP JUMP JUMPDEST PUSH1 0x0 PUSH2 0x4FCB PUSH1 0x2A DUP4 PUSH2 0x554A JUMP JUMPDEST SWAP2 POP PUSH2 0x4FD6 DUP3 PUSH2 0x5B4B JUMP JUMPDEST PUSH1 0x40 DUP3 ADD SWAP1 POP SWAP2 SWAP1 POP JUMP JUMPDEST PUSH1 0x0 PUSH2 0x4FEE PUSH1 0x1A DUP4 PUSH2 0x554A JUMP JUMPDEST SWAP2 POP PUSH2 0x4FF9 DUP3 PUSH2 0x5B9A JUMP JUMPDEST PUSH1 0x20 DUP3 ADD SWAP1 POP SWAP2 SWAP1 POP JUMP JUMPDEST PUSH1 0x0 PUSH2 0x5011 PUSH1 0x14 DUP4 PUSH2 0x554A JUMP JUMPDEST SWAP2 POP PUSH2 0x501C DUP3 PUSH2 0x5BC3 JUMP JUMPDEST PUSH1 0x20 DUP3 ADD SWAP1 POP SWAP2 SWAP1 POP JUMP JUMPDEST PUSH1 0x0 PUSH2 0x5034 PUSH1 0xA DUP4 PUSH2 0x554A JUMP JUMPDEST SWAP2 POP PUSH2 0x503F DUP3 PUSH2 0x5BEC JUMP JUMPDEST PUSH1 0x20 DUP3 ADD SWAP1 POP SWAP2 SWAP1 POP JUMP JUMPDEST PUSH1 0x0 PUSH2 0x5057 PUSH1 0x1E DUP4 PUSH2 0x554A JUMP JUMPDEST SWAP2 POP PUSH2 0x5062 DUP3 PUSH2 0x5C15 JUMP JUMPDEST PUSH1 0x20 DUP3 ADD SWAP1 POP SWAP2 SWAP1 POP JUMP JUMPDEST PUSH2 0x5076 DUP2 PUSH2 0x5829 JUMP JUMPDEST DUP3 MSTORE POP POP JUMP JUMPDEST PUSH2 0x5085 DUP2 PUSH2 0x5829 JUMP JUMPDEST DUP3 MSTORE POP POP JUMP JUMPDEST PUSH2 0x5094 DUP2 PUSH2 0x5829 JUMP JUMPDEST DUP3 MSTORE POP POP JUMP JUMPDEST PUSH2 0x50A3 DUP2 PUSH2 0x5829 JUMP JUMPDEST DUP3 MSTORE POP POP JUMP JUMPDEST PUSH1 0x0 PUSH2 0x50B5 DUP3 DUP5 PUSH2 0x4DF6 JUMP JUMPDEST SWAP2 POP DUP2 SWAP1 POP SWAP3 SWAP2 POP POP JUMP JUMPDEST PUSH1 0x0 PUSH1 0x20 DUP3 ADD SWAP1 POP PUSH2 0x50D5 PUSH1 0x0 DUP4 ADD DUP5 PUSH2 0x4D2B JUMP JUMPDEST SWAP3 SWAP2 POP POP JUMP JUMPDEST PUSH1 0x0 PUSH1 0x60 DUP3 ADD SWAP1 POP PUSH2 0x50F0 PUSH1 0x0 DUP4 ADD DUP7 PUSH2 0x4D2B JUMP JUMPDEST PUSH2 0x50FD PUSH1 0x20 DUP4 ADD DUP6 PUSH2 0x4D2B JUMP JUMPDEST PUSH2 0x510A PUSH1 0x40 DUP4 ADD DUP5 PUSH2 0x507C JUMP JUMPDEST SWAP5 SWAP4 POP POP POP POP JUMP JUMPDEST PUSH1 0x0 PUSH1 0x40 DUP3 ADD SWAP1 POP PUSH2 0x5127 PUSH1 0x0 DUP4 ADD DUP6 PUSH2 0x4D2B JUMP JUMPDEST PUSH2 0x5134 PUSH1 0x20 DUP4 ADD DUP5 PUSH2 0x507C JUMP JUMPDEST SWAP4 SWAP3 POP POP POP JUMP JUMPDEST PUSH1 0x0 PUSH1 0x20 DUP3 ADD SWAP1 POP DUP2 DUP2 SUB PUSH1 0x0 DUP4 ADD MSTORE PUSH2 0x5155 DUP2 DUP5 PUSH2 0x4D98 JUMP JUMPDEST SWAP1 POP SWAP3 SWAP2 POP POP JUMP JUMPDEST PUSH1 0x0 PUSH1 0x60 DUP3 ADD SWAP1 POP DUP2 DUP2 SUB PUSH1 0x0 DUP4 ADD MSTORE PUSH2 0x5177 DUP2 DUP7 PUSH2 0x4D3A JUMP JUMPDEST SWAP1 POP DUP2 DUP2 SUB PUSH1 0x20 DUP4 ADD MSTORE PUSH2 0x518B DUP2 DUP6 PUSH2 0x4D3A JUMP JUMPDEST SWAP1 POP PUSH2 0x519A PUSH1 0x40 DUP4 ADD DUP5 PUSH2 0x507C JUMP JUMPDEST SWAP5 SWAP4 POP POP POP POP JUMP JUMPDEST PUSH1 0x0 PUSH1 0x80 DUP3 ADD SWAP1 POP DUP2 DUP2 SUB PUSH1 0x0 DUP4 ADD MSTORE PUSH2 0x51BC DUP2 DUP8 PUSH2 0x4D3A JUMP JUMPDEST SWAP1 POP DUP2 DUP2 SUB PUSH1 0x20 DUP4 ADD MSTORE PUSH2 0x51D0 DUP2 DUP7 PUSH2 0x4D3A JUMP JUMPDEST SWAP1 POP PUSH2 0x51DF PUSH1 0x40 DUP4 ADD DUP6 PUSH2 0x507C JUMP JUMPDEST PUSH2 0x51EC PUSH1 0x60 DUP4 ADD DUP5 PUSH2 0x507C JUMP JUMPDEST SWAP6 SWAP5 POP POP POP POP POP JUMP JUMPDEST PUSH1 0x0 PUSH1 0x20 DUP3 ADD SWAP1 POP DUP2 DUP2 SUB PUSH1 0x0 DUP4 ADD MSTORE PUSH2 0x520F DUP2 DUP5 PUSH2 0x4E27 JUMP JUMPDEST SWAP1 POP SWAP3 SWAP2 POP POP JUMP JUMPDEST PUSH1 0x0 PUSH1 0x20 DUP3 ADD SWAP1 POP DUP2 DUP2 SUB PUSH1 0x0 DUP4 ADD MSTORE PUSH2 0x5230 DUP2 PUSH2 0x4E60 JUMP JUMPDEST SWAP1 POP SWAP2 SWAP1 POP JUMP JUMPDEST PUSH1 0x0 PUSH1 0x20 DUP3 ADD SWAP1 POP DUP2 DUP2 SUB PUSH1 0x0 DUP4 ADD MSTORE PUSH2 0x5250 DUP2 PUSH2 0x4E83 JUMP JUMPDEST SWAP1 POP SWAP2 SWAP1 POP JUMP JUMPDEST PUSH1 0x0 PUSH1 0x20 DUP3 ADD SWAP1 POP DUP2 DUP2 SUB PUSH1 0x0 DUP4 ADD MSTORE PUSH2 0x5270 DUP2 PUSH2 0x4EA6 JUMP JUMPDEST SWAP1 POP SWAP2 SWAP1 POP JUMP JUMPDEST PUSH1 0x0 PUSH1 0x20 DUP3 ADD SWAP1 POP DUP2 DUP2 SUB PUSH1 0x0 DUP4 ADD MSTORE PUSH2 0x5290 DUP2 PUSH2 0x4EC9 JUMP JUMPDEST SWAP1 POP SWAP2 SWAP1 POP JUMP JUMPDEST PUSH1 0x0 PUSH1 0x20 DUP3 ADD SWAP1 POP DUP2 DUP2 SUB PUSH1 0x0 DUP4 ADD MSTORE PUSH2 0x52B0 DUP2 PUSH2 0x4EEC JUMP JUMPDEST SWAP1 POP SWAP2 SWAP1 POP JUMP JUMPDEST PUSH1 0x0 PUSH1 0x20 DUP3 ADD SWAP1 POP DUP2 DUP2 SUB PUSH1 0x0 DUP4 ADD MSTORE PUSH2 0x52D0 DUP2 PUSH2 0x4F0F JUMP JUMPDEST SWAP1 POP SWAP2 SWAP1 POP JUMP JUMPDEST PUSH1 0x0 PUSH1 0x20 DUP3 ADD SWAP1 POP DUP2 DUP2 SUB PUSH1 0x0 DUP4 ADD MSTORE PUSH2 0x52F0 DUP2 PUSH2 0x4F32 JUMP JUMPDEST SWAP1 POP SWAP2 SWAP1 POP JUMP JUMPDEST PUSH1 0x0 PUSH1 0x20 DUP3 ADD SWAP1 POP DUP2 DUP2 SUB PUSH1 0x0 DUP4 ADD MSTORE PUSH2 0x5310 DUP2 PUSH2 0x4F55 JUMP JUMPDEST SWAP1 POP SWAP2 SWAP1 POP JUMP JUMPDEST PUSH1 0x0 PUSH1 0x20 DUP3 ADD SWAP1 POP DUP2 DUP2 SUB PUSH1 0x0 DUP4 ADD MSTORE PUSH2 0x5330 DUP2 PUSH2 0x4F78 JUMP JUMPDEST SWAP1 POP SWAP2 SWAP1 POP JUMP JUMPDEST PUSH1 0x0 PUSH1 0x20 DUP3 ADD SWAP1 POP DUP2 DUP2 SUB PUSH1 0x0 DUP4 ADD MSTORE PUSH2 0x5350 DUP2 PUSH2 0x4F9B JUMP JUMPDEST SWAP1 POP SWAP2 SWAP1 POP JUMP JUMPDEST PUSH1 0x0 PUSH1 0x20 DUP3 ADD SWAP1 POP DUP2 DUP2 SUB PUSH1 0x0 DUP4 ADD MSTORE PUSH2 0x5370 DUP2 PUSH2 0x4FBE JUMP JUMPDEST SWAP1 POP SWAP2 SWAP1 POP JUMP JUMPDEST PUSH1 0x0 PUSH1 0x20 DUP3 ADD SWAP1 POP DUP2 DUP2 SUB PUSH1 0x0 DUP4 ADD MSTORE PUSH2 0x5390 DUP2 PUSH2 0x4FE1 JUMP JUMPDEST SWAP1 POP SWAP2 SWAP1 POP JUMP JUMPDEST PUSH1 0x0 PUSH1 0x20 DUP3 ADD SWAP1 POP DUP2 DUP2 SUB PUSH1 0x0 DUP4 ADD MSTORE PUSH2 0x53B0 DUP2 PUSH2 0x5004 JUMP JUMPDEST SWAP1 POP SWAP2 SWAP1 POP JUMP JUMPDEST PUSH1 0x0 PUSH1 0x20 DUP3 ADD SWAP1 POP DUP2 DUP2 SUB PUSH1 0x0 DUP4 ADD MSTORE PUSH2 0x53D0 DUP2 PUSH2 0x5027 JUMP JUMPDEST SWAP1 POP SWAP2 SWAP1 POP JUMP JUMPDEST PUSH1 0x0 PUSH1 0x20 DUP3 ADD SWAP1 POP DUP2 DUP2 SUB PUSH1 0x0 DUP4 ADD MSTORE PUSH2 0x53F0 DUP2 PUSH2 0x504A JUMP JUMPDEST SWAP1 POP SWAP2 SWAP1 POP JUMP JUMPDEST PUSH1 0x0 PUSH1 0x20 DUP3 ADD SWAP1 POP PUSH2 0x540C PUSH1 0x0 DUP4 ADD DUP5 PUSH2 0x508B JUMP JUMPDEST SWAP3 SWAP2 POP POP JUMP JUMPDEST PUSH1 0x0 PUSH1 0x60 DUP3 ADD SWAP1 POP PUSH2 0x5427 PUSH1 0x0 DUP4 ADD DUP7 PUSH2 0x507C JUMP JUMPDEST PUSH2 0x5434 PUSH1 0x20 DUP4 ADD DUP6 PUSH2 0x507C JUMP JUMPDEST PUSH2 0x5441 PUSH1 0x40 DUP4 ADD DUP5 PUSH2 0x507C JUMP JUMPDEST SWAP5 SWAP4 POP POP POP POP JUMP JUMPDEST PUSH1 0x0 PUSH1 0x80 DUP3 ADD SWAP1 POP PUSH2 0x545E PUSH1 0x0 DUP4 ADD DUP8 PUSH2 0x507C JUMP JUMPDEST PUSH2 0x546B PUSH1 0x20 DUP4 ADD DUP7 PUSH2 0x507C JUMP JUMPDEST PUSH2 0x5478 PUSH1 0x40 DUP4 ADD DUP6 PUSH2 0x507C JUMP JUMPDEST PUSH2 0x5485 PUSH1 0x60 DUP4 ADD DUP5 PUSH2 0x507C JUMP JUMPDEST SWAP6 SWAP5 POP POP POP POP POP JUMP JUMPDEST PUSH1 0x0 PUSH2 0x5498 PUSH2 0x54A9 JUMP JUMPDEST SWAP1 POP PUSH2 0x54A4 DUP3 DUP3 PUSH2 0x5866 JUMP JUMPDEST SWAP2 SWAP1 POP JUMP JUMPDEST PUSH1 0x0 PUSH1 0x40 MLOAD SWAP1 POP SWAP1 JUMP JUMPDEST PUSH1 0x0 PUSH8 0xFFFFFFFFFFFFFFFF DUP3 GT ISZERO PUSH2 0x54CE JUMPI PUSH2 0x54CD PUSH2 0x593E JUMP JUMPDEST JUMPDEST PUSH1 0x20 DUP3 MUL SWAP1 POP PUSH1 0x20 DUP2 ADD SWAP1 POP SWAP2 SWAP1 POP JUMP JUMPDEST PUSH1 0x0 DUP2 SWAP1 POP PUSH1 0x20 DUP3 ADD SWAP1 POP SWAP2 SWAP1 POP JUMP JUMPDEST PUSH1 0x0 DUP2 MLOAD SWAP1 POP SWAP2 SWAP1 POP JUMP JUMPDEST PUSH1 0x0 DUP2 MLOAD SWAP1 POP SWAP2 SWAP1 POP JUMP JUMPDEST PUSH1 0x0 DUP2 MLOAD SWAP1 POP SWAP2 SWAP1 POP JUMP JUMPDEST PUSH1 0x0 PUSH1 0x20 DUP3 ADD SWAP1 POP SWAP2 SWAP1 POP JUMP JUMPDEST PUSH1 0x0 DUP3 DUP3 MSTORE PUSH1 0x20 DUP3 ADD SWAP1 POP SWAP3 SWAP2 POP POP JUMP JUMPDEST PUSH1 0x0 DUP3 DUP3 MSTORE PUSH1 0x20 DUP3 ADD SWAP1 POP SWAP3 SWAP2 POP POP JUMP JUMPDEST PUSH1 0x0 DUP2 SWAP1 POP SWAP3 SWAP2 POP POP JUMP JUMPDEST PUSH1 0x0 DUP3 DUP3 MSTORE PUSH1 0x20 DUP3 ADD SWAP1 POP SWAP3 SWAP2 POP POP JUMP JUMPDEST PUSH1 0x0 PUSH2 0x5566 DUP3 PUSH2 0x5829 JUMP JUMPDEST SWAP2 POP PUSH2 0x5571 DUP4 PUSH2 0x5829 JUMP JUMPDEST SWAP3 POP DUP3 PUSH32 0xFFFFFFFFFFFFFFFFFFFFFFFFFFFFFFFFFFFFFFFFFFFFFFFFFFFFFFFFFFFFFFFF SUB DUP3 GT ISZERO PUSH2 0x55A6 JUMPI PUSH2 0x55A5 PUSH2 0x58E0 JUMP JUMPDEST JUMPDEST DUP3 DUP3 ADD SWAP1 POP SWAP3 SWAP2 POP POP JUMP JUMPDEST PUSH1 0x0 PUSH2 0x55BC DUP3 PUSH2 0x5829 JUMP JUMPDEST SWAP2 POP PUSH2 0x55C7 DUP4 PUSH2 0x5829 JUMP JUMPDEST SWAP3 POP DUP3 PUSH2 0x55D7 JUMPI PUSH2 0x55D6 PUSH2 0x590F JUMP JUMPDEST JUMPDEST DUP3 DUP3 DIV SWAP1 POP SWAP3 SWAP2 POP POP JUMP JUMPDEST PUSH1 0x0 DUP1 DUP3 SWAP2 POP DUP4 SWAP1 POP JUMPDEST PUSH1 0x1 DUP6 GT ISZERO PUSH2 0x562C JUMPI DUP1 DUP7 DIV DUP2 GT ISZERO PUSH2 0x5608 JUMPI PUSH2 0x5607 PUSH2 0x58E0 JUMP JUMPDEST JUMPDEST PUSH1 0x1 DUP6 AND ISZERO PUSH2 0x5617 JUMPI DUP1 DUP3 MUL SWAP2 POP JUMPDEST DUP1 DUP2 MUL SWAP1 POP PUSH2 0x5625 DUP6 PUSH2 0x597E JUMP JUMPDEST SWAP5 POP PUSH2 0x55EC JUMP JUMPDEST SWAP5 POP SWAP5 SWAP3 POP POP POP JUMP JUMPDEST PUSH1 0x0 PUSH2 0x5640 DUP3 PUSH2 0x5829 JUMP JUMPDEST SWAP2 POP PUSH2 0x564B DUP4 PUSH2 0x5829 JUMP JUMPDEST SWAP3 POP PUSH2 0x5678 PUSH32 0xFFFFFFFFFFFFFFFFFFFFFFFFFFFFFFFFFFFFFFFFFFFFFFFFFFFFFFFFFFFFFFFF DUP5 DUP5 PUSH2 0x5680 JUMP JUMPDEST SWAP1 POP SWAP3 SWAP2 POP POP JUMP JUMPDEST PUSH1 0x0 DUP3 PUSH2 0x5690 JUMPI PUSH1 0x1 SWAP1 POP PUSH2 0x574C JUMP JUMPDEST DUP2 PUSH2 0x569E JUMPI PUSH1 0x0 SWAP1 POP PUSH2 0x574C JUMP JUMPDEST DUP2 PUSH1 0x1 DUP2 EQ PUSH2 0x56B4 JUMPI PUSH1 0x2 DUP2 EQ PUSH2 0x56BE JUMPI PUSH2 0x56ED JUMP JUMPDEST PUSH1 0x1 SWAP2 POP POP PUSH2 0x574C JUMP JUMPDEST PUSH1 0xFF DUP5 GT ISZERO PUSH2 0x56D0 JUMPI PUSH2 0x56CF PUSH2 0x58E0 JUMP JUMPDEST JUMPDEST DUP4 PUSH1 0x2 EXP SWAP2 POP DUP5 DUP3 GT ISZERO PUSH2 0x56E7 JUMPI PUSH2 0x56E6 PUSH2 0x58E0 JUMP JUMPDEST JUMPDEST POP PUSH2 0x574C JUMP JUMPDEST POP PUSH1 0x20 DUP4 LT PUSH2 0x133 DUP4 LT AND PUSH1 0x4E DUP5 LT PUSH1 0xB DUP5 LT AND OR ISZERO PUSH2 0x5722 JUMPI DUP3 DUP3 EXP SWAP1 POP DUP4 DUP2 GT ISZERO PUSH2 0x571D JUMPI PUSH2 0x571C PUSH2 0x58E0 JUMP JUMPDEST JUMPDEST PUSH2 0x574C JUMP JUMPDEST PUSH2 0x572F DUP5 DUP5 DUP5 PUSH1 0x1 PUSH2 0x55E2 JUMP JUMPDEST SWAP3 POP SWAP1 POP DUP2 DUP5 DIV DUP2 GT ISZERO PUSH2 0x5746 JUMPI PUSH2 0x5745 PUSH2 0x58E0 JUMP JUMPDEST JUMPDEST DUP2 DUP2 MUL SWAP1 POP JUMPDEST SWAP4 SWAP3 POP POP POP JUMP JUMPDEST PUSH1 0x0 PUSH2 0x575E DUP3 PUSH2 0x5829 JUMP JUMPDEST SWAP2 POP PUSH2 0x5769 DUP4 PUSH2 0x5829 JUMP JUMPDEST SWAP3 POP DUP2 PUSH32 0xFFFFFFFFFFFFFFFFFFFFFFFFFFFFFFFFFFFFFFFFFFFFFFFFFFFFFFFFFFFFFFFF DIV DUP4 GT DUP3 ISZERO ISZERO AND ISZERO PUSH2 0x57A2 JUMPI PUSH2 0x57A1 PUSH2 0x58E0 JUMP JUMPDEST JUMPDEST DUP3 DUP3 MUL SWAP1 POP SWAP3 SWAP2 POP POP JUMP JUMPDEST PUSH1 0x0 PUSH2 0x57B8 DUP3 PUSH2 0x5829 JUMP JUMPDEST SWAP2 POP PUSH2 0x57C3 DUP4 PUSH2 0x5829 JUMP JUMPDEST SWAP3 POP DUP3 DUP3 LT ISZERO PUSH2 0x57D6 JUMPI PUSH2 0x57D5 PUSH2 0x58E0 JUMP JUMPDEST JUMPDEST DUP3 DUP3 SUB SWAP1 POP SWAP3 SWAP2 POP POP JUMP JUMPDEST PUSH1 0x0 PUSH2 0x57EC DUP3 PUSH2 0x5809 JUMP JUMPDEST SWAP1 POP SWAP2 SWAP1 POP JUMP JUMPDEST PUSH1 0x0 DUP2 ISZERO ISZERO SWAP1 POP SWAP2 SWAP1 POP JUMP JUMPDEST PUSH1 0x0 DUP2 SWAP1 POP SWAP2 SWAP1 POP JUMP JUMPDEST PUSH1 0x0 PUSH20 0xFFFFFFFFFFFFFFFFFFFFFFFFFFFFFFFFFFFFFFFF DUP3 AND SWAP1 POP SWAP2 SWAP1 POP JUMP JUMPDEST PUSH1 0x0 DUP2 SWAP1 POP SWAP2 SWAP1 POP JUMP JUMPDEST PUSH1 0x0 JUMPDEST DUP4 DUP2 LT ISZERO PUSH2 0x5851 JUMPI DUP1 DUP3 ADD MLOAD DUP2 DUP5 ADD MSTORE PUSH1 0x20 DUP2 ADD SWAP1 POP PUSH2 0x5836 JUMP JUMPDEST DUP4 DUP2 GT ISZERO PUSH2 0x5860 JUMPI PUSH1 0x0 DUP5 DUP5 ADD MSTORE JUMPDEST POP POP POP POP JUMP JUMPDEST PUSH2 0x586F DUP3 PUSH2 0x596D JUMP JUMPDEST DUP2 ADD DUP2 DUP2 LT PUSH8 0xFFFFFFFFFFFFFFFF DUP3 GT OR ISZERO PUSH2 0x588E JUMPI PUSH2 0x588D PUSH2 0x593E JUMP JUMPDEST JUMPDEST DUP1 PUSH1 0x40 MSTORE POP POP POP JUMP JUMPDEST PUSH1 0x0 PUSH2 0x58A2 DUP3 PUSH2 0x5829 JUMP JUMPDEST SWAP2 POP PUSH32 0xFFFFFFFFFFFFFFFFFFFFFFFFFFFFFFFFFFFFFFFFFFFFFFFFFFFFFFFFFFFFFFFF DUP3 EQ ISZERO PUSH2 0x58D5 JUMPI PUSH2 0x58D4 PUSH2 0x58E0 JUMP JUMPDEST JUMPDEST PUSH1 0x1 DUP3 ADD SWAP1 POP SWAP2 SWAP1 POP JUMP JUMPDEST PUSH32 0x4E487B7100000000000000000000000000000000000000000000000000000000 PUSH1 0x0 MSTORE PUSH1 0x11 PUSH1 0x4 MSTORE PUSH1 0x24 PUSH1 0x0 REVERT JUMPDEST PUSH32 0x4E487B7100000000000000000000000000000000000000000000000000000000 PUSH1 0x0 MSTORE PUSH1 0x12 PUSH1 0x4 MSTORE PUSH1 0x24 PUSH1 0x0 REVERT JUMPDEST PUSH32 0x4E487B7100000000000000000000000000000000000000000000000000000000 PUSH1 0x0 MSTORE PUSH1 0x41 PUSH1 0x4 MSTORE PUSH1 0x24 PUSH1 0x0 REVERT JUMPDEST PUSH1 0x0 PUSH1 0x1F NOT PUSH1 0x1F DUP4 ADD AND SWAP1 POP SWAP2 SWAP1 POP JUMP JUMPDEST PUSH1 0x0 DUP2 PUSH1 0x1 SHR SWAP1 POP SWAP2 SWAP1 POP JUMP JUMPDEST PUSH32 0x696E6465784F75744F6652616E67650000000000000000000000000000000000 PUSH1 0x0 DUP3 ADD MSTORE POP JUMP JUMPDEST PUSH32 0x746F74616C537570706C79203D20300000000000000000000000000000000000 PUSH1 0x0 DUP3 ADD MSTORE POP JUMP JUMPDEST PUSH32 0x3E2062616C616E63650000000000000000000000000000000000000000000000 PUSH1 0x0 DUP3 ADD MSTORE POP JUMP JUMPDEST PUSH32 0x696E76617269616E7443616C63756C6174696F6E4661696C6564000000000000 PUSH1 0x0 DUP3 ADD MSTORE POP JUMP JUMPDEST PUSH32 0x73616D65546F6B656E0000000000000000000000000000000000000000000000 PUSH1 0x0 DUP3 ADD MSTORE POP JUMP JUMPDEST PUSH32 0x416464726573733A20696E73756666696369656E742062616C616E636520666F PUSH1 0x0 DUP3 ADD MSTORE PUSH32 0x722063616C6C0000000000000000000000000000000000000000000000000000 PUSH1 0x20 DUP3 ADD MSTORE POP JUMP JUMPDEST PUSH32 0x3E20746F74616C537570706C7900000000000000000000000000000000000000 PUSH1 0x0 DUP3 ADD MSTORE POP JUMP JUMPDEST PUSH32 0x746F6B656E4E6F74466F756E6400000000000000000000000000000000000000 PUSH1 0x0 DUP3 ADD MSTORE POP JUMP JUMPDEST PUSH32 0x416464726573733A2063616C6C20746F206E6F6E2D636F6E7472616374000000 PUSH1 0x0 DUP3 ADD MSTORE POP JUMP JUMPDEST PUSH32 0x7943616C63756C6174696F6E4661696C65640000000000000000000000000000 PUSH1 0x0 DUP3 ADD MSTORE POP JUMP JUMPDEST PUSH32 0x5361666545524332303A204552433230206F7065726174696F6E20646964206E PUSH1 0x0 DUP3 ADD MSTORE PUSH32 0x6F74207375636365656400000000000000000000000000000000000000000000 PUSH1 0x20 DUP3 ADD MSTORE POP JUMP JUMPDEST PUSH32 0x43616E6E6F742065786365656420746F74616C20737570706C79000000000000 PUSH1 0x0 DUP3 ADD MSTORE POP JUMP JUMPDEST PUSH32 0x696E76616C6964416D6F756E74734C656E677468000000000000000000000000 PUSH1 0x0 DUP3 ADD MSTORE POP JUMP JUMPDEST PUSH32 0x3E20736C69707061676500000000000000000000000000000000000000000000 PUSH1 0x0 DUP3 ADD MSTORE POP JUMP JUMPDEST PUSH32 0x696E697469616C4465706F73697452657175697265416C6C546F6B656E730000 PUSH1 0x0 DUP3 ADD MSTORE POP JUMP JUMPDEST PUSH2 0x5C47 DUP2 PUSH2 0x57E1 JUMP JUMPDEST DUP2 EQ PUSH2 0x5C52 JUMPI PUSH1 0x0 DUP1 REVERT JUMPDEST POP JUMP JUMPDEST PUSH2 0x5C5E DUP2 PUSH2 0x57F3 JUMP JUMPDEST DUP2 EQ PUSH2 0x5C69 JUMPI PUSH1 0x0 DUP1 REVERT JUMPDEST POP JUMP JUMPDEST PUSH2 0x5C75 DUP2 PUSH2 0x57FF JUMP JUMPDEST DUP2 EQ PUSH2 0x5C80 JUMPI PUSH1 0x0 DUP1 REVERT JUMPDEST POP JUMP JUMPDEST PUSH2 0x5C8C DUP2 PUSH2 0x5829 JUMP JUMPDEST DUP2 EQ PUSH2 0x5C97 JUMPI PUSH1 0x0 DUP1 REVERT JUMPDEST POP JUMP INVALID LOG2 PUSH5 0x6970667358 0x22 SLT KECCAK256 0xAB RETURN 0xEC PUSH28 0x62533E1B85A3C7A6DB3D7B01C2203DB520480262BF59B31F3B4864F3 PUSH5 0x736F6C6343 STOP ADDMOD DIV STOP CALLER "
		},
		"gasEstimates": {
			"creation": {
				"codeDepositCost": "4752000",
				"executionCost": "5612",
				"totalCost": "4757612"
			},
			"external": {
				"A_PRECISION()": "335",
				"FEE_DENOMINATOR()": "379",
				"POOL_TOKEN_COMMON_DECIMALS()": "358",
				"addLiquidity(RequiemStableSwapLib.SwapStorage storage,uint256[],uint256)": "infinite",
				"calculateRemoveLiquidity(RequiemStableSwapLib.SwapStorage storage,address,uint256)": "infinite",
				"calculateRemoveLiquidityOneToken(RequiemStableSwapLib.SwapStorage storage,address,uint256,uint256)": "infinite",
				"calculateSwap(RequiemStableSwapLib.SwapStorage storage,uint256,uint256,uint256)": "infinite",
				"calculateTokenAmount(RequiemStableSwapLib.SwapStorage storage,uint256[],bool)": "infinite",
				"getA(RequiemStableSwapLib.SwapStorage storage)": "infinite",
				"getAPrecise(RequiemStableSwapLib.SwapStorage storage)": "infinite",
				"getAdminBalance(RequiemStableSwapLib.SwapStorage storage,uint256)": "infinite",
				"getVirtualPrice(RequiemStableSwapLib.SwapStorage storage)": "infinite",
				"removeLiquidity(RequiemStableSwapLib.SwapStorage storage,uint256,uint256[])": "infinite",
				"removeLiquidityImbalance(RequiemStableSwapLib.SwapStorage storage,uint256[],uint256)": "infinite",
				"removeLiquidityOneToken(RequiemStableSwapLib.SwapStorage storage,uint256,uint256,uint256)": "infinite",
				"swap(RequiemStableSwapLib.SwapStorage storage,uint256,uint256,uint256,uint256)": "infinite",
				"updateUserWithdrawFee(RequiemStableSwapLib.SwapStorage storage,address,uint256)": "infinite"
			},
			"internal": {
				"_calculateCurrentWithdrawFee(struct RequiemStableSwapLib.SwapStorage storage pointer,address)": "infinite",
				"_calculateRemoveLiquidity(struct RequiemStableSwapLib.SwapStorage storage pointer,address,uint256)": "infinite",
				"_calculateRemoveLiquidityOneToken(struct RequiemStableSwapLib.SwapStorage storage pointer,address,uint256,uint256)": "infinite",
				"_distance(uint256,uint256)": "infinite",
				"_doTransferIn(contract IERC20,uint256)": "infinite",
				"_feePerToken(struct RequiemStableSwapLib.SwapStorage storage pointer)": "infinite",
				"_getAPrecise(struct RequiemStableSwapLib.SwapStorage storage pointer)": "infinite",
				"_getD(uint256[] memory,uint256)": "infinite",
				"_getY(struct RequiemStableSwapLib.SwapStorage storage pointer,uint256,uint256,uint256,uint256[] memory)": "infinite",
				"_getYD(struct RequiemStableSwapLib.SwapStorage storage pointer,uint256,uint256,uint256[] memory,uint256)": "infinite",
				"_sumOf(uint256[] memory)": "infinite",
				"_updateUserWithdrawFee(struct RequiemStableSwapLib.SwapStorage storage pointer,address,uint256)": "infinite",
				"_xp(struct RequiemStableSwapLib.SwapStorage storage pointer)": "infinite",
				"_xp(uint256[] memory,uint256[] memory)": "infinite"
			}
		},
		"methodIdentifiers": {
			"A_PRECISION()": "d011f918",
			"FEE_DENOMINATOR()": "d73792a9",
			"POOL_TOKEN_COMMON_DECIMALS()": "c20aace8",
			"addLiquidity(RequiemStableSwapLib.SwapStorage storage,uint256[],uint256)": "7a6cba3c",
			"calculateRemoveLiquidity(RequiemStableSwapLib.SwapStorage storage,address,uint256)": "fa563597",
			"calculateRemoveLiquidityOneToken(RequiemStableSwapLib.SwapStorage storage,address,uint256,uint256)": "159763bb",
			"calculateSwap(RequiemStableSwapLib.SwapStorage storage,uint256,uint256,uint256)": "ba2998d9",
			"calculateTokenAmount(RequiemStableSwapLib.SwapStorage storage,uint256[],bool)": "1e7e95d3",
			"getA(RequiemStableSwapLib.SwapStorage storage)": "b52e146f",
			"getAPrecise(RequiemStableSwapLib.SwapStorage storage)": "a3035585",
			"getAdminBalance(RequiemStableSwapLib.SwapStorage storage,uint256)": "e2eba89b",
			"getVirtualPrice(RequiemStableSwapLib.SwapStorage storage)": "d36604ac",
			"removeLiquidity(RequiemStableSwapLib.SwapStorage storage,uint256,uint256[])": "c685696c",
			"removeLiquidityImbalance(RequiemStableSwapLib.SwapStorage storage,uint256[],uint256)": "c8344c06",
			"removeLiquidityOneToken(RequiemStableSwapLib.SwapStorage storage,uint256,uint256,uint256)": "2bfe30d0",
			"swap(RequiemStableSwapLib.SwapStorage storage,uint256,uint256,uint256,uint256)": "6e9b505d",
			"updateUserWithdrawFee(RequiemStableSwapLib.SwapStorage storage,address,uint256)": "c188e4be"
		}
	},
	"abi": [
		{
			"anonymous": false,
			"inputs": [
				{
					"indexed": true,
					"internalType": "address",
					"name": "provider",
					"type": "address"
				},
				{
					"indexed": false,
					"internalType": "uint256[]",
					"name": "token_amounts",
					"type": "uint256[]"
				},
				{
					"indexed": false,
					"internalType": "uint256[]",
					"name": "fees",
					"type": "uint256[]"
				},
				{
					"indexed": false,
					"internalType": "uint256",
					"name": "invariant",
					"type": "uint256"
				},
				{
					"indexed": false,
					"internalType": "uint256",
					"name": "token_supply",
					"type": "uint256"
				}
			],
			"name": "AddLiquidity",
			"type": "event"
		},
		{
			"anonymous": false,
			"inputs": [
				{
					"indexed": true,
					"internalType": "address",
					"name": "provider",
					"type": "address"
				},
				{
					"indexed": false,
					"internalType": "uint256[]",
					"name": "token_amounts",
					"type": "uint256[]"
				},
				{
					"indexed": false,
					"internalType": "uint256[]",
					"name": "fees",
					"type": "uint256[]"
				},
				{
					"indexed": false,
					"internalType": "uint256",
					"name": "token_supply",
					"type": "uint256"
				}
			],
			"name": "RemoveLiquidity",
			"type": "event"
		},
		{
			"anonymous": false,
			"inputs": [
				{
					"indexed": true,
					"internalType": "address",
					"name": "provider",
					"type": "address"
				},
				{
					"indexed": false,
					"internalType": "uint256[]",
					"name": "token_amounts",
					"type": "uint256[]"
				},
				{
					"indexed": false,
					"internalType": "uint256[]",
					"name": "fees",
					"type": "uint256[]"
				},
				{
					"indexed": false,
					"internalType": "uint256",
					"name": "invariant",
					"type": "uint256"
				},
				{
					"indexed": false,
					"internalType": "uint256",
					"name": "token_supply",
					"type": "uint256"
				}
			],
			"name": "RemoveLiquidityImbalance",
			"type": "event"
		},
		{
			"anonymous": false,
			"inputs": [
				{
					"indexed": true,
					"internalType": "address",
					"name": "provider",
					"type": "address"
				},
				{
					"indexed": false,
					"internalType": "uint256",
					"name": "index",
					"type": "uint256"
				},
				{
					"indexed": false,
					"internalType": "uint256",
					"name": "token_amount",
					"type": "uint256"
				},
				{
					"indexed": false,
					"internalType": "uint256",
					"name": "coin_amount",
					"type": "uint256"
				}
			],
			"name": "RemoveLiquidityOne",
			"type": "event"
		},
		{
			"anonymous": false,
			"inputs": [
				{
					"indexed": true,
					"internalType": "address",
					"name": "buyer",
					"type": "address"
				},
				{
					"indexed": false,
					"internalType": "uint256",
					"name": "sold_id",
					"type": "uint256"
				},
				{
					"indexed": false,
					"internalType": "uint256",
					"name": "tokens_sold",
					"type": "uint256"
				},
				{
					"indexed": false,
					"internalType": "uint256",
					"name": "bought_id",
					"type": "uint256"
				},
				{
					"indexed": false,
					"internalType": "uint256",
					"name": "tokens_bought",
					"type": "uint256"
				}
			],
			"name": "TokenExchange",
			"type": "event"
		},
		{
			"inputs": [],
			"name": "A_PRECISION",
			"outputs": [
				{
					"internalType": "uint256",
					"name": "",
					"type": "uint256"
				}
			],
			"stateMutability": "view",
			"type": "function"
		},
		{
			"inputs": [],
			"name": "FEE_DENOMINATOR",
			"outputs": [
				{
					"internalType": "uint256",
					"name": "",
					"type": "uint256"
				}
			],
			"stateMutability": "view",
			"type": "function"
		},
		{
			"inputs": [],
			"name": "POOL_TOKEN_COMMON_DECIMALS",
			"outputs": [
				{
					"internalType": "uint256",
					"name": "",
					"type": "uint256"
				}
			],
			"stateMutability": "view",
			"type": "function"
		}
	]
}